{
    "contractName": "ShortOption",
    "abi": [
        {
            "inputs": [
                {
                    "internalType": "string",
                    "name": "name",
                    "type": "string"
                },
                {
                    "internalType": "string",
                    "name": "symbol",
                    "type": "string"
                },
                {
                    "internalType": "address",
                    "name": "collateral",
                    "type": "address"
                },
                {
                    "internalType": "address",
                    "name": "consideration",
                    "type": "address"
                },
                {
                    "internalType": "uint256",
                    "name": "expirationDate",
                    "type": "uint256"
                },
                {
                    "internalType": "uint256",
                    "name": "strike",
                    "type": "uint256"
                },
                {
                    "internalType": "bool",
                    "name": "isPut",
                    "type": "bool"
                }
            ],
            "stateMutability": "nonpayable",
            "type": "constructor"
        },
        {
            "inputs": [],
            "name": "ContractExpired",
            "type": "error"
        },
        {
            "inputs": [],
            "name": "ContractNotExpired",
            "type": "error"
        },
        {
            "inputs": [
                {
                    "internalType": "address",
                    "name": "spender",
                    "type": "address"
                },
                {
                    "internalType": "uint256",
                    "name": "allowance",
                    "type": "uint256"
                },
                {
                    "internalType": "uint256",
                    "name": "needed",
                    "type": "uint256"
                }
            ],
            "name": "ERC20InsufficientAllowance",
            "type": "error"
        },
        {
            "inputs": [
                {
                    "internalType": "address",
                    "name": "sender",
                    "type": "address"
                },
                {
                    "internalType": "uint256",
                    "name": "balance",
                    "type": "uint256"
                },
                {
                    "internalType": "uint256",
                    "name": "needed",
                    "type": "uint256"
                }
            ],
            "name": "ERC20InsufficientBalance",
            "type": "error"
        },
        {
            "inputs": [
                {
                    "internalType": "address",
                    "name": "approver",
                    "type": "address"
                }
            ],
            "name": "ERC20InvalidApprover",
            "type": "error"
        },
        {
            "inputs": [
                {
                    "internalType": "address",
                    "name": "receiver",
                    "type": "address"
                }
            ],
            "name": "ERC20InvalidReceiver",
            "type": "error"
        },
        {
            "inputs": [
                {
                    "internalType": "address",
                    "name": "sender",
                    "type": "address"
                }
            ],
            "name": "ERC20InvalidSender",
            "type": "error"
        },
        {
            "inputs": [
                {
                    "internalType": "address",
                    "name": "spender",
                    "type": "address"
                }
            ],
            "name": "ERC20InvalidSpender",
            "type": "error"
        },
        {
            "inputs": [],
            "name": "InsufficientBalance",
            "type": "error"
        },
        {
            "inputs": [],
            "name": "InvalidAddress",
            "type": "error"
        },
        {
            "inputs": [],
            "name": "InvalidAmount",
            "type": "error"
        },
        {
            "inputs": [],
            "name": "InvalidExpiration",
            "type": "error"
        },
        {
            "inputs": [],
            "name": "InvalidStrike",
            "type": "error"
        },
        {
            "inputs": [
                {
                    "internalType": "address",
                    "name": "owner",
                    "type": "address"
                }
            ],
            "name": "OwnableInvalidOwner",
            "type": "error"
        },
        {
            "inputs": [
                {
                    "internalType": "address",
                    "name": "account",
                    "type": "address"
                }
            ],
            "name": "OwnableUnauthorizedAccount",
            "type": "error"
        },
        {
            "inputs": [],
            "name": "ReentrancyGuardReentrantCall",
            "type": "error"
        },
        {
            "inputs": [
                {
                    "internalType": "address",
                    "name": "token",
                    "type": "address"
                }
            ],
            "name": "SafeERC20FailedOperation",
            "type": "error"
        },
        {
            "anonymous": false,
            "inputs": [
                {
                    "indexed": true,
                    "internalType": "address",
                    "name": "owner",
                    "type": "address"
                },
                {
                    "indexed": true,
                    "internalType": "address",
                    "name": "spender",
                    "type": "address"
                },
                {
                    "indexed": false,
                    "internalType": "uint256",
                    "name": "value",
                    "type": "uint256"
                }
            ],
            "name": "Approval",
            "type": "event"
        },
        {
            "anonymous": false,
            "inputs": [
                {
                    "indexed": true,
                    "internalType": "address",
                    "name": "previousOwner",
                    "type": "address"
                },
                {
                    "indexed": true,
                    "internalType": "address",
                    "name": "newOwner",
                    "type": "address"
                }
            ],
            "name": "OwnershipTransferred",
            "type": "event"
        },
        {
            "anonymous": false,
            "inputs": [
                {
                    "indexed": true,
                    "internalType": "address",
                    "name": "from",
                    "type": "address"
                },
                {
                    "indexed": true,
                    "internalType": "address",
                    "name": "to",
                    "type": "address"
                },
                {
                    "indexed": false,
                    "internalType": "uint256",
                    "name": "value",
                    "type": "uint256"
                }
            ],
            "name": "Transfer",
            "type": "event"
        },
        {
            "inputs": [],
            "name": "STRIKE_DECIMALS",
            "outputs": [
                {
                    "internalType": "uint256",
                    "name": "",
                    "type": "uint256"
                }
            ],
            "stateMutability": "view",
            "type": "function"
        },
        {
            "inputs": [
                {
                    "internalType": "address",
                    "name": "contractHolder",
                    "type": "address"
                },
                {
                    "internalType": "uint256",
                    "name": "amount",
                    "type": "uint256"
                }
            ],
            "name": "_exercise",
            "outputs": [],
            "stateMutability": "nonpayable",
            "type": "function"
        },
        {
            "inputs": [
                {
                    "internalType": "address",
                    "name": "to",
                    "type": "address"
                },
                {
                    "internalType": "uint256",
                    "name": "amount",
                    "type": "uint256"
                }
            ],
            "name": "_redeemPair",
            "outputs": [],
            "stateMutability": "nonpayable",
            "type": "function"
        },
        {
            "inputs": [
                {
                    "internalType": "address",
                    "name": "owner",
                    "type": "address"
                },
                {
                    "internalType": "address",
                    "name": "spender",
                    "type": "address"
                }
            ],
            "name": "allowance",
            "outputs": [
                {
                    "internalType": "uint256",
                    "name": "",
                    "type": "uint256"
                }
            ],
            "stateMutability": "view",
            "type": "function"
        },
        {
            "inputs": [
                {
                    "internalType": "address",
                    "name": "spender",
                    "type": "address"
                },
                {
                    "internalType": "uint256",
                    "name": "value",
                    "type": "uint256"
                }
            ],
            "name": "approve",
            "outputs": [
                {
                    "internalType": "bool",
                    "name": "",
                    "type": "bool"
                }
            ],
            "stateMutability": "nonpayable",
            "type": "function"
        },
        {
            "inputs": [
                {
                    "internalType": "address",
                    "name": "account",
                    "type": "address"
                }
            ],
            "name": "balanceOf",
            "outputs": [
                {
                    "internalType": "uint256",
                    "name": "",
                    "type": "uint256"
                }
            ],
            "stateMutability": "view",
            "type": "function"
        },
        {
            "inputs": [],
            "name": "collateral",
            "outputs": [
                {
                    "internalType": "contract IERC20",
                    "name": "",
                    "type": "address"
                }
            ],
            "stateMutability": "view",
            "type": "function"
        },
        {
            "inputs": [],
            "name": "consideration",
            "outputs": [
                {
                    "internalType": "contract IERC20",
                    "name": "",
                    "type": "address"
                }
            ],
            "stateMutability": "view",
            "type": "function"
        },
        {
            "inputs": [],
            "name": "decimals",
            "outputs": [
                {
                    "internalType": "uint8",
                    "name": "",
                    "type": "uint8"
                }
            ],
            "stateMutability": "view",
            "type": "function"
        },
        {
            "inputs": [],
            "name": "expirationDate",
            "outputs": [
                {
                    "internalType": "uint256",
                    "name": "",
                    "type": "uint256"
                }
            ],
            "stateMutability": "view",
            "type": "function"
        },
        {
            "inputs": [],
            "name": "isPut",
            "outputs": [
                {
                    "internalType": "bool",
                    "name": "",
                    "type": "bool"
                }
            ],
            "stateMutability": "view",
            "type": "function"
        },
        {
            "inputs": [],
            "name": "longOption",
            "outputs": [
                {
                    "internalType": "address",
                    "name": "",
                    "type": "address"
                }
            ],
            "stateMutability": "view",
            "type": "function"
        },
        {
            "inputs": [
                {
                    "internalType": "address",
                    "name": "to",
                    "type": "address"
                },
                {
                    "internalType": "uint256",
                    "name": "amount",
                    "type": "uint256"
                }
            ],
            "name": "mint",
            "outputs": [],
            "stateMutability": "nonpayable",
            "type": "function"
        },
        {
            "inputs": [],
            "name": "name",
            "outputs": [
                {
                    "internalType": "string",
                    "name": "",
                    "type": "string"
                }
            ],
            "stateMutability": "view",
            "type": "function"
        },
        {
            "inputs": [],
            "name": "owner",
            "outputs": [
                {
                    "internalType": "address",
                    "name": "",
                    "type": "address"
                }
            ],
            "stateMutability": "view",
            "type": "function"
        },
        {
            "inputs": [
                {
                    "internalType": "uint256",
                    "name": "amount",
                    "type": "uint256"
                }
            ],
            "name": "redeem",
            "outputs": [],
            "stateMutability": "nonpayable",
            "type": "function"
        },
        {
            "inputs": [
                {
                    "internalType": "uint256",
                    "name": "amount",
                    "type": "uint256"
                }
            ],
            "name": "redeemConsideration",
            "outputs": [],
            "stateMutability": "nonpayable",
            "type": "function"
        },
        {
            "inputs": [],
            "name": "renounceOwnership",
            "outputs": [],
            "stateMutability": "nonpayable",
            "type": "function"
        },
        {
            "inputs": [],
            "name": "strike",
            "outputs": [
                {
                    "internalType": "uint256",
                    "name": "",
                    "type": "uint256"
                }
            ],
            "stateMutability": "view",
            "type": "function"
        },
        {
            "inputs": [],
            "name": "symbol",
            "outputs": [
                {
                    "internalType": "string",
                    "name": "",
                    "type": "string"
                }
            ],
            "stateMutability": "view",
            "type": "function"
        },
        {
            "inputs": [
                {
                    "internalType": "uint256",
                    "name": "amount",
                    "type": "uint256"
                }
            ],
            "name": "toConsideration",
            "outputs": [
                {
                    "internalType": "uint256",
                    "name": "",
                    "type": "uint256"
                }
            ],
            "stateMutability": "view",
            "type": "function"
        },
        {
            "inputs": [],
            "name": "totalSupply",
            "outputs": [
                {
                    "internalType": "uint256",
                    "name": "",
                    "type": "uint256"
                }
            ],
            "stateMutability": "view",
            "type": "function"
        },
        {
            "inputs": [
                {
                    "internalType": "address",
                    "name": "to",
                    "type": "address"
                },
                {
                    "internalType": "uint256",
                    "name": "value",
                    "type": "uint256"
                }
            ],
            "name": "transfer",
            "outputs": [
                {
                    "internalType": "bool",
                    "name": "",
                    "type": "bool"
                }
            ],
            "stateMutability": "nonpayable",
            "type": "function"
        },
        {
            "inputs": [
                {
                    "internalType": "address",
                    "name": "from",
                    "type": "address"
                },
                {
                    "internalType": "address",
                    "name": "to",
                    "type": "address"
                },
                {
                    "internalType": "uint256",
                    "name": "value",
                    "type": "uint256"
                }
            ],
            "name": "transferFrom",
            "outputs": [
                {
                    "internalType": "bool",
                    "name": "",
                    "type": "bool"
                }
            ],
            "stateMutability": "nonpayable",
            "type": "function"
        },
        {
            "inputs": [
                {
                    "internalType": "address",
                    "name": "newOwner",
                    "type": "address"
                }
            ],
            "name": "transferOwnership",
            "outputs": [],
            "stateMutability": "nonpayable",
            "type": "function"
        }
    ],
    "bytecode": "608060405234610473576117108038038061001981610477565b928339810160e0828203126104735781516001600160401b038111610473578161004491840161049c565b602083015190916001600160401b0382116104735761006491840161049c565b90610071604084016104ed565b61007d606085016104ed565b9360808101519360c060a083015192015193841515809503610473578051906001600160401b0382116103765760035490600182811c92168015610469575b60208310146103585781601f8493116103fb575b50602090601f8311600114610395575f9261038a575b50508160011b915f199060031b1c1916176003555b8051906001600160401b0382116103765760045490600182811c9216801561036c575b60208310146103585781601f8493116102ea575b50602090601f8311600114610284575f92610279575b50508160011b915f199060031b1c1916176004555b33156102665760058054336001600160a01b0319821681179092556040519691906001600160a01b03167f8be0079c531659141344cd1fd0a4f28419497f9722a3daafe3b4186f6b6457e05f80a360016006556001600160a01b03831615610257576001600160a01b031693841561025757811561024857428110610239576007556008908155600980546001600160a81b03191660ff949094169390931791901b610100600160a81b0316179055600a80546001600160a01b0319908116929092179055600b80549091163317905561120e90816105028239f35b637d9533a960e11b5f5260045ffd5b63134b031b60e31b5f5260045ffd5b63e6c4247b60e01b5f5260045ffd5b631e4fbdf760e01b5f525f60045260245ffd5b015190505f80610148565b60045f9081528281209350601f198516905b8181106102d257509084600195949392106102ba575b505050811b0160045561015d565b01515f1960f88460031b161c191690555f80806102ac565b92936020600181928786015181550195019301610296565b60045f529091507f8a35acfbc15ff81a39ae7d344fd709f28e8600b4aa8c65c6b64bfe7fe36bd19b601f840160051c8101916020851061034e575b90601f859493920160051c01905b8181106103405750610132565b5f8155849350600101610333565b9091508190610325565b634e487b7160e01b5f52602260045260245ffd5b91607f169161011e565b634e487b7160e01b5f52604160045260245ffd5b015190505f806100e6565b60035f9081528281209350601f198516905b8181106103e357509084600195949392106103cb575b505050811b016003556100fb565b01515f1960f88460031b161c191690555f80806103bd565b929360206001819287860151815501950193016103a7565b60035f529091507fc2575a0e9e593c00f959f8c92f12db2869c3395a3b0502d05e2516446f71f85b601f840160051c8101916020851061045f575b90601f859493920160051c01905b81811061045157506100d0565b5f8155849350600101610444565b9091508190610436565b91607f16916100bc565b5f80fd5b6040519190601f01601f191682016001600160401b0381118382101761037657604052565b81601f82011215610473578051906001600160401b038211610376576104cb601f8301601f1916602001610477565b928284526020838301011161047357815f9260208093018386015e8301015290565b51906001600160a01b03821682036104735756fe6080806040526004361015610012575f80fd5b5f3560e01c90816306fdde0314610e1f5750806307b448ed14610d2e578063095ea7b314610cac5780630a93621e14610bbd578063124bcac814610b9b57806318160ddd14610b7e57806323b872dd14610a9e578063313ce56714610a8357806340c10f19146108dd57806351df038a146106fb578063551dc014146106d35780636f713c9c146106ab57806370a0823114610674578063715018a6146106195780638da5cb5b146105f15780638f620487146105d457806395d89b41146104d05780639a40f5a1146104aa578063a9059cbb14610479578063ad8f50081461045c578063d8dfeb4514610430578063db006a751461022b578063dd62ed3e146101db578063f2fde38b146101555763f3c274a61461012f575f80fd5b34610151575f36600319011261015157602060ff600954166040519015158152f35b5f80fd5b346101515760203660031901126101515761016e610f01565b610176610f85565b6001600160a01b031680156101c857600580546001600160a01b0319811683179091556001600160a01b03167f8be0079c531659141344cd1fd0a4f28419497f9722a3daafe3b4186f6b6457e05f80a3005b631e4fbdf760e01b5f525f60045260245ffd5b34610151576040366003190112610151576101f4610f01565b6101fc610f17565b6001600160a01b039182165f908152600160209081526040808320949093168252928352819020549051908152f35b3461015157602036600319011261015157600435600754421061042157335f525f6020528060405f20541061037757610262611056565b335f525f6020528060405f205410610377578015610412576009546040516370a0823160e01b8152306004820152906020908290602490829060081c6001600160a01b03165afa80156103d4575f906103df575b600a546040516370a0823160e01b81523060048201529250602090839060249082906001600160a01b03165afa9182156103d4575f926103a0575b5080831161039a5750815b6103068133611076565b80831061033e575b50508061031d575b6001600655005b6009546103389190339060081c6001600160a01b03166110fa565b80610316565b8281039081116103865761035190610f63565b80911061037757600a54610370919033906001600160a01b03166110fa565b818061030e565b631e9acf1760e31b5f5260045ffd5b634e487b7160e01b5f52601160045260245ffd5b916102fc565b9091506020813d6020116103cc575b816103bc60209383610f2d565b81010312610151575190836102f1565b3d91506103af565b6040513d5f823e3d90fd5b506020813d60201161040a575b816103f960209383610f2d565b8101031261015157602490516102b6565b3d91506103ec565b63162908e360e11b5f5260045ffd5b6321f0a55360e11b5f5260045ffd5b34610151575f3660031901126101515760095460405160089190911c6001600160a01b03168152602090f35b34610151575f366003190112610151576020600854604051908152f35b346101515760403660031901126101515761049f610495610f01565b6024359033610fac565b602060405160018152f35b346101515760203660031901126101515760206104c8600435610f63565b604051908152f35b34610151575f366003190112610151576040515f6004548060011c906001811680156105ca575b6020831081146105b6578285529081156105925750600114610534575b6105308361052481850382610f2d565b60405191829182610ed7565b0390f35b91905060045f527f8a35acfbc15ff81a39ae7d344fd709f28e8600b4aa8c65c6b64bfe7fe36bd19b915f905b80821061057857509091508101602001610524610514565b919260018160209254838588010152019101909291610560565b60ff191660208086019190915291151560051b840190910191506105249050610514565b634e487b7160e01b5f52602260045260245ffd5b91607f16916104f7565b34610151575f366003190112610151576020600754604051908152f35b34610151575f366003190112610151576005546040516001600160a01b039091168152602090f35b34610151575f36600319011261015157610631610f85565b600580546001600160a01b031981169091555f906001600160a01b03167f8be0079c531659141344cd1fd0a4f28419497f9722a3daafe3b4186f6b6457e08280a3005b34610151576020366003190112610151576001600160a01b03610695610f01565b165f525f602052602060405f2054604051908152f35b34610151575f36600319011261015157600a546040516001600160a01b039091168152602090f35b34610151575f36600319011261015157600b546040516001600160a01b039091168152602090f35b3461015157604036600319011261015157610714610f01565b6024356007544210156108ce57610729610f85565b6001600160a01b0382165f8181526020819052604090205482116103775761074f611056565b5f525f6020528060405f205410610377578015610412576009546040516370a0823160e01b8152306004820152906020908290602490829060081c6001600160a01b03165afa80156103d4575f9061089b575b600a546040516370a0823160e01b81523060048201529250602090839060249082906001600160a01b03165afa9182156103d4575f92610867575b508083116108615750815b6107f28185611076565b808310610828575b505080610808576001600655005b600954610821929060081c6001600160a01b03166110fa565b8080610316565b8281039081116103865761083b90610f63565b80911061037757600a5461085a919084906001600160a01b03166110fa565b82806107fa565b916107e8565b9091506020813d602011610893575b8161088360209383610f2d565b81010312610151575190846107dd565b3d9150610876565b506020813d6020116108c6575b816108b560209383610f2d565b8101031261015157602490516107a2565b3d91506108a8565b630790d4e360e01b5f5260045ffd5b34610151576040366003190112610151576108f6610f01565b602435610901610f85565b6009546040516370a0823160e01b81526001600160a01b038481166004830181905294926020918391602491839160081c165afa80156103d45783915f91610a4e575b501061037757811561041257610958611056565b6009546040516370a0823160e01b81526004810185905260089190911c6001600160a01b03169190602081602481865afa80156103d45784915f91610a19575b5010610377576109ab918391309161113c565b8115610a0657600254908082018092116103865760207fddf252ad1be2c89b69c2b068fc378daa952ba7f163c4a11628f55a4df523b3ef915f9360025584845283825260408420818154019055604051908152a36001600655005b63ec442f0560e01b5f525f60045260245ffd5b9150506020813d602011610a46575b81610a3560209383610f2d565b810103126101515783905186610998565b3d9150610a28565b9150506020813d602011610a7b575b81610a6a60209383610f2d565b810103126101515782905185610944565b3d9150610a5d565b34610151575f36600319011261015157602060405160128152f35b3461015157606036600319011261015157610ab7610f01565b610abf610f17565b6001600160a01b0382165f818152600160208181526040808420338552909152909120549193604435939290918101610afe575b5061049f9350610fac565b838110610b63578415610b50573315610b3d5761049f945f52600160205260405f2060018060a01b0333165f526020528360405f209103905584610af3565b634a1406b160e11b5f525f60045260245ffd5b63e602df0560e01b5f525f60045260245ffd5b8390637dc7a0d960e11b5f523360045260245260445260645ffd5b34610151575f366003190112610151576020600254604051908152f35b34610151575f366003190112610151576020604051670de0b6b3a76400008152f35b3461015157604036600319011261015157610bd6610f01565b6024356007544210156108ce57610beb610f85565b610bf3611056565b6007544210156108ce57610c05610f85565b610c0e81610f63565b600a546040516370a0823160e01b81526001600160a01b03858116600483015292949290911690602081602481855afa80156103d45785915f91610c77575b50106103775761031693610c639183309161113c565b60095460081c6001600160a01b03166110fa565b9150506020813d602011610ca4575b81610c9360209383610f2d565b810103126101515784905186610c4d565b3d9150610c86565b3461015157604036600319011261015157610cc5610f01565b602435903315610b50576001600160a01b0316908115610b3d57335f52600160205260405f20825f526020528060405f20556040519081527f8c5be1e5ebec7d5bd14f71427d1e84f3dd0314c0f7b2291e5b200ac8c7c3b92560203392a3602060405160018152f35b3461015157602036600319011261015157600435335f525f6020528060405f20541061037757600754421061042157610d65611056565b335f525f6020528060405f20541061037757801561041257600a546040516370a0823160e01b815230600482015290602090829060249082906001600160a01b03165afa80156103d45782915f91610dea575b50106103775780610dcc6103169233611076565b600a546001600160a01b031690610de290610f63565b9033906110fa565b9150506020813d602011610e17575b81610e0660209383610f2d565b810103126101515781905183610db8565b3d9150610df9565b34610151575f366003190112610151575f6003548060011c90600181168015610ecd575b6020831081146105b6578285529081156105925750600114610e6f576105308361052481850382610f2d565b91905060035f527fc2575a0e9e593c00f959f8c92f12db2869c3395a3b0502d05e2516446f71f85b915f905b808210610eb357509091508101602001610524610514565b919260018160209254838588010152019101909291610e9b565b91607f1691610e43565b602060409281835280519182918282860152018484015e5f828201840152601f01601f1916010190565b600435906001600160a01b038216820361015157565b602435906001600160a01b038216820361015157565b90601f8019910116810190811067ffffffffffffffff821117610f4f57604052565b634e487b7160e01b5f52604160045260245ffd5b6008549081810291818304149015171561038657670de0b6b3a7640000900490565b6005546001600160a01b03163303610f9957565b63118cdaa760e01b5f523360045260245ffd5b6001600160a01b0316908115611043576001600160a01b0316918215610a0657815f525f60205260405f205481811061102a57817fddf252ad1be2c89b69c2b068fc378daa952ba7f163c4a11628f55a4df523b3ef92602092855f525f84520360405f2055845f525f825260405f20818154019055604051908152a3565b8263391434e360e21b5f5260045260245260445260645ffd5b634b637e8f60e11b5f525f60045260245ffd5b600260065414611067576002600655565b633ee5aeb560e01b5f5260045ffd5b9091906001600160a01b0316801561104357805f525f60205260405f20548381106110e0576020845f94957fddf252ad1be2c89b69c2b068fc378daa952ba7f163c4a11628f55a4df523b3ef938587528684520360408620558060025403600255604051908152a3565b915063391434e360e21b5f5260045260245260445260645ffd5b60405163a9059cbb60e01b60208201526001600160a01b03909216602483015260448083019390935291815261113a91611135606483610f2d565b611180565b565b6040516323b872dd60e01b60208201526001600160a01b03928316602482015292909116604483015260648083019390935291815261113a91611135608483610f2d565b905f602091828151910182855af1156103d4575f513d6111cf57506001600160a01b0381163b155b6111af5750565b635274afe760e01b5f9081526001600160a01b0391909116600452602490fd5b600114156111a856fea2646970667358221220c1263f7e2b3885c6e334672924b1a6310a42c3ce612c96e54c448b379435a3ed64736f6c634300081c0033",
    "sourcePath": "/Users/mla/c/subtraction/contracts/Option.sol",
    "compiler": {
        "name": "solc",
        "version": "0.8.28+commit.7893614a"
    },
    "functionHashes": {
        "STRIKE_DECIMALS()": "124bcac8",
        "_exercise(address,uint256)": "0a93621e",
        "_redeemPair(address,uint256)": "51df038a",
        "allowance(address,address)": "dd62ed3e",
        "approve(address,uint256)": "095ea7b3",
        "balanceOf(address)": "70a08231",
        "collateral()": "d8dfeb45",
        "consideration()": "6f713c9c",
        "decimals()": "313ce567",
        "expirationDate()": "8f620487",
        "isPut()": "f3c274a6",
        "longOption()": "551dc014",
        "mint(address,uint256)": "40c10f19",
        "name()": "06fdde03",
        "owner()": "8da5cb5b",
        "redeem(uint256)": "db006a75",
        "redeemConsideration(uint256)": "07b448ed",
        "renounceOwnership()": "715018a6",
        "strike()": "ad8f5008",
        "symbol()": "95d89b41",
        "toConsideration(uint256)": "9a40f5a1",
        "totalSupply()": "18160ddd",
        "transfer(address,uint256)": "a9059cbb",
        "transferFrom(address,address,uint256)": "23b872dd",
        "transferOwnership(address)": "f2fde38b"
    },
    "gasEstimates": {
        "creation": {
            "codeDepositCost": "924400",
            "executionCost": "infinite",
            "totalCost": "infinite"
        },
        "external": {
            "STRIKE_DECIMALS()": "241",
            "_exercise(address,uint256)": "infinite",
            "_redeemPair(address,uint256)": "infinite",
            "allowance(address,address)": "3057",
            "approve(address,uint256)": "24347",
            "balanceOf(address)": "2669",
            "collateral()": "2729",
            "consideration()": "2522",
            "decimals()": "307",
            "expirationDate()": "2586",
            "isPut()": "2793",
            "longOption()": "2500",
            "mint(address,uint256)": "infinite",
            "name()": "infinite",
            "owner()": "2588",
            "redeem(uint256)": "infinite",
            "redeemConsideration(uint256)": "infinite",
            "renounceOwnership()": "28346",
            "strike()": "2674",
            "symbol()": "infinite",
            "toConsideration(uint256)": "2731",
            "totalSupply()": "2366",
            "transfer(address,uint256)": "51150",
            "transferFrom(address,address,uint256)": "75593",
            "transferOwnership(address)": "28677"
        },
        "internal": {
            "__exercise(address,uint256)": "infinite",
            "__mint(address,uint256)": "infinite",
            "_redeem(address,uint256)": "infinite",
            "_redeemConsideration(address,uint256)": "infinite"
        }
    }
}