{
	"contracts/OptionBase.sol": {
		"OptionBase": {
			"abi": [
				{
					"inputs": [
						{
							"internalType": "string",
							"name": "name",
							"type": "string"
						},
						{
							"internalType": "string",
							"name": "symbol",
							"type": "string"
						},
						{
							"internalType": "address",
							"name": "_collateralAddress",
							"type": "address"
						},
						{
							"internalType": "address",
							"name": "_considerationAddress",
							"type": "address"
						},
						{
							"internalType": "uint256",
							"name": "_expirationDate",
							"type": "uint256"
						},
						{
							"internalType": "uint256",
							"name": "_strikeNum",
							"type": "uint256"
						},
						{
							"internalType": "uint256",
							"name": "_strikeDen",
							"type": "uint256"
						},
						{
							"internalType": "bool",
							"name": "_isPut",
							"type": "bool"
						}
					],
					"stateMutability": "nonpayable",
					"type": "constructor"
				},
				{
					"inputs": [],
					"name": "ContractExpired",
					"type": "error"
				},
				{
					"inputs": [],
					"name": "ContractNotExpired",
					"type": "error"
				},
				{
					"inputs": [
						{
							"internalType": "address",
							"name": "spender",
							"type": "address"
						},
						{
							"internalType": "uint256",
							"name": "allowance",
							"type": "uint256"
						},
						{
							"internalType": "uint256",
							"name": "needed",
							"type": "uint256"
						}
					],
					"name": "ERC20InsufficientAllowance",
					"type": "error"
				},
				{
					"inputs": [
						{
							"internalType": "address",
							"name": "sender",
							"type": "address"
						},
						{
							"internalType": "uint256",
							"name": "balance",
							"type": "uint256"
						},
						{
							"internalType": "uint256",
							"name": "needed",
							"type": "uint256"
						}
					],
					"name": "ERC20InsufficientBalance",
					"type": "error"
				},
				{
					"inputs": [
						{
							"internalType": "address",
							"name": "approver",
							"type": "address"
						}
					],
					"name": "ERC20InvalidApprover",
					"type": "error"
				},
				{
					"inputs": [
						{
							"internalType": "address",
							"name": "receiver",
							"type": "address"
						}
					],
					"name": "ERC20InvalidReceiver",
					"type": "error"
				},
				{
					"inputs": [
						{
							"internalType": "address",
							"name": "sender",
							"type": "address"
						}
					],
					"name": "ERC20InvalidSender",
					"type": "error"
				},
				{
					"inputs": [
						{
							"internalType": "address",
							"name": "spender",
							"type": "address"
						}
					],
					"name": "ERC20InvalidSpender",
					"type": "error"
				},
				{
					"inputs": [],
					"name": "InsufficientBalance",
					"type": "error"
				},
				{
					"inputs": [],
					"name": "InvalidAmount",
					"type": "error"
				},
				{
					"inputs": [],
					"name": "InvalidExpiration",
					"type": "error"
				},
				{
					"inputs": [],
					"name": "InvalidStrike",
					"type": "error"
				},
				{
					"inputs": [
						{
							"internalType": "address",
							"name": "owner",
							"type": "address"
						}
					],
					"name": "OwnableInvalidOwner",
					"type": "error"
				},
				{
					"inputs": [
						{
							"internalType": "address",
							"name": "account",
							"type": "address"
						}
					],
					"name": "OwnableUnauthorizedAccount",
					"type": "error"
				},
				{
					"inputs": [],
					"name": "ReentrancyGuardReentrantCall",
					"type": "error"
				},
				{
					"anonymous": false,
					"inputs": [
						{
							"indexed": true,
							"internalType": "address",
							"name": "owner",
							"type": "address"
						},
						{
							"indexed": true,
							"internalType": "address",
							"name": "spender",
							"type": "address"
						},
						{
							"indexed": false,
							"internalType": "uint256",
							"name": "value",
							"type": "uint256"
						}
					],
					"name": "Approval",
					"type": "event"
				},
				{
					"anonymous": false,
					"inputs": [
						{
							"indexed": true,
							"internalType": "address",
							"name": "previousOwner",
							"type": "address"
						},
						{
							"indexed": true,
							"internalType": "address",
							"name": "newOwner",
							"type": "address"
						}
					],
					"name": "OwnershipTransferred",
					"type": "event"
				},
				{
					"anonymous": false,
					"inputs": [
						{
							"indexed": true,
							"internalType": "address",
							"name": "from",
							"type": "address"
						},
						{
							"indexed": true,
							"internalType": "address",
							"name": "to",
							"type": "address"
						},
						{
							"indexed": false,
							"internalType": "uint256",
							"name": "value",
							"type": "uint256"
						}
					],
					"name": "Transfer",
					"type": "event"
				},
				{
					"inputs": [
						{
							"internalType": "address",
							"name": "owner",
							"type": "address"
						},
						{
							"internalType": "address",
							"name": "spender",
							"type": "address"
						}
					],
					"name": "allowance",
					"outputs": [
						{
							"internalType": "uint256",
							"name": "",
							"type": "uint256"
						}
					],
					"stateMutability": "view",
					"type": "function"
				},
				{
					"inputs": [
						{
							"internalType": "address",
							"name": "spender",
							"type": "address"
						},
						{
							"internalType": "uint256",
							"name": "value",
							"type": "uint256"
						}
					],
					"name": "approve",
					"outputs": [
						{
							"internalType": "bool",
							"name": "",
							"type": "bool"
						}
					],
					"stateMutability": "nonpayable",
					"type": "function"
				},
				{
					"inputs": [
						{
							"internalType": "address",
							"name": "account",
							"type": "address"
						}
					],
					"name": "balanceOf",
					"outputs": [
						{
							"internalType": "uint256",
							"name": "",
							"type": "uint256"
						}
					],
					"stateMutability": "view",
					"type": "function"
				},
				{
					"inputs": [],
					"name": "collateral",
					"outputs": [
						{
							"internalType": "contract IERC20",
							"name": "",
							"type": "address"
						}
					],
					"stateMutability": "view",
					"type": "function"
				},
				{
					"inputs": [],
					"name": "collateralAddress",
					"outputs": [
						{
							"internalType": "address",
							"name": "",
							"type": "address"
						}
					],
					"stateMutability": "view",
					"type": "function"
				},
				{
					"inputs": [],
					"name": "consideration",
					"outputs": [
						{
							"internalType": "contract IERC20",
							"name": "",
							"type": "address"
						}
					],
					"stateMutability": "view",
					"type": "function"
				},
				{
					"inputs": [],
					"name": "considerationAddress",
					"outputs": [
						{
							"internalType": "address",
							"name": "",
							"type": "address"
						}
					],
					"stateMutability": "view",
					"type": "function"
				},
				{
					"inputs": [],
					"name": "decimals",
					"outputs": [
						{
							"internalType": "uint8",
							"name": "",
							"type": "uint8"
						}
					],
					"stateMutability": "view",
					"type": "function"
				},
				{
					"inputs": [],
					"name": "expirationDate",
					"outputs": [
						{
							"internalType": "uint256",
							"name": "",
							"type": "uint256"
						}
					],
					"stateMutability": "view",
					"type": "function"
				},
				{
					"inputs": [],
					"name": "getCollateralBalance",
					"outputs": [
						{
							"internalType": "uint256",
							"name": "",
							"type": "uint256"
						}
					],
					"stateMutability": "view",
					"type": "function"
				},
				{
					"inputs": [],
					"name": "getConsiderationBalance",
					"outputs": [
						{
							"internalType": "uint256",
							"name": "",
							"type": "uint256"
						}
					],
					"stateMutability": "view",
					"type": "function"
				},
				{
					"inputs": [],
					"name": "isExpired",
					"outputs": [
						{
							"internalType": "bool",
							"name": "",
							"type": "bool"
						}
					],
					"stateMutability": "view",
					"type": "function"
				},
				{
					"inputs": [],
					"name": "isNotExpired",
					"outputs": [
						{
							"internalType": "bool",
							"name": "",
							"type": "bool"
						}
					],
					"stateMutability": "view",
					"type": "function"
				},
				{
					"inputs": [],
					"name": "isPut",
					"outputs": [
						{
							"internalType": "bool",
							"name": "",
							"type": "bool"
						}
					],
					"stateMutability": "view",
					"type": "function"
				},
				{
					"inputs": [],
					"name": "name",
					"outputs": [
						{
							"internalType": "string",
							"name": "",
							"type": "string"
						}
					],
					"stateMutability": "view",
					"type": "function"
				},
				{
					"inputs": [],
					"name": "optionType",
					"outputs": [
						{
							"internalType": "string",
							"name": "",
							"type": "string"
						}
					],
					"stateMutability": "view",
					"type": "function"
				},
				{
					"inputs": [],
					"name": "owner",
					"outputs": [
						{
							"internalType": "address",
							"name": "",
							"type": "address"
						}
					],
					"stateMutability": "view",
					"type": "function"
				},
				{
					"inputs": [],
					"name": "renounceOwnership",
					"outputs": [],
					"stateMutability": "nonpayable",
					"type": "function"
				},
				{
					"inputs": [],
					"name": "strikeDen",
					"outputs": [
						{
							"internalType": "uint256",
							"name": "",
							"type": "uint256"
						}
					],
					"stateMutability": "view",
					"type": "function"
				},
				{
					"inputs": [],
					"name": "strikeNum",
					"outputs": [
						{
							"internalType": "uint256",
							"name": "",
							"type": "uint256"
						}
					],
					"stateMutability": "view",
					"type": "function"
				},
				{
					"inputs": [],
					"name": "symbol",
					"outputs": [
						{
							"internalType": "string",
							"name": "",
							"type": "string"
						}
					],
					"stateMutability": "view",
					"type": "function"
				},
				{
					"inputs": [],
					"name": "totalSupply",
					"outputs": [
						{
							"internalType": "uint256",
							"name": "",
							"type": "uint256"
						}
					],
					"stateMutability": "view",
					"type": "function"
				},
				{
					"inputs": [
						{
							"internalType": "address",
							"name": "to",
							"type": "address"
						},
						{
							"internalType": "uint256",
							"name": "value",
							"type": "uint256"
						}
					],
					"name": "transfer",
					"outputs": [
						{
							"internalType": "bool",
							"name": "",
							"type": "bool"
						}
					],
					"stateMutability": "nonpayable",
					"type": "function"
				},
				{
					"inputs": [
						{
							"internalType": "address",
							"name": "from",
							"type": "address"
						},
						{
							"internalType": "address",
							"name": "to",
							"type": "address"
						},
						{
							"internalType": "uint256",
							"name": "value",
							"type": "uint256"
						}
					],
					"name": "transferFrom",
					"outputs": [
						{
							"internalType": "bool",
							"name": "",
							"type": "bool"
						}
					],
					"stateMutability": "nonpayable",
					"type": "function"
				},
				{
					"inputs": [
						{
							"internalType": "address",
							"name": "newOwner",
							"type": "address"
						}
					],
					"name": "transferOwnership",
					"outputs": [],
					"stateMutability": "nonpayable",
					"type": "function"
				}
			],
			"devdoc": {
				"errors": {
					"ERC20InsufficientAllowance(address,uint256,uint256)": [
						{
							"details": "Indicates a failure with the `spender`’s `allowance`. Used in transfers.",
							"params": {
								"allowance": "Amount of tokens a `spender` is allowed to operate with.",
								"needed": "Minimum amount required to perform a transfer.",
								"spender": "Address that may be allowed to operate on tokens without being their owner."
							}
						}
					],
					"ERC20InsufficientBalance(address,uint256,uint256)": [
						{
							"details": "Indicates an error related to the current `balance` of a `sender`. Used in transfers.",
							"params": {
								"balance": "Current balance for the interacting account.",
								"needed": "Minimum amount required to perform a transfer.",
								"sender": "Address whose tokens are being transferred."
							}
						}
					],
					"ERC20InvalidApprover(address)": [
						{
							"details": "Indicates a failure with the `approver` of a token to be approved. Used in approvals.",
							"params": {
								"approver": "Address initiating an approval operation."
							}
						}
					],
					"ERC20InvalidReceiver(address)": [
						{
							"details": "Indicates a failure with the token `receiver`. Used in transfers.",
							"params": {
								"receiver": "Address to which tokens are being transferred."
							}
						}
					],
					"ERC20InvalidSender(address)": [
						{
							"details": "Indicates a failure with the token `sender`. Used in transfers.",
							"params": {
								"sender": "Address whose tokens are being transferred."
							}
						}
					],
					"ERC20InvalidSpender(address)": [
						{
							"details": "Indicates a failure with the `spender` to be approved. Used in approvals.",
							"params": {
								"spender": "Address that may be allowed to operate on tokens without being their owner."
							}
						}
					],
					"OwnableInvalidOwner(address)": [
						{
							"details": "The owner is not a valid owner account. (eg. `address(0)`)"
						}
					],
					"OwnableUnauthorizedAccount(address)": [
						{
							"details": "The caller account is not authorized to perform an operation."
						}
					],
					"ReentrancyGuardReentrantCall()": [
						{
							"details": "Unauthorized reentrant call."
						}
					]
				},
				"events": {
					"Approval(address,address,uint256)": {
						"details": "Emitted when the allowance of a `spender` for an `owner` is set by a call to {approve}. `value` is the new allowance."
					},
					"Transfer(address,address,uint256)": {
						"details": "Emitted when `value` tokens are moved from one account (`from`) to another (`to`). Note that `value` may be zero."
					}
				},
				"kind": "dev",
				"methods": {
					"allowance(address,address)": {
						"details": "See {IERC20-allowance}."
					},
					"approve(address,uint256)": {
						"details": "See {IERC20-approve}. NOTE: If `value` is the maximum `uint256`, the allowance is not updated on `transferFrom`. This is semantically equivalent to an infinite approval. Requirements: - `spender` cannot be the zero address."
					},
					"balanceOf(address)": {
						"details": "See {IERC20-balanceOf}."
					},
					"decimals()": {
						"details": "Returns the number of decimals used to get its user representation. For example, if `decimals` equals `2`, a balance of `505` tokens should be displayed to a user as `5.05` (`505 / 10 ** 2`). Tokens usually opt for a value of 18, imitating the relationship between Ether and Wei. This is the default value returned by this function, unless it's overridden. NOTE: This information is only used for _display_ purposes: it in no way affects any of the arithmetic of the contract, including {IERC20-balanceOf} and {IERC20-transfer}."
					},
					"name()": {
						"details": "Returns the name of the token."
					},
					"owner()": {
						"details": "Returns the address of the current owner."
					},
					"renounceOwnership()": {
						"details": "Leaves the contract without owner. It will not be possible to call `onlyOwner` functions. Can only be called by the current owner. NOTE: Renouncing ownership will leave the contract without an owner, thereby disabling any functionality that is only available to the owner."
					},
					"symbol()": {
						"details": "Returns the symbol of the token, usually a shorter version of the name."
					},
					"totalSupply()": {
						"details": "See {IERC20-totalSupply}."
					},
					"transfer(address,uint256)": {
						"details": "See {IERC20-transfer}. Requirements: - `to` cannot be the zero address. - the caller must have a balance of at least `value`."
					},
					"transferFrom(address,address,uint256)": {
						"details": "See {IERC20-transferFrom}. Skips emitting an {Approval} event indicating an allowance update. This is not required by the ERC. See {xref-ERC20-_approve-address-address-uint256-bool-}[_approve]. NOTE: Does not update the allowance if the current allowance is the maximum `uint256`. Requirements: - `from` and `to` cannot be the zero address. - `from` must have a balance of at least `value`. - the caller must have allowance for ``from``'s tokens of at least `value`."
					},
					"transferOwnership(address)": {
						"details": "Transfers ownership of the contract to a new account (`newOwner`). Can only be called by the current owner."
					}
				},
				"version": 1
			},
			"evm": {
				"assembly": "    /* \"contracts/OptionBase.sol\":228:2839  contract OptionBase is ERC20, Ownable, ReentrancyGuard {... */\n  mstore(0x40, 0x80)\n    /* \"contracts/OptionBase.sol\":1321:2179  constructor(... */\n  callvalue\n  dup1\n  iszero\n  tag_1\n  jumpi\n  0x00\n  dup1\n  revert\ntag_1:\n  pop\n  mload(0x40)\n  sub(codesize, bytecodeSize)\n  dup1\n  bytecodeSize\n  dup4\n  codecopy\n  dup2\n  dup2\n  add\n  0x40\n  mstore\n  dup2\n  add\n  swap1\n  tag_2\n  swap2\n  swap1\n  tag_3\n  jump\t// in\ntag_2:\n    /* \"contracts/OptionBase.sol\":1618:1628  msg.sender */\n  caller\n    /* \"contracts/OptionBase.sol\":1596:1600  name */\n  dup9\n    /* \"contracts/OptionBase.sol\":1602:1608  symbol */\n  dup9\n    /* \"@openzeppelin/contracts/token/ERC20/ERC20.sol\":1675:1680  name_ */\n  dup2\n    /* \"@openzeppelin/contracts/token/ERC20/ERC20.sol\":1667:1672  _name */\n  0x03\n    /* \"@openzeppelin/contracts/token/ERC20/ERC20.sol\":1667:1680  _name = name_ */\n  swap1\n  dup2\n  tag_9\n  swap2\n  swap1\n  tag_10\n  jump\t// in\ntag_9:\n  pop\n    /* \"@openzeppelin/contracts/token/ERC20/ERC20.sol\":1700:1707  symbol_ */\n  dup1\n    /* \"@openzeppelin/contracts/token/ERC20/ERC20.sol\":1690:1697  _symbol */\n  0x04\n    /* \"@openzeppelin/contracts/token/ERC20/ERC20.sol\":1690:1707  _symbol = symbol_ */\n  swap1\n  dup2\n  tag_11\n  swap2\n  swap1\n  tag_10\n  jump\t// in\ntag_11:\n  pop\n    /* \"@openzeppelin/contracts/token/ERC20/ERC20.sol\":1601:1714  constructor(string memory name_, string memory symbol_) {... */\n  pop\n  pop\n    /* \"@openzeppelin/contracts/access/Ownable.sol\":1297:1298  0 */\n  0x00\n    /* \"@openzeppelin/contracts/access/Ownable.sol\":1273:1299  initialOwner == address(0) */\n  0xffffffffffffffffffffffffffffffffffffffff\n  and\n    /* \"@openzeppelin/contracts/access/Ownable.sol\":1273:1285  initialOwner */\n  dup2\n    /* \"@openzeppelin/contracts/access/Ownable.sol\":1273:1299  initialOwner == address(0) */\n  0xffffffffffffffffffffffffffffffffffffffff\n  and\n  sub\n    /* \"@openzeppelin/contracts/access/Ownable.sol\":1269:1364  if (initialOwner == address(0)) {... */\n  tag_13\n  jumpi\n    /* \"@openzeppelin/contracts/access/Ownable.sol\":1350:1351  0 */\n  0x00\n    /* \"@openzeppelin/contracts/access/Ownable.sol\":1322:1353  OwnableInvalidOwner(address(0)) */\n  mload(0x40)\n  0x1e4fbdf700000000000000000000000000000000000000000000000000000000\n  dup2\n  mstore\n  0x04\n  add\n  tag_14\n  swap2\n  swap1\n  tag_15\n  jump\t// in\ntag_14:\n  mload(0x40)\n  dup1\n  swap2\n  sub\n  swap1\n  revert\n    /* \"@openzeppelin/contracts/access/Ownable.sol\":1269:1364  if (initialOwner == address(0)) {... */\ntag_13:\n    /* \"@openzeppelin/contracts/access/Ownable.sol\":1373:1405  _transferOwnership(initialOwner) */\n  tag_16\n    /* \"@openzeppelin/contracts/access/Ownable.sol\":1392:1404  initialOwner */\n  dup2\n    /* \"@openzeppelin/contracts/access/Ownable.sol\":1373:1391  _transferOwnership */\n  shl(0x20, tag_17)\n    /* \"@openzeppelin/contracts/access/Ownable.sol\":1373:1405  _transferOwnership(initialOwner) */\n  0x20\n  shr\n  jump\t// in\ntag_16:\n    /* \"@openzeppelin/contracts/access/Ownable.sol\":1225:1412  constructor(address initialOwner) {... */\n  pop\n    /* \"@openzeppelin/contracts/utils/ReentrancyGuard.sol\":1857:1858  1 */\n  0x01\n    /* \"@openzeppelin/contracts/utils/ReentrancyGuard.sol\":2061:2068  _status */\n  0x06\n    /* \"@openzeppelin/contracts/utils/ReentrancyGuard.sol\":2061:2082  _status = NOT_ENTERED */\n  dup2\n  swap1\n  sstore\n  pop\n    /* \"contracts/OptionBase.sol\":1677:1678  0 */\n  0x00\n    /* \"contracts/OptionBase.sol\":1663:1673  _strikeDen */\n  dup3\n    /* \"contracts/OptionBase.sol\":1663:1678  _strikeDen == 0 */\n  sub\n    /* \"contracts/OptionBase.sol\":1659:1702  if (_strikeDen == 0) revert InvalidStrike() */\n  tag_20\n  jumpi\n    /* \"contracts/OptionBase.sol\":1687:1702  InvalidStrike() */\n  mload(0x40)\n  0x9a5818d800000000000000000000000000000000000000000000000000000000\n  dup2\n  mstore\n  0x04\n  add\n  mload(0x40)\n  dup1\n  swap2\n  sub\n  swap1\n  revert\n    /* \"contracts/OptionBase.sol\":1659:1702  if (_strikeDen == 0) revert InvalidStrike() */\ntag_20:\n    /* \"contracts/OptionBase.sol\":1730:1731  0 */\n  0x00\n    /* \"contracts/OptionBase.sol\":1716:1726  _strikeNum */\n  dup4\n    /* \"contracts/OptionBase.sol\":1716:1731  _strikeNum == 0 */\n  sub\n    /* \"contracts/OptionBase.sol\":1712:1755  if (_strikeNum == 0) revert InvalidStrike() */\n  tag_21\n  jumpi\n    /* \"contracts/OptionBase.sol\":1740:1755  InvalidStrike() */\n  mload(0x40)\n  0x9a5818d800000000000000000000000000000000000000000000000000000000\n  dup2\n  mstore\n  0x04\n  add\n  mload(0x40)\n  dup1\n  swap2\n  sub\n  swap1\n  revert\n    /* \"contracts/OptionBase.sol\":1712:1755  if (_strikeNum == 0) revert InvalidStrike() */\ntag_21:\n    /* \"contracts/OptionBase.sol\":1787:1802  block.timestamp */\n  timestamp\n    /* \"contracts/OptionBase.sol\":1769:1784  _expirationDate */\n  dup5\n    /* \"contracts/OptionBase.sol\":1769:1802  _expirationDate < block.timestamp */\n  lt\n    /* \"contracts/OptionBase.sol\":1765:1830  if (_expirationDate < block.timestamp) revert InvalidExpiration() */\n  iszero\n  tag_22\n  jumpi\n    /* \"contracts/OptionBase.sol\":1811:1830  InvalidExpiration() */\n  mload(0x40)\n  0xfb2a675200000000000000000000000000000000000000000000000000000000\n  dup2\n  mstore\n  0x04\n  add\n  mload(0x40)\n  dup1\n  swap2\n  sub\n  swap1\n  revert\n    /* \"contracts/OptionBase.sol\":1765:1830  if (_expirationDate < block.timestamp) revert InvalidExpiration() */\ntag_22:\n    /* \"contracts/OptionBase.sol\":1858:1873  _expirationDate */\n  dup4\n    /* \"contracts/OptionBase.sol\":1841:1855  expirationDate */\n  0x09\n    /* \"contracts/OptionBase.sol\":1841:1873  expirationDate = _expirationDate */\n  dup2\n  swap1\n  sstore\n  pop\n    /* \"contracts/OptionBase.sol\":1895:1905  _strikeNum */\n  dup3\n    /* \"contracts/OptionBase.sol\":1883:1892  strikeNum */\n  0x0a\n    /* \"contracts/OptionBase.sol\":1883:1905  strikeNum = _strikeNum */\n  dup2\n  swap1\n  sstore\n  pop\n    /* \"contracts/OptionBase.sol\":1927:1937  _strikeDen */\n  dup2\n    /* \"contracts/OptionBase.sol\":1915:1924  strikeDen */\n  0x0b\n    /* \"contracts/OptionBase.sol\":1915:1937  strikeDen = _strikeDen */\n  dup2\n  swap1\n  sstore\n  pop\n    /* \"contracts/OptionBase.sol\":1967:1985  _collateralAddress */\n  dup6\n    /* \"contracts/OptionBase.sol\":1947:1964  collateralAddress */\n  0x07\n  0x00\n    /* \"contracts/OptionBase.sol\":1947:1985  collateralAddress = _collateralAddress */\n  0x0100\n  exp\n  dup2\n  sload\n  dup2\n  0xffffffffffffffffffffffffffffffffffffffff\n  mul\n  not\n  and\n  swap1\n  dup4\n  0xffffffffffffffffffffffffffffffffffffffff\n  and\n  mul\n  or\n  swap1\n  sstore\n  pop\n    /* \"contracts/OptionBase.sol\":2018:2039  _considerationAddress */\n  dup5\n    /* \"contracts/OptionBase.sol\":1995:2015  considerationAddress */\n  0x08\n  0x00\n    /* \"contracts/OptionBase.sol\":1995:2039  considerationAddress = _considerationAddress */\n  0x0100\n  exp\n  dup2\n  sload\n  dup2\n  0xffffffffffffffffffffffffffffffffffffffff\n  mul\n  not\n  and\n  swap1\n  dup4\n  0xffffffffffffffffffffffffffffffffffffffff\n  and\n  mul\n  or\n  swap1\n  sstore\n  pop\n    /* \"contracts/OptionBase.sol\":2057:2063  _isPut */\n  dup1\n    /* \"contracts/OptionBase.sol\":2049:2054  isPut */\n  0x0c\n  0x00\n    /* \"contracts/OptionBase.sol\":2049:2063  isPut = _isPut */\n  0x0100\n  exp\n  dup2\n  sload\n  dup2\n  0xff\n  mul\n  not\n  and\n  swap1\n  dup4\n  iszero\n  iszero\n  mul\n  or\n  swap1\n  sstore\n  pop\n    /* \"contracts/OptionBase.sol\":2093:2111  _collateralAddress */\n  dup6\n    /* \"contracts/OptionBase.sol\":2073:2083  collateral */\n  0x0c\n  0x01\n    /* \"contracts/OptionBase.sol\":2073:2112  collateral = IERC20(_collateralAddress) */\n  0x0100\n  exp\n  dup2\n  sload\n  dup2\n  0xffffffffffffffffffffffffffffffffffffffff\n  mul\n  not\n  and\n  swap1\n  dup4\n  0xffffffffffffffffffffffffffffffffffffffff\n  and\n  mul\n  or\n  swap1\n  sstore\n  pop\n    /* \"contracts/OptionBase.sol\":2145:2166  _considerationAddress */\n  dup5\n    /* \"contracts/OptionBase.sol\":2122:2135  consideration */\n  0x0d\n  0x00\n    /* \"contracts/OptionBase.sol\":2122:2167  consideration = IERC20(_considerationAddress) */\n  0x0100\n  exp\n  dup2\n  sload\n  dup2\n  0xffffffffffffffffffffffffffffffffffffffff\n  mul\n  not\n  and\n  swap1\n  dup4\n  0xffffffffffffffffffffffffffffffffffffffff\n  and\n  mul\n  or\n  swap1\n  sstore\n  pop\n    /* \"contracts/OptionBase.sol\":1321:2179  constructor(... */\n  pop\n  pop\n  pop\n  pop\n  pop\n  pop\n  pop\n  pop\n    /* \"contracts/OptionBase.sol\":228:2839  contract OptionBase is ERC20, Ownable, ReentrancyGuard {... */\n  jump(tag_23)\n    /* \"@openzeppelin/contracts/access/Ownable.sol\":2912:3099  function _transferOwnership(address newOwner) internal virtual {... */\ntag_17:\n    /* \"@openzeppelin/contracts/access/Ownable.sol\":2985:3001  address oldOwner */\n  0x00\n    /* \"@openzeppelin/contracts/access/Ownable.sol\":3004:3010  _owner */\n  0x05\n  0x00\n  swap1\n  sload\n  swap1\n  0x0100\n  exp\n  swap1\n  div\n  0xffffffffffffffffffffffffffffffffffffffff\n  and\n    /* \"@openzeppelin/contracts/access/Ownable.sol\":2985:3010  address oldOwner = _owner */\n  swap1\n  pop\n    /* \"@openzeppelin/contracts/access/Ownable.sol\":3029:3037  newOwner */\n  dup2\n    /* \"@openzeppelin/contracts/access/Ownable.sol\":3020:3026  _owner */\n  0x05\n  0x00\n    /* \"@openzeppelin/contracts/access/Ownable.sol\":3020:3037  _owner = newOwner */\n  0x0100\n  exp\n  dup2\n  sload\n  dup2\n  0xffffffffffffffffffffffffffffffffffffffff\n  mul\n  not\n  and\n  swap1\n  dup4\n  0xffffffffffffffffffffffffffffffffffffffff\n  and\n  mul\n  or\n  swap1\n  sstore\n  pop\n    /* \"@openzeppelin/contracts/access/Ownable.sol\":3083:3091  newOwner */\n  dup2\n    /* \"@openzeppelin/contracts/access/Ownable.sol\":3052:3092  OwnershipTransferred(oldOwner, newOwner) */\n  0xffffffffffffffffffffffffffffffffffffffff\n  and\n    /* \"@openzeppelin/contracts/access/Ownable.sol\":3073:3081  oldOwner */\n  dup2\n    /* \"@openzeppelin/contracts/access/Ownable.sol\":3052:3092  OwnershipTransferred(oldOwner, newOwner) */\n  0xffffffffffffffffffffffffffffffffffffffff\n  and\n  0x8be0079c531659141344cd1fd0a4f28419497f9722a3daafe3b4186f6b6457e0\n  mload(0x40)\n  mload(0x40)\n  dup1\n  swap2\n  sub\n  swap1\n  log3\n    /* \"@openzeppelin/contracts/access/Ownable.sol\":2975:3099  {... */\n  pop\n    /* \"@openzeppelin/contracts/access/Ownable.sol\":2912:3099  function _transferOwnership(address newOwner) internal virtual {... */\n  pop\n  jump\t// out\n    /* \"#utility.yul\":7:82   */\ntag_25:\n    /* \"#utility.yul\":40:46   */\n  0x00\n    /* \"#utility.yul\":73:75   */\n  0x40\n    /* \"#utility.yul\":67:76   */\n  mload\n    /* \"#utility.yul\":57:76   */\n  swap1\n  pop\n    /* \"#utility.yul\":7:82   */\n  swap1\n  jump\t// out\n    /* \"#utility.yul\":88:205   */\ntag_26:\n    /* \"#utility.yul\":197:198   */\n  0x00\n    /* \"#utility.yul\":194:195   */\n  dup1\n    /* \"#utility.yul\":187:199   */\n  revert\n    /* \"#utility.yul\":211:328   */\ntag_27:\n    /* \"#utility.yul\":320:321   */\n  0x00\n    /* \"#utility.yul\":317:318   */\n  dup1\n    /* \"#utility.yul\":310:322   */\n  revert\n    /* \"#utility.yul\":334:451   */\ntag_28:\n    /* \"#utility.yul\":443:444   */\n  0x00\n    /* \"#utility.yul\":440:441   */\n  dup1\n    /* \"#utility.yul\":433:445   */\n  revert\n    /* \"#utility.yul\":457:574   */\ntag_29:\n    /* \"#utility.yul\":566:567   */\n  0x00\n    /* \"#utility.yul\":563:564   */\n  dup1\n    /* \"#utility.yul\":556:568   */\n  revert\n    /* \"#utility.yul\":580:682   */\ntag_30:\n    /* \"#utility.yul\":621:627   */\n  0x00\n    /* \"#utility.yul\":672:674   */\n  0x1f\n    /* \"#utility.yul\":668:675   */\n  not\n    /* \"#utility.yul\":663:665   */\n  0x1f\n    /* \"#utility.yul\":656:661   */\n  dup4\n    /* \"#utility.yul\":652:666   */\n  add\n    /* \"#utility.yul\":648:676   */\n  and\n    /* \"#utility.yul\":638:676   */\n  swap1\n  pop\n    /* \"#utility.yul\":580:682   */\n  swap2\n  swap1\n  pop\n  jump\t// out\n    /* \"#utility.yul\":688:868   */\ntag_31:\n    /* \"#utility.yul\":736:813   */\n  0x4e487b7100000000000000000000000000000000000000000000000000000000\n    /* \"#utility.yul\":733:734   */\n  0x00\n    /* \"#utility.yul\":726:814   */\n  mstore\n    /* \"#utility.yul\":833:837   */\n  0x41\n    /* \"#utility.yul\":830:831   */\n  0x04\n    /* \"#utility.yul\":823:838   */\n  mstore\n    /* \"#utility.yul\":857:861   */\n  0x24\n    /* \"#utility.yul\":854:855   */\n  0x00\n    /* \"#utility.yul\":847:862   */\n  revert\n    /* \"#utility.yul\":874:1155   */\ntag_32:\n    /* \"#utility.yul\":957:984   */\n  tag_76\n    /* \"#utility.yul\":979:983   */\n  dup3\n    /* \"#utility.yul\":957:984   */\n  tag_30\n  jump\t// in\ntag_76:\n    /* \"#utility.yul\":949:955   */\n  dup2\n    /* \"#utility.yul\":945:985   */\n  add\n    /* \"#utility.yul\":1087:1093   */\n  dup2\n    /* \"#utility.yul\":1075:1085   */\n  dup2\n    /* \"#utility.yul\":1072:1094   */\n  lt\n    /* \"#utility.yul\":1051:1069   */\n  0xffffffffffffffff\n    /* \"#utility.yul\":1039:1049   */\n  dup3\n    /* \"#utility.yul\":1036:1070   */\n  gt\n    /* \"#utility.yul\":1033:1095   */\n  or\n    /* \"#utility.yul\":1030:1118   */\n  iszero\n  tag_77\n  jumpi\n    /* \"#utility.yul\":1098:1116   */\n  tag_78\n  tag_31\n  jump\t// in\ntag_78:\n    /* \"#utility.yul\":1030:1118   */\ntag_77:\n    /* \"#utility.yul\":1138:1148   */\n  dup1\n    /* \"#utility.yul\":1134:1136   */\n  0x40\n    /* \"#utility.yul\":1127:1149   */\n  mstore\n    /* \"#utility.yul\":917:1155   */\n  pop\n    /* \"#utility.yul\":874:1155   */\n  pop\n  pop\n  jump\t// out\n    /* \"#utility.yul\":1161:1290   */\ntag_33:\n    /* \"#utility.yul\":1195:1201   */\n  0x00\n    /* \"#utility.yul\":1222:1242   */\n  tag_80\n  tag_25\n  jump\t// in\ntag_80:\n    /* \"#utility.yul\":1212:1242   */\n  swap1\n  pop\n    /* \"#utility.yul\":1251:1284   */\n  tag_81\n    /* \"#utility.yul\":1279:1283   */\n  dup3\n    /* \"#utility.yul\":1271:1277   */\n  dup3\n    /* \"#utility.yul\":1251:1284   */\n  tag_32\n  jump\t// in\ntag_81:\n    /* \"#utility.yul\":1161:1290   */\n  swap2\n  swap1\n  pop\n  jump\t// out\n    /* \"#utility.yul\":1296:1604   */\ntag_34:\n    /* \"#utility.yul\":1358:1362   */\n  0x00\n    /* \"#utility.yul\":1448:1466   */\n  0xffffffffffffffff\n    /* \"#utility.yul\":1440:1446   */\n  dup3\n    /* \"#utility.yul\":1437:1467   */\n  gt\n    /* \"#utility.yul\":1434:1490   */\n  iszero\n  tag_83\n  jumpi\n    /* \"#utility.yul\":1470:1488   */\n  tag_84\n  tag_31\n  jump\t// in\ntag_84:\n    /* \"#utility.yul\":1434:1490   */\ntag_83:\n    /* \"#utility.yul\":1508:1537   */\n  tag_85\n    /* \"#utility.yul\":1530:1536   */\n  dup3\n    /* \"#utility.yul\":1508:1537   */\n  tag_30\n  jump\t// in\ntag_85:\n    /* \"#utility.yul\":1500:1537   */\n  swap1\n  pop\n    /* \"#utility.yul\":1592:1596   */\n  0x20\n    /* \"#utility.yul\":1586:1590   */\n  dup2\n    /* \"#utility.yul\":1582:1597   */\n  add\n    /* \"#utility.yul\":1574:1597   */\n  swap1\n  pop\n    /* \"#utility.yul\":1296:1604   */\n  swap2\n  swap1\n  pop\n  jump\t// out\n    /* \"#utility.yul\":1610:1856   */\ntag_35:\n    /* \"#utility.yul\":1691:1692   */\n  0x00\n    /* \"#utility.yul\":1701:1814   */\ntag_87:\n    /* \"#utility.yul\":1715:1721   */\n  dup4\n    /* \"#utility.yul\":1712:1713   */\n  dup2\n    /* \"#utility.yul\":1709:1722   */\n  lt\n    /* \"#utility.yul\":1701:1814   */\n  iszero\n  tag_89\n  jumpi\n    /* \"#utility.yul\":1800:1801   */\n  dup1\n    /* \"#utility.yul\":1795:1798   */\n  dup3\n    /* \"#utility.yul\":1791:1802   */\n  add\n    /* \"#utility.yul\":1785:1803   */\n  mload\n    /* \"#utility.yul\":1781:1782   */\n  dup2\n    /* \"#utility.yul\":1776:1779   */\n  dup5\n    /* \"#utility.yul\":1772:1783   */\n  add\n    /* \"#utility.yul\":1765:1804   */\n  mstore\n    /* \"#utility.yul\":1737:1739   */\n  0x20\n    /* \"#utility.yul\":1734:1735   */\n  dup2\n    /* \"#utility.yul\":1730:1740   */\n  add\n    /* \"#utility.yul\":1725:1740   */\n  swap1\n  pop\n    /* \"#utility.yul\":1701:1814   */\n  jump(tag_87)\ntag_89:\n    /* \"#utility.yul\":1848:1849   */\n  0x00\n    /* \"#utility.yul\":1839:1845   */\n  dup5\n    /* \"#utility.yul\":1834:1837   */\n  dup5\n    /* \"#utility.yul\":1830:1846   */\n  add\n    /* \"#utility.yul\":1823:1850   */\n  mstore\n    /* \"#utility.yul\":1672:1856   */\n  pop\n    /* \"#utility.yul\":1610:1856   */\n  pop\n  pop\n  pop\n  jump\t// out\n    /* \"#utility.yul\":1862:2296   */\ntag_36:\n    /* \"#utility.yul\":1951:1956   */\n  0x00\n    /* \"#utility.yul\":1976:2042   */\n  tag_91\n    /* \"#utility.yul\":1992:2041   */\n  tag_92\n    /* \"#utility.yul\":2034:2040   */\n  dup5\n    /* \"#utility.yul\":1992:2041   */\n  tag_34\n  jump\t// in\ntag_92:\n    /* \"#utility.yul\":1976:2042   */\n  tag_33\n  jump\t// in\ntag_91:\n    /* \"#utility.yul\":1967:2042   */\n  swap1\n  pop\n    /* \"#utility.yul\":2065:2071   */\n  dup3\n    /* \"#utility.yul\":2058:2063   */\n  dup2\n    /* \"#utility.yul\":2051:2072   */\n  mstore\n    /* \"#utility.yul\":2103:2107   */\n  0x20\n    /* \"#utility.yul\":2096:2101   */\n  dup2\n    /* \"#utility.yul\":2092:2108   */\n  add\n    /* \"#utility.yul\":2141:2144   */\n  dup5\n    /* \"#utility.yul\":2132:2138   */\n  dup5\n    /* \"#utility.yul\":2127:2130   */\n  dup5\n    /* \"#utility.yul\":2123:2139   */\n  add\n    /* \"#utility.yul\":2120:2145   */\n  gt\n    /* \"#utility.yul\":2117:2229   */\n  iszero\n  tag_93\n  jumpi\n    /* \"#utility.yul\":2148:2227   */\n  tag_94\n  tag_29\n  jump\t// in\ntag_94:\n    /* \"#utility.yul\":2117:2229   */\ntag_93:\n    /* \"#utility.yul\":2238:2290   */\n  tag_95\n    /* \"#utility.yul\":2283:2289   */\n  dup5\n    /* \"#utility.yul\":2278:2281   */\n  dup3\n    /* \"#utility.yul\":2273:2276   */\n  dup6\n    /* \"#utility.yul\":2238:2290   */\n  tag_35\n  jump\t// in\ntag_95:\n    /* \"#utility.yul\":1957:2296   */\n  pop\n    /* \"#utility.yul\":1862:2296   */\n  swap4\n  swap3\n  pop\n  pop\n  pop\n  jump\t// out\n    /* \"#utility.yul\":2316:2671   */\ntag_37:\n    /* \"#utility.yul\":2383:2388   */\n  0x00\n    /* \"#utility.yul\":2432:2435   */\n  dup3\n    /* \"#utility.yul\":2425:2429   */\n  0x1f\n    /* \"#utility.yul\":2417:2423   */\n  dup4\n    /* \"#utility.yul\":2413:2430   */\n  add\n    /* \"#utility.yul\":2409:2436   */\n  slt\n    /* \"#utility.yul\":2399:2521   */\n  tag_97\n  jumpi\n    /* \"#utility.yul\":2440:2519   */\n  tag_98\n  tag_28\n  jump\t// in\ntag_98:\n    /* \"#utility.yul\":2399:2521   */\ntag_97:\n    /* \"#utility.yul\":2550:2556   */\n  dup2\n    /* \"#utility.yul\":2544:2557   */\n  mload\n    /* \"#utility.yul\":2575:2665   */\n  tag_99\n    /* \"#utility.yul\":2661:2664   */\n  dup5\n    /* \"#utility.yul\":2653:2659   */\n  dup3\n    /* \"#utility.yul\":2646:2650   */\n  0x20\n    /* \"#utility.yul\":2638:2644   */\n  dup7\n    /* \"#utility.yul\":2634:2651   */\n  add\n    /* \"#utility.yul\":2575:2665   */\n  tag_36\n  jump\t// in\ntag_99:\n    /* \"#utility.yul\":2566:2665   */\n  swap2\n  pop\n    /* \"#utility.yul\":2389:2671   */\n  pop\n    /* \"#utility.yul\":2316:2671   */\n  swap3\n  swap2\n  pop\n  pop\n  jump\t// out\n    /* \"#utility.yul\":2677:2803   */\ntag_38:\n    /* \"#utility.yul\":2714:2721   */\n  0x00\n    /* \"#utility.yul\":2754:2796   */\n  0xffffffffffffffffffffffffffffffffffffffff\n    /* \"#utility.yul\":2747:2752   */\n  dup3\n    /* \"#utility.yul\":2743:2797   */\n  and\n    /* \"#utility.yul\":2732:2797   */\n  swap1\n  pop\n    /* \"#utility.yul\":2677:2803   */\n  swap2\n  swap1\n  pop\n  jump\t// out\n    /* \"#utility.yul\":2809:2905   */\ntag_39:\n    /* \"#utility.yul\":2846:2853   */\n  0x00\n    /* \"#utility.yul\":2875:2899   */\n  tag_102\n    /* \"#utility.yul\":2893:2898   */\n  dup3\n    /* \"#utility.yul\":2875:2899   */\n  tag_38\n  jump\t// in\ntag_102:\n    /* \"#utility.yul\":2864:2899   */\n  swap1\n  pop\n    /* \"#utility.yul\":2809:2905   */\n  swap2\n  swap1\n  pop\n  jump\t// out\n    /* \"#utility.yul\":2911:3033   */\ntag_40:\n    /* \"#utility.yul\":2984:3008   */\n  tag_104\n    /* \"#utility.yul\":3002:3007   */\n  dup2\n    /* \"#utility.yul\":2984:3008   */\n  tag_39\n  jump\t// in\ntag_104:\n    /* \"#utility.yul\":2977:2982   */\n  dup2\n    /* \"#utility.yul\":2974:3009   */\n  eq\n    /* \"#utility.yul\":2964:3027   */\n  tag_105\n  jumpi\n    /* \"#utility.yul\":3023:3024   */\n  0x00\n    /* \"#utility.yul\":3020:3021   */\n  dup1\n    /* \"#utility.yul\":3013:3025   */\n  revert\n    /* \"#utility.yul\":2964:3027   */\ntag_105:\n    /* \"#utility.yul\":2911:3033   */\n  pop\n  jump\t// out\n    /* \"#utility.yul\":3039:3182   */\ntag_41:\n    /* \"#utility.yul\":3096:3101   */\n  0x00\n    /* \"#utility.yul\":3127:3133   */\n  dup2\n    /* \"#utility.yul\":3121:3134   */\n  mload\n    /* \"#utility.yul\":3112:3134   */\n  swap1\n  pop\n    /* \"#utility.yul\":3143:3176   */\n  tag_107\n    /* \"#utility.yul\":3170:3175   */\n  dup2\n    /* \"#utility.yul\":3143:3176   */\n  tag_40\n  jump\t// in\ntag_107:\n    /* \"#utility.yul\":3039:3182   */\n  swap3\n  swap2\n  pop\n  pop\n  jump\t// out\n    /* \"#utility.yul\":3188:3265   */\ntag_42:\n    /* \"#utility.yul\":3225:3232   */\n  0x00\n    /* \"#utility.yul\":3254:3259   */\n  dup2\n    /* \"#utility.yul\":3243:3259   */\n  swap1\n  pop\n    /* \"#utility.yul\":3188:3265   */\n  swap2\n  swap1\n  pop\n  jump\t// out\n    /* \"#utility.yul\":3271:3393   */\ntag_43:\n    /* \"#utility.yul\":3344:3368   */\n  tag_110\n    /* \"#utility.yul\":3362:3367   */\n  dup2\n    /* \"#utility.yul\":3344:3368   */\n  tag_42\n  jump\t// in\ntag_110:\n    /* \"#utility.yul\":3337:3342   */\n  dup2\n    /* \"#utility.yul\":3334:3369   */\n  eq\n    /* \"#utility.yul\":3324:3387   */\n  tag_111\n  jumpi\n    /* \"#utility.yul\":3383:3384   */\n  0x00\n    /* \"#utility.yul\":3380:3381   */\n  dup1\n    /* \"#utility.yul\":3373:3385   */\n  revert\n    /* \"#utility.yul\":3324:3387   */\ntag_111:\n    /* \"#utility.yul\":3271:3393   */\n  pop\n  jump\t// out\n    /* \"#utility.yul\":3399:3542   */\ntag_44:\n    /* \"#utility.yul\":3456:3461   */\n  0x00\n    /* \"#utility.yul\":3487:3493   */\n  dup2\n    /* \"#utility.yul\":3481:3494   */\n  mload\n    /* \"#utility.yul\":3472:3494   */\n  swap1\n  pop\n    /* \"#utility.yul\":3503:3536   */\n  tag_113\n    /* \"#utility.yul\":3530:3535   */\n  dup2\n    /* \"#utility.yul\":3503:3536   */\n  tag_43\n  jump\t// in\ntag_113:\n    /* \"#utility.yul\":3399:3542   */\n  swap3\n  swap2\n  pop\n  pop\n  jump\t// out\n    /* \"#utility.yul\":3548:3638   */\ntag_45:\n    /* \"#utility.yul\":3582:3589   */\n  0x00\n    /* \"#utility.yul\":3625:3630   */\n  dup2\n    /* \"#utility.yul\":3618:3631   */\n  iszero\n    /* \"#utility.yul\":3611:3632   */\n  iszero\n    /* \"#utility.yul\":3600:3632   */\n  swap1\n  pop\n    /* \"#utility.yul\":3548:3638   */\n  swap2\n  swap1\n  pop\n  jump\t// out\n    /* \"#utility.yul\":3644:3760   */\ntag_46:\n    /* \"#utility.yul\":3714:3735   */\n  tag_116\n    /* \"#utility.yul\":3729:3734   */\n  dup2\n    /* \"#utility.yul\":3714:3735   */\n  tag_45\n  jump\t// in\ntag_116:\n    /* \"#utility.yul\":3707:3712   */\n  dup2\n    /* \"#utility.yul\":3704:3736   */\n  eq\n    /* \"#utility.yul\":3694:3754   */\n  tag_117\n  jumpi\n    /* \"#utility.yul\":3750:3751   */\n  0x00\n    /* \"#utility.yul\":3747:3748   */\n  dup1\n    /* \"#utility.yul\":3740:3752   */\n  revert\n    /* \"#utility.yul\":3694:3754   */\ntag_117:\n    /* \"#utility.yul\":3644:3760   */\n  pop\n  jump\t// out\n    /* \"#utility.yul\":3766:3903   */\ntag_47:\n    /* \"#utility.yul\":3820:3825   */\n  0x00\n    /* \"#utility.yul\":3851:3857   */\n  dup2\n    /* \"#utility.yul\":3845:3858   */\n  mload\n    /* \"#utility.yul\":3836:3858   */\n  swap1\n  pop\n    /* \"#utility.yul\":3867:3897   */\n  tag_119\n    /* \"#utility.yul\":3891:3896   */\n  dup2\n    /* \"#utility.yul\":3867:3897   */\n  tag_46\n  jump\t// in\ntag_119:\n    /* \"#utility.yul\":3766:3903   */\n  swap3\n  swap2\n  pop\n  pop\n  jump\t// out\n    /* \"#utility.yul\":3909:5697   */\ntag_3:\n    /* \"#utility.yul\":4059:4065   */\n  0x00\n    /* \"#utility.yul\":4067:4073   */\n  dup1\n    /* \"#utility.yul\":4075:4081   */\n  0x00\n    /* \"#utility.yul\":4083:4089   */\n  dup1\n    /* \"#utility.yul\":4091:4097   */\n  0x00\n    /* \"#utility.yul\":4099:4105   */\n  dup1\n    /* \"#utility.yul\":4107:4113   */\n  0x00\n    /* \"#utility.yul\":4115:4121   */\n  dup1\n    /* \"#utility.yul\":4164:4167   */\n  0x0100\n    /* \"#utility.yul\":4152:4161   */\n  dup10\n    /* \"#utility.yul\":4143:4150   */\n  dup12\n    /* \"#utility.yul\":4139:4162   */\n  sub\n    /* \"#utility.yul\":4135:4168   */\n  slt\n    /* \"#utility.yul\":4132:4252   */\n  iszero\n  tag_121\n  jumpi\n    /* \"#utility.yul\":4171:4250   */\n  tag_122\n  tag_26\n  jump\t// in\ntag_122:\n    /* \"#utility.yul\":4132:4252   */\ntag_121:\n    /* \"#utility.yul\":4312:4313   */\n  0x00\n    /* \"#utility.yul\":4301:4310   */\n  dup10\n    /* \"#utility.yul\":4297:4314   */\n  add\n    /* \"#utility.yul\":4291:4315   */\n  mload\n    /* \"#utility.yul\":4342:4360   */\n  0xffffffffffffffff\n    /* \"#utility.yul\":4334:4340   */\n  dup2\n    /* \"#utility.yul\":4331:4361   */\n  gt\n    /* \"#utility.yul\":4328:4445   */\n  iszero\n  tag_123\n  jumpi\n    /* \"#utility.yul\":4364:4443   */\n  tag_124\n  tag_27\n  jump\t// in\ntag_124:\n    /* \"#utility.yul\":4328:4445   */\ntag_123:\n    /* \"#utility.yul\":4469:4543   */\n  tag_125\n    /* \"#utility.yul\":4535:4542   */\n  dup12\n    /* \"#utility.yul\":4526:4532   */\n  dup3\n    /* \"#utility.yul\":4515:4524   */\n  dup13\n    /* \"#utility.yul\":4511:4533   */\n  add\n    /* \"#utility.yul\":4469:4543   */\n  tag_37\n  jump\t// in\ntag_125:\n    /* \"#utility.yul\":4459:4543   */\n  swap9\n  pop\n    /* \"#utility.yul\":4262:4553   */\n  pop\n    /* \"#utility.yul\":4613:4615   */\n  0x20\n    /* \"#utility.yul\":4602:4611   */\n  dup10\n    /* \"#utility.yul\":4598:4616   */\n  add\n    /* \"#utility.yul\":4592:4617   */\n  mload\n    /* \"#utility.yul\":4644:4662   */\n  0xffffffffffffffff\n    /* \"#utility.yul\":4636:4642   */\n  dup2\n    /* \"#utility.yul\":4633:4663   */\n  gt\n    /* \"#utility.yul\":4630:4747   */\n  iszero\n  tag_126\n  jumpi\n    /* \"#utility.yul\":4666:4745   */\n  tag_127\n  tag_27\n  jump\t// in\ntag_127:\n    /* \"#utility.yul\":4630:4747   */\ntag_126:\n    /* \"#utility.yul\":4771:4845   */\n  tag_128\n    /* \"#utility.yul\":4837:4844   */\n  dup12\n    /* \"#utility.yul\":4828:4834   */\n  dup3\n    /* \"#utility.yul\":4817:4826   */\n  dup13\n    /* \"#utility.yul\":4813:4835   */\n  add\n    /* \"#utility.yul\":4771:4845   */\n  tag_37\n  jump\t// in\ntag_128:\n    /* \"#utility.yul\":4761:4845   */\n  swap8\n  pop\n    /* \"#utility.yul\":4563:4855   */\n  pop\n    /* \"#utility.yul\":4894:4896   */\n  0x40\n    /* \"#utility.yul\":4920:4984   */\n  tag_129\n    /* \"#utility.yul\":4976:4983   */\n  dup12\n    /* \"#utility.yul\":4967:4973   */\n  dup3\n    /* \"#utility.yul\":4956:4965   */\n  dup13\n    /* \"#utility.yul\":4952:4974   */\n  add\n    /* \"#utility.yul\":4920:4984   */\n  tag_41\n  jump\t// in\ntag_129:\n    /* \"#utility.yul\":4910:4984   */\n  swap7\n  pop\n    /* \"#utility.yul\":4865:4994   */\n  pop\n    /* \"#utility.yul\":5033:5035   */\n  0x60\n    /* \"#utility.yul\":5059:5123   */\n  tag_130\n    /* \"#utility.yul\":5115:5122   */\n  dup12\n    /* \"#utility.yul\":5106:5112   */\n  dup3\n    /* \"#utility.yul\":5095:5104   */\n  dup13\n    /* \"#utility.yul\":5091:5113   */\n  add\n    /* \"#utility.yul\":5059:5123   */\n  tag_41\n  jump\t// in\ntag_130:\n    /* \"#utility.yul\":5049:5123   */\n  swap6\n  pop\n    /* \"#utility.yul\":5004:5133   */\n  pop\n    /* \"#utility.yul\":5172:5175   */\n  0x80\n    /* \"#utility.yul\":5199:5263   */\n  tag_131\n    /* \"#utility.yul\":5255:5262   */\n  dup12\n    /* \"#utility.yul\":5246:5252   */\n  dup3\n    /* \"#utility.yul\":5235:5244   */\n  dup13\n    /* \"#utility.yul\":5231:5253   */\n  add\n    /* \"#utility.yul\":5199:5263   */\n  tag_44\n  jump\t// in\ntag_131:\n    /* \"#utility.yul\":5189:5263   */\n  swap5\n  pop\n    /* \"#utility.yul\":5143:5273   */\n  pop\n    /* \"#utility.yul\":5312:5315   */\n  0xa0\n    /* \"#utility.yul\":5339:5403   */\n  tag_132\n    /* \"#utility.yul\":5395:5402   */\n  dup12\n    /* \"#utility.yul\":5386:5392   */\n  dup3\n    /* \"#utility.yul\":5375:5384   */\n  dup13\n    /* \"#utility.yul\":5371:5393   */\n  add\n    /* \"#utility.yul\":5339:5403   */\n  tag_44\n  jump\t// in\ntag_132:\n    /* \"#utility.yul\":5329:5403   */\n  swap4\n  pop\n    /* \"#utility.yul\":5283:5413   */\n  pop\n    /* \"#utility.yul\":5452:5455   */\n  0xc0\n    /* \"#utility.yul\":5479:5543   */\n  tag_133\n    /* \"#utility.yul\":5535:5542   */\n  dup12\n    /* \"#utility.yul\":5526:5532   */\n  dup3\n    /* \"#utility.yul\":5515:5524   */\n  dup13\n    /* \"#utility.yul\":5511:5533   */\n  add\n    /* \"#utility.yul\":5479:5543   */\n  tag_44\n  jump\t// in\ntag_133:\n    /* \"#utility.yul\":5469:5543   */\n  swap3\n  pop\n    /* \"#utility.yul\":5423:5553   */\n  pop\n    /* \"#utility.yul\":5592:5595   */\n  0xe0\n    /* \"#utility.yul\":5619:5680   */\n  tag_134\n    /* \"#utility.yul\":5672:5679   */\n  dup12\n    /* \"#utility.yul\":5663:5669   */\n  dup3\n    /* \"#utility.yul\":5652:5661   */\n  dup13\n    /* \"#utility.yul\":5648:5670   */\n  add\n    /* \"#utility.yul\":5619:5680   */\n  tag_47\n  jump\t// in\ntag_134:\n    /* \"#utility.yul\":5609:5680   */\n  swap2\n  pop\n    /* \"#utility.yul\":5563:5690   */\n  pop\n    /* \"#utility.yul\":3909:5697   */\n  swap3\n  swap6\n  swap9\n  pop\n  swap3\n  swap6\n  swap9\n  swap1\n  swap4\n  swap7\n  pop\n  jump\t// out\n    /* \"#utility.yul\":5703:5802   */\ntag_48:\n    /* \"#utility.yul\":5755:5761   */\n  0x00\n    /* \"#utility.yul\":5789:5794   */\n  dup2\n    /* \"#utility.yul\":5783:5795   */\n  mload\n    /* \"#utility.yul\":5773:5795   */\n  swap1\n  pop\n    /* \"#utility.yul\":5703:5802   */\n  swap2\n  swap1\n  pop\n  jump\t// out\n    /* \"#utility.yul\":5808:5988   */\ntag_49:\n    /* \"#utility.yul\":5856:5933   */\n  0x4e487b7100000000000000000000000000000000000000000000000000000000\n    /* \"#utility.yul\":5853:5854   */\n  0x00\n    /* \"#utility.yul\":5846:5934   */\n  mstore\n    /* \"#utility.yul\":5953:5957   */\n  0x22\n    /* \"#utility.yul\":5950:5951   */\n  0x04\n    /* \"#utility.yul\":5943:5958   */\n  mstore\n    /* \"#utility.yul\":5977:5981   */\n  0x24\n    /* \"#utility.yul\":5974:5975   */\n  0x00\n    /* \"#utility.yul\":5967:5982   */\n  revert\n    /* \"#utility.yul\":5994:6314   */\ntag_50:\n    /* \"#utility.yul\":6038:6044   */\n  0x00\n    /* \"#utility.yul\":6075:6076   */\n  0x02\n    /* \"#utility.yul\":6069:6073   */\n  dup3\n    /* \"#utility.yul\":6065:6077   */\n  div\n    /* \"#utility.yul\":6055:6077   */\n  swap1\n  pop\n    /* \"#utility.yul\":6122:6123   */\n  0x01\n    /* \"#utility.yul\":6116:6120   */\n  dup3\n    /* \"#utility.yul\":6112:6124   */\n  and\n    /* \"#utility.yul\":6143:6161   */\n  dup1\n    /* \"#utility.yul\":6133:6214   */\n  tag_138\n  jumpi\n    /* \"#utility.yul\":6199:6203   */\n  0x7f\n    /* \"#utility.yul\":6191:6197   */\n  dup3\n    /* \"#utility.yul\":6187:6204   */\n  and\n    /* \"#utility.yul\":6177:6204   */\n  swap2\n  pop\n    /* \"#utility.yul\":6133:6214   */\ntag_138:\n    /* \"#utility.yul\":6261:6263   */\n  0x20\n    /* \"#utility.yul\":6253:6259   */\n  dup3\n    /* \"#utility.yul\":6250:6264   */\n  lt\n    /* \"#utility.yul\":6230:6248   */\n  dup2\n    /* \"#utility.yul\":6227:6265   */\n  sub\n    /* \"#utility.yul\":6224:6308   */\n  tag_139\n  jumpi\n    /* \"#utility.yul\":6280:6298   */\n  tag_140\n  tag_49\n  jump\t// in\ntag_140:\n    /* \"#utility.yul\":6224:6308   */\ntag_139:\n    /* \"#utility.yul\":6045:6314   */\n  pop\n    /* \"#utility.yul\":5994:6314   */\n  swap2\n  swap1\n  pop\n  jump\t// out\n    /* \"#utility.yul\":6320:6461   */\ntag_51:\n    /* \"#utility.yul\":6369:6373   */\n  0x00\n    /* \"#utility.yul\":6392:6395   */\n  dup2\n    /* \"#utility.yul\":6384:6395   */\n  swap1\n  pop\n    /* \"#utility.yul\":6415:6418   */\n  dup2\n    /* \"#utility.yul\":6412:6413   */\n  0x00\n    /* \"#utility.yul\":6405:6419   */\n  mstore\n    /* \"#utility.yul\":6449:6453   */\n  0x20\n    /* \"#utility.yul\":6446:6447   */\n  0x00\n    /* \"#utility.yul\":6436:6454   */\n  keccak256\n    /* \"#utility.yul\":6428:6454   */\n  swap1\n  pop\n    /* \"#utility.yul\":6320:6461   */\n  swap2\n  swap1\n  pop\n  jump\t// out\n    /* \"#utility.yul\":6467:6560   */\ntag_52:\n    /* \"#utility.yul\":6504:6510   */\n  0x00\n    /* \"#utility.yul\":6551:6553   */\n  0x20\n    /* \"#utility.yul\":6546:6548   */\n  0x1f\n    /* \"#utility.yul\":6539:6544   */\n  dup4\n    /* \"#utility.yul\":6535:6549   */\n  add\n    /* \"#utility.yul\":6531:6554   */\n  div\n    /* \"#utility.yul\":6521:6554   */\n  swap1\n  pop\n    /* \"#utility.yul\":6467:6560   */\n  swap2\n  swap1\n  pop\n  jump\t// out\n    /* \"#utility.yul\":6566:6673   */\ntag_53:\n    /* \"#utility.yul\":6610:6618   */\n  0x00\n    /* \"#utility.yul\":6660:6665   */\n  dup3\n    /* \"#utility.yul\":6654:6658   */\n  dup3\n    /* \"#utility.yul\":6650:6666   */\n  shl\n    /* \"#utility.yul\":6629:6666   */\n  swap1\n  pop\n    /* \"#utility.yul\":6566:6673   */\n  swap3\n  swap2\n  pop\n  pop\n  jump\t// out\n    /* \"#utility.yul\":6679:7072   */\ntag_54:\n    /* \"#utility.yul\":6748:6754   */\n  0x00\n    /* \"#utility.yul\":6798:6799   */\n  0x08\n    /* \"#utility.yul\":6786:6796   */\n  dup4\n    /* \"#utility.yul\":6782:6800   */\n  mul\n    /* \"#utility.yul\":6821:6918   */\n  tag_145\n    /* \"#utility.yul\":6851:6917   */\n  0xffffffffffffffffffffffffffffffffffffffffffffffffffffffffffffffff\n    /* \"#utility.yul\":6840:6849   */\n  dup3\n    /* \"#utility.yul\":6821:6918   */\n  tag_53\n  jump\t// in\ntag_145:\n    /* \"#utility.yul\":6939:6978   */\n  tag_146\n    /* \"#utility.yul\":6969:6977   */\n  dup7\n    /* \"#utility.yul\":6958:6967   */\n  dup4\n    /* \"#utility.yul\":6939:6978   */\n  tag_53\n  jump\t// in\ntag_146:\n    /* \"#utility.yul\":6927:6978   */\n  swap6\n  pop\n    /* \"#utility.yul\":7011:7015   */\n  dup1\n    /* \"#utility.yul\":7007:7016   */\n  not\n    /* \"#utility.yul\":7000:7005   */\n  dup5\n    /* \"#utility.yul\":6996:7017   */\n  and\n    /* \"#utility.yul\":6987:7017   */\n  swap4\n  pop\n    /* \"#utility.yul\":7060:7064   */\n  dup1\n    /* \"#utility.yul\":7050:7058   */\n  dup7\n    /* \"#utility.yul\":7046:7065   */\n  and\n    /* \"#utility.yul\":7039:7044   */\n  dup5\n    /* \"#utility.yul\":7036:7066   */\n  or\n    /* \"#utility.yul\":7026:7066   */\n  swap3\n  pop\n    /* \"#utility.yul\":6755:7072   */\n  pop\n  pop\n    /* \"#utility.yul\":6679:7072   */\n  swap4\n  swap3\n  pop\n  pop\n  pop\n  jump\t// out\n    /* \"#utility.yul\":7078:7138   */\ntag_55:\n    /* \"#utility.yul\":7106:7109   */\n  0x00\n    /* \"#utility.yul\":7127:7132   */\n  dup2\n    /* \"#utility.yul\":7120:7132   */\n  swap1\n  pop\n    /* \"#utility.yul\":7078:7138   */\n  swap2\n  swap1\n  pop\n  jump\t// out\n    /* \"#utility.yul\":7144:7286   */\ntag_56:\n    /* \"#utility.yul\":7194:7203   */\n  0x00\n    /* \"#utility.yul\":7227:7280   */\n  tag_149\n    /* \"#utility.yul\":7245:7279   */\n  tag_150\n    /* \"#utility.yul\":7254:7278   */\n  tag_151\n    /* \"#utility.yul\":7272:7277   */\n  dup5\n    /* \"#utility.yul\":7254:7278   */\n  tag_42\n  jump\t// in\ntag_151:\n    /* \"#utility.yul\":7245:7279   */\n  tag_55\n  jump\t// in\ntag_150:\n    /* \"#utility.yul\":7227:7280   */\n  tag_42\n  jump\t// in\ntag_149:\n    /* \"#utility.yul\":7214:7280   */\n  swap1\n  pop\n    /* \"#utility.yul\":7144:7286   */\n  swap2\n  swap1\n  pop\n  jump\t// out\n    /* \"#utility.yul\":7292:7367   */\ntag_57:\n    /* \"#utility.yul\":7335:7338   */\n  0x00\n    /* \"#utility.yul\":7356:7361   */\n  dup2\n    /* \"#utility.yul\":7349:7361   */\n  swap1\n  pop\n    /* \"#utility.yul\":7292:7367   */\n  swap2\n  swap1\n  pop\n  jump\t// out\n    /* \"#utility.yul\":7373:7642   */\ntag_58:\n    /* \"#utility.yul\":7483:7522   */\n  tag_154\n    /* \"#utility.yul\":7514:7521   */\n  dup4\n    /* \"#utility.yul\":7483:7522   */\n  tag_56\n  jump\t// in\ntag_154:\n    /* \"#utility.yul\":7544:7635   */\n  tag_155\n    /* \"#utility.yul\":7593:7634   */\n  tag_156\n    /* \"#utility.yul\":7617:7633   */\n  dup3\n    /* \"#utility.yul\":7593:7634   */\n  tag_57\n  jump\t// in\ntag_156:\n    /* \"#utility.yul\":7585:7591   */\n  dup5\n    /* \"#utility.yul\":7578:7582   */\n  dup5\n    /* \"#utility.yul\":7572:7583   */\n  sload\n    /* \"#utility.yul\":7544:7635   */\n  tag_54\n  jump\t// in\ntag_155:\n    /* \"#utility.yul\":7538:7542   */\n  dup3\n    /* \"#utility.yul\":7531:7636   */\n  sstore\n    /* \"#utility.yul\":7449:7642   */\n  pop\n    /* \"#utility.yul\":7373:7642   */\n  pop\n  pop\n  pop\n  jump\t// out\n    /* \"#utility.yul\":7648:7721   */\ntag_59:\n    /* \"#utility.yul\":7693:7696   */\n  0x00\n    /* \"#utility.yul\":7648:7721   */\n  swap1\n  jump\t// out\n    /* \"#utility.yul\":7727:7916   */\ntag_60:\n    /* \"#utility.yul\":7804:7836   */\n  tag_159\n  tag_59\n  jump\t// in\ntag_159:\n    /* \"#utility.yul\":7845:7910   */\n  tag_160\n    /* \"#utility.yul\":7903:7909   */\n  dup2\n    /* \"#utility.yul\":7895:7901   */\n  dup5\n    /* \"#utility.yul\":7889:7893   */\n  dup5\n    /* \"#utility.yul\":7845:7910   */\n  tag_58\n  jump\t// in\ntag_160:\n    /* \"#utility.yul\":7780:7916   */\n  pop\n    /* \"#utility.yul\":7727:7916   */\n  pop\n  pop\n  jump\t// out\n    /* \"#utility.yul\":7922:8108   */\ntag_61:\n    /* \"#utility.yul\":7982:8102   */\ntag_162:\n    /* \"#utility.yul\":7999:8002   */\n  dup2\n    /* \"#utility.yul\":7992:7997   */\n  dup2\n    /* \"#utility.yul\":7989:8003   */\n  lt\n    /* \"#utility.yul\":7982:8102   */\n  iszero\n  tag_164\n  jumpi\n    /* \"#utility.yul\":8053:8092   */\n  tag_165\n    /* \"#utility.yul\":8090:8091   */\n  0x00\n    /* \"#utility.yul\":8083:8088   */\n  dup3\n    /* \"#utility.yul\":8053:8092   */\n  tag_60\n  jump\t// in\ntag_165:\n    /* \"#utility.yul\":8026:8027   */\n  0x01\n    /* \"#utility.yul\":8019:8024   */\n  dup2\n    /* \"#utility.yul\":8015:8028   */\n  add\n    /* \"#utility.yul\":8006:8028   */\n  swap1\n  pop\n    /* \"#utility.yul\":7982:8102   */\n  jump(tag_162)\ntag_164:\n    /* \"#utility.yul\":7922:8108   */\n  pop\n  pop\n  jump\t// out\n    /* \"#utility.yul\":8114:8657   */\ntag_62:\n    /* \"#utility.yul\":8215:8217   */\n  0x1f\n    /* \"#utility.yul\":8210:8213   */\n  dup3\n    /* \"#utility.yul\":8207:8218   */\n  gt\n    /* \"#utility.yul\":8204:8650   */\n  iszero\n  tag_167\n  jumpi\n    /* \"#utility.yul\":8249:8287   */\n  tag_168\n    /* \"#utility.yul\":8281:8286   */\n  dup2\n    /* \"#utility.yul\":8249:8287   */\n  tag_51\n  jump\t// in\ntag_168:\n    /* \"#utility.yul\":8333:8362   */\n  tag_169\n    /* \"#utility.yul\":8351:8361   */\n  dup5\n    /* \"#utility.yul\":8333:8362   */\n  tag_52\n  jump\t// in\ntag_169:\n    /* \"#utility.yul\":8323:8331   */\n  dup2\n    /* \"#utility.yul\":8319:8363   */\n  add\n    /* \"#utility.yul\":8516:8518   */\n  0x20\n    /* \"#utility.yul\":8504:8514   */\n  dup6\n    /* \"#utility.yul\":8501:8519   */\n  lt\n    /* \"#utility.yul\":8498:8547   */\n  iszero\n  tag_170\n  jumpi\n    /* \"#utility.yul\":8537:8545   */\n  dup2\n    /* \"#utility.yul\":8522:8545   */\n  swap1\n  pop\n    /* \"#utility.yul\":8498:8547   */\ntag_170:\n    /* \"#utility.yul\":8560:8640   */\n  tag_171\n    /* \"#utility.yul\":8616:8638   */\n  tag_172\n    /* \"#utility.yul\":8634:8637   */\n  dup6\n    /* \"#utility.yul\":8616:8638   */\n  tag_52\n  jump\t// in\ntag_172:\n    /* \"#utility.yul\":8606:8614   */\n  dup4\n    /* \"#utility.yul\":8602:8639   */\n  add\n    /* \"#utility.yul\":8589:8600   */\n  dup3\n    /* \"#utility.yul\":8560:8640   */\n  tag_61\n  jump\t// in\ntag_171:\n    /* \"#utility.yul\":8219:8650   */\n  pop\n  pop\n    /* \"#utility.yul\":8204:8650   */\ntag_167:\n    /* \"#utility.yul\":8114:8657   */\n  pop\n  pop\n  pop\n  jump\t// out\n    /* \"#utility.yul\":8663:8780   */\ntag_63:\n    /* \"#utility.yul\":8717:8725   */\n  0x00\n    /* \"#utility.yul\":8767:8772   */\n  dup3\n    /* \"#utility.yul\":8761:8765   */\n  dup3\n    /* \"#utility.yul\":8757:8773   */\n  shr\n    /* \"#utility.yul\":8736:8773   */\n  swap1\n  pop\n    /* \"#utility.yul\":8663:8780   */\n  swap3\n  swap2\n  pop\n  pop\n  jump\t// out\n    /* \"#utility.yul\":8786:8955   */\ntag_64:\n    /* \"#utility.yul\":8830:8836   */\n  0x00\n    /* \"#utility.yul\":8863:8914   */\n  tag_175\n    /* \"#utility.yul\":8911:8912   */\n  0x00\n    /* \"#utility.yul\":8907:8913   */\n  not\n    /* \"#utility.yul\":8899:8904   */\n  dup5\n    /* \"#utility.yul\":8896:8897   */\n  0x08\n    /* \"#utility.yul\":8892:8905   */\n  mul\n    /* \"#utility.yul\":8863:8914   */\n  tag_63\n  jump\t// in\ntag_175:\n    /* \"#utility.yul\":8859:8915   */\n  not\n    /* \"#utility.yul\":8944:8948   */\n  dup1\n    /* \"#utility.yul\":8938:8942   */\n  dup4\n    /* \"#utility.yul\":8934:8949   */\n  and\n    /* \"#utility.yul\":8924:8949   */\n  swap2\n  pop\n    /* \"#utility.yul\":8837:8955   */\n  pop\n    /* \"#utility.yul\":8786:8955   */\n  swap3\n  swap2\n  pop\n  pop\n  jump\t// out\n    /* \"#utility.yul\":8960:9255   */\ntag_65:\n    /* \"#utility.yul\":9036:9040   */\n  0x00\n    /* \"#utility.yul\":9182:9211   */\n  tag_177\n    /* \"#utility.yul\":9207:9210   */\n  dup4\n    /* \"#utility.yul\":9201:9205   */\n  dup4\n    /* \"#utility.yul\":9182:9211   */\n  tag_64\n  jump\t// in\ntag_177:\n    /* \"#utility.yul\":9174:9211   */\n  swap2\n  pop\n    /* \"#utility.yul\":9244:9247   */\n  dup3\n    /* \"#utility.yul\":9241:9242   */\n  0x02\n    /* \"#utility.yul\":9237:9248   */\n  mul\n    /* \"#utility.yul\":9231:9235   */\n  dup3\n    /* \"#utility.yul\":9228:9249   */\n  or\n    /* \"#utility.yul\":9220:9249   */\n  swap1\n  pop\n    /* \"#utility.yul\":8960:9255   */\n  swap3\n  swap2\n  pop\n  pop\n  jump\t// out\n    /* \"#utility.yul\":9260:10655   */\ntag_10:\n    /* \"#utility.yul\":9377:9414   */\n  tag_179\n    /* \"#utility.yul\":9410:9413   */\n  dup3\n    /* \"#utility.yul\":9377:9414   */\n  tag_48\n  jump\t// in\ntag_179:\n    /* \"#utility.yul\":9479:9497   */\n  0xffffffffffffffff\n    /* \"#utility.yul\":9471:9477   */\n  dup2\n    /* \"#utility.yul\":9468:9498   */\n  gt\n    /* \"#utility.yul\":9465:9521   */\n  iszero\n  tag_180\n  jumpi\n    /* \"#utility.yul\":9501:9519   */\n  tag_181\n  tag_31\n  jump\t// in\ntag_181:\n    /* \"#utility.yul\":9465:9521   */\ntag_180:\n    /* \"#utility.yul\":9545:9583   */\n  tag_182\n    /* \"#utility.yul\":9577:9581   */\n  dup3\n    /* \"#utility.yul\":9571:9582   */\n  sload\n    /* \"#utility.yul\":9545:9583   */\n  tag_50\n  jump\t// in\ntag_182:\n    /* \"#utility.yul\":9630:9697   */\n  tag_183\n    /* \"#utility.yul\":9690:9696   */\n  dup3\n    /* \"#utility.yul\":9682:9688   */\n  dup3\n    /* \"#utility.yul\":9676:9680   */\n  dup6\n    /* \"#utility.yul\":9630:9697   */\n  tag_62\n  jump\t// in\ntag_183:\n    /* \"#utility.yul\":9724:9725   */\n  0x00\n    /* \"#utility.yul\":9748:9752   */\n  0x20\n    /* \"#utility.yul\":9735:9752   */\n  swap1\n  pop\n    /* \"#utility.yul\":9780:9782   */\n  0x1f\n    /* \"#utility.yul\":9772:9778   */\n  dup4\n    /* \"#utility.yul\":9769:9783   */\n  gt\n    /* \"#utility.yul\":9797:9798   */\n  0x01\n    /* \"#utility.yul\":9792:10410   */\n  dup2\n  eq\n  tag_185\n  jumpi\n    /* \"#utility.yul\":10454:10455   */\n  0x00\n    /* \"#utility.yul\":10471:10477   */\n  dup5\n    /* \"#utility.yul\":10468:10545   */\n  iszero\n  tag_186\n  jumpi\n    /* \"#utility.yul\":10520:10529   */\n  dup3\n    /* \"#utility.yul\":10515:10518   */\n  dup8\n    /* \"#utility.yul\":10511:10530   */\n  add\n    /* \"#utility.yul\":10505:10531   */\n  mload\n    /* \"#utility.yul\":10496:10531   */\n  swap1\n  pop\n    /* \"#utility.yul\":10468:10545   */\ntag_186:\n    /* \"#utility.yul\":10571:10638   */\n  tag_187\n    /* \"#utility.yul\":10631:10637   */\n  dup6\n    /* \"#utility.yul\":10624:10629   */\n  dup3\n    /* \"#utility.yul\":10571:10638   */\n  tag_65\n  jump\t// in\ntag_187:\n    /* \"#utility.yul\":10565:10569   */\n  dup7\n    /* \"#utility.yul\":10558:10639   */\n  sstore\n    /* \"#utility.yul\":10427:10649   */\n  pop\n    /* \"#utility.yul\":9762:10649   */\n  jump(tag_184)\n    /* \"#utility.yul\":9792:10410   */\ntag_185:\n    /* \"#utility.yul\":9844:9848   */\n  0x1f\n    /* \"#utility.yul\":9840:9849   */\n  not\n    /* \"#utility.yul\":9832:9838   */\n  dup5\n    /* \"#utility.yul\":9828:9850   */\n  and\n    /* \"#utility.yul\":9878:9915   */\n  tag_188\n    /* \"#utility.yul\":9910:9914   */\n  dup7\n    /* \"#utility.yul\":9878:9915   */\n  tag_51\n  jump\t// in\ntag_188:\n    /* \"#utility.yul\":9937:9938   */\n  0x00\n    /* \"#utility.yul\":9951:10159   */\ntag_189:\n    /* \"#utility.yul\":9965:9972   */\n  dup3\n    /* \"#utility.yul\":9962:9963   */\n  dup2\n    /* \"#utility.yul\":9959:9973   */\n  lt\n    /* \"#utility.yul\":9951:10159   */\n  iszero\n  tag_191\n  jumpi\n    /* \"#utility.yul\":10044:10053   */\n  dup5\n    /* \"#utility.yul\":10039:10042   */\n  dup10\n    /* \"#utility.yul\":10035:10054   */\n  add\n    /* \"#utility.yul\":10029:10055   */\n  mload\n    /* \"#utility.yul\":10021:10027   */\n  dup3\n    /* \"#utility.yul\":10014:10056   */\n  sstore\n    /* \"#utility.yul\":10095:10096   */\n  0x01\n    /* \"#utility.yul\":10087:10093   */\n  dup3\n    /* \"#utility.yul\":10083:10097   */\n  add\n    /* \"#utility.yul\":10073:10097   */\n  swap2\n  pop\n    /* \"#utility.yul\":10142:10144   */\n  0x20\n    /* \"#utility.yul\":10131:10140   */\n  dup6\n    /* \"#utility.yul\":10127:10145   */\n  add\n    /* \"#utility.yul\":10114:10145   */\n  swap5\n  pop\n    /* \"#utility.yul\":9988:9992   */\n  0x20\n    /* \"#utility.yul\":9985:9986   */\n  dup2\n    /* \"#utility.yul\":9981:9993   */\n  add\n    /* \"#utility.yul\":9976:9993   */\n  swap1\n  pop\n    /* \"#utility.yul\":9951:10159   */\n  jump(tag_189)\ntag_191:\n    /* \"#utility.yul\":10187:10193   */\n  dup7\n    /* \"#utility.yul\":10178:10185   */\n  dup4\n    /* \"#utility.yul\":10175:10194   */\n  lt\n    /* \"#utility.yul\":10172:10351   */\n  iszero\n  tag_192\n  jumpi\n    /* \"#utility.yul\":10245:10254   */\n  dup5\n    /* \"#utility.yul\":10240:10243   */\n  dup10\n    /* \"#utility.yul\":10236:10255   */\n  add\n    /* \"#utility.yul\":10230:10256   */\n  mload\n    /* \"#utility.yul\":10288:10336   */\n  tag_193\n    /* \"#utility.yul\":10330:10334   */\n  0x1f\n    /* \"#utility.yul\":10322:10328   */\n  dup10\n    /* \"#utility.yul\":10318:10335   */\n  and\n    /* \"#utility.yul\":10307:10316   */\n  dup3\n    /* \"#utility.yul\":10288:10336   */\n  tag_64\n  jump\t// in\ntag_193:\n    /* \"#utility.yul\":10280:10286   */\n  dup4\n    /* \"#utility.yul\":10273:10337   */\n  sstore\n    /* \"#utility.yul\":10195:10351   */\n  pop\n    /* \"#utility.yul\":10172:10351   */\ntag_192:\n    /* \"#utility.yul\":10397:10398   */\n  0x01\n    /* \"#utility.yul\":10393:10394   */\n  0x02\n    /* \"#utility.yul\":10385:10391   */\n  dup9\n    /* \"#utility.yul\":10381:10395   */\n  mul\n    /* \"#utility.yul\":10377:10399   */\n  add\n    /* \"#utility.yul\":10371:10375   */\n  dup9\n    /* \"#utility.yul\":10364:10400   */\n  sstore\n    /* \"#utility.yul\":9799:10410   */\n  pop\n  pop\n  pop\n    /* \"#utility.yul\":9762:10649   */\ntag_184:\n  pop\n    /* \"#utility.yul\":9352:10655   */\n  pop\n  pop\n  pop\n    /* \"#utility.yul\":9260:10655   */\n  pop\n  pop\n  jump\t// out\n    /* \"#utility.yul\":10661:10779   */\ntag_66:\n    /* \"#utility.yul\":10748:10772   */\n  tag_195\n    /* \"#utility.yul\":10766:10771   */\n  dup2\n    /* \"#utility.yul\":10748:10772   */\n  tag_39\n  jump\t// in\ntag_195:\n    /* \"#utility.yul\":10743:10746   */\n  dup3\n    /* \"#utility.yul\":10736:10773   */\n  mstore\n    /* \"#utility.yul\":10661:10779   */\n  pop\n  pop\n  jump\t// out\n    /* \"#utility.yul\":10785:11007   */\ntag_15:\n    /* \"#utility.yul\":10878:10882   */\n  0x00\n    /* \"#utility.yul\":10916:10918   */\n  0x20\n    /* \"#utility.yul\":10905:10914   */\n  dup3\n    /* \"#utility.yul\":10901:10919   */\n  add\n    /* \"#utility.yul\":10893:10919   */\n  swap1\n  pop\n    /* \"#utility.yul\":10929:11000   */\n  tag_197\n    /* \"#utility.yul\":10997:10998   */\n  0x00\n    /* \"#utility.yul\":10986:10995   */\n  dup4\n    /* \"#utility.yul\":10982:10999   */\n  add\n    /* \"#utility.yul\":10973:10979   */\n  dup5\n    /* \"#utility.yul\":10929:11000   */\n  tag_66\n  jump\t// in\ntag_197:\n    /* \"#utility.yul\":10785:11007   */\n  swap3\n  swap2\n  pop\n  pop\n  jump\t// out\n    /* \"contracts/OptionBase.sol\":228:2839  contract OptionBase is ERC20, Ownable, ReentrancyGuard {... */\ntag_23:\n  dataSize(sub_0)\n  dup1\n  dataOffset(sub_0)\n  0x00\n  codecopy\n  0x00\n  return\nstop\n\nsub_0: assembly {\n        /* \"contracts/OptionBase.sol\":228:2839  contract OptionBase is ERC20, Ownable, ReentrancyGuard {... */\n      mstore(0x40, 0x80)\n      callvalue\n      dup1\n      iszero\n      tag_1\n      jumpi\n      0x00\n      dup1\n      revert\n    tag_1:\n      pop\n      jumpi(tag_2, lt(calldatasize, 0x04))\n      shr(0xe0, calldataload(0x00))\n      dup1\n      0x8f620487\n      gt\n      tag_28\n      jumpi\n      dup1\n      0xb8a11e82\n      gt\n      tag_29\n      jumpi\n      dup1\n      0xdd62ed3e\n      gt\n      tag_30\n      jumpi\n      dup1\n      0xdd62ed3e\n      eq\n      tag_24\n      jumpi\n      dup1\n      0xf2fde38b\n      eq\n      tag_25\n      jumpi\n      dup1\n      0xf3c274a6\n      eq\n      tag_26\n      jumpi\n      dup1\n      0xffd9eedb\n      eq\n      tag_27\n      jumpi\n      jump(tag_2)\n    tag_30:\n      dup1\n      0xb8a11e82\n      eq\n      tag_21\n      jumpi\n      dup1\n      0xcfb4fc71\n      eq\n      tag_22\n      jumpi\n      dup1\n      0xd8dfeb45\n      eq\n      tag_23\n      jumpi\n      jump(tag_2)\n    tag_29:\n      dup1\n      0x8f620487\n      eq\n      tag_15\n      jumpi\n      dup1\n      0x95d89b41\n      eq\n      tag_16\n      jumpi\n      dup1\n      0x9acea70d\n      eq\n      tag_17\n      jumpi\n      dup1\n      0xa9059cbb\n      eq\n      tag_18\n      jumpi\n      dup1\n      0xac6068b5\n      eq\n      tag_19\n      jumpi\n      dup1\n      0xb5113d90\n      eq\n      tag_20\n      jumpi\n      jump(tag_2)\n    tag_28:\n      dup1\n      0x313ce567\n      gt\n      tag_31\n      jumpi\n      dup1\n      0x313ce567\n      eq\n      tag_9\n      jumpi\n      dup1\n      0x48d399e7\n      eq\n      tag_10\n      jumpi\n      dup1\n      0x6f713c9c\n      eq\n      tag_11\n      jumpi\n      dup1\n      0x70a08231\n      eq\n      tag_12\n      jumpi\n      dup1\n      0x715018a6\n      eq\n      tag_13\n      jumpi\n      dup1\n      0x8da5cb5b\n      eq\n      tag_14\n      jumpi\n      jump(tag_2)\n    tag_31:\n      dup1\n      0x06fdde03\n      eq\n      tag_3\n      jumpi\n      dup1\n      0x095ea7b3\n      eq\n      tag_4\n      jumpi\n      dup1\n      0x1529a639\n      eq\n      tag_5\n      jumpi\n      dup1\n      0x18160ddd\n      eq\n      tag_6\n      jumpi\n      dup1\n      0x23b872dd\n      eq\n      tag_7\n      jumpi\n      dup1\n      0x2f13b60c\n      eq\n      tag_8\n      jumpi\n    tag_2:\n      0x00\n      dup1\n      revert\n        /* \"@openzeppelin/contracts/token/ERC20/ERC20.sol\":1779:1868  function name() public view virtual returns (string memory) {... */\n    tag_3:\n      tag_32\n      tag_33\n      jump\t// in\n    tag_32:\n      mload(0x40)\n      tag_34\n      swap2\n      swap1\n      tag_35\n      jump\t// in\n    tag_34:\n      mload(0x40)\n      dup1\n      swap2\n      sub\n      swap1\n      return\n        /* \"@openzeppelin/contracts/token/ERC20/ERC20.sol\":3998:4184  function approve(address spender, uint256 value) public virtual returns (bool) {... */\n    tag_4:\n      tag_36\n      0x04\n      dup1\n      calldatasize\n      sub\n      dup2\n      add\n      swap1\n      tag_37\n      swap2\n      swap1\n      tag_38\n      jump\t// in\n    tag_37:\n      tag_39\n      jump\t// in\n    tag_36:\n      mload(0x40)\n      tag_40\n      swap2\n      swap1\n      tag_41\n      jump\t// in\n    tag_40:\n      mload(0x40)\n      dup1\n      swap2\n      sub\n      swap1\n      return\n        /* \"contracts/OptionBase.sol\":2185:2306  function getCollateralBalance() public view returns (uint256) {... */\n    tag_5:\n      tag_42\n      tag_43\n      jump\t// in\n    tag_42:\n      mload(0x40)\n      tag_44\n      swap2\n      swap1\n      tag_45\n      jump\t// in\n    tag_44:\n      mload(0x40)\n      dup1\n      swap2\n      sub\n      swap1\n      return\n        /* \"@openzeppelin/contracts/token/ERC20/ERC20.sol\":2849:2946  function totalSupply() public view virtual returns (uint256) {... */\n    tag_6:\n      tag_46\n      tag_47\n      jump\t// in\n    tag_46:\n      mload(0x40)\n      tag_48\n      swap2\n      swap1\n      tag_45\n      jump\t// in\n    tag_48:\n      mload(0x40)\n      dup1\n      swap2\n      sub\n      swap1\n      return\n        /* \"@openzeppelin/contracts/token/ERC20/ERC20.sol\":4776:5020  function transferFrom(address from, address to, uint256 value) public virtual returns (bool) {... */\n    tag_7:\n      tag_49\n      0x04\n      dup1\n      calldatasize\n      sub\n      dup2\n      add\n      swap1\n      tag_50\n      swap2\n      swap1\n      tag_51\n      jump\t// in\n    tag_50:\n      tag_52\n      jump\t// in\n    tag_49:\n      mload(0x40)\n      tag_53\n      swap2\n      swap1\n      tag_41\n      jump\t// in\n    tag_53:\n      mload(0x40)\n      dup1\n      swap2\n      sub\n      swap1\n      return\n        /* \"contracts/OptionBase.sol\":2445:2550  function isExpired() public view returns (bool) {... */\n    tag_8:\n      tag_54\n      tag_55\n      jump\t// in\n    tag_54:\n      mload(0x40)\n      tag_56\n      swap2\n      swap1\n      tag_41\n      jump\t// in\n    tag_56:\n      mload(0x40)\n      dup1\n      swap2\n      sub\n      swap1\n      return\n        /* \"@openzeppelin/contracts/token/ERC20/ERC20.sol\":2707:2789  function decimals() public view virtual returns (uint8) {... */\n    tag_9:\n      tag_57\n      tag_58\n      jump\t// in\n    tag_57:\n      mload(0x40)\n      tag_59\n      swap2\n      swap1\n      tag_60\n      jump\t// in\n    tag_59:\n      mload(0x40)\n      dup1\n      swap2\n      sub\n      swap1\n      return\n        /* \"contracts/OptionBase.sol\":290:322  address public collateralAddress */\n    tag_10:\n      tag_61\n      tag_62\n      jump\t// in\n    tag_61:\n      mload(0x40)\n      tag_63\n      swap2\n      swap1\n      tag_64\n      jump\t// in\n    tag_63:\n      mload(0x40)\n      dup1\n      swap2\n      sub\n      swap1\n      return\n        /* \"contracts/OptionBase.sol\":520:547  IERC20 public consideration */\n    tag_11:\n      tag_65\n      tag_66\n      jump\t// in\n    tag_65:\n      mload(0x40)\n      tag_67\n      swap2\n      swap1\n      tag_68\n      jump\t// in\n    tag_67:\n      mload(0x40)\n      dup1\n      swap2\n      sub\n      swap1\n      return\n        /* \"@openzeppelin/contracts/token/ERC20/ERC20.sol\":3004:3120  function balanceOf(address account) public view virtual returns (uint256) {... */\n    tag_12:\n      tag_69\n      0x04\n      dup1\n      calldatasize\n      sub\n      dup2\n      add\n      swap1\n      tag_70\n      swap2\n      swap1\n      tag_71\n      jump\t// in\n    tag_70:\n      tag_72\n      jump\t// in\n    tag_69:\n      mload(0x40)\n      tag_73\n      swap2\n      swap1\n      tag_45\n      jump\t// in\n    tag_73:\n      mload(0x40)\n      dup1\n      swap2\n      sub\n      swap1\n      return\n        /* \"@openzeppelin/contracts/access/Ownable.sol\":2293:2394  function renounceOwnership() public virtual onlyOwner {... */\n    tag_13:\n      tag_74\n      tag_75\n      jump\t// in\n    tag_74:\n      stop\n        /* \"@openzeppelin/contracts/access/Ownable.sol\":1638:1723  function owner() public view virtual returns (address) {... */\n    tag_14:\n      tag_76\n      tag_77\n      jump\t// in\n    tag_76:\n      mload(0x40)\n      tag_78\n      swap2\n      swap1\n      tag_64\n      jump\t// in\n    tag_78:\n      mload(0x40)\n      dup1\n      swap2\n      sub\n      swap1\n      return\n        /* \"contracts/OptionBase.sol\":369:399  uint256 public  expirationDate */\n    tag_15:\n      tag_79\n      tag_80\n      jump\t// in\n    tag_79:\n      mload(0x40)\n      tag_81\n      swap2\n      swap1\n      tag_45\n      jump\t// in\n    tag_81:\n      mload(0x40)\n      dup1\n      swap2\n      sub\n      swap1\n      return\n        /* \"@openzeppelin/contracts/token/ERC20/ERC20.sol\":1981:2074  function symbol() public view virtual returns (string memory) {... */\n    tag_16:\n      tag_82\n      tag_83\n      jump\t// in\n    tag_82:\n      mload(0x40)\n      tag_84\n      swap2\n      swap1\n      tag_35\n      jump\t// in\n    tag_84:\n      mload(0x40)\n      dup1\n      swap2\n      sub\n      swap1\n      return\n        /* \"contracts/OptionBase.sol\":328:363  address public considerationAddress */\n    tag_17:\n      tag_85\n      tag_86\n      jump\t// in\n    tag_85:\n      mload(0x40)\n      tag_87\n      swap2\n      swap1\n      tag_64\n      jump\t// in\n    tag_87:\n      mload(0x40)\n      dup1\n      swap2\n      sub\n      swap1\n      return\n        /* \"@openzeppelin/contracts/token/ERC20/ERC20.sol\":3315:3493  function transfer(address to, uint256 value) public virtual returns (bool) {... */\n    tag_18:\n      tag_88\n      0x04\n      dup1\n      calldatasize\n      sub\n      dup2\n      add\n      swap1\n      tag_89\n      swap2\n      swap1\n      tag_38\n      jump\t// in\n    tag_89:\n      tag_90\n      jump\t// in\n    tag_88:\n      mload(0x40)\n      tag_91\n      swap2\n      swap1\n      tag_41\n      jump\t// in\n    tag_91:\n      mload(0x40)\n      dup1\n      swap2\n      sub\n      swap1\n      return\n        /* \"contracts/OptionBase.sol\":2555:2662  function isNotExpired() public view returns (bool) {... */\n    tag_19:\n      tag_92\n      tag_93\n      jump\t// in\n    tag_92:\n      mload(0x40)\n      tag_94\n      swap2\n      swap1\n      tag_41\n      jump\t// in\n    tag_94:\n      mload(0x40)\n      dup1\n      swap2\n      sub\n      swap1\n      return\n        /* \"contracts/OptionBase.sol\":2312:2439  function getConsiderationBalance() public view returns (uint256) {... */\n    tag_20:\n      tag_95\n      tag_96\n      jump\t// in\n    tag_95:\n      mload(0x40)\n      tag_97\n      swap2\n      swap1\n      tag_45\n      jump\t// in\n    tag_97:\n      mload(0x40)\n      dup1\n      swap2\n      sub\n      swap1\n      return\n        /* \"contracts/OptionBase.sol\":405:430  uint256 public  strikeNum */\n    tag_21:\n      tag_98\n      tag_99\n      jump\t// in\n    tag_98:\n      mload(0x40)\n      tag_100\n      swap2\n      swap1\n      tag_45\n      jump\t// in\n    tag_100:\n      mload(0x40)\n      dup1\n      swap2\n      sub\n      swap1\n      return\n        /* \"contracts/OptionBase.sol\":436:461  uint256 public  strikeDen */\n    tag_22:\n      tag_101\n      tag_102\n      jump\t// in\n    tag_101:\n      mload(0x40)\n      tag_103\n      swap2\n      swap1\n      tag_45\n      jump\t// in\n    tag_103:\n      mload(0x40)\n      dup1\n      swap2\n      sub\n      swap1\n      return\n        /* \"contracts/OptionBase.sol\":490:514  IERC20 public collateral */\n    tag_23:\n      tag_104\n      tag_105\n      jump\t// in\n    tag_104:\n      mload(0x40)\n      tag_106\n      swap2\n      swap1\n      tag_68\n      jump\t// in\n    tag_106:\n      mload(0x40)\n      dup1\n      swap2\n      sub\n      swap1\n      return\n        /* \"@openzeppelin/contracts/token/ERC20/ERC20.sol\":3551:3691  function allowance(address owner, address spender) public view virtual returns (uint256) {... */\n    tag_24:\n      tag_107\n      0x04\n      dup1\n      calldatasize\n      sub\n      dup2\n      add\n      swap1\n      tag_108\n      swap2\n      swap1\n      tag_109\n      jump\t// in\n    tag_108:\n      tag_110\n      jump\t// in\n    tag_107:\n      mload(0x40)\n      tag_111\n      swap2\n      swap1\n      tag_45\n      jump\t// in\n    tag_111:\n      mload(0x40)\n      dup1\n      swap2\n      sub\n      swap1\n      return\n        /* \"@openzeppelin/contracts/access/Ownable.sol\":2543:2758  function transferOwnership(address newOwner) public virtual onlyOwner {... */\n    tag_25:\n      tag_112\n      0x04\n      dup1\n      calldatasize\n      sub\n      dup2\n      add\n      swap1\n      tag_113\n      swap2\n      swap1\n      tag_71\n      jump\t// in\n    tag_113:\n      tag_114\n      jump\t// in\n    tag_112:\n      stop\n        /* \"contracts/OptionBase.sol\":467:484  bool public isPut */\n    tag_26:\n      tag_115\n      tag_116\n      jump\t// in\n    tag_115:\n      mload(0x40)\n      tag_117\n      swap2\n      swap1\n      tag_41\n      jump\t// in\n    tag_117:\n      mload(0x40)\n      dup1\n      swap2\n      sub\n      swap1\n      return\n        /* \"contracts/OptionBase.sol\":2668:2834  function optionType() public view returns (string memory) {... */\n    tag_27:\n      tag_118\n      tag_119\n      jump\t// in\n    tag_118:\n      mload(0x40)\n      tag_120\n      swap2\n      swap1\n      tag_35\n      jump\t// in\n    tag_120:\n      mload(0x40)\n      dup1\n      swap2\n      sub\n      swap1\n      return\n        /* \"@openzeppelin/contracts/token/ERC20/ERC20.sol\":1779:1868  function name() public view virtual returns (string memory) {... */\n    tag_33:\n        /* \"@openzeppelin/contracts/token/ERC20/ERC20.sol\":1824:1837  string memory */\n      0x60\n        /* \"@openzeppelin/contracts/token/ERC20/ERC20.sol\":1856:1861  _name */\n      0x03\n        /* \"@openzeppelin/contracts/token/ERC20/ERC20.sol\":1849:1861  return _name */\n      dup1\n      sload\n      tag_122\n      swap1\n      tag_123\n      jump\t// in\n    tag_122:\n      dup1\n      0x1f\n      add\n      0x20\n      dup1\n      swap2\n      div\n      mul\n      0x20\n      add\n      mload(0x40)\n      swap1\n      dup2\n      add\n      0x40\n      mstore\n      dup1\n      swap3\n      swap2\n      swap1\n      dup2\n      dup2\n      mstore\n      0x20\n      add\n      dup3\n      dup1\n      sload\n      tag_124\n      swap1\n      tag_123\n      jump\t// in\n    tag_124:\n      dup1\n      iszero\n      tag_125\n      jumpi\n      dup1\n      0x1f\n      lt\n      tag_126\n      jumpi\n      0x0100\n      dup1\n      dup4\n      sload\n      div\n      mul\n      dup4\n      mstore\n      swap2\n      0x20\n      add\n      swap2\n      jump(tag_125)\n    tag_126:\n      dup3\n      add\n      swap2\n      swap1\n      0x00\n      mstore\n      keccak256(0x00, 0x20)\n      swap1\n    tag_127:\n      dup2\n      sload\n      dup2\n      mstore\n      swap1\n      0x01\n      add\n      swap1\n      0x20\n      add\n      dup1\n      dup4\n      gt\n      tag_127\n      jumpi\n      dup3\n      swap1\n      sub\n      0x1f\n      and\n      dup3\n      add\n      swap2\n    tag_125:\n      pop\n      pop\n      pop\n      pop\n      pop\n      swap1\n      pop\n        /* \"@openzeppelin/contracts/token/ERC20/ERC20.sol\":1779:1868  function name() public view virtual returns (string memory) {... */\n      swap1\n      jump\t// out\n        /* \"@openzeppelin/contracts/token/ERC20/ERC20.sol\":3998:4184  function approve(address spender, uint256 value) public virtual returns (bool) {... */\n    tag_39:\n        /* \"@openzeppelin/contracts/token/ERC20/ERC20.sol\":4071:4075  bool */\n      0x00\n        /* \"@openzeppelin/contracts/token/ERC20/ERC20.sol\":4087:4100  address owner */\n      dup1\n        /* \"@openzeppelin/contracts/token/ERC20/ERC20.sol\":4103:4115  _msgSender() */\n      tag_129\n        /* \"@openzeppelin/contracts/token/ERC20/ERC20.sol\":4103:4113  _msgSender */\n      tag_130\n        /* \"@openzeppelin/contracts/token/ERC20/ERC20.sol\":4103:4115  _msgSender() */\n      jump\t// in\n    tag_129:\n        /* \"@openzeppelin/contracts/token/ERC20/ERC20.sol\":4087:4115  address owner = _msgSender() */\n      swap1\n      pop\n        /* \"@openzeppelin/contracts/token/ERC20/ERC20.sol\":4125:4156  _approve(owner, spender, value) */\n      tag_131\n        /* \"@openzeppelin/contracts/token/ERC20/ERC20.sol\":4134:4139  owner */\n      dup2\n        /* \"@openzeppelin/contracts/token/ERC20/ERC20.sol\":4141:4148  spender */\n      dup6\n        /* \"@openzeppelin/contracts/token/ERC20/ERC20.sol\":4150:4155  value */\n      dup6\n        /* \"@openzeppelin/contracts/token/ERC20/ERC20.sol\":4125:4133  _approve */\n      tag_132\n        /* \"@openzeppelin/contracts/token/ERC20/ERC20.sol\":4125:4156  _approve(owner, spender, value) */\n      jump\t// in\n    tag_131:\n        /* \"@openzeppelin/contracts/token/ERC20/ERC20.sol\":4173:4177  true */\n      0x01\n        /* \"@openzeppelin/contracts/token/ERC20/ERC20.sol\":4166:4177  return true */\n      swap2\n      pop\n      pop\n        /* \"@openzeppelin/contracts/token/ERC20/ERC20.sol\":3998:4184  function approve(address spender, uint256 value) public virtual returns (bool) {... */\n      swap3\n      swap2\n      pop\n      pop\n      jump\t// out\n        /* \"contracts/OptionBase.sol\":2185:2306  function getCollateralBalance() public view returns (uint256) {... */\n    tag_43:\n        /* \"contracts/OptionBase.sol\":2238:2245  uint256 */\n      0x00\n        /* \"contracts/OptionBase.sol\":2264:2274  collateral */\n      0x0c\n      0x01\n      swap1\n      sload\n      swap1\n      0x0100\n      exp\n      swap1\n      div\n      0xffffffffffffffffffffffffffffffffffffffff\n      and\n        /* \"contracts/OptionBase.sol\":2264:2284  collateral.balanceOf */\n      0xffffffffffffffffffffffffffffffffffffffff\n      and\n      0x70a08231\n        /* \"contracts/OptionBase.sol\":2293:2297  this */\n      address\n        /* \"contracts/OptionBase.sol\":2264:2299  collateral.balanceOf(address(this)) */\n      mload(0x40)\n      dup3\n      0xffffffff\n      and\n      0xe0\n      shl\n      dup2\n      mstore\n      0x04\n      add\n      tag_134\n      swap2\n      swap1\n      tag_64\n      jump\t// in\n    tag_134:\n      0x20\n      mload(0x40)\n      dup1\n      dup4\n      sub\n      dup2\n      dup7\n      gas\n      staticcall\n      iszero\n      dup1\n      iszero\n      tag_136\n      jumpi\n      returndatasize\n      0x00\n      dup1\n      returndatacopy\n      revert(0x00, returndatasize)\n    tag_136:\n      pop\n      pop\n      pop\n      pop\n      mload(0x40)\n      returndatasize\n      not(0x1f)\n      0x1f\n      dup3\n      add\n      and\n      dup3\n      add\n      dup1\n      0x40\n      mstore\n      pop\n      dup2\n      add\n      swap1\n      tag_137\n      swap2\n      swap1\n      tag_138\n      jump\t// in\n    tag_137:\n        /* \"contracts/OptionBase.sol\":2257:2299  return collateral.balanceOf(address(this)) */\n      swap1\n      pop\n        /* \"contracts/OptionBase.sol\":2185:2306  function getCollateralBalance() public view returns (uint256) {... */\n      swap1\n      jump\t// out\n        /* \"@openzeppelin/contracts/token/ERC20/ERC20.sol\":2849:2946  function totalSupply() public view virtual returns (uint256) {... */\n    tag_47:\n        /* \"@openzeppelin/contracts/token/ERC20/ERC20.sol\":2901:2908  uint256 */\n      0x00\n        /* \"@openzeppelin/contracts/token/ERC20/ERC20.sol\":2927:2939  _totalSupply */\n      sload(0x02)\n        /* \"@openzeppelin/contracts/token/ERC20/ERC20.sol\":2920:2939  return _totalSupply */\n      swap1\n      pop\n        /* \"@openzeppelin/contracts/token/ERC20/ERC20.sol\":2849:2946  function totalSupply() public view virtual returns (uint256) {... */\n      swap1\n      jump\t// out\n        /* \"@openzeppelin/contracts/token/ERC20/ERC20.sol\":4776:5020  function transferFrom(address from, address to, uint256 value) public virtual returns (bool) {... */\n    tag_52:\n        /* \"@openzeppelin/contracts/token/ERC20/ERC20.sol\":4863:4867  bool */\n      0x00\n        /* \"@openzeppelin/contracts/token/ERC20/ERC20.sol\":4879:4894  address spender */\n      dup1\n        /* \"@openzeppelin/contracts/token/ERC20/ERC20.sol\":4897:4909  _msgSender() */\n      tag_141\n        /* \"@openzeppelin/contracts/token/ERC20/ERC20.sol\":4897:4907  _msgSender */\n      tag_130\n        /* \"@openzeppelin/contracts/token/ERC20/ERC20.sol\":4897:4909  _msgSender() */\n      jump\t// in\n    tag_141:\n        /* \"@openzeppelin/contracts/token/ERC20/ERC20.sol\":4879:4909  address spender = _msgSender() */\n      swap1\n      pop\n        /* \"@openzeppelin/contracts/token/ERC20/ERC20.sol\":4919:4956  _spendAllowance(from, spender, value) */\n      tag_142\n        /* \"@openzeppelin/contracts/token/ERC20/ERC20.sol\":4935:4939  from */\n      dup6\n        /* \"@openzeppelin/contracts/token/ERC20/ERC20.sol\":4941:4948  spender */\n      dup3\n        /* \"@openzeppelin/contracts/token/ERC20/ERC20.sol\":4950:4955  value */\n      dup6\n        /* \"@openzeppelin/contracts/token/ERC20/ERC20.sol\":4919:4934  _spendAllowance */\n      tag_143\n        /* \"@openzeppelin/contracts/token/ERC20/ERC20.sol\":4919:4956  _spendAllowance(from, spender, value) */\n      jump\t// in\n    tag_142:\n        /* \"@openzeppelin/contracts/token/ERC20/ERC20.sol\":4966:4992  _transfer(from, to, value) */\n      tag_144\n        /* \"@openzeppelin/contracts/token/ERC20/ERC20.sol\":4976:4980  from */\n      dup6\n        /* \"@openzeppelin/contracts/token/ERC20/ERC20.sol\":4982:4984  to */\n      dup6\n        /* \"@openzeppelin/contracts/token/ERC20/ERC20.sol\":4986:4991  value */\n      dup6\n        /* \"@openzeppelin/contracts/token/ERC20/ERC20.sol\":4966:4975  _transfer */\n      tag_145\n        /* \"@openzeppelin/contracts/token/ERC20/ERC20.sol\":4966:4992  _transfer(from, to, value) */\n      jump\t// in\n    tag_144:\n        /* \"@openzeppelin/contracts/token/ERC20/ERC20.sol\":5009:5013  true */\n      0x01\n        /* \"@openzeppelin/contracts/token/ERC20/ERC20.sol\":5002:5013  return true */\n      swap2\n      pop\n      pop\n        /* \"@openzeppelin/contracts/token/ERC20/ERC20.sol\":4776:5020  function transferFrom(address from, address to, uint256 value) public virtual returns (bool) {... */\n      swap4\n      swap3\n      pop\n      pop\n      pop\n      jump\t// out\n        /* \"contracts/OptionBase.sol\":2445:2550  function isExpired() public view returns (bool) {... */\n    tag_55:\n        /* \"contracts/OptionBase.sol\":2487:2491  bool */\n      0x00\n        /* \"contracts/OptionBase.sol\":2529:2543  expirationDate */\n      sload(0x09)\n        /* \"contracts/OptionBase.sol\":2510:2525  block.timestamp */\n      timestamp\n        /* \"contracts/OptionBase.sol\":2510:2543  block.timestamp >= expirationDate */\n      lt\n      iszero\n        /* \"contracts/OptionBase.sol\":2503:2543  return block.timestamp >= expirationDate */\n      swap1\n      pop\n        /* \"contracts/OptionBase.sol\":2445:2550  function isExpired() public view returns (bool) {... */\n      swap1\n      jump\t// out\n        /* \"@openzeppelin/contracts/token/ERC20/ERC20.sol\":2707:2789  function decimals() public view virtual returns (uint8) {... */\n    tag_58:\n        /* \"@openzeppelin/contracts/token/ERC20/ERC20.sol\":2756:2761  uint8 */\n      0x00\n        /* \"@openzeppelin/contracts/token/ERC20/ERC20.sol\":2780:2782  18 */\n      0x12\n        /* \"@openzeppelin/contracts/token/ERC20/ERC20.sol\":2773:2782  return 18 */\n      swap1\n      pop\n        /* \"@openzeppelin/contracts/token/ERC20/ERC20.sol\":2707:2789  function decimals() public view virtual returns (uint8) {... */\n      swap1\n      jump\t// out\n        /* \"contracts/OptionBase.sol\":290:322  address public collateralAddress */\n    tag_62:\n      0x07\n      0x00\n      swap1\n      sload\n      swap1\n      0x0100\n      exp\n      swap1\n      div\n      0xffffffffffffffffffffffffffffffffffffffff\n      and\n      dup2\n      jump\t// out\n        /* \"contracts/OptionBase.sol\":520:547  IERC20 public consideration */\n    tag_66:\n      0x0d\n      0x00\n      swap1\n      sload\n      swap1\n      0x0100\n      exp\n      swap1\n      div\n      0xffffffffffffffffffffffffffffffffffffffff\n      and\n      dup2\n      jump\t// out\n        /* \"@openzeppelin/contracts/token/ERC20/ERC20.sol\":3004:3120  function balanceOf(address account) public view virtual returns (uint256) {... */\n    tag_72:\n        /* \"@openzeppelin/contracts/token/ERC20/ERC20.sol\":3069:3076  uint256 */\n      0x00\n        /* \"@openzeppelin/contracts/token/ERC20/ERC20.sol\":3095:3104  _balances */\n      dup1\n        /* \"@openzeppelin/contracts/token/ERC20/ERC20.sol\":3095:3113  _balances[account] */\n      0x00\n        /* \"@openzeppelin/contracts/token/ERC20/ERC20.sol\":3105:3112  account */\n      dup4\n        /* \"@openzeppelin/contracts/token/ERC20/ERC20.sol\":3095:3113  _balances[account] */\n      0xffffffffffffffffffffffffffffffffffffffff\n      and\n      0xffffffffffffffffffffffffffffffffffffffff\n      and\n      dup2\n      mstore\n      0x20\n      add\n      swap1\n      dup2\n      mstore\n      0x20\n      add\n      0x00\n      keccak256\n      sload\n        /* \"@openzeppelin/contracts/token/ERC20/ERC20.sol\":3088:3113  return _balances[account] */\n      swap1\n      pop\n        /* \"@openzeppelin/contracts/token/ERC20/ERC20.sol\":3004:3120  function balanceOf(address account) public view virtual returns (uint256) {... */\n      swap2\n      swap1\n      pop\n      jump\t// out\n        /* \"@openzeppelin/contracts/access/Ownable.sol\":2293:2394  function renounceOwnership() public virtual onlyOwner {... */\n    tag_75:\n        /* \"@openzeppelin/contracts/access/Ownable.sol\":1531:1544  _checkOwner() */\n      tag_150\n        /* \"@openzeppelin/contracts/access/Ownable.sol\":1531:1542  _checkOwner */\n      tag_151\n        /* \"@openzeppelin/contracts/access/Ownable.sol\":1531:1544  _checkOwner() */\n      jump\t// in\n    tag_150:\n        /* \"@openzeppelin/contracts/access/Ownable.sol\":2357:2387  _transferOwnership(address(0)) */\n      tag_153\n        /* \"@openzeppelin/contracts/access/Ownable.sol\":2384:2385  0 */\n      0x00\n        /* \"@openzeppelin/contracts/access/Ownable.sol\":2357:2375  _transferOwnership */\n      tag_154\n        /* \"@openzeppelin/contracts/access/Ownable.sol\":2357:2387  _transferOwnership(address(0)) */\n      jump\t// in\n    tag_153:\n        /* \"@openzeppelin/contracts/access/Ownable.sol\":2293:2394  function renounceOwnership() public virtual onlyOwner {... */\n      jump\t// out\n        /* \"@openzeppelin/contracts/access/Ownable.sol\":1638:1723  function owner() public view virtual returns (address) {... */\n    tag_77:\n        /* \"@openzeppelin/contracts/access/Ownable.sol\":1684:1691  address */\n      0x00\n        /* \"@openzeppelin/contracts/access/Ownable.sol\":1710:1716  _owner */\n      0x05\n      0x00\n      swap1\n      sload\n      swap1\n      0x0100\n      exp\n      swap1\n      div\n      0xffffffffffffffffffffffffffffffffffffffff\n      and\n        /* \"@openzeppelin/contracts/access/Ownable.sol\":1703:1716  return _owner */\n      swap1\n      pop\n        /* \"@openzeppelin/contracts/access/Ownable.sol\":1638:1723  function owner() public view virtual returns (address) {... */\n      swap1\n      jump\t// out\n        /* \"contracts/OptionBase.sol\":369:399  uint256 public  expirationDate */\n    tag_80:\n      sload(0x09)\n      dup2\n      jump\t// out\n        /* \"@openzeppelin/contracts/token/ERC20/ERC20.sol\":1981:2074  function symbol() public view virtual returns (string memory) {... */\n    tag_83:\n        /* \"@openzeppelin/contracts/token/ERC20/ERC20.sol\":2028:2041  string memory */\n      0x60\n        /* \"@openzeppelin/contracts/token/ERC20/ERC20.sol\":2060:2067  _symbol */\n      0x04\n        /* \"@openzeppelin/contracts/token/ERC20/ERC20.sol\":2053:2067  return _symbol */\n      dup1\n      sload\n      tag_157\n      swap1\n      tag_123\n      jump\t// in\n    tag_157:\n      dup1\n      0x1f\n      add\n      0x20\n      dup1\n      swap2\n      div\n      mul\n      0x20\n      add\n      mload(0x40)\n      swap1\n      dup2\n      add\n      0x40\n      mstore\n      dup1\n      swap3\n      swap2\n      swap1\n      dup2\n      dup2\n      mstore\n      0x20\n      add\n      dup3\n      dup1\n      sload\n      tag_158\n      swap1\n      tag_123\n      jump\t// in\n    tag_158:\n      dup1\n      iszero\n      tag_159\n      jumpi\n      dup1\n      0x1f\n      lt\n      tag_160\n      jumpi\n      0x0100\n      dup1\n      dup4\n      sload\n      div\n      mul\n      dup4\n      mstore\n      swap2\n      0x20\n      add\n      swap2\n      jump(tag_159)\n    tag_160:\n      dup3\n      add\n      swap2\n      swap1\n      0x00\n      mstore\n      keccak256(0x00, 0x20)\n      swap1\n    tag_161:\n      dup2\n      sload\n      dup2\n      mstore\n      swap1\n      0x01\n      add\n      swap1\n      0x20\n      add\n      dup1\n      dup4\n      gt\n      tag_161\n      jumpi\n      dup3\n      swap1\n      sub\n      0x1f\n      and\n      dup3\n      add\n      swap2\n    tag_159:\n      pop\n      pop\n      pop\n      pop\n      pop\n      swap1\n      pop\n        /* \"@openzeppelin/contracts/token/ERC20/ERC20.sol\":1981:2074  function symbol() public view virtual returns (string memory) {... */\n      swap1\n      jump\t// out\n        /* \"contracts/OptionBase.sol\":328:363  address public considerationAddress */\n    tag_86:\n      0x08\n      0x00\n      swap1\n      sload\n      swap1\n      0x0100\n      exp\n      swap1\n      div\n      0xffffffffffffffffffffffffffffffffffffffff\n      and\n      dup2\n      jump\t// out\n        /* \"@openzeppelin/contracts/token/ERC20/ERC20.sol\":3315:3493  function transfer(address to, uint256 value) public virtual returns (bool) {... */\n    tag_90:\n        /* \"@openzeppelin/contracts/token/ERC20/ERC20.sol\":3384:3388  bool */\n      0x00\n        /* \"@openzeppelin/contracts/token/ERC20/ERC20.sol\":3400:3413  address owner */\n      dup1\n        /* \"@openzeppelin/contracts/token/ERC20/ERC20.sol\":3416:3428  _msgSender() */\n      tag_163\n        /* \"@openzeppelin/contracts/token/ERC20/ERC20.sol\":3416:3426  _msgSender */\n      tag_130\n        /* \"@openzeppelin/contracts/token/ERC20/ERC20.sol\":3416:3428  _msgSender() */\n      jump\t// in\n    tag_163:\n        /* \"@openzeppelin/contracts/token/ERC20/ERC20.sol\":3400:3428  address owner = _msgSender() */\n      swap1\n      pop\n        /* \"@openzeppelin/contracts/token/ERC20/ERC20.sol\":3438:3465  _transfer(owner, to, value) */\n      tag_164\n        /* \"@openzeppelin/contracts/token/ERC20/ERC20.sol\":3448:3453  owner */\n      dup2\n        /* \"@openzeppelin/contracts/token/ERC20/ERC20.sol\":3455:3457  to */\n      dup6\n        /* \"@openzeppelin/contracts/token/ERC20/ERC20.sol\":3459:3464  value */\n      dup6\n        /* \"@openzeppelin/contracts/token/ERC20/ERC20.sol\":3438:3447  _transfer */\n      tag_145\n        /* \"@openzeppelin/contracts/token/ERC20/ERC20.sol\":3438:3465  _transfer(owner, to, value) */\n      jump\t// in\n    tag_164:\n        /* \"@openzeppelin/contracts/token/ERC20/ERC20.sol\":3482:3486  true */\n      0x01\n        /* \"@openzeppelin/contracts/token/ERC20/ERC20.sol\":3475:3486  return true */\n      swap2\n      pop\n      pop\n        /* \"@openzeppelin/contracts/token/ERC20/ERC20.sol\":3315:3493  function transfer(address to, uint256 value) public virtual returns (bool) {... */\n      swap3\n      swap2\n      pop\n      pop\n      jump\t// out\n        /* \"contracts/OptionBase.sol\":2555:2662  function isNotExpired() public view returns (bool) {... */\n    tag_93:\n        /* \"contracts/OptionBase.sol\":2600:2604  bool */\n      0x00\n        /* \"contracts/OptionBase.sol\":2641:2655  expirationDate */\n      sload(0x09)\n        /* \"contracts/OptionBase.sol\":2623:2638  block.timestamp */\n      timestamp\n        /* \"contracts/OptionBase.sol\":2623:2655  block.timestamp < expirationDate */\n      lt\n        /* \"contracts/OptionBase.sol\":2616:2655  return block.timestamp < expirationDate */\n      swap1\n      pop\n        /* \"contracts/OptionBase.sol\":2555:2662  function isNotExpired() public view returns (bool) {... */\n      swap1\n      jump\t// out\n        /* \"contracts/OptionBase.sol\":2312:2439  function getConsiderationBalance() public view returns (uint256) {... */\n    tag_96:\n        /* \"contracts/OptionBase.sol\":2368:2375  uint256 */\n      0x00\n        /* \"contracts/OptionBase.sol\":2394:2407  consideration */\n      0x0d\n      0x00\n      swap1\n      sload\n      swap1\n      0x0100\n      exp\n      swap1\n      div\n      0xffffffffffffffffffffffffffffffffffffffff\n      and\n        /* \"contracts/OptionBase.sol\":2394:2417  consideration.balanceOf */\n      0xffffffffffffffffffffffffffffffffffffffff\n      and\n      0x70a08231\n        /* \"contracts/OptionBase.sol\":2426:2430  this */\n      address\n        /* \"contracts/OptionBase.sol\":2394:2432  consideration.balanceOf(address(this)) */\n      mload(0x40)\n      dup3\n      0xffffffff\n      and\n      0xe0\n      shl\n      dup2\n      mstore\n      0x04\n      add\n      tag_167\n      swap2\n      swap1\n      tag_64\n      jump\t// in\n    tag_167:\n      0x20\n      mload(0x40)\n      dup1\n      dup4\n      sub\n      dup2\n      dup7\n      gas\n      staticcall\n      iszero\n      dup1\n      iszero\n      tag_169\n      jumpi\n      returndatasize\n      0x00\n      dup1\n      returndatacopy\n      revert(0x00, returndatasize)\n    tag_169:\n      pop\n      pop\n      pop\n      pop\n      mload(0x40)\n      returndatasize\n      not(0x1f)\n      0x1f\n      dup3\n      add\n      and\n      dup3\n      add\n      dup1\n      0x40\n      mstore\n      pop\n      dup2\n      add\n      swap1\n      tag_170\n      swap2\n      swap1\n      tag_138\n      jump\t// in\n    tag_170:\n        /* \"contracts/OptionBase.sol\":2387:2432  return consideration.balanceOf(address(this)) */\n      swap1\n      pop\n        /* \"contracts/OptionBase.sol\":2312:2439  function getConsiderationBalance() public view returns (uint256) {... */\n      swap1\n      jump\t// out\n        /* \"contracts/OptionBase.sol\":405:430  uint256 public  strikeNum */\n    tag_99:\n      sload(0x0a)\n      dup2\n      jump\t// out\n        /* \"contracts/OptionBase.sol\":436:461  uint256 public  strikeDen */\n    tag_102:\n      sload(0x0b)\n      dup2\n      jump\t// out\n        /* \"contracts/OptionBase.sol\":490:514  IERC20 public collateral */\n    tag_105:\n      0x0c\n      0x01\n      swap1\n      sload\n      swap1\n      0x0100\n      exp\n      swap1\n      div\n      0xffffffffffffffffffffffffffffffffffffffff\n      and\n      dup2\n      jump\t// out\n        /* \"@openzeppelin/contracts/token/ERC20/ERC20.sol\":3551:3691  function allowance(address owner, address spender) public view virtual returns (uint256) {... */\n    tag_110:\n        /* \"@openzeppelin/contracts/token/ERC20/ERC20.sol\":3631:3638  uint256 */\n      0x00\n        /* \"@openzeppelin/contracts/token/ERC20/ERC20.sol\":3657:3668  _allowances */\n      0x01\n        /* \"@openzeppelin/contracts/token/ERC20/ERC20.sol\":3657:3675  _allowances[owner] */\n      0x00\n        /* \"@openzeppelin/contracts/token/ERC20/ERC20.sol\":3669:3674  owner */\n      dup5\n        /* \"@openzeppelin/contracts/token/ERC20/ERC20.sol\":3657:3675  _allowances[owner] */\n      0xffffffffffffffffffffffffffffffffffffffff\n      and\n      0xffffffffffffffffffffffffffffffffffffffff\n      and\n      dup2\n      mstore\n      0x20\n      add\n      swap1\n      dup2\n      mstore\n      0x20\n      add\n      0x00\n      keccak256\n        /* \"@openzeppelin/contracts/token/ERC20/ERC20.sol\":3657:3684  _allowances[owner][spender] */\n      0x00\n        /* \"@openzeppelin/contracts/token/ERC20/ERC20.sol\":3676:3683  spender */\n      dup4\n        /* \"@openzeppelin/contracts/token/ERC20/ERC20.sol\":3657:3684  _allowances[owner][spender] */\n      0xffffffffffffffffffffffffffffffffffffffff\n      and\n      0xffffffffffffffffffffffffffffffffffffffff\n      and\n      dup2\n      mstore\n      0x20\n      add\n      swap1\n      dup2\n      mstore\n      0x20\n      add\n      0x00\n      keccak256\n      sload\n        /* \"@openzeppelin/contracts/token/ERC20/ERC20.sol\":3650:3684  return _allowances[owner][spender] */\n      swap1\n      pop\n        /* \"@openzeppelin/contracts/token/ERC20/ERC20.sol\":3551:3691  function allowance(address owner, address spender) public view virtual returns (uint256) {... */\n      swap3\n      swap2\n      pop\n      pop\n      jump\t// out\n        /* \"@openzeppelin/contracts/access/Ownable.sol\":2543:2758  function transferOwnership(address newOwner) public virtual onlyOwner {... */\n    tag_114:\n        /* \"@openzeppelin/contracts/access/Ownable.sol\":1531:1544  _checkOwner() */\n      tag_173\n        /* \"@openzeppelin/contracts/access/Ownable.sol\":1531:1542  _checkOwner */\n      tag_151\n        /* \"@openzeppelin/contracts/access/Ownable.sol\":1531:1544  _checkOwner() */\n      jump\t// in\n    tag_173:\n        /* \"@openzeppelin/contracts/access/Ownable.sol\":2647:2648  0 */\n      0x00\n        /* \"@openzeppelin/contracts/access/Ownable.sol\":2627:2649  newOwner == address(0) */\n      0xffffffffffffffffffffffffffffffffffffffff\n      and\n        /* \"@openzeppelin/contracts/access/Ownable.sol\":2627:2635  newOwner */\n      dup2\n        /* \"@openzeppelin/contracts/access/Ownable.sol\":2627:2649  newOwner == address(0) */\n      0xffffffffffffffffffffffffffffffffffffffff\n      and\n      sub\n        /* \"@openzeppelin/contracts/access/Ownable.sol\":2623:2714  if (newOwner == address(0)) {... */\n      tag_175\n      jumpi\n        /* \"@openzeppelin/contracts/access/Ownable.sol\":2700:2701  0 */\n      0x00\n        /* \"@openzeppelin/contracts/access/Ownable.sol\":2672:2703  OwnableInvalidOwner(address(0)) */\n      mload(0x40)\n      0x1e4fbdf700000000000000000000000000000000000000000000000000000000\n      dup2\n      mstore\n      0x04\n      add\n      tag_176\n      swap2\n      swap1\n      tag_64\n      jump\t// in\n    tag_176:\n      mload(0x40)\n      dup1\n      swap2\n      sub\n      swap1\n      revert\n        /* \"@openzeppelin/contracts/access/Ownable.sol\":2623:2714  if (newOwner == address(0)) {... */\n    tag_175:\n        /* \"@openzeppelin/contracts/access/Ownable.sol\":2723:2751  _transferOwnership(newOwner) */\n      tag_177\n        /* \"@openzeppelin/contracts/access/Ownable.sol\":2742:2750  newOwner */\n      dup2\n        /* \"@openzeppelin/contracts/access/Ownable.sol\":2723:2741  _transferOwnership */\n      tag_154\n        /* \"@openzeppelin/contracts/access/Ownable.sol\":2723:2751  _transferOwnership(newOwner) */\n      jump\t// in\n    tag_177:\n        /* \"@openzeppelin/contracts/access/Ownable.sol\":2543:2758  function transferOwnership(address newOwner) public virtual onlyOwner {... */\n      pop\n      jump\t// out\n        /* \"contracts/OptionBase.sol\":467:484  bool public isPut */\n    tag_116:\n      0x0c\n      0x00\n      swap1\n      sload\n      swap1\n      0x0100\n      exp\n      swap1\n      div\n      0xff\n      and\n      dup2\n      jump\t// out\n        /* \"contracts/OptionBase.sol\":2668:2834  function optionType() public view returns (string memory) {... */\n    tag_119:\n        /* \"contracts/OptionBase.sol\":2711:2724  string memory */\n      0x60\n        /* \"contracts/OptionBase.sol\":2740:2745  isPut */\n      0x0c\n      0x00\n      swap1\n      sload\n      swap1\n      0x0100\n      exp\n      swap1\n      div\n      0xff\n      and\n        /* \"contracts/OptionBase.sol\":2736:2828  if (isPut) {... */\n      iszero\n      tag_179\n      jumpi\n        /* \"contracts/OptionBase.sol\":2761:2773  return \"PUT\" */\n      mload(0x40)\n      dup1\n      0x40\n      add\n      0x40\n      mstore\n      dup1\n      0x03\n      dup2\n      mstore\n      0x20\n      add\n      0x5055540000000000000000000000000000000000000000000000000000000000\n      dup2\n      mstore\n      pop\n      swap1\n      pop\n      jump(tag_178)\n        /* \"contracts/OptionBase.sol\":2736:2828  if (isPut) {... */\n    tag_179:\n        /* \"contracts/OptionBase.sol\":2804:2817  return \"CALL\" */\n      mload(0x40)\n      dup1\n      0x40\n      add\n      0x40\n      mstore\n      dup1\n      0x04\n      dup2\n      mstore\n      0x20\n      add\n      0x43414c4c00000000000000000000000000000000000000000000000000000000\n      dup2\n      mstore\n      pop\n      swap1\n      pop\n        /* \"contracts/OptionBase.sol\":2668:2834  function optionType() public view returns (string memory) {... */\n    tag_178:\n      swap1\n      jump\t// out\n        /* \"@openzeppelin/contracts/utils/Context.sol\":656:752  function _msgSender() internal view virtual returns (address) {... */\n    tag_130:\n        /* \"@openzeppelin/contracts/utils/Context.sol\":709:716  address */\n      0x00\n        /* \"@openzeppelin/contracts/utils/Context.sol\":735:745  msg.sender */\n      caller\n        /* \"@openzeppelin/contracts/utils/Context.sol\":728:745  return msg.sender */\n      swap1\n      pop\n        /* \"@openzeppelin/contracts/utils/Context.sol\":656:752  function _msgSender() internal view virtual returns (address) {... */\n      swap1\n      jump\t// out\n        /* \"@openzeppelin/contracts/token/ERC20/ERC20.sol\":8726:8854  function _approve(address owner, address spender, uint256 value) internal {... */\n    tag_132:\n        /* \"@openzeppelin/contracts/token/ERC20/ERC20.sol\":8810:8847  _approve(owner, spender, value, true) */\n      tag_183\n        /* \"@openzeppelin/contracts/token/ERC20/ERC20.sol\":8819:8824  owner */\n      dup4\n        /* \"@openzeppelin/contracts/token/ERC20/ERC20.sol\":8826:8833  spender */\n      dup4\n        /* \"@openzeppelin/contracts/token/ERC20/ERC20.sol\":8835:8840  value */\n      dup4\n        /* \"@openzeppelin/contracts/token/ERC20/ERC20.sol\":8842:8846  true */\n      0x01\n        /* \"@openzeppelin/contracts/token/ERC20/ERC20.sol\":8810:8818  _approve */\n      tag_184\n        /* \"@openzeppelin/contracts/token/ERC20/ERC20.sol\":8810:8847  _approve(owner, spender, value, true) */\n      jump\t// in\n    tag_183:\n        /* \"@openzeppelin/contracts/token/ERC20/ERC20.sol\":8726:8854  function _approve(address owner, address spender, uint256 value) internal {... */\n      pop\n      pop\n      pop\n      jump\t// out\n        /* \"@openzeppelin/contracts/token/ERC20/ERC20.sol\":10415:10892  function _spendAllowance(address owner, address spender, uint256 value) internal virtual {... */\n    tag_143:\n        /* \"@openzeppelin/contracts/token/ERC20/ERC20.sol\":10514:10538  uint256 currentAllowance */\n      0x00\n        /* \"@openzeppelin/contracts/token/ERC20/ERC20.sol\":10541:10566  allowance(owner, spender) */\n      tag_186\n        /* \"@openzeppelin/contracts/token/ERC20/ERC20.sol\":10551:10556  owner */\n      dup5\n        /* \"@openzeppelin/contracts/token/ERC20/ERC20.sol\":10558:10565  spender */\n      dup5\n        /* \"@openzeppelin/contracts/token/ERC20/ERC20.sol\":10541:10550  allowance */\n      tag_110\n        /* \"@openzeppelin/contracts/token/ERC20/ERC20.sol\":10541:10566  allowance(owner, spender) */\n      jump\t// in\n    tag_186:\n        /* \"@openzeppelin/contracts/token/ERC20/ERC20.sol\":10514:10566  uint256 currentAllowance = allowance(owner, spender) */\n      swap1\n      pop\n        /* \"@openzeppelin/contracts/token/ERC20/ERC20.sol\":10600:10617  type(uint256).max */\n      0xffffffffffffffffffffffffffffffffffffffffffffffffffffffffffffffff\n        /* \"@openzeppelin/contracts/token/ERC20/ERC20.sol\":10580:10596  currentAllowance */\n      dup2\n        /* \"@openzeppelin/contracts/token/ERC20/ERC20.sol\":10580:10617  currentAllowance != type(uint256).max */\n      eq\n        /* \"@openzeppelin/contracts/token/ERC20/ERC20.sol\":10576:10886  if (currentAllowance != type(uint256).max) {... */\n      tag_187\n      jumpi\n        /* \"@openzeppelin/contracts/token/ERC20/ERC20.sol\":10656:10661  value */\n      dup2\n        /* \"@openzeppelin/contracts/token/ERC20/ERC20.sol\":10637:10653  currentAllowance */\n      dup2\n        /* \"@openzeppelin/contracts/token/ERC20/ERC20.sol\":10637:10661  currentAllowance < value */\n      lt\n        /* \"@openzeppelin/contracts/token/ERC20/ERC20.sol\":10633:10763  if (currentAllowance < value) {... */\n      iszero\n      tag_188\n      jumpi\n        /* \"@openzeppelin/contracts/token/ERC20/ERC20.sol\":10715:10722  spender */\n      dup3\n        /* \"@openzeppelin/contracts/token/ERC20/ERC20.sol\":10724:10740  currentAllowance */\n      dup2\n        /* \"@openzeppelin/contracts/token/ERC20/ERC20.sol\":10742:10747  value */\n      dup4\n        /* \"@openzeppelin/contracts/token/ERC20/ERC20.sol\":10688:10748  ERC20InsufficientAllowance(spender, currentAllowance, value) */\n      mload(0x40)\n      0xfb8f41b200000000000000000000000000000000000000000000000000000000\n      dup2\n      mstore\n      0x04\n      add\n      tag_189\n      swap4\n      swap3\n      swap2\n      swap1\n      tag_190\n      jump\t// in\n    tag_189:\n      mload(0x40)\n      dup1\n      swap2\n      sub\n      swap1\n      revert\n        /* \"@openzeppelin/contracts/token/ERC20/ERC20.sol\":10633:10763  if (currentAllowance < value) {... */\n    tag_188:\n        /* \"@openzeppelin/contracts/token/ERC20/ERC20.sol\":10804:10861  _approve(owner, spender, currentAllowance - value, false) */\n      tag_191\n        /* \"@openzeppelin/contracts/token/ERC20/ERC20.sol\":10813:10818  owner */\n      dup5\n        /* \"@openzeppelin/contracts/token/ERC20/ERC20.sol\":10820:10827  spender */\n      dup5\n        /* \"@openzeppelin/contracts/token/ERC20/ERC20.sol\":10848:10853  value */\n      dup5\n        /* \"@openzeppelin/contracts/token/ERC20/ERC20.sol\":10829:10845  currentAllowance */\n      dup5\n        /* \"@openzeppelin/contracts/token/ERC20/ERC20.sol\":10829:10853  currentAllowance - value */\n      sub\n        /* \"@openzeppelin/contracts/token/ERC20/ERC20.sol\":10855:10860  false */\n      0x00\n        /* \"@openzeppelin/contracts/token/ERC20/ERC20.sol\":10804:10812  _approve */\n      tag_184\n        /* \"@openzeppelin/contracts/token/ERC20/ERC20.sol\":10804:10861  _approve(owner, spender, currentAllowance - value, false) */\n      jump\t// in\n    tag_191:\n        /* \"@openzeppelin/contracts/token/ERC20/ERC20.sol\":10576:10886  if (currentAllowance != type(uint256).max) {... */\n    tag_187:\n        /* \"@openzeppelin/contracts/token/ERC20/ERC20.sol\":10504:10892  {... */\n      pop\n        /* \"@openzeppelin/contracts/token/ERC20/ERC20.sol\":10415:10892  function _spendAllowance(address owner, address spender, uint256 value) internal virtual {... */\n      pop\n      pop\n      pop\n      jump\t// out\n        /* \"@openzeppelin/contracts/token/ERC20/ERC20.sol\":5393:5693  function _transfer(address from, address to, uint256 value) internal {... */\n    tag_145:\n        /* \"@openzeppelin/contracts/token/ERC20/ERC20.sol\":5492:5493  0 */\n      0x00\n        /* \"@openzeppelin/contracts/token/ERC20/ERC20.sol\":5476:5494  from == address(0) */\n      0xffffffffffffffffffffffffffffffffffffffff\n      and\n        /* \"@openzeppelin/contracts/token/ERC20/ERC20.sol\":5476:5480  from */\n      dup4\n        /* \"@openzeppelin/contracts/token/ERC20/ERC20.sol\":5476:5494  from == address(0) */\n      0xffffffffffffffffffffffffffffffffffffffff\n      and\n      sub\n        /* \"@openzeppelin/contracts/token/ERC20/ERC20.sol\":5472:5558  if (from == address(0)) {... */\n      tag_193\n      jumpi\n        /* \"@openzeppelin/contracts/token/ERC20/ERC20.sol\":5544:5545  0 */\n      0x00\n        /* \"@openzeppelin/contracts/token/ERC20/ERC20.sol\":5517:5547  ERC20InvalidSender(address(0)) */\n      mload(0x40)\n      0x96c6fd1e00000000000000000000000000000000000000000000000000000000\n      dup2\n      mstore\n      0x04\n      add\n      tag_194\n      swap2\n      swap1\n      tag_64\n      jump\t// in\n    tag_194:\n      mload(0x40)\n      dup1\n      swap2\n      sub\n      swap1\n      revert\n        /* \"@openzeppelin/contracts/token/ERC20/ERC20.sol\":5472:5558  if (from == address(0)) {... */\n    tag_193:\n        /* \"@openzeppelin/contracts/token/ERC20/ERC20.sol\":5585:5586  0 */\n      0x00\n        /* \"@openzeppelin/contracts/token/ERC20/ERC20.sol\":5571:5587  to == address(0) */\n      0xffffffffffffffffffffffffffffffffffffffff\n      and\n        /* \"@openzeppelin/contracts/token/ERC20/ERC20.sol\":5571:5573  to */\n      dup3\n        /* \"@openzeppelin/contracts/token/ERC20/ERC20.sol\":5571:5587  to == address(0) */\n      0xffffffffffffffffffffffffffffffffffffffff\n      and\n      sub\n        /* \"@openzeppelin/contracts/token/ERC20/ERC20.sol\":5567:5653  if (to == address(0)) {... */\n      tag_195\n      jumpi\n        /* \"@openzeppelin/contracts/token/ERC20/ERC20.sol\":5639:5640  0 */\n      0x00\n        /* \"@openzeppelin/contracts/token/ERC20/ERC20.sol\":5610:5642  ERC20InvalidReceiver(address(0)) */\n      mload(0x40)\n      0xec442f0500000000000000000000000000000000000000000000000000000000\n      dup2\n      mstore\n      0x04\n      add\n      tag_196\n      swap2\n      swap1\n      tag_64\n      jump\t// in\n    tag_196:\n      mload(0x40)\n      dup1\n      swap2\n      sub\n      swap1\n      revert\n        /* \"@openzeppelin/contracts/token/ERC20/ERC20.sol\":5567:5653  if (to == address(0)) {... */\n    tag_195:\n        /* \"@openzeppelin/contracts/token/ERC20/ERC20.sol\":5662:5686  _update(from, to, value) */\n      tag_197\n        /* \"@openzeppelin/contracts/token/ERC20/ERC20.sol\":5670:5674  from */\n      dup4\n        /* \"@openzeppelin/contracts/token/ERC20/ERC20.sol\":5676:5678  to */\n      dup4\n        /* \"@openzeppelin/contracts/token/ERC20/ERC20.sol\":5680:5685  value */\n      dup4\n        /* \"@openzeppelin/contracts/token/ERC20/ERC20.sol\":5662:5669  _update */\n      tag_198\n        /* \"@openzeppelin/contracts/token/ERC20/ERC20.sol\":5662:5686  _update(from, to, value) */\n      jump\t// in\n    tag_197:\n        /* \"@openzeppelin/contracts/token/ERC20/ERC20.sol\":5393:5693  function _transfer(address from, address to, uint256 value) internal {... */\n      pop\n      pop\n      pop\n      jump\t// out\n        /* \"@openzeppelin/contracts/access/Ownable.sol\":1796:1958  function _checkOwner() internal view virtual {... */\n    tag_151:\n        /* \"@openzeppelin/contracts/access/Ownable.sol\":1866:1878  _msgSender() */\n      tag_200\n        /* \"@openzeppelin/contracts/access/Ownable.sol\":1866:1876  _msgSender */\n      tag_130\n        /* \"@openzeppelin/contracts/access/Ownable.sol\":1866:1878  _msgSender() */\n      jump\t// in\n    tag_200:\n        /* \"@openzeppelin/contracts/access/Ownable.sol\":1855:1878  owner() != _msgSender() */\n      0xffffffffffffffffffffffffffffffffffffffff\n      and\n        /* \"@openzeppelin/contracts/access/Ownable.sol\":1855:1862  owner() */\n      tag_201\n        /* \"@openzeppelin/contracts/access/Ownable.sol\":1855:1860  owner */\n      tag_77\n        /* \"@openzeppelin/contracts/access/Ownable.sol\":1855:1862  owner() */\n      jump\t// in\n    tag_201:\n        /* \"@openzeppelin/contracts/access/Ownable.sol\":1855:1878  owner() != _msgSender() */\n      0xffffffffffffffffffffffffffffffffffffffff\n      and\n      eq\n        /* \"@openzeppelin/contracts/access/Ownable.sol\":1851:1952  if (owner() != _msgSender()) {... */\n      tag_202\n      jumpi\n        /* \"@openzeppelin/contracts/access/Ownable.sol\":1928:1940  _msgSender() */\n      tag_203\n        /* \"@openzeppelin/contracts/access/Ownable.sol\":1928:1938  _msgSender */\n      tag_130\n        /* \"@openzeppelin/contracts/access/Ownable.sol\":1928:1940  _msgSender() */\n      jump\t// in\n    tag_203:\n        /* \"@openzeppelin/contracts/access/Ownable.sol\":1901:1941  OwnableUnauthorizedAccount(_msgSender()) */\n      mload(0x40)\n      0x118cdaa700000000000000000000000000000000000000000000000000000000\n      dup2\n      mstore\n      0x04\n      add\n      tag_204\n      swap2\n      swap1\n      tag_64\n      jump\t// in\n    tag_204:\n      mload(0x40)\n      dup1\n      swap2\n      sub\n      swap1\n      revert\n        /* \"@openzeppelin/contracts/access/Ownable.sol\":1851:1952  if (owner() != _msgSender()) {... */\n    tag_202:\n        /* \"@openzeppelin/contracts/access/Ownable.sol\":1796:1958  function _checkOwner() internal view virtual {... */\n      jump\t// out\n        /* \"@openzeppelin/contracts/access/Ownable.sol\":2912:3099  function _transferOwnership(address newOwner) internal virtual {... */\n    tag_154:\n        /* \"@openzeppelin/contracts/access/Ownable.sol\":2985:3001  address oldOwner */\n      0x00\n        /* \"@openzeppelin/contracts/access/Ownable.sol\":3004:3010  _owner */\n      0x05\n      0x00\n      swap1\n      sload\n      swap1\n      0x0100\n      exp\n      swap1\n      div\n      0xffffffffffffffffffffffffffffffffffffffff\n      and\n        /* \"@openzeppelin/contracts/access/Ownable.sol\":2985:3010  address oldOwner = _owner */\n      swap1\n      pop\n        /* \"@openzeppelin/contracts/access/Ownable.sol\":3029:3037  newOwner */\n      dup2\n        /* \"@openzeppelin/contracts/access/Ownable.sol\":3020:3026  _owner */\n      0x05\n      0x00\n        /* \"@openzeppelin/contracts/access/Ownable.sol\":3020:3037  _owner = newOwner */\n      0x0100\n      exp\n      dup2\n      sload\n      dup2\n      0xffffffffffffffffffffffffffffffffffffffff\n      mul\n      not\n      and\n      swap1\n      dup4\n      0xffffffffffffffffffffffffffffffffffffffff\n      and\n      mul\n      or\n      swap1\n      sstore\n      pop\n        /* \"@openzeppelin/contracts/access/Ownable.sol\":3083:3091  newOwner */\n      dup2\n        /* \"@openzeppelin/contracts/access/Ownable.sol\":3052:3092  OwnershipTransferred(oldOwner, newOwner) */\n      0xffffffffffffffffffffffffffffffffffffffff\n      and\n        /* \"@openzeppelin/contracts/access/Ownable.sol\":3073:3081  oldOwner */\n      dup2\n        /* \"@openzeppelin/contracts/access/Ownable.sol\":3052:3092  OwnershipTransferred(oldOwner, newOwner) */\n      0xffffffffffffffffffffffffffffffffffffffff\n      and\n      0x8be0079c531659141344cd1fd0a4f28419497f9722a3daafe3b4186f6b6457e0\n      mload(0x40)\n      mload(0x40)\n      dup1\n      swap2\n      sub\n      swap1\n      log3\n        /* \"@openzeppelin/contracts/access/Ownable.sol\":2975:3099  {... */\n      pop\n        /* \"@openzeppelin/contracts/access/Ownable.sol\":2912:3099  function _transferOwnership(address newOwner) internal virtual {... */\n      pop\n      jump\t// out\n        /* \"@openzeppelin/contracts/token/ERC20/ERC20.sol\":9701:10133  function _approve(address owner, address spender, uint256 value, bool emitEvent) internal virtual {... */\n    tag_184:\n        /* \"@openzeppelin/contracts/token/ERC20/ERC20.sol\":9830:9831  0 */\n      0x00\n        /* \"@openzeppelin/contracts/token/ERC20/ERC20.sol\":9813:9832  owner == address(0) */\n      0xffffffffffffffffffffffffffffffffffffffff\n      and\n        /* \"@openzeppelin/contracts/token/ERC20/ERC20.sol\":9813:9818  owner */\n      dup5\n        /* \"@openzeppelin/contracts/token/ERC20/ERC20.sol\":9813:9832  owner == address(0) */\n      0xffffffffffffffffffffffffffffffffffffffff\n      and\n      sub\n        /* \"@openzeppelin/contracts/token/ERC20/ERC20.sol\":9809:9898  if (owner == address(0)) {... */\n      tag_207\n      jumpi\n        /* \"@openzeppelin/contracts/token/ERC20/ERC20.sol\":9884:9885  0 */\n      0x00\n        /* \"@openzeppelin/contracts/token/ERC20/ERC20.sol\":9855:9887  ERC20InvalidApprover(address(0)) */\n      mload(0x40)\n      0xe602df0500000000000000000000000000000000000000000000000000000000\n      dup2\n      mstore\n      0x04\n      add\n      tag_208\n      swap2\n      swap1\n      tag_64\n      jump\t// in\n    tag_208:\n      mload(0x40)\n      dup1\n      swap2\n      sub\n      swap1\n      revert\n        /* \"@openzeppelin/contracts/token/ERC20/ERC20.sol\":9809:9898  if (owner == address(0)) {... */\n    tag_207:\n        /* \"@openzeppelin/contracts/token/ERC20/ERC20.sol\":9930:9931  0 */\n      0x00\n        /* \"@openzeppelin/contracts/token/ERC20/ERC20.sol\":9911:9932  spender == address(0) */\n      0xffffffffffffffffffffffffffffffffffffffff\n      and\n        /* \"@openzeppelin/contracts/token/ERC20/ERC20.sol\":9911:9918  spender */\n      dup4\n        /* \"@openzeppelin/contracts/token/ERC20/ERC20.sol\":9911:9932  spender == address(0) */\n      0xffffffffffffffffffffffffffffffffffffffff\n      and\n      sub\n        /* \"@openzeppelin/contracts/token/ERC20/ERC20.sol\":9907:9997  if (spender == address(0)) {... */\n      tag_209\n      jumpi\n        /* \"@openzeppelin/contracts/token/ERC20/ERC20.sol\":9983:9984  0 */\n      0x00\n        /* \"@openzeppelin/contracts/token/ERC20/ERC20.sol\":9955:9986  ERC20InvalidSpender(address(0)) */\n      mload(0x40)\n      0x94280d6200000000000000000000000000000000000000000000000000000000\n      dup2\n      mstore\n      0x04\n      add\n      tag_210\n      swap2\n      swap1\n      tag_64\n      jump\t// in\n    tag_210:\n      mload(0x40)\n      dup1\n      swap2\n      sub\n      swap1\n      revert\n        /* \"@openzeppelin/contracts/token/ERC20/ERC20.sol\":9907:9997  if (spender == address(0)) {... */\n    tag_209:\n        /* \"@openzeppelin/contracts/token/ERC20/ERC20.sol\":10036:10041  value */\n      dup2\n        /* \"@openzeppelin/contracts/token/ERC20/ERC20.sol\":10006:10017  _allowances */\n      0x01\n        /* \"@openzeppelin/contracts/token/ERC20/ERC20.sol\":10006:10024  _allowances[owner] */\n      0x00\n        /* \"@openzeppelin/contracts/token/ERC20/ERC20.sol\":10018:10023  owner */\n      dup7\n        /* \"@openzeppelin/contracts/token/ERC20/ERC20.sol\":10006:10024  _allowances[owner] */\n      0xffffffffffffffffffffffffffffffffffffffff\n      and\n      0xffffffffffffffffffffffffffffffffffffffff\n      and\n      dup2\n      mstore\n      0x20\n      add\n      swap1\n      dup2\n      mstore\n      0x20\n      add\n      0x00\n      keccak256\n        /* \"@openzeppelin/contracts/token/ERC20/ERC20.sol\":10006:10033  _allowances[owner][spender] */\n      0x00\n        /* \"@openzeppelin/contracts/token/ERC20/ERC20.sol\":10025:10032  spender */\n      dup6\n        /* \"@openzeppelin/contracts/token/ERC20/ERC20.sol\":10006:10033  _allowances[owner][spender] */\n      0xffffffffffffffffffffffffffffffffffffffff\n      and\n      0xffffffffffffffffffffffffffffffffffffffff\n      and\n      dup2\n      mstore\n      0x20\n      add\n      swap1\n      dup2\n      mstore\n      0x20\n      add\n      0x00\n      keccak256\n        /* \"@openzeppelin/contracts/token/ERC20/ERC20.sol\":10006:10041  _allowances[owner][spender] = value */\n      dup2\n      swap1\n      sstore\n      pop\n        /* \"@openzeppelin/contracts/token/ERC20/ERC20.sol\":10055:10064  emitEvent */\n      dup1\n        /* \"@openzeppelin/contracts/token/ERC20/ERC20.sol\":10051:10127  if (emitEvent) {... */\n      iszero\n      tag_211\n      jumpi\n        /* \"@openzeppelin/contracts/token/ERC20/ERC20.sol\":10101:10108  spender */\n      dup3\n        /* \"@openzeppelin/contracts/token/ERC20/ERC20.sol\":10085:10116  Approval(owner, spender, value) */\n      0xffffffffffffffffffffffffffffffffffffffff\n      and\n        /* \"@openzeppelin/contracts/token/ERC20/ERC20.sol\":10094:10099  owner */\n      dup5\n        /* \"@openzeppelin/contracts/token/ERC20/ERC20.sol\":10085:10116  Approval(owner, spender, value) */\n      0xffffffffffffffffffffffffffffffffffffffff\n      and\n      0x8c5be1e5ebec7d5bd14f71427d1e84f3dd0314c0f7b2291e5b200ac8c7c3b925\n        /* \"@openzeppelin/contracts/token/ERC20/ERC20.sol\":10110:10115  value */\n      dup5\n        /* \"@openzeppelin/contracts/token/ERC20/ERC20.sol\":10085:10116  Approval(owner, spender, value) */\n      mload(0x40)\n      tag_212\n      swap2\n      swap1\n      tag_45\n      jump\t// in\n    tag_212:\n      mload(0x40)\n      dup1\n      swap2\n      sub\n      swap1\n      log3\n        /* \"@openzeppelin/contracts/token/ERC20/ERC20.sol\":10051:10127  if (emitEvent) {... */\n    tag_211:\n        /* \"@openzeppelin/contracts/token/ERC20/ERC20.sol\":9701:10133  function _approve(address owner, address spender, uint256 value, bool emitEvent) internal virtual {... */\n      pop\n      pop\n      pop\n      pop\n      jump\t// out\n        /* \"@openzeppelin/contracts/token/ERC20/ERC20.sol\":6008:7115  function _update(address from, address to, uint256 value) internal virtual {... */\n    tag_198:\n        /* \"@openzeppelin/contracts/token/ERC20/ERC20.sol\":6113:6114  0 */\n      0x00\n        /* \"@openzeppelin/contracts/token/ERC20/ERC20.sol\":6097:6115  from == address(0) */\n      0xffffffffffffffffffffffffffffffffffffffff\n      and\n        /* \"@openzeppelin/contracts/token/ERC20/ERC20.sol\":6097:6101  from */\n      dup4\n        /* \"@openzeppelin/contracts/token/ERC20/ERC20.sol\":6097:6115  from == address(0) */\n      0xffffffffffffffffffffffffffffffffffffffff\n      and\n      sub\n        /* \"@openzeppelin/contracts/token/ERC20/ERC20.sol\":6093:6633  if (from == address(0)) {... */\n      tag_214\n      jumpi\n        /* \"@openzeppelin/contracts/token/ERC20/ERC20.sol\":6249:6254  value */\n      dup1\n        /* \"@openzeppelin/contracts/token/ERC20/ERC20.sol\":6233:6245  _totalSupply */\n      0x02\n      0x00\n        /* \"@openzeppelin/contracts/token/ERC20/ERC20.sol\":6233:6254  _totalSupply += value */\n      dup3\n      dup3\n      sload\n      tag_215\n      swap2\n      swap1\n      tag_216\n      jump\t// in\n    tag_215:\n      swap3\n      pop\n      pop\n      dup2\n      swap1\n      sstore\n      pop\n        /* \"@openzeppelin/contracts/token/ERC20/ERC20.sol\":6093:6633  if (from == address(0)) {... */\n      jump(tag_217)\n    tag_214:\n        /* \"@openzeppelin/contracts/token/ERC20/ERC20.sol\":6285:6304  uint256 fromBalance */\n      0x00\n        /* \"@openzeppelin/contracts/token/ERC20/ERC20.sol\":6307:6316  _balances */\n      dup1\n        /* \"@openzeppelin/contracts/token/ERC20/ERC20.sol\":6307:6322  _balances[from] */\n      0x00\n        /* \"@openzeppelin/contracts/token/ERC20/ERC20.sol\":6317:6321  from */\n      dup6\n        /* \"@openzeppelin/contracts/token/ERC20/ERC20.sol\":6307:6322  _balances[from] */\n      0xffffffffffffffffffffffffffffffffffffffff\n      and\n      0xffffffffffffffffffffffffffffffffffffffff\n      and\n      dup2\n      mstore\n      0x20\n      add\n      swap1\n      dup2\n      mstore\n      0x20\n      add\n      0x00\n      keccak256\n      sload\n        /* \"@openzeppelin/contracts/token/ERC20/ERC20.sol\":6285:6322  uint256 fromBalance = _balances[from] */\n      swap1\n      pop\n        /* \"@openzeppelin/contracts/token/ERC20/ERC20.sol\":6354:6359  value */\n      dup2\n        /* \"@openzeppelin/contracts/token/ERC20/ERC20.sol\":6340:6351  fromBalance */\n      dup2\n        /* \"@openzeppelin/contracts/token/ERC20/ERC20.sol\":6340:6359  fromBalance < value */\n      lt\n        /* \"@openzeppelin/contracts/token/ERC20/ERC20.sol\":6336:6451  if (fromBalance < value) {... */\n      iszero\n      tag_218\n      jumpi\n        /* \"@openzeppelin/contracts/token/ERC20/ERC20.sol\":6411:6415  from */\n      dup4\n        /* \"@openzeppelin/contracts/token/ERC20/ERC20.sol\":6417:6428  fromBalance */\n      dup2\n        /* \"@openzeppelin/contracts/token/ERC20/ERC20.sol\":6430:6435  value */\n      dup4\n        /* \"@openzeppelin/contracts/token/ERC20/ERC20.sol\":6386:6436  ERC20InsufficientBalance(from, fromBalance, value) */\n      mload(0x40)\n      0xe450d38c00000000000000000000000000000000000000000000000000000000\n      dup2\n      mstore\n      0x04\n      add\n      tag_219\n      swap4\n      swap3\n      swap2\n      swap1\n      tag_190\n      jump\t// in\n    tag_219:\n      mload(0x40)\n      dup1\n      swap2\n      sub\n      swap1\n      revert\n        /* \"@openzeppelin/contracts/token/ERC20/ERC20.sol\":6336:6451  if (fromBalance < value) {... */\n    tag_218:\n        /* \"@openzeppelin/contracts/token/ERC20/ERC20.sol\":6603:6608  value */\n      dup2\n        /* \"@openzeppelin/contracts/token/ERC20/ERC20.sol\":6589:6600  fromBalance */\n      dup2\n        /* \"@openzeppelin/contracts/token/ERC20/ERC20.sol\":6589:6608  fromBalance - value */\n      sub\n        /* \"@openzeppelin/contracts/token/ERC20/ERC20.sol\":6571:6580  _balances */\n      0x00\n        /* \"@openzeppelin/contracts/token/ERC20/ERC20.sol\":6571:6586  _balances[from] */\n      dup1\n        /* \"@openzeppelin/contracts/token/ERC20/ERC20.sol\":6581:6585  from */\n      dup7\n        /* \"@openzeppelin/contracts/token/ERC20/ERC20.sol\":6571:6586  _balances[from] */\n      0xffffffffffffffffffffffffffffffffffffffff\n      and\n      0xffffffffffffffffffffffffffffffffffffffff\n      and\n      dup2\n      mstore\n      0x20\n      add\n      swap1\n      dup2\n      mstore\n      0x20\n      add\n      0x00\n      keccak256\n        /* \"@openzeppelin/contracts/token/ERC20/ERC20.sol\":6571:6608  _balances[from] = fromBalance - value */\n      dup2\n      swap1\n      sstore\n      pop\n        /* \"@openzeppelin/contracts/token/ERC20/ERC20.sol\":6271:6633  {... */\n      pop\n        /* \"@openzeppelin/contracts/token/ERC20/ERC20.sol\":6093:6633  if (from == address(0)) {... */\n    tag_217:\n        /* \"@openzeppelin/contracts/token/ERC20/ERC20.sol\":6661:6662  0 */\n      0x00\n        /* \"@openzeppelin/contracts/token/ERC20/ERC20.sol\":6647:6663  to == address(0) */\n      0xffffffffffffffffffffffffffffffffffffffff\n      and\n        /* \"@openzeppelin/contracts/token/ERC20/ERC20.sol\":6647:6649  to */\n      dup3\n        /* \"@openzeppelin/contracts/token/ERC20/ERC20.sol\":6647:6663  to == address(0) */\n      0xffffffffffffffffffffffffffffffffffffffff\n      and\n      sub\n        /* \"@openzeppelin/contracts/token/ERC20/ERC20.sol\":6643:7068  if (to == address(0)) {... */\n      tag_220\n      jumpi\n        /* \"@openzeppelin/contracts/token/ERC20/ERC20.sol\":6826:6831  value */\n      dup1\n        /* \"@openzeppelin/contracts/token/ERC20/ERC20.sol\":6810:6822  _totalSupply */\n      0x02\n      0x00\n        /* \"@openzeppelin/contracts/token/ERC20/ERC20.sol\":6810:6831  _totalSupply -= value */\n      dup3\n      dup3\n      sload\n      sub\n      swap3\n      pop\n      pop\n      dup2\n      swap1\n      sstore\n      pop\n        /* \"@openzeppelin/contracts/token/ERC20/ERC20.sol\":6643:7068  if (to == address(0)) {... */\n      jump(tag_221)\n    tag_220:\n        /* \"@openzeppelin/contracts/token/ERC20/ERC20.sol\":7038:7043  value */\n      dup1\n        /* \"@openzeppelin/contracts/token/ERC20/ERC20.sol\":7021:7030  _balances */\n      0x00\n        /* \"@openzeppelin/contracts/token/ERC20/ERC20.sol\":7021:7034  _balances[to] */\n      dup1\n        /* \"@openzeppelin/contracts/token/ERC20/ERC20.sol\":7031:7033  to */\n      dup5\n        /* \"@openzeppelin/contracts/token/ERC20/ERC20.sol\":7021:7034  _balances[to] */\n      0xffffffffffffffffffffffffffffffffffffffff\n      and\n      0xffffffffffffffffffffffffffffffffffffffff\n      and\n      dup2\n      mstore\n      0x20\n      add\n      swap1\n      dup2\n      mstore\n      0x20\n      add\n      0x00\n      keccak256\n      0x00\n        /* \"@openzeppelin/contracts/token/ERC20/ERC20.sol\":7021:7043  _balances[to] += value */\n      dup3\n      dup3\n      sload\n      add\n      swap3\n      pop\n      pop\n      dup2\n      swap1\n      sstore\n      pop\n        /* \"@openzeppelin/contracts/token/ERC20/ERC20.sol\":6643:7068  if (to == address(0)) {... */\n    tag_221:\n        /* \"@openzeppelin/contracts/token/ERC20/ERC20.sol\":7098:7100  to */\n      dup2\n        /* \"@openzeppelin/contracts/token/ERC20/ERC20.sol\":7083:7108  Transfer(from, to, value) */\n      0xffffffffffffffffffffffffffffffffffffffff\n      and\n        /* \"@openzeppelin/contracts/token/ERC20/ERC20.sol\":7092:7096  from */\n      dup4\n        /* \"@openzeppelin/contracts/token/ERC20/ERC20.sol\":7083:7108  Transfer(from, to, value) */\n      0xffffffffffffffffffffffffffffffffffffffff\n      and\n      0xddf252ad1be2c89b69c2b068fc378daa952ba7f163c4a11628f55a4df523b3ef\n        /* \"@openzeppelin/contracts/token/ERC20/ERC20.sol\":7102:7107  value */\n      dup4\n        /* \"@openzeppelin/contracts/token/ERC20/ERC20.sol\":7083:7108  Transfer(from, to, value) */\n      mload(0x40)\n      tag_222\n      swap2\n      swap1\n      tag_45\n      jump\t// in\n    tag_222:\n      mload(0x40)\n      dup1\n      swap2\n      sub\n      swap1\n      log3\n        /* \"@openzeppelin/contracts/token/ERC20/ERC20.sol\":6008:7115  function _update(address from, address to, uint256 value) internal virtual {... */\n      pop\n      pop\n      pop\n      jump\t// out\n        /* \"#utility.yul\":7:106   */\n    tag_223:\n        /* \"#utility.yul\":59:65   */\n      0x00\n        /* \"#utility.yul\":93:98   */\n      dup2\n        /* \"#utility.yul\":87:99   */\n      mload\n        /* \"#utility.yul\":77:99   */\n      swap1\n      pop\n        /* \"#utility.yul\":7:106   */\n      swap2\n      swap1\n      pop\n      jump\t// out\n        /* \"#utility.yul\":112:281   */\n    tag_224:\n        /* \"#utility.yul\":196:207   */\n      0x00\n        /* \"#utility.yul\":230:236   */\n      dup3\n        /* \"#utility.yul\":225:228   */\n      dup3\n        /* \"#utility.yul\":218:237   */\n      mstore\n        /* \"#utility.yul\":270:274   */\n      0x20\n        /* \"#utility.yul\":265:268   */\n      dup3\n        /* \"#utility.yul\":261:275   */\n      add\n        /* \"#utility.yul\":246:275   */\n      swap1\n      pop\n        /* \"#utility.yul\":112:281   */\n      swap3\n      swap2\n      pop\n      pop\n      jump\t// out\n        /* \"#utility.yul\":287:533   */\n    tag_225:\n        /* \"#utility.yul\":368:369   */\n      0x00\n        /* \"#utility.yul\":378:491   */\n    tag_256:\n        /* \"#utility.yul\":392:398   */\n      dup4\n        /* \"#utility.yul\":389:390   */\n      dup2\n        /* \"#utility.yul\":386:399   */\n      lt\n        /* \"#utility.yul\":378:491   */\n      iszero\n      tag_258\n      jumpi\n        /* \"#utility.yul\":477:478   */\n      dup1\n        /* \"#utility.yul\":472:475   */\n      dup3\n        /* \"#utility.yul\":468:479   */\n      add\n        /* \"#utility.yul\":462:480   */\n      mload\n        /* \"#utility.yul\":458:459   */\n      dup2\n        /* \"#utility.yul\":453:456   */\n      dup5\n        /* \"#utility.yul\":449:460   */\n      add\n        /* \"#utility.yul\":442:481   */\n      mstore\n        /* \"#utility.yul\":414:416   */\n      0x20\n        /* \"#utility.yul\":411:412   */\n      dup2\n        /* \"#utility.yul\":407:417   */\n      add\n        /* \"#utility.yul\":402:417   */\n      swap1\n      pop\n        /* \"#utility.yul\":378:491   */\n      jump(tag_256)\n    tag_258:\n        /* \"#utility.yul\":525:526   */\n      0x00\n        /* \"#utility.yul\":516:522   */\n      dup5\n        /* \"#utility.yul\":511:514   */\n      dup5\n        /* \"#utility.yul\":507:523   */\n      add\n        /* \"#utility.yul\":500:527   */\n      mstore\n        /* \"#utility.yul\":349:533   */\n      pop\n        /* \"#utility.yul\":287:533   */\n      pop\n      pop\n      pop\n      jump\t// out\n        /* \"#utility.yul\":539:641   */\n    tag_226:\n        /* \"#utility.yul\":580:586   */\n      0x00\n        /* \"#utility.yul\":631:633   */\n      0x1f\n        /* \"#utility.yul\":627:634   */\n      not\n        /* \"#utility.yul\":622:624   */\n      0x1f\n        /* \"#utility.yul\":615:620   */\n      dup4\n        /* \"#utility.yul\":611:625   */\n      add\n        /* \"#utility.yul\":607:635   */\n      and\n        /* \"#utility.yul\":597:635   */\n      swap1\n      pop\n        /* \"#utility.yul\":539:641   */\n      swap2\n      swap1\n      pop\n      jump\t// out\n        /* \"#utility.yul\":647:1024   */\n    tag_227:\n        /* \"#utility.yul\":735:738   */\n      0x00\n        /* \"#utility.yul\":763:802   */\n      tag_261\n        /* \"#utility.yul\":796:801   */\n      dup3\n        /* \"#utility.yul\":763:802   */\n      tag_223\n      jump\t// in\n    tag_261:\n        /* \"#utility.yul\":818:889   */\n      tag_262\n        /* \"#utility.yul\":882:888   */\n      dup2\n        /* \"#utility.yul\":877:880   */\n      dup6\n        /* \"#utility.yul\":818:889   */\n      tag_224\n      jump\t// in\n    tag_262:\n        /* \"#utility.yul\":811:889   */\n      swap4\n      pop\n        /* \"#utility.yul\":898:963   */\n      tag_263\n        /* \"#utility.yul\":956:962   */\n      dup2\n        /* \"#utility.yul\":951:954   */\n      dup6\n        /* \"#utility.yul\":944:948   */\n      0x20\n        /* \"#utility.yul\":937:942   */\n      dup7\n        /* \"#utility.yul\":933:949   */\n      add\n        /* \"#utility.yul\":898:963   */\n      tag_225\n      jump\t// in\n    tag_263:\n        /* \"#utility.yul\":988:1017   */\n      tag_264\n        /* \"#utility.yul\":1010:1016   */\n      dup2\n        /* \"#utility.yul\":988:1017   */\n      tag_226\n      jump\t// in\n    tag_264:\n        /* \"#utility.yul\":983:986   */\n      dup5\n        /* \"#utility.yul\":979:1018   */\n      add\n        /* \"#utility.yul\":972:1018   */\n      swap2\n      pop\n        /* \"#utility.yul\":739:1024   */\n      pop\n        /* \"#utility.yul\":647:1024   */\n      swap3\n      swap2\n      pop\n      pop\n      jump\t// out\n        /* \"#utility.yul\":1030:1343   */\n    tag_35:\n        /* \"#utility.yul\":1143:1147   */\n      0x00\n        /* \"#utility.yul\":1181:1183   */\n      0x20\n        /* \"#utility.yul\":1170:1179   */\n      dup3\n        /* \"#utility.yul\":1166:1184   */\n      add\n        /* \"#utility.yul\":1158:1184   */\n      swap1\n      pop\n        /* \"#utility.yul\":1230:1239   */\n      dup2\n        /* \"#utility.yul\":1224:1228   */\n      dup2\n        /* \"#utility.yul\":1220:1240   */\n      sub\n        /* \"#utility.yul\":1216:1217   */\n      0x00\n        /* \"#utility.yul\":1205:1214   */\n      dup4\n        /* \"#utility.yul\":1201:1218   */\n      add\n        /* \"#utility.yul\":1194:1241   */\n      mstore\n        /* \"#utility.yul\":1258:1336   */\n      tag_266\n        /* \"#utility.yul\":1331:1335   */\n      dup2\n        /* \"#utility.yul\":1322:1328   */\n      dup5\n        /* \"#utility.yul\":1258:1336   */\n      tag_227\n      jump\t// in\n    tag_266:\n        /* \"#utility.yul\":1250:1336   */\n      swap1\n      pop\n        /* \"#utility.yul\":1030:1343   */\n      swap3\n      swap2\n      pop\n      pop\n      jump\t// out\n        /* \"#utility.yul\":1430:1547   */\n    tag_229:\n        /* \"#utility.yul\":1539:1540   */\n      0x00\n        /* \"#utility.yul\":1536:1537   */\n      dup1\n        /* \"#utility.yul\":1529:1541   */\n      revert\n        /* \"#utility.yul\":1676:1802   */\n    tag_231:\n        /* \"#utility.yul\":1713:1720   */\n      0x00\n        /* \"#utility.yul\":1753:1795   */\n      0xffffffffffffffffffffffffffffffffffffffff\n        /* \"#utility.yul\":1746:1751   */\n      dup3\n        /* \"#utility.yul\":1742:1796   */\n      and\n        /* \"#utility.yul\":1731:1796   */\n      swap1\n      pop\n        /* \"#utility.yul\":1676:1802   */\n      swap2\n      swap1\n      pop\n      jump\t// out\n        /* \"#utility.yul\":1808:1904   */\n    tag_232:\n        /* \"#utility.yul\":1845:1852   */\n      0x00\n        /* \"#utility.yul\":1874:1898   */\n      tag_272\n        /* \"#utility.yul\":1892:1897   */\n      dup3\n        /* \"#utility.yul\":1874:1898   */\n      tag_231\n      jump\t// in\n    tag_272:\n        /* \"#utility.yul\":1863:1898   */\n      swap1\n      pop\n        /* \"#utility.yul\":1808:1904   */\n      swap2\n      swap1\n      pop\n      jump\t// out\n        /* \"#utility.yul\":1910:2032   */\n    tag_233:\n        /* \"#utility.yul\":1983:2007   */\n      tag_274\n        /* \"#utility.yul\":2001:2006   */\n      dup2\n        /* \"#utility.yul\":1983:2007   */\n      tag_232\n      jump\t// in\n    tag_274:\n        /* \"#utility.yul\":1976:1981   */\n      dup2\n        /* \"#utility.yul\":1973:2008   */\n      eq\n        /* \"#utility.yul\":1963:2026   */\n      tag_275\n      jumpi\n        /* \"#utility.yul\":2022:2023   */\n      0x00\n        /* \"#utility.yul\":2019:2020   */\n      dup1\n        /* \"#utility.yul\":2012:2024   */\n      revert\n        /* \"#utility.yul\":1963:2026   */\n    tag_275:\n        /* \"#utility.yul\":1910:2032   */\n      pop\n      jump\t// out\n        /* \"#utility.yul\":2038:2177   */\n    tag_234:\n        /* \"#utility.yul\":2084:2089   */\n      0x00\n        /* \"#utility.yul\":2122:2128   */\n      dup2\n        /* \"#utility.yul\":2109:2129   */\n      calldataload\n        /* \"#utility.yul\":2100:2129   */\n      swap1\n      pop\n        /* \"#utility.yul\":2138:2171   */\n      tag_277\n        /* \"#utility.yul\":2165:2170   */\n      dup2\n        /* \"#utility.yul\":2138:2171   */\n      tag_233\n      jump\t// in\n    tag_277:\n        /* \"#utility.yul\":2038:2177   */\n      swap3\n      swap2\n      pop\n      pop\n      jump\t// out\n        /* \"#utility.yul\":2183:2260   */\n    tag_235:\n        /* \"#utility.yul\":2220:2227   */\n      0x00\n        /* \"#utility.yul\":2249:2254   */\n      dup2\n        /* \"#utility.yul\":2238:2254   */\n      swap1\n      pop\n        /* \"#utility.yul\":2183:2260   */\n      swap2\n      swap1\n      pop\n      jump\t// out\n        /* \"#utility.yul\":2266:2388   */\n    tag_236:\n        /* \"#utility.yul\":2339:2363   */\n      tag_280\n        /* \"#utility.yul\":2357:2362   */\n      dup2\n        /* \"#utility.yul\":2339:2363   */\n      tag_235\n      jump\t// in\n    tag_280:\n        /* \"#utility.yul\":2332:2337   */\n      dup2\n        /* \"#utility.yul\":2329:2364   */\n      eq\n        /* \"#utility.yul\":2319:2382   */\n      tag_281\n      jumpi\n        /* \"#utility.yul\":2378:2379   */\n      0x00\n        /* \"#utility.yul\":2375:2376   */\n      dup1\n        /* \"#utility.yul\":2368:2380   */\n      revert\n        /* \"#utility.yul\":2319:2382   */\n    tag_281:\n        /* \"#utility.yul\":2266:2388   */\n      pop\n      jump\t// out\n        /* \"#utility.yul\":2394:2533   */\n    tag_237:\n        /* \"#utility.yul\":2440:2445   */\n      0x00\n        /* \"#utility.yul\":2478:2484   */\n      dup2\n        /* \"#utility.yul\":2465:2485   */\n      calldataload\n        /* \"#utility.yul\":2456:2485   */\n      swap1\n      pop\n        /* \"#utility.yul\":2494:2527   */\n      tag_283\n        /* \"#utility.yul\":2521:2526   */\n      dup2\n        /* \"#utility.yul\":2494:2527   */\n      tag_236\n      jump\t// in\n    tag_283:\n        /* \"#utility.yul\":2394:2533   */\n      swap3\n      swap2\n      pop\n      pop\n      jump\t// out\n        /* \"#utility.yul\":2539:3013   */\n    tag_38:\n        /* \"#utility.yul\":2607:2613   */\n      0x00\n        /* \"#utility.yul\":2615:2621   */\n      dup1\n        /* \"#utility.yul\":2664:2666   */\n      0x40\n        /* \"#utility.yul\":2652:2661   */\n      dup4\n        /* \"#utility.yul\":2643:2650   */\n      dup6\n        /* \"#utility.yul\":2639:2662   */\n      sub\n        /* \"#utility.yul\":2635:2667   */\n      slt\n        /* \"#utility.yul\":2632:2751   */\n      iszero\n      tag_285\n      jumpi\n        /* \"#utility.yul\":2670:2749   */\n      tag_286\n      tag_229\n      jump\t// in\n    tag_286:\n        /* \"#utility.yul\":2632:2751   */\n    tag_285:\n        /* \"#utility.yul\":2790:2791   */\n      0x00\n        /* \"#utility.yul\":2815:2868   */\n      tag_287\n        /* \"#utility.yul\":2860:2867   */\n      dup6\n        /* \"#utility.yul\":2851:2857   */\n      dup3\n        /* \"#utility.yul\":2840:2849   */\n      dup7\n        /* \"#utility.yul\":2836:2858   */\n      add\n        /* \"#utility.yul\":2815:2868   */\n      tag_234\n      jump\t// in\n    tag_287:\n        /* \"#utility.yul\":2805:2868   */\n      swap3\n      pop\n        /* \"#utility.yul\":2761:2878   */\n      pop\n        /* \"#utility.yul\":2917:2919   */\n      0x20\n        /* \"#utility.yul\":2943:2996   */\n      tag_288\n        /* \"#utility.yul\":2988:2995   */\n      dup6\n        /* \"#utility.yul\":2979:2985   */\n      dup3\n        /* \"#utility.yul\":2968:2977   */\n      dup7\n        /* \"#utility.yul\":2964:2986   */\n      add\n        /* \"#utility.yul\":2943:2996   */\n      tag_237\n      jump\t// in\n    tag_288:\n        /* \"#utility.yul\":2933:2996   */\n      swap2\n      pop\n        /* \"#utility.yul\":2888:3006   */\n      pop\n        /* \"#utility.yul\":2539:3013   */\n      swap3\n      pop\n      swap3\n      swap1\n      pop\n      jump\t// out\n        /* \"#utility.yul\":3019:3109   */\n    tag_238:\n        /* \"#utility.yul\":3053:3060   */\n      0x00\n        /* \"#utility.yul\":3096:3101   */\n      dup2\n        /* \"#utility.yul\":3089:3102   */\n      iszero\n        /* \"#utility.yul\":3082:3103   */\n      iszero\n        /* \"#utility.yul\":3071:3103   */\n      swap1\n      pop\n        /* \"#utility.yul\":3019:3109   */\n      swap2\n      swap1\n      pop\n      jump\t// out\n        /* \"#utility.yul\":3115:3224   */\n    tag_239:\n        /* \"#utility.yul\":3196:3217   */\n      tag_291\n        /* \"#utility.yul\":3211:3216   */\n      dup2\n        /* \"#utility.yul\":3196:3217   */\n      tag_238\n      jump\t// in\n    tag_291:\n        /* \"#utility.yul\":3191:3194   */\n      dup3\n        /* \"#utility.yul\":3184:3218   */\n      mstore\n        /* \"#utility.yul\":3115:3224   */\n      pop\n      pop\n      jump\t// out\n        /* \"#utility.yul\":3230:3440   */\n    tag_41:\n        /* \"#utility.yul\":3317:3321   */\n      0x00\n        /* \"#utility.yul\":3355:3357   */\n      0x20\n        /* \"#utility.yul\":3344:3353   */\n      dup3\n        /* \"#utility.yul\":3340:3358   */\n      add\n        /* \"#utility.yul\":3332:3358   */\n      swap1\n      pop\n        /* \"#utility.yul\":3368:3433   */\n      tag_293\n        /* \"#utility.yul\":3430:3431   */\n      0x00\n        /* \"#utility.yul\":3419:3428   */\n      dup4\n        /* \"#utility.yul\":3415:3432   */\n      add\n        /* \"#utility.yul\":3406:3412   */\n      dup5\n        /* \"#utility.yul\":3368:3433   */\n      tag_239\n      jump\t// in\n    tag_293:\n        /* \"#utility.yul\":3230:3440   */\n      swap3\n      swap2\n      pop\n      pop\n      jump\t// out\n        /* \"#utility.yul\":3446:3564   */\n    tag_240:\n        /* \"#utility.yul\":3533:3557   */\n      tag_295\n        /* \"#utility.yul\":3551:3556   */\n      dup2\n        /* \"#utility.yul\":3533:3557   */\n      tag_235\n      jump\t// in\n    tag_295:\n        /* \"#utility.yul\":3528:3531   */\n      dup3\n        /* \"#utility.yul\":3521:3558   */\n      mstore\n        /* \"#utility.yul\":3446:3564   */\n      pop\n      pop\n      jump\t// out\n        /* \"#utility.yul\":3570:3792   */\n    tag_45:\n        /* \"#utility.yul\":3663:3667   */\n      0x00\n        /* \"#utility.yul\":3701:3703   */\n      0x20\n        /* \"#utility.yul\":3690:3699   */\n      dup3\n        /* \"#utility.yul\":3686:3704   */\n      add\n        /* \"#utility.yul\":3678:3704   */\n      swap1\n      pop\n        /* \"#utility.yul\":3714:3785   */\n      tag_297\n        /* \"#utility.yul\":3782:3783   */\n      0x00\n        /* \"#utility.yul\":3771:3780   */\n      dup4\n        /* \"#utility.yul\":3767:3784   */\n      add\n        /* \"#utility.yul\":3758:3764   */\n      dup5\n        /* \"#utility.yul\":3714:3785   */\n      tag_240\n      jump\t// in\n    tag_297:\n        /* \"#utility.yul\":3570:3792   */\n      swap3\n      swap2\n      pop\n      pop\n      jump\t// out\n        /* \"#utility.yul\":3798:4417   */\n    tag_51:\n        /* \"#utility.yul\":3875:3881   */\n      0x00\n        /* \"#utility.yul\":3883:3889   */\n      dup1\n        /* \"#utility.yul\":3891:3897   */\n      0x00\n        /* \"#utility.yul\":3940:3942   */\n      0x60\n        /* \"#utility.yul\":3928:3937   */\n      dup5\n        /* \"#utility.yul\":3919:3926   */\n      dup7\n        /* \"#utility.yul\":3915:3938   */\n      sub\n        /* \"#utility.yul\":3911:3943   */\n      slt\n        /* \"#utility.yul\":3908:4027   */\n      iszero\n      tag_299\n      jumpi\n        /* \"#utility.yul\":3946:4025   */\n      tag_300\n      tag_229\n      jump\t// in\n    tag_300:\n        /* \"#utility.yul\":3908:4027   */\n    tag_299:\n        /* \"#utility.yul\":4066:4067   */\n      0x00\n        /* \"#utility.yul\":4091:4144   */\n      tag_301\n        /* \"#utility.yul\":4136:4143   */\n      dup7\n        /* \"#utility.yul\":4127:4133   */\n      dup3\n        /* \"#utility.yul\":4116:4125   */\n      dup8\n        /* \"#utility.yul\":4112:4134   */\n      add\n        /* \"#utility.yul\":4091:4144   */\n      tag_234\n      jump\t// in\n    tag_301:\n        /* \"#utility.yul\":4081:4144   */\n      swap4\n      pop\n        /* \"#utility.yul\":4037:4154   */\n      pop\n        /* \"#utility.yul\":4193:4195   */\n      0x20\n        /* \"#utility.yul\":4219:4272   */\n      tag_302\n        /* \"#utility.yul\":4264:4271   */\n      dup7\n        /* \"#utility.yul\":4255:4261   */\n      dup3\n        /* \"#utility.yul\":4244:4253   */\n      dup8\n        /* \"#utility.yul\":4240:4262   */\n      add\n        /* \"#utility.yul\":4219:4272   */\n      tag_234\n      jump\t// in\n    tag_302:\n        /* \"#utility.yul\":4209:4272   */\n      swap3\n      pop\n        /* \"#utility.yul\":4164:4282   */\n      pop\n        /* \"#utility.yul\":4321:4323   */\n      0x40\n        /* \"#utility.yul\":4347:4400   */\n      tag_303\n        /* \"#utility.yul\":4392:4399   */\n      dup7\n        /* \"#utility.yul\":4383:4389   */\n      dup3\n        /* \"#utility.yul\":4372:4381   */\n      dup8\n        /* \"#utility.yul\":4368:4390   */\n      add\n        /* \"#utility.yul\":4347:4400   */\n      tag_237\n      jump\t// in\n    tag_303:\n        /* \"#utility.yul\":4337:4400   */\n      swap2\n      pop\n        /* \"#utility.yul\":4292:4410   */\n      pop\n        /* \"#utility.yul\":3798:4417   */\n      swap3\n      pop\n      swap3\n      pop\n      swap3\n      jump\t// out\n        /* \"#utility.yul\":4423:4509   */\n    tag_241:\n        /* \"#utility.yul\":4458:4465   */\n      0x00\n        /* \"#utility.yul\":4498:4502   */\n      0xff\n        /* \"#utility.yul\":4491:4496   */\n      dup3\n        /* \"#utility.yul\":4487:4503   */\n      and\n        /* \"#utility.yul\":4476:4503   */\n      swap1\n      pop\n        /* \"#utility.yul\":4423:4509   */\n      swap2\n      swap1\n      pop\n      jump\t// out\n        /* \"#utility.yul\":4515:4627   */\n    tag_242:\n        /* \"#utility.yul\":4598:4620   */\n      tag_306\n        /* \"#utility.yul\":4614:4619   */\n      dup2\n        /* \"#utility.yul\":4598:4620   */\n      tag_241\n      jump\t// in\n    tag_306:\n        /* \"#utility.yul\":4593:4596   */\n      dup3\n        /* \"#utility.yul\":4586:4621   */\n      mstore\n        /* \"#utility.yul\":4515:4627   */\n      pop\n      pop\n      jump\t// out\n        /* \"#utility.yul\":4633:4847   */\n    tag_60:\n        /* \"#utility.yul\":4722:4726   */\n      0x00\n        /* \"#utility.yul\":4760:4762   */\n      0x20\n        /* \"#utility.yul\":4749:4758   */\n      dup3\n        /* \"#utility.yul\":4745:4763   */\n      add\n        /* \"#utility.yul\":4737:4763   */\n      swap1\n      pop\n        /* \"#utility.yul\":4773:4840   */\n      tag_308\n        /* \"#utility.yul\":4837:4838   */\n      0x00\n        /* \"#utility.yul\":4826:4835   */\n      dup4\n        /* \"#utility.yul\":4822:4839   */\n      add\n        /* \"#utility.yul\":4813:4819   */\n      dup5\n        /* \"#utility.yul\":4773:4840   */\n      tag_242\n      jump\t// in\n    tag_308:\n        /* \"#utility.yul\":4633:4847   */\n      swap3\n      swap2\n      pop\n      pop\n      jump\t// out\n        /* \"#utility.yul\":4853:4971   */\n    tag_243:\n        /* \"#utility.yul\":4940:4964   */\n      tag_310\n        /* \"#utility.yul\":4958:4963   */\n      dup2\n        /* \"#utility.yul\":4940:4964   */\n      tag_232\n      jump\t// in\n    tag_310:\n        /* \"#utility.yul\":4935:4938   */\n      dup3\n        /* \"#utility.yul\":4928:4965   */\n      mstore\n        /* \"#utility.yul\":4853:4971   */\n      pop\n      pop\n      jump\t// out\n        /* \"#utility.yul\":4977:5199   */\n    tag_64:\n        /* \"#utility.yul\":5070:5074   */\n      0x00\n        /* \"#utility.yul\":5108:5110   */\n      0x20\n        /* \"#utility.yul\":5097:5106   */\n      dup3\n        /* \"#utility.yul\":5093:5111   */\n      add\n        /* \"#utility.yul\":5085:5111   */\n      swap1\n      pop\n        /* \"#utility.yul\":5121:5192   */\n      tag_312\n        /* \"#utility.yul\":5189:5190   */\n      0x00\n        /* \"#utility.yul\":5178:5187   */\n      dup4\n        /* \"#utility.yul\":5174:5191   */\n      add\n        /* \"#utility.yul\":5165:5171   */\n      dup5\n        /* \"#utility.yul\":5121:5192   */\n      tag_243\n      jump\t// in\n    tag_312:\n        /* \"#utility.yul\":4977:5199   */\n      swap3\n      swap2\n      pop\n      pop\n      jump\t// out\n        /* \"#utility.yul\":5205:5265   */\n    tag_244:\n        /* \"#utility.yul\":5233:5236   */\n      0x00\n        /* \"#utility.yul\":5254:5259   */\n      dup2\n        /* \"#utility.yul\":5247:5259   */\n      swap1\n      pop\n        /* \"#utility.yul\":5205:5265   */\n      swap2\n      swap1\n      pop\n      jump\t// out\n        /* \"#utility.yul\":5271:5413   */\n    tag_245:\n        /* \"#utility.yul\":5321:5330   */\n      0x00\n        /* \"#utility.yul\":5354:5407   */\n      tag_315\n        /* \"#utility.yul\":5372:5406   */\n      tag_316\n        /* \"#utility.yul\":5381:5405   */\n      tag_317\n        /* \"#utility.yul\":5399:5404   */\n      dup5\n        /* \"#utility.yul\":5381:5405   */\n      tag_231\n      jump\t// in\n    tag_317:\n        /* \"#utility.yul\":5372:5406   */\n      tag_244\n      jump\t// in\n    tag_316:\n        /* \"#utility.yul\":5354:5407   */\n      tag_231\n      jump\t// in\n    tag_315:\n        /* \"#utility.yul\":5341:5407   */\n      swap1\n      pop\n        /* \"#utility.yul\":5271:5413   */\n      swap2\n      swap1\n      pop\n      jump\t// out\n        /* \"#utility.yul\":5419:5545   */\n    tag_246:\n        /* \"#utility.yul\":5469:5478   */\n      0x00\n        /* \"#utility.yul\":5502:5539   */\n      tag_319\n        /* \"#utility.yul\":5533:5538   */\n      dup3\n        /* \"#utility.yul\":5502:5539   */\n      tag_245\n      jump\t// in\n    tag_319:\n        /* \"#utility.yul\":5489:5539   */\n      swap1\n      pop\n        /* \"#utility.yul\":5419:5545   */\n      swap2\n      swap1\n      pop\n      jump\t// out\n        /* \"#utility.yul\":5551:5691   */\n    tag_247:\n        /* \"#utility.yul\":5615:5624   */\n      0x00\n        /* \"#utility.yul\":5648:5685   */\n      tag_321\n        /* \"#utility.yul\":5679:5684   */\n      dup3\n        /* \"#utility.yul\":5648:5685   */\n      tag_246\n      jump\t// in\n    tag_321:\n        /* \"#utility.yul\":5635:5685   */\n      swap1\n      pop\n        /* \"#utility.yul\":5551:5691   */\n      swap2\n      swap1\n      pop\n      jump\t// out\n        /* \"#utility.yul\":5697:5856   */\n    tag_248:\n        /* \"#utility.yul\":5798:5849   */\n      tag_323\n        /* \"#utility.yul\":5843:5848   */\n      dup2\n        /* \"#utility.yul\":5798:5849   */\n      tag_247\n      jump\t// in\n    tag_323:\n        /* \"#utility.yul\":5793:5796   */\n      dup3\n        /* \"#utility.yul\":5786:5850   */\n      mstore\n        /* \"#utility.yul\":5697:5856   */\n      pop\n      pop\n      jump\t// out\n        /* \"#utility.yul\":5862:6112   */\n    tag_68:\n        /* \"#utility.yul\":5969:5973   */\n      0x00\n        /* \"#utility.yul\":6007:6009   */\n      0x20\n        /* \"#utility.yul\":5996:6005   */\n      dup3\n        /* \"#utility.yul\":5992:6010   */\n      add\n        /* \"#utility.yul\":5984:6010   */\n      swap1\n      pop\n        /* \"#utility.yul\":6020:6105   */\n      tag_325\n        /* \"#utility.yul\":6102:6103   */\n      0x00\n        /* \"#utility.yul\":6091:6100   */\n      dup4\n        /* \"#utility.yul\":6087:6104   */\n      add\n        /* \"#utility.yul\":6078:6084   */\n      dup5\n        /* \"#utility.yul\":6020:6105   */\n      tag_248\n      jump\t// in\n    tag_325:\n        /* \"#utility.yul\":5862:6112   */\n      swap3\n      swap2\n      pop\n      pop\n      jump\t// out\n        /* \"#utility.yul\":6118:6447   */\n    tag_71:\n        /* \"#utility.yul\":6177:6183   */\n      0x00\n        /* \"#utility.yul\":6226:6228   */\n      0x20\n        /* \"#utility.yul\":6214:6223   */\n      dup3\n        /* \"#utility.yul\":6205:6212   */\n      dup5\n        /* \"#utility.yul\":6201:6224   */\n      sub\n        /* \"#utility.yul\":6197:6229   */\n      slt\n        /* \"#utility.yul\":6194:6313   */\n      iszero\n      tag_327\n      jumpi\n        /* \"#utility.yul\":6232:6311   */\n      tag_328\n      tag_229\n      jump\t// in\n    tag_328:\n        /* \"#utility.yul\":6194:6313   */\n    tag_327:\n        /* \"#utility.yul\":6352:6353   */\n      0x00\n        /* \"#utility.yul\":6377:6430   */\n      tag_329\n        /* \"#utility.yul\":6422:6429   */\n      dup5\n        /* \"#utility.yul\":6413:6419   */\n      dup3\n        /* \"#utility.yul\":6402:6411   */\n      dup6\n        /* \"#utility.yul\":6398:6420   */\n      add\n        /* \"#utility.yul\":6377:6430   */\n      tag_234\n      jump\t// in\n    tag_329:\n        /* \"#utility.yul\":6367:6430   */\n      swap2\n      pop\n        /* \"#utility.yul\":6323:6440   */\n      pop\n        /* \"#utility.yul\":6118:6447   */\n      swap3\n      swap2\n      pop\n      pop\n      jump\t// out\n        /* \"#utility.yul\":6453:6927   */\n    tag_109:\n        /* \"#utility.yul\":6521:6527   */\n      0x00\n        /* \"#utility.yul\":6529:6535   */\n      dup1\n        /* \"#utility.yul\":6578:6580   */\n      0x40\n        /* \"#utility.yul\":6566:6575   */\n      dup4\n        /* \"#utility.yul\":6557:6564   */\n      dup6\n        /* \"#utility.yul\":6553:6576   */\n      sub\n        /* \"#utility.yul\":6549:6581   */\n      slt\n        /* \"#utility.yul\":6546:6665   */\n      iszero\n      tag_331\n      jumpi\n        /* \"#utility.yul\":6584:6663   */\n      tag_332\n      tag_229\n      jump\t// in\n    tag_332:\n        /* \"#utility.yul\":6546:6665   */\n    tag_331:\n        /* \"#utility.yul\":6704:6705   */\n      0x00\n        /* \"#utility.yul\":6729:6782   */\n      tag_333\n        /* \"#utility.yul\":6774:6781   */\n      dup6\n        /* \"#utility.yul\":6765:6771   */\n      dup3\n        /* \"#utility.yul\":6754:6763   */\n      dup7\n        /* \"#utility.yul\":6750:6772   */\n      add\n        /* \"#utility.yul\":6729:6782   */\n      tag_234\n      jump\t// in\n    tag_333:\n        /* \"#utility.yul\":6719:6782   */\n      swap3\n      pop\n        /* \"#utility.yul\":6675:6792   */\n      pop\n        /* \"#utility.yul\":6831:6833   */\n      0x20\n        /* \"#utility.yul\":6857:6910   */\n      tag_334\n        /* \"#utility.yul\":6902:6909   */\n      dup6\n        /* \"#utility.yul\":6893:6899   */\n      dup3\n        /* \"#utility.yul\":6882:6891   */\n      dup7\n        /* \"#utility.yul\":6878:6900   */\n      add\n        /* \"#utility.yul\":6857:6910   */\n      tag_234\n      jump\t// in\n    tag_334:\n        /* \"#utility.yul\":6847:6910   */\n      swap2\n      pop\n        /* \"#utility.yul\":6802:6920   */\n      pop\n        /* \"#utility.yul\":6453:6927   */\n      swap3\n      pop\n      swap3\n      swap1\n      pop\n      jump\t// out\n        /* \"#utility.yul\":6933:7113   */\n    tag_249:\n        /* \"#utility.yul\":6981:7058   */\n      0x4e487b7100000000000000000000000000000000000000000000000000000000\n        /* \"#utility.yul\":6978:6979   */\n      0x00\n        /* \"#utility.yul\":6971:7059   */\n      mstore\n        /* \"#utility.yul\":7078:7082   */\n      0x22\n        /* \"#utility.yul\":7075:7076   */\n      0x04\n        /* \"#utility.yul\":7068:7083   */\n      mstore\n        /* \"#utility.yul\":7102:7106   */\n      0x24\n        /* \"#utility.yul\":7099:7100   */\n      0x00\n        /* \"#utility.yul\":7092:7107   */\n      revert\n        /* \"#utility.yul\":7119:7439   */\n    tag_123:\n        /* \"#utility.yul\":7163:7169   */\n      0x00\n        /* \"#utility.yul\":7200:7201   */\n      0x02\n        /* \"#utility.yul\":7194:7198   */\n      dup3\n        /* \"#utility.yul\":7190:7202   */\n      div\n        /* \"#utility.yul\":7180:7202   */\n      swap1\n      pop\n        /* \"#utility.yul\":7247:7248   */\n      0x01\n        /* \"#utility.yul\":7241:7245   */\n      dup3\n        /* \"#utility.yul\":7237:7249   */\n      and\n        /* \"#utility.yul\":7268:7286   */\n      dup1\n        /* \"#utility.yul\":7258:7339   */\n      tag_337\n      jumpi\n        /* \"#utility.yul\":7324:7328   */\n      0x7f\n        /* \"#utility.yul\":7316:7322   */\n      dup3\n        /* \"#utility.yul\":7312:7329   */\n      and\n        /* \"#utility.yul\":7302:7329   */\n      swap2\n      pop\n        /* \"#utility.yul\":7258:7339   */\n    tag_337:\n        /* \"#utility.yul\":7386:7388   */\n      0x20\n        /* \"#utility.yul\":7378:7384   */\n      dup3\n        /* \"#utility.yul\":7375:7389   */\n      lt\n        /* \"#utility.yul\":7355:7373   */\n      dup2\n        /* \"#utility.yul\":7352:7390   */\n      sub\n        /* \"#utility.yul\":7349:7433   */\n      tag_338\n      jumpi\n        /* \"#utility.yul\":7405:7423   */\n      tag_339\n      tag_249\n      jump\t// in\n    tag_339:\n        /* \"#utility.yul\":7349:7433   */\n    tag_338:\n        /* \"#utility.yul\":7170:7439   */\n      pop\n        /* \"#utility.yul\":7119:7439   */\n      swap2\n      swap1\n      pop\n      jump\t// out\n        /* \"#utility.yul\":7445:7588   */\n    tag_250:\n        /* \"#utility.yul\":7502:7507   */\n      0x00\n        /* \"#utility.yul\":7533:7539   */\n      dup2\n        /* \"#utility.yul\":7527:7540   */\n      mload\n        /* \"#utility.yul\":7518:7540   */\n      swap1\n      pop\n        /* \"#utility.yul\":7549:7582   */\n      tag_341\n        /* \"#utility.yul\":7576:7581   */\n      dup2\n        /* \"#utility.yul\":7549:7582   */\n      tag_236\n      jump\t// in\n    tag_341:\n        /* \"#utility.yul\":7445:7588   */\n      swap3\n      swap2\n      pop\n      pop\n      jump\t// out\n        /* \"#utility.yul\":7594:7945   */\n    tag_138:\n        /* \"#utility.yul\":7664:7670   */\n      0x00\n        /* \"#utility.yul\":7713:7715   */\n      0x20\n        /* \"#utility.yul\":7701:7710   */\n      dup3\n        /* \"#utility.yul\":7692:7699   */\n      dup5\n        /* \"#utility.yul\":7688:7711   */\n      sub\n        /* \"#utility.yul\":7684:7716   */\n      slt\n        /* \"#utility.yul\":7681:7800   */\n      iszero\n      tag_343\n      jumpi\n        /* \"#utility.yul\":7719:7798   */\n      tag_344\n      tag_229\n      jump\t// in\n    tag_344:\n        /* \"#utility.yul\":7681:7800   */\n    tag_343:\n        /* \"#utility.yul\":7839:7840   */\n      0x00\n        /* \"#utility.yul\":7864:7928   */\n      tag_345\n        /* \"#utility.yul\":7920:7927   */\n      dup5\n        /* \"#utility.yul\":7911:7917   */\n      dup3\n        /* \"#utility.yul\":7900:7909   */\n      dup6\n        /* \"#utility.yul\":7896:7918   */\n      add\n        /* \"#utility.yul\":7864:7928   */\n      tag_250\n      jump\t// in\n    tag_345:\n        /* \"#utility.yul\":7854:7928   */\n      swap2\n      pop\n        /* \"#utility.yul\":7810:7938   */\n      pop\n        /* \"#utility.yul\":7594:7945   */\n      swap3\n      swap2\n      pop\n      pop\n      jump\t// out\n        /* \"#utility.yul\":7951:8393   */\n    tag_190:\n        /* \"#utility.yul\":8100:8104   */\n      0x00\n        /* \"#utility.yul\":8138:8140   */\n      0x60\n        /* \"#utility.yul\":8127:8136   */\n      dup3\n        /* \"#utility.yul\":8123:8141   */\n      add\n        /* \"#utility.yul\":8115:8141   */\n      swap1\n      pop\n        /* \"#utility.yul\":8151:8222   */\n      tag_347\n        /* \"#utility.yul\":8219:8220   */\n      0x00\n        /* \"#utility.yul\":8208:8217   */\n      dup4\n        /* \"#utility.yul\":8204:8221   */\n      add\n        /* \"#utility.yul\":8195:8201   */\n      dup7\n        /* \"#utility.yul\":8151:8222   */\n      tag_243\n      jump\t// in\n    tag_347:\n        /* \"#utility.yul\":8232:8304   */\n      tag_348\n        /* \"#utility.yul\":8300:8302   */\n      0x20\n        /* \"#utility.yul\":8289:8298   */\n      dup4\n        /* \"#utility.yul\":8285:8303   */\n      add\n        /* \"#utility.yul\":8276:8282   */\n      dup6\n        /* \"#utility.yul\":8232:8304   */\n      tag_240\n      jump\t// in\n    tag_348:\n        /* \"#utility.yul\":8314:8386   */\n      tag_349\n        /* \"#utility.yul\":8382:8384   */\n      0x40\n        /* \"#utility.yul\":8371:8380   */\n      dup4\n        /* \"#utility.yul\":8367:8385   */\n      add\n        /* \"#utility.yul\":8358:8364   */\n      dup5\n        /* \"#utility.yul\":8314:8386   */\n      tag_240\n      jump\t// in\n    tag_349:\n        /* \"#utility.yul\":7951:8393   */\n      swap5\n      swap4\n      pop\n      pop\n      pop\n      pop\n      jump\t// out\n        /* \"#utility.yul\":8399:8579   */\n    tag_251:\n        /* \"#utility.yul\":8447:8524   */\n      0x4e487b7100000000000000000000000000000000000000000000000000000000\n        /* \"#utility.yul\":8444:8445   */\n      0x00\n        /* \"#utility.yul\":8437:8525   */\n      mstore\n        /* \"#utility.yul\":8544:8548   */\n      0x11\n        /* \"#utility.yul\":8541:8542   */\n      0x04\n        /* \"#utility.yul\":8534:8549   */\n      mstore\n        /* \"#utility.yul\":8568:8572   */\n      0x24\n        /* \"#utility.yul\":8565:8566   */\n      0x00\n        /* \"#utility.yul\":8558:8573   */\n      revert\n        /* \"#utility.yul\":8585:8776   */\n    tag_216:\n        /* \"#utility.yul\":8625:8628   */\n      0x00\n        /* \"#utility.yul\":8644:8664   */\n      tag_352\n        /* \"#utility.yul\":8662:8663   */\n      dup3\n        /* \"#utility.yul\":8644:8664   */\n      tag_235\n      jump\t// in\n    tag_352:\n        /* \"#utility.yul\":8639:8664   */\n      swap2\n      pop\n        /* \"#utility.yul\":8678:8698   */\n      tag_353\n        /* \"#utility.yul\":8696:8697   */\n      dup4\n        /* \"#utility.yul\":8678:8698   */\n      tag_235\n      jump\t// in\n    tag_353:\n        /* \"#utility.yul\":8673:8698   */\n      swap3\n      pop\n        /* \"#utility.yul\":8721:8722   */\n      dup3\n        /* \"#utility.yul\":8718:8719   */\n      dup3\n        /* \"#utility.yul\":8714:8723   */\n      add\n        /* \"#utility.yul\":8707:8723   */\n      swap1\n      pop\n        /* \"#utility.yul\":8742:8745   */\n      dup1\n        /* \"#utility.yul\":8739:8740   */\n      dup3\n        /* \"#utility.yul\":8736:8746   */\n      gt\n        /* \"#utility.yul\":8733:8769   */\n      iszero\n      tag_354\n      jumpi\n        /* \"#utility.yul\":8749:8767   */\n      tag_355\n      tag_251\n      jump\t// in\n    tag_355:\n        /* \"#utility.yul\":8733:8769   */\n    tag_354:\n        /* \"#utility.yul\":8585:8776   */\n      swap3\n      swap2\n      pop\n      pop\n      jump\t// out\n\n    auxdata: 0xa26469706673582212208a15bae5ca20999aa5bcd757f34cb93679edb360517cec54ec4f834c619b1ad164736f6c63430008160033\n}\n",
				"bytecode": {
					"linkReferences": {},
					"object": "608060405234801562000010575f80fd5b5060405162002040380380620020408339818101604052810190620000369190620005f3565b33888881600390816200004a919062000923565b5080600490816200005c919062000923565b5050505f73ffffffffffffffffffffffffffffffffffffffff168173ffffffffffffffffffffffffffffffffffffffff1603620000d2575f6040517f1e4fbdf7000000000000000000000000000000000000000000000000000000008152600401620000c9919062000a18565b60405180910390fd5b620000e381620002d860201b60201c565b5060016006819055505f820362000126576040517f9a5818d800000000000000000000000000000000000000000000000000000000815260040160405180910390fd5b5f830362000160576040517f9a5818d800000000000000000000000000000000000000000000000000000000815260040160405180910390fd5b428410156200019b576040517ffb2a675200000000000000000000000000000000000000000000000000000000815260040160405180910390fd5b8360098190555082600a8190555081600b819055508560075f6101000a81548173ffffffffffffffffffffffffffffffffffffffff021916908373ffffffffffffffffffffffffffffffffffffffff1602179055508460085f6101000a81548173ffffffffffffffffffffffffffffffffffffffff021916908373ffffffffffffffffffffffffffffffffffffffff16021790555080600c5f6101000a81548160ff02191690831515021790555085600c60016101000a81548173ffffffffffffffffffffffffffffffffffffffff021916908373ffffffffffffffffffffffffffffffffffffffff16021790555084600d5f6101000a81548173ffffffffffffffffffffffffffffffffffffffff021916908373ffffffffffffffffffffffffffffffffffffffff160217905550505050505050505062000a33565b5f60055f9054906101000a900473ffffffffffffffffffffffffffffffffffffffff1690508160055f6101000a81548173ffffffffffffffffffffffffffffffffffffffff021916908373ffffffffffffffffffffffffffffffffffffffff1602179055508173ffffffffffffffffffffffffffffffffffffffff168173ffffffffffffffffffffffffffffffffffffffff167f8be0079c531659141344cd1fd0a4f28419497f9722a3daafe3b4186f6b6457e060405160405180910390a35050565b5f604051905090565b5f80fd5b5f80fd5b5f80fd5b5f80fd5b5f601f19601f8301169050919050565b7f4e487b71000000000000000000000000000000000000000000000000000000005f52604160045260245ffd5b620003fc82620003b4565b810181811067ffffffffffffffff821117156200041e576200041d620003c4565b5b80604052505050565b5f620004326200039b565b9050620004408282620003f1565b919050565b5f67ffffffffffffffff821115620004625762000461620003c4565b5b6200046d82620003b4565b9050602081019050919050565b5f5b83811015620004995780820151818401526020810190506200047c565b5f8484015250505050565b5f620004ba620004b48462000445565b62000427565b905082815260208101848484011115620004d957620004d8620003b0565b5b620004e68482856200047a565b509392505050565b5f82601f830112620005055762000504620003ac565b5b815162000517848260208601620004a4565b91505092915050565b5f73ffffffffffffffffffffffffffffffffffffffff82169050919050565b5f6200054b8262000520565b9050919050565b6200055d816200053f565b811462000568575f80fd5b50565b5f815190506200057b8162000552565b92915050565b5f819050919050565b620005958162000581565b8114620005a0575f80fd5b50565b5f81519050620005b3816200058a565b92915050565b5f8115159050919050565b620005cf81620005b9565b8114620005da575f80fd5b50565b5f81519050620005ed81620005c4565b92915050565b5f805f805f805f80610100898b031215620006135762000612620003a4565b5b5f89015167ffffffffffffffff811115620006335762000632620003a8565b5b620006418b828c01620004ee565b985050602089015167ffffffffffffffff811115620006655762000664620003a8565b5b620006738b828c01620004ee565b9750506040620006868b828c016200056b565b9650506060620006998b828c016200056b565b9550506080620006ac8b828c01620005a3565b94505060a0620006bf8b828c01620005a3565b93505060c0620006d28b828c01620005a3565b92505060e0620006e58b828c01620005dd565b9150509295985092959890939650565b5f81519050919050565b7f4e487b71000000000000000000000000000000000000000000000000000000005f52602260045260245ffd5b5f60028204905060018216806200074457607f821691505b6020821081036200075a5762000759620006ff565b5b50919050565b5f819050815f5260205f209050919050565b5f6020601f8301049050919050565b5f82821b905092915050565b5f60088302620007be7fffffffffffffffffffffffffffffffffffffffffffffffffffffffffffffffff8262000781565b620007ca868362000781565b95508019841693508086168417925050509392505050565b5f819050919050565b5f6200080b62000805620007ff8462000581565b620007e2565b62000581565b9050919050565b5f819050919050565b6200082683620007eb565b6200083e620008358262000812565b8484546200078d565b825550505050565b5f90565b6200085462000846565b620008618184846200081b565b505050565b5b8181101562000888576200087c5f826200084a565b60018101905062000867565b5050565b601f821115620008d757620008a18162000760565b620008ac8462000772565b81016020851015620008bc578190505b620008d4620008cb8562000772565b83018262000866565b50505b505050565b5f82821c905092915050565b5f620008f95f1984600802620008dc565b1980831691505092915050565b5f620009138383620008e8565b9150826002028217905092915050565b6200092e82620006f5565b67ffffffffffffffff8111156200094a5762000949620003c4565b5b6200095682546200072c565b620009638282856200088c565b5f60209050601f83116001811462000999575f841562000984578287015190505b62000990858262000906565b865550620009ff565b601f198416620009a98662000760565b5f5b82811015620009d257848901518255600182019150602085019450602081019050620009ab565b86831015620009f25784890151620009ee601f891682620008e8565b8355505b6001600288020188555050505b505050505050565b62000a12816200053f565b82525050565b5f60208201905062000a2d5f83018462000a07565b92915050565b6115ff8062000a415f395ff3fe608060405234801561000f575f80fd5b5060043610610171575f3560e01c80638f620487116100dc578063b8a11e8211610095578063dd62ed3e1161006f578063dd62ed3e1461041f578063f2fde38b1461044f578063f3c274a61461046b578063ffd9eedb1461048957610171565b8063b8a11e82146103c5578063cfb4fc71146103e3578063d8dfeb451461040157610171565b80638f620487146102ff57806395d89b411461031d5780639acea70d1461033b578063a9059cbb14610359578063ac6068b514610389578063b5113d90146103a757610171565b8063313ce5671161012e578063313ce5671461024d57806348d399e71461026b5780636f713c9c1461028957806370a08231146102a7578063715018a6146102d75780638da5cb5b146102e157610171565b806306fdde0314610175578063095ea7b3146101935780631529a639146101c357806318160ddd146101e157806323b872dd146101ff5780632f13b60c1461022f575b5f80fd5b61017d6104a7565b60405161018a91906111c5565b60405180910390f35b6101ad60048036038101906101a89190611276565b610537565b6040516101ba91906112ce565b60405180910390f35b6101cb610559565b6040516101d891906112f6565b60405180910390f35b6101e96105f9565b6040516101f691906112f6565b60405180910390f35b6102196004803603810190610214919061130f565b610602565b60405161022691906112ce565b60405180910390f35b610237610630565b60405161024491906112ce565b60405180910390f35b61025561063c565b604051610262919061137a565b60405180910390f35b610273610644565b60405161028091906113a2565b60405180910390f35b610291610669565b60405161029e9190611416565b60405180910390f35b6102c160048036038101906102bc919061142f565b61068e565b6040516102ce91906112f6565b60405180910390f35b6102df6106d3565b005b6102e96106e6565b6040516102f691906113a2565b60405180910390f35b61030761070e565b60405161031491906112f6565b60405180910390f35b610325610714565b60405161033291906111c5565b60405180910390f35b6103436107a4565b60405161035091906113a2565b60405180910390f35b610373600480360381019061036e9190611276565b6107c9565b60405161038091906112ce565b60405180910390f35b6103916107eb565b60405161039e91906112ce565b60405180910390f35b6103af6107f6565b6040516103bc91906112f6565b60405180910390f35b6103cd610895565b6040516103da91906112f6565b60405180910390f35b6103eb61089b565b6040516103f891906112f6565b60405180910390f35b6104096108a1565b6040516104169190611416565b60405180910390f35b6104396004803603810190610434919061145a565b6108c7565b60405161044691906112f6565b60405180910390f35b6104696004803603810190610464919061142f565b610949565b005b6104736109cd565b60405161048091906112ce565b60405180910390f35b6104916109df565b60405161049e91906111c5565b60405180910390f35b6060600380546104b6906114c5565b80601f01602080910402602001604051908101604052809291908181526020018280546104e2906114c5565b801561052d5780601f106105045761010080835404028352916020019161052d565b820191905f5260205f20905b81548152906001019060200180831161051057829003601f168201915b5050505050905090565b5f80610541610a6e565b905061054e818585610a75565b600191505092915050565b5f600c60019054906101000a900473ffffffffffffffffffffffffffffffffffffffff1673ffffffffffffffffffffffffffffffffffffffff166370a08231306040518263ffffffff1660e01b81526004016105b591906113a2565b602060405180830381865afa1580156105d0573d5f803e3d5ffd5b505050506040513d601f19601f820116820180604052508101906105f49190611509565b905090565b5f600254905090565b5f8061060c610a6e565b9050610619858285610a87565b610624858585610b19565b60019150509392505050565b5f600954421015905090565b5f6012905090565b60075f9054906101000a900473ffffffffffffffffffffffffffffffffffffffff1681565b600d5f9054906101000a900473ffffffffffffffffffffffffffffffffffffffff1681565b5f805f8373ffffffffffffffffffffffffffffffffffffffff1673ffffffffffffffffffffffffffffffffffffffff1681526020019081526020015f20549050919050565b6106db610c09565b6106e45f610c90565b565b5f60055f9054906101000a900473ffffffffffffffffffffffffffffffffffffffff16905090565b60095481565b606060048054610723906114c5565b80601f016020809104026020016040519081016040528092919081815260200182805461074f906114c5565b801561079a5780601f106107715761010080835404028352916020019161079a565b820191905f5260205f20905b81548152906001019060200180831161077d57829003601f168201915b5050505050905090565b60085f9054906101000a900473ffffffffffffffffffffffffffffffffffffffff1681565b5f806107d3610a6e565b90506107e0818585610b19565b600191505092915050565b5f6009544210905090565b5f600d5f9054906101000a900473ffffffffffffffffffffffffffffffffffffffff1673ffffffffffffffffffffffffffffffffffffffff166370a08231306040518263ffffffff1660e01b815260040161085191906113a2565b602060405180830381865afa15801561086c573d5f803e3d5ffd5b505050506040513d601f19601f820116820180604052508101906108909190611509565b905090565b600a5481565b600b5481565b600c60019054906101000a900473ffffffffffffffffffffffffffffffffffffffff1681565b5f60015f8473ffffffffffffffffffffffffffffffffffffffff1673ffffffffffffffffffffffffffffffffffffffff1681526020019081526020015f205f8373ffffffffffffffffffffffffffffffffffffffff1673ffffffffffffffffffffffffffffffffffffffff1681526020019081526020015f2054905092915050565b610951610c09565b5f73ffffffffffffffffffffffffffffffffffffffff168173ffffffffffffffffffffffffffffffffffffffff16036109c1575f6040517f1e4fbdf70000000000000000000000000000000000000000000000000000000081526004016109b891906113a2565b60405180910390fd5b6109ca81610c90565b50565b600c5f9054906101000a900460ff1681565b6060600c5f9054906101000a900460ff1615610a32576040518060400160405280600381526020017f50555400000000000000000000000000000000000000000000000000000000008152509050610a6b565b6040518060400160405280600481526020017f43414c4c0000000000000000000000000000000000000000000000000000000081525090505b90565b5f33905090565b610a828383836001610d53565b505050565b5f610a9284846108c7565b90507fffffffffffffffffffffffffffffffffffffffffffffffffffffffffffffffff8114610b135781811015610b04578281836040517ffb8f41b2000000000000000000000000000000000000000000000000000000008152600401610afb93929190611534565b60405180910390fd5b610b1284848484035f610d53565b5b50505050565b5f73ffffffffffffffffffffffffffffffffffffffff168373ffffffffffffffffffffffffffffffffffffffff1603610b89575f6040517f96c6fd1e000000000000000000000000000000000000000000000000000000008152600401610b8091906113a2565b60405180910390fd5b5f73ffffffffffffffffffffffffffffffffffffffff168273ffffffffffffffffffffffffffffffffffffffff1603610bf9575f6040517fec442f05000000000000000000000000000000000000000000000000000000008152600401610bf091906113a2565b60405180910390fd5b610c04838383610f22565b505050565b610c11610a6e565b73ffffffffffffffffffffffffffffffffffffffff16610c2f6106e6565b73ffffffffffffffffffffffffffffffffffffffff1614610c8e57610c52610a6e565b6040517f118cdaa7000000000000000000000000000000000000000000000000000000008152600401610c8591906113a2565b60405180910390fd5b565b5f60055f9054906101000a900473ffffffffffffffffffffffffffffffffffffffff1690508160055f6101000a81548173ffffffffffffffffffffffffffffffffffffffff021916908373ffffffffffffffffffffffffffffffffffffffff1602179055508173ffffffffffffffffffffffffffffffffffffffff168173ffffffffffffffffffffffffffffffffffffffff167f8be0079c531659141344cd1fd0a4f28419497f9722a3daafe3b4186f6b6457e060405160405180910390a35050565b5f73ffffffffffffffffffffffffffffffffffffffff168473ffffffffffffffffffffffffffffffffffffffff1603610dc3575f6040517fe602df05000000000000000000000000000000000000000000000000000000008152600401610dba91906113a2565b60405180910390fd5b5f73ffffffffffffffffffffffffffffffffffffffff168373ffffffffffffffffffffffffffffffffffffffff1603610e33575f6040517f94280d62000000000000000000000000000000000000000000000000000000008152600401610e2a91906113a2565b60405180910390fd5b8160015f8673ffffffffffffffffffffffffffffffffffffffff1673ffffffffffffffffffffffffffffffffffffffff1681526020019081526020015f205f8573ffffffffffffffffffffffffffffffffffffffff1673ffffffffffffffffffffffffffffffffffffffff1681526020019081526020015f20819055508015610f1c578273ffffffffffffffffffffffffffffffffffffffff168473ffffffffffffffffffffffffffffffffffffffff167f8c5be1e5ebec7d5bd14f71427d1e84f3dd0314c0f7b2291e5b200ac8c7c3b92584604051610f1391906112f6565b60405180910390a35b50505050565b5f73ffffffffffffffffffffffffffffffffffffffff168373ffffffffffffffffffffffffffffffffffffffff1603610f72578060025f828254610f669190611596565b92505081905550611040565b5f805f8573ffffffffffffffffffffffffffffffffffffffff1673ffffffffffffffffffffffffffffffffffffffff1681526020019081526020015f2054905081811015610ffb578381836040517fe450d38c000000000000000000000000000000000000000000000000000000008152600401610ff293929190611534565b60405180910390fd5b8181035f808673ffffffffffffffffffffffffffffffffffffffff1673ffffffffffffffffffffffffffffffffffffffff1681526020019081526020015f2081905550505b5f73ffffffffffffffffffffffffffffffffffffffff168273ffffffffffffffffffffffffffffffffffffffff1603611087578060025f82825403925050819055506110d1565b805f808473ffffffffffffffffffffffffffffffffffffffff1673ffffffffffffffffffffffffffffffffffffffff1681526020019081526020015f205f82825401925050819055505b8173ffffffffffffffffffffffffffffffffffffffff168373ffffffffffffffffffffffffffffffffffffffff167fddf252ad1be2c89b69c2b068fc378daa952ba7f163c4a11628f55a4df523b3ef8360405161112e91906112f6565b60405180910390a3505050565b5f81519050919050565b5f82825260208201905092915050565b5f5b83811015611172578082015181840152602081019050611157565b5f8484015250505050565b5f601f19601f8301169050919050565b5f6111978261113b565b6111a18185611145565b93506111b1818560208601611155565b6111ba8161117d565b840191505092915050565b5f6020820190508181035f8301526111dd818461118d565b905092915050565b5f80fd5b5f73ffffffffffffffffffffffffffffffffffffffff82169050919050565b5f611212826111e9565b9050919050565b61122281611208565b811461122c575f80fd5b50565b5f8135905061123d81611219565b92915050565b5f819050919050565b61125581611243565b811461125f575f80fd5b50565b5f813590506112708161124c565b92915050565b5f806040838503121561128c5761128b6111e5565b5b5f6112998582860161122f565b92505060206112aa85828601611262565b9150509250929050565b5f8115159050919050565b6112c8816112b4565b82525050565b5f6020820190506112e15f8301846112bf565b92915050565b6112f081611243565b82525050565b5f6020820190506113095f8301846112e7565b92915050565b5f805f60608486031215611326576113256111e5565b5b5f6113338682870161122f565b93505060206113448682870161122f565b925050604061135586828701611262565b9150509250925092565b5f60ff82169050919050565b6113748161135f565b82525050565b5f60208201905061138d5f83018461136b565b92915050565b61139c81611208565b82525050565b5f6020820190506113b55f830184611393565b92915050565b5f819050919050565b5f6113de6113d96113d4846111e9565b6113bb565b6111e9565b9050919050565b5f6113ef826113c4565b9050919050565b5f611400826113e5565b9050919050565b611410816113f6565b82525050565b5f6020820190506114295f830184611407565b92915050565b5f60208284031215611444576114436111e5565b5b5f6114518482850161122f565b91505092915050565b5f80604083850312156114705761146f6111e5565b5b5f61147d8582860161122f565b925050602061148e8582860161122f565b9150509250929050565b7f4e487b71000000000000000000000000000000000000000000000000000000005f52602260045260245ffd5b5f60028204905060018216806114dc57607f821691505b6020821081036114ef576114ee611498565b5b50919050565b5f815190506115038161124c565b92915050565b5f6020828403121561151e5761151d6111e5565b5b5f61152b848285016114f5565b91505092915050565b5f6060820190506115475f830186611393565b61155460208301856112e7565b61156160408301846112e7565b949350505050565b7f4e487b71000000000000000000000000000000000000000000000000000000005f52601160045260245ffd5b5f6115a082611243565b91506115ab83611243565b92508282019050808211156115c3576115c2611569565b5b9291505056fea26469706673582212208a15bae5ca20999aa5bcd757f34cb93679edb360517cec54ec4f834c619b1ad164736f6c63430008160033",
					"opcodes": "PUSH1 0x80 PUSH1 0x40 MSTORE CALLVALUE DUP1 ISZERO PUSH3 0x10 JUMPI PUSH0 DUP1 REVERT JUMPDEST POP PUSH1 0x40 MLOAD PUSH3 0x2040 CODESIZE SUB DUP1 PUSH3 0x2040 DUP4 CODECOPY DUP2 DUP2 ADD PUSH1 0x40 MSTORE DUP2 ADD SWAP1 PUSH3 0x36 SWAP2 SWAP1 PUSH3 0x5F3 JUMP JUMPDEST CALLER DUP9 DUP9 DUP2 PUSH1 0x3 SWAP1 DUP2 PUSH3 0x4A SWAP2 SWAP1 PUSH3 0x923 JUMP JUMPDEST POP DUP1 PUSH1 0x4 SWAP1 DUP2 PUSH3 0x5C SWAP2 SWAP1 PUSH3 0x923 JUMP JUMPDEST POP POP POP PUSH0 PUSH20 0xFFFFFFFFFFFFFFFFFFFFFFFFFFFFFFFFFFFFFFFF AND DUP2 PUSH20 0xFFFFFFFFFFFFFFFFFFFFFFFFFFFFFFFFFFFFFFFF AND SUB PUSH3 0xD2 JUMPI PUSH0 PUSH1 0x40 MLOAD PUSH32 0x1E4FBDF700000000000000000000000000000000000000000000000000000000 DUP2 MSTORE PUSH1 0x4 ADD PUSH3 0xC9 SWAP2 SWAP1 PUSH3 0xA18 JUMP JUMPDEST PUSH1 0x40 MLOAD DUP1 SWAP2 SUB SWAP1 REVERT JUMPDEST PUSH3 0xE3 DUP2 PUSH3 0x2D8 PUSH1 0x20 SHL PUSH1 0x20 SHR JUMP JUMPDEST POP PUSH1 0x1 PUSH1 0x6 DUP2 SWAP1 SSTORE POP PUSH0 DUP3 SUB PUSH3 0x126 JUMPI PUSH1 0x40 MLOAD PUSH32 0x9A5818D800000000000000000000000000000000000000000000000000000000 DUP2 MSTORE PUSH1 0x4 ADD PUSH1 0x40 MLOAD DUP1 SWAP2 SUB SWAP1 REVERT JUMPDEST PUSH0 DUP4 SUB PUSH3 0x160 JUMPI PUSH1 0x40 MLOAD PUSH32 0x9A5818D800000000000000000000000000000000000000000000000000000000 DUP2 MSTORE PUSH1 0x4 ADD PUSH1 0x40 MLOAD DUP1 SWAP2 SUB SWAP1 REVERT JUMPDEST TIMESTAMP DUP5 LT ISZERO PUSH3 0x19B JUMPI PUSH1 0x40 MLOAD PUSH32 0xFB2A675200000000000000000000000000000000000000000000000000000000 DUP2 MSTORE PUSH1 0x4 ADD PUSH1 0x40 MLOAD DUP1 SWAP2 SUB SWAP1 REVERT JUMPDEST DUP4 PUSH1 0x9 DUP2 SWAP1 SSTORE POP DUP3 PUSH1 0xA DUP2 SWAP1 SSTORE POP DUP2 PUSH1 0xB DUP2 SWAP1 SSTORE POP DUP6 PUSH1 0x7 PUSH0 PUSH2 0x100 EXP DUP2 SLOAD DUP2 PUSH20 0xFFFFFFFFFFFFFFFFFFFFFFFFFFFFFFFFFFFFFFFF MUL NOT AND SWAP1 DUP4 PUSH20 0xFFFFFFFFFFFFFFFFFFFFFFFFFFFFFFFFFFFFFFFF AND MUL OR SWAP1 SSTORE POP DUP5 PUSH1 0x8 PUSH0 PUSH2 0x100 EXP DUP2 SLOAD DUP2 PUSH20 0xFFFFFFFFFFFFFFFFFFFFFFFFFFFFFFFFFFFFFFFF MUL NOT AND SWAP1 DUP4 PUSH20 0xFFFFFFFFFFFFFFFFFFFFFFFFFFFFFFFFFFFFFFFF AND MUL OR SWAP1 SSTORE POP DUP1 PUSH1 0xC PUSH0 PUSH2 0x100 EXP DUP2 SLOAD DUP2 PUSH1 0xFF MUL NOT AND SWAP1 DUP4 ISZERO ISZERO MUL OR SWAP1 SSTORE POP DUP6 PUSH1 0xC PUSH1 0x1 PUSH2 0x100 EXP DUP2 SLOAD DUP2 PUSH20 0xFFFFFFFFFFFFFFFFFFFFFFFFFFFFFFFFFFFFFFFF MUL NOT AND SWAP1 DUP4 PUSH20 0xFFFFFFFFFFFFFFFFFFFFFFFFFFFFFFFFFFFFFFFF AND MUL OR SWAP1 SSTORE POP DUP5 PUSH1 0xD PUSH0 PUSH2 0x100 EXP DUP2 SLOAD DUP2 PUSH20 0xFFFFFFFFFFFFFFFFFFFFFFFFFFFFFFFFFFFFFFFF MUL NOT AND SWAP1 DUP4 PUSH20 0xFFFFFFFFFFFFFFFFFFFFFFFFFFFFFFFFFFFFFFFF AND MUL OR SWAP1 SSTORE POP POP POP POP POP POP POP POP POP PUSH3 0xA33 JUMP JUMPDEST PUSH0 PUSH1 0x5 PUSH0 SWAP1 SLOAD SWAP1 PUSH2 0x100 EXP SWAP1 DIV PUSH20 0xFFFFFFFFFFFFFFFFFFFFFFFFFFFFFFFFFFFFFFFF AND SWAP1 POP DUP2 PUSH1 0x5 PUSH0 PUSH2 0x100 EXP DUP2 SLOAD DUP2 PUSH20 0xFFFFFFFFFFFFFFFFFFFFFFFFFFFFFFFFFFFFFFFF MUL NOT AND SWAP1 DUP4 PUSH20 0xFFFFFFFFFFFFFFFFFFFFFFFFFFFFFFFFFFFFFFFF AND MUL OR SWAP1 SSTORE POP DUP2 PUSH20 0xFFFFFFFFFFFFFFFFFFFFFFFFFFFFFFFFFFFFFFFF AND DUP2 PUSH20 0xFFFFFFFFFFFFFFFFFFFFFFFFFFFFFFFFFFFFFFFF AND PUSH32 0x8BE0079C531659141344CD1FD0A4F28419497F9722A3DAAFE3B4186F6B6457E0 PUSH1 0x40 MLOAD PUSH1 0x40 MLOAD DUP1 SWAP2 SUB SWAP1 LOG3 POP POP JUMP JUMPDEST PUSH0 PUSH1 0x40 MLOAD SWAP1 POP SWAP1 JUMP JUMPDEST PUSH0 DUP1 REVERT JUMPDEST PUSH0 DUP1 REVERT JUMPDEST PUSH0 DUP1 REVERT JUMPDEST PUSH0 DUP1 REVERT JUMPDEST PUSH0 PUSH1 0x1F NOT PUSH1 0x1F DUP4 ADD AND SWAP1 POP SWAP2 SWAP1 POP JUMP JUMPDEST PUSH32 0x4E487B7100000000000000000000000000000000000000000000000000000000 PUSH0 MSTORE PUSH1 0x41 PUSH1 0x4 MSTORE PUSH1 0x24 PUSH0 REVERT JUMPDEST PUSH3 0x3FC DUP3 PUSH3 0x3B4 JUMP JUMPDEST DUP2 ADD DUP2 DUP2 LT PUSH8 0xFFFFFFFFFFFFFFFF DUP3 GT OR ISZERO PUSH3 0x41E JUMPI PUSH3 0x41D PUSH3 0x3C4 JUMP JUMPDEST JUMPDEST DUP1 PUSH1 0x40 MSTORE POP POP POP JUMP JUMPDEST PUSH0 PUSH3 0x432 PUSH3 0x39B JUMP JUMPDEST SWAP1 POP PUSH3 0x440 DUP3 DUP3 PUSH3 0x3F1 JUMP JUMPDEST SWAP2 SWAP1 POP JUMP JUMPDEST PUSH0 PUSH8 0xFFFFFFFFFFFFFFFF DUP3 GT ISZERO PUSH3 0x462 JUMPI PUSH3 0x461 PUSH3 0x3C4 JUMP JUMPDEST JUMPDEST PUSH3 0x46D DUP3 PUSH3 0x3B4 JUMP JUMPDEST SWAP1 POP PUSH1 0x20 DUP2 ADD SWAP1 POP SWAP2 SWAP1 POP JUMP JUMPDEST PUSH0 JUMPDEST DUP4 DUP2 LT ISZERO PUSH3 0x499 JUMPI DUP1 DUP3 ADD MLOAD DUP2 DUP5 ADD MSTORE PUSH1 0x20 DUP2 ADD SWAP1 POP PUSH3 0x47C JUMP JUMPDEST PUSH0 DUP5 DUP5 ADD MSTORE POP POP POP POP JUMP JUMPDEST PUSH0 PUSH3 0x4BA PUSH3 0x4B4 DUP5 PUSH3 0x445 JUMP JUMPDEST PUSH3 0x427 JUMP JUMPDEST SWAP1 POP DUP3 DUP2 MSTORE PUSH1 0x20 DUP2 ADD DUP5 DUP5 DUP5 ADD GT ISZERO PUSH3 0x4D9 JUMPI PUSH3 0x4D8 PUSH3 0x3B0 JUMP JUMPDEST JUMPDEST PUSH3 0x4E6 DUP5 DUP3 DUP6 PUSH3 0x47A JUMP JUMPDEST POP SWAP4 SWAP3 POP POP POP JUMP JUMPDEST PUSH0 DUP3 PUSH1 0x1F DUP4 ADD SLT PUSH3 0x505 JUMPI PUSH3 0x504 PUSH3 0x3AC JUMP JUMPDEST JUMPDEST DUP2 MLOAD PUSH3 0x517 DUP5 DUP3 PUSH1 0x20 DUP7 ADD PUSH3 0x4A4 JUMP JUMPDEST SWAP2 POP POP SWAP3 SWAP2 POP POP JUMP JUMPDEST PUSH0 PUSH20 0xFFFFFFFFFFFFFFFFFFFFFFFFFFFFFFFFFFFFFFFF DUP3 AND SWAP1 POP SWAP2 SWAP1 POP JUMP JUMPDEST PUSH0 PUSH3 0x54B DUP3 PUSH3 0x520 JUMP JUMPDEST SWAP1 POP SWAP2 SWAP1 POP JUMP JUMPDEST PUSH3 0x55D DUP2 PUSH3 0x53F JUMP JUMPDEST DUP2 EQ PUSH3 0x568 JUMPI PUSH0 DUP1 REVERT JUMPDEST POP JUMP JUMPDEST PUSH0 DUP2 MLOAD SWAP1 POP PUSH3 0x57B DUP2 PUSH3 0x552 JUMP JUMPDEST SWAP3 SWAP2 POP POP JUMP JUMPDEST PUSH0 DUP2 SWAP1 POP SWAP2 SWAP1 POP JUMP JUMPDEST PUSH3 0x595 DUP2 PUSH3 0x581 JUMP JUMPDEST DUP2 EQ PUSH3 0x5A0 JUMPI PUSH0 DUP1 REVERT JUMPDEST POP JUMP JUMPDEST PUSH0 DUP2 MLOAD SWAP1 POP PUSH3 0x5B3 DUP2 PUSH3 0x58A JUMP JUMPDEST SWAP3 SWAP2 POP POP JUMP JUMPDEST PUSH0 DUP2 ISZERO ISZERO SWAP1 POP SWAP2 SWAP1 POP JUMP JUMPDEST PUSH3 0x5CF DUP2 PUSH3 0x5B9 JUMP JUMPDEST DUP2 EQ PUSH3 0x5DA JUMPI PUSH0 DUP1 REVERT JUMPDEST POP JUMP JUMPDEST PUSH0 DUP2 MLOAD SWAP1 POP PUSH3 0x5ED DUP2 PUSH3 0x5C4 JUMP JUMPDEST SWAP3 SWAP2 POP POP JUMP JUMPDEST PUSH0 DUP1 PUSH0 DUP1 PUSH0 DUP1 PUSH0 DUP1 PUSH2 0x100 DUP10 DUP12 SUB SLT ISZERO PUSH3 0x613 JUMPI PUSH3 0x612 PUSH3 0x3A4 JUMP JUMPDEST JUMPDEST PUSH0 DUP10 ADD MLOAD PUSH8 0xFFFFFFFFFFFFFFFF DUP2 GT ISZERO PUSH3 0x633 JUMPI PUSH3 0x632 PUSH3 0x3A8 JUMP JUMPDEST JUMPDEST PUSH3 0x641 DUP12 DUP3 DUP13 ADD PUSH3 0x4EE JUMP JUMPDEST SWAP9 POP POP PUSH1 0x20 DUP10 ADD MLOAD PUSH8 0xFFFFFFFFFFFFFFFF DUP2 GT ISZERO PUSH3 0x665 JUMPI PUSH3 0x664 PUSH3 0x3A8 JUMP JUMPDEST JUMPDEST PUSH3 0x673 DUP12 DUP3 DUP13 ADD PUSH3 0x4EE JUMP JUMPDEST SWAP8 POP POP PUSH1 0x40 PUSH3 0x686 DUP12 DUP3 DUP13 ADD PUSH3 0x56B JUMP JUMPDEST SWAP7 POP POP PUSH1 0x60 PUSH3 0x699 DUP12 DUP3 DUP13 ADD PUSH3 0x56B JUMP JUMPDEST SWAP6 POP POP PUSH1 0x80 PUSH3 0x6AC DUP12 DUP3 DUP13 ADD PUSH3 0x5A3 JUMP JUMPDEST SWAP5 POP POP PUSH1 0xA0 PUSH3 0x6BF DUP12 DUP3 DUP13 ADD PUSH3 0x5A3 JUMP JUMPDEST SWAP4 POP POP PUSH1 0xC0 PUSH3 0x6D2 DUP12 DUP3 DUP13 ADD PUSH3 0x5A3 JUMP JUMPDEST SWAP3 POP POP PUSH1 0xE0 PUSH3 0x6E5 DUP12 DUP3 DUP13 ADD PUSH3 0x5DD JUMP JUMPDEST SWAP2 POP POP SWAP3 SWAP6 SWAP9 POP SWAP3 SWAP6 SWAP9 SWAP1 SWAP4 SWAP7 POP JUMP JUMPDEST PUSH0 DUP2 MLOAD SWAP1 POP SWAP2 SWAP1 POP JUMP JUMPDEST PUSH32 0x4E487B7100000000000000000000000000000000000000000000000000000000 PUSH0 MSTORE PUSH1 0x22 PUSH1 0x4 MSTORE PUSH1 0x24 PUSH0 REVERT JUMPDEST PUSH0 PUSH1 0x2 DUP3 DIV SWAP1 POP PUSH1 0x1 DUP3 AND DUP1 PUSH3 0x744 JUMPI PUSH1 0x7F DUP3 AND SWAP2 POP JUMPDEST PUSH1 0x20 DUP3 LT DUP2 SUB PUSH3 0x75A JUMPI PUSH3 0x759 PUSH3 0x6FF JUMP JUMPDEST JUMPDEST POP SWAP2 SWAP1 POP JUMP JUMPDEST PUSH0 DUP2 SWAP1 POP DUP2 PUSH0 MSTORE PUSH1 0x20 PUSH0 KECCAK256 SWAP1 POP SWAP2 SWAP1 POP JUMP JUMPDEST PUSH0 PUSH1 0x20 PUSH1 0x1F DUP4 ADD DIV SWAP1 POP SWAP2 SWAP1 POP JUMP JUMPDEST PUSH0 DUP3 DUP3 SHL SWAP1 POP SWAP3 SWAP2 POP POP JUMP JUMPDEST PUSH0 PUSH1 0x8 DUP4 MUL PUSH3 0x7BE PUSH32 0xFFFFFFFFFFFFFFFFFFFFFFFFFFFFFFFFFFFFFFFFFFFFFFFFFFFFFFFFFFFFFFFF DUP3 PUSH3 0x781 JUMP JUMPDEST PUSH3 0x7CA DUP7 DUP4 PUSH3 0x781 JUMP JUMPDEST SWAP6 POP DUP1 NOT DUP5 AND SWAP4 POP DUP1 DUP7 AND DUP5 OR SWAP3 POP POP POP SWAP4 SWAP3 POP POP POP JUMP JUMPDEST PUSH0 DUP2 SWAP1 POP SWAP2 SWAP1 POP JUMP JUMPDEST PUSH0 PUSH3 0x80B PUSH3 0x805 PUSH3 0x7FF DUP5 PUSH3 0x581 JUMP JUMPDEST PUSH3 0x7E2 JUMP JUMPDEST PUSH3 0x581 JUMP JUMPDEST SWAP1 POP SWAP2 SWAP1 POP JUMP JUMPDEST PUSH0 DUP2 SWAP1 POP SWAP2 SWAP1 POP JUMP JUMPDEST PUSH3 0x826 DUP4 PUSH3 0x7EB JUMP JUMPDEST PUSH3 0x83E PUSH3 0x835 DUP3 PUSH3 0x812 JUMP JUMPDEST DUP5 DUP5 SLOAD PUSH3 0x78D JUMP JUMPDEST DUP3 SSTORE POP POP POP POP JUMP JUMPDEST PUSH0 SWAP1 JUMP JUMPDEST PUSH3 0x854 PUSH3 0x846 JUMP JUMPDEST PUSH3 0x861 DUP2 DUP5 DUP5 PUSH3 0x81B JUMP JUMPDEST POP POP POP JUMP JUMPDEST JUMPDEST DUP2 DUP2 LT ISZERO PUSH3 0x888 JUMPI PUSH3 0x87C PUSH0 DUP3 PUSH3 0x84A JUMP JUMPDEST PUSH1 0x1 DUP2 ADD SWAP1 POP PUSH3 0x867 JUMP JUMPDEST POP POP JUMP JUMPDEST PUSH1 0x1F DUP3 GT ISZERO PUSH3 0x8D7 JUMPI PUSH3 0x8A1 DUP2 PUSH3 0x760 JUMP JUMPDEST PUSH3 0x8AC DUP5 PUSH3 0x772 JUMP JUMPDEST DUP2 ADD PUSH1 0x20 DUP6 LT ISZERO PUSH3 0x8BC JUMPI DUP2 SWAP1 POP JUMPDEST PUSH3 0x8D4 PUSH3 0x8CB DUP6 PUSH3 0x772 JUMP JUMPDEST DUP4 ADD DUP3 PUSH3 0x866 JUMP JUMPDEST POP POP JUMPDEST POP POP POP JUMP JUMPDEST PUSH0 DUP3 DUP3 SHR SWAP1 POP SWAP3 SWAP2 POP POP JUMP JUMPDEST PUSH0 PUSH3 0x8F9 PUSH0 NOT DUP5 PUSH1 0x8 MUL PUSH3 0x8DC JUMP JUMPDEST NOT DUP1 DUP4 AND SWAP2 POP POP SWAP3 SWAP2 POP POP JUMP JUMPDEST PUSH0 PUSH3 0x913 DUP4 DUP4 PUSH3 0x8E8 JUMP JUMPDEST SWAP2 POP DUP3 PUSH1 0x2 MUL DUP3 OR SWAP1 POP SWAP3 SWAP2 POP POP JUMP JUMPDEST PUSH3 0x92E DUP3 PUSH3 0x6F5 JUMP JUMPDEST PUSH8 0xFFFFFFFFFFFFFFFF DUP2 GT ISZERO PUSH3 0x94A JUMPI PUSH3 0x949 PUSH3 0x3C4 JUMP JUMPDEST JUMPDEST PUSH3 0x956 DUP3 SLOAD PUSH3 0x72C JUMP JUMPDEST PUSH3 0x963 DUP3 DUP3 DUP6 PUSH3 0x88C JUMP JUMPDEST PUSH0 PUSH1 0x20 SWAP1 POP PUSH1 0x1F DUP4 GT PUSH1 0x1 DUP2 EQ PUSH3 0x999 JUMPI PUSH0 DUP5 ISZERO PUSH3 0x984 JUMPI DUP3 DUP8 ADD MLOAD SWAP1 POP JUMPDEST PUSH3 0x990 DUP6 DUP3 PUSH3 0x906 JUMP JUMPDEST DUP7 SSTORE POP PUSH3 0x9FF JUMP JUMPDEST PUSH1 0x1F NOT DUP5 AND PUSH3 0x9A9 DUP7 PUSH3 0x760 JUMP JUMPDEST PUSH0 JUMPDEST DUP3 DUP2 LT ISZERO PUSH3 0x9D2 JUMPI DUP5 DUP10 ADD MLOAD DUP3 SSTORE PUSH1 0x1 DUP3 ADD SWAP2 POP PUSH1 0x20 DUP6 ADD SWAP5 POP PUSH1 0x20 DUP2 ADD SWAP1 POP PUSH3 0x9AB JUMP JUMPDEST DUP7 DUP4 LT ISZERO PUSH3 0x9F2 JUMPI DUP5 DUP10 ADD MLOAD PUSH3 0x9EE PUSH1 0x1F DUP10 AND DUP3 PUSH3 0x8E8 JUMP JUMPDEST DUP4 SSTORE POP JUMPDEST PUSH1 0x1 PUSH1 0x2 DUP9 MUL ADD DUP9 SSTORE POP POP POP JUMPDEST POP POP POP POP POP POP JUMP JUMPDEST PUSH3 0xA12 DUP2 PUSH3 0x53F JUMP JUMPDEST DUP3 MSTORE POP POP JUMP JUMPDEST PUSH0 PUSH1 0x20 DUP3 ADD SWAP1 POP PUSH3 0xA2D PUSH0 DUP4 ADD DUP5 PUSH3 0xA07 JUMP JUMPDEST SWAP3 SWAP2 POP POP JUMP JUMPDEST PUSH2 0x15FF DUP1 PUSH3 0xA41 PUSH0 CODECOPY PUSH0 RETURN INVALID PUSH1 0x80 PUSH1 0x40 MSTORE CALLVALUE DUP1 ISZERO PUSH2 0xF JUMPI PUSH0 DUP1 REVERT JUMPDEST POP PUSH1 0x4 CALLDATASIZE LT PUSH2 0x171 JUMPI PUSH0 CALLDATALOAD PUSH1 0xE0 SHR DUP1 PUSH4 0x8F620487 GT PUSH2 0xDC JUMPI DUP1 PUSH4 0xB8A11E82 GT PUSH2 0x95 JUMPI DUP1 PUSH4 0xDD62ED3E GT PUSH2 0x6F JUMPI DUP1 PUSH4 0xDD62ED3E EQ PUSH2 0x41F JUMPI DUP1 PUSH4 0xF2FDE38B EQ PUSH2 0x44F JUMPI DUP1 PUSH4 0xF3C274A6 EQ PUSH2 0x46B JUMPI DUP1 PUSH4 0xFFD9EEDB EQ PUSH2 0x489 JUMPI PUSH2 0x171 JUMP JUMPDEST DUP1 PUSH4 0xB8A11E82 EQ PUSH2 0x3C5 JUMPI DUP1 PUSH4 0xCFB4FC71 EQ PUSH2 0x3E3 JUMPI DUP1 PUSH4 0xD8DFEB45 EQ PUSH2 0x401 JUMPI PUSH2 0x171 JUMP JUMPDEST DUP1 PUSH4 0x8F620487 EQ PUSH2 0x2FF JUMPI DUP1 PUSH4 0x95D89B41 EQ PUSH2 0x31D JUMPI DUP1 PUSH4 0x9ACEA70D EQ PUSH2 0x33B JUMPI DUP1 PUSH4 0xA9059CBB EQ PUSH2 0x359 JUMPI DUP1 PUSH4 0xAC6068B5 EQ PUSH2 0x389 JUMPI DUP1 PUSH4 0xB5113D90 EQ PUSH2 0x3A7 JUMPI PUSH2 0x171 JUMP JUMPDEST DUP1 PUSH4 0x313CE567 GT PUSH2 0x12E JUMPI DUP1 PUSH4 0x313CE567 EQ PUSH2 0x24D JUMPI DUP1 PUSH4 0x48D399E7 EQ PUSH2 0x26B JUMPI DUP1 PUSH4 0x6F713C9C EQ PUSH2 0x289 JUMPI DUP1 PUSH4 0x70A08231 EQ PUSH2 0x2A7 JUMPI DUP1 PUSH4 0x715018A6 EQ PUSH2 0x2D7 JUMPI DUP1 PUSH4 0x8DA5CB5B EQ PUSH2 0x2E1 JUMPI PUSH2 0x171 JUMP JUMPDEST DUP1 PUSH4 0x6FDDE03 EQ PUSH2 0x175 JUMPI DUP1 PUSH4 0x95EA7B3 EQ PUSH2 0x193 JUMPI DUP1 PUSH4 0x1529A639 EQ PUSH2 0x1C3 JUMPI DUP1 PUSH4 0x18160DDD EQ PUSH2 0x1E1 JUMPI DUP1 PUSH4 0x23B872DD EQ PUSH2 0x1FF JUMPI DUP1 PUSH4 0x2F13B60C EQ PUSH2 0x22F JUMPI JUMPDEST PUSH0 DUP1 REVERT JUMPDEST PUSH2 0x17D PUSH2 0x4A7 JUMP JUMPDEST PUSH1 0x40 MLOAD PUSH2 0x18A SWAP2 SWAP1 PUSH2 0x11C5 JUMP JUMPDEST PUSH1 0x40 MLOAD DUP1 SWAP2 SUB SWAP1 RETURN JUMPDEST PUSH2 0x1AD PUSH1 0x4 DUP1 CALLDATASIZE SUB DUP2 ADD SWAP1 PUSH2 0x1A8 SWAP2 SWAP1 PUSH2 0x1276 JUMP JUMPDEST PUSH2 0x537 JUMP JUMPDEST PUSH1 0x40 MLOAD PUSH2 0x1BA SWAP2 SWAP1 PUSH2 0x12CE JUMP JUMPDEST PUSH1 0x40 MLOAD DUP1 SWAP2 SUB SWAP1 RETURN JUMPDEST PUSH2 0x1CB PUSH2 0x559 JUMP JUMPDEST PUSH1 0x40 MLOAD PUSH2 0x1D8 SWAP2 SWAP1 PUSH2 0x12F6 JUMP JUMPDEST PUSH1 0x40 MLOAD DUP1 SWAP2 SUB SWAP1 RETURN JUMPDEST PUSH2 0x1E9 PUSH2 0x5F9 JUMP JUMPDEST PUSH1 0x40 MLOAD PUSH2 0x1F6 SWAP2 SWAP1 PUSH2 0x12F6 JUMP JUMPDEST PUSH1 0x40 MLOAD DUP1 SWAP2 SUB SWAP1 RETURN JUMPDEST PUSH2 0x219 PUSH1 0x4 DUP1 CALLDATASIZE SUB DUP2 ADD SWAP1 PUSH2 0x214 SWAP2 SWAP1 PUSH2 0x130F JUMP JUMPDEST PUSH2 0x602 JUMP JUMPDEST PUSH1 0x40 MLOAD PUSH2 0x226 SWAP2 SWAP1 PUSH2 0x12CE JUMP JUMPDEST PUSH1 0x40 MLOAD DUP1 SWAP2 SUB SWAP1 RETURN JUMPDEST PUSH2 0x237 PUSH2 0x630 JUMP JUMPDEST PUSH1 0x40 MLOAD PUSH2 0x244 SWAP2 SWAP1 PUSH2 0x12CE JUMP JUMPDEST PUSH1 0x40 MLOAD DUP1 SWAP2 SUB SWAP1 RETURN JUMPDEST PUSH2 0x255 PUSH2 0x63C JUMP JUMPDEST PUSH1 0x40 MLOAD PUSH2 0x262 SWAP2 SWAP1 PUSH2 0x137A JUMP JUMPDEST PUSH1 0x40 MLOAD DUP1 SWAP2 SUB SWAP1 RETURN JUMPDEST PUSH2 0x273 PUSH2 0x644 JUMP JUMPDEST PUSH1 0x40 MLOAD PUSH2 0x280 SWAP2 SWAP1 PUSH2 0x13A2 JUMP JUMPDEST PUSH1 0x40 MLOAD DUP1 SWAP2 SUB SWAP1 RETURN JUMPDEST PUSH2 0x291 PUSH2 0x669 JUMP JUMPDEST PUSH1 0x40 MLOAD PUSH2 0x29E SWAP2 SWAP1 PUSH2 0x1416 JUMP JUMPDEST PUSH1 0x40 MLOAD DUP1 SWAP2 SUB SWAP1 RETURN JUMPDEST PUSH2 0x2C1 PUSH1 0x4 DUP1 CALLDATASIZE SUB DUP2 ADD SWAP1 PUSH2 0x2BC SWAP2 SWAP1 PUSH2 0x142F JUMP JUMPDEST PUSH2 0x68E JUMP JUMPDEST PUSH1 0x40 MLOAD PUSH2 0x2CE SWAP2 SWAP1 PUSH2 0x12F6 JUMP JUMPDEST PUSH1 0x40 MLOAD DUP1 SWAP2 SUB SWAP1 RETURN JUMPDEST PUSH2 0x2DF PUSH2 0x6D3 JUMP JUMPDEST STOP JUMPDEST PUSH2 0x2E9 PUSH2 0x6E6 JUMP JUMPDEST PUSH1 0x40 MLOAD PUSH2 0x2F6 SWAP2 SWAP1 PUSH2 0x13A2 JUMP JUMPDEST PUSH1 0x40 MLOAD DUP1 SWAP2 SUB SWAP1 RETURN JUMPDEST PUSH2 0x307 PUSH2 0x70E JUMP JUMPDEST PUSH1 0x40 MLOAD PUSH2 0x314 SWAP2 SWAP1 PUSH2 0x12F6 JUMP JUMPDEST PUSH1 0x40 MLOAD DUP1 SWAP2 SUB SWAP1 RETURN JUMPDEST PUSH2 0x325 PUSH2 0x714 JUMP JUMPDEST PUSH1 0x40 MLOAD PUSH2 0x332 SWAP2 SWAP1 PUSH2 0x11C5 JUMP JUMPDEST PUSH1 0x40 MLOAD DUP1 SWAP2 SUB SWAP1 RETURN JUMPDEST PUSH2 0x343 PUSH2 0x7A4 JUMP JUMPDEST PUSH1 0x40 MLOAD PUSH2 0x350 SWAP2 SWAP1 PUSH2 0x13A2 JUMP JUMPDEST PUSH1 0x40 MLOAD DUP1 SWAP2 SUB SWAP1 RETURN JUMPDEST PUSH2 0x373 PUSH1 0x4 DUP1 CALLDATASIZE SUB DUP2 ADD SWAP1 PUSH2 0x36E SWAP2 SWAP1 PUSH2 0x1276 JUMP JUMPDEST PUSH2 0x7C9 JUMP JUMPDEST PUSH1 0x40 MLOAD PUSH2 0x380 SWAP2 SWAP1 PUSH2 0x12CE JUMP JUMPDEST PUSH1 0x40 MLOAD DUP1 SWAP2 SUB SWAP1 RETURN JUMPDEST PUSH2 0x391 PUSH2 0x7EB JUMP JUMPDEST PUSH1 0x40 MLOAD PUSH2 0x39E SWAP2 SWAP1 PUSH2 0x12CE JUMP JUMPDEST PUSH1 0x40 MLOAD DUP1 SWAP2 SUB SWAP1 RETURN JUMPDEST PUSH2 0x3AF PUSH2 0x7F6 JUMP JUMPDEST PUSH1 0x40 MLOAD PUSH2 0x3BC SWAP2 SWAP1 PUSH2 0x12F6 JUMP JUMPDEST PUSH1 0x40 MLOAD DUP1 SWAP2 SUB SWAP1 RETURN JUMPDEST PUSH2 0x3CD PUSH2 0x895 JUMP JUMPDEST PUSH1 0x40 MLOAD PUSH2 0x3DA SWAP2 SWAP1 PUSH2 0x12F6 JUMP JUMPDEST PUSH1 0x40 MLOAD DUP1 SWAP2 SUB SWAP1 RETURN JUMPDEST PUSH2 0x3EB PUSH2 0x89B JUMP JUMPDEST PUSH1 0x40 MLOAD PUSH2 0x3F8 SWAP2 SWAP1 PUSH2 0x12F6 JUMP JUMPDEST PUSH1 0x40 MLOAD DUP1 SWAP2 SUB SWAP1 RETURN JUMPDEST PUSH2 0x409 PUSH2 0x8A1 JUMP JUMPDEST PUSH1 0x40 MLOAD PUSH2 0x416 SWAP2 SWAP1 PUSH2 0x1416 JUMP JUMPDEST PUSH1 0x40 MLOAD DUP1 SWAP2 SUB SWAP1 RETURN JUMPDEST PUSH2 0x439 PUSH1 0x4 DUP1 CALLDATASIZE SUB DUP2 ADD SWAP1 PUSH2 0x434 SWAP2 SWAP1 PUSH2 0x145A JUMP JUMPDEST PUSH2 0x8C7 JUMP JUMPDEST PUSH1 0x40 MLOAD PUSH2 0x446 SWAP2 SWAP1 PUSH2 0x12F6 JUMP JUMPDEST PUSH1 0x40 MLOAD DUP1 SWAP2 SUB SWAP1 RETURN JUMPDEST PUSH2 0x469 PUSH1 0x4 DUP1 CALLDATASIZE SUB DUP2 ADD SWAP1 PUSH2 0x464 SWAP2 SWAP1 PUSH2 0x142F JUMP JUMPDEST PUSH2 0x949 JUMP JUMPDEST STOP JUMPDEST PUSH2 0x473 PUSH2 0x9CD JUMP JUMPDEST PUSH1 0x40 MLOAD PUSH2 0x480 SWAP2 SWAP1 PUSH2 0x12CE JUMP JUMPDEST PUSH1 0x40 MLOAD DUP1 SWAP2 SUB SWAP1 RETURN JUMPDEST PUSH2 0x491 PUSH2 0x9DF JUMP JUMPDEST PUSH1 0x40 MLOAD PUSH2 0x49E SWAP2 SWAP1 PUSH2 0x11C5 JUMP JUMPDEST PUSH1 0x40 MLOAD DUP1 SWAP2 SUB SWAP1 RETURN JUMPDEST PUSH1 0x60 PUSH1 0x3 DUP1 SLOAD PUSH2 0x4B6 SWAP1 PUSH2 0x14C5 JUMP JUMPDEST DUP1 PUSH1 0x1F ADD PUSH1 0x20 DUP1 SWAP2 DIV MUL PUSH1 0x20 ADD PUSH1 0x40 MLOAD SWAP1 DUP2 ADD PUSH1 0x40 MSTORE DUP1 SWAP3 SWAP2 SWAP1 DUP2 DUP2 MSTORE PUSH1 0x20 ADD DUP3 DUP1 SLOAD PUSH2 0x4E2 SWAP1 PUSH2 0x14C5 JUMP JUMPDEST DUP1 ISZERO PUSH2 0x52D JUMPI DUP1 PUSH1 0x1F LT PUSH2 0x504 JUMPI PUSH2 0x100 DUP1 DUP4 SLOAD DIV MUL DUP4 MSTORE SWAP2 PUSH1 0x20 ADD SWAP2 PUSH2 0x52D JUMP JUMPDEST DUP3 ADD SWAP2 SWAP1 PUSH0 MSTORE PUSH1 0x20 PUSH0 KECCAK256 SWAP1 JUMPDEST DUP2 SLOAD DUP2 MSTORE SWAP1 PUSH1 0x1 ADD SWAP1 PUSH1 0x20 ADD DUP1 DUP4 GT PUSH2 0x510 JUMPI DUP3 SWAP1 SUB PUSH1 0x1F AND DUP3 ADD SWAP2 JUMPDEST POP POP POP POP POP SWAP1 POP SWAP1 JUMP JUMPDEST PUSH0 DUP1 PUSH2 0x541 PUSH2 0xA6E JUMP JUMPDEST SWAP1 POP PUSH2 0x54E DUP2 DUP6 DUP6 PUSH2 0xA75 JUMP JUMPDEST PUSH1 0x1 SWAP2 POP POP SWAP3 SWAP2 POP POP JUMP JUMPDEST PUSH0 PUSH1 0xC PUSH1 0x1 SWAP1 SLOAD SWAP1 PUSH2 0x100 EXP SWAP1 DIV PUSH20 0xFFFFFFFFFFFFFFFFFFFFFFFFFFFFFFFFFFFFFFFF AND PUSH20 0xFFFFFFFFFFFFFFFFFFFFFFFFFFFFFFFFFFFFFFFF AND PUSH4 0x70A08231 ADDRESS PUSH1 0x40 MLOAD DUP3 PUSH4 0xFFFFFFFF AND PUSH1 0xE0 SHL DUP2 MSTORE PUSH1 0x4 ADD PUSH2 0x5B5 SWAP2 SWAP1 PUSH2 0x13A2 JUMP JUMPDEST PUSH1 0x20 PUSH1 0x40 MLOAD DUP1 DUP4 SUB DUP2 DUP7 GAS STATICCALL ISZERO DUP1 ISZERO PUSH2 0x5D0 JUMPI RETURNDATASIZE PUSH0 DUP1 RETURNDATACOPY RETURNDATASIZE PUSH0 REVERT JUMPDEST POP POP POP POP PUSH1 0x40 MLOAD RETURNDATASIZE PUSH1 0x1F NOT PUSH1 0x1F DUP3 ADD AND DUP3 ADD DUP1 PUSH1 0x40 MSTORE POP DUP2 ADD SWAP1 PUSH2 0x5F4 SWAP2 SWAP1 PUSH2 0x1509 JUMP JUMPDEST SWAP1 POP SWAP1 JUMP JUMPDEST PUSH0 PUSH1 0x2 SLOAD SWAP1 POP SWAP1 JUMP JUMPDEST PUSH0 DUP1 PUSH2 0x60C PUSH2 0xA6E JUMP JUMPDEST SWAP1 POP PUSH2 0x619 DUP6 DUP3 DUP6 PUSH2 0xA87 JUMP JUMPDEST PUSH2 0x624 DUP6 DUP6 DUP6 PUSH2 0xB19 JUMP JUMPDEST PUSH1 0x1 SWAP2 POP POP SWAP4 SWAP3 POP POP POP JUMP JUMPDEST PUSH0 PUSH1 0x9 SLOAD TIMESTAMP LT ISZERO SWAP1 POP SWAP1 JUMP JUMPDEST PUSH0 PUSH1 0x12 SWAP1 POP SWAP1 JUMP JUMPDEST PUSH1 0x7 PUSH0 SWAP1 SLOAD SWAP1 PUSH2 0x100 EXP SWAP1 DIV PUSH20 0xFFFFFFFFFFFFFFFFFFFFFFFFFFFFFFFFFFFFFFFF AND DUP2 JUMP JUMPDEST PUSH1 0xD PUSH0 SWAP1 SLOAD SWAP1 PUSH2 0x100 EXP SWAP1 DIV PUSH20 0xFFFFFFFFFFFFFFFFFFFFFFFFFFFFFFFFFFFFFFFF AND DUP2 JUMP JUMPDEST PUSH0 DUP1 PUSH0 DUP4 PUSH20 0xFFFFFFFFFFFFFFFFFFFFFFFFFFFFFFFFFFFFFFFF AND PUSH20 0xFFFFFFFFFFFFFFFFFFFFFFFFFFFFFFFFFFFFFFFF AND DUP2 MSTORE PUSH1 0x20 ADD SWAP1 DUP2 MSTORE PUSH1 0x20 ADD PUSH0 KECCAK256 SLOAD SWAP1 POP SWAP2 SWAP1 POP JUMP JUMPDEST PUSH2 0x6DB PUSH2 0xC09 JUMP JUMPDEST PUSH2 0x6E4 PUSH0 PUSH2 0xC90 JUMP JUMPDEST JUMP JUMPDEST PUSH0 PUSH1 0x5 PUSH0 SWAP1 SLOAD SWAP1 PUSH2 0x100 EXP SWAP1 DIV PUSH20 0xFFFFFFFFFFFFFFFFFFFFFFFFFFFFFFFFFFFFFFFF AND SWAP1 POP SWAP1 JUMP JUMPDEST PUSH1 0x9 SLOAD DUP2 JUMP JUMPDEST PUSH1 0x60 PUSH1 0x4 DUP1 SLOAD PUSH2 0x723 SWAP1 PUSH2 0x14C5 JUMP JUMPDEST DUP1 PUSH1 0x1F ADD PUSH1 0x20 DUP1 SWAP2 DIV MUL PUSH1 0x20 ADD PUSH1 0x40 MLOAD SWAP1 DUP2 ADD PUSH1 0x40 MSTORE DUP1 SWAP3 SWAP2 SWAP1 DUP2 DUP2 MSTORE PUSH1 0x20 ADD DUP3 DUP1 SLOAD PUSH2 0x74F SWAP1 PUSH2 0x14C5 JUMP JUMPDEST DUP1 ISZERO PUSH2 0x79A JUMPI DUP1 PUSH1 0x1F LT PUSH2 0x771 JUMPI PUSH2 0x100 DUP1 DUP4 SLOAD DIV MUL DUP4 MSTORE SWAP2 PUSH1 0x20 ADD SWAP2 PUSH2 0x79A JUMP JUMPDEST DUP3 ADD SWAP2 SWAP1 PUSH0 MSTORE PUSH1 0x20 PUSH0 KECCAK256 SWAP1 JUMPDEST DUP2 SLOAD DUP2 MSTORE SWAP1 PUSH1 0x1 ADD SWAP1 PUSH1 0x20 ADD DUP1 DUP4 GT PUSH2 0x77D JUMPI DUP3 SWAP1 SUB PUSH1 0x1F AND DUP3 ADD SWAP2 JUMPDEST POP POP POP POP POP SWAP1 POP SWAP1 JUMP JUMPDEST PUSH1 0x8 PUSH0 SWAP1 SLOAD SWAP1 PUSH2 0x100 EXP SWAP1 DIV PUSH20 0xFFFFFFFFFFFFFFFFFFFFFFFFFFFFFFFFFFFFFFFF AND DUP2 JUMP JUMPDEST PUSH0 DUP1 PUSH2 0x7D3 PUSH2 0xA6E JUMP JUMPDEST SWAP1 POP PUSH2 0x7E0 DUP2 DUP6 DUP6 PUSH2 0xB19 JUMP JUMPDEST PUSH1 0x1 SWAP2 POP POP SWAP3 SWAP2 POP POP JUMP JUMPDEST PUSH0 PUSH1 0x9 SLOAD TIMESTAMP LT SWAP1 POP SWAP1 JUMP JUMPDEST PUSH0 PUSH1 0xD PUSH0 SWAP1 SLOAD SWAP1 PUSH2 0x100 EXP SWAP1 DIV PUSH20 0xFFFFFFFFFFFFFFFFFFFFFFFFFFFFFFFFFFFFFFFF AND PUSH20 0xFFFFFFFFFFFFFFFFFFFFFFFFFFFFFFFFFFFFFFFF AND PUSH4 0x70A08231 ADDRESS PUSH1 0x40 MLOAD DUP3 PUSH4 0xFFFFFFFF AND PUSH1 0xE0 SHL DUP2 MSTORE PUSH1 0x4 ADD PUSH2 0x851 SWAP2 SWAP1 PUSH2 0x13A2 JUMP JUMPDEST PUSH1 0x20 PUSH1 0x40 MLOAD DUP1 DUP4 SUB DUP2 DUP7 GAS STATICCALL ISZERO DUP1 ISZERO PUSH2 0x86C JUMPI RETURNDATASIZE PUSH0 DUP1 RETURNDATACOPY RETURNDATASIZE PUSH0 REVERT JUMPDEST POP POP POP POP PUSH1 0x40 MLOAD RETURNDATASIZE PUSH1 0x1F NOT PUSH1 0x1F DUP3 ADD AND DUP3 ADD DUP1 PUSH1 0x40 MSTORE POP DUP2 ADD SWAP1 PUSH2 0x890 SWAP2 SWAP1 PUSH2 0x1509 JUMP JUMPDEST SWAP1 POP SWAP1 JUMP JUMPDEST PUSH1 0xA SLOAD DUP2 JUMP JUMPDEST PUSH1 0xB SLOAD DUP2 JUMP JUMPDEST PUSH1 0xC PUSH1 0x1 SWAP1 SLOAD SWAP1 PUSH2 0x100 EXP SWAP1 DIV PUSH20 0xFFFFFFFFFFFFFFFFFFFFFFFFFFFFFFFFFFFFFFFF AND DUP2 JUMP JUMPDEST PUSH0 PUSH1 0x1 PUSH0 DUP5 PUSH20 0xFFFFFFFFFFFFFFFFFFFFFFFFFFFFFFFFFFFFFFFF AND PUSH20 0xFFFFFFFFFFFFFFFFFFFFFFFFFFFFFFFFFFFFFFFF AND DUP2 MSTORE PUSH1 0x20 ADD SWAP1 DUP2 MSTORE PUSH1 0x20 ADD PUSH0 KECCAK256 PUSH0 DUP4 PUSH20 0xFFFFFFFFFFFFFFFFFFFFFFFFFFFFFFFFFFFFFFFF AND PUSH20 0xFFFFFFFFFFFFFFFFFFFFFFFFFFFFFFFFFFFFFFFF AND DUP2 MSTORE PUSH1 0x20 ADD SWAP1 DUP2 MSTORE PUSH1 0x20 ADD PUSH0 KECCAK256 SLOAD SWAP1 POP SWAP3 SWAP2 POP POP JUMP JUMPDEST PUSH2 0x951 PUSH2 0xC09 JUMP JUMPDEST PUSH0 PUSH20 0xFFFFFFFFFFFFFFFFFFFFFFFFFFFFFFFFFFFFFFFF AND DUP2 PUSH20 0xFFFFFFFFFFFFFFFFFFFFFFFFFFFFFFFFFFFFFFFF AND SUB PUSH2 0x9C1 JUMPI PUSH0 PUSH1 0x40 MLOAD PUSH32 0x1E4FBDF700000000000000000000000000000000000000000000000000000000 DUP2 MSTORE PUSH1 0x4 ADD PUSH2 0x9B8 SWAP2 SWAP1 PUSH2 0x13A2 JUMP JUMPDEST PUSH1 0x40 MLOAD DUP1 SWAP2 SUB SWAP1 REVERT JUMPDEST PUSH2 0x9CA DUP2 PUSH2 0xC90 JUMP JUMPDEST POP JUMP JUMPDEST PUSH1 0xC PUSH0 SWAP1 SLOAD SWAP1 PUSH2 0x100 EXP SWAP1 DIV PUSH1 0xFF AND DUP2 JUMP JUMPDEST PUSH1 0x60 PUSH1 0xC PUSH0 SWAP1 SLOAD SWAP1 PUSH2 0x100 EXP SWAP1 DIV PUSH1 0xFF AND ISZERO PUSH2 0xA32 JUMPI PUSH1 0x40 MLOAD DUP1 PUSH1 0x40 ADD PUSH1 0x40 MSTORE DUP1 PUSH1 0x3 DUP2 MSTORE PUSH1 0x20 ADD PUSH32 0x5055540000000000000000000000000000000000000000000000000000000000 DUP2 MSTORE POP SWAP1 POP PUSH2 0xA6B JUMP JUMPDEST PUSH1 0x40 MLOAD DUP1 PUSH1 0x40 ADD PUSH1 0x40 MSTORE DUP1 PUSH1 0x4 DUP2 MSTORE PUSH1 0x20 ADD PUSH32 0x43414C4C00000000000000000000000000000000000000000000000000000000 DUP2 MSTORE POP SWAP1 POP JUMPDEST SWAP1 JUMP JUMPDEST PUSH0 CALLER SWAP1 POP SWAP1 JUMP JUMPDEST PUSH2 0xA82 DUP4 DUP4 DUP4 PUSH1 0x1 PUSH2 0xD53 JUMP JUMPDEST POP POP POP JUMP JUMPDEST PUSH0 PUSH2 0xA92 DUP5 DUP5 PUSH2 0x8C7 JUMP JUMPDEST SWAP1 POP PUSH32 0xFFFFFFFFFFFFFFFFFFFFFFFFFFFFFFFFFFFFFFFFFFFFFFFFFFFFFFFFFFFFFFFF DUP2 EQ PUSH2 0xB13 JUMPI DUP2 DUP2 LT ISZERO PUSH2 0xB04 JUMPI DUP3 DUP2 DUP4 PUSH1 0x40 MLOAD PUSH32 0xFB8F41B200000000000000000000000000000000000000000000000000000000 DUP2 MSTORE PUSH1 0x4 ADD PUSH2 0xAFB SWAP4 SWAP3 SWAP2 SWAP1 PUSH2 0x1534 JUMP JUMPDEST PUSH1 0x40 MLOAD DUP1 SWAP2 SUB SWAP1 REVERT JUMPDEST PUSH2 0xB12 DUP5 DUP5 DUP5 DUP5 SUB PUSH0 PUSH2 0xD53 JUMP JUMPDEST JUMPDEST POP POP POP POP JUMP JUMPDEST PUSH0 PUSH20 0xFFFFFFFFFFFFFFFFFFFFFFFFFFFFFFFFFFFFFFFF AND DUP4 PUSH20 0xFFFFFFFFFFFFFFFFFFFFFFFFFFFFFFFFFFFFFFFF AND SUB PUSH2 0xB89 JUMPI PUSH0 PUSH1 0x40 MLOAD PUSH32 0x96C6FD1E00000000000000000000000000000000000000000000000000000000 DUP2 MSTORE PUSH1 0x4 ADD PUSH2 0xB80 SWAP2 SWAP1 PUSH2 0x13A2 JUMP JUMPDEST PUSH1 0x40 MLOAD DUP1 SWAP2 SUB SWAP1 REVERT JUMPDEST PUSH0 PUSH20 0xFFFFFFFFFFFFFFFFFFFFFFFFFFFFFFFFFFFFFFFF AND DUP3 PUSH20 0xFFFFFFFFFFFFFFFFFFFFFFFFFFFFFFFFFFFFFFFF AND SUB PUSH2 0xBF9 JUMPI PUSH0 PUSH1 0x40 MLOAD PUSH32 0xEC442F0500000000000000000000000000000000000000000000000000000000 DUP2 MSTORE PUSH1 0x4 ADD PUSH2 0xBF0 SWAP2 SWAP1 PUSH2 0x13A2 JUMP JUMPDEST PUSH1 0x40 MLOAD DUP1 SWAP2 SUB SWAP1 REVERT JUMPDEST PUSH2 0xC04 DUP4 DUP4 DUP4 PUSH2 0xF22 JUMP JUMPDEST POP POP POP JUMP JUMPDEST PUSH2 0xC11 PUSH2 0xA6E JUMP JUMPDEST PUSH20 0xFFFFFFFFFFFFFFFFFFFFFFFFFFFFFFFFFFFFFFFF AND PUSH2 0xC2F PUSH2 0x6E6 JUMP JUMPDEST PUSH20 0xFFFFFFFFFFFFFFFFFFFFFFFFFFFFFFFFFFFFFFFF AND EQ PUSH2 0xC8E JUMPI PUSH2 0xC52 PUSH2 0xA6E JUMP JUMPDEST PUSH1 0x40 MLOAD PUSH32 0x118CDAA700000000000000000000000000000000000000000000000000000000 DUP2 MSTORE PUSH1 0x4 ADD PUSH2 0xC85 SWAP2 SWAP1 PUSH2 0x13A2 JUMP JUMPDEST PUSH1 0x40 MLOAD DUP1 SWAP2 SUB SWAP1 REVERT JUMPDEST JUMP JUMPDEST PUSH0 PUSH1 0x5 PUSH0 SWAP1 SLOAD SWAP1 PUSH2 0x100 EXP SWAP1 DIV PUSH20 0xFFFFFFFFFFFFFFFFFFFFFFFFFFFFFFFFFFFFFFFF AND SWAP1 POP DUP2 PUSH1 0x5 PUSH0 PUSH2 0x100 EXP DUP2 SLOAD DUP2 PUSH20 0xFFFFFFFFFFFFFFFFFFFFFFFFFFFFFFFFFFFFFFFF MUL NOT AND SWAP1 DUP4 PUSH20 0xFFFFFFFFFFFFFFFFFFFFFFFFFFFFFFFFFFFFFFFF AND MUL OR SWAP1 SSTORE POP DUP2 PUSH20 0xFFFFFFFFFFFFFFFFFFFFFFFFFFFFFFFFFFFFFFFF AND DUP2 PUSH20 0xFFFFFFFFFFFFFFFFFFFFFFFFFFFFFFFFFFFFFFFF AND PUSH32 0x8BE0079C531659141344CD1FD0A4F28419497F9722A3DAAFE3B4186F6B6457E0 PUSH1 0x40 MLOAD PUSH1 0x40 MLOAD DUP1 SWAP2 SUB SWAP1 LOG3 POP POP JUMP JUMPDEST PUSH0 PUSH20 0xFFFFFFFFFFFFFFFFFFFFFFFFFFFFFFFFFFFFFFFF AND DUP5 PUSH20 0xFFFFFFFFFFFFFFFFFFFFFFFFFFFFFFFFFFFFFFFF AND SUB PUSH2 0xDC3 JUMPI PUSH0 PUSH1 0x40 MLOAD PUSH32 0xE602DF0500000000000000000000000000000000000000000000000000000000 DUP2 MSTORE PUSH1 0x4 ADD PUSH2 0xDBA SWAP2 SWAP1 PUSH2 0x13A2 JUMP JUMPDEST PUSH1 0x40 MLOAD DUP1 SWAP2 SUB SWAP1 REVERT JUMPDEST PUSH0 PUSH20 0xFFFFFFFFFFFFFFFFFFFFFFFFFFFFFFFFFFFFFFFF AND DUP4 PUSH20 0xFFFFFFFFFFFFFFFFFFFFFFFFFFFFFFFFFFFFFFFF AND SUB PUSH2 0xE33 JUMPI PUSH0 PUSH1 0x40 MLOAD PUSH32 0x94280D6200000000000000000000000000000000000000000000000000000000 DUP2 MSTORE PUSH1 0x4 ADD PUSH2 0xE2A SWAP2 SWAP1 PUSH2 0x13A2 JUMP JUMPDEST PUSH1 0x40 MLOAD DUP1 SWAP2 SUB SWAP1 REVERT JUMPDEST DUP2 PUSH1 0x1 PUSH0 DUP7 PUSH20 0xFFFFFFFFFFFFFFFFFFFFFFFFFFFFFFFFFFFFFFFF AND PUSH20 0xFFFFFFFFFFFFFFFFFFFFFFFFFFFFFFFFFFFFFFFF AND DUP2 MSTORE PUSH1 0x20 ADD SWAP1 DUP2 MSTORE PUSH1 0x20 ADD PUSH0 KECCAK256 PUSH0 DUP6 PUSH20 0xFFFFFFFFFFFFFFFFFFFFFFFFFFFFFFFFFFFFFFFF AND PUSH20 0xFFFFFFFFFFFFFFFFFFFFFFFFFFFFFFFFFFFFFFFF AND DUP2 MSTORE PUSH1 0x20 ADD SWAP1 DUP2 MSTORE PUSH1 0x20 ADD PUSH0 KECCAK256 DUP2 SWAP1 SSTORE POP DUP1 ISZERO PUSH2 0xF1C JUMPI DUP3 PUSH20 0xFFFFFFFFFFFFFFFFFFFFFFFFFFFFFFFFFFFFFFFF AND DUP5 PUSH20 0xFFFFFFFFFFFFFFFFFFFFFFFFFFFFFFFFFFFFFFFF AND PUSH32 0x8C5BE1E5EBEC7D5BD14F71427D1E84F3DD0314C0F7B2291E5B200AC8C7C3B925 DUP5 PUSH1 0x40 MLOAD PUSH2 0xF13 SWAP2 SWAP1 PUSH2 0x12F6 JUMP JUMPDEST PUSH1 0x40 MLOAD DUP1 SWAP2 SUB SWAP1 LOG3 JUMPDEST POP POP POP POP JUMP JUMPDEST PUSH0 PUSH20 0xFFFFFFFFFFFFFFFFFFFFFFFFFFFFFFFFFFFFFFFF AND DUP4 PUSH20 0xFFFFFFFFFFFFFFFFFFFFFFFFFFFFFFFFFFFFFFFF AND SUB PUSH2 0xF72 JUMPI DUP1 PUSH1 0x2 PUSH0 DUP3 DUP3 SLOAD PUSH2 0xF66 SWAP2 SWAP1 PUSH2 0x1596 JUMP JUMPDEST SWAP3 POP POP DUP2 SWAP1 SSTORE POP PUSH2 0x1040 JUMP JUMPDEST PUSH0 DUP1 PUSH0 DUP6 PUSH20 0xFFFFFFFFFFFFFFFFFFFFFFFFFFFFFFFFFFFFFFFF AND PUSH20 0xFFFFFFFFFFFFFFFFFFFFFFFFFFFFFFFFFFFFFFFF AND DUP2 MSTORE PUSH1 0x20 ADD SWAP1 DUP2 MSTORE PUSH1 0x20 ADD PUSH0 KECCAK256 SLOAD SWAP1 POP DUP2 DUP2 LT ISZERO PUSH2 0xFFB JUMPI DUP4 DUP2 DUP4 PUSH1 0x40 MLOAD PUSH32 0xE450D38C00000000000000000000000000000000000000000000000000000000 DUP2 MSTORE PUSH1 0x4 ADD PUSH2 0xFF2 SWAP4 SWAP3 SWAP2 SWAP1 PUSH2 0x1534 JUMP JUMPDEST PUSH1 0x40 MLOAD DUP1 SWAP2 SUB SWAP1 REVERT JUMPDEST DUP2 DUP2 SUB PUSH0 DUP1 DUP7 PUSH20 0xFFFFFFFFFFFFFFFFFFFFFFFFFFFFFFFFFFFFFFFF AND PUSH20 0xFFFFFFFFFFFFFFFFFFFFFFFFFFFFFFFFFFFFFFFF AND DUP2 MSTORE PUSH1 0x20 ADD SWAP1 DUP2 MSTORE PUSH1 0x20 ADD PUSH0 KECCAK256 DUP2 SWAP1 SSTORE POP POP JUMPDEST PUSH0 PUSH20 0xFFFFFFFFFFFFFFFFFFFFFFFFFFFFFFFFFFFFFFFF AND DUP3 PUSH20 0xFFFFFFFFFFFFFFFFFFFFFFFFFFFFFFFFFFFFFFFF AND SUB PUSH2 0x1087 JUMPI DUP1 PUSH1 0x2 PUSH0 DUP3 DUP3 SLOAD SUB SWAP3 POP POP DUP2 SWAP1 SSTORE POP PUSH2 0x10D1 JUMP JUMPDEST DUP1 PUSH0 DUP1 DUP5 PUSH20 0xFFFFFFFFFFFFFFFFFFFFFFFFFFFFFFFFFFFFFFFF AND PUSH20 0xFFFFFFFFFFFFFFFFFFFFFFFFFFFFFFFFFFFFFFFF AND DUP2 MSTORE PUSH1 0x20 ADD SWAP1 DUP2 MSTORE PUSH1 0x20 ADD PUSH0 KECCAK256 PUSH0 DUP3 DUP3 SLOAD ADD SWAP3 POP POP DUP2 SWAP1 SSTORE POP JUMPDEST DUP2 PUSH20 0xFFFFFFFFFFFFFFFFFFFFFFFFFFFFFFFFFFFFFFFF AND DUP4 PUSH20 0xFFFFFFFFFFFFFFFFFFFFFFFFFFFFFFFFFFFFFFFF AND PUSH32 0xDDF252AD1BE2C89B69C2B068FC378DAA952BA7F163C4A11628F55A4DF523B3EF DUP4 PUSH1 0x40 MLOAD PUSH2 0x112E SWAP2 SWAP1 PUSH2 0x12F6 JUMP JUMPDEST PUSH1 0x40 MLOAD DUP1 SWAP2 SUB SWAP1 LOG3 POP POP POP JUMP JUMPDEST PUSH0 DUP2 MLOAD SWAP1 POP SWAP2 SWAP1 POP JUMP JUMPDEST PUSH0 DUP3 DUP3 MSTORE PUSH1 0x20 DUP3 ADD SWAP1 POP SWAP3 SWAP2 POP POP JUMP JUMPDEST PUSH0 JUMPDEST DUP4 DUP2 LT ISZERO PUSH2 0x1172 JUMPI DUP1 DUP3 ADD MLOAD DUP2 DUP5 ADD MSTORE PUSH1 0x20 DUP2 ADD SWAP1 POP PUSH2 0x1157 JUMP JUMPDEST PUSH0 DUP5 DUP5 ADD MSTORE POP POP POP POP JUMP JUMPDEST PUSH0 PUSH1 0x1F NOT PUSH1 0x1F DUP4 ADD AND SWAP1 POP SWAP2 SWAP1 POP JUMP JUMPDEST PUSH0 PUSH2 0x1197 DUP3 PUSH2 0x113B JUMP JUMPDEST PUSH2 0x11A1 DUP2 DUP6 PUSH2 0x1145 JUMP JUMPDEST SWAP4 POP PUSH2 0x11B1 DUP2 DUP6 PUSH1 0x20 DUP7 ADD PUSH2 0x1155 JUMP JUMPDEST PUSH2 0x11BA DUP2 PUSH2 0x117D JUMP JUMPDEST DUP5 ADD SWAP2 POP POP SWAP3 SWAP2 POP POP JUMP JUMPDEST PUSH0 PUSH1 0x20 DUP3 ADD SWAP1 POP DUP2 DUP2 SUB PUSH0 DUP4 ADD MSTORE PUSH2 0x11DD DUP2 DUP5 PUSH2 0x118D JUMP JUMPDEST SWAP1 POP SWAP3 SWAP2 POP POP JUMP JUMPDEST PUSH0 DUP1 REVERT JUMPDEST PUSH0 PUSH20 0xFFFFFFFFFFFFFFFFFFFFFFFFFFFFFFFFFFFFFFFF DUP3 AND SWAP1 POP SWAP2 SWAP1 POP JUMP JUMPDEST PUSH0 PUSH2 0x1212 DUP3 PUSH2 0x11E9 JUMP JUMPDEST SWAP1 POP SWAP2 SWAP1 POP JUMP JUMPDEST PUSH2 0x1222 DUP2 PUSH2 0x1208 JUMP JUMPDEST DUP2 EQ PUSH2 0x122C JUMPI PUSH0 DUP1 REVERT JUMPDEST POP JUMP JUMPDEST PUSH0 DUP2 CALLDATALOAD SWAP1 POP PUSH2 0x123D DUP2 PUSH2 0x1219 JUMP JUMPDEST SWAP3 SWAP2 POP POP JUMP JUMPDEST PUSH0 DUP2 SWAP1 POP SWAP2 SWAP1 POP JUMP JUMPDEST PUSH2 0x1255 DUP2 PUSH2 0x1243 JUMP JUMPDEST DUP2 EQ PUSH2 0x125F JUMPI PUSH0 DUP1 REVERT JUMPDEST POP JUMP JUMPDEST PUSH0 DUP2 CALLDATALOAD SWAP1 POP PUSH2 0x1270 DUP2 PUSH2 0x124C JUMP JUMPDEST SWAP3 SWAP2 POP POP JUMP JUMPDEST PUSH0 DUP1 PUSH1 0x40 DUP4 DUP6 SUB SLT ISZERO PUSH2 0x128C JUMPI PUSH2 0x128B PUSH2 0x11E5 JUMP JUMPDEST JUMPDEST PUSH0 PUSH2 0x1299 DUP6 DUP3 DUP7 ADD PUSH2 0x122F JUMP JUMPDEST SWAP3 POP POP PUSH1 0x20 PUSH2 0x12AA DUP6 DUP3 DUP7 ADD PUSH2 0x1262 JUMP JUMPDEST SWAP2 POP POP SWAP3 POP SWAP3 SWAP1 POP JUMP JUMPDEST PUSH0 DUP2 ISZERO ISZERO SWAP1 POP SWAP2 SWAP1 POP JUMP JUMPDEST PUSH2 0x12C8 DUP2 PUSH2 0x12B4 JUMP JUMPDEST DUP3 MSTORE POP POP JUMP JUMPDEST PUSH0 PUSH1 0x20 DUP3 ADD SWAP1 POP PUSH2 0x12E1 PUSH0 DUP4 ADD DUP5 PUSH2 0x12BF JUMP JUMPDEST SWAP3 SWAP2 POP POP JUMP JUMPDEST PUSH2 0x12F0 DUP2 PUSH2 0x1243 JUMP JUMPDEST DUP3 MSTORE POP POP JUMP JUMPDEST PUSH0 PUSH1 0x20 DUP3 ADD SWAP1 POP PUSH2 0x1309 PUSH0 DUP4 ADD DUP5 PUSH2 0x12E7 JUMP JUMPDEST SWAP3 SWAP2 POP POP JUMP JUMPDEST PUSH0 DUP1 PUSH0 PUSH1 0x60 DUP5 DUP7 SUB SLT ISZERO PUSH2 0x1326 JUMPI PUSH2 0x1325 PUSH2 0x11E5 JUMP JUMPDEST JUMPDEST PUSH0 PUSH2 0x1333 DUP7 DUP3 DUP8 ADD PUSH2 0x122F JUMP JUMPDEST SWAP4 POP POP PUSH1 0x20 PUSH2 0x1344 DUP7 DUP3 DUP8 ADD PUSH2 0x122F JUMP JUMPDEST SWAP3 POP POP PUSH1 0x40 PUSH2 0x1355 DUP7 DUP3 DUP8 ADD PUSH2 0x1262 JUMP JUMPDEST SWAP2 POP POP SWAP3 POP SWAP3 POP SWAP3 JUMP JUMPDEST PUSH0 PUSH1 0xFF DUP3 AND SWAP1 POP SWAP2 SWAP1 POP JUMP JUMPDEST PUSH2 0x1374 DUP2 PUSH2 0x135F JUMP JUMPDEST DUP3 MSTORE POP POP JUMP JUMPDEST PUSH0 PUSH1 0x20 DUP3 ADD SWAP1 POP PUSH2 0x138D PUSH0 DUP4 ADD DUP5 PUSH2 0x136B JUMP JUMPDEST SWAP3 SWAP2 POP POP JUMP JUMPDEST PUSH2 0x139C DUP2 PUSH2 0x1208 JUMP JUMPDEST DUP3 MSTORE POP POP JUMP JUMPDEST PUSH0 PUSH1 0x20 DUP3 ADD SWAP1 POP PUSH2 0x13B5 PUSH0 DUP4 ADD DUP5 PUSH2 0x1393 JUMP JUMPDEST SWAP3 SWAP2 POP POP JUMP JUMPDEST PUSH0 DUP2 SWAP1 POP SWAP2 SWAP1 POP JUMP JUMPDEST PUSH0 PUSH2 0x13DE PUSH2 0x13D9 PUSH2 0x13D4 DUP5 PUSH2 0x11E9 JUMP JUMPDEST PUSH2 0x13BB JUMP JUMPDEST PUSH2 0x11E9 JUMP JUMPDEST SWAP1 POP SWAP2 SWAP1 POP JUMP JUMPDEST PUSH0 PUSH2 0x13EF DUP3 PUSH2 0x13C4 JUMP JUMPDEST SWAP1 POP SWAP2 SWAP1 POP JUMP JUMPDEST PUSH0 PUSH2 0x1400 DUP3 PUSH2 0x13E5 JUMP JUMPDEST SWAP1 POP SWAP2 SWAP1 POP JUMP JUMPDEST PUSH2 0x1410 DUP2 PUSH2 0x13F6 JUMP JUMPDEST DUP3 MSTORE POP POP JUMP JUMPDEST PUSH0 PUSH1 0x20 DUP3 ADD SWAP1 POP PUSH2 0x1429 PUSH0 DUP4 ADD DUP5 PUSH2 0x1407 JUMP JUMPDEST SWAP3 SWAP2 POP POP JUMP JUMPDEST PUSH0 PUSH1 0x20 DUP3 DUP5 SUB SLT ISZERO PUSH2 0x1444 JUMPI PUSH2 0x1443 PUSH2 0x11E5 JUMP JUMPDEST JUMPDEST PUSH0 PUSH2 0x1451 DUP5 DUP3 DUP6 ADD PUSH2 0x122F JUMP JUMPDEST SWAP2 POP POP SWAP3 SWAP2 POP POP JUMP JUMPDEST PUSH0 DUP1 PUSH1 0x40 DUP4 DUP6 SUB SLT ISZERO PUSH2 0x1470 JUMPI PUSH2 0x146F PUSH2 0x11E5 JUMP JUMPDEST JUMPDEST PUSH0 PUSH2 0x147D DUP6 DUP3 DUP7 ADD PUSH2 0x122F JUMP JUMPDEST SWAP3 POP POP PUSH1 0x20 PUSH2 0x148E DUP6 DUP3 DUP7 ADD PUSH2 0x122F JUMP JUMPDEST SWAP2 POP POP SWAP3 POP SWAP3 SWAP1 POP JUMP JUMPDEST PUSH32 0x4E487B7100000000000000000000000000000000000000000000000000000000 PUSH0 MSTORE PUSH1 0x22 PUSH1 0x4 MSTORE PUSH1 0x24 PUSH0 REVERT JUMPDEST PUSH0 PUSH1 0x2 DUP3 DIV SWAP1 POP PUSH1 0x1 DUP3 AND DUP1 PUSH2 0x14DC JUMPI PUSH1 0x7F DUP3 AND SWAP2 POP JUMPDEST PUSH1 0x20 DUP3 LT DUP2 SUB PUSH2 0x14EF JUMPI PUSH2 0x14EE PUSH2 0x1498 JUMP JUMPDEST JUMPDEST POP SWAP2 SWAP1 POP JUMP JUMPDEST PUSH0 DUP2 MLOAD SWAP1 POP PUSH2 0x1503 DUP2 PUSH2 0x124C JUMP JUMPDEST SWAP3 SWAP2 POP POP JUMP JUMPDEST PUSH0 PUSH1 0x20 DUP3 DUP5 SUB SLT ISZERO PUSH2 0x151E JUMPI PUSH2 0x151D PUSH2 0x11E5 JUMP JUMPDEST JUMPDEST PUSH0 PUSH2 0x152B DUP5 DUP3 DUP6 ADD PUSH2 0x14F5 JUMP JUMPDEST SWAP2 POP POP SWAP3 SWAP2 POP POP JUMP JUMPDEST PUSH0 PUSH1 0x60 DUP3 ADD SWAP1 POP PUSH2 0x1547 PUSH0 DUP4 ADD DUP7 PUSH2 0x1393 JUMP JUMPDEST PUSH2 0x1554 PUSH1 0x20 DUP4 ADD DUP6 PUSH2 0x12E7 JUMP JUMPDEST PUSH2 0x1561 PUSH1 0x40 DUP4 ADD DUP5 PUSH2 0x12E7 JUMP JUMPDEST SWAP5 SWAP4 POP POP POP POP JUMP JUMPDEST PUSH32 0x4E487B7100000000000000000000000000000000000000000000000000000000 PUSH0 MSTORE PUSH1 0x11 PUSH1 0x4 MSTORE PUSH1 0x24 PUSH0 REVERT JUMPDEST PUSH0 PUSH2 0x15A0 DUP3 PUSH2 0x1243 JUMP JUMPDEST SWAP2 POP PUSH2 0x15AB DUP4 PUSH2 0x1243 JUMP JUMPDEST SWAP3 POP DUP3 DUP3 ADD SWAP1 POP DUP1 DUP3 GT ISZERO PUSH2 0x15C3 JUMPI PUSH2 0x15C2 PUSH2 0x1569 JUMP JUMPDEST JUMPDEST SWAP3 SWAP2 POP POP JUMP INVALID LOG2 PUSH5 0x6970667358 0x22 SLT KECCAK256 DUP11 ISZERO 0xBA 0xE5 0xCA KECCAK256 SWAP10 SWAP11 0xA5 0xBC 0xD7 JUMPI RETURN 0x4C 0xB9 CALLDATASIZE PUSH26 0xEDB360517CEC54EC4F834C619B1AD164736F6C63430008160033 "
				},
				"gasEstimates": {
					"creation": {
						"codeDepositCost": "1126200",
						"executionCost": "infinite",
						"totalCost": "infinite"
					},
					"external": {
						"allowance(address,address)": "infinite",
						"approve(address,uint256)": "infinite",
						"balanceOf(address)": "2918",
						"collateral()": "infinite",
						"collateralAddress()": "2553",
						"consideration()": "infinite",
						"considerationAddress()": "2575",
						"decimals()": "361",
						"expirationDate()": "2448",
						"getCollateralBalance()": "infinite",
						"getConsiderationBalance()": "infinite",
						"isExpired()": "2580",
						"isNotExpired()": "2554",
						"isPut()": "2554",
						"name()": "infinite",
						"optionType()": "infinite",
						"owner()": "2648",
						"renounceOwnership()": "infinite",
						"strikeDen()": "2492",
						"strikeNum()": "2470",
						"symbol()": "infinite",
						"totalSupply()": "2522",
						"transfer(address,uint256)": "infinite",
						"transferFrom(address,address,uint256)": "infinite",
						"transferOwnership(address)": "infinite"
					}
				},
				"methodIdentifiers": {
					"allowance(address,address)": "dd62ed3e",
					"approve(address,uint256)": "095ea7b3",
					"balanceOf(address)": "70a08231",
					"collateral()": "d8dfeb45",
					"collateralAddress()": "48d399e7",
					"consideration()": "6f713c9c",
					"considerationAddress()": "9acea70d",
					"decimals()": "313ce567",
					"expirationDate()": "8f620487",
					"getCollateralBalance()": "1529a639",
					"getConsiderationBalance()": "b5113d90",
					"isExpired()": "2f13b60c",
					"isNotExpired()": "ac6068b5",
					"isPut()": "f3c274a6",
					"name()": "06fdde03",
					"optionType()": "ffd9eedb",
					"owner()": "8da5cb5b",
					"renounceOwnership()": "715018a6",
					"strikeDen()": "cfb4fc71",
					"strikeNum()": "b8a11e82",
					"symbol()": "95d89b41",
					"totalSupply()": "18160ddd",
					"transfer(address,uint256)": "a9059cbb",
					"transferFrom(address,address,uint256)": "23b872dd",
					"transferOwnership(address)": "f2fde38b"
				}
			},
			"storageLayout": {
				"storage": [
					{
						"astId": 307,
						"contract": "contracts/OptionBase.sol:OptionBase",
						"label": "_balances",
						"offset": 0,
						"slot": "0",
						"type": "t_mapping(t_address,t_uint256)"
					},
					{
						"astId": 313,
						"contract": "contracts/OptionBase.sol:OptionBase",
						"label": "_allowances",
						"offset": 0,
						"slot": "1",
						"type": "t_mapping(t_address,t_mapping(t_address,t_uint256))"
					},
					{
						"astId": 315,
						"contract": "contracts/OptionBase.sol:OptionBase",
						"label": "_totalSupply",
						"offset": 0,
						"slot": "2",
						"type": "t_uint256"
					},
					{
						"astId": 317,
						"contract": "contracts/OptionBase.sol:OptionBase",
						"label": "_name",
						"offset": 0,
						"slot": "3",
						"type": "t_string_storage"
					},
					{
						"astId": 319,
						"contract": "contracts/OptionBase.sol:OptionBase",
						"label": "_symbol",
						"offset": 0,
						"slot": "4",
						"type": "t_string_storage"
					},
					{
						"astId": 8,
						"contract": "contracts/OptionBase.sol:OptionBase",
						"label": "_owner",
						"offset": 0,
						"slot": "5",
						"type": "t_address"
					},
					{
						"astId": 944,
						"contract": "contracts/OptionBase.sol:OptionBase",
						"label": "_status",
						"offset": 0,
						"slot": "6",
						"type": "t_uint256"
					},
					{
						"astId": 1015,
						"contract": "contracts/OptionBase.sol:OptionBase",
						"label": "collateralAddress",
						"offset": 0,
						"slot": "7",
						"type": "t_address"
					},
					{
						"astId": 1017,
						"contract": "contracts/OptionBase.sol:OptionBase",
						"label": "considerationAddress",
						"offset": 0,
						"slot": "8",
						"type": "t_address"
					},
					{
						"astId": 1019,
						"contract": "contracts/OptionBase.sol:OptionBase",
						"label": "expirationDate",
						"offset": 0,
						"slot": "9",
						"type": "t_uint256"
					},
					{
						"astId": 1021,
						"contract": "contracts/OptionBase.sol:OptionBase",
						"label": "strikeNum",
						"offset": 0,
						"slot": "10",
						"type": "t_uint256"
					},
					{
						"astId": 1023,
						"contract": "contracts/OptionBase.sol:OptionBase",
						"label": "strikeDen",
						"offset": 0,
						"slot": "11",
						"type": "t_uint256"
					},
					{
						"astId": 1025,
						"contract": "contracts/OptionBase.sol:OptionBase",
						"label": "isPut",
						"offset": 0,
						"slot": "12",
						"type": "t_bool"
					},
					{
						"astId": 1028,
						"contract": "contracts/OptionBase.sol:OptionBase",
						"label": "collateral",
						"offset": 1,
						"slot": "12",
						"type": "t_contract(IERC20)877"
					},
					{
						"astId": 1031,
						"contract": "contracts/OptionBase.sol:OptionBase",
						"label": "consideration",
						"offset": 0,
						"slot": "13",
						"type": "t_contract(IERC20)877"
					}
				],
				"types": {
					"t_address": {
						"encoding": "inplace",
						"label": "address",
						"numberOfBytes": "20"
					},
					"t_bool": {
						"encoding": "inplace",
						"label": "bool",
						"numberOfBytes": "1"
					},
					"t_contract(IERC20)877": {
						"encoding": "inplace",
						"label": "contract IERC20",
						"numberOfBytes": "20"
					},
					"t_mapping(t_address,t_mapping(t_address,t_uint256))": {
						"encoding": "mapping",
						"key": "t_address",
						"label": "mapping(address => mapping(address => uint256))",
						"numberOfBytes": "32",
						"value": "t_mapping(t_address,t_uint256)"
					},
					"t_mapping(t_address,t_uint256)": {
						"encoding": "mapping",
						"key": "t_address",
						"label": "mapping(address => uint256)",
						"numberOfBytes": "32",
						"value": "t_uint256"
					},
					"t_string_storage": {
						"encoding": "bytes",
						"label": "string",
						"numberOfBytes": "32"
					},
					"t_uint256": {
						"encoding": "inplace",
						"label": "uint256",
						"numberOfBytes": "32"
					}
				}
			},
			"userdoc": {
				"kind": "user",
				"methods": {},
				"version": 1
			}
		}
	}
}