{
	"data": {
		"bytecode": {
			"linkReferences": {},
			"object": "608060405234801561000f575f80fd5b506040516152e33803806152e3833981810160405281019061003191906106b1565b86868686868686338787816003908161004a919061098a565b50806004908161005a919061098a565b5050505f73ffffffffffffffffffffffffffffffffffffffff168173ffffffffffffffffffffffffffffffffffffffff16036100cd575f6040517f1e4fbdf70000000000000000000000000000000000000000000000000000000081526004016100c49190610a68565b60405180910390fd5b6100dc816103d260201b60201c565b5060016006819055505f820361011e576040517f9a5818d800000000000000000000000000000000000000000000000000000000815260040160405180910390fd5b42831015610158576040517ffb2a675200000000000000000000000000000000000000000000000000000000815260040160405180910390fd5b8260098190555081600a819055508460075f6101000a81548173ffffffffffffffffffffffffffffffffffffffff021916908373ffffffffffffffffffffffffffffffffffffffff1602179055508360085f6101000a81548173ffffffffffffffffffffffffffffffffffffffff021916908373ffffffffffffffffffffffffffffffffffffffff16021790555080600b5f6101000a81548160ff02191690831515021790555084600b60016101000a81548173ffffffffffffffffffffffffffffffffffffffff021916908373ffffffffffffffffffffffffffffffffffffffff16021790555083600c5f6101000a81548173ffffffffffffffffffffffffffffffffffffffff021916908373ffffffffffffffffffffffffffffffffffffffff160217905550505050505050508686868686868660405161029a90610495565b6102aa9796959493929190610ae7565b604051809103905ff0801580156102c3573d5f803e3d5ffd5b50600e5f6101000a81548173ffffffffffffffffffffffffffffffffffffffff021916908373ffffffffffffffffffffffffffffffffffffffff160217905550600e5f9054906101000a900473ffffffffffffffffffffffffffffffffffffffff16600d5f6101000a81548173ffffffffffffffffffffffffffffffffffffffff021916908373ffffffffffffffffffffffffffffffffffffffff1602179055507f9a470f4fcf5dc527b01c8bbb39fc28084aeb2f9097cb38ea95f953378199bffa3086600d5f9054906101000a900473ffffffffffffffffffffffffffffffffffffffff168686866040516103be96959493929190610b62565b60405180910390a150505050505050610bc1565b5f60055f9054906101000a900473ffffffffffffffffffffffffffffffffffffffff1690508160055f6101000a81548173ffffffffffffffffffffffffffffffffffffffff021916908373ffffffffffffffffffffffffffffffffffffffff1602179055508173ffffffffffffffffffffffffffffffffffffffff168173ffffffffffffffffffffffffffffffffffffffff167f8be0079c531659141344cd1fd0a4f28419497f9722a3daafe3b4186f6b6457e060405160405180910390a35050565b612cfb806125e883390190565b5f604051905090565b5f80fd5b5f80fd5b5f80fd5b5f80fd5b5f601f19601f8301169050919050565b7f4e487b71000000000000000000000000000000000000000000000000000000005f52604160045260245ffd5b610501826104bb565b810181811067ffffffffffffffff821117156105205761051f6104cb565b5b80604052505050565b5f6105326104a2565b905061053e82826104f8565b919050565b5f67ffffffffffffffff82111561055d5761055c6104cb565b5b610566826104bb565b9050602081019050919050565b8281835e5f83830152505050565b5f61059361058e84610543565b610529565b9050828152602081018484840111156105af576105ae6104b7565b5b6105ba848285610573565b509392505050565b5f82601f8301126105d6576105d56104b3565b5b81516105e6848260208601610581565b91505092915050565b5f73ffffffffffffffffffffffffffffffffffffffff82169050919050565b5f610618826105ef565b9050919050565b6106288161060e565b8114610632575f80fd5b50565b5f815190506106438161061f565b92915050565b5f819050919050565b61065b81610649565b8114610665575f80fd5b50565b5f8151905061067681610652565b92915050565b5f8115159050919050565b6106908161067c565b811461069a575f80fd5b50565b5f815190506106ab81610687565b92915050565b5f805f805f805f60e0888a0312156106cc576106cb6104ab565b5b5f88015167ffffffffffffffff8111156106e9576106e86104af565b5b6106f58a828b016105c2565b975050602088015167ffffffffffffffff811115610716576107156104af565b5b6107228a828b016105c2565b96505060406107338a828b01610635565b95505060606107448a828b01610635565b94505060806107558a828b01610668565b93505060a06107668a828b01610668565b92505060c06107778a828b0161069d565b91505092959891949750929550565b5f81519050919050565b7f4e487b71000000000000000000000000000000000000000000000000000000005f52602260045260245ffd5b5f60028204905060018216806107d457607f821691505b6020821081036107e7576107e6610790565b5b50919050565b5f819050815f5260205f209050919050565b5f6020601f8301049050919050565b5f82821b905092915050565b5f600883026108497fffffffffffffffffffffffffffffffffffffffffffffffffffffffffffffffff8261080e565b610853868361080e565b95508019841693508086168417925050509392505050565b5f819050919050565b5f61088e61088961088484610649565b61086b565b610649565b9050919050565b5f819050919050565b6108a783610874565b6108bb6108b382610895565b84845461081a565b825550505050565b5f90565b6108cf6108c3565b6108da81848461089e565b505050565b5b818110156108fd576108f25f826108c7565b6001810190506108e0565b5050565b601f82111561094257610913816107ed565b61091c846107ff565b8101602085101561092b578190505b61093f610937856107ff565b8301826108df565b50505b505050565b5f82821c905092915050565b5f6109625f1984600802610947565b1980831691505092915050565b5f61097a8383610953565b9150826002028217905092915050565b61099382610786565b67ffffffffffffffff8111156109ac576109ab6104cb565b5b6109b682546107bd565b6109c1828285610901565b5f60209050601f8311600181146109f2575f84156109e0578287015190505b6109ea858261096f565b865550610a51565b601f198416610a00866107ed565b5f5b82811015610a2757848901518255600182019150602085019450602081019050610a02565b86831015610a445784890151610a40601f891682610953565b8355505b6001600288020188555050505b505050505050565b610a628161060e565b82525050565b5f602082019050610a7b5f830184610a59565b92915050565b5f82825260208201905092915050565b5f610a9b82610786565b610aa58185610a81565b9350610ab5818560208601610573565b610abe816104bb565b840191505092915050565b610ad281610649565b82525050565b610ae18161067c565b82525050565b5f60e0820190508181035f830152610aff818a610a91565b90508181036020830152610b138189610a91565b9050610b226040830188610a59565b610b2f6060830187610a59565b610b3c6080830186610ac9565b610b4960a0830185610ac9565b610b5660c0830184610ad8565b98975050505050505050565b5f60c082019050610b755f830189610a59565b610b826020830188610a59565b610b8f6040830187610a59565b610b9c6060830186610ac9565b610ba96080830185610ac9565b610bb660a0830184610ad8565b979650505050505050565b611a1a80610bce5f395ff3fe608060405234801561000f575f80fd5b5060043610610156575f3560e01c806395d89b41116100c1578063b07f0a411161007a578063b07f0a41146103a8578063d8dfeb45146103c4578063db006a75146103e2578063dd62ed3e146103fe578063f2fde38b1461042e578063f3c274a61461044a57610156565b806395d89b41146102e45780639acea70d14610302578063a0712d6814610320578063a9059cbb1461033c578063ad7448bc1461036c578063ad8f50081461038a57610156565b806348d399e71161011357806348d399e7146102325780636f713c9c1461025057806370a082311461026e578063715018a61461029e5780638da5cb5b146102a85780638f620487146102c657610156565b806306fdde031461015a578063095ea7b31461017857806318160ddd146101a857806323b872dd146101c65780632c7d4240146101f6578063313ce56714610214575b5f80fd5b610162610468565b60405161016f9190611555565b60405180910390f35b610192600480360381019061018d9190611606565b6104f8565b60405161019f919061165e565b60405180910390f35b6101b061051a565b6040516101bd9190611686565b60405180910390f35b6101e060048036038101906101db919061169f565b610523565b6040516101ed919061165e565b60405180910390f35b6101fe610551565b60405161020b91906116fe565b60405180910390f35b61021c610576565b6040516102299190611732565b60405180910390f35b61023a61057e565b60405161024791906116fe565b60405180910390f35b6102586105a3565b60405161026591906117a6565b60405180910390f35b610288600480360381019061028391906117bf565b6105c8565b6040516102959190611686565b60405180910390f35b6102a661060d565b005b6102b0610620565b6040516102bd91906116fe565b60405180910390f35b6102ce610648565b6040516102db9190611686565b60405180910390f35b6102ec61064e565b6040516102f99190611555565b60405180910390f35b61030a6106de565b60405161031791906116fe565b60405180910390f35b61033a600480360381019061033591906117ea565b610703565b005b61035660048036038101906103519190611606565b6107e6565b604051610363919061165e565b60405180910390f35b610374610808565b6040516103819190611835565b60405180910390f35b61039261082d565b60405161039f9190611686565b60405180910390f35b6103c260048036038101906103bd91906117ea565b610833565b005b6103cc610951565b6040516103d991906117a6565b60405180910390f35b6103fc60048036038101906103f791906117ea565b610977565b005b6104186004803603810190610413919061184e565b610bb2565b6040516104259190611686565b60405180910390f35b610448600480360381019061044391906117bf565b610c34565b005b610452610cb8565b60405161045f919061165e565b60405180910390f35b606060038054610477906118b9565b80601f01602080910402602001604051908101604052809291908181526020018280546104a3906118b9565b80156104ee5780601f106104c5576101008083540402835291602001916104ee565b820191905f5260205f20905b8154815290600101906020018083116104d157829003601f168201915b5050505050905090565b5f80610502610cca565b905061050f818585610cd1565b600191505092915050565b5f600254905090565b5f8061052d610cca565b905061053a858285610ce3565b610545858585610d75565b60019150509392505050565b600d5f9054906101000a900473ffffffffffffffffffffffffffffffffffffffff1681565b5f6012905090565b60075f9054906101000a900473ffffffffffffffffffffffffffffffffffffffff1681565b600c5f9054906101000a900473ffffffffffffffffffffffffffffffffffffffff1681565b5f805f8373ffffffffffffffffffffffffffffffffffffffff1673ffffffffffffffffffffffffffffffffffffffff1681526020019081526020015f20549050919050565b610615610e65565b61061e5f610eec565b565b5f60055f9054906101000a900473ffffffffffffffffffffffffffffffffffffffff16905090565b60095481565b60606004805461065d906118b9565b80601f0160208091040260200160405190810160405280929190818152602001828054610689906118b9565b80156106d45780601f106106ab576101008083540402835291602001916106d4565b820191905f5260205f20905b8154815290600101906020018083116106b757829003601f168201915b5050505050905090565b60085f9054906101000a900473ffffffffffffffffffffffffffffffffffffffff1681565b61070b610faf565b806001811015610747576040517f2c5211c600000000000000000000000000000000000000000000000000000000815260040160405180910390fd5b6107513383610ff5565b600e5f9054906101000a900473ffffffffffffffffffffffffffffffffffffffff1673ffffffffffffffffffffffffffffffffffffffff166340c10f1933846040518363ffffffff1660e01b81526004016107ad9291906118e9565b5f604051808303815f87803b1580156107c4575f80fd5b505af11580156107d6573d5f803e3d5ffd5b50505050506107e3611074565b50565b5f806107f0610cca565b90506107fd818585610d75565b600191505092915050565b600e5f9054906101000a900473ffffffffffffffffffffffffffffffffffffffff1681565b600a5481565b600954421061086e576040517f0790d4e300000000000000000000000000000000000000000000000000000000815260040160405180910390fd5b610876610faf565b8060018110156108b2576040517f2c5211c600000000000000000000000000000000000000000000000000000000815260040160405180910390fd5b6108bc338361107e565b600e5f9054906101000a900473ffffffffffffffffffffffffffffffffffffffff1673ffffffffffffffffffffffffffffffffffffffff1663dd068ec133846040518363ffffffff1660e01b81526004016109189291906118e9565b5f604051808303815f87803b15801561092f575f80fd5b505af1158015610941573d5f803e3d5ffd5b505050505061094e611074565b50565b600b60019054906101000a900473ffffffffffffffffffffffffffffffffffffffff1681565b60095442106109b2576040517f0790d4e300000000000000000000000000000000000000000000000000000000815260040160405180910390fd5b6109ba610faf565b3381806109c6836105c8565b10156109fe576040517ff4d678b800000000000000000000000000000000000000000000000000000000815260040160405180910390fd5b826001811015610a3a576040517f2c5211c600000000000000000000000000000000000000000000000000000000815260040160405180910390fd5b83600e5f9054906101000a900473ffffffffffffffffffffffffffffffffffffffff1673ffffffffffffffffffffffffffffffffffffffff166370a08231336040518263ffffffff1660e01b8152600401610a9591906116fe565b602060405180830381865afa158015610ab0573d5f803e3d5ffd5b505050506040513d601f19601f82011682018060405250810190610ad49190611924565b1015610b0c576040517ff4d678b800000000000000000000000000000000000000000000000000000000815260040160405180910390fd5b5f339050610b1a818661107e565b600e5f9054906101000a900473ffffffffffffffffffffffffffffffffffffffff1673ffffffffffffffffffffffffffffffffffffffff1663e0ca59bb82876040518363ffffffff1660e01b8152600401610b769291906118e9565b5f604051808303815f87803b158015610b8d575f80fd5b505af1158015610b9f573d5f803e3d5ffd5b5050505050505050610baf611074565b50565b5f60015f8473ffffffffffffffffffffffffffffffffffffffff1673ffffffffffffffffffffffffffffffffffffffff1681526020019081526020015f205f8373ffffffffffffffffffffffffffffffffffffffff1673ffffffffffffffffffffffffffffffffffffffff1681526020019081526020015f2054905092915050565b610c3c610e65565b5f73ffffffffffffffffffffffffffffffffffffffff168173ffffffffffffffffffffffffffffffffffffffff1603610cac575f6040517f1e4fbdf7000000000000000000000000000000000000000000000000000000008152600401610ca391906116fe565b60405180910390fd5b610cb581610eec565b50565b600b5f9054906101000a900460ff1681565b5f33905090565b610cde83838360016110fd565b505050565b5f610cee8484610bb2565b90507fffffffffffffffffffffffffffffffffffffffffffffffffffffffffffffffff8114610d6f5781811015610d60578281836040517ffb8f41b2000000000000000000000000000000000000000000000000000000008152600401610d579392919061194f565b60405180910390fd5b610d6e84848484035f6110fd565b5b50505050565b5f73ffffffffffffffffffffffffffffffffffffffff168373ffffffffffffffffffffffffffffffffffffffff1603610de5575f6040517f96c6fd1e000000000000000000000000000000000000000000000000000000008152600401610ddc91906116fe565b60405180910390fd5b5f73ffffffffffffffffffffffffffffffffffffffff168273ffffffffffffffffffffffffffffffffffffffff1603610e55575f6040517fec442f05000000000000000000000000000000000000000000000000000000008152600401610e4c91906116fe565b60405180910390fd5b610e608383836112cc565b505050565b610e6d610cca565b73ffffffffffffffffffffffffffffffffffffffff16610e8b610620565b73ffffffffffffffffffffffffffffffffffffffff1614610eea57610eae610cca565b6040517f118cdaa7000000000000000000000000000000000000000000000000000000008152600401610ee191906116fe565b60405180910390fd5b565b5f60055f9054906101000a900473ffffffffffffffffffffffffffffffffffffffff1690508160055f6101000a81548173ffffffffffffffffffffffffffffffffffffffff021916908373ffffffffffffffffffffffffffffffffffffffff1602179055508173ffffffffffffffffffffffffffffffffffffffff168173ffffffffffffffffffffffffffffffffffffffff167f8be0079c531659141344cd1fd0a4f28419497f9722a3daafe3b4186f6b6457e060405160405180910390a35050565b600260065403610feb576040517f3ee5aeb500000000000000000000000000000000000000000000000000000000815260040160405180910390fd5b6002600681905550565b5f73ffffffffffffffffffffffffffffffffffffffff168273ffffffffffffffffffffffffffffffffffffffff1603611065575f6040517fec442f0500000000000000000000000000000000000000000000000000000000815260040161105c91906116fe565b60405180910390fd5b6110705f83836112cc565b5050565b6001600681905550565b5f73ffffffffffffffffffffffffffffffffffffffff168273ffffffffffffffffffffffffffffffffffffffff16036110ee575f6040517f96c6fd1e0000000000000000000000000000000000000000000000000000000081526004016110e591906116fe565b60405180910390fd5b6110f9825f836112cc565b5050565b5f73ffffffffffffffffffffffffffffffffffffffff168473ffffffffffffffffffffffffffffffffffffffff160361116d575f6040517fe602df0500000000000000000000000000000000000000000000000000000000815260040161116491906116fe565b60405180910390fd5b5f73ffffffffffffffffffffffffffffffffffffffff168373ffffffffffffffffffffffffffffffffffffffff16036111dd575f6040517f94280d620000000000000000000000000000000000000000000000000000000081526004016111d491906116fe565b60405180910390fd5b8160015f8673ffffffffffffffffffffffffffffffffffffffff1673ffffffffffffffffffffffffffffffffffffffff1681526020019081526020015f205f8573ffffffffffffffffffffffffffffffffffffffff1673ffffffffffffffffffffffffffffffffffffffff1681526020019081526020015f208190555080156112c6578273ffffffffffffffffffffffffffffffffffffffff168473ffffffffffffffffffffffffffffffffffffffff167f8c5be1e5ebec7d5bd14f71427d1e84f3dd0314c0f7b2291e5b200ac8c7c3b925846040516112bd9190611686565b60405180910390a35b50505050565b5f73ffffffffffffffffffffffffffffffffffffffff168373ffffffffffffffffffffffffffffffffffffffff160361131c578060025f82825461131091906119b1565b925050819055506113ea565b5f805f8573ffffffffffffffffffffffffffffffffffffffff1673ffffffffffffffffffffffffffffffffffffffff1681526020019081526020015f20549050818110156113a5578381836040517fe450d38c00000000000000000000000000000000000000000000000000000000815260040161139c9392919061194f565b60405180910390fd5b8181035f808673ffffffffffffffffffffffffffffffffffffffff1673ffffffffffffffffffffffffffffffffffffffff1681526020019081526020015f2081905550505b5f73ffffffffffffffffffffffffffffffffffffffff168273ffffffffffffffffffffffffffffffffffffffff1603611431578060025f828254039250508190555061147b565b805f808473ffffffffffffffffffffffffffffffffffffffff1673ffffffffffffffffffffffffffffffffffffffff1681526020019081526020015f205f82825401925050819055505b8173ffffffffffffffffffffffffffffffffffffffff168373ffffffffffffffffffffffffffffffffffffffff167fddf252ad1be2c89b69c2b068fc378daa952ba7f163c4a11628f55a4df523b3ef836040516114d89190611686565b60405180910390a3505050565b5f81519050919050565b5f82825260208201905092915050565b8281835e5f83830152505050565b5f601f19601f8301169050919050565b5f611527826114e5565b61153181856114ef565b93506115418185602086016114ff565b61154a8161150d565b840191505092915050565b5f6020820190508181035f83015261156d818461151d565b905092915050565b5f80fd5b5f73ffffffffffffffffffffffffffffffffffffffff82169050919050565b5f6115a282611579565b9050919050565b6115b281611598565b81146115bc575f80fd5b50565b5f813590506115cd816115a9565b92915050565b5f819050919050565b6115e5816115d3565b81146115ef575f80fd5b50565b5f81359050611600816115dc565b92915050565b5f806040838503121561161c5761161b611575565b5b5f611629858286016115bf565b925050602061163a858286016115f2565b9150509250929050565b5f8115159050919050565b61165881611644565b82525050565b5f6020820190506116715f83018461164f565b92915050565b611680816115d3565b82525050565b5f6020820190506116995f830184611677565b92915050565b5f805f606084860312156116b6576116b5611575565b5b5f6116c3868287016115bf565b93505060206116d4868287016115bf565b92505060406116e5868287016115f2565b9150509250925092565b6116f881611598565b82525050565b5f6020820190506117115f8301846116ef565b92915050565b5f60ff82169050919050565b61172c81611717565b82525050565b5f6020820190506117455f830184611723565b92915050565b5f819050919050565b5f61176e61176961176484611579565b61174b565b611579565b9050919050565b5f61177f82611754565b9050919050565b5f61179082611775565b9050919050565b6117a081611786565b82525050565b5f6020820190506117b95f830184611797565b92915050565b5f602082840312156117d4576117d3611575565b5b5f6117e1848285016115bf565b91505092915050565b5f602082840312156117ff576117fe611575565b5b5f61180c848285016115f2565b91505092915050565b5f61181f82611775565b9050919050565b61182f81611815565b82525050565b5f6020820190506118485f830184611826565b92915050565b5f806040838503121561186457611863611575565b5b5f611871858286016115bf565b9250506020611882858286016115bf565b9150509250929050565b7f4e487b71000000000000000000000000000000000000000000000000000000005f52602260045260245ffd5b5f60028204905060018216806118d057607f821691505b6020821081036118e3576118e261188c565b5b50919050565b5f6040820190506118fc5f8301856116ef565b6119096020830184611677565b9392505050565b5f8151905061191e816115dc565b92915050565b5f6020828403121561193957611938611575565b5b5f61194684828501611910565b91505092915050565b5f6060820190506119625f8301866116ef565b61196f6020830185611677565b61197c6040830184611677565b949350505050565b7f4e487b71000000000000000000000000000000000000000000000000000000005f52601160045260245ffd5b5f6119bb826115d3565b91506119c6836115d3565b92508282019050808211156119de576119dd611984565b5b9291505056fea2646970667358221220719d7971e5ee436e844835725834a1191df24cc1bfe3897661e3ff34f499a5db64736f6c634300081a0033608060405234801561000f575f80fd5b50604051612cfb380380612cfb833981810160405281019061003191906105a5565b86868686868686338787816003908161004a919061087e565b50806004908161005a919061087e565b5050505f73ffffffffffffffffffffffffffffffffffffffff168173ffffffffffffffffffffffffffffffffffffffff16036100cd575f6040517f1e4fbdf70000000000000000000000000000000000000000000000000000000081526004016100c4919061095c565b60405180910390fd5b6100dc816102d360201b60201c565b5060016006819055505f820361011e576040517f9a5818d800000000000000000000000000000000000000000000000000000000815260040160405180910390fd5b42831015610158576040517ffb2a675200000000000000000000000000000000000000000000000000000000815260040160405180910390fd5b8260098190555081600a819055508460075f6101000a81548173ffffffffffffffffffffffffffffffffffffffff021916908373ffffffffffffffffffffffffffffffffffffffff1602179055508360085f6101000a81548173ffffffffffffffffffffffffffffffffffffffff021916908373ffffffffffffffffffffffffffffffffffffffff16021790555080600b5f6101000a81548160ff02191690831515021790555084600b60016101000a81548173ffffffffffffffffffffffffffffffffffffffff021916908373ffffffffffffffffffffffffffffffffffffffff16021790555083600c5f6101000a81548173ffffffffffffffffffffffffffffffffffffffff021916908373ffffffffffffffffffffffffffffffffffffffff1602179055505050505050505033600d5f6101000a81548173ffffffffffffffffffffffffffffffffffffffff021916908373ffffffffffffffffffffffffffffffffffffffff16021790555050505050505050610975565b5f60055f9054906101000a900473ffffffffffffffffffffffffffffffffffffffff1690508160055f6101000a81548173ffffffffffffffffffffffffffffffffffffffff021916908373ffffffffffffffffffffffffffffffffffffffff1602179055508173ffffffffffffffffffffffffffffffffffffffff168173ffffffffffffffffffffffffffffffffffffffff167f8be0079c531659141344cd1fd0a4f28419497f9722a3daafe3b4186f6b6457e060405160405180910390a35050565b5f604051905090565b5f80fd5b5f80fd5b5f80fd5b5f80fd5b5f601f19601f8301169050919050565b7f4e487b71000000000000000000000000000000000000000000000000000000005f52604160045260245ffd5b6103f5826103af565b810181811067ffffffffffffffff82111715610414576104136103bf565b5b80604052505050565b5f610426610396565b905061043282826103ec565b919050565b5f67ffffffffffffffff821115610451576104506103bf565b5b61045a826103af565b9050602081019050919050565b8281835e5f83830152505050565b5f61048761048284610437565b61041d565b9050828152602081018484840111156104a3576104a26103ab565b5b6104ae848285610467565b509392505050565b5f82601f8301126104ca576104c96103a7565b5b81516104da848260208601610475565b91505092915050565b5f73ffffffffffffffffffffffffffffffffffffffff82169050919050565b5f61050c826104e3565b9050919050565b61051c81610502565b8114610526575f80fd5b50565b5f8151905061053781610513565b92915050565b5f819050919050565b61054f8161053d565b8114610559575f80fd5b50565b5f8151905061056a81610546565b92915050565b5f8115159050919050565b61058481610570565b811461058e575f80fd5b50565b5f8151905061059f8161057b565b92915050565b5f805f805f805f60e0888a0312156105c0576105bf61039f565b5b5f88015167ffffffffffffffff8111156105dd576105dc6103a3565b5b6105e98a828b016104b6565b975050602088015167ffffffffffffffff81111561060a576106096103a3565b5b6106168a828b016104b6565b96505060406106278a828b01610529565b95505060606106388a828b01610529565b94505060806106498a828b0161055c565b93505060a061065a8a828b0161055c565b92505060c061066b8a828b01610591565b91505092959891949750929550565b5f81519050919050565b7f4e487b71000000000000000000000000000000000000000000000000000000005f52602260045260245ffd5b5f60028204905060018216806106c857607f821691505b6020821081036106db576106da610684565b5b50919050565b5f819050815f5260205f209050919050565b5f6020601f8301049050919050565b5f82821b905092915050565b5f6008830261073d7fffffffffffffffffffffffffffffffffffffffffffffffffffffffffffffffff82610702565b6107478683610702565b95508019841693508086168417925050509392505050565b5f819050919050565b5f61078261077d6107788461053d565b61075f565b61053d565b9050919050565b5f819050919050565b61079b83610768565b6107af6107a782610789565b84845461070e565b825550505050565b5f90565b6107c36107b7565b6107ce818484610792565b505050565b5b818110156107f1576107e65f826107bb565b6001810190506107d4565b5050565b601f82111561083657610807816106e1565b610810846106f3565b8101602085101561081f578190505b61083361082b856106f3565b8301826107d3565b50505b505050565b5f82821c905092915050565b5f6108565f198460080261083b565b1980831691505092915050565b5f61086e8383610847565b9150826002028217905092915050565b6108878261067a565b67ffffffffffffffff8111156108a05761089f6103bf565b5b6108aa82546106b1565b6108b58282856107f5565b5f60209050601f8311600181146108e6575f84156108d4578287015190505b6108de8582610863565b865550610945565b601f1984166108f4866106e1565b5f5b8281101561091b578489015182556001820191506020850194506020810190506108f6565b868310156109385784890151610934601f891682610847565b8355505b6001600288020188555050505b505050505050565b61095681610502565b82525050565b5f60208201905061096f5f83018461094d565b92915050565b612379806109825f395ff3fe608060405234801561000f575f80fd5b5060043610610171575f3560e01c80637955eaa1116100dc578063ad8f500811610095578063dd62ed3e1161006f578063dd62ed3e14610417578063e0ca59bb14610447578063f2fde38b14610463578063f3c274a61461047f57610171565b8063ad8f5008146103bf578063d8dfeb45146103dd578063dd068ec1146103fb57610171565b80637955eaa1146102fb5780638da5cb5b146103175780638f6204871461033557806395d89b41146103535780639acea70d14610371578063a9059cbb1461038f57610171565b806340c10f191161012e57806340c10f191461024b57806348d399e714610267578063551dc014146102855780636f713c9c146102a357806370a08231146102c1578063715018a6146102f157610171565b806306fdde0314610175578063095ea7b31461019357806318160ddd146101c35780631e9a6950146101e157806323b872dd146101fd578063313ce5671461022d575b5f80fd5b61017d61049d565b60405161018a9190611dbd565b60405180910390f35b6101ad60048036038101906101a89190611e6e565b61052d565b6040516101ba9190611ec6565b60405180910390f35b6101cb61054f565b6040516101d89190611eee565b60405180910390f35b6101fb60048036038101906101f69190611e6e565b610558565b005b61021760048036038101906102129190611f07565b6105e8565b6040516102249190611ec6565b60405180910390f35b610235610616565b6040516102429190611f72565b60405180910390f35b61026560048036038101906102609190611e6e565b61061e565b005b61026f610748565b60405161027c9190611f9a565b60405180910390f35b61028d61076d565b60405161029a9190611f9a565b60405180910390f35b6102ab610792565b6040516102b8919061200e565b60405180910390f35b6102db60048036038101906102d69190612027565b6107b7565b6040516102e89190611eee565b60405180910390f35b6102f96107fc565b005b61031560048036038101906103109190611e6e565b61080f565b005b61031f61089f565b60405161032c9190611f9a565b60405180910390f35b61033d6108c7565b60405161034a9190611eee565b60405180910390f35b61035b6108cd565b6040516103689190611dbd565b60405180910390f35b61037961095d565b6040516103869190611f9a565b60405180910390f35b6103a960048036038101906103a49190611e6e565b610982565b6040516103b69190611ec6565b60405180910390f35b6103c76109a4565b6040516103d49190611eee565b60405180910390f35b6103e56109aa565b6040516103f2919061200e565b60405180910390f35b61041560048036038101906104109190611e6e565b6109d0565b005b610431600480360381019061042c9190612052565b610a21565b60405161043e9190611eee565b60405180910390f35b610461600480360381019061045c9190611e6e565b610aa3565b005b61047d60048036038101906104789190612027565b610b3a565b005b610487610bbe565b6040516104949190611ec6565b60405180910390f35b6060600380546104ac906120bd565b80601f01602080910402602001604051908101604052809291908181526020018280546104d8906120bd565b80156105235780601f106104fa57610100808354040283529160200191610523565b820191905f5260205f20905b81548152906001019060200180831161050657829003601f168201915b5050505050905090565b5f80610537610bd0565b9050610544818585610bd7565b600191505092915050565b5f600254905090565b600954421015610594576040517f43e14aa600000000000000000000000000000000000000000000000000000000815260040160405180910390fd5b8181806105a0836107b7565b10156105d8576040517ff4d678b800000000000000000000000000000000000000000000000000000000815260040160405180910390fd5b6105e28484610be9565b50505050565b5f806105f2610bd0565b90506105ff858285610f95565b61060a858585611027565b60019150509392505050565b5f6012905090565b610626611117565b818180600b60019054906101000a900473ffffffffffffffffffffffffffffffffffffffff1673ffffffffffffffffffffffffffffffffffffffff166370a08231846040518263ffffffff1660e01b81526004016106849190611f9a565b602060405180830381865afa15801561069f573d5f803e3d5ffd5b505050506040513d601f19601f820116820180604052508101906106c39190612101565b10156106fb576040517ff4d678b800000000000000000000000000000000000000000000000000000000815260040160405180910390fd5b826001811015610737576040517f2c5211c600000000000000000000000000000000000000000000000000000000815260040160405180910390fd5b610741858561119e565b5050505050565b60075f9054906101000a900473ffffffffffffffffffffffffffffffffffffffff1681565b600d5f9054906101000a900473ffffffffffffffffffffffffffffffffffffffff1681565b600c5f9054906101000a900473ffffffffffffffffffffffffffffffffffffffff1681565b5f805f8373ffffffffffffffffffffffffffffffffffffffff1673ffffffffffffffffffffffffffffffffffffffff1681526020019081526020015f20549050919050565b610804611117565b61080d5f611370565b565b81818061081b836107b7565b1015610853576040517ff4d678b800000000000000000000000000000000000000000000000000000000815260040160405180910390fd5b60095442101561088f576040517f43e14aa600000000000000000000000000000000000000000000000000000000815260040160405180910390fd5b6108998484611433565b50505050565b5f60055f9054906101000a900473ffffffffffffffffffffffffffffffffffffffff16905090565b60095481565b6060600480546108dc906120bd565b80601f0160208091040260200160405190810160405280929190818152602001828054610908906120bd565b80156109535780601f1061092a57610100808354040283529160200191610953565b820191905f5260205f20905b81548152906001019060200180831161093657829003601f168201915b5050505050905090565b60085f9054906101000a900473ffffffffffffffffffffffffffffffffffffffff1681565b5f8061098c610bd0565b9050610999818585611027565b600191505092915050565b600a5481565b600b60019054906101000a900473ffffffffffffffffffffffffffffffffffffffff1681565b6009544210610a0b576040517f0790d4e300000000000000000000000000000000000000000000000000000000815260040160405180910390fd5b610a13611117565b610a1d8282611663565b5050565b5f60015f8473ffffffffffffffffffffffffffffffffffffffff1673ffffffffffffffffffffffffffffffffffffffff1681526020019081526020015f205f8373ffffffffffffffffffffffffffffffffffffffff1673ffffffffffffffffffffffffffffffffffffffff1681526020019081526020015f2054905092915050565b6009544210610ade576040517f0790d4e300000000000000000000000000000000000000000000000000000000815260040160405180910390fd5b610ae6611117565b818180610af2836107b7565b1015610b2a576040517ff4d678b800000000000000000000000000000000000000000000000000000000815260040160405180910390fd5b610b348484610be9565b50505050565b610b42611117565b5f73ffffffffffffffffffffffffffffffffffffffff168173ffffffffffffffffffffffffffffffffffffffff1603610bb2575f6040517f1e4fbdf7000000000000000000000000000000000000000000000000000000008152600401610ba99190611f9a565b60405180910390fd5b610bbb81611370565b50565b600b5f9054906101000a900460ff1681565b5f33905090565b610be48383836001611817565b505050565b610bf16119e6565b818180610bfd836107b7565b1015610c35576040517ff4d678b800000000000000000000000000000000000000000000000000000000815260040160405180910390fd5b826001811015610c71576040517f2c5211c600000000000000000000000000000000000000000000000000000000815260040160405180910390fd5b5f600b60019054906101000a900473ffffffffffffffffffffffffffffffffffffffff1673ffffffffffffffffffffffffffffffffffffffff166370a08231306040518263ffffffff1660e01b8152600401610ccd9190611f9a565b602060405180830381865afa158015610ce8573d5f803e3d5ffd5b505050506040513d601f19601f82011682018060405250810190610d0c9190612101565b90505f600c5f9054906101000a900473ffffffffffffffffffffffffffffffffffffffff1673ffffffffffffffffffffffffffffffffffffffff166370a08231306040518263ffffffff1660e01b8152600401610d699190611f9a565b602060405180830381865afa158015610d84573d5f803e3d5ffd5b505050506040513d601f19601f82011682018060405250810190610da89190612101565b90505f82871115610db95782610dbb565b865b9050610dc78888611a2c565b86811015610edc575f8188610ddc9190612159565b90505f670de0b6b3a7640000600a5483610df6919061218c565b610e0091906121fa565b905080841015610e3c576040517ff4d678b800000000000000000000000000000000000000000000000000000000815260040160405180910390fd5b600c5f9054906101000a900473ffffffffffffffffffffffffffffffffffffffff1673ffffffffffffffffffffffffffffffffffffffff1663a9059cbb8b836040518363ffffffff1660e01b8152600401610e9892919061222a565b6020604051808303815f875af1158015610eb4573d5f803e3d5ffd5b505050506040513d601f19601f82011682018060405250810190610ed8919061227b565b5050505b5f811115610f8357600b60019054906101000a900473ffffffffffffffffffffffffffffffffffffffff1673ffffffffffffffffffffffffffffffffffffffff1663a9059cbb89836040518363ffffffff1660e01b8152600401610f4192919061222a565b6020604051808303815f875af1158015610f5d573d5f803e3d5ffd5b505050506040513d601f19601f82011682018060405250810190610f81919061227b565b505b505050505050610f91611aab565b5050565b5f610fa08484610a21565b90507fffffffffffffffffffffffffffffffffffffffffffffffffffffffffffffffff81146110215781811015611012578281836040517ffb8f41b2000000000000000000000000000000000000000000000000000000008152600401611009939291906122a6565b60405180910390fd5b61102084848484035f611817565b5b50505050565b5f73ffffffffffffffffffffffffffffffffffffffff168373ffffffffffffffffffffffffffffffffffffffff1603611097575f6040517f96c6fd1e00000000000000000000000000000000000000000000000000000000815260040161108e9190611f9a565b60405180910390fd5b5f73ffffffffffffffffffffffffffffffffffffffff168273ffffffffffffffffffffffffffffffffffffffff1603611107575f6040517fec442f050000000000000000000000000000000000000000000000000000000081526004016110fe9190611f9a565b60405180910390fd5b611112838383611ab5565b505050565b61111f610bd0565b73ffffffffffffffffffffffffffffffffffffffff1661113d61089f565b73ffffffffffffffffffffffffffffffffffffffff161461119c57611160610bd0565b6040517f118cdaa70000000000000000000000000000000000000000000000000000000081526004016111939190611f9a565b60405180910390fd5b565b6111a66119e6565b818180600b60019054906101000a900473ffffffffffffffffffffffffffffffffffffffff1673ffffffffffffffffffffffffffffffffffffffff166370a08231846040518263ffffffff1660e01b81526004016112049190611f9a565b602060405180830381865afa15801561121f573d5f803e3d5ffd5b505050506040513d601f19601f820116820180604052508101906112439190612101565b101561127b576040517ff4d678b800000000000000000000000000000000000000000000000000000000815260040160405180910390fd5b8260018110156112b7576040517f2c5211c600000000000000000000000000000000000000000000000000000000815260040160405180910390fd5b6112c18585611cce565b600b60019054906101000a900473ffffffffffffffffffffffffffffffffffffffff1673ffffffffffffffffffffffffffffffffffffffff166323b872dd8630876040518463ffffffff1660e01b8152600401611320939291906122db565b6020604051808303815f875af115801561133c573d5f803e3d5ffd5b505050506040513d601f19601f82011682018060405250810190611360919061227b565b5050505061136c611aab565b5050565b5f60055f9054906101000a900473ffffffffffffffffffffffffffffffffffffffff1690508160055f6101000a81548173ffffffffffffffffffffffffffffffffffffffff021916908373ffffffffffffffffffffffffffffffffffffffff1602179055508173ffffffffffffffffffffffffffffffffffffffff168173ffffffffffffffffffffffffffffffffffffffff167f8be0079c531659141344cd1fd0a4f28419497f9722a3daafe3b4186f6b6457e060405160405180910390a35050565b61143b6119e6565b818180611447836107b7565b101561147f576040517ff4d678b800000000000000000000000000000000000000000000000000000000815260040160405180910390fd5b8260018110156114bb576040517f2c5211c600000000000000000000000000000000000000000000000000000000815260040160405180910390fd5b83600c5f9054906101000a900473ffffffffffffffffffffffffffffffffffffffff1673ffffffffffffffffffffffffffffffffffffffff166370a08231306040518263ffffffff1660e01b81526004016115169190611f9a565b602060405180830381865afa158015611531573d5f803e3d5ffd5b505050506040513d601f19601f820116820180604052508101906115559190612101565b101561158d576040517ff4d678b800000000000000000000000000000000000000000000000000000000815260040160405180910390fd5b6115978585611a2c565b600c5f9054906101000a900473ffffffffffffffffffffffffffffffffffffffff1673ffffffffffffffffffffffffffffffffffffffff1663a9059cbb86670de0b6b3a7640000600a54886115ec919061218c565b6115f691906121fa565b6040518363ffffffff1660e01b815260040161161392919061222a565b6020604051808303815f875af115801561162f573d5f803e3d5ffd5b505050506040513d601f19601f82011682018060405250810190611653919061227b565b5050505061165f611aab565b5050565b61166b6119e6565b60095442106116a6576040517f0790d4e300000000000000000000000000000000000000000000000000000000815260040160405180910390fd5b6116ae611117565b600b60019054906101000a900473ffffffffffffffffffffffffffffffffffffffff1673ffffffffffffffffffffffffffffffffffffffff1663a9059cbb83836040518363ffffffff1660e01b815260040161170b92919061222a565b6020604051808303815f875af1158015611727573d5f803e3d5ffd5b505050506040513d601f19601f8201168201806040525081019061174b919061227b565b50600c5f9054906101000a900473ffffffffffffffffffffffffffffffffffffffff1673ffffffffffffffffffffffffffffffffffffffff166323b872dd8330670de0b6b3a7640000600a54866117a2919061218c565b6117ac91906121fa565b6040518463ffffffff1660e01b81526004016117ca939291906122db565b6020604051808303815f875af11580156117e6573d5f803e3d5ffd5b505050506040513d601f19601f8201168201806040525081019061180a919061227b565b50611813611aab565b5050565b5f73ffffffffffffffffffffffffffffffffffffffff168473ffffffffffffffffffffffffffffffffffffffff1603611887575f6040517fe602df0500000000000000000000000000000000000000000000000000000000815260040161187e9190611f9a565b60405180910390fd5b5f73ffffffffffffffffffffffffffffffffffffffff168373ffffffffffffffffffffffffffffffffffffffff16036118f7575f6040517f94280d620000000000000000000000000000000000000000000000000000000081526004016118ee9190611f9a565b60405180910390fd5b8160015f8673ffffffffffffffffffffffffffffffffffffffff1673ffffffffffffffffffffffffffffffffffffffff1681526020019081526020015f205f8573ffffffffffffffffffffffffffffffffffffffff1673ffffffffffffffffffffffffffffffffffffffff1681526020019081526020015f208190555080156119e0578273ffffffffffffffffffffffffffffffffffffffff168473ffffffffffffffffffffffffffffffffffffffff167f8c5be1e5ebec7d5bd14f71427d1e84f3dd0314c0f7b2291e5b200ac8c7c3b925846040516119d79190611eee565b60405180910390a35b50505050565b600260065403611a22576040517f3ee5aeb500000000000000000000000000000000000000000000000000000000815260040160405180910390fd5b6002600681905550565b5f73ffffffffffffffffffffffffffffffffffffffff168273ffffffffffffffffffffffffffffffffffffffff1603611a9c575f6040517f96c6fd1e000000000000000000000000000000000000000000000000000000008152600401611a939190611f9a565b60405180910390fd5b611aa7825f83611ab5565b5050565b6001600681905550565b5f73ffffffffffffffffffffffffffffffffffffffff168373ffffffffffffffffffffffffffffffffffffffff1603611b05578060025f828254611af99190612310565b92505081905550611bd3565b5f805f8573ffffffffffffffffffffffffffffffffffffffff1673ffffffffffffffffffffffffffffffffffffffff1681526020019081526020015f2054905081811015611b8e578381836040517fe450d38c000000000000000000000000000000000000000000000000000000008152600401611b85939291906122a6565b60405180910390fd5b8181035f808673ffffffffffffffffffffffffffffffffffffffff1673ffffffffffffffffffffffffffffffffffffffff1681526020019081526020015f2081905550505b5f73ffffffffffffffffffffffffffffffffffffffff168273ffffffffffffffffffffffffffffffffffffffff1603611c1a578060025f8282540392505081905550611c64565b805f808473ffffffffffffffffffffffffffffffffffffffff1673ffffffffffffffffffffffffffffffffffffffff1681526020019081526020015f205f82825401925050819055505b8173ffffffffffffffffffffffffffffffffffffffff168373ffffffffffffffffffffffffffffffffffffffff167fddf252ad1be2c89b69c2b068fc378daa952ba7f163c4a11628f55a4df523b3ef83604051611cc19190611eee565b60405180910390a3505050565b5f73ffffffffffffffffffffffffffffffffffffffff168273ffffffffffffffffffffffffffffffffffffffff1603611d3e575f6040517fec442f05000000000000000000000000000000000000000000000000000000008152600401611d359190611f9a565b60405180910390fd5b611d495f8383611ab5565b5050565b5f81519050919050565b5f82825260208201905092915050565b8281835e5f83830152505050565b5f601f19601f8301169050919050565b5f611d8f82611d4d565b611d998185611d57565b9350611da9818560208601611d67565b611db281611d75565b840191505092915050565b5f6020820190508181035f830152611dd58184611d85565b905092915050565b5f80fd5b5f73ffffffffffffffffffffffffffffffffffffffff82169050919050565b5f611e0a82611de1565b9050919050565b611e1a81611e00565b8114611e24575f80fd5b50565b5f81359050611e3581611e11565b92915050565b5f819050919050565b611e4d81611e3b565b8114611e57575f80fd5b50565b5f81359050611e6881611e44565b92915050565b5f8060408385031215611e8457611e83611ddd565b5b5f611e9185828601611e27565b9250506020611ea285828601611e5a565b9150509250929050565b5f8115159050919050565b611ec081611eac565b82525050565b5f602082019050611ed95f830184611eb7565b92915050565b611ee881611e3b565b82525050565b5f602082019050611f015f830184611edf565b92915050565b5f805f60608486031215611f1e57611f1d611ddd565b5b5f611f2b86828701611e27565b9350506020611f3c86828701611e27565b9250506040611f4d86828701611e5a565b9150509250925092565b5f60ff82169050919050565b611f6c81611f57565b82525050565b5f602082019050611f855f830184611f63565b92915050565b611f9481611e00565b82525050565b5f602082019050611fad5f830184611f8b565b92915050565b5f819050919050565b5f611fd6611fd1611fcc84611de1565b611fb3565b611de1565b9050919050565b5f611fe782611fbc565b9050919050565b5f611ff882611fdd565b9050919050565b61200881611fee565b82525050565b5f6020820190506120215f830184611fff565b92915050565b5f6020828403121561203c5761203b611ddd565b5b5f61204984828501611e27565b91505092915050565b5f806040838503121561206857612067611ddd565b5b5f61207585828601611e27565b925050602061208685828601611e27565b9150509250929050565b7f4e487b71000000000000000000000000000000000000000000000000000000005f52602260045260245ffd5b5f60028204905060018216806120d457607f821691505b6020821081036120e7576120e6612090565b5b50919050565b5f815190506120fb81611e44565b92915050565b5f6020828403121561211657612115611ddd565b5b5f612123848285016120ed565b91505092915050565b7f4e487b71000000000000000000000000000000000000000000000000000000005f52601160045260245ffd5b5f61216382611e3b565b915061216e83611e3b565b92508282039050818111156121865761218561212c565b5b92915050565b5f61219682611e3b565b91506121a183611e3b565b92508282026121af81611e3b565b915082820484148315176121c6576121c561212c565b5b5092915050565b7f4e487b71000000000000000000000000000000000000000000000000000000005f52601260045260245ffd5b5f61220482611e3b565b915061220f83611e3b565b92508261221f5761221e6121cd565b5b828204905092915050565b5f60408201905061223d5f830185611f8b565b61224a6020830184611edf565b9392505050565b61225a81611eac565b8114612264575f80fd5b50565b5f8151905061227581612251565b92915050565b5f602082840312156122905761228f611ddd565b5b5f61229d84828501612267565b91505092915050565b5f6060820190506122b95f830186611f8b565b6122c66020830185611edf565b6122d36040830184611edf565b949350505050565b5f6060820190506122ee5f830186611f8b565b6122fb6020830185611f8b565b6123086040830184611edf565b949350505050565b5f61231a82611e3b565b915061232583611e3b565b925082820190508082111561233d5761233c61212c565b5b9291505056fea264697066735822122020b7fa0c3e4f9f9d7321de4a5bd5d756ae7b67ed87d2700c236baefd9020039f64736f6c634300081a0033",
			"opcodes": "PUSH1 0x80 PUSH1 0x40 MSTORE CALLVALUE DUP1 ISZERO PUSH2 0xF JUMPI PUSH0 DUP1 REVERT JUMPDEST POP PUSH1 0x40 MLOAD PUSH2 0x52E3 CODESIZE SUB DUP1 PUSH2 0x52E3 DUP4 CODECOPY DUP2 DUP2 ADD PUSH1 0x40 MSTORE DUP2 ADD SWAP1 PUSH2 0x31 SWAP2 SWAP1 PUSH2 0x6B1 JUMP JUMPDEST DUP7 DUP7 DUP7 DUP7 DUP7 DUP7 DUP7 CALLER DUP8 DUP8 DUP2 PUSH1 0x3 SWAP1 DUP2 PUSH2 0x4A SWAP2 SWAP1 PUSH2 0x98A JUMP JUMPDEST POP DUP1 PUSH1 0x4 SWAP1 DUP2 PUSH2 0x5A SWAP2 SWAP1 PUSH2 0x98A JUMP JUMPDEST POP POP POP PUSH0 PUSH20 0xFFFFFFFFFFFFFFFFFFFFFFFFFFFFFFFFFFFFFFFF AND DUP2 PUSH20 0xFFFFFFFFFFFFFFFFFFFFFFFFFFFFFFFFFFFFFFFF AND SUB PUSH2 0xCD JUMPI PUSH0 PUSH1 0x40 MLOAD PUSH32 0x1E4FBDF700000000000000000000000000000000000000000000000000000000 DUP2 MSTORE PUSH1 0x4 ADD PUSH2 0xC4 SWAP2 SWAP1 PUSH2 0xA68 JUMP JUMPDEST PUSH1 0x40 MLOAD DUP1 SWAP2 SUB SWAP1 REVERT JUMPDEST PUSH2 0xDC DUP2 PUSH2 0x3D2 PUSH1 0x20 SHL PUSH1 0x20 SHR JUMP JUMPDEST POP PUSH1 0x1 PUSH1 0x6 DUP2 SWAP1 SSTORE POP PUSH0 DUP3 SUB PUSH2 0x11E JUMPI PUSH1 0x40 MLOAD PUSH32 0x9A5818D800000000000000000000000000000000000000000000000000000000 DUP2 MSTORE PUSH1 0x4 ADD PUSH1 0x40 MLOAD DUP1 SWAP2 SUB SWAP1 REVERT JUMPDEST TIMESTAMP DUP4 LT ISZERO PUSH2 0x158 JUMPI PUSH1 0x40 MLOAD PUSH32 0xFB2A675200000000000000000000000000000000000000000000000000000000 DUP2 MSTORE PUSH1 0x4 ADD PUSH1 0x40 MLOAD DUP1 SWAP2 SUB SWAP1 REVERT JUMPDEST DUP3 PUSH1 0x9 DUP2 SWAP1 SSTORE POP DUP2 PUSH1 0xA DUP2 SWAP1 SSTORE POP DUP5 PUSH1 0x7 PUSH0 PUSH2 0x100 EXP DUP2 SLOAD DUP2 PUSH20 0xFFFFFFFFFFFFFFFFFFFFFFFFFFFFFFFFFFFFFFFF MUL NOT AND SWAP1 DUP4 PUSH20 0xFFFFFFFFFFFFFFFFFFFFFFFFFFFFFFFFFFFFFFFF AND MUL OR SWAP1 SSTORE POP DUP4 PUSH1 0x8 PUSH0 PUSH2 0x100 EXP DUP2 SLOAD DUP2 PUSH20 0xFFFFFFFFFFFFFFFFFFFFFFFFFFFFFFFFFFFFFFFF MUL NOT AND SWAP1 DUP4 PUSH20 0xFFFFFFFFFFFFFFFFFFFFFFFFFFFFFFFFFFFFFFFF AND MUL OR SWAP1 SSTORE POP DUP1 PUSH1 0xB PUSH0 PUSH2 0x100 EXP DUP2 SLOAD DUP2 PUSH1 0xFF MUL NOT AND SWAP1 DUP4 ISZERO ISZERO MUL OR SWAP1 SSTORE POP DUP5 PUSH1 0xB PUSH1 0x1 PUSH2 0x100 EXP DUP2 SLOAD DUP2 PUSH20 0xFFFFFFFFFFFFFFFFFFFFFFFFFFFFFFFFFFFFFFFF MUL NOT AND SWAP1 DUP4 PUSH20 0xFFFFFFFFFFFFFFFFFFFFFFFFFFFFFFFFFFFFFFFF AND MUL OR SWAP1 SSTORE POP DUP4 PUSH1 0xC PUSH0 PUSH2 0x100 EXP DUP2 SLOAD DUP2 PUSH20 0xFFFFFFFFFFFFFFFFFFFFFFFFFFFFFFFFFFFFFFFF MUL NOT AND SWAP1 DUP4 PUSH20 0xFFFFFFFFFFFFFFFFFFFFFFFFFFFFFFFFFFFFFFFF AND MUL OR SWAP1 SSTORE POP POP POP POP POP POP POP POP DUP7 DUP7 DUP7 DUP7 DUP7 DUP7 DUP7 PUSH1 0x40 MLOAD PUSH2 0x29A SWAP1 PUSH2 0x495 JUMP JUMPDEST PUSH2 0x2AA SWAP8 SWAP7 SWAP6 SWAP5 SWAP4 SWAP3 SWAP2 SWAP1 PUSH2 0xAE7 JUMP JUMPDEST PUSH1 0x40 MLOAD DUP1 SWAP2 SUB SWAP1 PUSH0 CREATE DUP1 ISZERO DUP1 ISZERO PUSH2 0x2C3 JUMPI RETURNDATASIZE PUSH0 DUP1 RETURNDATACOPY RETURNDATASIZE PUSH0 REVERT JUMPDEST POP PUSH1 0xE PUSH0 PUSH2 0x100 EXP DUP2 SLOAD DUP2 PUSH20 0xFFFFFFFFFFFFFFFFFFFFFFFFFFFFFFFFFFFFFFFF MUL NOT AND SWAP1 DUP4 PUSH20 0xFFFFFFFFFFFFFFFFFFFFFFFFFFFFFFFFFFFFFFFF AND MUL OR SWAP1 SSTORE POP PUSH1 0xE PUSH0 SWAP1 SLOAD SWAP1 PUSH2 0x100 EXP SWAP1 DIV PUSH20 0xFFFFFFFFFFFFFFFFFFFFFFFFFFFFFFFFFFFFFFFF AND PUSH1 0xD PUSH0 PUSH2 0x100 EXP DUP2 SLOAD DUP2 PUSH20 0xFFFFFFFFFFFFFFFFFFFFFFFFFFFFFFFFFFFFFFFF MUL NOT AND SWAP1 DUP4 PUSH20 0xFFFFFFFFFFFFFFFFFFFFFFFFFFFFFFFFFFFFFFFF AND MUL OR SWAP1 SSTORE POP PUSH32 0x9A470F4FCF5DC527B01C8BBB39FC28084AEB2F9097CB38EA95F953378199BFFA ADDRESS DUP7 PUSH1 0xD PUSH0 SWAP1 SLOAD SWAP1 PUSH2 0x100 EXP SWAP1 DIV PUSH20 0xFFFFFFFFFFFFFFFFFFFFFFFFFFFFFFFFFFFFFFFF AND DUP7 DUP7 DUP7 PUSH1 0x40 MLOAD PUSH2 0x3BE SWAP7 SWAP6 SWAP5 SWAP4 SWAP3 SWAP2 SWAP1 PUSH2 0xB62 JUMP JUMPDEST PUSH1 0x40 MLOAD DUP1 SWAP2 SUB SWAP1 LOG1 POP POP POP POP POP POP POP PUSH2 0xBC1 JUMP JUMPDEST PUSH0 PUSH1 0x5 PUSH0 SWAP1 SLOAD SWAP1 PUSH2 0x100 EXP SWAP1 DIV PUSH20 0xFFFFFFFFFFFFFFFFFFFFFFFFFFFFFFFFFFFFFFFF AND SWAP1 POP DUP2 PUSH1 0x5 PUSH0 PUSH2 0x100 EXP DUP2 SLOAD DUP2 PUSH20 0xFFFFFFFFFFFFFFFFFFFFFFFFFFFFFFFFFFFFFFFF MUL NOT AND SWAP1 DUP4 PUSH20 0xFFFFFFFFFFFFFFFFFFFFFFFFFFFFFFFFFFFFFFFF AND MUL OR SWAP1 SSTORE POP DUP2 PUSH20 0xFFFFFFFFFFFFFFFFFFFFFFFFFFFFFFFFFFFFFFFF AND DUP2 PUSH20 0xFFFFFFFFFFFFFFFFFFFFFFFFFFFFFFFFFFFFFFFF AND PUSH32 0x8BE0079C531659141344CD1FD0A4F28419497F9722A3DAAFE3B4186F6B6457E0 PUSH1 0x40 MLOAD PUSH1 0x40 MLOAD DUP1 SWAP2 SUB SWAP1 LOG3 POP POP JUMP JUMPDEST PUSH2 0x2CFB DUP1 PUSH2 0x25E8 DUP4 CODECOPY ADD SWAP1 JUMP JUMPDEST PUSH0 PUSH1 0x40 MLOAD SWAP1 POP SWAP1 JUMP JUMPDEST PUSH0 DUP1 REVERT JUMPDEST PUSH0 DUP1 REVERT JUMPDEST PUSH0 DUP1 REVERT JUMPDEST PUSH0 DUP1 REVERT JUMPDEST PUSH0 PUSH1 0x1F NOT PUSH1 0x1F DUP4 ADD AND SWAP1 POP SWAP2 SWAP1 POP JUMP JUMPDEST PUSH32 0x4E487B7100000000000000000000000000000000000000000000000000000000 PUSH0 MSTORE PUSH1 0x41 PUSH1 0x4 MSTORE PUSH1 0x24 PUSH0 REVERT JUMPDEST PUSH2 0x501 DUP3 PUSH2 0x4BB JUMP JUMPDEST DUP2 ADD DUP2 DUP2 LT PUSH8 0xFFFFFFFFFFFFFFFF DUP3 GT OR ISZERO PUSH2 0x520 JUMPI PUSH2 0x51F PUSH2 0x4CB JUMP JUMPDEST JUMPDEST DUP1 PUSH1 0x40 MSTORE POP POP POP JUMP JUMPDEST PUSH0 PUSH2 0x532 PUSH2 0x4A2 JUMP JUMPDEST SWAP1 POP PUSH2 0x53E DUP3 DUP3 PUSH2 0x4F8 JUMP JUMPDEST SWAP2 SWAP1 POP JUMP JUMPDEST PUSH0 PUSH8 0xFFFFFFFFFFFFFFFF DUP3 GT ISZERO PUSH2 0x55D JUMPI PUSH2 0x55C PUSH2 0x4CB JUMP JUMPDEST JUMPDEST PUSH2 0x566 DUP3 PUSH2 0x4BB JUMP JUMPDEST SWAP1 POP PUSH1 0x20 DUP2 ADD SWAP1 POP SWAP2 SWAP1 POP JUMP JUMPDEST DUP3 DUP2 DUP4 MCOPY PUSH0 DUP4 DUP4 ADD MSTORE POP POP POP JUMP JUMPDEST PUSH0 PUSH2 0x593 PUSH2 0x58E DUP5 PUSH2 0x543 JUMP JUMPDEST PUSH2 0x529 JUMP JUMPDEST SWAP1 POP DUP3 DUP2 MSTORE PUSH1 0x20 DUP2 ADD DUP5 DUP5 DUP5 ADD GT ISZERO PUSH2 0x5AF JUMPI PUSH2 0x5AE PUSH2 0x4B7 JUMP JUMPDEST JUMPDEST PUSH2 0x5BA DUP5 DUP3 DUP6 PUSH2 0x573 JUMP JUMPDEST POP SWAP4 SWAP3 POP POP POP JUMP JUMPDEST PUSH0 DUP3 PUSH1 0x1F DUP4 ADD SLT PUSH2 0x5D6 JUMPI PUSH2 0x5D5 PUSH2 0x4B3 JUMP JUMPDEST JUMPDEST DUP2 MLOAD PUSH2 0x5E6 DUP5 DUP3 PUSH1 0x20 DUP7 ADD PUSH2 0x581 JUMP JUMPDEST SWAP2 POP POP SWAP3 SWAP2 POP POP JUMP JUMPDEST PUSH0 PUSH20 0xFFFFFFFFFFFFFFFFFFFFFFFFFFFFFFFFFFFFFFFF DUP3 AND SWAP1 POP SWAP2 SWAP1 POP JUMP JUMPDEST PUSH0 PUSH2 0x618 DUP3 PUSH2 0x5EF JUMP JUMPDEST SWAP1 POP SWAP2 SWAP1 POP JUMP JUMPDEST PUSH2 0x628 DUP2 PUSH2 0x60E JUMP JUMPDEST DUP2 EQ PUSH2 0x632 JUMPI PUSH0 DUP1 REVERT JUMPDEST POP JUMP JUMPDEST PUSH0 DUP2 MLOAD SWAP1 POP PUSH2 0x643 DUP2 PUSH2 0x61F JUMP JUMPDEST SWAP3 SWAP2 POP POP JUMP JUMPDEST PUSH0 DUP2 SWAP1 POP SWAP2 SWAP1 POP JUMP JUMPDEST PUSH2 0x65B DUP2 PUSH2 0x649 JUMP JUMPDEST DUP2 EQ PUSH2 0x665 JUMPI PUSH0 DUP1 REVERT JUMPDEST POP JUMP JUMPDEST PUSH0 DUP2 MLOAD SWAP1 POP PUSH2 0x676 DUP2 PUSH2 0x652 JUMP JUMPDEST SWAP3 SWAP2 POP POP JUMP JUMPDEST PUSH0 DUP2 ISZERO ISZERO SWAP1 POP SWAP2 SWAP1 POP JUMP JUMPDEST PUSH2 0x690 DUP2 PUSH2 0x67C JUMP JUMPDEST DUP2 EQ PUSH2 0x69A JUMPI PUSH0 DUP1 REVERT JUMPDEST POP JUMP JUMPDEST PUSH0 DUP2 MLOAD SWAP1 POP PUSH2 0x6AB DUP2 PUSH2 0x687 JUMP JUMPDEST SWAP3 SWAP2 POP POP JUMP JUMPDEST PUSH0 DUP1 PUSH0 DUP1 PUSH0 DUP1 PUSH0 PUSH1 0xE0 DUP9 DUP11 SUB SLT ISZERO PUSH2 0x6CC JUMPI PUSH2 0x6CB PUSH2 0x4AB JUMP JUMPDEST JUMPDEST PUSH0 DUP9 ADD MLOAD PUSH8 0xFFFFFFFFFFFFFFFF DUP2 GT ISZERO PUSH2 0x6E9 JUMPI PUSH2 0x6E8 PUSH2 0x4AF JUMP JUMPDEST JUMPDEST PUSH2 0x6F5 DUP11 DUP3 DUP12 ADD PUSH2 0x5C2 JUMP JUMPDEST SWAP8 POP POP PUSH1 0x20 DUP9 ADD MLOAD PUSH8 0xFFFFFFFFFFFFFFFF DUP2 GT ISZERO PUSH2 0x716 JUMPI PUSH2 0x715 PUSH2 0x4AF JUMP JUMPDEST JUMPDEST PUSH2 0x722 DUP11 DUP3 DUP12 ADD PUSH2 0x5C2 JUMP JUMPDEST SWAP7 POP POP PUSH1 0x40 PUSH2 0x733 DUP11 DUP3 DUP12 ADD PUSH2 0x635 JUMP JUMPDEST SWAP6 POP POP PUSH1 0x60 PUSH2 0x744 DUP11 DUP3 DUP12 ADD PUSH2 0x635 JUMP JUMPDEST SWAP5 POP POP PUSH1 0x80 PUSH2 0x755 DUP11 DUP3 DUP12 ADD PUSH2 0x668 JUMP JUMPDEST SWAP4 POP POP PUSH1 0xA0 PUSH2 0x766 DUP11 DUP3 DUP12 ADD PUSH2 0x668 JUMP JUMPDEST SWAP3 POP POP PUSH1 0xC0 PUSH2 0x777 DUP11 DUP3 DUP12 ADD PUSH2 0x69D JUMP JUMPDEST SWAP2 POP POP SWAP3 SWAP6 SWAP9 SWAP2 SWAP5 SWAP8 POP SWAP3 SWAP6 POP JUMP JUMPDEST PUSH0 DUP2 MLOAD SWAP1 POP SWAP2 SWAP1 POP JUMP JUMPDEST PUSH32 0x4E487B7100000000000000000000000000000000000000000000000000000000 PUSH0 MSTORE PUSH1 0x22 PUSH1 0x4 MSTORE PUSH1 0x24 PUSH0 REVERT JUMPDEST PUSH0 PUSH1 0x2 DUP3 DIV SWAP1 POP PUSH1 0x1 DUP3 AND DUP1 PUSH2 0x7D4 JUMPI PUSH1 0x7F DUP3 AND SWAP2 POP JUMPDEST PUSH1 0x20 DUP3 LT DUP2 SUB PUSH2 0x7E7 JUMPI PUSH2 0x7E6 PUSH2 0x790 JUMP JUMPDEST JUMPDEST POP SWAP2 SWAP1 POP JUMP JUMPDEST PUSH0 DUP2 SWAP1 POP DUP2 PUSH0 MSTORE PUSH1 0x20 PUSH0 KECCAK256 SWAP1 POP SWAP2 SWAP1 POP JUMP JUMPDEST PUSH0 PUSH1 0x20 PUSH1 0x1F DUP4 ADD DIV SWAP1 POP SWAP2 SWAP1 POP JUMP JUMPDEST PUSH0 DUP3 DUP3 SHL SWAP1 POP SWAP3 SWAP2 POP POP JUMP JUMPDEST PUSH0 PUSH1 0x8 DUP4 MUL PUSH2 0x849 PUSH32 0xFFFFFFFFFFFFFFFFFFFFFFFFFFFFFFFFFFFFFFFFFFFFFFFFFFFFFFFFFFFFFFFF DUP3 PUSH2 0x80E JUMP JUMPDEST PUSH2 0x853 DUP7 DUP4 PUSH2 0x80E JUMP JUMPDEST SWAP6 POP DUP1 NOT DUP5 AND SWAP4 POP DUP1 DUP7 AND DUP5 OR SWAP3 POP POP POP SWAP4 SWAP3 POP POP POP JUMP JUMPDEST PUSH0 DUP2 SWAP1 POP SWAP2 SWAP1 POP JUMP JUMPDEST PUSH0 PUSH2 0x88E PUSH2 0x889 PUSH2 0x884 DUP5 PUSH2 0x649 JUMP JUMPDEST PUSH2 0x86B JUMP JUMPDEST PUSH2 0x649 JUMP JUMPDEST SWAP1 POP SWAP2 SWAP1 POP JUMP JUMPDEST PUSH0 DUP2 SWAP1 POP SWAP2 SWAP1 POP JUMP JUMPDEST PUSH2 0x8A7 DUP4 PUSH2 0x874 JUMP JUMPDEST PUSH2 0x8BB PUSH2 0x8B3 DUP3 PUSH2 0x895 JUMP JUMPDEST DUP5 DUP5 SLOAD PUSH2 0x81A JUMP JUMPDEST DUP3 SSTORE POP POP POP POP JUMP JUMPDEST PUSH0 SWAP1 JUMP JUMPDEST PUSH2 0x8CF PUSH2 0x8C3 JUMP JUMPDEST PUSH2 0x8DA DUP2 DUP5 DUP5 PUSH2 0x89E JUMP JUMPDEST POP POP POP JUMP JUMPDEST JUMPDEST DUP2 DUP2 LT ISZERO PUSH2 0x8FD JUMPI PUSH2 0x8F2 PUSH0 DUP3 PUSH2 0x8C7 JUMP JUMPDEST PUSH1 0x1 DUP2 ADD SWAP1 POP PUSH2 0x8E0 JUMP JUMPDEST POP POP JUMP JUMPDEST PUSH1 0x1F DUP3 GT ISZERO PUSH2 0x942 JUMPI PUSH2 0x913 DUP2 PUSH2 0x7ED JUMP JUMPDEST PUSH2 0x91C DUP5 PUSH2 0x7FF JUMP JUMPDEST DUP2 ADD PUSH1 0x20 DUP6 LT ISZERO PUSH2 0x92B JUMPI DUP2 SWAP1 POP JUMPDEST PUSH2 0x93F PUSH2 0x937 DUP6 PUSH2 0x7FF JUMP JUMPDEST DUP4 ADD DUP3 PUSH2 0x8DF JUMP JUMPDEST POP POP JUMPDEST POP POP POP JUMP JUMPDEST PUSH0 DUP3 DUP3 SHR SWAP1 POP SWAP3 SWAP2 POP POP JUMP JUMPDEST PUSH0 PUSH2 0x962 PUSH0 NOT DUP5 PUSH1 0x8 MUL PUSH2 0x947 JUMP JUMPDEST NOT DUP1 DUP4 AND SWAP2 POP POP SWAP3 SWAP2 POP POP JUMP JUMPDEST PUSH0 PUSH2 0x97A DUP4 DUP4 PUSH2 0x953 JUMP JUMPDEST SWAP2 POP DUP3 PUSH1 0x2 MUL DUP3 OR SWAP1 POP SWAP3 SWAP2 POP POP JUMP JUMPDEST PUSH2 0x993 DUP3 PUSH2 0x786 JUMP JUMPDEST PUSH8 0xFFFFFFFFFFFFFFFF DUP2 GT ISZERO PUSH2 0x9AC JUMPI PUSH2 0x9AB PUSH2 0x4CB JUMP JUMPDEST JUMPDEST PUSH2 0x9B6 DUP3 SLOAD PUSH2 0x7BD JUMP JUMPDEST PUSH2 0x9C1 DUP3 DUP3 DUP6 PUSH2 0x901 JUMP JUMPDEST PUSH0 PUSH1 0x20 SWAP1 POP PUSH1 0x1F DUP4 GT PUSH1 0x1 DUP2 EQ PUSH2 0x9F2 JUMPI PUSH0 DUP5 ISZERO PUSH2 0x9E0 JUMPI DUP3 DUP8 ADD MLOAD SWAP1 POP JUMPDEST PUSH2 0x9EA DUP6 DUP3 PUSH2 0x96F JUMP JUMPDEST DUP7 SSTORE POP PUSH2 0xA51 JUMP JUMPDEST PUSH1 0x1F NOT DUP5 AND PUSH2 0xA00 DUP7 PUSH2 0x7ED JUMP JUMPDEST PUSH0 JUMPDEST DUP3 DUP2 LT ISZERO PUSH2 0xA27 JUMPI DUP5 DUP10 ADD MLOAD DUP3 SSTORE PUSH1 0x1 DUP3 ADD SWAP2 POP PUSH1 0x20 DUP6 ADD SWAP5 POP PUSH1 0x20 DUP2 ADD SWAP1 POP PUSH2 0xA02 JUMP JUMPDEST DUP7 DUP4 LT ISZERO PUSH2 0xA44 JUMPI DUP5 DUP10 ADD MLOAD PUSH2 0xA40 PUSH1 0x1F DUP10 AND DUP3 PUSH2 0x953 JUMP JUMPDEST DUP4 SSTORE POP JUMPDEST PUSH1 0x1 PUSH1 0x2 DUP9 MUL ADD DUP9 SSTORE POP POP POP JUMPDEST POP POP POP POP POP POP JUMP JUMPDEST PUSH2 0xA62 DUP2 PUSH2 0x60E JUMP JUMPDEST DUP3 MSTORE POP POP JUMP JUMPDEST PUSH0 PUSH1 0x20 DUP3 ADD SWAP1 POP PUSH2 0xA7B PUSH0 DUP4 ADD DUP5 PUSH2 0xA59 JUMP JUMPDEST SWAP3 SWAP2 POP POP JUMP JUMPDEST PUSH0 DUP3 DUP3 MSTORE PUSH1 0x20 DUP3 ADD SWAP1 POP SWAP3 SWAP2 POP POP JUMP JUMPDEST PUSH0 PUSH2 0xA9B DUP3 PUSH2 0x786 JUMP JUMPDEST PUSH2 0xAA5 DUP2 DUP6 PUSH2 0xA81 JUMP JUMPDEST SWAP4 POP PUSH2 0xAB5 DUP2 DUP6 PUSH1 0x20 DUP7 ADD PUSH2 0x573 JUMP JUMPDEST PUSH2 0xABE DUP2 PUSH2 0x4BB JUMP JUMPDEST DUP5 ADD SWAP2 POP POP SWAP3 SWAP2 POP POP JUMP JUMPDEST PUSH2 0xAD2 DUP2 PUSH2 0x649 JUMP JUMPDEST DUP3 MSTORE POP POP JUMP JUMPDEST PUSH2 0xAE1 DUP2 PUSH2 0x67C JUMP JUMPDEST DUP3 MSTORE POP POP JUMP JUMPDEST PUSH0 PUSH1 0xE0 DUP3 ADD SWAP1 POP DUP2 DUP2 SUB PUSH0 DUP4 ADD MSTORE PUSH2 0xAFF DUP2 DUP11 PUSH2 0xA91 JUMP JUMPDEST SWAP1 POP DUP2 DUP2 SUB PUSH1 0x20 DUP4 ADD MSTORE PUSH2 0xB13 DUP2 DUP10 PUSH2 0xA91 JUMP JUMPDEST SWAP1 POP PUSH2 0xB22 PUSH1 0x40 DUP4 ADD DUP9 PUSH2 0xA59 JUMP JUMPDEST PUSH2 0xB2F PUSH1 0x60 DUP4 ADD DUP8 PUSH2 0xA59 JUMP JUMPDEST PUSH2 0xB3C PUSH1 0x80 DUP4 ADD DUP7 PUSH2 0xAC9 JUMP JUMPDEST PUSH2 0xB49 PUSH1 0xA0 DUP4 ADD DUP6 PUSH2 0xAC9 JUMP JUMPDEST PUSH2 0xB56 PUSH1 0xC0 DUP4 ADD DUP5 PUSH2 0xAD8 JUMP JUMPDEST SWAP9 SWAP8 POP POP POP POP POP POP POP POP JUMP JUMPDEST PUSH0 PUSH1 0xC0 DUP3 ADD SWAP1 POP PUSH2 0xB75 PUSH0 DUP4 ADD DUP10 PUSH2 0xA59 JUMP JUMPDEST PUSH2 0xB82 PUSH1 0x20 DUP4 ADD DUP9 PUSH2 0xA59 JUMP JUMPDEST PUSH2 0xB8F PUSH1 0x40 DUP4 ADD DUP8 PUSH2 0xA59 JUMP JUMPDEST PUSH2 0xB9C PUSH1 0x60 DUP4 ADD DUP7 PUSH2 0xAC9 JUMP JUMPDEST PUSH2 0xBA9 PUSH1 0x80 DUP4 ADD DUP6 PUSH2 0xAC9 JUMP JUMPDEST PUSH2 0xBB6 PUSH1 0xA0 DUP4 ADD DUP5 PUSH2 0xAD8 JUMP JUMPDEST SWAP8 SWAP7 POP POP POP POP POP POP POP JUMP JUMPDEST PUSH2 0x1A1A DUP1 PUSH2 0xBCE PUSH0 CODECOPY PUSH0 RETURN INVALID PUSH1 0x80 PUSH1 0x40 MSTORE CALLVALUE DUP1 ISZERO PUSH2 0xF JUMPI PUSH0 DUP1 REVERT JUMPDEST POP PUSH1 0x4 CALLDATASIZE LT PUSH2 0x156 JUMPI PUSH0 CALLDATALOAD PUSH1 0xE0 SHR DUP1 PUSH4 0x95D89B41 GT PUSH2 0xC1 JUMPI DUP1 PUSH4 0xB07F0A41 GT PUSH2 0x7A JUMPI DUP1 PUSH4 0xB07F0A41 EQ PUSH2 0x3A8 JUMPI DUP1 PUSH4 0xD8DFEB45 EQ PUSH2 0x3C4 JUMPI DUP1 PUSH4 0xDB006A75 EQ PUSH2 0x3E2 JUMPI DUP1 PUSH4 0xDD62ED3E EQ PUSH2 0x3FE JUMPI DUP1 PUSH4 0xF2FDE38B EQ PUSH2 0x42E JUMPI DUP1 PUSH4 0xF3C274A6 EQ PUSH2 0x44A JUMPI PUSH2 0x156 JUMP JUMPDEST DUP1 PUSH4 0x95D89B41 EQ PUSH2 0x2E4 JUMPI DUP1 PUSH4 0x9ACEA70D EQ PUSH2 0x302 JUMPI DUP1 PUSH4 0xA0712D68 EQ PUSH2 0x320 JUMPI DUP1 PUSH4 0xA9059CBB EQ PUSH2 0x33C JUMPI DUP1 PUSH4 0xAD7448BC EQ PUSH2 0x36C JUMPI DUP1 PUSH4 0xAD8F5008 EQ PUSH2 0x38A JUMPI PUSH2 0x156 JUMP JUMPDEST DUP1 PUSH4 0x48D399E7 GT PUSH2 0x113 JUMPI DUP1 PUSH4 0x48D399E7 EQ PUSH2 0x232 JUMPI DUP1 PUSH4 0x6F713C9C EQ PUSH2 0x250 JUMPI DUP1 PUSH4 0x70A08231 EQ PUSH2 0x26E JUMPI DUP1 PUSH4 0x715018A6 EQ PUSH2 0x29E JUMPI DUP1 PUSH4 0x8DA5CB5B EQ PUSH2 0x2A8 JUMPI DUP1 PUSH4 0x8F620487 EQ PUSH2 0x2C6 JUMPI PUSH2 0x156 JUMP JUMPDEST DUP1 PUSH4 0x6FDDE03 EQ PUSH2 0x15A JUMPI DUP1 PUSH4 0x95EA7B3 EQ PUSH2 0x178 JUMPI DUP1 PUSH4 0x18160DDD EQ PUSH2 0x1A8 JUMPI DUP1 PUSH4 0x23B872DD EQ PUSH2 0x1C6 JUMPI DUP1 PUSH4 0x2C7D4240 EQ PUSH2 0x1F6 JUMPI DUP1 PUSH4 0x313CE567 EQ PUSH2 0x214 JUMPI JUMPDEST PUSH0 DUP1 REVERT JUMPDEST PUSH2 0x162 PUSH2 0x468 JUMP JUMPDEST PUSH1 0x40 MLOAD PUSH2 0x16F SWAP2 SWAP1 PUSH2 0x1555 JUMP JUMPDEST PUSH1 0x40 MLOAD DUP1 SWAP2 SUB SWAP1 RETURN JUMPDEST PUSH2 0x192 PUSH1 0x4 DUP1 CALLDATASIZE SUB DUP2 ADD SWAP1 PUSH2 0x18D SWAP2 SWAP1 PUSH2 0x1606 JUMP JUMPDEST PUSH2 0x4F8 JUMP JUMPDEST PUSH1 0x40 MLOAD PUSH2 0x19F SWAP2 SWAP1 PUSH2 0x165E JUMP JUMPDEST PUSH1 0x40 MLOAD DUP1 SWAP2 SUB SWAP1 RETURN JUMPDEST PUSH2 0x1B0 PUSH2 0x51A JUMP JUMPDEST PUSH1 0x40 MLOAD PUSH2 0x1BD SWAP2 SWAP1 PUSH2 0x1686 JUMP JUMPDEST PUSH1 0x40 MLOAD DUP1 SWAP2 SUB SWAP1 RETURN JUMPDEST PUSH2 0x1E0 PUSH1 0x4 DUP1 CALLDATASIZE SUB DUP2 ADD SWAP1 PUSH2 0x1DB SWAP2 SWAP1 PUSH2 0x169F JUMP JUMPDEST PUSH2 0x523 JUMP JUMPDEST PUSH1 0x40 MLOAD PUSH2 0x1ED SWAP2 SWAP1 PUSH2 0x165E JUMP JUMPDEST PUSH1 0x40 MLOAD DUP1 SWAP2 SUB SWAP1 RETURN JUMPDEST PUSH2 0x1FE PUSH2 0x551 JUMP JUMPDEST PUSH1 0x40 MLOAD PUSH2 0x20B SWAP2 SWAP1 PUSH2 0x16FE JUMP JUMPDEST PUSH1 0x40 MLOAD DUP1 SWAP2 SUB SWAP1 RETURN JUMPDEST PUSH2 0x21C PUSH2 0x576 JUMP JUMPDEST PUSH1 0x40 MLOAD PUSH2 0x229 SWAP2 SWAP1 PUSH2 0x1732 JUMP JUMPDEST PUSH1 0x40 MLOAD DUP1 SWAP2 SUB SWAP1 RETURN JUMPDEST PUSH2 0x23A PUSH2 0x57E JUMP JUMPDEST PUSH1 0x40 MLOAD PUSH2 0x247 SWAP2 SWAP1 PUSH2 0x16FE JUMP JUMPDEST PUSH1 0x40 MLOAD DUP1 SWAP2 SUB SWAP1 RETURN JUMPDEST PUSH2 0x258 PUSH2 0x5A3 JUMP JUMPDEST PUSH1 0x40 MLOAD PUSH2 0x265 SWAP2 SWAP1 PUSH2 0x17A6 JUMP JUMPDEST PUSH1 0x40 MLOAD DUP1 SWAP2 SUB SWAP1 RETURN JUMPDEST PUSH2 0x288 PUSH1 0x4 DUP1 CALLDATASIZE SUB DUP2 ADD SWAP1 PUSH2 0x283 SWAP2 SWAP1 PUSH2 0x17BF JUMP JUMPDEST PUSH2 0x5C8 JUMP JUMPDEST PUSH1 0x40 MLOAD PUSH2 0x295 SWAP2 SWAP1 PUSH2 0x1686 JUMP JUMPDEST PUSH1 0x40 MLOAD DUP1 SWAP2 SUB SWAP1 RETURN JUMPDEST PUSH2 0x2A6 PUSH2 0x60D JUMP JUMPDEST STOP JUMPDEST PUSH2 0x2B0 PUSH2 0x620 JUMP JUMPDEST PUSH1 0x40 MLOAD PUSH2 0x2BD SWAP2 SWAP1 PUSH2 0x16FE JUMP JUMPDEST PUSH1 0x40 MLOAD DUP1 SWAP2 SUB SWAP1 RETURN JUMPDEST PUSH2 0x2CE PUSH2 0x648 JUMP JUMPDEST PUSH1 0x40 MLOAD PUSH2 0x2DB SWAP2 SWAP1 PUSH2 0x1686 JUMP JUMPDEST PUSH1 0x40 MLOAD DUP1 SWAP2 SUB SWAP1 RETURN JUMPDEST PUSH2 0x2EC PUSH2 0x64E JUMP JUMPDEST PUSH1 0x40 MLOAD PUSH2 0x2F9 SWAP2 SWAP1 PUSH2 0x1555 JUMP JUMPDEST PUSH1 0x40 MLOAD DUP1 SWAP2 SUB SWAP1 RETURN JUMPDEST PUSH2 0x30A PUSH2 0x6DE JUMP JUMPDEST PUSH1 0x40 MLOAD PUSH2 0x317 SWAP2 SWAP1 PUSH2 0x16FE JUMP JUMPDEST PUSH1 0x40 MLOAD DUP1 SWAP2 SUB SWAP1 RETURN JUMPDEST PUSH2 0x33A PUSH1 0x4 DUP1 CALLDATASIZE SUB DUP2 ADD SWAP1 PUSH2 0x335 SWAP2 SWAP1 PUSH2 0x17EA JUMP JUMPDEST PUSH2 0x703 JUMP JUMPDEST STOP JUMPDEST PUSH2 0x356 PUSH1 0x4 DUP1 CALLDATASIZE SUB DUP2 ADD SWAP1 PUSH2 0x351 SWAP2 SWAP1 PUSH2 0x1606 JUMP JUMPDEST PUSH2 0x7E6 JUMP JUMPDEST PUSH1 0x40 MLOAD PUSH2 0x363 SWAP2 SWAP1 PUSH2 0x165E JUMP JUMPDEST PUSH1 0x40 MLOAD DUP1 SWAP2 SUB SWAP1 RETURN JUMPDEST PUSH2 0x374 PUSH2 0x808 JUMP JUMPDEST PUSH1 0x40 MLOAD PUSH2 0x381 SWAP2 SWAP1 PUSH2 0x1835 JUMP JUMPDEST PUSH1 0x40 MLOAD DUP1 SWAP2 SUB SWAP1 RETURN JUMPDEST PUSH2 0x392 PUSH2 0x82D JUMP JUMPDEST PUSH1 0x40 MLOAD PUSH2 0x39F SWAP2 SWAP1 PUSH2 0x1686 JUMP JUMPDEST PUSH1 0x40 MLOAD DUP1 SWAP2 SUB SWAP1 RETURN JUMPDEST PUSH2 0x3C2 PUSH1 0x4 DUP1 CALLDATASIZE SUB DUP2 ADD SWAP1 PUSH2 0x3BD SWAP2 SWAP1 PUSH2 0x17EA JUMP JUMPDEST PUSH2 0x833 JUMP JUMPDEST STOP JUMPDEST PUSH2 0x3CC PUSH2 0x951 JUMP JUMPDEST PUSH1 0x40 MLOAD PUSH2 0x3D9 SWAP2 SWAP1 PUSH2 0x17A6 JUMP JUMPDEST PUSH1 0x40 MLOAD DUP1 SWAP2 SUB SWAP1 RETURN JUMPDEST PUSH2 0x3FC PUSH1 0x4 DUP1 CALLDATASIZE SUB DUP2 ADD SWAP1 PUSH2 0x3F7 SWAP2 SWAP1 PUSH2 0x17EA JUMP JUMPDEST PUSH2 0x977 JUMP JUMPDEST STOP JUMPDEST PUSH2 0x418 PUSH1 0x4 DUP1 CALLDATASIZE SUB DUP2 ADD SWAP1 PUSH2 0x413 SWAP2 SWAP1 PUSH2 0x184E JUMP JUMPDEST PUSH2 0xBB2 JUMP JUMPDEST PUSH1 0x40 MLOAD PUSH2 0x425 SWAP2 SWAP1 PUSH2 0x1686 JUMP JUMPDEST PUSH1 0x40 MLOAD DUP1 SWAP2 SUB SWAP1 RETURN JUMPDEST PUSH2 0x448 PUSH1 0x4 DUP1 CALLDATASIZE SUB DUP2 ADD SWAP1 PUSH2 0x443 SWAP2 SWAP1 PUSH2 0x17BF JUMP JUMPDEST PUSH2 0xC34 JUMP JUMPDEST STOP JUMPDEST PUSH2 0x452 PUSH2 0xCB8 JUMP JUMPDEST PUSH1 0x40 MLOAD PUSH2 0x45F SWAP2 SWAP1 PUSH2 0x165E JUMP JUMPDEST PUSH1 0x40 MLOAD DUP1 SWAP2 SUB SWAP1 RETURN JUMPDEST PUSH1 0x60 PUSH1 0x3 DUP1 SLOAD PUSH2 0x477 SWAP1 PUSH2 0x18B9 JUMP JUMPDEST DUP1 PUSH1 0x1F ADD PUSH1 0x20 DUP1 SWAP2 DIV MUL PUSH1 0x20 ADD PUSH1 0x40 MLOAD SWAP1 DUP2 ADD PUSH1 0x40 MSTORE DUP1 SWAP3 SWAP2 SWAP1 DUP2 DUP2 MSTORE PUSH1 0x20 ADD DUP3 DUP1 SLOAD PUSH2 0x4A3 SWAP1 PUSH2 0x18B9 JUMP JUMPDEST DUP1 ISZERO PUSH2 0x4EE JUMPI DUP1 PUSH1 0x1F LT PUSH2 0x4C5 JUMPI PUSH2 0x100 DUP1 DUP4 SLOAD DIV MUL DUP4 MSTORE SWAP2 PUSH1 0x20 ADD SWAP2 PUSH2 0x4EE JUMP JUMPDEST DUP3 ADD SWAP2 SWAP1 PUSH0 MSTORE PUSH1 0x20 PUSH0 KECCAK256 SWAP1 JUMPDEST DUP2 SLOAD DUP2 MSTORE SWAP1 PUSH1 0x1 ADD SWAP1 PUSH1 0x20 ADD DUP1 DUP4 GT PUSH2 0x4D1 JUMPI DUP3 SWAP1 SUB PUSH1 0x1F AND DUP3 ADD SWAP2 JUMPDEST POP POP POP POP POP SWAP1 POP SWAP1 JUMP JUMPDEST PUSH0 DUP1 PUSH2 0x502 PUSH2 0xCCA JUMP JUMPDEST SWAP1 POP PUSH2 0x50F DUP2 DUP6 DUP6 PUSH2 0xCD1 JUMP JUMPDEST PUSH1 0x1 SWAP2 POP POP SWAP3 SWAP2 POP POP JUMP JUMPDEST PUSH0 PUSH1 0x2 SLOAD SWAP1 POP SWAP1 JUMP JUMPDEST PUSH0 DUP1 PUSH2 0x52D PUSH2 0xCCA JUMP JUMPDEST SWAP1 POP PUSH2 0x53A DUP6 DUP3 DUP6 PUSH2 0xCE3 JUMP JUMPDEST PUSH2 0x545 DUP6 DUP6 DUP6 PUSH2 0xD75 JUMP JUMPDEST PUSH1 0x1 SWAP2 POP POP SWAP4 SWAP3 POP POP POP JUMP JUMPDEST PUSH1 0xD PUSH0 SWAP1 SLOAD SWAP1 PUSH2 0x100 EXP SWAP1 DIV PUSH20 0xFFFFFFFFFFFFFFFFFFFFFFFFFFFFFFFFFFFFFFFF AND DUP2 JUMP JUMPDEST PUSH0 PUSH1 0x12 SWAP1 POP SWAP1 JUMP JUMPDEST PUSH1 0x7 PUSH0 SWAP1 SLOAD SWAP1 PUSH2 0x100 EXP SWAP1 DIV PUSH20 0xFFFFFFFFFFFFFFFFFFFFFFFFFFFFFFFFFFFFFFFF AND DUP2 JUMP JUMPDEST PUSH1 0xC PUSH0 SWAP1 SLOAD SWAP1 PUSH2 0x100 EXP SWAP1 DIV PUSH20 0xFFFFFFFFFFFFFFFFFFFFFFFFFFFFFFFFFFFFFFFF AND DUP2 JUMP JUMPDEST PUSH0 DUP1 PUSH0 DUP4 PUSH20 0xFFFFFFFFFFFFFFFFFFFFFFFFFFFFFFFFFFFFFFFF AND PUSH20 0xFFFFFFFFFFFFFFFFFFFFFFFFFFFFFFFFFFFFFFFF AND DUP2 MSTORE PUSH1 0x20 ADD SWAP1 DUP2 MSTORE PUSH1 0x20 ADD PUSH0 KECCAK256 SLOAD SWAP1 POP SWAP2 SWAP1 POP JUMP JUMPDEST PUSH2 0x615 PUSH2 0xE65 JUMP JUMPDEST PUSH2 0x61E PUSH0 PUSH2 0xEEC JUMP JUMPDEST JUMP JUMPDEST PUSH0 PUSH1 0x5 PUSH0 SWAP1 SLOAD SWAP1 PUSH2 0x100 EXP SWAP1 DIV PUSH20 0xFFFFFFFFFFFFFFFFFFFFFFFFFFFFFFFFFFFFFFFF AND SWAP1 POP SWAP1 JUMP JUMPDEST PUSH1 0x9 SLOAD DUP2 JUMP JUMPDEST PUSH1 0x60 PUSH1 0x4 DUP1 SLOAD PUSH2 0x65D SWAP1 PUSH2 0x18B9 JUMP JUMPDEST DUP1 PUSH1 0x1F ADD PUSH1 0x20 DUP1 SWAP2 DIV MUL PUSH1 0x20 ADD PUSH1 0x40 MLOAD SWAP1 DUP2 ADD PUSH1 0x40 MSTORE DUP1 SWAP3 SWAP2 SWAP1 DUP2 DUP2 MSTORE PUSH1 0x20 ADD DUP3 DUP1 SLOAD PUSH2 0x689 SWAP1 PUSH2 0x18B9 JUMP JUMPDEST DUP1 ISZERO PUSH2 0x6D4 JUMPI DUP1 PUSH1 0x1F LT PUSH2 0x6AB JUMPI PUSH2 0x100 DUP1 DUP4 SLOAD DIV MUL DUP4 MSTORE SWAP2 PUSH1 0x20 ADD SWAP2 PUSH2 0x6D4 JUMP JUMPDEST DUP3 ADD SWAP2 SWAP1 PUSH0 MSTORE PUSH1 0x20 PUSH0 KECCAK256 SWAP1 JUMPDEST DUP2 SLOAD DUP2 MSTORE SWAP1 PUSH1 0x1 ADD SWAP1 PUSH1 0x20 ADD DUP1 DUP4 GT PUSH2 0x6B7 JUMPI DUP3 SWAP1 SUB PUSH1 0x1F AND DUP3 ADD SWAP2 JUMPDEST POP POP POP POP POP SWAP1 POP SWAP1 JUMP JUMPDEST PUSH1 0x8 PUSH0 SWAP1 SLOAD SWAP1 PUSH2 0x100 EXP SWAP1 DIV PUSH20 0xFFFFFFFFFFFFFFFFFFFFFFFFFFFFFFFFFFFFFFFF AND DUP2 JUMP JUMPDEST PUSH2 0x70B PUSH2 0xFAF JUMP JUMPDEST DUP1 PUSH1 0x1 DUP2 LT ISZERO PUSH2 0x747 JUMPI PUSH1 0x40 MLOAD PUSH32 0x2C5211C600000000000000000000000000000000000000000000000000000000 DUP2 MSTORE PUSH1 0x4 ADD PUSH1 0x40 MLOAD DUP1 SWAP2 SUB SWAP1 REVERT JUMPDEST PUSH2 0x751 CALLER DUP4 PUSH2 0xFF5 JUMP JUMPDEST PUSH1 0xE PUSH0 SWAP1 SLOAD SWAP1 PUSH2 0x100 EXP SWAP1 DIV PUSH20 0xFFFFFFFFFFFFFFFFFFFFFFFFFFFFFFFFFFFFFFFF AND PUSH20 0xFFFFFFFFFFFFFFFFFFFFFFFFFFFFFFFFFFFFFFFF AND PUSH4 0x40C10F19 CALLER DUP5 PUSH1 0x40 MLOAD DUP4 PUSH4 0xFFFFFFFF AND PUSH1 0xE0 SHL DUP2 MSTORE PUSH1 0x4 ADD PUSH2 0x7AD SWAP3 SWAP2 SWAP1 PUSH2 0x18E9 JUMP JUMPDEST PUSH0 PUSH1 0x40 MLOAD DUP1 DUP4 SUB DUP2 PUSH0 DUP8 DUP1 EXTCODESIZE ISZERO DUP1 ISZERO PUSH2 0x7C4 JUMPI PUSH0 DUP1 REVERT JUMPDEST POP GAS CALL ISZERO DUP1 ISZERO PUSH2 0x7D6 JUMPI RETURNDATASIZE PUSH0 DUP1 RETURNDATACOPY RETURNDATASIZE PUSH0 REVERT JUMPDEST POP POP POP POP POP PUSH2 0x7E3 PUSH2 0x1074 JUMP JUMPDEST POP JUMP JUMPDEST PUSH0 DUP1 PUSH2 0x7F0 PUSH2 0xCCA JUMP JUMPDEST SWAP1 POP PUSH2 0x7FD DUP2 DUP6 DUP6 PUSH2 0xD75 JUMP JUMPDEST PUSH1 0x1 SWAP2 POP POP SWAP3 SWAP2 POP POP JUMP JUMPDEST PUSH1 0xE PUSH0 SWAP1 SLOAD SWAP1 PUSH2 0x100 EXP SWAP1 DIV PUSH20 0xFFFFFFFFFFFFFFFFFFFFFFFFFFFFFFFFFFFFFFFF AND DUP2 JUMP JUMPDEST PUSH1 0xA SLOAD DUP2 JUMP JUMPDEST PUSH1 0x9 SLOAD TIMESTAMP LT PUSH2 0x86E JUMPI PUSH1 0x40 MLOAD PUSH32 0x790D4E300000000000000000000000000000000000000000000000000000000 DUP2 MSTORE PUSH1 0x4 ADD PUSH1 0x40 MLOAD DUP1 SWAP2 SUB SWAP1 REVERT JUMPDEST PUSH2 0x876 PUSH2 0xFAF JUMP JUMPDEST DUP1 PUSH1 0x1 DUP2 LT ISZERO PUSH2 0x8B2 JUMPI PUSH1 0x40 MLOAD PUSH32 0x2C5211C600000000000000000000000000000000000000000000000000000000 DUP2 MSTORE PUSH1 0x4 ADD PUSH1 0x40 MLOAD DUP1 SWAP2 SUB SWAP1 REVERT JUMPDEST PUSH2 0x8BC CALLER DUP4 PUSH2 0x107E JUMP JUMPDEST PUSH1 0xE PUSH0 SWAP1 SLOAD SWAP1 PUSH2 0x100 EXP SWAP1 DIV PUSH20 0xFFFFFFFFFFFFFFFFFFFFFFFFFFFFFFFFFFFFFFFF AND PUSH20 0xFFFFFFFFFFFFFFFFFFFFFFFFFFFFFFFFFFFFFFFF AND PUSH4 0xDD068EC1 CALLER DUP5 PUSH1 0x40 MLOAD DUP4 PUSH4 0xFFFFFFFF AND PUSH1 0xE0 SHL DUP2 MSTORE PUSH1 0x4 ADD PUSH2 0x918 SWAP3 SWAP2 SWAP1 PUSH2 0x18E9 JUMP JUMPDEST PUSH0 PUSH1 0x40 MLOAD DUP1 DUP4 SUB DUP2 PUSH0 DUP8 DUP1 EXTCODESIZE ISZERO DUP1 ISZERO PUSH2 0x92F JUMPI PUSH0 DUP1 REVERT JUMPDEST POP GAS CALL ISZERO DUP1 ISZERO PUSH2 0x941 JUMPI RETURNDATASIZE PUSH0 DUP1 RETURNDATACOPY RETURNDATASIZE PUSH0 REVERT JUMPDEST POP POP POP POP POP PUSH2 0x94E PUSH2 0x1074 JUMP JUMPDEST POP JUMP JUMPDEST PUSH1 0xB PUSH1 0x1 SWAP1 SLOAD SWAP1 PUSH2 0x100 EXP SWAP1 DIV PUSH20 0xFFFFFFFFFFFFFFFFFFFFFFFFFFFFFFFFFFFFFFFF AND DUP2 JUMP JUMPDEST PUSH1 0x9 SLOAD TIMESTAMP LT PUSH2 0x9B2 JUMPI PUSH1 0x40 MLOAD PUSH32 0x790D4E300000000000000000000000000000000000000000000000000000000 DUP2 MSTORE PUSH1 0x4 ADD PUSH1 0x40 MLOAD DUP1 SWAP2 SUB SWAP1 REVERT JUMPDEST PUSH2 0x9BA PUSH2 0xFAF JUMP JUMPDEST CALLER DUP2 DUP1 PUSH2 0x9C6 DUP4 PUSH2 0x5C8 JUMP JUMPDEST LT ISZERO PUSH2 0x9FE JUMPI PUSH1 0x40 MLOAD PUSH32 0xF4D678B800000000000000000000000000000000000000000000000000000000 DUP2 MSTORE PUSH1 0x4 ADD PUSH1 0x40 MLOAD DUP1 SWAP2 SUB SWAP1 REVERT JUMPDEST DUP3 PUSH1 0x1 DUP2 LT ISZERO PUSH2 0xA3A JUMPI PUSH1 0x40 MLOAD PUSH32 0x2C5211C600000000000000000000000000000000000000000000000000000000 DUP2 MSTORE PUSH1 0x4 ADD PUSH1 0x40 MLOAD DUP1 SWAP2 SUB SWAP1 REVERT JUMPDEST DUP4 PUSH1 0xE PUSH0 SWAP1 SLOAD SWAP1 PUSH2 0x100 EXP SWAP1 DIV PUSH20 0xFFFFFFFFFFFFFFFFFFFFFFFFFFFFFFFFFFFFFFFF AND PUSH20 0xFFFFFFFFFFFFFFFFFFFFFFFFFFFFFFFFFFFFFFFF AND PUSH4 0x70A08231 CALLER PUSH1 0x40 MLOAD DUP3 PUSH4 0xFFFFFFFF AND PUSH1 0xE0 SHL DUP2 MSTORE PUSH1 0x4 ADD PUSH2 0xA95 SWAP2 SWAP1 PUSH2 0x16FE JUMP JUMPDEST PUSH1 0x20 PUSH1 0x40 MLOAD DUP1 DUP4 SUB DUP2 DUP7 GAS STATICCALL ISZERO DUP1 ISZERO PUSH2 0xAB0 JUMPI RETURNDATASIZE PUSH0 DUP1 RETURNDATACOPY RETURNDATASIZE PUSH0 REVERT JUMPDEST POP POP POP POP PUSH1 0x40 MLOAD RETURNDATASIZE PUSH1 0x1F NOT PUSH1 0x1F DUP3 ADD AND DUP3 ADD DUP1 PUSH1 0x40 MSTORE POP DUP2 ADD SWAP1 PUSH2 0xAD4 SWAP2 SWAP1 PUSH2 0x1924 JUMP JUMPDEST LT ISZERO PUSH2 0xB0C JUMPI PUSH1 0x40 MLOAD PUSH32 0xF4D678B800000000000000000000000000000000000000000000000000000000 DUP2 MSTORE PUSH1 0x4 ADD PUSH1 0x40 MLOAD DUP1 SWAP2 SUB SWAP1 REVERT JUMPDEST PUSH0 CALLER SWAP1 POP PUSH2 0xB1A DUP2 DUP7 PUSH2 0x107E JUMP JUMPDEST PUSH1 0xE PUSH0 SWAP1 SLOAD SWAP1 PUSH2 0x100 EXP SWAP1 DIV PUSH20 0xFFFFFFFFFFFFFFFFFFFFFFFFFFFFFFFFFFFFFFFF AND PUSH20 0xFFFFFFFFFFFFFFFFFFFFFFFFFFFFFFFFFFFFFFFF AND PUSH4 0xE0CA59BB DUP3 DUP8 PUSH1 0x40 MLOAD DUP4 PUSH4 0xFFFFFFFF AND PUSH1 0xE0 SHL DUP2 MSTORE PUSH1 0x4 ADD PUSH2 0xB76 SWAP3 SWAP2 SWAP1 PUSH2 0x18E9 JUMP JUMPDEST PUSH0 PUSH1 0x40 MLOAD DUP1 DUP4 SUB DUP2 PUSH0 DUP8 DUP1 EXTCODESIZE ISZERO DUP1 ISZERO PUSH2 0xB8D JUMPI PUSH0 DUP1 REVERT JUMPDEST POP GAS CALL ISZERO DUP1 ISZERO PUSH2 0xB9F JUMPI RETURNDATASIZE PUSH0 DUP1 RETURNDATACOPY RETURNDATASIZE PUSH0 REVERT JUMPDEST POP POP POP POP POP POP POP POP PUSH2 0xBAF PUSH2 0x1074 JUMP JUMPDEST POP JUMP JUMPDEST PUSH0 PUSH1 0x1 PUSH0 DUP5 PUSH20 0xFFFFFFFFFFFFFFFFFFFFFFFFFFFFFFFFFFFFFFFF AND PUSH20 0xFFFFFFFFFFFFFFFFFFFFFFFFFFFFFFFFFFFFFFFF AND DUP2 MSTORE PUSH1 0x20 ADD SWAP1 DUP2 MSTORE PUSH1 0x20 ADD PUSH0 KECCAK256 PUSH0 DUP4 PUSH20 0xFFFFFFFFFFFFFFFFFFFFFFFFFFFFFFFFFFFFFFFF AND PUSH20 0xFFFFFFFFFFFFFFFFFFFFFFFFFFFFFFFFFFFFFFFF AND DUP2 MSTORE PUSH1 0x20 ADD SWAP1 DUP2 MSTORE PUSH1 0x20 ADD PUSH0 KECCAK256 SLOAD SWAP1 POP SWAP3 SWAP2 POP POP JUMP JUMPDEST PUSH2 0xC3C PUSH2 0xE65 JUMP JUMPDEST PUSH0 PUSH20 0xFFFFFFFFFFFFFFFFFFFFFFFFFFFFFFFFFFFFFFFF AND DUP2 PUSH20 0xFFFFFFFFFFFFFFFFFFFFFFFFFFFFFFFFFFFFFFFF AND SUB PUSH2 0xCAC JUMPI PUSH0 PUSH1 0x40 MLOAD PUSH32 0x1E4FBDF700000000000000000000000000000000000000000000000000000000 DUP2 MSTORE PUSH1 0x4 ADD PUSH2 0xCA3 SWAP2 SWAP1 PUSH2 0x16FE JUMP JUMPDEST PUSH1 0x40 MLOAD DUP1 SWAP2 SUB SWAP1 REVERT JUMPDEST PUSH2 0xCB5 DUP2 PUSH2 0xEEC JUMP JUMPDEST POP JUMP JUMPDEST PUSH1 0xB PUSH0 SWAP1 SLOAD SWAP1 PUSH2 0x100 EXP SWAP1 DIV PUSH1 0xFF AND DUP2 JUMP JUMPDEST PUSH0 CALLER SWAP1 POP SWAP1 JUMP JUMPDEST PUSH2 0xCDE DUP4 DUP4 DUP4 PUSH1 0x1 PUSH2 0x10FD JUMP JUMPDEST POP POP POP JUMP JUMPDEST PUSH0 PUSH2 0xCEE DUP5 DUP5 PUSH2 0xBB2 JUMP JUMPDEST SWAP1 POP PUSH32 0xFFFFFFFFFFFFFFFFFFFFFFFFFFFFFFFFFFFFFFFFFFFFFFFFFFFFFFFFFFFFFFFF DUP2 EQ PUSH2 0xD6F JUMPI DUP2 DUP2 LT ISZERO PUSH2 0xD60 JUMPI DUP3 DUP2 DUP4 PUSH1 0x40 MLOAD PUSH32 0xFB8F41B200000000000000000000000000000000000000000000000000000000 DUP2 MSTORE PUSH1 0x4 ADD PUSH2 0xD57 SWAP4 SWAP3 SWAP2 SWAP1 PUSH2 0x194F JUMP JUMPDEST PUSH1 0x40 MLOAD DUP1 SWAP2 SUB SWAP1 REVERT JUMPDEST PUSH2 0xD6E DUP5 DUP5 DUP5 DUP5 SUB PUSH0 PUSH2 0x10FD JUMP JUMPDEST JUMPDEST POP POP POP POP JUMP JUMPDEST PUSH0 PUSH20 0xFFFFFFFFFFFFFFFFFFFFFFFFFFFFFFFFFFFFFFFF AND DUP4 PUSH20 0xFFFFFFFFFFFFFFFFFFFFFFFFFFFFFFFFFFFFFFFF AND SUB PUSH2 0xDE5 JUMPI PUSH0 PUSH1 0x40 MLOAD PUSH32 0x96C6FD1E00000000000000000000000000000000000000000000000000000000 DUP2 MSTORE PUSH1 0x4 ADD PUSH2 0xDDC SWAP2 SWAP1 PUSH2 0x16FE JUMP JUMPDEST PUSH1 0x40 MLOAD DUP1 SWAP2 SUB SWAP1 REVERT JUMPDEST PUSH0 PUSH20 0xFFFFFFFFFFFFFFFFFFFFFFFFFFFFFFFFFFFFFFFF AND DUP3 PUSH20 0xFFFFFFFFFFFFFFFFFFFFFFFFFFFFFFFFFFFFFFFF AND SUB PUSH2 0xE55 JUMPI PUSH0 PUSH1 0x40 MLOAD PUSH32 0xEC442F0500000000000000000000000000000000000000000000000000000000 DUP2 MSTORE PUSH1 0x4 ADD PUSH2 0xE4C SWAP2 SWAP1 PUSH2 0x16FE JUMP JUMPDEST PUSH1 0x40 MLOAD DUP1 SWAP2 SUB SWAP1 REVERT JUMPDEST PUSH2 0xE60 DUP4 DUP4 DUP4 PUSH2 0x12CC JUMP JUMPDEST POP POP POP JUMP JUMPDEST PUSH2 0xE6D PUSH2 0xCCA JUMP JUMPDEST PUSH20 0xFFFFFFFFFFFFFFFFFFFFFFFFFFFFFFFFFFFFFFFF AND PUSH2 0xE8B PUSH2 0x620 JUMP JUMPDEST PUSH20 0xFFFFFFFFFFFFFFFFFFFFFFFFFFFFFFFFFFFFFFFF AND EQ PUSH2 0xEEA JUMPI PUSH2 0xEAE PUSH2 0xCCA JUMP JUMPDEST PUSH1 0x40 MLOAD PUSH32 0x118CDAA700000000000000000000000000000000000000000000000000000000 DUP2 MSTORE PUSH1 0x4 ADD PUSH2 0xEE1 SWAP2 SWAP1 PUSH2 0x16FE JUMP JUMPDEST PUSH1 0x40 MLOAD DUP1 SWAP2 SUB SWAP1 REVERT JUMPDEST JUMP JUMPDEST PUSH0 PUSH1 0x5 PUSH0 SWAP1 SLOAD SWAP1 PUSH2 0x100 EXP SWAP1 DIV PUSH20 0xFFFFFFFFFFFFFFFFFFFFFFFFFFFFFFFFFFFFFFFF AND SWAP1 POP DUP2 PUSH1 0x5 PUSH0 PUSH2 0x100 EXP DUP2 SLOAD DUP2 PUSH20 0xFFFFFFFFFFFFFFFFFFFFFFFFFFFFFFFFFFFFFFFF MUL NOT AND SWAP1 DUP4 PUSH20 0xFFFFFFFFFFFFFFFFFFFFFFFFFFFFFFFFFFFFFFFF AND MUL OR SWAP1 SSTORE POP DUP2 PUSH20 0xFFFFFFFFFFFFFFFFFFFFFFFFFFFFFFFFFFFFFFFF AND DUP2 PUSH20 0xFFFFFFFFFFFFFFFFFFFFFFFFFFFFFFFFFFFFFFFF AND PUSH32 0x8BE0079C531659141344CD1FD0A4F28419497F9722A3DAAFE3B4186F6B6457E0 PUSH1 0x40 MLOAD PUSH1 0x40 MLOAD DUP1 SWAP2 SUB SWAP1 LOG3 POP POP JUMP JUMPDEST PUSH1 0x2 PUSH1 0x6 SLOAD SUB PUSH2 0xFEB JUMPI PUSH1 0x40 MLOAD PUSH32 0x3EE5AEB500000000000000000000000000000000000000000000000000000000 DUP2 MSTORE PUSH1 0x4 ADD PUSH1 0x40 MLOAD DUP1 SWAP2 SUB SWAP1 REVERT JUMPDEST PUSH1 0x2 PUSH1 0x6 DUP2 SWAP1 SSTORE POP JUMP JUMPDEST PUSH0 PUSH20 0xFFFFFFFFFFFFFFFFFFFFFFFFFFFFFFFFFFFFFFFF AND DUP3 PUSH20 0xFFFFFFFFFFFFFFFFFFFFFFFFFFFFFFFFFFFFFFFF AND SUB PUSH2 0x1065 JUMPI PUSH0 PUSH1 0x40 MLOAD PUSH32 0xEC442F0500000000000000000000000000000000000000000000000000000000 DUP2 MSTORE PUSH1 0x4 ADD PUSH2 0x105C SWAP2 SWAP1 PUSH2 0x16FE JUMP JUMPDEST PUSH1 0x40 MLOAD DUP1 SWAP2 SUB SWAP1 REVERT JUMPDEST PUSH2 0x1070 PUSH0 DUP4 DUP4 PUSH2 0x12CC JUMP JUMPDEST POP POP JUMP JUMPDEST PUSH1 0x1 PUSH1 0x6 DUP2 SWAP1 SSTORE POP JUMP JUMPDEST PUSH0 PUSH20 0xFFFFFFFFFFFFFFFFFFFFFFFFFFFFFFFFFFFFFFFF AND DUP3 PUSH20 0xFFFFFFFFFFFFFFFFFFFFFFFFFFFFFFFFFFFFFFFF AND SUB PUSH2 0x10EE JUMPI PUSH0 PUSH1 0x40 MLOAD PUSH32 0x96C6FD1E00000000000000000000000000000000000000000000000000000000 DUP2 MSTORE PUSH1 0x4 ADD PUSH2 0x10E5 SWAP2 SWAP1 PUSH2 0x16FE JUMP JUMPDEST PUSH1 0x40 MLOAD DUP1 SWAP2 SUB SWAP1 REVERT JUMPDEST PUSH2 0x10F9 DUP3 PUSH0 DUP4 PUSH2 0x12CC JUMP JUMPDEST POP POP JUMP JUMPDEST PUSH0 PUSH20 0xFFFFFFFFFFFFFFFFFFFFFFFFFFFFFFFFFFFFFFFF AND DUP5 PUSH20 0xFFFFFFFFFFFFFFFFFFFFFFFFFFFFFFFFFFFFFFFF AND SUB PUSH2 0x116D JUMPI PUSH0 PUSH1 0x40 MLOAD PUSH32 0xE602DF0500000000000000000000000000000000000000000000000000000000 DUP2 MSTORE PUSH1 0x4 ADD PUSH2 0x1164 SWAP2 SWAP1 PUSH2 0x16FE JUMP JUMPDEST PUSH1 0x40 MLOAD DUP1 SWAP2 SUB SWAP1 REVERT JUMPDEST PUSH0 PUSH20 0xFFFFFFFFFFFFFFFFFFFFFFFFFFFFFFFFFFFFFFFF AND DUP4 PUSH20 0xFFFFFFFFFFFFFFFFFFFFFFFFFFFFFFFFFFFFFFFF AND SUB PUSH2 0x11DD JUMPI PUSH0 PUSH1 0x40 MLOAD PUSH32 0x94280D6200000000000000000000000000000000000000000000000000000000 DUP2 MSTORE PUSH1 0x4 ADD PUSH2 0x11D4 SWAP2 SWAP1 PUSH2 0x16FE JUMP JUMPDEST PUSH1 0x40 MLOAD DUP1 SWAP2 SUB SWAP1 REVERT JUMPDEST DUP2 PUSH1 0x1 PUSH0 DUP7 PUSH20 0xFFFFFFFFFFFFFFFFFFFFFFFFFFFFFFFFFFFFFFFF AND PUSH20 0xFFFFFFFFFFFFFFFFFFFFFFFFFFFFFFFFFFFFFFFF AND DUP2 MSTORE PUSH1 0x20 ADD SWAP1 DUP2 MSTORE PUSH1 0x20 ADD PUSH0 KECCAK256 PUSH0 DUP6 PUSH20 0xFFFFFFFFFFFFFFFFFFFFFFFFFFFFFFFFFFFFFFFF AND PUSH20 0xFFFFFFFFFFFFFFFFFFFFFFFFFFFFFFFFFFFFFFFF AND DUP2 MSTORE PUSH1 0x20 ADD SWAP1 DUP2 MSTORE PUSH1 0x20 ADD PUSH0 KECCAK256 DUP2 SWAP1 SSTORE POP DUP1 ISZERO PUSH2 0x12C6 JUMPI DUP3 PUSH20 0xFFFFFFFFFFFFFFFFFFFFFFFFFFFFFFFFFFFFFFFF AND DUP5 PUSH20 0xFFFFFFFFFFFFFFFFFFFFFFFFFFFFFFFFFFFFFFFF AND PUSH32 0x8C5BE1E5EBEC7D5BD14F71427D1E84F3DD0314C0F7B2291E5B200AC8C7C3B925 DUP5 PUSH1 0x40 MLOAD PUSH2 0x12BD SWAP2 SWAP1 PUSH2 0x1686 JUMP JUMPDEST PUSH1 0x40 MLOAD DUP1 SWAP2 SUB SWAP1 LOG3 JUMPDEST POP POP POP POP JUMP JUMPDEST PUSH0 PUSH20 0xFFFFFFFFFFFFFFFFFFFFFFFFFFFFFFFFFFFFFFFF AND DUP4 PUSH20 0xFFFFFFFFFFFFFFFFFFFFFFFFFFFFFFFFFFFFFFFF AND SUB PUSH2 0x131C JUMPI DUP1 PUSH1 0x2 PUSH0 DUP3 DUP3 SLOAD PUSH2 0x1310 SWAP2 SWAP1 PUSH2 0x19B1 JUMP JUMPDEST SWAP3 POP POP DUP2 SWAP1 SSTORE POP PUSH2 0x13EA JUMP JUMPDEST PUSH0 DUP1 PUSH0 DUP6 PUSH20 0xFFFFFFFFFFFFFFFFFFFFFFFFFFFFFFFFFFFFFFFF AND PUSH20 0xFFFFFFFFFFFFFFFFFFFFFFFFFFFFFFFFFFFFFFFF AND DUP2 MSTORE PUSH1 0x20 ADD SWAP1 DUP2 MSTORE PUSH1 0x20 ADD PUSH0 KECCAK256 SLOAD SWAP1 POP DUP2 DUP2 LT ISZERO PUSH2 0x13A5 JUMPI DUP4 DUP2 DUP4 PUSH1 0x40 MLOAD PUSH32 0xE450D38C00000000000000000000000000000000000000000000000000000000 DUP2 MSTORE PUSH1 0x4 ADD PUSH2 0x139C SWAP4 SWAP3 SWAP2 SWAP1 PUSH2 0x194F JUMP JUMPDEST PUSH1 0x40 MLOAD DUP1 SWAP2 SUB SWAP1 REVERT JUMPDEST DUP2 DUP2 SUB PUSH0 DUP1 DUP7 PUSH20 0xFFFFFFFFFFFFFFFFFFFFFFFFFFFFFFFFFFFFFFFF AND PUSH20 0xFFFFFFFFFFFFFFFFFFFFFFFFFFFFFFFFFFFFFFFF AND DUP2 MSTORE PUSH1 0x20 ADD SWAP1 DUP2 MSTORE PUSH1 0x20 ADD PUSH0 KECCAK256 DUP2 SWAP1 SSTORE POP POP JUMPDEST PUSH0 PUSH20 0xFFFFFFFFFFFFFFFFFFFFFFFFFFFFFFFFFFFFFFFF AND DUP3 PUSH20 0xFFFFFFFFFFFFFFFFFFFFFFFFFFFFFFFFFFFFFFFF AND SUB PUSH2 0x1431 JUMPI DUP1 PUSH1 0x2 PUSH0 DUP3 DUP3 SLOAD SUB SWAP3 POP POP DUP2 SWAP1 SSTORE POP PUSH2 0x147B JUMP JUMPDEST DUP1 PUSH0 DUP1 DUP5 PUSH20 0xFFFFFFFFFFFFFFFFFFFFFFFFFFFFFFFFFFFFFFFF AND PUSH20 0xFFFFFFFFFFFFFFFFFFFFFFFFFFFFFFFFFFFFFFFF AND DUP2 MSTORE PUSH1 0x20 ADD SWAP1 DUP2 MSTORE PUSH1 0x20 ADD PUSH0 KECCAK256 PUSH0 DUP3 DUP3 SLOAD ADD SWAP3 POP POP DUP2 SWAP1 SSTORE POP JUMPDEST DUP2 PUSH20 0xFFFFFFFFFFFFFFFFFFFFFFFFFFFFFFFFFFFFFFFF AND DUP4 PUSH20 0xFFFFFFFFFFFFFFFFFFFFFFFFFFFFFFFFFFFFFFFF AND PUSH32 0xDDF252AD1BE2C89B69C2B068FC378DAA952BA7F163C4A11628F55A4DF523B3EF DUP4 PUSH1 0x40 MLOAD PUSH2 0x14D8 SWAP2 SWAP1 PUSH2 0x1686 JUMP JUMPDEST PUSH1 0x40 MLOAD DUP1 SWAP2 SUB SWAP1 LOG3 POP POP POP JUMP JUMPDEST PUSH0 DUP2 MLOAD SWAP1 POP SWAP2 SWAP1 POP JUMP JUMPDEST PUSH0 DUP3 DUP3 MSTORE PUSH1 0x20 DUP3 ADD SWAP1 POP SWAP3 SWAP2 POP POP JUMP JUMPDEST DUP3 DUP2 DUP4 MCOPY PUSH0 DUP4 DUP4 ADD MSTORE POP POP POP JUMP JUMPDEST PUSH0 PUSH1 0x1F NOT PUSH1 0x1F DUP4 ADD AND SWAP1 POP SWAP2 SWAP1 POP JUMP JUMPDEST PUSH0 PUSH2 0x1527 DUP3 PUSH2 0x14E5 JUMP JUMPDEST PUSH2 0x1531 DUP2 DUP6 PUSH2 0x14EF JUMP JUMPDEST SWAP4 POP PUSH2 0x1541 DUP2 DUP6 PUSH1 0x20 DUP7 ADD PUSH2 0x14FF JUMP JUMPDEST PUSH2 0x154A DUP2 PUSH2 0x150D JUMP JUMPDEST DUP5 ADD SWAP2 POP POP SWAP3 SWAP2 POP POP JUMP JUMPDEST PUSH0 PUSH1 0x20 DUP3 ADD SWAP1 POP DUP2 DUP2 SUB PUSH0 DUP4 ADD MSTORE PUSH2 0x156D DUP2 DUP5 PUSH2 0x151D JUMP JUMPDEST SWAP1 POP SWAP3 SWAP2 POP POP JUMP JUMPDEST PUSH0 DUP1 REVERT JUMPDEST PUSH0 PUSH20 0xFFFFFFFFFFFFFFFFFFFFFFFFFFFFFFFFFFFFFFFF DUP3 AND SWAP1 POP SWAP2 SWAP1 POP JUMP JUMPDEST PUSH0 PUSH2 0x15A2 DUP3 PUSH2 0x1579 JUMP JUMPDEST SWAP1 POP SWAP2 SWAP1 POP JUMP JUMPDEST PUSH2 0x15B2 DUP2 PUSH2 0x1598 JUMP JUMPDEST DUP2 EQ PUSH2 0x15BC JUMPI PUSH0 DUP1 REVERT JUMPDEST POP JUMP JUMPDEST PUSH0 DUP2 CALLDATALOAD SWAP1 POP PUSH2 0x15CD DUP2 PUSH2 0x15A9 JUMP JUMPDEST SWAP3 SWAP2 POP POP JUMP JUMPDEST PUSH0 DUP2 SWAP1 POP SWAP2 SWAP1 POP JUMP JUMPDEST PUSH2 0x15E5 DUP2 PUSH2 0x15D3 JUMP JUMPDEST DUP2 EQ PUSH2 0x15EF JUMPI PUSH0 DUP1 REVERT JUMPDEST POP JUMP JUMPDEST PUSH0 DUP2 CALLDATALOAD SWAP1 POP PUSH2 0x1600 DUP2 PUSH2 0x15DC JUMP JUMPDEST SWAP3 SWAP2 POP POP JUMP JUMPDEST PUSH0 DUP1 PUSH1 0x40 DUP4 DUP6 SUB SLT ISZERO PUSH2 0x161C JUMPI PUSH2 0x161B PUSH2 0x1575 JUMP JUMPDEST JUMPDEST PUSH0 PUSH2 0x1629 DUP6 DUP3 DUP7 ADD PUSH2 0x15BF JUMP JUMPDEST SWAP3 POP POP PUSH1 0x20 PUSH2 0x163A DUP6 DUP3 DUP7 ADD PUSH2 0x15F2 JUMP JUMPDEST SWAP2 POP POP SWAP3 POP SWAP3 SWAP1 POP JUMP JUMPDEST PUSH0 DUP2 ISZERO ISZERO SWAP1 POP SWAP2 SWAP1 POP JUMP JUMPDEST PUSH2 0x1658 DUP2 PUSH2 0x1644 JUMP JUMPDEST DUP3 MSTORE POP POP JUMP JUMPDEST PUSH0 PUSH1 0x20 DUP3 ADD SWAP1 POP PUSH2 0x1671 PUSH0 DUP4 ADD DUP5 PUSH2 0x164F JUMP JUMPDEST SWAP3 SWAP2 POP POP JUMP JUMPDEST PUSH2 0x1680 DUP2 PUSH2 0x15D3 JUMP JUMPDEST DUP3 MSTORE POP POP JUMP JUMPDEST PUSH0 PUSH1 0x20 DUP3 ADD SWAP1 POP PUSH2 0x1699 PUSH0 DUP4 ADD DUP5 PUSH2 0x1677 JUMP JUMPDEST SWAP3 SWAP2 POP POP JUMP JUMPDEST PUSH0 DUP1 PUSH0 PUSH1 0x60 DUP5 DUP7 SUB SLT ISZERO PUSH2 0x16B6 JUMPI PUSH2 0x16B5 PUSH2 0x1575 JUMP JUMPDEST JUMPDEST PUSH0 PUSH2 0x16C3 DUP7 DUP3 DUP8 ADD PUSH2 0x15BF JUMP JUMPDEST SWAP4 POP POP PUSH1 0x20 PUSH2 0x16D4 DUP7 DUP3 DUP8 ADD PUSH2 0x15BF JUMP JUMPDEST SWAP3 POP POP PUSH1 0x40 PUSH2 0x16E5 DUP7 DUP3 DUP8 ADD PUSH2 0x15F2 JUMP JUMPDEST SWAP2 POP POP SWAP3 POP SWAP3 POP SWAP3 JUMP JUMPDEST PUSH2 0x16F8 DUP2 PUSH2 0x1598 JUMP JUMPDEST DUP3 MSTORE POP POP JUMP JUMPDEST PUSH0 PUSH1 0x20 DUP3 ADD SWAP1 POP PUSH2 0x1711 PUSH0 DUP4 ADD DUP5 PUSH2 0x16EF JUMP JUMPDEST SWAP3 SWAP2 POP POP JUMP JUMPDEST PUSH0 PUSH1 0xFF DUP3 AND SWAP1 POP SWAP2 SWAP1 POP JUMP JUMPDEST PUSH2 0x172C DUP2 PUSH2 0x1717 JUMP JUMPDEST DUP3 MSTORE POP POP JUMP JUMPDEST PUSH0 PUSH1 0x20 DUP3 ADD SWAP1 POP PUSH2 0x1745 PUSH0 DUP4 ADD DUP5 PUSH2 0x1723 JUMP JUMPDEST SWAP3 SWAP2 POP POP JUMP JUMPDEST PUSH0 DUP2 SWAP1 POP SWAP2 SWAP1 POP JUMP JUMPDEST PUSH0 PUSH2 0x176E PUSH2 0x1769 PUSH2 0x1764 DUP5 PUSH2 0x1579 JUMP JUMPDEST PUSH2 0x174B JUMP JUMPDEST PUSH2 0x1579 JUMP JUMPDEST SWAP1 POP SWAP2 SWAP1 POP JUMP JUMPDEST PUSH0 PUSH2 0x177F DUP3 PUSH2 0x1754 JUMP JUMPDEST SWAP1 POP SWAP2 SWAP1 POP JUMP JUMPDEST PUSH0 PUSH2 0x1790 DUP3 PUSH2 0x1775 JUMP JUMPDEST SWAP1 POP SWAP2 SWAP1 POP JUMP JUMPDEST PUSH2 0x17A0 DUP2 PUSH2 0x1786 JUMP JUMPDEST DUP3 MSTORE POP POP JUMP JUMPDEST PUSH0 PUSH1 0x20 DUP3 ADD SWAP1 POP PUSH2 0x17B9 PUSH0 DUP4 ADD DUP5 PUSH2 0x1797 JUMP JUMPDEST SWAP3 SWAP2 POP POP JUMP JUMPDEST PUSH0 PUSH1 0x20 DUP3 DUP5 SUB SLT ISZERO PUSH2 0x17D4 JUMPI PUSH2 0x17D3 PUSH2 0x1575 JUMP JUMPDEST JUMPDEST PUSH0 PUSH2 0x17E1 DUP5 DUP3 DUP6 ADD PUSH2 0x15BF JUMP JUMPDEST SWAP2 POP POP SWAP3 SWAP2 POP POP JUMP JUMPDEST PUSH0 PUSH1 0x20 DUP3 DUP5 SUB SLT ISZERO PUSH2 0x17FF JUMPI PUSH2 0x17FE PUSH2 0x1575 JUMP JUMPDEST JUMPDEST PUSH0 PUSH2 0x180C DUP5 DUP3 DUP6 ADD PUSH2 0x15F2 JUMP JUMPDEST SWAP2 POP POP SWAP3 SWAP2 POP POP JUMP JUMPDEST PUSH0 PUSH2 0x181F DUP3 PUSH2 0x1775 JUMP JUMPDEST SWAP1 POP SWAP2 SWAP1 POP JUMP JUMPDEST PUSH2 0x182F DUP2 PUSH2 0x1815 JUMP JUMPDEST DUP3 MSTORE POP POP JUMP JUMPDEST PUSH0 PUSH1 0x20 DUP3 ADD SWAP1 POP PUSH2 0x1848 PUSH0 DUP4 ADD DUP5 PUSH2 0x1826 JUMP JUMPDEST SWAP3 SWAP2 POP POP JUMP JUMPDEST PUSH0 DUP1 PUSH1 0x40 DUP4 DUP6 SUB SLT ISZERO PUSH2 0x1864 JUMPI PUSH2 0x1863 PUSH2 0x1575 JUMP JUMPDEST JUMPDEST PUSH0 PUSH2 0x1871 DUP6 DUP3 DUP7 ADD PUSH2 0x15BF JUMP JUMPDEST SWAP3 POP POP PUSH1 0x20 PUSH2 0x1882 DUP6 DUP3 DUP7 ADD PUSH2 0x15BF JUMP JUMPDEST SWAP2 POP POP SWAP3 POP SWAP3 SWAP1 POP JUMP JUMPDEST PUSH32 0x4E487B7100000000000000000000000000000000000000000000000000000000 PUSH0 MSTORE PUSH1 0x22 PUSH1 0x4 MSTORE PUSH1 0x24 PUSH0 REVERT JUMPDEST PUSH0 PUSH1 0x2 DUP3 DIV SWAP1 POP PUSH1 0x1 DUP3 AND DUP1 PUSH2 0x18D0 JUMPI PUSH1 0x7F DUP3 AND SWAP2 POP JUMPDEST PUSH1 0x20 DUP3 LT DUP2 SUB PUSH2 0x18E3 JUMPI PUSH2 0x18E2 PUSH2 0x188C JUMP JUMPDEST JUMPDEST POP SWAP2 SWAP1 POP JUMP JUMPDEST PUSH0 PUSH1 0x40 DUP3 ADD SWAP1 POP PUSH2 0x18FC PUSH0 DUP4 ADD DUP6 PUSH2 0x16EF JUMP JUMPDEST PUSH2 0x1909 PUSH1 0x20 DUP4 ADD DUP5 PUSH2 0x1677 JUMP JUMPDEST SWAP4 SWAP3 POP POP POP JUMP JUMPDEST PUSH0 DUP2 MLOAD SWAP1 POP PUSH2 0x191E DUP2 PUSH2 0x15DC JUMP JUMPDEST SWAP3 SWAP2 POP POP JUMP JUMPDEST PUSH0 PUSH1 0x20 DUP3 DUP5 SUB SLT ISZERO PUSH2 0x1939 JUMPI PUSH2 0x1938 PUSH2 0x1575 JUMP JUMPDEST JUMPDEST PUSH0 PUSH2 0x1946 DUP5 DUP3 DUP6 ADD PUSH2 0x1910 JUMP JUMPDEST SWAP2 POP POP SWAP3 SWAP2 POP POP JUMP JUMPDEST PUSH0 PUSH1 0x60 DUP3 ADD SWAP1 POP PUSH2 0x1962 PUSH0 DUP4 ADD DUP7 PUSH2 0x16EF JUMP JUMPDEST PUSH2 0x196F PUSH1 0x20 DUP4 ADD DUP6 PUSH2 0x1677 JUMP JUMPDEST PUSH2 0x197C PUSH1 0x40 DUP4 ADD DUP5 PUSH2 0x1677 JUMP JUMPDEST SWAP5 SWAP4 POP POP POP POP JUMP JUMPDEST PUSH32 0x4E487B7100000000000000000000000000000000000000000000000000000000 PUSH0 MSTORE PUSH1 0x11 PUSH1 0x4 MSTORE PUSH1 0x24 PUSH0 REVERT JUMPDEST PUSH0 PUSH2 0x19BB DUP3 PUSH2 0x15D3 JUMP JUMPDEST SWAP2 POP PUSH2 0x19C6 DUP4 PUSH2 0x15D3 JUMP JUMPDEST SWAP3 POP DUP3 DUP3 ADD SWAP1 POP DUP1 DUP3 GT ISZERO PUSH2 0x19DE JUMPI PUSH2 0x19DD PUSH2 0x1984 JUMP JUMPDEST JUMPDEST SWAP3 SWAP2 POP POP JUMP INVALID LOG2 PUSH5 0x6970667358 0x22 SLT KECCAK256 PUSH18 0x9D7971E5EE436E844835725834A1191DF24C 0xC1 0xBF 0xE3 DUP10 PUSH23 0x61E3FF34F499A5DB64736F6C634300081A003360806040 MSTORE CALLVALUE DUP1 ISZERO PUSH2 0xF JUMPI PUSH0 DUP1 REVERT JUMPDEST POP PUSH1 0x40 MLOAD PUSH2 0x2CFB CODESIZE SUB DUP1 PUSH2 0x2CFB DUP4 CODECOPY DUP2 DUP2 ADD PUSH1 0x40 MSTORE DUP2 ADD SWAP1 PUSH2 0x31 SWAP2 SWAP1 PUSH2 0x5A5 JUMP JUMPDEST DUP7 DUP7 DUP7 DUP7 DUP7 DUP7 DUP7 CALLER DUP8 DUP8 DUP2 PUSH1 0x3 SWAP1 DUP2 PUSH2 0x4A SWAP2 SWAP1 PUSH2 0x87E JUMP JUMPDEST POP DUP1 PUSH1 0x4 SWAP1 DUP2 PUSH2 0x5A SWAP2 SWAP1 PUSH2 0x87E JUMP JUMPDEST POP POP POP PUSH0 PUSH20 0xFFFFFFFFFFFFFFFFFFFFFFFFFFFFFFFFFFFFFFFF AND DUP2 PUSH20 0xFFFFFFFFFFFFFFFFFFFFFFFFFFFFFFFFFFFFFFFF AND SUB PUSH2 0xCD JUMPI PUSH0 PUSH1 0x40 MLOAD PUSH32 0x1E4FBDF700000000000000000000000000000000000000000000000000000000 DUP2 MSTORE PUSH1 0x4 ADD PUSH2 0xC4 SWAP2 SWAP1 PUSH2 0x95C JUMP JUMPDEST PUSH1 0x40 MLOAD DUP1 SWAP2 SUB SWAP1 REVERT JUMPDEST PUSH2 0xDC DUP2 PUSH2 0x2D3 PUSH1 0x20 SHL PUSH1 0x20 SHR JUMP JUMPDEST POP PUSH1 0x1 PUSH1 0x6 DUP2 SWAP1 SSTORE POP PUSH0 DUP3 SUB PUSH2 0x11E JUMPI PUSH1 0x40 MLOAD PUSH32 0x9A5818D800000000000000000000000000000000000000000000000000000000 DUP2 MSTORE PUSH1 0x4 ADD PUSH1 0x40 MLOAD DUP1 SWAP2 SUB SWAP1 REVERT JUMPDEST TIMESTAMP DUP4 LT ISZERO PUSH2 0x158 JUMPI PUSH1 0x40 MLOAD PUSH32 0xFB2A675200000000000000000000000000000000000000000000000000000000 DUP2 MSTORE PUSH1 0x4 ADD PUSH1 0x40 MLOAD DUP1 SWAP2 SUB SWAP1 REVERT JUMPDEST DUP3 PUSH1 0x9 DUP2 SWAP1 SSTORE POP DUP2 PUSH1 0xA DUP2 SWAP1 SSTORE POP DUP5 PUSH1 0x7 PUSH0 PUSH2 0x100 EXP DUP2 SLOAD DUP2 PUSH20 0xFFFFFFFFFFFFFFFFFFFFFFFFFFFFFFFFFFFFFFFF MUL NOT AND SWAP1 DUP4 PUSH20 0xFFFFFFFFFFFFFFFFFFFFFFFFFFFFFFFFFFFFFFFF AND MUL OR SWAP1 SSTORE POP DUP4 PUSH1 0x8 PUSH0 PUSH2 0x100 EXP DUP2 SLOAD DUP2 PUSH20 0xFFFFFFFFFFFFFFFFFFFFFFFFFFFFFFFFFFFFFFFF MUL NOT AND SWAP1 DUP4 PUSH20 0xFFFFFFFFFFFFFFFFFFFFFFFFFFFFFFFFFFFFFFFF AND MUL OR SWAP1 SSTORE POP DUP1 PUSH1 0xB PUSH0 PUSH2 0x100 EXP DUP2 SLOAD DUP2 PUSH1 0xFF MUL NOT AND SWAP1 DUP4 ISZERO ISZERO MUL OR SWAP1 SSTORE POP DUP5 PUSH1 0xB PUSH1 0x1 PUSH2 0x100 EXP DUP2 SLOAD DUP2 PUSH20 0xFFFFFFFFFFFFFFFFFFFFFFFFFFFFFFFFFFFFFFFF MUL NOT AND SWAP1 DUP4 PUSH20 0xFFFFFFFFFFFFFFFFFFFFFFFFFFFFFFFFFFFFFFFF AND MUL OR SWAP1 SSTORE POP DUP4 PUSH1 0xC PUSH0 PUSH2 0x100 EXP DUP2 SLOAD DUP2 PUSH20 0xFFFFFFFFFFFFFFFFFFFFFFFFFFFFFFFFFFFFFFFF MUL NOT AND SWAP1 DUP4 PUSH20 0xFFFFFFFFFFFFFFFFFFFFFFFFFFFFFFFFFFFFFFFF AND MUL OR SWAP1 SSTORE POP POP POP POP POP POP POP POP CALLER PUSH1 0xD PUSH0 PUSH2 0x100 EXP DUP2 SLOAD DUP2 PUSH20 0xFFFFFFFFFFFFFFFFFFFFFFFFFFFFFFFFFFFFFFFF MUL NOT AND SWAP1 DUP4 PUSH20 0xFFFFFFFFFFFFFFFFFFFFFFFFFFFFFFFFFFFFFFFF AND MUL OR SWAP1 SSTORE POP POP POP POP POP POP POP POP PUSH2 0x975 JUMP JUMPDEST PUSH0 PUSH1 0x5 PUSH0 SWAP1 SLOAD SWAP1 PUSH2 0x100 EXP SWAP1 DIV PUSH20 0xFFFFFFFFFFFFFFFFFFFFFFFFFFFFFFFFFFFFFFFF AND SWAP1 POP DUP2 PUSH1 0x5 PUSH0 PUSH2 0x100 EXP DUP2 SLOAD DUP2 PUSH20 0xFFFFFFFFFFFFFFFFFFFFFFFFFFFFFFFFFFFFFFFF MUL NOT AND SWAP1 DUP4 PUSH20 0xFFFFFFFFFFFFFFFFFFFFFFFFFFFFFFFFFFFFFFFF AND MUL OR SWAP1 SSTORE POP DUP2 PUSH20 0xFFFFFFFFFFFFFFFFFFFFFFFFFFFFFFFFFFFFFFFF AND DUP2 PUSH20 0xFFFFFFFFFFFFFFFFFFFFFFFFFFFFFFFFFFFFFFFF AND PUSH32 0x8BE0079C531659141344CD1FD0A4F28419497F9722A3DAAFE3B4186F6B6457E0 PUSH1 0x40 MLOAD PUSH1 0x40 MLOAD DUP1 SWAP2 SUB SWAP1 LOG3 POP POP JUMP JUMPDEST PUSH0 PUSH1 0x40 MLOAD SWAP1 POP SWAP1 JUMP JUMPDEST PUSH0 DUP1 REVERT JUMPDEST PUSH0 DUP1 REVERT JUMPDEST PUSH0 DUP1 REVERT JUMPDEST PUSH0 DUP1 REVERT JUMPDEST PUSH0 PUSH1 0x1F NOT PUSH1 0x1F DUP4 ADD AND SWAP1 POP SWAP2 SWAP1 POP JUMP JUMPDEST PUSH32 0x4E487B7100000000000000000000000000000000000000000000000000000000 PUSH0 MSTORE PUSH1 0x41 PUSH1 0x4 MSTORE PUSH1 0x24 PUSH0 REVERT JUMPDEST PUSH2 0x3F5 DUP3 PUSH2 0x3AF JUMP JUMPDEST DUP2 ADD DUP2 DUP2 LT PUSH8 0xFFFFFFFFFFFFFFFF DUP3 GT OR ISZERO PUSH2 0x414 JUMPI PUSH2 0x413 PUSH2 0x3BF JUMP JUMPDEST JUMPDEST DUP1 PUSH1 0x40 MSTORE POP POP POP JUMP JUMPDEST PUSH0 PUSH2 0x426 PUSH2 0x396 JUMP JUMPDEST SWAP1 POP PUSH2 0x432 DUP3 DUP3 PUSH2 0x3EC JUMP JUMPDEST SWAP2 SWAP1 POP JUMP JUMPDEST PUSH0 PUSH8 0xFFFFFFFFFFFFFFFF DUP3 GT ISZERO PUSH2 0x451 JUMPI PUSH2 0x450 PUSH2 0x3BF JUMP JUMPDEST JUMPDEST PUSH2 0x45A DUP3 PUSH2 0x3AF JUMP JUMPDEST SWAP1 POP PUSH1 0x20 DUP2 ADD SWAP1 POP SWAP2 SWAP1 POP JUMP JUMPDEST DUP3 DUP2 DUP4 MCOPY PUSH0 DUP4 DUP4 ADD MSTORE POP POP POP JUMP JUMPDEST PUSH0 PUSH2 0x487 PUSH2 0x482 DUP5 PUSH2 0x437 JUMP JUMPDEST PUSH2 0x41D JUMP JUMPDEST SWAP1 POP DUP3 DUP2 MSTORE PUSH1 0x20 DUP2 ADD DUP5 DUP5 DUP5 ADD GT ISZERO PUSH2 0x4A3 JUMPI PUSH2 0x4A2 PUSH2 0x3AB JUMP JUMPDEST JUMPDEST PUSH2 0x4AE DUP5 DUP3 DUP6 PUSH2 0x467 JUMP JUMPDEST POP SWAP4 SWAP3 POP POP POP JUMP JUMPDEST PUSH0 DUP3 PUSH1 0x1F DUP4 ADD SLT PUSH2 0x4CA JUMPI PUSH2 0x4C9 PUSH2 0x3A7 JUMP JUMPDEST JUMPDEST DUP2 MLOAD PUSH2 0x4DA DUP5 DUP3 PUSH1 0x20 DUP7 ADD PUSH2 0x475 JUMP JUMPDEST SWAP2 POP POP SWAP3 SWAP2 POP POP JUMP JUMPDEST PUSH0 PUSH20 0xFFFFFFFFFFFFFFFFFFFFFFFFFFFFFFFFFFFFFFFF DUP3 AND SWAP1 POP SWAP2 SWAP1 POP JUMP JUMPDEST PUSH0 PUSH2 0x50C DUP3 PUSH2 0x4E3 JUMP JUMPDEST SWAP1 POP SWAP2 SWAP1 POP JUMP JUMPDEST PUSH2 0x51C DUP2 PUSH2 0x502 JUMP JUMPDEST DUP2 EQ PUSH2 0x526 JUMPI PUSH0 DUP1 REVERT JUMPDEST POP JUMP JUMPDEST PUSH0 DUP2 MLOAD SWAP1 POP PUSH2 0x537 DUP2 PUSH2 0x513 JUMP JUMPDEST SWAP3 SWAP2 POP POP JUMP JUMPDEST PUSH0 DUP2 SWAP1 POP SWAP2 SWAP1 POP JUMP JUMPDEST PUSH2 0x54F DUP2 PUSH2 0x53D JUMP JUMPDEST DUP2 EQ PUSH2 0x559 JUMPI PUSH0 DUP1 REVERT JUMPDEST POP JUMP JUMPDEST PUSH0 DUP2 MLOAD SWAP1 POP PUSH2 0x56A DUP2 PUSH2 0x546 JUMP JUMPDEST SWAP3 SWAP2 POP POP JUMP JUMPDEST PUSH0 DUP2 ISZERO ISZERO SWAP1 POP SWAP2 SWAP1 POP JUMP JUMPDEST PUSH2 0x584 DUP2 PUSH2 0x570 JUMP JUMPDEST DUP2 EQ PUSH2 0x58E JUMPI PUSH0 DUP1 REVERT JUMPDEST POP JUMP JUMPDEST PUSH0 DUP2 MLOAD SWAP1 POP PUSH2 0x59F DUP2 PUSH2 0x57B JUMP JUMPDEST SWAP3 SWAP2 POP POP JUMP JUMPDEST PUSH0 DUP1 PUSH0 DUP1 PUSH0 DUP1 PUSH0 PUSH1 0xE0 DUP9 DUP11 SUB SLT ISZERO PUSH2 0x5C0 JUMPI PUSH2 0x5BF PUSH2 0x39F JUMP JUMPDEST JUMPDEST PUSH0 DUP9 ADD MLOAD PUSH8 0xFFFFFFFFFFFFFFFF DUP2 GT ISZERO PUSH2 0x5DD JUMPI PUSH2 0x5DC PUSH2 0x3A3 JUMP JUMPDEST JUMPDEST PUSH2 0x5E9 DUP11 DUP3 DUP12 ADD PUSH2 0x4B6 JUMP JUMPDEST SWAP8 POP POP PUSH1 0x20 DUP9 ADD MLOAD PUSH8 0xFFFFFFFFFFFFFFFF DUP2 GT ISZERO PUSH2 0x60A JUMPI PUSH2 0x609 PUSH2 0x3A3 JUMP JUMPDEST JUMPDEST PUSH2 0x616 DUP11 DUP3 DUP12 ADD PUSH2 0x4B6 JUMP JUMPDEST SWAP7 POP POP PUSH1 0x40 PUSH2 0x627 DUP11 DUP3 DUP12 ADD PUSH2 0x529 JUMP JUMPDEST SWAP6 POP POP PUSH1 0x60 PUSH2 0x638 DUP11 DUP3 DUP12 ADD PUSH2 0x529 JUMP JUMPDEST SWAP5 POP POP PUSH1 0x80 PUSH2 0x649 DUP11 DUP3 DUP12 ADD PUSH2 0x55C JUMP JUMPDEST SWAP4 POP POP PUSH1 0xA0 PUSH2 0x65A DUP11 DUP3 DUP12 ADD PUSH2 0x55C JUMP JUMPDEST SWAP3 POP POP PUSH1 0xC0 PUSH2 0x66B DUP11 DUP3 DUP12 ADD PUSH2 0x591 JUMP JUMPDEST SWAP2 POP POP SWAP3 SWAP6 SWAP9 SWAP2 SWAP5 SWAP8 POP SWAP3 SWAP6 POP JUMP JUMPDEST PUSH0 DUP2 MLOAD SWAP1 POP SWAP2 SWAP1 POP JUMP JUMPDEST PUSH32 0x4E487B7100000000000000000000000000000000000000000000000000000000 PUSH0 MSTORE PUSH1 0x22 PUSH1 0x4 MSTORE PUSH1 0x24 PUSH0 REVERT JUMPDEST PUSH0 PUSH1 0x2 DUP3 DIV SWAP1 POP PUSH1 0x1 DUP3 AND DUP1 PUSH2 0x6C8 JUMPI PUSH1 0x7F DUP3 AND SWAP2 POP JUMPDEST PUSH1 0x20 DUP3 LT DUP2 SUB PUSH2 0x6DB JUMPI PUSH2 0x6DA PUSH2 0x684 JUMP JUMPDEST JUMPDEST POP SWAP2 SWAP1 POP JUMP JUMPDEST PUSH0 DUP2 SWAP1 POP DUP2 PUSH0 MSTORE PUSH1 0x20 PUSH0 KECCAK256 SWAP1 POP SWAP2 SWAP1 POP JUMP JUMPDEST PUSH0 PUSH1 0x20 PUSH1 0x1F DUP4 ADD DIV SWAP1 POP SWAP2 SWAP1 POP JUMP JUMPDEST PUSH0 DUP3 DUP3 SHL SWAP1 POP SWAP3 SWAP2 POP POP JUMP JUMPDEST PUSH0 PUSH1 0x8 DUP4 MUL PUSH2 0x73D PUSH32 0xFFFFFFFFFFFFFFFFFFFFFFFFFFFFFFFFFFFFFFFFFFFFFFFFFFFFFFFFFFFFFFFF DUP3 PUSH2 0x702 JUMP JUMPDEST PUSH2 0x747 DUP7 DUP4 PUSH2 0x702 JUMP JUMPDEST SWAP6 POP DUP1 NOT DUP5 AND SWAP4 POP DUP1 DUP7 AND DUP5 OR SWAP3 POP POP POP SWAP4 SWAP3 POP POP POP JUMP JUMPDEST PUSH0 DUP2 SWAP1 POP SWAP2 SWAP1 POP JUMP JUMPDEST PUSH0 PUSH2 0x782 PUSH2 0x77D PUSH2 0x778 DUP5 PUSH2 0x53D JUMP JUMPDEST PUSH2 0x75F JUMP JUMPDEST PUSH2 0x53D JUMP JUMPDEST SWAP1 POP SWAP2 SWAP1 POP JUMP JUMPDEST PUSH0 DUP2 SWAP1 POP SWAP2 SWAP1 POP JUMP JUMPDEST PUSH2 0x79B DUP4 PUSH2 0x768 JUMP JUMPDEST PUSH2 0x7AF PUSH2 0x7A7 DUP3 PUSH2 0x789 JUMP JUMPDEST DUP5 DUP5 SLOAD PUSH2 0x70E JUMP JUMPDEST DUP3 SSTORE POP POP POP POP JUMP JUMPDEST PUSH0 SWAP1 JUMP JUMPDEST PUSH2 0x7C3 PUSH2 0x7B7 JUMP JUMPDEST PUSH2 0x7CE DUP2 DUP5 DUP5 PUSH2 0x792 JUMP JUMPDEST POP POP POP JUMP JUMPDEST JUMPDEST DUP2 DUP2 LT ISZERO PUSH2 0x7F1 JUMPI PUSH2 0x7E6 PUSH0 DUP3 PUSH2 0x7BB JUMP JUMPDEST PUSH1 0x1 DUP2 ADD SWAP1 POP PUSH2 0x7D4 JUMP JUMPDEST POP POP JUMP JUMPDEST PUSH1 0x1F DUP3 GT ISZERO PUSH2 0x836 JUMPI PUSH2 0x807 DUP2 PUSH2 0x6E1 JUMP JUMPDEST PUSH2 0x810 DUP5 PUSH2 0x6F3 JUMP JUMPDEST DUP2 ADD PUSH1 0x20 DUP6 LT ISZERO PUSH2 0x81F JUMPI DUP2 SWAP1 POP JUMPDEST PUSH2 0x833 PUSH2 0x82B DUP6 PUSH2 0x6F3 JUMP JUMPDEST DUP4 ADD DUP3 PUSH2 0x7D3 JUMP JUMPDEST POP POP JUMPDEST POP POP POP JUMP JUMPDEST PUSH0 DUP3 DUP3 SHR SWAP1 POP SWAP3 SWAP2 POP POP JUMP JUMPDEST PUSH0 PUSH2 0x856 PUSH0 NOT DUP5 PUSH1 0x8 MUL PUSH2 0x83B JUMP JUMPDEST NOT DUP1 DUP4 AND SWAP2 POP POP SWAP3 SWAP2 POP POP JUMP JUMPDEST PUSH0 PUSH2 0x86E DUP4 DUP4 PUSH2 0x847 JUMP JUMPDEST SWAP2 POP DUP3 PUSH1 0x2 MUL DUP3 OR SWAP1 POP SWAP3 SWAP2 POP POP JUMP JUMPDEST PUSH2 0x887 DUP3 PUSH2 0x67A JUMP JUMPDEST PUSH8 0xFFFFFFFFFFFFFFFF DUP2 GT ISZERO PUSH2 0x8A0 JUMPI PUSH2 0x89F PUSH2 0x3BF JUMP JUMPDEST JUMPDEST PUSH2 0x8AA DUP3 SLOAD PUSH2 0x6B1 JUMP JUMPDEST PUSH2 0x8B5 DUP3 DUP3 DUP6 PUSH2 0x7F5 JUMP JUMPDEST PUSH0 PUSH1 0x20 SWAP1 POP PUSH1 0x1F DUP4 GT PUSH1 0x1 DUP2 EQ PUSH2 0x8E6 JUMPI PUSH0 DUP5 ISZERO PUSH2 0x8D4 JUMPI DUP3 DUP8 ADD MLOAD SWAP1 POP JUMPDEST PUSH2 0x8DE DUP6 DUP3 PUSH2 0x863 JUMP JUMPDEST DUP7 SSTORE POP PUSH2 0x945 JUMP JUMPDEST PUSH1 0x1F NOT DUP5 AND PUSH2 0x8F4 DUP7 PUSH2 0x6E1 JUMP JUMPDEST PUSH0 JUMPDEST DUP3 DUP2 LT ISZERO PUSH2 0x91B JUMPI DUP5 DUP10 ADD MLOAD DUP3 SSTORE PUSH1 0x1 DUP3 ADD SWAP2 POP PUSH1 0x20 DUP6 ADD SWAP5 POP PUSH1 0x20 DUP2 ADD SWAP1 POP PUSH2 0x8F6 JUMP JUMPDEST DUP7 DUP4 LT ISZERO PUSH2 0x938 JUMPI DUP5 DUP10 ADD MLOAD PUSH2 0x934 PUSH1 0x1F DUP10 AND DUP3 PUSH2 0x847 JUMP JUMPDEST DUP4 SSTORE POP JUMPDEST PUSH1 0x1 PUSH1 0x2 DUP9 MUL ADD DUP9 SSTORE POP POP POP JUMPDEST POP POP POP POP POP POP JUMP JUMPDEST PUSH2 0x956 DUP2 PUSH2 0x502 JUMP JUMPDEST DUP3 MSTORE POP POP JUMP JUMPDEST PUSH0 PUSH1 0x20 DUP3 ADD SWAP1 POP PUSH2 0x96F PUSH0 DUP4 ADD DUP5 PUSH2 0x94D JUMP JUMPDEST SWAP3 SWAP2 POP POP JUMP JUMPDEST PUSH2 0x2379 DUP1 PUSH2 0x982 PUSH0 CODECOPY PUSH0 RETURN INVALID PUSH1 0x80 PUSH1 0x40 MSTORE CALLVALUE DUP1 ISZERO PUSH2 0xF JUMPI PUSH0 DUP1 REVERT JUMPDEST POP PUSH1 0x4 CALLDATASIZE LT PUSH2 0x171 JUMPI PUSH0 CALLDATALOAD PUSH1 0xE0 SHR DUP1 PUSH4 0x7955EAA1 GT PUSH2 0xDC JUMPI DUP1 PUSH4 0xAD8F5008 GT PUSH2 0x95 JUMPI DUP1 PUSH4 0xDD62ED3E GT PUSH2 0x6F JUMPI DUP1 PUSH4 0xDD62ED3E EQ PUSH2 0x417 JUMPI DUP1 PUSH4 0xE0CA59BB EQ PUSH2 0x447 JUMPI DUP1 PUSH4 0xF2FDE38B EQ PUSH2 0x463 JUMPI DUP1 PUSH4 0xF3C274A6 EQ PUSH2 0x47F JUMPI PUSH2 0x171 JUMP JUMPDEST DUP1 PUSH4 0xAD8F5008 EQ PUSH2 0x3BF JUMPI DUP1 PUSH4 0xD8DFEB45 EQ PUSH2 0x3DD JUMPI DUP1 PUSH4 0xDD068EC1 EQ PUSH2 0x3FB JUMPI PUSH2 0x171 JUMP JUMPDEST DUP1 PUSH4 0x7955EAA1 EQ PUSH2 0x2FB JUMPI DUP1 PUSH4 0x8DA5CB5B EQ PUSH2 0x317 JUMPI DUP1 PUSH4 0x8F620487 EQ PUSH2 0x335 JUMPI DUP1 PUSH4 0x95D89B41 EQ PUSH2 0x353 JUMPI DUP1 PUSH4 0x9ACEA70D EQ PUSH2 0x371 JUMPI DUP1 PUSH4 0xA9059CBB EQ PUSH2 0x38F JUMPI PUSH2 0x171 JUMP JUMPDEST DUP1 PUSH4 0x40C10F19 GT PUSH2 0x12E JUMPI DUP1 PUSH4 0x40C10F19 EQ PUSH2 0x24B JUMPI DUP1 PUSH4 0x48D399E7 EQ PUSH2 0x267 JUMPI DUP1 PUSH4 0x551DC014 EQ PUSH2 0x285 JUMPI DUP1 PUSH4 0x6F713C9C EQ PUSH2 0x2A3 JUMPI DUP1 PUSH4 0x70A08231 EQ PUSH2 0x2C1 JUMPI DUP1 PUSH4 0x715018A6 EQ PUSH2 0x2F1 JUMPI PUSH2 0x171 JUMP JUMPDEST DUP1 PUSH4 0x6FDDE03 EQ PUSH2 0x175 JUMPI DUP1 PUSH4 0x95EA7B3 EQ PUSH2 0x193 JUMPI DUP1 PUSH4 0x18160DDD EQ PUSH2 0x1C3 JUMPI DUP1 PUSH4 0x1E9A6950 EQ PUSH2 0x1E1 JUMPI DUP1 PUSH4 0x23B872DD EQ PUSH2 0x1FD JUMPI DUP1 PUSH4 0x313CE567 EQ PUSH2 0x22D JUMPI JUMPDEST PUSH0 DUP1 REVERT JUMPDEST PUSH2 0x17D PUSH2 0x49D JUMP JUMPDEST PUSH1 0x40 MLOAD PUSH2 0x18A SWAP2 SWAP1 PUSH2 0x1DBD JUMP JUMPDEST PUSH1 0x40 MLOAD DUP1 SWAP2 SUB SWAP1 RETURN JUMPDEST PUSH2 0x1AD PUSH1 0x4 DUP1 CALLDATASIZE SUB DUP2 ADD SWAP1 PUSH2 0x1A8 SWAP2 SWAP1 PUSH2 0x1E6E JUMP JUMPDEST PUSH2 0x52D JUMP JUMPDEST PUSH1 0x40 MLOAD PUSH2 0x1BA SWAP2 SWAP1 PUSH2 0x1EC6 JUMP JUMPDEST PUSH1 0x40 MLOAD DUP1 SWAP2 SUB SWAP1 RETURN JUMPDEST PUSH2 0x1CB PUSH2 0x54F JUMP JUMPDEST PUSH1 0x40 MLOAD PUSH2 0x1D8 SWAP2 SWAP1 PUSH2 0x1EEE JUMP JUMPDEST PUSH1 0x40 MLOAD DUP1 SWAP2 SUB SWAP1 RETURN JUMPDEST PUSH2 0x1FB PUSH1 0x4 DUP1 CALLDATASIZE SUB DUP2 ADD SWAP1 PUSH2 0x1F6 SWAP2 SWAP1 PUSH2 0x1E6E JUMP JUMPDEST PUSH2 0x558 JUMP JUMPDEST STOP JUMPDEST PUSH2 0x217 PUSH1 0x4 DUP1 CALLDATASIZE SUB DUP2 ADD SWAP1 PUSH2 0x212 SWAP2 SWAP1 PUSH2 0x1F07 JUMP JUMPDEST PUSH2 0x5E8 JUMP JUMPDEST PUSH1 0x40 MLOAD PUSH2 0x224 SWAP2 SWAP1 PUSH2 0x1EC6 JUMP JUMPDEST PUSH1 0x40 MLOAD DUP1 SWAP2 SUB SWAP1 RETURN JUMPDEST PUSH2 0x235 PUSH2 0x616 JUMP JUMPDEST PUSH1 0x40 MLOAD PUSH2 0x242 SWAP2 SWAP1 PUSH2 0x1F72 JUMP JUMPDEST PUSH1 0x40 MLOAD DUP1 SWAP2 SUB SWAP1 RETURN JUMPDEST PUSH2 0x265 PUSH1 0x4 DUP1 CALLDATASIZE SUB DUP2 ADD SWAP1 PUSH2 0x260 SWAP2 SWAP1 PUSH2 0x1E6E JUMP JUMPDEST PUSH2 0x61E JUMP JUMPDEST STOP JUMPDEST PUSH2 0x26F PUSH2 0x748 JUMP JUMPDEST PUSH1 0x40 MLOAD PUSH2 0x27C SWAP2 SWAP1 PUSH2 0x1F9A JUMP JUMPDEST PUSH1 0x40 MLOAD DUP1 SWAP2 SUB SWAP1 RETURN JUMPDEST PUSH2 0x28D PUSH2 0x76D JUMP JUMPDEST PUSH1 0x40 MLOAD PUSH2 0x29A SWAP2 SWAP1 PUSH2 0x1F9A JUMP JUMPDEST PUSH1 0x40 MLOAD DUP1 SWAP2 SUB SWAP1 RETURN JUMPDEST PUSH2 0x2AB PUSH2 0x792 JUMP JUMPDEST PUSH1 0x40 MLOAD PUSH2 0x2B8 SWAP2 SWAP1 PUSH2 0x200E JUMP JUMPDEST PUSH1 0x40 MLOAD DUP1 SWAP2 SUB SWAP1 RETURN JUMPDEST PUSH2 0x2DB PUSH1 0x4 DUP1 CALLDATASIZE SUB DUP2 ADD SWAP1 PUSH2 0x2D6 SWAP2 SWAP1 PUSH2 0x2027 JUMP JUMPDEST PUSH2 0x7B7 JUMP JUMPDEST PUSH1 0x40 MLOAD PUSH2 0x2E8 SWAP2 SWAP1 PUSH2 0x1EEE JUMP JUMPDEST PUSH1 0x40 MLOAD DUP1 SWAP2 SUB SWAP1 RETURN JUMPDEST PUSH2 0x2F9 PUSH2 0x7FC JUMP JUMPDEST STOP JUMPDEST PUSH2 0x315 PUSH1 0x4 DUP1 CALLDATASIZE SUB DUP2 ADD SWAP1 PUSH2 0x310 SWAP2 SWAP1 PUSH2 0x1E6E JUMP JUMPDEST PUSH2 0x80F JUMP JUMPDEST STOP JUMPDEST PUSH2 0x31F PUSH2 0x89F JUMP JUMPDEST PUSH1 0x40 MLOAD PUSH2 0x32C SWAP2 SWAP1 PUSH2 0x1F9A JUMP JUMPDEST PUSH1 0x40 MLOAD DUP1 SWAP2 SUB SWAP1 RETURN JUMPDEST PUSH2 0x33D PUSH2 0x8C7 JUMP JUMPDEST PUSH1 0x40 MLOAD PUSH2 0x34A SWAP2 SWAP1 PUSH2 0x1EEE JUMP JUMPDEST PUSH1 0x40 MLOAD DUP1 SWAP2 SUB SWAP1 RETURN JUMPDEST PUSH2 0x35B PUSH2 0x8CD JUMP JUMPDEST PUSH1 0x40 MLOAD PUSH2 0x368 SWAP2 SWAP1 PUSH2 0x1DBD JUMP JUMPDEST PUSH1 0x40 MLOAD DUP1 SWAP2 SUB SWAP1 RETURN JUMPDEST PUSH2 0x379 PUSH2 0x95D JUMP JUMPDEST PUSH1 0x40 MLOAD PUSH2 0x386 SWAP2 SWAP1 PUSH2 0x1F9A JUMP JUMPDEST PUSH1 0x40 MLOAD DUP1 SWAP2 SUB SWAP1 RETURN JUMPDEST PUSH2 0x3A9 PUSH1 0x4 DUP1 CALLDATASIZE SUB DUP2 ADD SWAP1 PUSH2 0x3A4 SWAP2 SWAP1 PUSH2 0x1E6E JUMP JUMPDEST PUSH2 0x982 JUMP JUMPDEST PUSH1 0x40 MLOAD PUSH2 0x3B6 SWAP2 SWAP1 PUSH2 0x1EC6 JUMP JUMPDEST PUSH1 0x40 MLOAD DUP1 SWAP2 SUB SWAP1 RETURN JUMPDEST PUSH2 0x3C7 PUSH2 0x9A4 JUMP JUMPDEST PUSH1 0x40 MLOAD PUSH2 0x3D4 SWAP2 SWAP1 PUSH2 0x1EEE JUMP JUMPDEST PUSH1 0x40 MLOAD DUP1 SWAP2 SUB SWAP1 RETURN JUMPDEST PUSH2 0x3E5 PUSH2 0x9AA JUMP JUMPDEST PUSH1 0x40 MLOAD PUSH2 0x3F2 SWAP2 SWAP1 PUSH2 0x200E JUMP JUMPDEST PUSH1 0x40 MLOAD DUP1 SWAP2 SUB SWAP1 RETURN JUMPDEST PUSH2 0x415 PUSH1 0x4 DUP1 CALLDATASIZE SUB DUP2 ADD SWAP1 PUSH2 0x410 SWAP2 SWAP1 PUSH2 0x1E6E JUMP JUMPDEST PUSH2 0x9D0 JUMP JUMPDEST STOP JUMPDEST PUSH2 0x431 PUSH1 0x4 DUP1 CALLDATASIZE SUB DUP2 ADD SWAP1 PUSH2 0x42C SWAP2 SWAP1 PUSH2 0x2052 JUMP JUMPDEST PUSH2 0xA21 JUMP JUMPDEST PUSH1 0x40 MLOAD PUSH2 0x43E SWAP2 SWAP1 PUSH2 0x1EEE JUMP JUMPDEST PUSH1 0x40 MLOAD DUP1 SWAP2 SUB SWAP1 RETURN JUMPDEST PUSH2 0x461 PUSH1 0x4 DUP1 CALLDATASIZE SUB DUP2 ADD SWAP1 PUSH2 0x45C SWAP2 SWAP1 PUSH2 0x1E6E JUMP JUMPDEST PUSH2 0xAA3 JUMP JUMPDEST STOP JUMPDEST PUSH2 0x47D PUSH1 0x4 DUP1 CALLDATASIZE SUB DUP2 ADD SWAP1 PUSH2 0x478 SWAP2 SWAP1 PUSH2 0x2027 JUMP JUMPDEST PUSH2 0xB3A JUMP JUMPDEST STOP JUMPDEST PUSH2 0x487 PUSH2 0xBBE JUMP JUMPDEST PUSH1 0x40 MLOAD PUSH2 0x494 SWAP2 SWAP1 PUSH2 0x1EC6 JUMP JUMPDEST PUSH1 0x40 MLOAD DUP1 SWAP2 SUB SWAP1 RETURN JUMPDEST PUSH1 0x60 PUSH1 0x3 DUP1 SLOAD PUSH2 0x4AC SWAP1 PUSH2 0x20BD JUMP JUMPDEST DUP1 PUSH1 0x1F ADD PUSH1 0x20 DUP1 SWAP2 DIV MUL PUSH1 0x20 ADD PUSH1 0x40 MLOAD SWAP1 DUP2 ADD PUSH1 0x40 MSTORE DUP1 SWAP3 SWAP2 SWAP1 DUP2 DUP2 MSTORE PUSH1 0x20 ADD DUP3 DUP1 SLOAD PUSH2 0x4D8 SWAP1 PUSH2 0x20BD JUMP JUMPDEST DUP1 ISZERO PUSH2 0x523 JUMPI DUP1 PUSH1 0x1F LT PUSH2 0x4FA JUMPI PUSH2 0x100 DUP1 DUP4 SLOAD DIV MUL DUP4 MSTORE SWAP2 PUSH1 0x20 ADD SWAP2 PUSH2 0x523 JUMP JUMPDEST DUP3 ADD SWAP2 SWAP1 PUSH0 MSTORE PUSH1 0x20 PUSH0 KECCAK256 SWAP1 JUMPDEST DUP2 SLOAD DUP2 MSTORE SWAP1 PUSH1 0x1 ADD SWAP1 PUSH1 0x20 ADD DUP1 DUP4 GT PUSH2 0x506 JUMPI DUP3 SWAP1 SUB PUSH1 0x1F AND DUP3 ADD SWAP2 JUMPDEST POP POP POP POP POP SWAP1 POP SWAP1 JUMP JUMPDEST PUSH0 DUP1 PUSH2 0x537 PUSH2 0xBD0 JUMP JUMPDEST SWAP1 POP PUSH2 0x544 DUP2 DUP6 DUP6 PUSH2 0xBD7 JUMP JUMPDEST PUSH1 0x1 SWAP2 POP POP SWAP3 SWAP2 POP POP JUMP JUMPDEST PUSH0 PUSH1 0x2 SLOAD SWAP1 POP SWAP1 JUMP JUMPDEST PUSH1 0x9 SLOAD TIMESTAMP LT ISZERO PUSH2 0x594 JUMPI PUSH1 0x40 MLOAD PUSH32 0x43E14AA600000000000000000000000000000000000000000000000000000000 DUP2 MSTORE PUSH1 0x4 ADD PUSH1 0x40 MLOAD DUP1 SWAP2 SUB SWAP1 REVERT JUMPDEST DUP2 DUP2 DUP1 PUSH2 0x5A0 DUP4 PUSH2 0x7B7 JUMP JUMPDEST LT ISZERO PUSH2 0x5D8 JUMPI PUSH1 0x40 MLOAD PUSH32 0xF4D678B800000000000000000000000000000000000000000000000000000000 DUP2 MSTORE PUSH1 0x4 ADD PUSH1 0x40 MLOAD DUP1 SWAP2 SUB SWAP1 REVERT JUMPDEST PUSH2 0x5E2 DUP5 DUP5 PUSH2 0xBE9 JUMP JUMPDEST POP POP POP POP JUMP JUMPDEST PUSH0 DUP1 PUSH2 0x5F2 PUSH2 0xBD0 JUMP JUMPDEST SWAP1 POP PUSH2 0x5FF DUP6 DUP3 DUP6 PUSH2 0xF95 JUMP JUMPDEST PUSH2 0x60A DUP6 DUP6 DUP6 PUSH2 0x1027 JUMP JUMPDEST PUSH1 0x1 SWAP2 POP POP SWAP4 SWAP3 POP POP POP JUMP JUMPDEST PUSH0 PUSH1 0x12 SWAP1 POP SWAP1 JUMP JUMPDEST PUSH2 0x626 PUSH2 0x1117 JUMP JUMPDEST DUP2 DUP2 DUP1 PUSH1 0xB PUSH1 0x1 SWAP1 SLOAD SWAP1 PUSH2 0x100 EXP SWAP1 DIV PUSH20 0xFFFFFFFFFFFFFFFFFFFFFFFFFFFFFFFFFFFFFFFF AND PUSH20 0xFFFFFFFFFFFFFFFFFFFFFFFFFFFFFFFFFFFFFFFF AND PUSH4 0x70A08231 DUP5 PUSH1 0x40 MLOAD DUP3 PUSH4 0xFFFFFFFF AND PUSH1 0xE0 SHL DUP2 MSTORE PUSH1 0x4 ADD PUSH2 0x684 SWAP2 SWAP1 PUSH2 0x1F9A JUMP JUMPDEST PUSH1 0x20 PUSH1 0x40 MLOAD DUP1 DUP4 SUB DUP2 DUP7 GAS STATICCALL ISZERO DUP1 ISZERO PUSH2 0x69F JUMPI RETURNDATASIZE PUSH0 DUP1 RETURNDATACOPY RETURNDATASIZE PUSH0 REVERT JUMPDEST POP POP POP POP PUSH1 0x40 MLOAD RETURNDATASIZE PUSH1 0x1F NOT PUSH1 0x1F DUP3 ADD AND DUP3 ADD DUP1 PUSH1 0x40 MSTORE POP DUP2 ADD SWAP1 PUSH2 0x6C3 SWAP2 SWAP1 PUSH2 0x2101 JUMP JUMPDEST LT ISZERO PUSH2 0x6FB JUMPI PUSH1 0x40 MLOAD PUSH32 0xF4D678B800000000000000000000000000000000000000000000000000000000 DUP2 MSTORE PUSH1 0x4 ADD PUSH1 0x40 MLOAD DUP1 SWAP2 SUB SWAP1 REVERT JUMPDEST DUP3 PUSH1 0x1 DUP2 LT ISZERO PUSH2 0x737 JUMPI PUSH1 0x40 MLOAD PUSH32 0x2C5211C600000000000000000000000000000000000000000000000000000000 DUP2 MSTORE PUSH1 0x4 ADD PUSH1 0x40 MLOAD DUP1 SWAP2 SUB SWAP1 REVERT JUMPDEST PUSH2 0x741 DUP6 DUP6 PUSH2 0x119E JUMP JUMPDEST POP POP POP POP POP JUMP JUMPDEST PUSH1 0x7 PUSH0 SWAP1 SLOAD SWAP1 PUSH2 0x100 EXP SWAP1 DIV PUSH20 0xFFFFFFFFFFFFFFFFFFFFFFFFFFFFFFFFFFFFFFFF AND DUP2 JUMP JUMPDEST PUSH1 0xD PUSH0 SWAP1 SLOAD SWAP1 PUSH2 0x100 EXP SWAP1 DIV PUSH20 0xFFFFFFFFFFFFFFFFFFFFFFFFFFFFFFFFFFFFFFFF AND DUP2 JUMP JUMPDEST PUSH1 0xC PUSH0 SWAP1 SLOAD SWAP1 PUSH2 0x100 EXP SWAP1 DIV PUSH20 0xFFFFFFFFFFFFFFFFFFFFFFFFFFFFFFFFFFFFFFFF AND DUP2 JUMP JUMPDEST PUSH0 DUP1 PUSH0 DUP4 PUSH20 0xFFFFFFFFFFFFFFFFFFFFFFFFFFFFFFFFFFFFFFFF AND PUSH20 0xFFFFFFFFFFFFFFFFFFFFFFFFFFFFFFFFFFFFFFFF AND DUP2 MSTORE PUSH1 0x20 ADD SWAP1 DUP2 MSTORE PUSH1 0x20 ADD PUSH0 KECCAK256 SLOAD SWAP1 POP SWAP2 SWAP1 POP JUMP JUMPDEST PUSH2 0x804 PUSH2 0x1117 JUMP JUMPDEST PUSH2 0x80D PUSH0 PUSH2 0x1370 JUMP JUMPDEST JUMP JUMPDEST DUP2 DUP2 DUP1 PUSH2 0x81B DUP4 PUSH2 0x7B7 JUMP JUMPDEST LT ISZERO PUSH2 0x853 JUMPI PUSH1 0x40 MLOAD PUSH32 0xF4D678B800000000000000000000000000000000000000000000000000000000 DUP2 MSTORE PUSH1 0x4 ADD PUSH1 0x40 MLOAD DUP1 SWAP2 SUB SWAP1 REVERT JUMPDEST PUSH1 0x9 SLOAD TIMESTAMP LT ISZERO PUSH2 0x88F JUMPI PUSH1 0x40 MLOAD PUSH32 0x43E14AA600000000000000000000000000000000000000000000000000000000 DUP2 MSTORE PUSH1 0x4 ADD PUSH1 0x40 MLOAD DUP1 SWAP2 SUB SWAP1 REVERT JUMPDEST PUSH2 0x899 DUP5 DUP5 PUSH2 0x1433 JUMP JUMPDEST POP POP POP POP JUMP JUMPDEST PUSH0 PUSH1 0x5 PUSH0 SWAP1 SLOAD SWAP1 PUSH2 0x100 EXP SWAP1 DIV PUSH20 0xFFFFFFFFFFFFFFFFFFFFFFFFFFFFFFFFFFFFFFFF AND SWAP1 POP SWAP1 JUMP JUMPDEST PUSH1 0x9 SLOAD DUP2 JUMP JUMPDEST PUSH1 0x60 PUSH1 0x4 DUP1 SLOAD PUSH2 0x8DC SWAP1 PUSH2 0x20BD JUMP JUMPDEST DUP1 PUSH1 0x1F ADD PUSH1 0x20 DUP1 SWAP2 DIV MUL PUSH1 0x20 ADD PUSH1 0x40 MLOAD SWAP1 DUP2 ADD PUSH1 0x40 MSTORE DUP1 SWAP3 SWAP2 SWAP1 DUP2 DUP2 MSTORE PUSH1 0x20 ADD DUP3 DUP1 SLOAD PUSH2 0x908 SWAP1 PUSH2 0x20BD JUMP JUMPDEST DUP1 ISZERO PUSH2 0x953 JUMPI DUP1 PUSH1 0x1F LT PUSH2 0x92A JUMPI PUSH2 0x100 DUP1 DUP4 SLOAD DIV MUL DUP4 MSTORE SWAP2 PUSH1 0x20 ADD SWAP2 PUSH2 0x953 JUMP JUMPDEST DUP3 ADD SWAP2 SWAP1 PUSH0 MSTORE PUSH1 0x20 PUSH0 KECCAK256 SWAP1 JUMPDEST DUP2 SLOAD DUP2 MSTORE SWAP1 PUSH1 0x1 ADD SWAP1 PUSH1 0x20 ADD DUP1 DUP4 GT PUSH2 0x936 JUMPI DUP3 SWAP1 SUB PUSH1 0x1F AND DUP3 ADD SWAP2 JUMPDEST POP POP POP POP POP SWAP1 POP SWAP1 JUMP JUMPDEST PUSH1 0x8 PUSH0 SWAP1 SLOAD SWAP1 PUSH2 0x100 EXP SWAP1 DIV PUSH20 0xFFFFFFFFFFFFFFFFFFFFFFFFFFFFFFFFFFFFFFFF AND DUP2 JUMP JUMPDEST PUSH0 DUP1 PUSH2 0x98C PUSH2 0xBD0 JUMP JUMPDEST SWAP1 POP PUSH2 0x999 DUP2 DUP6 DUP6 PUSH2 0x1027 JUMP JUMPDEST PUSH1 0x1 SWAP2 POP POP SWAP3 SWAP2 POP POP JUMP JUMPDEST PUSH1 0xA SLOAD DUP2 JUMP JUMPDEST PUSH1 0xB PUSH1 0x1 SWAP1 SLOAD SWAP1 PUSH2 0x100 EXP SWAP1 DIV PUSH20 0xFFFFFFFFFFFFFFFFFFFFFFFFFFFFFFFFFFFFFFFF AND DUP2 JUMP JUMPDEST PUSH1 0x9 SLOAD TIMESTAMP LT PUSH2 0xA0B JUMPI PUSH1 0x40 MLOAD PUSH32 0x790D4E300000000000000000000000000000000000000000000000000000000 DUP2 MSTORE PUSH1 0x4 ADD PUSH1 0x40 MLOAD DUP1 SWAP2 SUB SWAP1 REVERT JUMPDEST PUSH2 0xA13 PUSH2 0x1117 JUMP JUMPDEST PUSH2 0xA1D DUP3 DUP3 PUSH2 0x1663 JUMP JUMPDEST POP POP JUMP JUMPDEST PUSH0 PUSH1 0x1 PUSH0 DUP5 PUSH20 0xFFFFFFFFFFFFFFFFFFFFFFFFFFFFFFFFFFFFFFFF AND PUSH20 0xFFFFFFFFFFFFFFFFFFFFFFFFFFFFFFFFFFFFFFFF AND DUP2 MSTORE PUSH1 0x20 ADD SWAP1 DUP2 MSTORE PUSH1 0x20 ADD PUSH0 KECCAK256 PUSH0 DUP4 PUSH20 0xFFFFFFFFFFFFFFFFFFFFFFFFFFFFFFFFFFFFFFFF AND PUSH20 0xFFFFFFFFFFFFFFFFFFFFFFFFFFFFFFFFFFFFFFFF AND DUP2 MSTORE PUSH1 0x20 ADD SWAP1 DUP2 MSTORE PUSH1 0x20 ADD PUSH0 KECCAK256 SLOAD SWAP1 POP SWAP3 SWAP2 POP POP JUMP JUMPDEST PUSH1 0x9 SLOAD TIMESTAMP LT PUSH2 0xADE JUMPI PUSH1 0x40 MLOAD PUSH32 0x790D4E300000000000000000000000000000000000000000000000000000000 DUP2 MSTORE PUSH1 0x4 ADD PUSH1 0x40 MLOAD DUP1 SWAP2 SUB SWAP1 REVERT JUMPDEST PUSH2 0xAE6 PUSH2 0x1117 JUMP JUMPDEST DUP2 DUP2 DUP1 PUSH2 0xAF2 DUP4 PUSH2 0x7B7 JUMP JUMPDEST LT ISZERO PUSH2 0xB2A JUMPI PUSH1 0x40 MLOAD PUSH32 0xF4D678B800000000000000000000000000000000000000000000000000000000 DUP2 MSTORE PUSH1 0x4 ADD PUSH1 0x40 MLOAD DUP1 SWAP2 SUB SWAP1 REVERT JUMPDEST PUSH2 0xB34 DUP5 DUP5 PUSH2 0xBE9 JUMP JUMPDEST POP POP POP POP JUMP JUMPDEST PUSH2 0xB42 PUSH2 0x1117 JUMP JUMPDEST PUSH0 PUSH20 0xFFFFFFFFFFFFFFFFFFFFFFFFFFFFFFFFFFFFFFFF AND DUP2 PUSH20 0xFFFFFFFFFFFFFFFFFFFFFFFFFFFFFFFFFFFFFFFF AND SUB PUSH2 0xBB2 JUMPI PUSH0 PUSH1 0x40 MLOAD PUSH32 0x1E4FBDF700000000000000000000000000000000000000000000000000000000 DUP2 MSTORE PUSH1 0x4 ADD PUSH2 0xBA9 SWAP2 SWAP1 PUSH2 0x1F9A JUMP JUMPDEST PUSH1 0x40 MLOAD DUP1 SWAP2 SUB SWAP1 REVERT JUMPDEST PUSH2 0xBBB DUP2 PUSH2 0x1370 JUMP JUMPDEST POP JUMP JUMPDEST PUSH1 0xB PUSH0 SWAP1 SLOAD SWAP1 PUSH2 0x100 EXP SWAP1 DIV PUSH1 0xFF AND DUP2 JUMP JUMPDEST PUSH0 CALLER SWAP1 POP SWAP1 JUMP JUMPDEST PUSH2 0xBE4 DUP4 DUP4 DUP4 PUSH1 0x1 PUSH2 0x1817 JUMP JUMPDEST POP POP POP JUMP JUMPDEST PUSH2 0xBF1 PUSH2 0x19E6 JUMP JUMPDEST DUP2 DUP2 DUP1 PUSH2 0xBFD DUP4 PUSH2 0x7B7 JUMP JUMPDEST LT ISZERO PUSH2 0xC35 JUMPI PUSH1 0x40 MLOAD PUSH32 0xF4D678B800000000000000000000000000000000000000000000000000000000 DUP2 MSTORE PUSH1 0x4 ADD PUSH1 0x40 MLOAD DUP1 SWAP2 SUB SWAP1 REVERT JUMPDEST DUP3 PUSH1 0x1 DUP2 LT ISZERO PUSH2 0xC71 JUMPI PUSH1 0x40 MLOAD PUSH32 0x2C5211C600000000000000000000000000000000000000000000000000000000 DUP2 MSTORE PUSH1 0x4 ADD PUSH1 0x40 MLOAD DUP1 SWAP2 SUB SWAP1 REVERT JUMPDEST PUSH0 PUSH1 0xB PUSH1 0x1 SWAP1 SLOAD SWAP1 PUSH2 0x100 EXP SWAP1 DIV PUSH20 0xFFFFFFFFFFFFFFFFFFFFFFFFFFFFFFFFFFFFFFFF AND PUSH20 0xFFFFFFFFFFFFFFFFFFFFFFFFFFFFFFFFFFFFFFFF AND PUSH4 0x70A08231 ADDRESS PUSH1 0x40 MLOAD DUP3 PUSH4 0xFFFFFFFF AND PUSH1 0xE0 SHL DUP2 MSTORE PUSH1 0x4 ADD PUSH2 0xCCD SWAP2 SWAP1 PUSH2 0x1F9A JUMP JUMPDEST PUSH1 0x20 PUSH1 0x40 MLOAD DUP1 DUP4 SUB DUP2 DUP7 GAS STATICCALL ISZERO DUP1 ISZERO PUSH2 0xCE8 JUMPI RETURNDATASIZE PUSH0 DUP1 RETURNDATACOPY RETURNDATASIZE PUSH0 REVERT JUMPDEST POP POP POP POP PUSH1 0x40 MLOAD RETURNDATASIZE PUSH1 0x1F NOT PUSH1 0x1F DUP3 ADD AND DUP3 ADD DUP1 PUSH1 0x40 MSTORE POP DUP2 ADD SWAP1 PUSH2 0xD0C SWAP2 SWAP1 PUSH2 0x2101 JUMP JUMPDEST SWAP1 POP PUSH0 PUSH1 0xC PUSH0 SWAP1 SLOAD SWAP1 PUSH2 0x100 EXP SWAP1 DIV PUSH20 0xFFFFFFFFFFFFFFFFFFFFFFFFFFFFFFFFFFFFFFFF AND PUSH20 0xFFFFFFFFFFFFFFFFFFFFFFFFFFFFFFFFFFFFFFFF AND PUSH4 0x70A08231 ADDRESS PUSH1 0x40 MLOAD DUP3 PUSH4 0xFFFFFFFF AND PUSH1 0xE0 SHL DUP2 MSTORE PUSH1 0x4 ADD PUSH2 0xD69 SWAP2 SWAP1 PUSH2 0x1F9A JUMP JUMPDEST PUSH1 0x20 PUSH1 0x40 MLOAD DUP1 DUP4 SUB DUP2 DUP7 GAS STATICCALL ISZERO DUP1 ISZERO PUSH2 0xD84 JUMPI RETURNDATASIZE PUSH0 DUP1 RETURNDATACOPY RETURNDATASIZE PUSH0 REVERT JUMPDEST POP POP POP POP PUSH1 0x40 MLOAD RETURNDATASIZE PUSH1 0x1F NOT PUSH1 0x1F DUP3 ADD AND DUP3 ADD DUP1 PUSH1 0x40 MSTORE POP DUP2 ADD SWAP1 PUSH2 0xDA8 SWAP2 SWAP1 PUSH2 0x2101 JUMP JUMPDEST SWAP1 POP PUSH0 DUP3 DUP8 GT ISZERO PUSH2 0xDB9 JUMPI DUP3 PUSH2 0xDBB JUMP JUMPDEST DUP7 JUMPDEST SWAP1 POP PUSH2 0xDC7 DUP9 DUP9 PUSH2 0x1A2C JUMP JUMPDEST DUP7 DUP2 LT ISZERO PUSH2 0xEDC JUMPI PUSH0 DUP2 DUP9 PUSH2 0xDDC SWAP2 SWAP1 PUSH2 0x2159 JUMP JUMPDEST SWAP1 POP PUSH0 PUSH8 0xDE0B6B3A7640000 PUSH1 0xA SLOAD DUP4 PUSH2 0xDF6 SWAP2 SWAP1 PUSH2 0x218C JUMP JUMPDEST PUSH2 0xE00 SWAP2 SWAP1 PUSH2 0x21FA JUMP JUMPDEST SWAP1 POP DUP1 DUP5 LT ISZERO PUSH2 0xE3C JUMPI PUSH1 0x40 MLOAD PUSH32 0xF4D678B800000000000000000000000000000000000000000000000000000000 DUP2 MSTORE PUSH1 0x4 ADD PUSH1 0x40 MLOAD DUP1 SWAP2 SUB SWAP1 REVERT JUMPDEST PUSH1 0xC PUSH0 SWAP1 SLOAD SWAP1 PUSH2 0x100 EXP SWAP1 DIV PUSH20 0xFFFFFFFFFFFFFFFFFFFFFFFFFFFFFFFFFFFFFFFF AND PUSH20 0xFFFFFFFFFFFFFFFFFFFFFFFFFFFFFFFFFFFFFFFF AND PUSH4 0xA9059CBB DUP12 DUP4 PUSH1 0x40 MLOAD DUP4 PUSH4 0xFFFFFFFF AND PUSH1 0xE0 SHL DUP2 MSTORE PUSH1 0x4 ADD PUSH2 0xE98 SWAP3 SWAP2 SWAP1 PUSH2 0x222A JUMP JUMPDEST PUSH1 0x20 PUSH1 0x40 MLOAD DUP1 DUP4 SUB DUP2 PUSH0 DUP8 GAS CALL ISZERO DUP1 ISZERO PUSH2 0xEB4 JUMPI RETURNDATASIZE PUSH0 DUP1 RETURNDATACOPY RETURNDATASIZE PUSH0 REVERT JUMPDEST POP POP POP POP PUSH1 0x40 MLOAD RETURNDATASIZE PUSH1 0x1F NOT PUSH1 0x1F DUP3 ADD AND DUP3 ADD DUP1 PUSH1 0x40 MSTORE POP DUP2 ADD SWAP1 PUSH2 0xED8 SWAP2 SWAP1 PUSH2 0x227B JUMP JUMPDEST POP POP POP JUMPDEST PUSH0 DUP2 GT ISZERO PUSH2 0xF83 JUMPI PUSH1 0xB PUSH1 0x1 SWAP1 SLOAD SWAP1 PUSH2 0x100 EXP SWAP1 DIV PUSH20 0xFFFFFFFFFFFFFFFFFFFFFFFFFFFFFFFFFFFFFFFF AND PUSH20 0xFFFFFFFFFFFFFFFFFFFFFFFFFFFFFFFFFFFFFFFF AND PUSH4 0xA9059CBB DUP10 DUP4 PUSH1 0x40 MLOAD DUP4 PUSH4 0xFFFFFFFF AND PUSH1 0xE0 SHL DUP2 MSTORE PUSH1 0x4 ADD PUSH2 0xF41 SWAP3 SWAP2 SWAP1 PUSH2 0x222A JUMP JUMPDEST PUSH1 0x20 PUSH1 0x40 MLOAD DUP1 DUP4 SUB DUP2 PUSH0 DUP8 GAS CALL ISZERO DUP1 ISZERO PUSH2 0xF5D JUMPI RETURNDATASIZE PUSH0 DUP1 RETURNDATACOPY RETURNDATASIZE PUSH0 REVERT JUMPDEST POP POP POP POP PUSH1 0x40 MLOAD RETURNDATASIZE PUSH1 0x1F NOT PUSH1 0x1F DUP3 ADD AND DUP3 ADD DUP1 PUSH1 0x40 MSTORE POP DUP2 ADD SWAP1 PUSH2 0xF81 SWAP2 SWAP1 PUSH2 0x227B JUMP JUMPDEST POP JUMPDEST POP POP POP POP POP POP PUSH2 0xF91 PUSH2 0x1AAB JUMP JUMPDEST POP POP JUMP JUMPDEST PUSH0 PUSH2 0xFA0 DUP5 DUP5 PUSH2 0xA21 JUMP JUMPDEST SWAP1 POP PUSH32 0xFFFFFFFFFFFFFFFFFFFFFFFFFFFFFFFFFFFFFFFFFFFFFFFFFFFFFFFFFFFFFFFF DUP2 EQ PUSH2 0x1021 JUMPI DUP2 DUP2 LT ISZERO PUSH2 0x1012 JUMPI DUP3 DUP2 DUP4 PUSH1 0x40 MLOAD PUSH32 0xFB8F41B200000000000000000000000000000000000000000000000000000000 DUP2 MSTORE PUSH1 0x4 ADD PUSH2 0x1009 SWAP4 SWAP3 SWAP2 SWAP1 PUSH2 0x22A6 JUMP JUMPDEST PUSH1 0x40 MLOAD DUP1 SWAP2 SUB SWAP1 REVERT JUMPDEST PUSH2 0x1020 DUP5 DUP5 DUP5 DUP5 SUB PUSH0 PUSH2 0x1817 JUMP JUMPDEST JUMPDEST POP POP POP POP JUMP JUMPDEST PUSH0 PUSH20 0xFFFFFFFFFFFFFFFFFFFFFFFFFFFFFFFFFFFFFFFF AND DUP4 PUSH20 0xFFFFFFFFFFFFFFFFFFFFFFFFFFFFFFFFFFFFFFFF AND SUB PUSH2 0x1097 JUMPI PUSH0 PUSH1 0x40 MLOAD PUSH32 0x96C6FD1E00000000000000000000000000000000000000000000000000000000 DUP2 MSTORE PUSH1 0x4 ADD PUSH2 0x108E SWAP2 SWAP1 PUSH2 0x1F9A JUMP JUMPDEST PUSH1 0x40 MLOAD DUP1 SWAP2 SUB SWAP1 REVERT JUMPDEST PUSH0 PUSH20 0xFFFFFFFFFFFFFFFFFFFFFFFFFFFFFFFFFFFFFFFF AND DUP3 PUSH20 0xFFFFFFFFFFFFFFFFFFFFFFFFFFFFFFFFFFFFFFFF AND SUB PUSH2 0x1107 JUMPI PUSH0 PUSH1 0x40 MLOAD PUSH32 0xEC442F0500000000000000000000000000000000000000000000000000000000 DUP2 MSTORE PUSH1 0x4 ADD PUSH2 0x10FE SWAP2 SWAP1 PUSH2 0x1F9A JUMP JUMPDEST PUSH1 0x40 MLOAD DUP1 SWAP2 SUB SWAP1 REVERT JUMPDEST PUSH2 0x1112 DUP4 DUP4 DUP4 PUSH2 0x1AB5 JUMP JUMPDEST POP POP POP JUMP JUMPDEST PUSH2 0x111F PUSH2 0xBD0 JUMP JUMPDEST PUSH20 0xFFFFFFFFFFFFFFFFFFFFFFFFFFFFFFFFFFFFFFFF AND PUSH2 0x113D PUSH2 0x89F JUMP JUMPDEST PUSH20 0xFFFFFFFFFFFFFFFFFFFFFFFFFFFFFFFFFFFFFFFF AND EQ PUSH2 0x119C JUMPI PUSH2 0x1160 PUSH2 0xBD0 JUMP JUMPDEST PUSH1 0x40 MLOAD PUSH32 0x118CDAA700000000000000000000000000000000000000000000000000000000 DUP2 MSTORE PUSH1 0x4 ADD PUSH2 0x1193 SWAP2 SWAP1 PUSH2 0x1F9A JUMP JUMPDEST PUSH1 0x40 MLOAD DUP1 SWAP2 SUB SWAP1 REVERT JUMPDEST JUMP JUMPDEST PUSH2 0x11A6 PUSH2 0x19E6 JUMP JUMPDEST DUP2 DUP2 DUP1 PUSH1 0xB PUSH1 0x1 SWAP1 SLOAD SWAP1 PUSH2 0x100 EXP SWAP1 DIV PUSH20 0xFFFFFFFFFFFFFFFFFFFFFFFFFFFFFFFFFFFFFFFF AND PUSH20 0xFFFFFFFFFFFFFFFFFFFFFFFFFFFFFFFFFFFFFFFF AND PUSH4 0x70A08231 DUP5 PUSH1 0x40 MLOAD DUP3 PUSH4 0xFFFFFFFF AND PUSH1 0xE0 SHL DUP2 MSTORE PUSH1 0x4 ADD PUSH2 0x1204 SWAP2 SWAP1 PUSH2 0x1F9A JUMP JUMPDEST PUSH1 0x20 PUSH1 0x40 MLOAD DUP1 DUP4 SUB DUP2 DUP7 GAS STATICCALL ISZERO DUP1 ISZERO PUSH2 0x121F JUMPI RETURNDATASIZE PUSH0 DUP1 RETURNDATACOPY RETURNDATASIZE PUSH0 REVERT JUMPDEST POP POP POP POP PUSH1 0x40 MLOAD RETURNDATASIZE PUSH1 0x1F NOT PUSH1 0x1F DUP3 ADD AND DUP3 ADD DUP1 PUSH1 0x40 MSTORE POP DUP2 ADD SWAP1 PUSH2 0x1243 SWAP2 SWAP1 PUSH2 0x2101 JUMP JUMPDEST LT ISZERO PUSH2 0x127B JUMPI PUSH1 0x40 MLOAD PUSH32 0xF4D678B800000000000000000000000000000000000000000000000000000000 DUP2 MSTORE PUSH1 0x4 ADD PUSH1 0x40 MLOAD DUP1 SWAP2 SUB SWAP1 REVERT JUMPDEST DUP3 PUSH1 0x1 DUP2 LT ISZERO PUSH2 0x12B7 JUMPI PUSH1 0x40 MLOAD PUSH32 0x2C5211C600000000000000000000000000000000000000000000000000000000 DUP2 MSTORE PUSH1 0x4 ADD PUSH1 0x40 MLOAD DUP1 SWAP2 SUB SWAP1 REVERT JUMPDEST PUSH2 0x12C1 DUP6 DUP6 PUSH2 0x1CCE JUMP JUMPDEST PUSH1 0xB PUSH1 0x1 SWAP1 SLOAD SWAP1 PUSH2 0x100 EXP SWAP1 DIV PUSH20 0xFFFFFFFFFFFFFFFFFFFFFFFFFFFFFFFFFFFFFFFF AND PUSH20 0xFFFFFFFFFFFFFFFFFFFFFFFFFFFFFFFFFFFFFFFF AND PUSH4 0x23B872DD DUP7 ADDRESS DUP8 PUSH1 0x40 MLOAD DUP5 PUSH4 0xFFFFFFFF AND PUSH1 0xE0 SHL DUP2 MSTORE PUSH1 0x4 ADD PUSH2 0x1320 SWAP4 SWAP3 SWAP2 SWAP1 PUSH2 0x22DB JUMP JUMPDEST PUSH1 0x20 PUSH1 0x40 MLOAD DUP1 DUP4 SUB DUP2 PUSH0 DUP8 GAS CALL ISZERO DUP1 ISZERO PUSH2 0x133C JUMPI RETURNDATASIZE PUSH0 DUP1 RETURNDATACOPY RETURNDATASIZE PUSH0 REVERT JUMPDEST POP POP POP POP PUSH1 0x40 MLOAD RETURNDATASIZE PUSH1 0x1F NOT PUSH1 0x1F DUP3 ADD AND DUP3 ADD DUP1 PUSH1 0x40 MSTORE POP DUP2 ADD SWAP1 PUSH2 0x1360 SWAP2 SWAP1 PUSH2 0x227B JUMP JUMPDEST POP POP POP POP PUSH2 0x136C PUSH2 0x1AAB JUMP JUMPDEST POP POP JUMP JUMPDEST PUSH0 PUSH1 0x5 PUSH0 SWAP1 SLOAD SWAP1 PUSH2 0x100 EXP SWAP1 DIV PUSH20 0xFFFFFFFFFFFFFFFFFFFFFFFFFFFFFFFFFFFFFFFF AND SWAP1 POP DUP2 PUSH1 0x5 PUSH0 PUSH2 0x100 EXP DUP2 SLOAD DUP2 PUSH20 0xFFFFFFFFFFFFFFFFFFFFFFFFFFFFFFFFFFFFFFFF MUL NOT AND SWAP1 DUP4 PUSH20 0xFFFFFFFFFFFFFFFFFFFFFFFFFFFFFFFFFFFFFFFF AND MUL OR SWAP1 SSTORE POP DUP2 PUSH20 0xFFFFFFFFFFFFFFFFFFFFFFFFFFFFFFFFFFFFFFFF AND DUP2 PUSH20 0xFFFFFFFFFFFFFFFFFFFFFFFFFFFFFFFFFFFFFFFF AND PUSH32 0x8BE0079C531659141344CD1FD0A4F28419497F9722A3DAAFE3B4186F6B6457E0 PUSH1 0x40 MLOAD PUSH1 0x40 MLOAD DUP1 SWAP2 SUB SWAP1 LOG3 POP POP JUMP JUMPDEST PUSH2 0x143B PUSH2 0x19E6 JUMP JUMPDEST DUP2 DUP2 DUP1 PUSH2 0x1447 DUP4 PUSH2 0x7B7 JUMP JUMPDEST LT ISZERO PUSH2 0x147F JUMPI PUSH1 0x40 MLOAD PUSH32 0xF4D678B800000000000000000000000000000000000000000000000000000000 DUP2 MSTORE PUSH1 0x4 ADD PUSH1 0x40 MLOAD DUP1 SWAP2 SUB SWAP1 REVERT JUMPDEST DUP3 PUSH1 0x1 DUP2 LT ISZERO PUSH2 0x14BB JUMPI PUSH1 0x40 MLOAD PUSH32 0x2C5211C600000000000000000000000000000000000000000000000000000000 DUP2 MSTORE PUSH1 0x4 ADD PUSH1 0x40 MLOAD DUP1 SWAP2 SUB SWAP1 REVERT JUMPDEST DUP4 PUSH1 0xC PUSH0 SWAP1 SLOAD SWAP1 PUSH2 0x100 EXP SWAP1 DIV PUSH20 0xFFFFFFFFFFFFFFFFFFFFFFFFFFFFFFFFFFFFFFFF AND PUSH20 0xFFFFFFFFFFFFFFFFFFFFFFFFFFFFFFFFFFFFFFFF AND PUSH4 0x70A08231 ADDRESS PUSH1 0x40 MLOAD DUP3 PUSH4 0xFFFFFFFF AND PUSH1 0xE0 SHL DUP2 MSTORE PUSH1 0x4 ADD PUSH2 0x1516 SWAP2 SWAP1 PUSH2 0x1F9A JUMP JUMPDEST PUSH1 0x20 PUSH1 0x40 MLOAD DUP1 DUP4 SUB DUP2 DUP7 GAS STATICCALL ISZERO DUP1 ISZERO PUSH2 0x1531 JUMPI RETURNDATASIZE PUSH0 DUP1 RETURNDATACOPY RETURNDATASIZE PUSH0 REVERT JUMPDEST POP POP POP POP PUSH1 0x40 MLOAD RETURNDATASIZE PUSH1 0x1F NOT PUSH1 0x1F DUP3 ADD AND DUP3 ADD DUP1 PUSH1 0x40 MSTORE POP DUP2 ADD SWAP1 PUSH2 0x1555 SWAP2 SWAP1 PUSH2 0x2101 JUMP JUMPDEST LT ISZERO PUSH2 0x158D JUMPI PUSH1 0x40 MLOAD PUSH32 0xF4D678B800000000000000000000000000000000000000000000000000000000 DUP2 MSTORE PUSH1 0x4 ADD PUSH1 0x40 MLOAD DUP1 SWAP2 SUB SWAP1 REVERT JUMPDEST PUSH2 0x1597 DUP6 DUP6 PUSH2 0x1A2C JUMP JUMPDEST PUSH1 0xC PUSH0 SWAP1 SLOAD SWAP1 PUSH2 0x100 EXP SWAP1 DIV PUSH20 0xFFFFFFFFFFFFFFFFFFFFFFFFFFFFFFFFFFFFFFFF AND PUSH20 0xFFFFFFFFFFFFFFFFFFFFFFFFFFFFFFFFFFFFFFFF AND PUSH4 0xA9059CBB DUP7 PUSH8 0xDE0B6B3A7640000 PUSH1 0xA SLOAD DUP9 PUSH2 0x15EC SWAP2 SWAP1 PUSH2 0x218C JUMP JUMPDEST PUSH2 0x15F6 SWAP2 SWAP1 PUSH2 0x21FA JUMP JUMPDEST PUSH1 0x40 MLOAD DUP4 PUSH4 0xFFFFFFFF AND PUSH1 0xE0 SHL DUP2 MSTORE PUSH1 0x4 ADD PUSH2 0x1613 SWAP3 SWAP2 SWAP1 PUSH2 0x222A JUMP JUMPDEST PUSH1 0x20 PUSH1 0x40 MLOAD DUP1 DUP4 SUB DUP2 PUSH0 DUP8 GAS CALL ISZERO DUP1 ISZERO PUSH2 0x162F JUMPI RETURNDATASIZE PUSH0 DUP1 RETURNDATACOPY RETURNDATASIZE PUSH0 REVERT JUMPDEST POP POP POP POP PUSH1 0x40 MLOAD RETURNDATASIZE PUSH1 0x1F NOT PUSH1 0x1F DUP3 ADD AND DUP3 ADD DUP1 PUSH1 0x40 MSTORE POP DUP2 ADD SWAP1 PUSH2 0x1653 SWAP2 SWAP1 PUSH2 0x227B JUMP JUMPDEST POP POP POP POP PUSH2 0x165F PUSH2 0x1AAB JUMP JUMPDEST POP POP JUMP JUMPDEST PUSH2 0x166B PUSH2 0x19E6 JUMP JUMPDEST PUSH1 0x9 SLOAD TIMESTAMP LT PUSH2 0x16A6 JUMPI PUSH1 0x40 MLOAD PUSH32 0x790D4E300000000000000000000000000000000000000000000000000000000 DUP2 MSTORE PUSH1 0x4 ADD PUSH1 0x40 MLOAD DUP1 SWAP2 SUB SWAP1 REVERT JUMPDEST PUSH2 0x16AE PUSH2 0x1117 JUMP JUMPDEST PUSH1 0xB PUSH1 0x1 SWAP1 SLOAD SWAP1 PUSH2 0x100 EXP SWAP1 DIV PUSH20 0xFFFFFFFFFFFFFFFFFFFFFFFFFFFFFFFFFFFFFFFF AND PUSH20 0xFFFFFFFFFFFFFFFFFFFFFFFFFFFFFFFFFFFFFFFF AND PUSH4 0xA9059CBB DUP4 DUP4 PUSH1 0x40 MLOAD DUP4 PUSH4 0xFFFFFFFF AND PUSH1 0xE0 SHL DUP2 MSTORE PUSH1 0x4 ADD PUSH2 0x170B SWAP3 SWAP2 SWAP1 PUSH2 0x222A JUMP JUMPDEST PUSH1 0x20 PUSH1 0x40 MLOAD DUP1 DUP4 SUB DUP2 PUSH0 DUP8 GAS CALL ISZERO DUP1 ISZERO PUSH2 0x1727 JUMPI RETURNDATASIZE PUSH0 DUP1 RETURNDATACOPY RETURNDATASIZE PUSH0 REVERT JUMPDEST POP POP POP POP PUSH1 0x40 MLOAD RETURNDATASIZE PUSH1 0x1F NOT PUSH1 0x1F DUP3 ADD AND DUP3 ADD DUP1 PUSH1 0x40 MSTORE POP DUP2 ADD SWAP1 PUSH2 0x174B SWAP2 SWAP1 PUSH2 0x227B JUMP JUMPDEST POP PUSH1 0xC PUSH0 SWAP1 SLOAD SWAP1 PUSH2 0x100 EXP SWAP1 DIV PUSH20 0xFFFFFFFFFFFFFFFFFFFFFFFFFFFFFFFFFFFFFFFF AND PUSH20 0xFFFFFFFFFFFFFFFFFFFFFFFFFFFFFFFFFFFFFFFF AND PUSH4 0x23B872DD DUP4 ADDRESS PUSH8 0xDE0B6B3A7640000 PUSH1 0xA SLOAD DUP7 PUSH2 0x17A2 SWAP2 SWAP1 PUSH2 0x218C JUMP JUMPDEST PUSH2 0x17AC SWAP2 SWAP1 PUSH2 0x21FA JUMP JUMPDEST PUSH1 0x40 MLOAD DUP5 PUSH4 0xFFFFFFFF AND PUSH1 0xE0 SHL DUP2 MSTORE PUSH1 0x4 ADD PUSH2 0x17CA SWAP4 SWAP3 SWAP2 SWAP1 PUSH2 0x22DB JUMP JUMPDEST PUSH1 0x20 PUSH1 0x40 MLOAD DUP1 DUP4 SUB DUP2 PUSH0 DUP8 GAS CALL ISZERO DUP1 ISZERO PUSH2 0x17E6 JUMPI RETURNDATASIZE PUSH0 DUP1 RETURNDATACOPY RETURNDATASIZE PUSH0 REVERT JUMPDEST POP POP POP POP PUSH1 0x40 MLOAD RETURNDATASIZE PUSH1 0x1F NOT PUSH1 0x1F DUP3 ADD AND DUP3 ADD DUP1 PUSH1 0x40 MSTORE POP DUP2 ADD SWAP1 PUSH2 0x180A SWAP2 SWAP1 PUSH2 0x227B JUMP JUMPDEST POP PUSH2 0x1813 PUSH2 0x1AAB JUMP JUMPDEST POP POP JUMP JUMPDEST PUSH0 PUSH20 0xFFFFFFFFFFFFFFFFFFFFFFFFFFFFFFFFFFFFFFFF AND DUP5 PUSH20 0xFFFFFFFFFFFFFFFFFFFFFFFFFFFFFFFFFFFFFFFF AND SUB PUSH2 0x1887 JUMPI PUSH0 PUSH1 0x40 MLOAD PUSH32 0xE602DF0500000000000000000000000000000000000000000000000000000000 DUP2 MSTORE PUSH1 0x4 ADD PUSH2 0x187E SWAP2 SWAP1 PUSH2 0x1F9A JUMP JUMPDEST PUSH1 0x40 MLOAD DUP1 SWAP2 SUB SWAP1 REVERT JUMPDEST PUSH0 PUSH20 0xFFFFFFFFFFFFFFFFFFFFFFFFFFFFFFFFFFFFFFFF AND DUP4 PUSH20 0xFFFFFFFFFFFFFFFFFFFFFFFFFFFFFFFFFFFFFFFF AND SUB PUSH2 0x18F7 JUMPI PUSH0 PUSH1 0x40 MLOAD PUSH32 0x94280D6200000000000000000000000000000000000000000000000000000000 DUP2 MSTORE PUSH1 0x4 ADD PUSH2 0x18EE SWAP2 SWAP1 PUSH2 0x1F9A JUMP JUMPDEST PUSH1 0x40 MLOAD DUP1 SWAP2 SUB SWAP1 REVERT JUMPDEST DUP2 PUSH1 0x1 PUSH0 DUP7 PUSH20 0xFFFFFFFFFFFFFFFFFFFFFFFFFFFFFFFFFFFFFFFF AND PUSH20 0xFFFFFFFFFFFFFFFFFFFFFFFFFFFFFFFFFFFFFFFF AND DUP2 MSTORE PUSH1 0x20 ADD SWAP1 DUP2 MSTORE PUSH1 0x20 ADD PUSH0 KECCAK256 PUSH0 DUP6 PUSH20 0xFFFFFFFFFFFFFFFFFFFFFFFFFFFFFFFFFFFFFFFF AND PUSH20 0xFFFFFFFFFFFFFFFFFFFFFFFFFFFFFFFFFFFFFFFF AND DUP2 MSTORE PUSH1 0x20 ADD SWAP1 DUP2 MSTORE PUSH1 0x20 ADD PUSH0 KECCAK256 DUP2 SWAP1 SSTORE POP DUP1 ISZERO PUSH2 0x19E0 JUMPI DUP3 PUSH20 0xFFFFFFFFFFFFFFFFFFFFFFFFFFFFFFFFFFFFFFFF AND DUP5 PUSH20 0xFFFFFFFFFFFFFFFFFFFFFFFFFFFFFFFFFFFFFFFF AND PUSH32 0x8C5BE1E5EBEC7D5BD14F71427D1E84F3DD0314C0F7B2291E5B200AC8C7C3B925 DUP5 PUSH1 0x40 MLOAD PUSH2 0x19D7 SWAP2 SWAP1 PUSH2 0x1EEE JUMP JUMPDEST PUSH1 0x40 MLOAD DUP1 SWAP2 SUB SWAP1 LOG3 JUMPDEST POP POP POP POP JUMP JUMPDEST PUSH1 0x2 PUSH1 0x6 SLOAD SUB PUSH2 0x1A22 JUMPI PUSH1 0x40 MLOAD PUSH32 0x3EE5AEB500000000000000000000000000000000000000000000000000000000 DUP2 MSTORE PUSH1 0x4 ADD PUSH1 0x40 MLOAD DUP1 SWAP2 SUB SWAP1 REVERT JUMPDEST PUSH1 0x2 PUSH1 0x6 DUP2 SWAP1 SSTORE POP JUMP JUMPDEST PUSH0 PUSH20 0xFFFFFFFFFFFFFFFFFFFFFFFFFFFFFFFFFFFFFFFF AND DUP3 PUSH20 0xFFFFFFFFFFFFFFFFFFFFFFFFFFFFFFFFFFFFFFFF AND SUB PUSH2 0x1A9C JUMPI PUSH0 PUSH1 0x40 MLOAD PUSH32 0x96C6FD1E00000000000000000000000000000000000000000000000000000000 DUP2 MSTORE PUSH1 0x4 ADD PUSH2 0x1A93 SWAP2 SWAP1 PUSH2 0x1F9A JUMP JUMPDEST PUSH1 0x40 MLOAD DUP1 SWAP2 SUB SWAP1 REVERT JUMPDEST PUSH2 0x1AA7 DUP3 PUSH0 DUP4 PUSH2 0x1AB5 JUMP JUMPDEST POP POP JUMP JUMPDEST PUSH1 0x1 PUSH1 0x6 DUP2 SWAP1 SSTORE POP JUMP JUMPDEST PUSH0 PUSH20 0xFFFFFFFFFFFFFFFFFFFFFFFFFFFFFFFFFFFFFFFF AND DUP4 PUSH20 0xFFFFFFFFFFFFFFFFFFFFFFFFFFFFFFFFFFFFFFFF AND SUB PUSH2 0x1B05 JUMPI DUP1 PUSH1 0x2 PUSH0 DUP3 DUP3 SLOAD PUSH2 0x1AF9 SWAP2 SWAP1 PUSH2 0x2310 JUMP JUMPDEST SWAP3 POP POP DUP2 SWAP1 SSTORE POP PUSH2 0x1BD3 JUMP JUMPDEST PUSH0 DUP1 PUSH0 DUP6 PUSH20 0xFFFFFFFFFFFFFFFFFFFFFFFFFFFFFFFFFFFFFFFF AND PUSH20 0xFFFFFFFFFFFFFFFFFFFFFFFFFFFFFFFFFFFFFFFF AND DUP2 MSTORE PUSH1 0x20 ADD SWAP1 DUP2 MSTORE PUSH1 0x20 ADD PUSH0 KECCAK256 SLOAD SWAP1 POP DUP2 DUP2 LT ISZERO PUSH2 0x1B8E JUMPI DUP4 DUP2 DUP4 PUSH1 0x40 MLOAD PUSH32 0xE450D38C00000000000000000000000000000000000000000000000000000000 DUP2 MSTORE PUSH1 0x4 ADD PUSH2 0x1B85 SWAP4 SWAP3 SWAP2 SWAP1 PUSH2 0x22A6 JUMP JUMPDEST PUSH1 0x40 MLOAD DUP1 SWAP2 SUB SWAP1 REVERT JUMPDEST DUP2 DUP2 SUB PUSH0 DUP1 DUP7 PUSH20 0xFFFFFFFFFFFFFFFFFFFFFFFFFFFFFFFFFFFFFFFF AND PUSH20 0xFFFFFFFFFFFFFFFFFFFFFFFFFFFFFFFFFFFFFFFF AND DUP2 MSTORE PUSH1 0x20 ADD SWAP1 DUP2 MSTORE PUSH1 0x20 ADD PUSH0 KECCAK256 DUP2 SWAP1 SSTORE POP POP JUMPDEST PUSH0 PUSH20 0xFFFFFFFFFFFFFFFFFFFFFFFFFFFFFFFFFFFFFFFF AND DUP3 PUSH20 0xFFFFFFFFFFFFFFFFFFFFFFFFFFFFFFFFFFFFFFFF AND SUB PUSH2 0x1C1A JUMPI DUP1 PUSH1 0x2 PUSH0 DUP3 DUP3 SLOAD SUB SWAP3 POP POP DUP2 SWAP1 SSTORE POP PUSH2 0x1C64 JUMP JUMPDEST DUP1 PUSH0 DUP1 DUP5 PUSH20 0xFFFFFFFFFFFFFFFFFFFFFFFFFFFFFFFFFFFFFFFF AND PUSH20 0xFFFFFFFFFFFFFFFFFFFFFFFFFFFFFFFFFFFFFFFF AND DUP2 MSTORE PUSH1 0x20 ADD SWAP1 DUP2 MSTORE PUSH1 0x20 ADD PUSH0 KECCAK256 PUSH0 DUP3 DUP3 SLOAD ADD SWAP3 POP POP DUP2 SWAP1 SSTORE POP JUMPDEST DUP2 PUSH20 0xFFFFFFFFFFFFFFFFFFFFFFFFFFFFFFFFFFFFFFFF AND DUP4 PUSH20 0xFFFFFFFFFFFFFFFFFFFFFFFFFFFFFFFFFFFFFFFF AND PUSH32 0xDDF252AD1BE2C89B69C2B068FC378DAA952BA7F163C4A11628F55A4DF523B3EF DUP4 PUSH1 0x40 MLOAD PUSH2 0x1CC1 SWAP2 SWAP1 PUSH2 0x1EEE JUMP JUMPDEST PUSH1 0x40 MLOAD DUP1 SWAP2 SUB SWAP1 LOG3 POP POP POP JUMP JUMPDEST PUSH0 PUSH20 0xFFFFFFFFFFFFFFFFFFFFFFFFFFFFFFFFFFFFFFFF AND DUP3 PUSH20 0xFFFFFFFFFFFFFFFFFFFFFFFFFFFFFFFFFFFFFFFF AND SUB PUSH2 0x1D3E JUMPI PUSH0 PUSH1 0x40 MLOAD PUSH32 0xEC442F0500000000000000000000000000000000000000000000000000000000 DUP2 MSTORE PUSH1 0x4 ADD PUSH2 0x1D35 SWAP2 SWAP1 PUSH2 0x1F9A JUMP JUMPDEST PUSH1 0x40 MLOAD DUP1 SWAP2 SUB SWAP1 REVERT JUMPDEST PUSH2 0x1D49 PUSH0 DUP4 DUP4 PUSH2 0x1AB5 JUMP JUMPDEST POP POP JUMP JUMPDEST PUSH0 DUP2 MLOAD SWAP1 POP SWAP2 SWAP1 POP JUMP JUMPDEST PUSH0 DUP3 DUP3 MSTORE PUSH1 0x20 DUP3 ADD SWAP1 POP SWAP3 SWAP2 POP POP JUMP JUMPDEST DUP3 DUP2 DUP4 MCOPY PUSH0 DUP4 DUP4 ADD MSTORE POP POP POP JUMP JUMPDEST PUSH0 PUSH1 0x1F NOT PUSH1 0x1F DUP4 ADD AND SWAP1 POP SWAP2 SWAP1 POP JUMP JUMPDEST PUSH0 PUSH2 0x1D8F DUP3 PUSH2 0x1D4D JUMP JUMPDEST PUSH2 0x1D99 DUP2 DUP6 PUSH2 0x1D57 JUMP JUMPDEST SWAP4 POP PUSH2 0x1DA9 DUP2 DUP6 PUSH1 0x20 DUP7 ADD PUSH2 0x1D67 JUMP JUMPDEST PUSH2 0x1DB2 DUP2 PUSH2 0x1D75 JUMP JUMPDEST DUP5 ADD SWAP2 POP POP SWAP3 SWAP2 POP POP JUMP JUMPDEST PUSH0 PUSH1 0x20 DUP3 ADD SWAP1 POP DUP2 DUP2 SUB PUSH0 DUP4 ADD MSTORE PUSH2 0x1DD5 DUP2 DUP5 PUSH2 0x1D85 JUMP JUMPDEST SWAP1 POP SWAP3 SWAP2 POP POP JUMP JUMPDEST PUSH0 DUP1 REVERT JUMPDEST PUSH0 PUSH20 0xFFFFFFFFFFFFFFFFFFFFFFFFFFFFFFFFFFFFFFFF DUP3 AND SWAP1 POP SWAP2 SWAP1 POP JUMP JUMPDEST PUSH0 PUSH2 0x1E0A DUP3 PUSH2 0x1DE1 JUMP JUMPDEST SWAP1 POP SWAP2 SWAP1 POP JUMP JUMPDEST PUSH2 0x1E1A DUP2 PUSH2 0x1E00 JUMP JUMPDEST DUP2 EQ PUSH2 0x1E24 JUMPI PUSH0 DUP1 REVERT JUMPDEST POP JUMP JUMPDEST PUSH0 DUP2 CALLDATALOAD SWAP1 POP PUSH2 0x1E35 DUP2 PUSH2 0x1E11 JUMP JUMPDEST SWAP3 SWAP2 POP POP JUMP JUMPDEST PUSH0 DUP2 SWAP1 POP SWAP2 SWAP1 POP JUMP JUMPDEST PUSH2 0x1E4D DUP2 PUSH2 0x1E3B JUMP JUMPDEST DUP2 EQ PUSH2 0x1E57 JUMPI PUSH0 DUP1 REVERT JUMPDEST POP JUMP JUMPDEST PUSH0 DUP2 CALLDATALOAD SWAP1 POP PUSH2 0x1E68 DUP2 PUSH2 0x1E44 JUMP JUMPDEST SWAP3 SWAP2 POP POP JUMP JUMPDEST PUSH0 DUP1 PUSH1 0x40 DUP4 DUP6 SUB SLT ISZERO PUSH2 0x1E84 JUMPI PUSH2 0x1E83 PUSH2 0x1DDD JUMP JUMPDEST JUMPDEST PUSH0 PUSH2 0x1E91 DUP6 DUP3 DUP7 ADD PUSH2 0x1E27 JUMP JUMPDEST SWAP3 POP POP PUSH1 0x20 PUSH2 0x1EA2 DUP6 DUP3 DUP7 ADD PUSH2 0x1E5A JUMP JUMPDEST SWAP2 POP POP SWAP3 POP SWAP3 SWAP1 POP JUMP JUMPDEST PUSH0 DUP2 ISZERO ISZERO SWAP1 POP SWAP2 SWAP1 POP JUMP JUMPDEST PUSH2 0x1EC0 DUP2 PUSH2 0x1EAC JUMP JUMPDEST DUP3 MSTORE POP POP JUMP JUMPDEST PUSH0 PUSH1 0x20 DUP3 ADD SWAP1 POP PUSH2 0x1ED9 PUSH0 DUP4 ADD DUP5 PUSH2 0x1EB7 JUMP JUMPDEST SWAP3 SWAP2 POP POP JUMP JUMPDEST PUSH2 0x1EE8 DUP2 PUSH2 0x1E3B JUMP JUMPDEST DUP3 MSTORE POP POP JUMP JUMPDEST PUSH0 PUSH1 0x20 DUP3 ADD SWAP1 POP PUSH2 0x1F01 PUSH0 DUP4 ADD DUP5 PUSH2 0x1EDF JUMP JUMPDEST SWAP3 SWAP2 POP POP JUMP JUMPDEST PUSH0 DUP1 PUSH0 PUSH1 0x60 DUP5 DUP7 SUB SLT ISZERO PUSH2 0x1F1E JUMPI PUSH2 0x1F1D PUSH2 0x1DDD JUMP JUMPDEST JUMPDEST PUSH0 PUSH2 0x1F2B DUP7 DUP3 DUP8 ADD PUSH2 0x1E27 JUMP JUMPDEST SWAP4 POP POP PUSH1 0x20 PUSH2 0x1F3C DUP7 DUP3 DUP8 ADD PUSH2 0x1E27 JUMP JUMPDEST SWAP3 POP POP PUSH1 0x40 PUSH2 0x1F4D DUP7 DUP3 DUP8 ADD PUSH2 0x1E5A JUMP JUMPDEST SWAP2 POP POP SWAP3 POP SWAP3 POP SWAP3 JUMP JUMPDEST PUSH0 PUSH1 0xFF DUP3 AND SWAP1 POP SWAP2 SWAP1 POP JUMP JUMPDEST PUSH2 0x1F6C DUP2 PUSH2 0x1F57 JUMP JUMPDEST DUP3 MSTORE POP POP JUMP JUMPDEST PUSH0 PUSH1 0x20 DUP3 ADD SWAP1 POP PUSH2 0x1F85 PUSH0 DUP4 ADD DUP5 PUSH2 0x1F63 JUMP JUMPDEST SWAP3 SWAP2 POP POP JUMP JUMPDEST PUSH2 0x1F94 DUP2 PUSH2 0x1E00 JUMP JUMPDEST DUP3 MSTORE POP POP JUMP JUMPDEST PUSH0 PUSH1 0x20 DUP3 ADD SWAP1 POP PUSH2 0x1FAD PUSH0 DUP4 ADD DUP5 PUSH2 0x1F8B JUMP JUMPDEST SWAP3 SWAP2 POP POP JUMP JUMPDEST PUSH0 DUP2 SWAP1 POP SWAP2 SWAP1 POP JUMP JUMPDEST PUSH0 PUSH2 0x1FD6 PUSH2 0x1FD1 PUSH2 0x1FCC DUP5 PUSH2 0x1DE1 JUMP JUMPDEST PUSH2 0x1FB3 JUMP JUMPDEST PUSH2 0x1DE1 JUMP JUMPDEST SWAP1 POP SWAP2 SWAP1 POP JUMP JUMPDEST PUSH0 PUSH2 0x1FE7 DUP3 PUSH2 0x1FBC JUMP JUMPDEST SWAP1 POP SWAP2 SWAP1 POP JUMP JUMPDEST PUSH0 PUSH2 0x1FF8 DUP3 PUSH2 0x1FDD JUMP JUMPDEST SWAP1 POP SWAP2 SWAP1 POP JUMP JUMPDEST PUSH2 0x2008 DUP2 PUSH2 0x1FEE JUMP JUMPDEST DUP3 MSTORE POP POP JUMP JUMPDEST PUSH0 PUSH1 0x20 DUP3 ADD SWAP1 POP PUSH2 0x2021 PUSH0 DUP4 ADD DUP5 PUSH2 0x1FFF JUMP JUMPDEST SWAP3 SWAP2 POP POP JUMP JUMPDEST PUSH0 PUSH1 0x20 DUP3 DUP5 SUB SLT ISZERO PUSH2 0x203C JUMPI PUSH2 0x203B PUSH2 0x1DDD JUMP JUMPDEST JUMPDEST PUSH0 PUSH2 0x2049 DUP5 DUP3 DUP6 ADD PUSH2 0x1E27 JUMP JUMPDEST SWAP2 POP POP SWAP3 SWAP2 POP POP JUMP JUMPDEST PUSH0 DUP1 PUSH1 0x40 DUP4 DUP6 SUB SLT ISZERO PUSH2 0x2068 JUMPI PUSH2 0x2067 PUSH2 0x1DDD JUMP JUMPDEST JUMPDEST PUSH0 PUSH2 0x2075 DUP6 DUP3 DUP7 ADD PUSH2 0x1E27 JUMP JUMPDEST SWAP3 POP POP PUSH1 0x20 PUSH2 0x2086 DUP6 DUP3 DUP7 ADD PUSH2 0x1E27 JUMP JUMPDEST SWAP2 POP POP SWAP3 POP SWAP3 SWAP1 POP JUMP JUMPDEST PUSH32 0x4E487B7100000000000000000000000000000000000000000000000000000000 PUSH0 MSTORE PUSH1 0x22 PUSH1 0x4 MSTORE PUSH1 0x24 PUSH0 REVERT JUMPDEST PUSH0 PUSH1 0x2 DUP3 DIV SWAP1 POP PUSH1 0x1 DUP3 AND DUP1 PUSH2 0x20D4 JUMPI PUSH1 0x7F DUP3 AND SWAP2 POP JUMPDEST PUSH1 0x20 DUP3 LT DUP2 SUB PUSH2 0x20E7 JUMPI PUSH2 0x20E6 PUSH2 0x2090 JUMP JUMPDEST JUMPDEST POP SWAP2 SWAP1 POP JUMP JUMPDEST PUSH0 DUP2 MLOAD SWAP1 POP PUSH2 0x20FB DUP2 PUSH2 0x1E44 JUMP JUMPDEST SWAP3 SWAP2 POP POP JUMP JUMPDEST PUSH0 PUSH1 0x20 DUP3 DUP5 SUB SLT ISZERO PUSH2 0x2116 JUMPI PUSH2 0x2115 PUSH2 0x1DDD JUMP JUMPDEST JUMPDEST PUSH0 PUSH2 0x2123 DUP5 DUP3 DUP6 ADD PUSH2 0x20ED JUMP JUMPDEST SWAP2 POP POP SWAP3 SWAP2 POP POP JUMP JUMPDEST PUSH32 0x4E487B7100000000000000000000000000000000000000000000000000000000 PUSH0 MSTORE PUSH1 0x11 PUSH1 0x4 MSTORE PUSH1 0x24 PUSH0 REVERT JUMPDEST PUSH0 PUSH2 0x2163 DUP3 PUSH2 0x1E3B JUMP JUMPDEST SWAP2 POP PUSH2 0x216E DUP4 PUSH2 0x1E3B JUMP JUMPDEST SWAP3 POP DUP3 DUP3 SUB SWAP1 POP DUP2 DUP2 GT ISZERO PUSH2 0x2186 JUMPI PUSH2 0x2185 PUSH2 0x212C JUMP JUMPDEST JUMPDEST SWAP3 SWAP2 POP POP JUMP JUMPDEST PUSH0 PUSH2 0x2196 DUP3 PUSH2 0x1E3B JUMP JUMPDEST SWAP2 POP PUSH2 0x21A1 DUP4 PUSH2 0x1E3B JUMP JUMPDEST SWAP3 POP DUP3 DUP3 MUL PUSH2 0x21AF DUP2 PUSH2 0x1E3B JUMP JUMPDEST SWAP2 POP DUP3 DUP3 DIV DUP5 EQ DUP4 ISZERO OR PUSH2 0x21C6 JUMPI PUSH2 0x21C5 PUSH2 0x212C JUMP JUMPDEST JUMPDEST POP SWAP3 SWAP2 POP POP JUMP JUMPDEST PUSH32 0x4E487B7100000000000000000000000000000000000000000000000000000000 PUSH0 MSTORE PUSH1 0x12 PUSH1 0x4 MSTORE PUSH1 0x24 PUSH0 REVERT JUMPDEST PUSH0 PUSH2 0x2204 DUP3 PUSH2 0x1E3B JUMP JUMPDEST SWAP2 POP PUSH2 0x220F DUP4 PUSH2 0x1E3B JUMP JUMPDEST SWAP3 POP DUP3 PUSH2 0x221F JUMPI PUSH2 0x221E PUSH2 0x21CD JUMP JUMPDEST JUMPDEST DUP3 DUP3 DIV SWAP1 POP SWAP3 SWAP2 POP POP JUMP JUMPDEST PUSH0 PUSH1 0x40 DUP3 ADD SWAP1 POP PUSH2 0x223D PUSH0 DUP4 ADD DUP6 PUSH2 0x1F8B JUMP JUMPDEST PUSH2 0x224A PUSH1 0x20 DUP4 ADD DUP5 PUSH2 0x1EDF JUMP JUMPDEST SWAP4 SWAP3 POP POP POP JUMP JUMPDEST PUSH2 0x225A DUP2 PUSH2 0x1EAC JUMP JUMPDEST DUP2 EQ PUSH2 0x2264 JUMPI PUSH0 DUP1 REVERT JUMPDEST POP JUMP JUMPDEST PUSH0 DUP2 MLOAD SWAP1 POP PUSH2 0x2275 DUP2 PUSH2 0x2251 JUMP JUMPDEST SWAP3 SWAP2 POP POP JUMP JUMPDEST PUSH0 PUSH1 0x20 DUP3 DUP5 SUB SLT ISZERO PUSH2 0x2290 JUMPI PUSH2 0x228F PUSH2 0x1DDD JUMP JUMPDEST JUMPDEST PUSH0 PUSH2 0x229D DUP5 DUP3 DUP6 ADD PUSH2 0x2267 JUMP JUMPDEST SWAP2 POP POP SWAP3 SWAP2 POP POP JUMP JUMPDEST PUSH0 PUSH1 0x60 DUP3 ADD SWAP1 POP PUSH2 0x22B9 PUSH0 DUP4 ADD DUP7 PUSH2 0x1F8B JUMP JUMPDEST PUSH2 0x22C6 PUSH1 0x20 DUP4 ADD DUP6 PUSH2 0x1EDF JUMP JUMPDEST PUSH2 0x22D3 PUSH1 0x40 DUP4 ADD DUP5 PUSH2 0x1EDF JUMP JUMPDEST SWAP5 SWAP4 POP POP POP POP JUMP JUMPDEST PUSH0 PUSH1 0x60 DUP3 ADD SWAP1 POP PUSH2 0x22EE PUSH0 DUP4 ADD DUP7 PUSH2 0x1F8B JUMP JUMPDEST PUSH2 0x22FB PUSH1 0x20 DUP4 ADD DUP6 PUSH2 0x1F8B JUMP JUMPDEST PUSH2 0x2308 PUSH1 0x40 DUP4 ADD DUP5 PUSH2 0x1EDF JUMP JUMPDEST SWAP5 SWAP4 POP POP POP POP JUMP JUMPDEST PUSH0 PUSH2 0x231A DUP3 PUSH2 0x1E3B JUMP JUMPDEST SWAP2 POP PUSH2 0x2325 DUP4 PUSH2 0x1E3B JUMP JUMPDEST SWAP3 POP DUP3 DUP3 ADD SWAP1 POP DUP1 DUP3 GT ISZERO PUSH2 0x233D JUMPI PUSH2 0x233C PUSH2 0x212C JUMP JUMPDEST JUMPDEST SWAP3 SWAP2 POP POP JUMP INVALID LOG2 PUSH5 0x6970667358 0x22 SLT KECCAK256 KECCAK256 0xB7 STATICCALL 0xC RETURNDATACOPY 0x4F SWAP16 SWAP14 PUSH20 0x21DE4A5BD5D756AE7B67ED87D2700C236BAEFD90 KECCAK256 SUB SWAP16 PUSH5 0x736F6C6343 STOP ADDMOD BYTE STOP CALLER "
		},
		"gasEstimates": {
			"creation": {
				"codeDepositCost": "1336400",
				"executionCost": "infinite",
				"totalCost": "infinite"
			},
			"external": {
				"allowance(address,address)": "infinite",
				"approve(address,uint256)": "infinite",
				"balanceOf(address)": "2896",
				"collateral()": "infinite",
				"collateralAddress()": "2531",
				"consideration()": "infinite",
				"considerationAddress()": "2553",
				"decimals()": "472",
				"exercise(uint256)": "infinite",
				"expirationDate()": "2558",
				"isPut()": "2598",
				"mint(uint256)": "infinite",
				"name()": "infinite",
				"owner()": "2626",
				"redeem(uint256)": "infinite",
				"renounceOwnership()": "infinite",
				"shortOption()": "infinite",
				"shortOptionAddress()": "2620",
				"strike()": "2558",
				"symbol()": "infinite",
				"totalSupply()": "2500",
				"transfer(address,uint256)": "infinite",
				"transferFrom(address,address,uint256)": "infinite",
				"transferOwnership(address)": "infinite"
			}
		},
		"methodIdentifiers": {
			"allowance(address,address)": "dd62ed3e",
			"approve(address,uint256)": "095ea7b3",
			"balanceOf(address)": "70a08231",
			"collateral()": "d8dfeb45",
			"collateralAddress()": "48d399e7",
			"consideration()": "6f713c9c",
			"considerationAddress()": "9acea70d",
			"decimals()": "313ce567",
			"exercise(uint256)": "b07f0a41",
			"expirationDate()": "8f620487",
			"isPut()": "f3c274a6",
			"mint(uint256)": "a0712d68",
			"name()": "06fdde03",
			"owner()": "8da5cb5b",
			"redeem(uint256)": "db006a75",
			"renounceOwnership()": "715018a6",
			"shortOption()": "ad7448bc",
			"shortOptionAddress()": "2c7d4240",
			"strike()": "ad8f5008",
			"symbol()": "95d89b41",
			"totalSupply()": "18160ddd",
			"transfer(address,uint256)": "a9059cbb",
			"transferFrom(address,address,uint256)": "23b872dd",
			"transferOwnership(address)": "f2fde38b"
		}
	},
	"abi": [
		{
			"inputs": [
				{
					"internalType": "string",
					"name": "name",
					"type": "string"
				},
				{
					"internalType": "string",
					"name": "symbol",
					"type": "string"
				},
				{
					"internalType": "address",
					"name": "collateralAddress",
					"type": "address"
				},
				{
					"internalType": "address",
					"name": "considerationAddress",
					"type": "address"
				},
				{
					"internalType": "uint256",
					"name": "expirationDate",
					"type": "uint256"
				},
				{
					"internalType": "uint256",
					"name": "strike",
					"type": "uint256"
				},
				{
					"internalType": "bool",
					"name": "isPut",
					"type": "bool"
				}
			],
			"stateMutability": "nonpayable",
			"type": "constructor"
		},
		{
			"inputs": [],
			"name": "ContractExpired",
			"type": "error"
		},
		{
			"inputs": [],
			"name": "ContractNotExpired",
			"type": "error"
		},
		{
			"inputs": [
				{
					"internalType": "address",
					"name": "spender",
					"type": "address"
				},
				{
					"internalType": "uint256",
					"name": "allowance",
					"type": "uint256"
				},
				{
					"internalType": "uint256",
					"name": "needed",
					"type": "uint256"
				}
			],
			"name": "ERC20InsufficientAllowance",
			"type": "error"
		},
		{
			"inputs": [
				{
					"internalType": "address",
					"name": "sender",
					"type": "address"
				},
				{
					"internalType": "uint256",
					"name": "balance",
					"type": "uint256"
				},
				{
					"internalType": "uint256",
					"name": "needed",
					"type": "uint256"
				}
			],
			"name": "ERC20InsufficientBalance",
			"type": "error"
		},
		{
			"inputs": [
				{
					"internalType": "address",
					"name": "approver",
					"type": "address"
				}
			],
			"name": "ERC20InvalidApprover",
			"type": "error"
		},
		{
			"inputs": [
				{
					"internalType": "address",
					"name": "receiver",
					"type": "address"
				}
			],
			"name": "ERC20InvalidReceiver",
			"type": "error"
		},
		{
			"inputs": [
				{
					"internalType": "address",
					"name": "sender",
					"type": "address"
				}
			],
			"name": "ERC20InvalidSender",
			"type": "error"
		},
		{
			"inputs": [
				{
					"internalType": "address",
					"name": "spender",
					"type": "address"
				}
			],
			"name": "ERC20InvalidSpender",
			"type": "error"
		},
		{
			"inputs": [],
			"name": "InsufficientBalance",
			"type": "error"
		},
		{
			"inputs": [],
			"name": "InvalidAmount",
			"type": "error"
		},
		{
			"inputs": [],
			"name": "InvalidExpiration",
			"type": "error"
		},
		{
			"inputs": [],
			"name": "InvalidStrike",
			"type": "error"
		},
		{
			"inputs": [
				{
					"internalType": "address",
					"name": "owner",
					"type": "address"
				}
			],
			"name": "OwnableInvalidOwner",
			"type": "error"
		},
		{
			"inputs": [
				{
					"internalType": "address",
					"name": "account",
					"type": "address"
				}
			],
			"name": "OwnableUnauthorizedAccount",
			"type": "error"
		},
		{
			"inputs": [],
			"name": "ReentrancyGuardReentrantCall",
			"type": "error"
		},
		{
			"anonymous": false,
			"inputs": [
				{
					"indexed": true,
					"internalType": "address",
					"name": "owner",
					"type": "address"
				},
				{
					"indexed": true,
					"internalType": "address",
					"name": "spender",
					"type": "address"
				},
				{
					"indexed": false,
					"internalType": "uint256",
					"name": "value",
					"type": "uint256"
				}
			],
			"name": "Approval",
			"type": "event"
		},
		{
			"anonymous": false,
			"inputs": [
				{
					"indexed": false,
					"internalType": "address",
					"name": "optionContractAddress",
					"type": "address"
				},
				{
					"indexed": false,
					"internalType": "address",
					"name": "collateralAddress",
					"type": "address"
				},
				{
					"indexed": false,
					"internalType": "address",
					"name": "shortOptionAddress",
					"type": "address"
				},
				{
					"indexed": false,
					"internalType": "uint256",
					"name": "expirationDate",
					"type": "uint256"
				},
				{
					"indexed": false,
					"internalType": "uint256",
					"name": "strike",
					"type": "uint256"
				},
				{
					"indexed": false,
					"internalType": "bool",
					"name": "isPut",
					"type": "bool"
				}
			],
			"name": "LongOptionCreated",
			"type": "event"
		},
		{
			"anonymous": false,
			"inputs": [
				{
					"indexed": true,
					"internalType": "address",
					"name": "previousOwner",
					"type": "address"
				},
				{
					"indexed": true,
					"internalType": "address",
					"name": "newOwner",
					"type": "address"
				}
			],
			"name": "OwnershipTransferred",
			"type": "event"
		},
		{
			"anonymous": false,
			"inputs": [
				{
					"indexed": true,
					"internalType": "address",
					"name": "from",
					"type": "address"
				},
				{
					"indexed": true,
					"internalType": "address",
					"name": "to",
					"type": "address"
				},
				{
					"indexed": false,
					"internalType": "uint256",
					"name": "value",
					"type": "uint256"
				}
			],
			"name": "Transfer",
			"type": "event"
		},
		{
			"inputs": [
				{
					"internalType": "address",
					"name": "owner",
					"type": "address"
				},
				{
					"internalType": "address",
					"name": "spender",
					"type": "address"
				}
			],
			"name": "allowance",
			"outputs": [
				{
					"internalType": "uint256",
					"name": "",
					"type": "uint256"
				}
			],
			"stateMutability": "view",
			"type": "function"
		},
		{
			"inputs": [
				{
					"internalType": "address",
					"name": "spender",
					"type": "address"
				},
				{
					"internalType": "uint256",
					"name": "value",
					"type": "uint256"
				}
			],
			"name": "approve",
			"outputs": [
				{
					"internalType": "bool",
					"name": "",
					"type": "bool"
				}
			],
			"stateMutability": "nonpayable",
			"type": "function"
		},
		{
			"inputs": [
				{
					"internalType": "address",
					"name": "account",
					"type": "address"
				}
			],
			"name": "balanceOf",
			"outputs": [
				{
					"internalType": "uint256",
					"name": "",
					"type": "uint256"
				}
			],
			"stateMutability": "view",
			"type": "function"
		},
		{
			"inputs": [],
			"name": "collateral",
			"outputs": [
				{
					"internalType": "contract IERC20",
					"name": "",
					"type": "address"
				}
			],
			"stateMutability": "view",
			"type": "function"
		},
		{
			"inputs": [],
			"name": "collateralAddress",
			"outputs": [
				{
					"internalType": "address",
					"name": "",
					"type": "address"
				}
			],
			"stateMutability": "view",
			"type": "function"
		},
		{
			"inputs": [],
			"name": "consideration",
			"outputs": [
				{
					"internalType": "contract IERC20",
					"name": "",
					"type": "address"
				}
			],
			"stateMutability": "view",
			"type": "function"
		},
		{
			"inputs": [],
			"name": "considerationAddress",
			"outputs": [
				{
					"internalType": "address",
					"name": "",
					"type": "address"
				}
			],
			"stateMutability": "view",
			"type": "function"
		},
		{
			"inputs": [],
			"name": "decimals",
			"outputs": [
				{
					"internalType": "uint8",
					"name": "",
					"type": "uint8"
				}
			],
			"stateMutability": "view",
			"type": "function"
		},
		{
			"inputs": [
				{
					"internalType": "uint256",
					"name": "amount",
					"type": "uint256"
				}
			],
			"name": "exercise",
			"outputs": [],
			"stateMutability": "nonpayable",
			"type": "function"
		},
		{
			"inputs": [],
			"name": "expirationDate",
			"outputs": [
				{
					"internalType": "uint256",
					"name": "",
					"type": "uint256"
				}
			],
			"stateMutability": "view",
			"type": "function"
		},
		{
			"inputs": [],
			"name": "isPut",
			"outputs": [
				{
					"internalType": "bool",
					"name": "",
					"type": "bool"
				}
			],
			"stateMutability": "view",
			"type": "function"
		},
		{
			"inputs": [
				{
					"internalType": "uint256",
					"name": "amount",
					"type": "uint256"
				}
			],
			"name": "mint",
			"outputs": [],
			"stateMutability": "nonpayable",
			"type": "function"
		},
		{
			"inputs": [],
			"name": "name",
			"outputs": [
				{
					"internalType": "string",
					"name": "",
					"type": "string"
				}
			],
			"stateMutability": "view",
			"type": "function"
		},
		{
			"inputs": [],
			"name": "owner",
			"outputs": [
				{
					"internalType": "address",
					"name": "",
					"type": "address"
				}
			],
			"stateMutability": "view",
			"type": "function"
		},
		{
			"inputs": [
				{
					"internalType": "uint256",
					"name": "amount",
					"type": "uint256"
				}
			],
			"name": "redeem",
			"outputs": [],
			"stateMutability": "nonpayable",
			"type": "function"
		},
		{
			"inputs": [],
			"name": "renounceOwnership",
			"outputs": [],
			"stateMutability": "nonpayable",
			"type": "function"
		},
		{
			"inputs": [],
			"name": "shortOption",
			"outputs": [
				{
					"internalType": "contract ShortOption",
					"name": "",
					"type": "address"
				}
			],
			"stateMutability": "view",
			"type": "function"
		},
		{
			"inputs": [],
			"name": "shortOptionAddress",
			"outputs": [
				{
					"internalType": "address",
					"name": "",
					"type": "address"
				}
			],
			"stateMutability": "view",
			"type": "function"
		},
		{
			"inputs": [],
			"name": "strike",
			"outputs": [
				{
					"internalType": "uint256",
					"name": "",
					"type": "uint256"
				}
			],
			"stateMutability": "view",
			"type": "function"
		},
		{
			"inputs": [],
			"name": "symbol",
			"outputs": [
				{
					"internalType": "string",
					"name": "",
					"type": "string"
				}
			],
			"stateMutability": "view",
			"type": "function"
		},
		{
			"inputs": [],
			"name": "totalSupply",
			"outputs": [
				{
					"internalType": "uint256",
					"name": "",
					"type": "uint256"
				}
			],
			"stateMutability": "view",
			"type": "function"
		},
		{
			"inputs": [
				{
					"internalType": "address",
					"name": "to",
					"type": "address"
				},
				{
					"internalType": "uint256",
					"name": "value",
					"type": "uint256"
				}
			],
			"name": "transfer",
			"outputs": [
				{
					"internalType": "bool",
					"name": "",
					"type": "bool"
				}
			],
			"stateMutability": "nonpayable",
			"type": "function"
		},
		{
			"inputs": [
				{
					"internalType": "address",
					"name": "from",
					"type": "address"
				},
				{
					"internalType": "address",
					"name": "to",
					"type": "address"
				},
				{
					"internalType": "uint256",
					"name": "value",
					"type": "uint256"
				}
			],
			"name": "transferFrom",
			"outputs": [
				{
					"internalType": "bool",
					"name": "",
					"type": "bool"
				}
			],
			"stateMutability": "nonpayable",
			"type": "function"
		},
		{
			"inputs": [
				{
					"internalType": "address",
					"name": "newOwner",
					"type": "address"
				}
			],
			"name": "transferOwnership",
			"outputs": [],
			"stateMutability": "nonpayable",
			"type": "function"
		}
	]
}