{
	"data": {
		"bytecode": {
			"linkReferences": {},
			"object": "6080604052348015600e575f80fd5b503380603357604051631e4fbdf760e01b81525f600482015260240160405180910390fd5b603a81603f565b50608e565b5f80546001600160a01b038381166001600160a01b0319831681178455604051919092169283917f8be0079c531659141344cd1fd0a4f28419497f9722a3daafe3b4186f6b6457e09190a35050565b61303a8061009b5f395ff3fe608060405234801561000f575f80fd5b5060043610610055575f3560e01c8063715018a6146100595780638da5cb5b14610063578063a2618c9714610085578063f2fde38b14610098578063f5bc4f3e146100ab575b5f80fd5b6100616100be565b005b5f546001600160a01b03165b60405161007c9190610322565b60405180910390f35b61006f610093366004610336565b6100d1565b6100616100a6366004610361565b6100f9565b6100616100b9366004610422565b61013f565b6100c661029a565b6100cf5f6102c6565b565b600181815481106100e0575f80fd5b5f918252602090912001546001600160a01b0316905081565b61010161029a565b6001600160a01b038116610133575f604051631e4fbdf760e01b815260040161012a9190610322565b60405180910390fd5b61013c816102c6565b50565b5f8787878787878760405161015390610315565b6101639796959493929190610503565b604051809103905ff08015801561017c573d5f803e3d5ffd5b506001805480820182555f919091527fb10e2d527612073b26eecdfd717e6a320cf44b4afac2b0732d9fcbe2b7fa0cf60180546001600160a01b0319166001600160a01b0383169081179091556040805162b1f50960e61b815290519293507f9a470f4fcf5dc527b01c8bbb39fc28084aeb2f9097cb38ea95f953378199bffa9284928a929091632c7d4240916004808201926020929091908290030181865afa15801561022c573d5f803e3d5ffd5b505050506040513d601f19601f820116820180604052508101906102509190610560565b604080516001600160a01b0394851681529284166020840152921681830152606081018790526080810186905284151560a082015290519081900360c00190a15050505050505050565b5f546001600160a01b031633146100cf573360405163118cdaa760e01b815260040161012a9190610322565b5f80546001600160a01b038381166001600160a01b0319831681178455604051919092169283917f8be0079c531659141344cd1fd0a4f28419497f9722a3daafe3b4186f6b6457e09190a35050565b612a898061057c83390190565b6001600160a01b0391909116815260200190565b5f60208284031215610346575f80fd5b5035919050565b6001600160a01b038116811461013c575f80fd5b5f60208284031215610371575f80fd5b813561037c8161034d565b9392505050565b634e487b7160e01b5f52604160045260245ffd5b5f82601f8301126103a6575f80fd5b813567ffffffffffffffff8111156103c0576103c0610383565b604051601f8201601f19908116603f0116810167ffffffffffffffff811182821017156103ef576103ef610383565b604052818152838201602001851015610406575f80fd5b816020850160208301375f918101602001919091529392505050565b5f805f805f805f60e0888a031215610438575f80fd5b873567ffffffffffffffff81111561044e575f80fd5b61045a8a828b01610397565b975050602088013567ffffffffffffffff811115610476575f80fd5b6104828a828b01610397565b96505060408801356104938161034d565b945060608801356104a38161034d565b93506080880135925060a0880135915060c088013580151581146104c5575f80fd5b8091505092959891949750929550565b5f81518084528060208401602086015e5f602082860101526020601f19601f83011685010191505092915050565b60e081525f61051560e083018a6104d5565b8281036020840152610527818a6104d5565b6001600160a01b03988916604085015296909716606083015250608081019390935260a0830191909152151560c0909101529392505050565b5f60208284031215610570575f80fd5b815161037c8161034d56fe608060405234801561000f575f80fd5b50604051612a89380380612a8983398101604081905261002e91610327565b868686868686863387876003610044838261045c565b506004610051828261045c565b5050506001600160a01b03811661008157604051631e4fbdf760e01b81525f600482015260240160405180910390fd5b61008a81610211565b5060016006555f8290036100b15760405163134b031b60e31b815260040160405180910390fd5b428310156100d257604051637d9533a960e11b815260040160405180910390fd5b600992909255600a55600780546001600160a01b03199081166001600160a01b0395861690811790925560088054821694909516938417909455600b80546001600160a81b031916921515610100600160a81b03191692909217610100909102179055600c80549092161790555050604051879087908790879087908790879061015b90610262565b61016b9796959493929190610544565b604051809103905ff080158015610184573d5f803e3d5ffd5b50600e80546001600160a01b039283166001600160a01b03199182168117909255600d805490911682179055604080513081529288166020840152820152606081018490526080810183905281151560a08201527f9a470f4fcf5dc527b01c8bbb39fc28084aeb2f9097cb38ea95f953378199bffa9060c00160405180910390a1505050505050506105a1565b600580546001600160a01b038381166001600160a01b0319831681179093556040519116919082907f8be0079c531659141344cd1fd0a4f28419497f9722a3daafe3b4186f6b6457e0905f90a35050565b6117d5806112b483390190565b634e487b7160e01b5f52604160045260245ffd5b5f82601f830112610292575f80fd5b81516001600160401b038111156102ab576102ab61026f565b604051601f8201601f19908116603f011681016001600160401b03811182821017156102d9576102d961026f565b6040528181528382016020018510156102f0575f80fd5b8160208501602083015e5f918101602001919091529392505050565b80516001600160a01b0381168114610322575f80fd5b919050565b5f805f805f805f60e0888a03121561033d575f80fd5b87516001600160401b03811115610352575f80fd5b61035e8a828b01610283565b60208a015190985090506001600160401b0381111561037b575f80fd5b6103878a828b01610283565b9650506103966040890161030c565b94506103a46060890161030c565b608089015160a08a015160c08b0151929650909450925080151581146103c8575f80fd5b8091505092959891949750929550565b600181811c908216806103ec57607f821691505b60208210810361040a57634e487b7160e01b5f52602260045260245ffd5b50919050565b601f82111561045757805f5260205f20601f840160051c810160208510156104355750805b601f840160051c820191505b81811015610454575f8155600101610441565b50505b505050565b81516001600160401b038111156104755761047561026f565b6104898161048384546103d8565b84610410565b6020601f8211600181146104bb575f83156104a45750848201515b5f19600385901b1c1916600184901b178455610454565b5f84815260208120601f198516915b828110156104ea57878501518255602094850194600190920191016104ca565b508482101561050757868401515f19600387901b60f8161c191681555b50505050600190811b01905550565b5f81518084528060208401602086015e5f602082860101526020601f19601f83011685010191505092915050565b60e081525f61055660e083018a610516565b8281036020840152610568818a610516565b6001600160a01b03988916604085015296909716606083015250608081019390935260a0830191909152151560c0909101529392505050565b610d06806105ae5f395ff3fe608060405234801561000f575f80fd5b5060043610610153575f3560e01c806395d89b41116100bf578063b07f0a4111610079578063b07f0a41146102bb578063d8dfeb45146102ce578063db006a75146102e6578063dd62ed3e146102f9578063f2fde38b1461030c578063f3c274a61461031f575f80fd5b806395d89b411461025e5780639acea70d14610266578063a0712d6814610279578063a9059cbb1461028c578063ad7448bc1461029f578063ad8f5008146102b2575f80fd5b806348d399e71161011057806348d399e7146101ec5780636f713c9c146101ff57806370a0823114610212578063715018a61461023a5780638da5cb5b146102445780638f62048714610255575f80fd5b806306fdde0314610157578063095ea7b31461017557806318160ddd1461019857806323b872dd146101aa5780632c7d4240146101bd578063313ce567146101dd575b5f80fd5b61015f61032c565b60405161016c9190610afa565b60405180910390f35b610188610183366004610b4a565b6103bc565b604051901515815260200161016c565b6002545b60405190815260200161016c565b6101886101b8366004610b72565b6103d5565b600d546101d0906001600160a01b031681565b60405161016c9190610bac565b6040516012815260200161016c565b6007546101d0906001600160a01b031681565b600c546101d0906001600160a01b031681565b61019c610220366004610bc0565b6001600160a01b03165f9081526020819052604090205490565b6102426103f8565b005b6005546001600160a01b03166101d0565b61019c60095481565b61015f61040b565b6008546101d0906001600160a01b031681565b610242610287366004610be0565b61041a565b61018861029a366004610b4a565b6104bc565b600e546101d0906001600160a01b031681565b61019c600a5481565b6102426102c9366004610be0565b6104c9565b600b546101d09061010090046001600160a01b031681565b6102426102f4366004610be0565b610552565b61019c610307366004610bf7565b6106d5565b61024261031a366004610bc0565b6106ff565b600b546101889060ff1681565b60606003805461033b90610c28565b80601f016020809104026020016040519081016040528092919081815260200182805461036790610c28565b80156103b25780601f10610389576101008083540402835291602001916103b2565b820191905f5260205f20905b81548152906001019060200180831161039557829003601f168201915b5050505050905090565b5f336103c9818585610742565b60019150505b92915050565b5f336103e2858285610754565b6103ed8585856107a4565b506001949350505050565b610400610801565b6104095f61082e565b565b60606004805461033b90610c28565b61042261087f565b8060018110156104455760405163162908e360e11b815260040160405180910390fd5b61044f33836108a9565b600e546040516340c10f1960e01b81526001600160a01b03909116906340c10f19906104819033908690600401610c60565b5f604051808303815f87803b158015610498575f80fd5b505af11580156104aa573d5f803e3d5ffd5b50505050506104b96001600655565b50565b5f336103c98185856107a4565b60095442106104eb57604051630790d4e360e01b815260040160405180910390fd5b6104f361087f565b8060018110156105165760405163162908e360e11b815260040160405180910390fd5b61052033836108e1565b600e5460405163dd068ec160e01b81526001600160a01b039091169063dd068ec1906104819033908690600401610c60565b600954421061057457604051630790d4e360e01b815260040160405180910390fd5b61057c61087f565b335f8181526020819052604090205482908111156105ad57604051631e9acf1760e31b815260040160405180910390fd5b8260018110156105d05760405163162908e360e11b815260040160405180910390fd5b600e546040516370a0823160e01b815285916001600160a01b0316906370a0823190610600903390600401610bac565b602060405180830381865afa15801561061b573d5f803e3d5ffd5b505050506040513d601f19601f8201168201806040525081019061063f9190610c79565b101561065e57604051631e9acf1760e31b815260040160405180910390fd5b600e5460405163e0ca59bb60e01b815233916001600160a01b03169063e0ca59bb906106909084908990600401610c60565b5f604051808303815f87803b1580156106a7575f80fd5b505af11580156106b9573d5f803e3d5ffd5b505050506106c781866108e1565b505050506104b96001600655565b6001600160a01b039182165f90815260016020908152604080832093909416825291909152205490565b610707610801565b6001600160a01b038116610739575f604051631e4fbdf760e01b81526004016107309190610bac565b60405180910390fd5b6104b98161082e565b61074f8383836001610915565b505050565b5f61075f84846106d5565b90505f19811461079e578181101561079057828183604051637dc7a0d960e11b815260040161073093929190610c90565b61079e84848484035f610915565b50505050565b6001600160a01b0383166107cd575f604051634b637e8f60e11b81526004016107309190610bac565b6001600160a01b0382166107f6575f60405163ec442f0560e01b81526004016107309190610bac565b61074f8383836109e7565b6005546001600160a01b03163314610409573360405163118cdaa760e01b81526004016107309190610bac565b600580546001600160a01b038381166001600160a01b0319831681179093556040519116919082907f8be0079c531659141344cd1fd0a4f28419497f9722a3daafe3b4186f6b6457e0905f90a35050565b6002600654036108a257604051633ee5aeb560e01b815260040160405180910390fd5b6002600655565b6001600160a01b0382166108d2575f60405163ec442f0560e01b81526004016107309190610bac565b6108dd5f83836109e7565b5050565b6001600160a01b03821661090a575f604051634b637e8f60e11b81526004016107309190610bac565b6108dd825f836109e7565b6001600160a01b03841661093e575f60405163e602df0560e01b81526004016107309190610bac565b6001600160a01b038316610967575f604051634a1406b160e11b81526004016107309190610bac565b6001600160a01b038085165f908152600160209081526040808320938716835292905220829055801561079e57826001600160a01b0316846001600160a01b03167f8c5be1e5ebec7d5bd14f71427d1e84f3dd0314c0f7b2291e5b200ac8c7c3b925846040516109d991815260200190565b60405180910390a350505050565b6001600160a01b038316610a11578060025f828254610a069190610cb1565b90915550610a6e9050565b6001600160a01b0383165f9081526020819052604090205481811015610a505783818360405163391434e360e21b815260040161073093929190610c90565b6001600160a01b0384165f9081526020819052604090209082900390555b6001600160a01b038216610a8a57600280548290039055610aa8565b6001600160a01b0382165f9081526020819052604090208054820190555b816001600160a01b0316836001600160a01b03167fddf252ad1be2c89b69c2b068fc378daa952ba7f163c4a11628f55a4df523b3ef83604051610aed91815260200190565b60405180910390a3505050565b602081525f82518060208401528060208501604085015e5f604082850101526040601f19601f83011684010191505092915050565b80356001600160a01b0381168114610b45575f80fd5b919050565b5f8060408385031215610b5b575f80fd5b610b6483610b2f565b946020939093013593505050565b5f805f60608486031215610b84575f80fd5b610b8d84610b2f565b9250610b9b60208501610b2f565b929592945050506040919091013590565b6001600160a01b0391909116815260200190565b5f60208284031215610bd0575f80fd5b610bd982610b2f565b9392505050565b5f60208284031215610bf0575f80fd5b5035919050565b5f8060408385031215610c08575f80fd5b610c1183610b2f565b9150610c1f60208401610b2f565b90509250929050565b600181811c90821680610c3c57607f821691505b602082108103610c5a57634e487b7160e01b5f52602260045260245ffd5b50919050565b6001600160a01b03929092168252602082015260400190565b5f60208284031215610c89575f80fd5b5051919050565b6001600160a01b039390931683526020830191909152604082015260600190565b808201808211156103cf57634e487b7160e01b5f52601160045260245ffdfea2646970667358221220215e36436d880394a98afb1d09146d7420c825a64379fac19f06847eee2c683364736f6c634300081a0033608060405234801561000f575f80fd5b506040516117d53803806117d583398101604081905261002e91610265565b868686868686863387876003610044838261039a565b506004610051828261039a565b5050506001600160a01b03811661008157604051631e4fbdf760e01b81525f600482015260240160405180910390fd5b61008a8161015c565b5060016006555f8290036100b15760405163134b031b60e31b815260040160405180910390fd5b428310156100d257604051637d9533a960e11b815260040160405180910390fd5b600992909255600a55600780546001600160a01b03199081166001600160a01b0395861690811790925560088054821694909516938417909455600b80546001600160a81b031916921515610100600160a81b03191692909217610100909102179055600c805483169091179055600d805433921691909117905550610454975050505050505050565b600580546001600160a01b038381166001600160a01b0319831681179093556040519116919082907f8be0079c531659141344cd1fd0a4f28419497f9722a3daafe3b4186f6b6457e0905f90a35050565b634e487b7160e01b5f52604160045260245ffd5b5f82601f8301126101d0575f80fd5b81516001600160401b038111156101e9576101e96101ad565b604051601f8201601f19908116603f011681016001600160401b0381118282101715610217576102176101ad565b60405281815283820160200185101561022e575f80fd5b8160208501602083015e5f918101602001919091529392505050565b80516001600160a01b0381168114610260575f80fd5b919050565b5f805f805f805f60e0888a03121561027b575f80fd5b87516001600160401b03811115610290575f80fd5b61029c8a828b016101c1565b60208a015190985090506001600160401b038111156102b9575f80fd5b6102c58a828b016101c1565b9650506102d46040890161024a565b94506102e26060890161024a565b608089015160a08a015160c08b015192965090945092508015158114610306575f80fd5b8091505092959891949750929550565b600181811c9082168061032a57607f821691505b60208210810361034857634e487b7160e01b5f52602260045260245ffd5b50919050565b601f82111561039557805f5260205f20601f840160051c810160208510156103735750805b601f840160051c820191505b81811015610392575f815560010161037f565b50505b505050565b81516001600160401b038111156103b3576103b36101ad565b6103c7816103c18454610316565b8461034e565b6020601f8211600181146103f9575f83156103e25750848201515b5f19600385901b1c1916600184901b178455610392565b5f84815260208120601f198516915b828110156104285787850151825560209485019460019092019101610408565b508482101561044557868401515f19600387901b60f8161c191681555b50505050600190811b01905550565b611374806104615f395ff3fe608060405234801561000f575f80fd5b506004361061015e575f3560e01c80637955eaa1116100ca578063ad8f500811610084578063ad8f5008146102bb578063d8dfeb45146102c4578063dd068ec1146102dc578063dd62ed3e146102ef578063e0ca59bb14610302578063f2fde38b14610315578063f3c274a614610328575f80fd5b80637955eaa1146102605780638da5cb5b146102735780638f6204871461028457806395d89b411461028d5780639acea70d14610295578063a9059cbb146102a8575f80fd5b806340c10f191161011b57806340c10f19146101ec57806348d399e7146101ff578063551dc0141461021f5780636f713c9c1461023257806370a0823114610245578063715018a614610258575f80fd5b806306fdde0314610162578063095ea7b31461018057806318160ddd146101a35780631e9a6950146101b557806323b872dd146101ca578063313ce567146101dd575b5f80fd5b61016a610335565b60405161017791906110eb565b60405180910390f35b61019361018e36600461113b565b6103c5565b6040519015158152602001610177565b6002545b604051908152602001610177565b6101c86101c336600461113b565b6103de565b005b6101936101d8366004611163565b61043c565b60405160128152602001610177565b6101c86101fa36600461113b565b61045f565b600754610212906001600160a01b031681565b604051610177919061119d565b600d54610212906001600160a01b031681565b600c54610212906001600160a01b031681565b6101a76102533660046111b1565b610532565b6101c861054c565b6101c861026e36600461113b565b61055f565b6005546001600160a01b0316610212565b6101a760095481565b61016a6105b7565b600854610212906001600160a01b031681565b6101936102b636600461113b565b6105c6565b6101a7600a5481565b600b546102129061010090046001600160a01b031681565b6101c86102ea36600461113b565b6105d3565b6101a76102fd3660046111d1565b61060b565b6101c861031036600461113b565b610635565b6101c86103233660046111b1565b61065f565b600b546101939060ff1681565b60606003805461034490611202565b80601f016020809104026020016040519081016040528092919081815260200182805461037090611202565b80156103bb5780601f10610392576101008083540402835291602001916103bb565b820191905f5260205f20905b81548152906001019060200180831161039e57829003601f168201915b5050505050905090565b5f336103d28185856106a5565b60019150505b92915050565b600954421015610401576040516321f0a55360e11b815260040160405180910390fd5b81818061040d83610532565b101561042c57604051631e9acf1760e31b815260040160405180910390fd5b61043684846106b7565b50505050565b5f33610449858285610972565b6104548585856109bc565b506001949350505050565b610467610a19565b600b546040516370a0823160e01b815283918391829161010090046001600160a01b0316906370a08231906104a090869060040161119d565b602060405180830381865afa1580156104bb573d5f803e3d5ffd5b505050506040513d601f19601f820116820180604052508101906104df919061123a565b10156104fe57604051631e9acf1760e31b815260040160405180910390fd5b8260018110156105215760405163162908e360e11b815260040160405180910390fd5b61052b8585610a46565b5050505050565b6001600160a01b03165f9081526020819052604090205490565b610554610a19565b61055d5f610b98565b565b81818061056b83610532565b101561058a57604051631e9acf1760e31b815260040160405180910390fd5b6009544210156105ad576040516321f0a55360e11b815260040160405180910390fd5b6104368484610be9565b60606004805461034490611202565b5f336103d28185856109bc565b60095442106105f557604051630790d4e360e01b815260040160405180910390fd5b6105fd610a19565b6106078282610d2c565b5050565b6001600160a01b039182165f90815260016020908152604080832093909416825291909152205490565b600954421061065757604051630790d4e360e01b815260040160405180910390fd5b610401610a19565b610667610a19565b6001600160a01b038116610699575f604051631e4fbdf760e01b8152600401610690919061119d565b60405180910390fd5b6106a281610b98565b50565b6106b28383836001610e78565b505050565b6106bf610f4a565b8181806106cb83610532565b10156106ea57604051631e9acf1760e31b815260040160405180910390fd5b82600181101561070d5760405163162908e360e11b815260040160405180910390fd5b600b546040516370a0823160e01b81525f9161010090046001600160a01b0316906370a082319061074290309060040161119d565b602060405180830381865afa15801561075d573d5f803e3d5ffd5b505050506040513d601f19601f82011682018060405250810190610781919061123a565b600c546040516370a0823160e01b81529192505f916001600160a01b03909116906370a08231906107b690309060040161119d565b602060405180830381865afa1580156107d1573d5f803e3d5ffd5b505050506040513d601f19601f820116820180604052508101906107f5919061123a565b90505f828711156108065782610808565b865b90506108148888610f74565b868110156108e4575f6108278289611265565b90505f670de0b6b3a7640000600a54836108419190611278565b61084b919061128f565b90508084101561086e57604051631e9acf1760e31b815260040160405180910390fd5b600c5460405163a9059cbb60e01b81526001600160a01b039091169063a9059cbb906108a0908d9085906004016112ae565b6020604051808303815f875af11580156108bc573d5f803e3d5ffd5b505050506040513d601f19601f820116820180604052508101906108e091906112c7565b5050505b801561096257600b5460405163a9059cbb60e01b81526101009091046001600160a01b03169063a9059cbb90610920908b9085906004016112ae565b6020604051808303815f875af115801561093c573d5f803e3d5ffd5b505050506040513d601f19601f8201168201806040525081019061096091906112c7565b505b5050505050506106076001600655565b5f61097d848461060b565b90505f19811461043657818110156109ae57828183604051637dc7a0d960e11b8152600401610690939291906112e6565b61043684848484035f610e78565b6001600160a01b0383166109e5575f604051634b637e8f60e11b8152600401610690919061119d565b6001600160a01b038216610a0e575f60405163ec442f0560e01b8152600401610690919061119d565b6106b2838383610fa4565b6005546001600160a01b0316331461055d573360405163118cdaa760e01b8152600401610690919061119d565b610a4e610f4a565b600b546040516370a0823160e01b815283918391829161010090046001600160a01b0316906370a0823190610a8790869060040161119d565b602060405180830381865afa158015610aa2573d5f803e3d5ffd5b505050506040513d601f19601f82011682018060405250810190610ac6919061123a565b1015610ae557604051631e9acf1760e31b815260040160405180910390fd5b826001811015610b085760405163162908e360e11b815260040160405180910390fd5b610b1285856110b7565b600b546040516323b872dd60e01b81526101009091046001600160a01b0316906323b872dd90610b4a90889030908990600401611307565b6020604051808303815f875af1158015610b66573d5f803e3d5ffd5b505050506040513d601f19601f82011682018060405250810190610b8a91906112c7565b505050506106076001600655565b600580546001600160a01b038381166001600160a01b0319831681179093556040519116919082907f8be0079c531659141344cd1fd0a4f28419497f9722a3daafe3b4186f6b6457e0905f90a35050565b610bf1610f4a565b818180610bfd83610532565b1015610c1c57604051631e9acf1760e31b815260040160405180910390fd5b826001811015610c3f5760405163162908e360e11b815260040160405180910390fd5b600c546040516370a0823160e01b815285916001600160a01b0316906370a0823190610c6f90309060040161119d565b602060405180830381865afa158015610c8a573d5f803e3d5ffd5b505050506040513d601f19601f82011682018060405250810190610cae919061123a565b1015610ccd57604051631e9acf1760e31b815260040160405180910390fd5b610cd78585610f74565b600c54600a546001600160a01b039091169063a9059cbb908790670de0b6b3a764000090610d059089611278565b610d0f919061128f565b6040518363ffffffff1660e01b8152600401610b4a9291906112ae565b610d34610f4a565b6009544210610d5657604051630790d4e360e01b815260040160405180910390fd5b610d5e610a19565b600b5460405163a9059cbb60e01b81526101009091046001600160a01b03169063a9059cbb90610d9490859085906004016112ae565b6020604051808303815f875af1158015610db0573d5f803e3d5ffd5b505050506040513d601f19601f82011682018060405250810190610dd491906112c7565b50600c54600a546001600160a01b03909116906323b872dd9084903090670de0b6b3a764000090610e059087611278565b610e0f919061128f565b6040518463ffffffff1660e01b8152600401610e2d93929190611307565b6020604051808303815f875af1158015610e49573d5f803e3d5ffd5b505050506040513d601f19601f82011682018060405250810190610e6d91906112c7565b506106076001600655565b6001600160a01b038416610ea1575f60405163e602df0560e01b8152600401610690919061119d565b6001600160a01b038316610eca575f604051634a1406b160e11b8152600401610690919061119d565b6001600160a01b038085165f908152600160209081526040808320938716835292905220829055801561043657826001600160a01b0316846001600160a01b03167f8c5be1e5ebec7d5bd14f71427d1e84f3dd0314c0f7b2291e5b200ac8c7c3b92584604051610f3c91815260200190565b60405180910390a350505050565b600260065403610f6d57604051633ee5aeb560e01b815260040160405180910390fd5b6002600655565b6001600160a01b038216610f9d575f604051634b637e8f60e11b8152600401610690919061119d565b610607825f835b6001600160a01b038316610fce578060025f828254610fc3919061132b565b9091555061102b9050565b6001600160a01b0383165f908152602081905260409020548181101561100d5783818360405163391434e360e21b8152600401610690939291906112e6565b6001600160a01b0384165f9081526020819052604090209082900390555b6001600160a01b03821661104757600280548290039055611065565b6001600160a01b0382165f9081526020819052604090208054820190555b816001600160a01b0316836001600160a01b03167fddf252ad1be2c89b69c2b068fc378daa952ba7f163c4a11628f55a4df523b3ef836040516110aa91815260200190565b60405180910390a3505050565b6001600160a01b0382166110e0575f60405163ec442f0560e01b8152600401610690919061119d565b6106075f8383610fa4565b602081525f82518060208401528060208501604085015e5f604082850101526040601f19601f83011684010191505092915050565b80356001600160a01b0381168114611136575f80fd5b919050565b5f806040838503121561114c575f80fd5b61115583611120565b946020939093013593505050565b5f805f60608486031215611175575f80fd5b61117e84611120565b925061118c60208501611120565b929592945050506040919091013590565b6001600160a01b0391909116815260200190565b5f602082840312156111c1575f80fd5b6111ca82611120565b9392505050565b5f80604083850312156111e2575f80fd5b6111eb83611120565b91506111f960208401611120565b90509250929050565b600181811c9082168061121657607f821691505b60208210810361123457634e487b7160e01b5f52602260045260245ffd5b50919050565b5f6020828403121561124a575f80fd5b5051919050565b634e487b7160e01b5f52601160045260245ffd5b818103818111156103d8576103d8611251565b80820281158282048414176103d8576103d8611251565b5f826112a957634e487b7160e01b5f52601260045260245ffd5b500490565b6001600160a01b03929092168252602082015260400190565b5f602082840312156112d7575f80fd5b815180151581146111ca575f80fd5b6001600160a01b039390931683526020830191909152604082015260600190565b6001600160a01b039384168152919092166020820152604081019190915260600190565b808201808211156103d8576103d861125156fea2646970667358221220cfa94aa54cf5fdb6423f1bfa8a81a50854fed67033139650ba15ab039d139c6364736f6c634300081a0033a264697066735822122067a32231a6bb662bc54e0d818d379128d185d5b15a93e88552120ba512dcd9ac64736f6c634300081a0033",
			"opcodes": "PUSH1 0x80 PUSH1 0x40 MSTORE CALLVALUE DUP1 ISZERO PUSH1 0xE JUMPI PUSH0 DUP1 REVERT JUMPDEST POP CALLER DUP1 PUSH1 0x33 JUMPI PUSH1 0x40 MLOAD PUSH4 0x1E4FBDF7 PUSH1 0xE0 SHL DUP2 MSTORE PUSH0 PUSH1 0x4 DUP3 ADD MSTORE PUSH1 0x24 ADD PUSH1 0x40 MLOAD DUP1 SWAP2 SUB SWAP1 REVERT JUMPDEST PUSH1 0x3A DUP2 PUSH1 0x3F JUMP JUMPDEST POP PUSH1 0x8E JUMP JUMPDEST PUSH0 DUP1 SLOAD PUSH1 0x1 PUSH1 0x1 PUSH1 0xA0 SHL SUB DUP4 DUP2 AND PUSH1 0x1 PUSH1 0x1 PUSH1 0xA0 SHL SUB NOT DUP4 AND DUP2 OR DUP5 SSTORE PUSH1 0x40 MLOAD SWAP2 SWAP1 SWAP3 AND SWAP3 DUP4 SWAP2 PUSH32 0x8BE0079C531659141344CD1FD0A4F28419497F9722A3DAAFE3B4186F6B6457E0 SWAP2 SWAP1 LOG3 POP POP JUMP JUMPDEST PUSH2 0x303A DUP1 PUSH2 0x9B PUSH0 CODECOPY PUSH0 RETURN INVALID PUSH1 0x80 PUSH1 0x40 MSTORE CALLVALUE DUP1 ISZERO PUSH2 0xF JUMPI PUSH0 DUP1 REVERT JUMPDEST POP PUSH1 0x4 CALLDATASIZE LT PUSH2 0x55 JUMPI PUSH0 CALLDATALOAD PUSH1 0xE0 SHR DUP1 PUSH4 0x715018A6 EQ PUSH2 0x59 JUMPI DUP1 PUSH4 0x8DA5CB5B EQ PUSH2 0x63 JUMPI DUP1 PUSH4 0xA2618C97 EQ PUSH2 0x85 JUMPI DUP1 PUSH4 0xF2FDE38B EQ PUSH2 0x98 JUMPI DUP1 PUSH4 0xF5BC4F3E EQ PUSH2 0xAB JUMPI JUMPDEST PUSH0 DUP1 REVERT JUMPDEST PUSH2 0x61 PUSH2 0xBE JUMP JUMPDEST STOP JUMPDEST PUSH0 SLOAD PUSH1 0x1 PUSH1 0x1 PUSH1 0xA0 SHL SUB AND JUMPDEST PUSH1 0x40 MLOAD PUSH2 0x7C SWAP2 SWAP1 PUSH2 0x322 JUMP JUMPDEST PUSH1 0x40 MLOAD DUP1 SWAP2 SUB SWAP1 RETURN JUMPDEST PUSH2 0x6F PUSH2 0x93 CALLDATASIZE PUSH1 0x4 PUSH2 0x336 JUMP JUMPDEST PUSH2 0xD1 JUMP JUMPDEST PUSH2 0x61 PUSH2 0xA6 CALLDATASIZE PUSH1 0x4 PUSH2 0x361 JUMP JUMPDEST PUSH2 0xF9 JUMP JUMPDEST PUSH2 0x61 PUSH2 0xB9 CALLDATASIZE PUSH1 0x4 PUSH2 0x422 JUMP JUMPDEST PUSH2 0x13F JUMP JUMPDEST PUSH2 0xC6 PUSH2 0x29A JUMP JUMPDEST PUSH2 0xCF PUSH0 PUSH2 0x2C6 JUMP JUMPDEST JUMP JUMPDEST PUSH1 0x1 DUP2 DUP2 SLOAD DUP2 LT PUSH2 0xE0 JUMPI PUSH0 DUP1 REVERT JUMPDEST PUSH0 SWAP2 DUP3 MSTORE PUSH1 0x20 SWAP1 SWAP2 KECCAK256 ADD SLOAD PUSH1 0x1 PUSH1 0x1 PUSH1 0xA0 SHL SUB AND SWAP1 POP DUP2 JUMP JUMPDEST PUSH2 0x101 PUSH2 0x29A JUMP JUMPDEST PUSH1 0x1 PUSH1 0x1 PUSH1 0xA0 SHL SUB DUP2 AND PUSH2 0x133 JUMPI PUSH0 PUSH1 0x40 MLOAD PUSH4 0x1E4FBDF7 PUSH1 0xE0 SHL DUP2 MSTORE PUSH1 0x4 ADD PUSH2 0x12A SWAP2 SWAP1 PUSH2 0x322 JUMP JUMPDEST PUSH1 0x40 MLOAD DUP1 SWAP2 SUB SWAP1 REVERT JUMPDEST PUSH2 0x13C DUP2 PUSH2 0x2C6 JUMP JUMPDEST POP JUMP JUMPDEST PUSH0 DUP8 DUP8 DUP8 DUP8 DUP8 DUP8 DUP8 PUSH1 0x40 MLOAD PUSH2 0x153 SWAP1 PUSH2 0x315 JUMP JUMPDEST PUSH2 0x163 SWAP8 SWAP7 SWAP6 SWAP5 SWAP4 SWAP3 SWAP2 SWAP1 PUSH2 0x503 JUMP JUMPDEST PUSH1 0x40 MLOAD DUP1 SWAP2 SUB SWAP1 PUSH0 CREATE DUP1 ISZERO DUP1 ISZERO PUSH2 0x17C JUMPI RETURNDATASIZE PUSH0 DUP1 RETURNDATACOPY RETURNDATASIZE PUSH0 REVERT JUMPDEST POP PUSH1 0x1 DUP1 SLOAD DUP1 DUP3 ADD DUP3 SSTORE PUSH0 SWAP2 SWAP1 SWAP2 MSTORE PUSH32 0xB10E2D527612073B26EECDFD717E6A320CF44B4AFAC2B0732D9FCBE2B7FA0CF6 ADD DUP1 SLOAD PUSH1 0x1 PUSH1 0x1 PUSH1 0xA0 SHL SUB NOT AND PUSH1 0x1 PUSH1 0x1 PUSH1 0xA0 SHL SUB DUP4 AND SWAP1 DUP2 OR SWAP1 SWAP2 SSTORE PUSH1 0x40 DUP1 MLOAD PUSH3 0xB1F509 PUSH1 0xE6 SHL DUP2 MSTORE SWAP1 MLOAD SWAP3 SWAP4 POP PUSH32 0x9A470F4FCF5DC527B01C8BBB39FC28084AEB2F9097CB38EA95F953378199BFFA SWAP3 DUP5 SWAP3 DUP11 SWAP3 SWAP1 SWAP2 PUSH4 0x2C7D4240 SWAP2 PUSH1 0x4 DUP1 DUP3 ADD SWAP3 PUSH1 0x20 SWAP3 SWAP1 SWAP2 SWAP1 DUP3 SWAP1 SUB ADD DUP2 DUP7 GAS STATICCALL ISZERO DUP1 ISZERO PUSH2 0x22C JUMPI RETURNDATASIZE PUSH0 DUP1 RETURNDATACOPY RETURNDATASIZE PUSH0 REVERT JUMPDEST POP POP POP POP PUSH1 0x40 MLOAD RETURNDATASIZE PUSH1 0x1F NOT PUSH1 0x1F DUP3 ADD AND DUP3 ADD DUP1 PUSH1 0x40 MSTORE POP DUP2 ADD SWAP1 PUSH2 0x250 SWAP2 SWAP1 PUSH2 0x560 JUMP JUMPDEST PUSH1 0x40 DUP1 MLOAD PUSH1 0x1 PUSH1 0x1 PUSH1 0xA0 SHL SUB SWAP5 DUP6 AND DUP2 MSTORE SWAP3 DUP5 AND PUSH1 0x20 DUP5 ADD MSTORE SWAP3 AND DUP2 DUP4 ADD MSTORE PUSH1 0x60 DUP2 ADD DUP8 SWAP1 MSTORE PUSH1 0x80 DUP2 ADD DUP7 SWAP1 MSTORE DUP5 ISZERO ISZERO PUSH1 0xA0 DUP3 ADD MSTORE SWAP1 MLOAD SWAP1 DUP2 SWAP1 SUB PUSH1 0xC0 ADD SWAP1 LOG1 POP POP POP POP POP POP POP POP JUMP JUMPDEST PUSH0 SLOAD PUSH1 0x1 PUSH1 0x1 PUSH1 0xA0 SHL SUB AND CALLER EQ PUSH2 0xCF JUMPI CALLER PUSH1 0x40 MLOAD PUSH4 0x118CDAA7 PUSH1 0xE0 SHL DUP2 MSTORE PUSH1 0x4 ADD PUSH2 0x12A SWAP2 SWAP1 PUSH2 0x322 JUMP JUMPDEST PUSH0 DUP1 SLOAD PUSH1 0x1 PUSH1 0x1 PUSH1 0xA0 SHL SUB DUP4 DUP2 AND PUSH1 0x1 PUSH1 0x1 PUSH1 0xA0 SHL SUB NOT DUP4 AND DUP2 OR DUP5 SSTORE PUSH1 0x40 MLOAD SWAP2 SWAP1 SWAP3 AND SWAP3 DUP4 SWAP2 PUSH32 0x8BE0079C531659141344CD1FD0A4F28419497F9722A3DAAFE3B4186F6B6457E0 SWAP2 SWAP1 LOG3 POP POP JUMP JUMPDEST PUSH2 0x2A89 DUP1 PUSH2 0x57C DUP4 CODECOPY ADD SWAP1 JUMP JUMPDEST PUSH1 0x1 PUSH1 0x1 PUSH1 0xA0 SHL SUB SWAP2 SWAP1 SWAP2 AND DUP2 MSTORE PUSH1 0x20 ADD SWAP1 JUMP JUMPDEST PUSH0 PUSH1 0x20 DUP3 DUP5 SUB SLT ISZERO PUSH2 0x346 JUMPI PUSH0 DUP1 REVERT JUMPDEST POP CALLDATALOAD SWAP2 SWAP1 POP JUMP JUMPDEST PUSH1 0x1 PUSH1 0x1 PUSH1 0xA0 SHL SUB DUP2 AND DUP2 EQ PUSH2 0x13C JUMPI PUSH0 DUP1 REVERT JUMPDEST PUSH0 PUSH1 0x20 DUP3 DUP5 SUB SLT ISZERO PUSH2 0x371 JUMPI PUSH0 DUP1 REVERT JUMPDEST DUP2 CALLDATALOAD PUSH2 0x37C DUP2 PUSH2 0x34D JUMP JUMPDEST SWAP4 SWAP3 POP POP POP JUMP JUMPDEST PUSH4 0x4E487B71 PUSH1 0xE0 SHL PUSH0 MSTORE PUSH1 0x41 PUSH1 0x4 MSTORE PUSH1 0x24 PUSH0 REVERT JUMPDEST PUSH0 DUP3 PUSH1 0x1F DUP4 ADD SLT PUSH2 0x3A6 JUMPI PUSH0 DUP1 REVERT JUMPDEST DUP2 CALLDATALOAD PUSH8 0xFFFFFFFFFFFFFFFF DUP2 GT ISZERO PUSH2 0x3C0 JUMPI PUSH2 0x3C0 PUSH2 0x383 JUMP JUMPDEST PUSH1 0x40 MLOAD PUSH1 0x1F DUP3 ADD PUSH1 0x1F NOT SWAP1 DUP2 AND PUSH1 0x3F ADD AND DUP2 ADD PUSH8 0xFFFFFFFFFFFFFFFF DUP2 GT DUP3 DUP3 LT OR ISZERO PUSH2 0x3EF JUMPI PUSH2 0x3EF PUSH2 0x383 JUMP JUMPDEST PUSH1 0x40 MSTORE DUP2 DUP2 MSTORE DUP4 DUP3 ADD PUSH1 0x20 ADD DUP6 LT ISZERO PUSH2 0x406 JUMPI PUSH0 DUP1 REVERT JUMPDEST DUP2 PUSH1 0x20 DUP6 ADD PUSH1 0x20 DUP4 ADD CALLDATACOPY PUSH0 SWAP2 DUP2 ADD PUSH1 0x20 ADD SWAP2 SWAP1 SWAP2 MSTORE SWAP4 SWAP3 POP POP POP JUMP JUMPDEST PUSH0 DUP1 PUSH0 DUP1 PUSH0 DUP1 PUSH0 PUSH1 0xE0 DUP9 DUP11 SUB SLT ISZERO PUSH2 0x438 JUMPI PUSH0 DUP1 REVERT JUMPDEST DUP8 CALLDATALOAD PUSH8 0xFFFFFFFFFFFFFFFF DUP2 GT ISZERO PUSH2 0x44E JUMPI PUSH0 DUP1 REVERT JUMPDEST PUSH2 0x45A DUP11 DUP3 DUP12 ADD PUSH2 0x397 JUMP JUMPDEST SWAP8 POP POP PUSH1 0x20 DUP9 ADD CALLDATALOAD PUSH8 0xFFFFFFFFFFFFFFFF DUP2 GT ISZERO PUSH2 0x476 JUMPI PUSH0 DUP1 REVERT JUMPDEST PUSH2 0x482 DUP11 DUP3 DUP12 ADD PUSH2 0x397 JUMP JUMPDEST SWAP7 POP POP PUSH1 0x40 DUP9 ADD CALLDATALOAD PUSH2 0x493 DUP2 PUSH2 0x34D JUMP JUMPDEST SWAP5 POP PUSH1 0x60 DUP9 ADD CALLDATALOAD PUSH2 0x4A3 DUP2 PUSH2 0x34D JUMP JUMPDEST SWAP4 POP PUSH1 0x80 DUP9 ADD CALLDATALOAD SWAP3 POP PUSH1 0xA0 DUP9 ADD CALLDATALOAD SWAP2 POP PUSH1 0xC0 DUP9 ADD CALLDATALOAD DUP1 ISZERO ISZERO DUP2 EQ PUSH2 0x4C5 JUMPI PUSH0 DUP1 REVERT JUMPDEST DUP1 SWAP2 POP POP SWAP3 SWAP6 SWAP9 SWAP2 SWAP5 SWAP8 POP SWAP3 SWAP6 POP JUMP JUMPDEST PUSH0 DUP2 MLOAD DUP1 DUP5 MSTORE DUP1 PUSH1 0x20 DUP5 ADD PUSH1 0x20 DUP7 ADD MCOPY PUSH0 PUSH1 0x20 DUP3 DUP7 ADD ADD MSTORE PUSH1 0x20 PUSH1 0x1F NOT PUSH1 0x1F DUP4 ADD AND DUP6 ADD ADD SWAP2 POP POP SWAP3 SWAP2 POP POP JUMP JUMPDEST PUSH1 0xE0 DUP2 MSTORE PUSH0 PUSH2 0x515 PUSH1 0xE0 DUP4 ADD DUP11 PUSH2 0x4D5 JUMP JUMPDEST DUP3 DUP2 SUB PUSH1 0x20 DUP5 ADD MSTORE PUSH2 0x527 DUP2 DUP11 PUSH2 0x4D5 JUMP JUMPDEST PUSH1 0x1 PUSH1 0x1 PUSH1 0xA0 SHL SUB SWAP9 DUP10 AND PUSH1 0x40 DUP6 ADD MSTORE SWAP7 SWAP1 SWAP8 AND PUSH1 0x60 DUP4 ADD MSTORE POP PUSH1 0x80 DUP2 ADD SWAP4 SWAP1 SWAP4 MSTORE PUSH1 0xA0 DUP4 ADD SWAP2 SWAP1 SWAP2 MSTORE ISZERO ISZERO PUSH1 0xC0 SWAP1 SWAP2 ADD MSTORE SWAP4 SWAP3 POP POP POP JUMP JUMPDEST PUSH0 PUSH1 0x20 DUP3 DUP5 SUB SLT ISZERO PUSH2 0x570 JUMPI PUSH0 DUP1 REVERT JUMPDEST DUP2 MLOAD PUSH2 0x37C DUP2 PUSH2 0x34D JUMP INVALID PUSH1 0x80 PUSH1 0x40 MSTORE CALLVALUE DUP1 ISZERO PUSH2 0xF JUMPI PUSH0 DUP1 REVERT JUMPDEST POP PUSH1 0x40 MLOAD PUSH2 0x2A89 CODESIZE SUB DUP1 PUSH2 0x2A89 DUP4 CODECOPY DUP2 ADD PUSH1 0x40 DUP2 SWAP1 MSTORE PUSH2 0x2E SWAP2 PUSH2 0x327 JUMP JUMPDEST DUP7 DUP7 DUP7 DUP7 DUP7 DUP7 DUP7 CALLER DUP8 DUP8 PUSH1 0x3 PUSH2 0x44 DUP4 DUP3 PUSH2 0x45C JUMP JUMPDEST POP PUSH1 0x4 PUSH2 0x51 DUP3 DUP3 PUSH2 0x45C JUMP JUMPDEST POP POP POP PUSH1 0x1 PUSH1 0x1 PUSH1 0xA0 SHL SUB DUP2 AND PUSH2 0x81 JUMPI PUSH1 0x40 MLOAD PUSH4 0x1E4FBDF7 PUSH1 0xE0 SHL DUP2 MSTORE PUSH0 PUSH1 0x4 DUP3 ADD MSTORE PUSH1 0x24 ADD PUSH1 0x40 MLOAD DUP1 SWAP2 SUB SWAP1 REVERT JUMPDEST PUSH2 0x8A DUP2 PUSH2 0x211 JUMP JUMPDEST POP PUSH1 0x1 PUSH1 0x6 SSTORE PUSH0 DUP3 SWAP1 SUB PUSH2 0xB1 JUMPI PUSH1 0x40 MLOAD PUSH4 0x134B031B PUSH1 0xE3 SHL DUP2 MSTORE PUSH1 0x4 ADD PUSH1 0x40 MLOAD DUP1 SWAP2 SUB SWAP1 REVERT JUMPDEST TIMESTAMP DUP4 LT ISZERO PUSH2 0xD2 JUMPI PUSH1 0x40 MLOAD PUSH4 0x7D9533A9 PUSH1 0xE1 SHL DUP2 MSTORE PUSH1 0x4 ADD PUSH1 0x40 MLOAD DUP1 SWAP2 SUB SWAP1 REVERT JUMPDEST PUSH1 0x9 SWAP3 SWAP1 SWAP3 SSTORE PUSH1 0xA SSTORE PUSH1 0x7 DUP1 SLOAD PUSH1 0x1 PUSH1 0x1 PUSH1 0xA0 SHL SUB NOT SWAP1 DUP2 AND PUSH1 0x1 PUSH1 0x1 PUSH1 0xA0 SHL SUB SWAP6 DUP7 AND SWAP1 DUP2 OR SWAP1 SWAP3 SSTORE PUSH1 0x8 DUP1 SLOAD DUP3 AND SWAP5 SWAP1 SWAP6 AND SWAP4 DUP5 OR SWAP1 SWAP5 SSTORE PUSH1 0xB DUP1 SLOAD PUSH1 0x1 PUSH1 0x1 PUSH1 0xA8 SHL SUB NOT AND SWAP3 ISZERO ISZERO PUSH2 0x100 PUSH1 0x1 PUSH1 0xA8 SHL SUB NOT AND SWAP3 SWAP1 SWAP3 OR PUSH2 0x100 SWAP1 SWAP2 MUL OR SWAP1 SSTORE PUSH1 0xC DUP1 SLOAD SWAP1 SWAP3 AND OR SWAP1 SSTORE POP POP PUSH1 0x40 MLOAD DUP8 SWAP1 DUP8 SWAP1 DUP8 SWAP1 DUP8 SWAP1 DUP8 SWAP1 DUP8 SWAP1 DUP8 SWAP1 PUSH2 0x15B SWAP1 PUSH2 0x262 JUMP JUMPDEST PUSH2 0x16B SWAP8 SWAP7 SWAP6 SWAP5 SWAP4 SWAP3 SWAP2 SWAP1 PUSH2 0x544 JUMP JUMPDEST PUSH1 0x40 MLOAD DUP1 SWAP2 SUB SWAP1 PUSH0 CREATE DUP1 ISZERO DUP1 ISZERO PUSH2 0x184 JUMPI RETURNDATASIZE PUSH0 DUP1 RETURNDATACOPY RETURNDATASIZE PUSH0 REVERT JUMPDEST POP PUSH1 0xE DUP1 SLOAD PUSH1 0x1 PUSH1 0x1 PUSH1 0xA0 SHL SUB SWAP3 DUP4 AND PUSH1 0x1 PUSH1 0x1 PUSH1 0xA0 SHL SUB NOT SWAP2 DUP3 AND DUP2 OR SWAP1 SWAP3 SSTORE PUSH1 0xD DUP1 SLOAD SWAP1 SWAP2 AND DUP3 OR SWAP1 SSTORE PUSH1 0x40 DUP1 MLOAD ADDRESS DUP2 MSTORE SWAP3 DUP9 AND PUSH1 0x20 DUP5 ADD MSTORE DUP3 ADD MSTORE PUSH1 0x60 DUP2 ADD DUP5 SWAP1 MSTORE PUSH1 0x80 DUP2 ADD DUP4 SWAP1 MSTORE DUP2 ISZERO ISZERO PUSH1 0xA0 DUP3 ADD MSTORE PUSH32 0x9A470F4FCF5DC527B01C8BBB39FC28084AEB2F9097CB38EA95F953378199BFFA SWAP1 PUSH1 0xC0 ADD PUSH1 0x40 MLOAD DUP1 SWAP2 SUB SWAP1 LOG1 POP POP POP POP POP POP POP PUSH2 0x5A1 JUMP JUMPDEST PUSH1 0x5 DUP1 SLOAD PUSH1 0x1 PUSH1 0x1 PUSH1 0xA0 SHL SUB DUP4 DUP2 AND PUSH1 0x1 PUSH1 0x1 PUSH1 0xA0 SHL SUB NOT DUP4 AND DUP2 OR SWAP1 SWAP4 SSTORE PUSH1 0x40 MLOAD SWAP2 AND SWAP2 SWAP1 DUP3 SWAP1 PUSH32 0x8BE0079C531659141344CD1FD0A4F28419497F9722A3DAAFE3B4186F6B6457E0 SWAP1 PUSH0 SWAP1 LOG3 POP POP JUMP JUMPDEST PUSH2 0x17D5 DUP1 PUSH2 0x12B4 DUP4 CODECOPY ADD SWAP1 JUMP JUMPDEST PUSH4 0x4E487B71 PUSH1 0xE0 SHL PUSH0 MSTORE PUSH1 0x41 PUSH1 0x4 MSTORE PUSH1 0x24 PUSH0 REVERT JUMPDEST PUSH0 DUP3 PUSH1 0x1F DUP4 ADD SLT PUSH2 0x292 JUMPI PUSH0 DUP1 REVERT JUMPDEST DUP2 MLOAD PUSH1 0x1 PUSH1 0x1 PUSH1 0x40 SHL SUB DUP2 GT ISZERO PUSH2 0x2AB JUMPI PUSH2 0x2AB PUSH2 0x26F JUMP JUMPDEST PUSH1 0x40 MLOAD PUSH1 0x1F DUP3 ADD PUSH1 0x1F NOT SWAP1 DUP2 AND PUSH1 0x3F ADD AND DUP2 ADD PUSH1 0x1 PUSH1 0x1 PUSH1 0x40 SHL SUB DUP2 GT DUP3 DUP3 LT OR ISZERO PUSH2 0x2D9 JUMPI PUSH2 0x2D9 PUSH2 0x26F JUMP JUMPDEST PUSH1 0x40 MSTORE DUP2 DUP2 MSTORE DUP4 DUP3 ADD PUSH1 0x20 ADD DUP6 LT ISZERO PUSH2 0x2F0 JUMPI PUSH0 DUP1 REVERT JUMPDEST DUP2 PUSH1 0x20 DUP6 ADD PUSH1 0x20 DUP4 ADD MCOPY PUSH0 SWAP2 DUP2 ADD PUSH1 0x20 ADD SWAP2 SWAP1 SWAP2 MSTORE SWAP4 SWAP3 POP POP POP JUMP JUMPDEST DUP1 MLOAD PUSH1 0x1 PUSH1 0x1 PUSH1 0xA0 SHL SUB DUP2 AND DUP2 EQ PUSH2 0x322 JUMPI PUSH0 DUP1 REVERT JUMPDEST SWAP2 SWAP1 POP JUMP JUMPDEST PUSH0 DUP1 PUSH0 DUP1 PUSH0 DUP1 PUSH0 PUSH1 0xE0 DUP9 DUP11 SUB SLT ISZERO PUSH2 0x33D JUMPI PUSH0 DUP1 REVERT JUMPDEST DUP8 MLOAD PUSH1 0x1 PUSH1 0x1 PUSH1 0x40 SHL SUB DUP2 GT ISZERO PUSH2 0x352 JUMPI PUSH0 DUP1 REVERT JUMPDEST PUSH2 0x35E DUP11 DUP3 DUP12 ADD PUSH2 0x283 JUMP JUMPDEST PUSH1 0x20 DUP11 ADD MLOAD SWAP1 SWAP9 POP SWAP1 POP PUSH1 0x1 PUSH1 0x1 PUSH1 0x40 SHL SUB DUP2 GT ISZERO PUSH2 0x37B JUMPI PUSH0 DUP1 REVERT JUMPDEST PUSH2 0x387 DUP11 DUP3 DUP12 ADD PUSH2 0x283 JUMP JUMPDEST SWAP7 POP POP PUSH2 0x396 PUSH1 0x40 DUP10 ADD PUSH2 0x30C JUMP JUMPDEST SWAP5 POP PUSH2 0x3A4 PUSH1 0x60 DUP10 ADD PUSH2 0x30C JUMP JUMPDEST PUSH1 0x80 DUP10 ADD MLOAD PUSH1 0xA0 DUP11 ADD MLOAD PUSH1 0xC0 DUP12 ADD MLOAD SWAP3 SWAP7 POP SWAP1 SWAP5 POP SWAP3 POP DUP1 ISZERO ISZERO DUP2 EQ PUSH2 0x3C8 JUMPI PUSH0 DUP1 REVERT JUMPDEST DUP1 SWAP2 POP POP SWAP3 SWAP6 SWAP9 SWAP2 SWAP5 SWAP8 POP SWAP3 SWAP6 POP JUMP JUMPDEST PUSH1 0x1 DUP2 DUP2 SHR SWAP1 DUP3 AND DUP1 PUSH2 0x3EC JUMPI PUSH1 0x7F DUP3 AND SWAP2 POP JUMPDEST PUSH1 0x20 DUP3 LT DUP2 SUB PUSH2 0x40A JUMPI PUSH4 0x4E487B71 PUSH1 0xE0 SHL PUSH0 MSTORE PUSH1 0x22 PUSH1 0x4 MSTORE PUSH1 0x24 PUSH0 REVERT JUMPDEST POP SWAP2 SWAP1 POP JUMP JUMPDEST PUSH1 0x1F DUP3 GT ISZERO PUSH2 0x457 JUMPI DUP1 PUSH0 MSTORE PUSH1 0x20 PUSH0 KECCAK256 PUSH1 0x1F DUP5 ADD PUSH1 0x5 SHR DUP2 ADD PUSH1 0x20 DUP6 LT ISZERO PUSH2 0x435 JUMPI POP DUP1 JUMPDEST PUSH1 0x1F DUP5 ADD PUSH1 0x5 SHR DUP3 ADD SWAP2 POP JUMPDEST DUP2 DUP2 LT ISZERO PUSH2 0x454 JUMPI PUSH0 DUP2 SSTORE PUSH1 0x1 ADD PUSH2 0x441 JUMP JUMPDEST POP POP JUMPDEST POP POP POP JUMP JUMPDEST DUP2 MLOAD PUSH1 0x1 PUSH1 0x1 PUSH1 0x40 SHL SUB DUP2 GT ISZERO PUSH2 0x475 JUMPI PUSH2 0x475 PUSH2 0x26F JUMP JUMPDEST PUSH2 0x489 DUP2 PUSH2 0x483 DUP5 SLOAD PUSH2 0x3D8 JUMP JUMPDEST DUP5 PUSH2 0x410 JUMP JUMPDEST PUSH1 0x20 PUSH1 0x1F DUP3 GT PUSH1 0x1 DUP2 EQ PUSH2 0x4BB JUMPI PUSH0 DUP4 ISZERO PUSH2 0x4A4 JUMPI POP DUP5 DUP3 ADD MLOAD JUMPDEST PUSH0 NOT PUSH1 0x3 DUP6 SWAP1 SHL SHR NOT AND PUSH1 0x1 DUP5 SWAP1 SHL OR DUP5 SSTORE PUSH2 0x454 JUMP JUMPDEST PUSH0 DUP5 DUP2 MSTORE PUSH1 0x20 DUP2 KECCAK256 PUSH1 0x1F NOT DUP6 AND SWAP2 JUMPDEST DUP3 DUP2 LT ISZERO PUSH2 0x4EA JUMPI DUP8 DUP6 ADD MLOAD DUP3 SSTORE PUSH1 0x20 SWAP5 DUP6 ADD SWAP5 PUSH1 0x1 SWAP1 SWAP3 ADD SWAP2 ADD PUSH2 0x4CA JUMP JUMPDEST POP DUP5 DUP3 LT ISZERO PUSH2 0x507 JUMPI DUP7 DUP5 ADD MLOAD PUSH0 NOT PUSH1 0x3 DUP8 SWAP1 SHL PUSH1 0xF8 AND SHR NOT AND DUP2 SSTORE JUMPDEST POP POP POP POP PUSH1 0x1 SWAP1 DUP2 SHL ADD SWAP1 SSTORE POP JUMP JUMPDEST PUSH0 DUP2 MLOAD DUP1 DUP5 MSTORE DUP1 PUSH1 0x20 DUP5 ADD PUSH1 0x20 DUP7 ADD MCOPY PUSH0 PUSH1 0x20 DUP3 DUP7 ADD ADD MSTORE PUSH1 0x20 PUSH1 0x1F NOT PUSH1 0x1F DUP4 ADD AND DUP6 ADD ADD SWAP2 POP POP SWAP3 SWAP2 POP POP JUMP JUMPDEST PUSH1 0xE0 DUP2 MSTORE PUSH0 PUSH2 0x556 PUSH1 0xE0 DUP4 ADD DUP11 PUSH2 0x516 JUMP JUMPDEST DUP3 DUP2 SUB PUSH1 0x20 DUP5 ADD MSTORE PUSH2 0x568 DUP2 DUP11 PUSH2 0x516 JUMP JUMPDEST PUSH1 0x1 PUSH1 0x1 PUSH1 0xA0 SHL SUB SWAP9 DUP10 AND PUSH1 0x40 DUP6 ADD MSTORE SWAP7 SWAP1 SWAP8 AND PUSH1 0x60 DUP4 ADD MSTORE POP PUSH1 0x80 DUP2 ADD SWAP4 SWAP1 SWAP4 MSTORE PUSH1 0xA0 DUP4 ADD SWAP2 SWAP1 SWAP2 MSTORE ISZERO ISZERO PUSH1 0xC0 SWAP1 SWAP2 ADD MSTORE SWAP4 SWAP3 POP POP POP JUMP JUMPDEST PUSH2 0xD06 DUP1 PUSH2 0x5AE PUSH0 CODECOPY PUSH0 RETURN INVALID PUSH1 0x80 PUSH1 0x40 MSTORE CALLVALUE DUP1 ISZERO PUSH2 0xF JUMPI PUSH0 DUP1 REVERT JUMPDEST POP PUSH1 0x4 CALLDATASIZE LT PUSH2 0x153 JUMPI PUSH0 CALLDATALOAD PUSH1 0xE0 SHR DUP1 PUSH4 0x95D89B41 GT PUSH2 0xBF JUMPI DUP1 PUSH4 0xB07F0A41 GT PUSH2 0x79 JUMPI DUP1 PUSH4 0xB07F0A41 EQ PUSH2 0x2BB JUMPI DUP1 PUSH4 0xD8DFEB45 EQ PUSH2 0x2CE JUMPI DUP1 PUSH4 0xDB006A75 EQ PUSH2 0x2E6 JUMPI DUP1 PUSH4 0xDD62ED3E EQ PUSH2 0x2F9 JUMPI DUP1 PUSH4 0xF2FDE38B EQ PUSH2 0x30C JUMPI DUP1 PUSH4 0xF3C274A6 EQ PUSH2 0x31F JUMPI PUSH0 DUP1 REVERT JUMPDEST DUP1 PUSH4 0x95D89B41 EQ PUSH2 0x25E JUMPI DUP1 PUSH4 0x9ACEA70D EQ PUSH2 0x266 JUMPI DUP1 PUSH4 0xA0712D68 EQ PUSH2 0x279 JUMPI DUP1 PUSH4 0xA9059CBB EQ PUSH2 0x28C JUMPI DUP1 PUSH4 0xAD7448BC EQ PUSH2 0x29F JUMPI DUP1 PUSH4 0xAD8F5008 EQ PUSH2 0x2B2 JUMPI PUSH0 DUP1 REVERT JUMPDEST DUP1 PUSH4 0x48D399E7 GT PUSH2 0x110 JUMPI DUP1 PUSH4 0x48D399E7 EQ PUSH2 0x1EC JUMPI DUP1 PUSH4 0x6F713C9C EQ PUSH2 0x1FF JUMPI DUP1 PUSH4 0x70A08231 EQ PUSH2 0x212 JUMPI DUP1 PUSH4 0x715018A6 EQ PUSH2 0x23A JUMPI DUP1 PUSH4 0x8DA5CB5B EQ PUSH2 0x244 JUMPI DUP1 PUSH4 0x8F620487 EQ PUSH2 0x255 JUMPI PUSH0 DUP1 REVERT JUMPDEST DUP1 PUSH4 0x6FDDE03 EQ PUSH2 0x157 JUMPI DUP1 PUSH4 0x95EA7B3 EQ PUSH2 0x175 JUMPI DUP1 PUSH4 0x18160DDD EQ PUSH2 0x198 JUMPI DUP1 PUSH4 0x23B872DD EQ PUSH2 0x1AA JUMPI DUP1 PUSH4 0x2C7D4240 EQ PUSH2 0x1BD JUMPI DUP1 PUSH4 0x313CE567 EQ PUSH2 0x1DD JUMPI JUMPDEST PUSH0 DUP1 REVERT JUMPDEST PUSH2 0x15F PUSH2 0x32C JUMP JUMPDEST PUSH1 0x40 MLOAD PUSH2 0x16C SWAP2 SWAP1 PUSH2 0xAFA JUMP JUMPDEST PUSH1 0x40 MLOAD DUP1 SWAP2 SUB SWAP1 RETURN JUMPDEST PUSH2 0x188 PUSH2 0x183 CALLDATASIZE PUSH1 0x4 PUSH2 0xB4A JUMP JUMPDEST PUSH2 0x3BC JUMP JUMPDEST PUSH1 0x40 MLOAD SWAP1 ISZERO ISZERO DUP2 MSTORE PUSH1 0x20 ADD PUSH2 0x16C JUMP JUMPDEST PUSH1 0x2 SLOAD JUMPDEST PUSH1 0x40 MLOAD SWAP1 DUP2 MSTORE PUSH1 0x20 ADD PUSH2 0x16C JUMP JUMPDEST PUSH2 0x188 PUSH2 0x1B8 CALLDATASIZE PUSH1 0x4 PUSH2 0xB72 JUMP JUMPDEST PUSH2 0x3D5 JUMP JUMPDEST PUSH1 0xD SLOAD PUSH2 0x1D0 SWAP1 PUSH1 0x1 PUSH1 0x1 PUSH1 0xA0 SHL SUB AND DUP2 JUMP JUMPDEST PUSH1 0x40 MLOAD PUSH2 0x16C SWAP2 SWAP1 PUSH2 0xBAC JUMP JUMPDEST PUSH1 0x40 MLOAD PUSH1 0x12 DUP2 MSTORE PUSH1 0x20 ADD PUSH2 0x16C JUMP JUMPDEST PUSH1 0x7 SLOAD PUSH2 0x1D0 SWAP1 PUSH1 0x1 PUSH1 0x1 PUSH1 0xA0 SHL SUB AND DUP2 JUMP JUMPDEST PUSH1 0xC SLOAD PUSH2 0x1D0 SWAP1 PUSH1 0x1 PUSH1 0x1 PUSH1 0xA0 SHL SUB AND DUP2 JUMP JUMPDEST PUSH2 0x19C PUSH2 0x220 CALLDATASIZE PUSH1 0x4 PUSH2 0xBC0 JUMP JUMPDEST PUSH1 0x1 PUSH1 0x1 PUSH1 0xA0 SHL SUB AND PUSH0 SWAP1 DUP2 MSTORE PUSH1 0x20 DUP2 SWAP1 MSTORE PUSH1 0x40 SWAP1 KECCAK256 SLOAD SWAP1 JUMP JUMPDEST PUSH2 0x242 PUSH2 0x3F8 JUMP JUMPDEST STOP JUMPDEST PUSH1 0x5 SLOAD PUSH1 0x1 PUSH1 0x1 PUSH1 0xA0 SHL SUB AND PUSH2 0x1D0 JUMP JUMPDEST PUSH2 0x19C PUSH1 0x9 SLOAD DUP2 JUMP JUMPDEST PUSH2 0x15F PUSH2 0x40B JUMP JUMPDEST PUSH1 0x8 SLOAD PUSH2 0x1D0 SWAP1 PUSH1 0x1 PUSH1 0x1 PUSH1 0xA0 SHL SUB AND DUP2 JUMP JUMPDEST PUSH2 0x242 PUSH2 0x287 CALLDATASIZE PUSH1 0x4 PUSH2 0xBE0 JUMP JUMPDEST PUSH2 0x41A JUMP JUMPDEST PUSH2 0x188 PUSH2 0x29A CALLDATASIZE PUSH1 0x4 PUSH2 0xB4A JUMP JUMPDEST PUSH2 0x4BC JUMP JUMPDEST PUSH1 0xE SLOAD PUSH2 0x1D0 SWAP1 PUSH1 0x1 PUSH1 0x1 PUSH1 0xA0 SHL SUB AND DUP2 JUMP JUMPDEST PUSH2 0x19C PUSH1 0xA SLOAD DUP2 JUMP JUMPDEST PUSH2 0x242 PUSH2 0x2C9 CALLDATASIZE PUSH1 0x4 PUSH2 0xBE0 JUMP JUMPDEST PUSH2 0x4C9 JUMP JUMPDEST PUSH1 0xB SLOAD PUSH2 0x1D0 SWAP1 PUSH2 0x100 SWAP1 DIV PUSH1 0x1 PUSH1 0x1 PUSH1 0xA0 SHL SUB AND DUP2 JUMP JUMPDEST PUSH2 0x242 PUSH2 0x2F4 CALLDATASIZE PUSH1 0x4 PUSH2 0xBE0 JUMP JUMPDEST PUSH2 0x552 JUMP JUMPDEST PUSH2 0x19C PUSH2 0x307 CALLDATASIZE PUSH1 0x4 PUSH2 0xBF7 JUMP JUMPDEST PUSH2 0x6D5 JUMP JUMPDEST PUSH2 0x242 PUSH2 0x31A CALLDATASIZE PUSH1 0x4 PUSH2 0xBC0 JUMP JUMPDEST PUSH2 0x6FF JUMP JUMPDEST PUSH1 0xB SLOAD PUSH2 0x188 SWAP1 PUSH1 0xFF AND DUP2 JUMP JUMPDEST PUSH1 0x60 PUSH1 0x3 DUP1 SLOAD PUSH2 0x33B SWAP1 PUSH2 0xC28 JUMP JUMPDEST DUP1 PUSH1 0x1F ADD PUSH1 0x20 DUP1 SWAP2 DIV MUL PUSH1 0x20 ADD PUSH1 0x40 MLOAD SWAP1 DUP2 ADD PUSH1 0x40 MSTORE DUP1 SWAP3 SWAP2 SWAP1 DUP2 DUP2 MSTORE PUSH1 0x20 ADD DUP3 DUP1 SLOAD PUSH2 0x367 SWAP1 PUSH2 0xC28 JUMP JUMPDEST DUP1 ISZERO PUSH2 0x3B2 JUMPI DUP1 PUSH1 0x1F LT PUSH2 0x389 JUMPI PUSH2 0x100 DUP1 DUP4 SLOAD DIV MUL DUP4 MSTORE SWAP2 PUSH1 0x20 ADD SWAP2 PUSH2 0x3B2 JUMP JUMPDEST DUP3 ADD SWAP2 SWAP1 PUSH0 MSTORE PUSH1 0x20 PUSH0 KECCAK256 SWAP1 JUMPDEST DUP2 SLOAD DUP2 MSTORE SWAP1 PUSH1 0x1 ADD SWAP1 PUSH1 0x20 ADD DUP1 DUP4 GT PUSH2 0x395 JUMPI DUP3 SWAP1 SUB PUSH1 0x1F AND DUP3 ADD SWAP2 JUMPDEST POP POP POP POP POP SWAP1 POP SWAP1 JUMP JUMPDEST PUSH0 CALLER PUSH2 0x3C9 DUP2 DUP6 DUP6 PUSH2 0x742 JUMP JUMPDEST PUSH1 0x1 SWAP2 POP POP JUMPDEST SWAP3 SWAP2 POP POP JUMP JUMPDEST PUSH0 CALLER PUSH2 0x3E2 DUP6 DUP3 DUP6 PUSH2 0x754 JUMP JUMPDEST PUSH2 0x3ED DUP6 DUP6 DUP6 PUSH2 0x7A4 JUMP JUMPDEST POP PUSH1 0x1 SWAP5 SWAP4 POP POP POP POP JUMP JUMPDEST PUSH2 0x400 PUSH2 0x801 JUMP JUMPDEST PUSH2 0x409 PUSH0 PUSH2 0x82E JUMP JUMPDEST JUMP JUMPDEST PUSH1 0x60 PUSH1 0x4 DUP1 SLOAD PUSH2 0x33B SWAP1 PUSH2 0xC28 JUMP JUMPDEST PUSH2 0x422 PUSH2 0x87F JUMP JUMPDEST DUP1 PUSH1 0x1 DUP2 LT ISZERO PUSH2 0x445 JUMPI PUSH1 0x40 MLOAD PUSH4 0x162908E3 PUSH1 0xE1 SHL DUP2 MSTORE PUSH1 0x4 ADD PUSH1 0x40 MLOAD DUP1 SWAP2 SUB SWAP1 REVERT JUMPDEST PUSH2 0x44F CALLER DUP4 PUSH2 0x8A9 JUMP JUMPDEST PUSH1 0xE SLOAD PUSH1 0x40 MLOAD PUSH4 0x40C10F19 PUSH1 0xE0 SHL DUP2 MSTORE PUSH1 0x1 PUSH1 0x1 PUSH1 0xA0 SHL SUB SWAP1 SWAP2 AND SWAP1 PUSH4 0x40C10F19 SWAP1 PUSH2 0x481 SWAP1 CALLER SWAP1 DUP7 SWAP1 PUSH1 0x4 ADD PUSH2 0xC60 JUMP JUMPDEST PUSH0 PUSH1 0x40 MLOAD DUP1 DUP4 SUB DUP2 PUSH0 DUP8 DUP1 EXTCODESIZE ISZERO DUP1 ISZERO PUSH2 0x498 JUMPI PUSH0 DUP1 REVERT JUMPDEST POP GAS CALL ISZERO DUP1 ISZERO PUSH2 0x4AA JUMPI RETURNDATASIZE PUSH0 DUP1 RETURNDATACOPY RETURNDATASIZE PUSH0 REVERT JUMPDEST POP POP POP POP POP PUSH2 0x4B9 PUSH1 0x1 PUSH1 0x6 SSTORE JUMP JUMPDEST POP JUMP JUMPDEST PUSH0 CALLER PUSH2 0x3C9 DUP2 DUP6 DUP6 PUSH2 0x7A4 JUMP JUMPDEST PUSH1 0x9 SLOAD TIMESTAMP LT PUSH2 0x4EB JUMPI PUSH1 0x40 MLOAD PUSH4 0x790D4E3 PUSH1 0xE0 SHL DUP2 MSTORE PUSH1 0x4 ADD PUSH1 0x40 MLOAD DUP1 SWAP2 SUB SWAP1 REVERT JUMPDEST PUSH2 0x4F3 PUSH2 0x87F JUMP JUMPDEST DUP1 PUSH1 0x1 DUP2 LT ISZERO PUSH2 0x516 JUMPI PUSH1 0x40 MLOAD PUSH4 0x162908E3 PUSH1 0xE1 SHL DUP2 MSTORE PUSH1 0x4 ADD PUSH1 0x40 MLOAD DUP1 SWAP2 SUB SWAP1 REVERT JUMPDEST PUSH2 0x520 CALLER DUP4 PUSH2 0x8E1 JUMP JUMPDEST PUSH1 0xE SLOAD PUSH1 0x40 MLOAD PUSH4 0xDD068EC1 PUSH1 0xE0 SHL DUP2 MSTORE PUSH1 0x1 PUSH1 0x1 PUSH1 0xA0 SHL SUB SWAP1 SWAP2 AND SWAP1 PUSH4 0xDD068EC1 SWAP1 PUSH2 0x481 SWAP1 CALLER SWAP1 DUP7 SWAP1 PUSH1 0x4 ADD PUSH2 0xC60 JUMP JUMPDEST PUSH1 0x9 SLOAD TIMESTAMP LT PUSH2 0x574 JUMPI PUSH1 0x40 MLOAD PUSH4 0x790D4E3 PUSH1 0xE0 SHL DUP2 MSTORE PUSH1 0x4 ADD PUSH1 0x40 MLOAD DUP1 SWAP2 SUB SWAP1 REVERT JUMPDEST PUSH2 0x57C PUSH2 0x87F JUMP JUMPDEST CALLER PUSH0 DUP2 DUP2 MSTORE PUSH1 0x20 DUP2 SWAP1 MSTORE PUSH1 0x40 SWAP1 KECCAK256 SLOAD DUP3 SWAP1 DUP2 GT ISZERO PUSH2 0x5AD JUMPI PUSH1 0x40 MLOAD PUSH4 0x1E9ACF17 PUSH1 0xE3 SHL DUP2 MSTORE PUSH1 0x4 ADD PUSH1 0x40 MLOAD DUP1 SWAP2 SUB SWAP1 REVERT JUMPDEST DUP3 PUSH1 0x1 DUP2 LT ISZERO PUSH2 0x5D0 JUMPI PUSH1 0x40 MLOAD PUSH4 0x162908E3 PUSH1 0xE1 SHL DUP2 MSTORE PUSH1 0x4 ADD PUSH1 0x40 MLOAD DUP1 SWAP2 SUB SWAP1 REVERT JUMPDEST PUSH1 0xE SLOAD PUSH1 0x40 MLOAD PUSH4 0x70A08231 PUSH1 0xE0 SHL DUP2 MSTORE DUP6 SWAP2 PUSH1 0x1 PUSH1 0x1 PUSH1 0xA0 SHL SUB AND SWAP1 PUSH4 0x70A08231 SWAP1 PUSH2 0x600 SWAP1 CALLER SWAP1 PUSH1 0x4 ADD PUSH2 0xBAC JUMP JUMPDEST PUSH1 0x20 PUSH1 0x40 MLOAD DUP1 DUP4 SUB DUP2 DUP7 GAS STATICCALL ISZERO DUP1 ISZERO PUSH2 0x61B JUMPI RETURNDATASIZE PUSH0 DUP1 RETURNDATACOPY RETURNDATASIZE PUSH0 REVERT JUMPDEST POP POP POP POP PUSH1 0x40 MLOAD RETURNDATASIZE PUSH1 0x1F NOT PUSH1 0x1F DUP3 ADD AND DUP3 ADD DUP1 PUSH1 0x40 MSTORE POP DUP2 ADD SWAP1 PUSH2 0x63F SWAP2 SWAP1 PUSH2 0xC79 JUMP JUMPDEST LT ISZERO PUSH2 0x65E JUMPI PUSH1 0x40 MLOAD PUSH4 0x1E9ACF17 PUSH1 0xE3 SHL DUP2 MSTORE PUSH1 0x4 ADD PUSH1 0x40 MLOAD DUP1 SWAP2 SUB SWAP1 REVERT JUMPDEST PUSH1 0xE SLOAD PUSH1 0x40 MLOAD PUSH4 0xE0CA59BB PUSH1 0xE0 SHL DUP2 MSTORE CALLER SWAP2 PUSH1 0x1 PUSH1 0x1 PUSH1 0xA0 SHL SUB AND SWAP1 PUSH4 0xE0CA59BB SWAP1 PUSH2 0x690 SWAP1 DUP5 SWAP1 DUP10 SWAP1 PUSH1 0x4 ADD PUSH2 0xC60 JUMP JUMPDEST PUSH0 PUSH1 0x40 MLOAD DUP1 DUP4 SUB DUP2 PUSH0 DUP8 DUP1 EXTCODESIZE ISZERO DUP1 ISZERO PUSH2 0x6A7 JUMPI PUSH0 DUP1 REVERT JUMPDEST POP GAS CALL ISZERO DUP1 ISZERO PUSH2 0x6B9 JUMPI RETURNDATASIZE PUSH0 DUP1 RETURNDATACOPY RETURNDATASIZE PUSH0 REVERT JUMPDEST POP POP POP POP PUSH2 0x6C7 DUP2 DUP7 PUSH2 0x8E1 JUMP JUMPDEST POP POP POP POP PUSH2 0x4B9 PUSH1 0x1 PUSH1 0x6 SSTORE JUMP JUMPDEST PUSH1 0x1 PUSH1 0x1 PUSH1 0xA0 SHL SUB SWAP2 DUP3 AND PUSH0 SWAP1 DUP2 MSTORE PUSH1 0x1 PUSH1 0x20 SWAP1 DUP2 MSTORE PUSH1 0x40 DUP1 DUP4 KECCAK256 SWAP4 SWAP1 SWAP5 AND DUP3 MSTORE SWAP2 SWAP1 SWAP2 MSTORE KECCAK256 SLOAD SWAP1 JUMP JUMPDEST PUSH2 0x707 PUSH2 0x801 JUMP JUMPDEST PUSH1 0x1 PUSH1 0x1 PUSH1 0xA0 SHL SUB DUP2 AND PUSH2 0x739 JUMPI PUSH0 PUSH1 0x40 MLOAD PUSH4 0x1E4FBDF7 PUSH1 0xE0 SHL DUP2 MSTORE PUSH1 0x4 ADD PUSH2 0x730 SWAP2 SWAP1 PUSH2 0xBAC JUMP JUMPDEST PUSH1 0x40 MLOAD DUP1 SWAP2 SUB SWAP1 REVERT JUMPDEST PUSH2 0x4B9 DUP2 PUSH2 0x82E JUMP JUMPDEST PUSH2 0x74F DUP4 DUP4 DUP4 PUSH1 0x1 PUSH2 0x915 JUMP JUMPDEST POP POP POP JUMP JUMPDEST PUSH0 PUSH2 0x75F DUP5 DUP5 PUSH2 0x6D5 JUMP JUMPDEST SWAP1 POP PUSH0 NOT DUP2 EQ PUSH2 0x79E JUMPI DUP2 DUP2 LT ISZERO PUSH2 0x790 JUMPI DUP3 DUP2 DUP4 PUSH1 0x40 MLOAD PUSH4 0x7DC7A0D9 PUSH1 0xE1 SHL DUP2 MSTORE PUSH1 0x4 ADD PUSH2 0x730 SWAP4 SWAP3 SWAP2 SWAP1 PUSH2 0xC90 JUMP JUMPDEST PUSH2 0x79E DUP5 DUP5 DUP5 DUP5 SUB PUSH0 PUSH2 0x915 JUMP JUMPDEST POP POP POP POP JUMP JUMPDEST PUSH1 0x1 PUSH1 0x1 PUSH1 0xA0 SHL SUB DUP4 AND PUSH2 0x7CD JUMPI PUSH0 PUSH1 0x40 MLOAD PUSH4 0x4B637E8F PUSH1 0xE1 SHL DUP2 MSTORE PUSH1 0x4 ADD PUSH2 0x730 SWAP2 SWAP1 PUSH2 0xBAC JUMP JUMPDEST PUSH1 0x1 PUSH1 0x1 PUSH1 0xA0 SHL SUB DUP3 AND PUSH2 0x7F6 JUMPI PUSH0 PUSH1 0x40 MLOAD PUSH4 0xEC442F05 PUSH1 0xE0 SHL DUP2 MSTORE PUSH1 0x4 ADD PUSH2 0x730 SWAP2 SWAP1 PUSH2 0xBAC JUMP JUMPDEST PUSH2 0x74F DUP4 DUP4 DUP4 PUSH2 0x9E7 JUMP JUMPDEST PUSH1 0x5 SLOAD PUSH1 0x1 PUSH1 0x1 PUSH1 0xA0 SHL SUB AND CALLER EQ PUSH2 0x409 JUMPI CALLER PUSH1 0x40 MLOAD PUSH4 0x118CDAA7 PUSH1 0xE0 SHL DUP2 MSTORE PUSH1 0x4 ADD PUSH2 0x730 SWAP2 SWAP1 PUSH2 0xBAC JUMP JUMPDEST PUSH1 0x5 DUP1 SLOAD PUSH1 0x1 PUSH1 0x1 PUSH1 0xA0 SHL SUB DUP4 DUP2 AND PUSH1 0x1 PUSH1 0x1 PUSH1 0xA0 SHL SUB NOT DUP4 AND DUP2 OR SWAP1 SWAP4 SSTORE PUSH1 0x40 MLOAD SWAP2 AND SWAP2 SWAP1 DUP3 SWAP1 PUSH32 0x8BE0079C531659141344CD1FD0A4F28419497F9722A3DAAFE3B4186F6B6457E0 SWAP1 PUSH0 SWAP1 LOG3 POP POP JUMP JUMPDEST PUSH1 0x2 PUSH1 0x6 SLOAD SUB PUSH2 0x8A2 JUMPI PUSH1 0x40 MLOAD PUSH4 0x3EE5AEB5 PUSH1 0xE0 SHL DUP2 MSTORE PUSH1 0x4 ADD PUSH1 0x40 MLOAD DUP1 SWAP2 SUB SWAP1 REVERT JUMPDEST PUSH1 0x2 PUSH1 0x6 SSTORE JUMP JUMPDEST PUSH1 0x1 PUSH1 0x1 PUSH1 0xA0 SHL SUB DUP3 AND PUSH2 0x8D2 JUMPI PUSH0 PUSH1 0x40 MLOAD PUSH4 0xEC442F05 PUSH1 0xE0 SHL DUP2 MSTORE PUSH1 0x4 ADD PUSH2 0x730 SWAP2 SWAP1 PUSH2 0xBAC JUMP JUMPDEST PUSH2 0x8DD PUSH0 DUP4 DUP4 PUSH2 0x9E7 JUMP JUMPDEST POP POP JUMP JUMPDEST PUSH1 0x1 PUSH1 0x1 PUSH1 0xA0 SHL SUB DUP3 AND PUSH2 0x90A JUMPI PUSH0 PUSH1 0x40 MLOAD PUSH4 0x4B637E8F PUSH1 0xE1 SHL DUP2 MSTORE PUSH1 0x4 ADD PUSH2 0x730 SWAP2 SWAP1 PUSH2 0xBAC JUMP JUMPDEST PUSH2 0x8DD DUP3 PUSH0 DUP4 PUSH2 0x9E7 JUMP JUMPDEST PUSH1 0x1 PUSH1 0x1 PUSH1 0xA0 SHL SUB DUP5 AND PUSH2 0x93E JUMPI PUSH0 PUSH1 0x40 MLOAD PUSH4 0xE602DF05 PUSH1 0xE0 SHL DUP2 MSTORE PUSH1 0x4 ADD PUSH2 0x730 SWAP2 SWAP1 PUSH2 0xBAC JUMP JUMPDEST PUSH1 0x1 PUSH1 0x1 PUSH1 0xA0 SHL SUB DUP4 AND PUSH2 0x967 JUMPI PUSH0 PUSH1 0x40 MLOAD PUSH4 0x4A1406B1 PUSH1 0xE1 SHL DUP2 MSTORE PUSH1 0x4 ADD PUSH2 0x730 SWAP2 SWAP1 PUSH2 0xBAC JUMP JUMPDEST PUSH1 0x1 PUSH1 0x1 PUSH1 0xA0 SHL SUB DUP1 DUP6 AND PUSH0 SWAP1 DUP2 MSTORE PUSH1 0x1 PUSH1 0x20 SWAP1 DUP2 MSTORE PUSH1 0x40 DUP1 DUP4 KECCAK256 SWAP4 DUP8 AND DUP4 MSTORE SWAP3 SWAP1 MSTORE KECCAK256 DUP3 SWAP1 SSTORE DUP1 ISZERO PUSH2 0x79E JUMPI DUP3 PUSH1 0x1 PUSH1 0x1 PUSH1 0xA0 SHL SUB AND DUP5 PUSH1 0x1 PUSH1 0x1 PUSH1 0xA0 SHL SUB AND PUSH32 0x8C5BE1E5EBEC7D5BD14F71427D1E84F3DD0314C0F7B2291E5B200AC8C7C3B925 DUP5 PUSH1 0x40 MLOAD PUSH2 0x9D9 SWAP2 DUP2 MSTORE PUSH1 0x20 ADD SWAP1 JUMP JUMPDEST PUSH1 0x40 MLOAD DUP1 SWAP2 SUB SWAP1 LOG3 POP POP POP POP JUMP JUMPDEST PUSH1 0x1 PUSH1 0x1 PUSH1 0xA0 SHL SUB DUP4 AND PUSH2 0xA11 JUMPI DUP1 PUSH1 0x2 PUSH0 DUP3 DUP3 SLOAD PUSH2 0xA06 SWAP2 SWAP1 PUSH2 0xCB1 JUMP JUMPDEST SWAP1 SWAP2 SSTORE POP PUSH2 0xA6E SWAP1 POP JUMP JUMPDEST PUSH1 0x1 PUSH1 0x1 PUSH1 0xA0 SHL SUB DUP4 AND PUSH0 SWAP1 DUP2 MSTORE PUSH1 0x20 DUP2 SWAP1 MSTORE PUSH1 0x40 SWAP1 KECCAK256 SLOAD DUP2 DUP2 LT ISZERO PUSH2 0xA50 JUMPI DUP4 DUP2 DUP4 PUSH1 0x40 MLOAD PUSH4 0x391434E3 PUSH1 0xE2 SHL DUP2 MSTORE PUSH1 0x4 ADD PUSH2 0x730 SWAP4 SWAP3 SWAP2 SWAP1 PUSH2 0xC90 JUMP JUMPDEST PUSH1 0x1 PUSH1 0x1 PUSH1 0xA0 SHL SUB DUP5 AND PUSH0 SWAP1 DUP2 MSTORE PUSH1 0x20 DUP2 SWAP1 MSTORE PUSH1 0x40 SWAP1 KECCAK256 SWAP1 DUP3 SWAP1 SUB SWAP1 SSTORE JUMPDEST PUSH1 0x1 PUSH1 0x1 PUSH1 0xA0 SHL SUB DUP3 AND PUSH2 0xA8A JUMPI PUSH1 0x2 DUP1 SLOAD DUP3 SWAP1 SUB SWAP1 SSTORE PUSH2 0xAA8 JUMP JUMPDEST PUSH1 0x1 PUSH1 0x1 PUSH1 0xA0 SHL SUB DUP3 AND PUSH0 SWAP1 DUP2 MSTORE PUSH1 0x20 DUP2 SWAP1 MSTORE PUSH1 0x40 SWAP1 KECCAK256 DUP1 SLOAD DUP3 ADD SWAP1 SSTORE JUMPDEST DUP2 PUSH1 0x1 PUSH1 0x1 PUSH1 0xA0 SHL SUB AND DUP4 PUSH1 0x1 PUSH1 0x1 PUSH1 0xA0 SHL SUB AND PUSH32 0xDDF252AD1BE2C89B69C2B068FC378DAA952BA7F163C4A11628F55A4DF523B3EF DUP4 PUSH1 0x40 MLOAD PUSH2 0xAED SWAP2 DUP2 MSTORE PUSH1 0x20 ADD SWAP1 JUMP JUMPDEST PUSH1 0x40 MLOAD DUP1 SWAP2 SUB SWAP1 LOG3 POP POP POP JUMP JUMPDEST PUSH1 0x20 DUP2 MSTORE PUSH0 DUP3 MLOAD DUP1 PUSH1 0x20 DUP5 ADD MSTORE DUP1 PUSH1 0x20 DUP6 ADD PUSH1 0x40 DUP6 ADD MCOPY PUSH0 PUSH1 0x40 DUP3 DUP6 ADD ADD MSTORE PUSH1 0x40 PUSH1 0x1F NOT PUSH1 0x1F DUP4 ADD AND DUP5 ADD ADD SWAP2 POP POP SWAP3 SWAP2 POP POP JUMP JUMPDEST DUP1 CALLDATALOAD PUSH1 0x1 PUSH1 0x1 PUSH1 0xA0 SHL SUB DUP2 AND DUP2 EQ PUSH2 0xB45 JUMPI PUSH0 DUP1 REVERT JUMPDEST SWAP2 SWAP1 POP JUMP JUMPDEST PUSH0 DUP1 PUSH1 0x40 DUP4 DUP6 SUB SLT ISZERO PUSH2 0xB5B JUMPI PUSH0 DUP1 REVERT JUMPDEST PUSH2 0xB64 DUP4 PUSH2 0xB2F JUMP JUMPDEST SWAP5 PUSH1 0x20 SWAP4 SWAP1 SWAP4 ADD CALLDATALOAD SWAP4 POP POP POP JUMP JUMPDEST PUSH0 DUP1 PUSH0 PUSH1 0x60 DUP5 DUP7 SUB SLT ISZERO PUSH2 0xB84 JUMPI PUSH0 DUP1 REVERT JUMPDEST PUSH2 0xB8D DUP5 PUSH2 0xB2F JUMP JUMPDEST SWAP3 POP PUSH2 0xB9B PUSH1 0x20 DUP6 ADD PUSH2 0xB2F JUMP JUMPDEST SWAP3 SWAP6 SWAP3 SWAP5 POP POP POP PUSH1 0x40 SWAP2 SWAP1 SWAP2 ADD CALLDATALOAD SWAP1 JUMP JUMPDEST PUSH1 0x1 PUSH1 0x1 PUSH1 0xA0 SHL SUB SWAP2 SWAP1 SWAP2 AND DUP2 MSTORE PUSH1 0x20 ADD SWAP1 JUMP JUMPDEST PUSH0 PUSH1 0x20 DUP3 DUP5 SUB SLT ISZERO PUSH2 0xBD0 JUMPI PUSH0 DUP1 REVERT JUMPDEST PUSH2 0xBD9 DUP3 PUSH2 0xB2F JUMP JUMPDEST SWAP4 SWAP3 POP POP POP JUMP JUMPDEST PUSH0 PUSH1 0x20 DUP3 DUP5 SUB SLT ISZERO PUSH2 0xBF0 JUMPI PUSH0 DUP1 REVERT JUMPDEST POP CALLDATALOAD SWAP2 SWAP1 POP JUMP JUMPDEST PUSH0 DUP1 PUSH1 0x40 DUP4 DUP6 SUB SLT ISZERO PUSH2 0xC08 JUMPI PUSH0 DUP1 REVERT JUMPDEST PUSH2 0xC11 DUP4 PUSH2 0xB2F JUMP JUMPDEST SWAP2 POP PUSH2 0xC1F PUSH1 0x20 DUP5 ADD PUSH2 0xB2F JUMP JUMPDEST SWAP1 POP SWAP3 POP SWAP3 SWAP1 POP JUMP JUMPDEST PUSH1 0x1 DUP2 DUP2 SHR SWAP1 DUP3 AND DUP1 PUSH2 0xC3C JUMPI PUSH1 0x7F DUP3 AND SWAP2 POP JUMPDEST PUSH1 0x20 DUP3 LT DUP2 SUB PUSH2 0xC5A JUMPI PUSH4 0x4E487B71 PUSH1 0xE0 SHL PUSH0 MSTORE PUSH1 0x22 PUSH1 0x4 MSTORE PUSH1 0x24 PUSH0 REVERT JUMPDEST POP SWAP2 SWAP1 POP JUMP JUMPDEST PUSH1 0x1 PUSH1 0x1 PUSH1 0xA0 SHL SUB SWAP3 SWAP1 SWAP3 AND DUP3 MSTORE PUSH1 0x20 DUP3 ADD MSTORE PUSH1 0x40 ADD SWAP1 JUMP JUMPDEST PUSH0 PUSH1 0x20 DUP3 DUP5 SUB SLT ISZERO PUSH2 0xC89 JUMPI PUSH0 DUP1 REVERT JUMPDEST POP MLOAD SWAP2 SWAP1 POP JUMP JUMPDEST PUSH1 0x1 PUSH1 0x1 PUSH1 0xA0 SHL SUB SWAP4 SWAP1 SWAP4 AND DUP4 MSTORE PUSH1 0x20 DUP4 ADD SWAP2 SWAP1 SWAP2 MSTORE PUSH1 0x40 DUP3 ADD MSTORE PUSH1 0x60 ADD SWAP1 JUMP JUMPDEST DUP1 DUP3 ADD DUP1 DUP3 GT ISZERO PUSH2 0x3CF JUMPI PUSH4 0x4E487B71 PUSH1 0xE0 SHL PUSH0 MSTORE PUSH1 0x11 PUSH1 0x4 MSTORE PUSH1 0x24 PUSH0 REVERT INVALID LOG2 PUSH5 0x6970667358 0x22 SLT KECCAK256 0x21 MCOPY CALLDATASIZE NUMBER PUSH14 0x880394A98AFB1D09146D7420C825 0xA6 NUMBER PUSH26 0xFAC19F06847EEE2C683364736F6C634300081A00336080604052 CALLVALUE DUP1 ISZERO PUSH2 0xF JUMPI PUSH0 DUP1 REVERT JUMPDEST POP PUSH1 0x40 MLOAD PUSH2 0x17D5 CODESIZE SUB DUP1 PUSH2 0x17D5 DUP4 CODECOPY DUP2 ADD PUSH1 0x40 DUP2 SWAP1 MSTORE PUSH2 0x2E SWAP2 PUSH2 0x265 JUMP JUMPDEST DUP7 DUP7 DUP7 DUP7 DUP7 DUP7 DUP7 CALLER DUP8 DUP8 PUSH1 0x3 PUSH2 0x44 DUP4 DUP3 PUSH2 0x39A JUMP JUMPDEST POP PUSH1 0x4 PUSH2 0x51 DUP3 DUP3 PUSH2 0x39A JUMP JUMPDEST POP POP POP PUSH1 0x1 PUSH1 0x1 PUSH1 0xA0 SHL SUB DUP2 AND PUSH2 0x81 JUMPI PUSH1 0x40 MLOAD PUSH4 0x1E4FBDF7 PUSH1 0xE0 SHL DUP2 MSTORE PUSH0 PUSH1 0x4 DUP3 ADD MSTORE PUSH1 0x24 ADD PUSH1 0x40 MLOAD DUP1 SWAP2 SUB SWAP1 REVERT JUMPDEST PUSH2 0x8A DUP2 PUSH2 0x15C JUMP JUMPDEST POP PUSH1 0x1 PUSH1 0x6 SSTORE PUSH0 DUP3 SWAP1 SUB PUSH2 0xB1 JUMPI PUSH1 0x40 MLOAD PUSH4 0x134B031B PUSH1 0xE3 SHL DUP2 MSTORE PUSH1 0x4 ADD PUSH1 0x40 MLOAD DUP1 SWAP2 SUB SWAP1 REVERT JUMPDEST TIMESTAMP DUP4 LT ISZERO PUSH2 0xD2 JUMPI PUSH1 0x40 MLOAD PUSH4 0x7D9533A9 PUSH1 0xE1 SHL DUP2 MSTORE PUSH1 0x4 ADD PUSH1 0x40 MLOAD DUP1 SWAP2 SUB SWAP1 REVERT JUMPDEST PUSH1 0x9 SWAP3 SWAP1 SWAP3 SSTORE PUSH1 0xA SSTORE PUSH1 0x7 DUP1 SLOAD PUSH1 0x1 PUSH1 0x1 PUSH1 0xA0 SHL SUB NOT SWAP1 DUP2 AND PUSH1 0x1 PUSH1 0x1 PUSH1 0xA0 SHL SUB SWAP6 DUP7 AND SWAP1 DUP2 OR SWAP1 SWAP3 SSTORE PUSH1 0x8 DUP1 SLOAD DUP3 AND SWAP5 SWAP1 SWAP6 AND SWAP4 DUP5 OR SWAP1 SWAP5 SSTORE PUSH1 0xB DUP1 SLOAD PUSH1 0x1 PUSH1 0x1 PUSH1 0xA8 SHL SUB NOT AND SWAP3 ISZERO ISZERO PUSH2 0x100 PUSH1 0x1 PUSH1 0xA8 SHL SUB NOT AND SWAP3 SWAP1 SWAP3 OR PUSH2 0x100 SWAP1 SWAP2 MUL OR SWAP1 SSTORE PUSH1 0xC DUP1 SLOAD DUP4 AND SWAP1 SWAP2 OR SWAP1 SSTORE PUSH1 0xD DUP1 SLOAD CALLER SWAP3 AND SWAP2 SWAP1 SWAP2 OR SWAP1 SSTORE POP PUSH2 0x454 SWAP8 POP POP POP POP POP POP POP POP JUMP JUMPDEST PUSH1 0x5 DUP1 SLOAD PUSH1 0x1 PUSH1 0x1 PUSH1 0xA0 SHL SUB DUP4 DUP2 AND PUSH1 0x1 PUSH1 0x1 PUSH1 0xA0 SHL SUB NOT DUP4 AND DUP2 OR SWAP1 SWAP4 SSTORE PUSH1 0x40 MLOAD SWAP2 AND SWAP2 SWAP1 DUP3 SWAP1 PUSH32 0x8BE0079C531659141344CD1FD0A4F28419497F9722A3DAAFE3B4186F6B6457E0 SWAP1 PUSH0 SWAP1 LOG3 POP POP JUMP JUMPDEST PUSH4 0x4E487B71 PUSH1 0xE0 SHL PUSH0 MSTORE PUSH1 0x41 PUSH1 0x4 MSTORE PUSH1 0x24 PUSH0 REVERT JUMPDEST PUSH0 DUP3 PUSH1 0x1F DUP4 ADD SLT PUSH2 0x1D0 JUMPI PUSH0 DUP1 REVERT JUMPDEST DUP2 MLOAD PUSH1 0x1 PUSH1 0x1 PUSH1 0x40 SHL SUB DUP2 GT ISZERO PUSH2 0x1E9 JUMPI PUSH2 0x1E9 PUSH2 0x1AD JUMP JUMPDEST PUSH1 0x40 MLOAD PUSH1 0x1F DUP3 ADD PUSH1 0x1F NOT SWAP1 DUP2 AND PUSH1 0x3F ADD AND DUP2 ADD PUSH1 0x1 PUSH1 0x1 PUSH1 0x40 SHL SUB DUP2 GT DUP3 DUP3 LT OR ISZERO PUSH2 0x217 JUMPI PUSH2 0x217 PUSH2 0x1AD JUMP JUMPDEST PUSH1 0x40 MSTORE DUP2 DUP2 MSTORE DUP4 DUP3 ADD PUSH1 0x20 ADD DUP6 LT ISZERO PUSH2 0x22E JUMPI PUSH0 DUP1 REVERT JUMPDEST DUP2 PUSH1 0x20 DUP6 ADD PUSH1 0x20 DUP4 ADD MCOPY PUSH0 SWAP2 DUP2 ADD PUSH1 0x20 ADD SWAP2 SWAP1 SWAP2 MSTORE SWAP4 SWAP3 POP POP POP JUMP JUMPDEST DUP1 MLOAD PUSH1 0x1 PUSH1 0x1 PUSH1 0xA0 SHL SUB DUP2 AND DUP2 EQ PUSH2 0x260 JUMPI PUSH0 DUP1 REVERT JUMPDEST SWAP2 SWAP1 POP JUMP JUMPDEST PUSH0 DUP1 PUSH0 DUP1 PUSH0 DUP1 PUSH0 PUSH1 0xE0 DUP9 DUP11 SUB SLT ISZERO PUSH2 0x27B JUMPI PUSH0 DUP1 REVERT JUMPDEST DUP8 MLOAD PUSH1 0x1 PUSH1 0x1 PUSH1 0x40 SHL SUB DUP2 GT ISZERO PUSH2 0x290 JUMPI PUSH0 DUP1 REVERT JUMPDEST PUSH2 0x29C DUP11 DUP3 DUP12 ADD PUSH2 0x1C1 JUMP JUMPDEST PUSH1 0x20 DUP11 ADD MLOAD SWAP1 SWAP9 POP SWAP1 POP PUSH1 0x1 PUSH1 0x1 PUSH1 0x40 SHL SUB DUP2 GT ISZERO PUSH2 0x2B9 JUMPI PUSH0 DUP1 REVERT JUMPDEST PUSH2 0x2C5 DUP11 DUP3 DUP12 ADD PUSH2 0x1C1 JUMP JUMPDEST SWAP7 POP POP PUSH2 0x2D4 PUSH1 0x40 DUP10 ADD PUSH2 0x24A JUMP JUMPDEST SWAP5 POP PUSH2 0x2E2 PUSH1 0x60 DUP10 ADD PUSH2 0x24A JUMP JUMPDEST PUSH1 0x80 DUP10 ADD MLOAD PUSH1 0xA0 DUP11 ADD MLOAD PUSH1 0xC0 DUP12 ADD MLOAD SWAP3 SWAP7 POP SWAP1 SWAP5 POP SWAP3 POP DUP1 ISZERO ISZERO DUP2 EQ PUSH2 0x306 JUMPI PUSH0 DUP1 REVERT JUMPDEST DUP1 SWAP2 POP POP SWAP3 SWAP6 SWAP9 SWAP2 SWAP5 SWAP8 POP SWAP3 SWAP6 POP JUMP JUMPDEST PUSH1 0x1 DUP2 DUP2 SHR SWAP1 DUP3 AND DUP1 PUSH2 0x32A JUMPI PUSH1 0x7F DUP3 AND SWAP2 POP JUMPDEST PUSH1 0x20 DUP3 LT DUP2 SUB PUSH2 0x348 JUMPI PUSH4 0x4E487B71 PUSH1 0xE0 SHL PUSH0 MSTORE PUSH1 0x22 PUSH1 0x4 MSTORE PUSH1 0x24 PUSH0 REVERT JUMPDEST POP SWAP2 SWAP1 POP JUMP JUMPDEST PUSH1 0x1F DUP3 GT ISZERO PUSH2 0x395 JUMPI DUP1 PUSH0 MSTORE PUSH1 0x20 PUSH0 KECCAK256 PUSH1 0x1F DUP5 ADD PUSH1 0x5 SHR DUP2 ADD PUSH1 0x20 DUP6 LT ISZERO PUSH2 0x373 JUMPI POP DUP1 JUMPDEST PUSH1 0x1F DUP5 ADD PUSH1 0x5 SHR DUP3 ADD SWAP2 POP JUMPDEST DUP2 DUP2 LT ISZERO PUSH2 0x392 JUMPI PUSH0 DUP2 SSTORE PUSH1 0x1 ADD PUSH2 0x37F JUMP JUMPDEST POP POP JUMPDEST POP POP POP JUMP JUMPDEST DUP2 MLOAD PUSH1 0x1 PUSH1 0x1 PUSH1 0x40 SHL SUB DUP2 GT ISZERO PUSH2 0x3B3 JUMPI PUSH2 0x3B3 PUSH2 0x1AD JUMP JUMPDEST PUSH2 0x3C7 DUP2 PUSH2 0x3C1 DUP5 SLOAD PUSH2 0x316 JUMP JUMPDEST DUP5 PUSH2 0x34E JUMP JUMPDEST PUSH1 0x20 PUSH1 0x1F DUP3 GT PUSH1 0x1 DUP2 EQ PUSH2 0x3F9 JUMPI PUSH0 DUP4 ISZERO PUSH2 0x3E2 JUMPI POP DUP5 DUP3 ADD MLOAD JUMPDEST PUSH0 NOT PUSH1 0x3 DUP6 SWAP1 SHL SHR NOT AND PUSH1 0x1 DUP5 SWAP1 SHL OR DUP5 SSTORE PUSH2 0x392 JUMP JUMPDEST PUSH0 DUP5 DUP2 MSTORE PUSH1 0x20 DUP2 KECCAK256 PUSH1 0x1F NOT DUP6 AND SWAP2 JUMPDEST DUP3 DUP2 LT ISZERO PUSH2 0x428 JUMPI DUP8 DUP6 ADD MLOAD DUP3 SSTORE PUSH1 0x20 SWAP5 DUP6 ADD SWAP5 PUSH1 0x1 SWAP1 SWAP3 ADD SWAP2 ADD PUSH2 0x408 JUMP JUMPDEST POP DUP5 DUP3 LT ISZERO PUSH2 0x445 JUMPI DUP7 DUP5 ADD MLOAD PUSH0 NOT PUSH1 0x3 DUP8 SWAP1 SHL PUSH1 0xF8 AND SHR NOT AND DUP2 SSTORE JUMPDEST POP POP POP POP PUSH1 0x1 SWAP1 DUP2 SHL ADD SWAP1 SSTORE POP JUMP JUMPDEST PUSH2 0x1374 DUP1 PUSH2 0x461 PUSH0 CODECOPY PUSH0 RETURN INVALID PUSH1 0x80 PUSH1 0x40 MSTORE CALLVALUE DUP1 ISZERO PUSH2 0xF JUMPI PUSH0 DUP1 REVERT JUMPDEST POP PUSH1 0x4 CALLDATASIZE LT PUSH2 0x15E JUMPI PUSH0 CALLDATALOAD PUSH1 0xE0 SHR DUP1 PUSH4 0x7955EAA1 GT PUSH2 0xCA JUMPI DUP1 PUSH4 0xAD8F5008 GT PUSH2 0x84 JUMPI DUP1 PUSH4 0xAD8F5008 EQ PUSH2 0x2BB JUMPI DUP1 PUSH4 0xD8DFEB45 EQ PUSH2 0x2C4 JUMPI DUP1 PUSH4 0xDD068EC1 EQ PUSH2 0x2DC JUMPI DUP1 PUSH4 0xDD62ED3E EQ PUSH2 0x2EF JUMPI DUP1 PUSH4 0xE0CA59BB EQ PUSH2 0x302 JUMPI DUP1 PUSH4 0xF2FDE38B EQ PUSH2 0x315 JUMPI DUP1 PUSH4 0xF3C274A6 EQ PUSH2 0x328 JUMPI PUSH0 DUP1 REVERT JUMPDEST DUP1 PUSH4 0x7955EAA1 EQ PUSH2 0x260 JUMPI DUP1 PUSH4 0x8DA5CB5B EQ PUSH2 0x273 JUMPI DUP1 PUSH4 0x8F620487 EQ PUSH2 0x284 JUMPI DUP1 PUSH4 0x95D89B41 EQ PUSH2 0x28D JUMPI DUP1 PUSH4 0x9ACEA70D EQ PUSH2 0x295 JUMPI DUP1 PUSH4 0xA9059CBB EQ PUSH2 0x2A8 JUMPI PUSH0 DUP1 REVERT JUMPDEST DUP1 PUSH4 0x40C10F19 GT PUSH2 0x11B JUMPI DUP1 PUSH4 0x40C10F19 EQ PUSH2 0x1EC JUMPI DUP1 PUSH4 0x48D399E7 EQ PUSH2 0x1FF JUMPI DUP1 PUSH4 0x551DC014 EQ PUSH2 0x21F JUMPI DUP1 PUSH4 0x6F713C9C EQ PUSH2 0x232 JUMPI DUP1 PUSH4 0x70A08231 EQ PUSH2 0x245 JUMPI DUP1 PUSH4 0x715018A6 EQ PUSH2 0x258 JUMPI PUSH0 DUP1 REVERT JUMPDEST DUP1 PUSH4 0x6FDDE03 EQ PUSH2 0x162 JUMPI DUP1 PUSH4 0x95EA7B3 EQ PUSH2 0x180 JUMPI DUP1 PUSH4 0x18160DDD EQ PUSH2 0x1A3 JUMPI DUP1 PUSH4 0x1E9A6950 EQ PUSH2 0x1B5 JUMPI DUP1 PUSH4 0x23B872DD EQ PUSH2 0x1CA JUMPI DUP1 PUSH4 0x313CE567 EQ PUSH2 0x1DD JUMPI JUMPDEST PUSH0 DUP1 REVERT JUMPDEST PUSH2 0x16A PUSH2 0x335 JUMP JUMPDEST PUSH1 0x40 MLOAD PUSH2 0x177 SWAP2 SWAP1 PUSH2 0x10EB JUMP JUMPDEST PUSH1 0x40 MLOAD DUP1 SWAP2 SUB SWAP1 RETURN JUMPDEST PUSH2 0x193 PUSH2 0x18E CALLDATASIZE PUSH1 0x4 PUSH2 0x113B JUMP JUMPDEST PUSH2 0x3C5 JUMP JUMPDEST PUSH1 0x40 MLOAD SWAP1 ISZERO ISZERO DUP2 MSTORE PUSH1 0x20 ADD PUSH2 0x177 JUMP JUMPDEST PUSH1 0x2 SLOAD JUMPDEST PUSH1 0x40 MLOAD SWAP1 DUP2 MSTORE PUSH1 0x20 ADD PUSH2 0x177 JUMP JUMPDEST PUSH2 0x1C8 PUSH2 0x1C3 CALLDATASIZE PUSH1 0x4 PUSH2 0x113B JUMP JUMPDEST PUSH2 0x3DE JUMP JUMPDEST STOP JUMPDEST PUSH2 0x193 PUSH2 0x1D8 CALLDATASIZE PUSH1 0x4 PUSH2 0x1163 JUMP JUMPDEST PUSH2 0x43C JUMP JUMPDEST PUSH1 0x40 MLOAD PUSH1 0x12 DUP2 MSTORE PUSH1 0x20 ADD PUSH2 0x177 JUMP JUMPDEST PUSH2 0x1C8 PUSH2 0x1FA CALLDATASIZE PUSH1 0x4 PUSH2 0x113B JUMP JUMPDEST PUSH2 0x45F JUMP JUMPDEST PUSH1 0x7 SLOAD PUSH2 0x212 SWAP1 PUSH1 0x1 PUSH1 0x1 PUSH1 0xA0 SHL SUB AND DUP2 JUMP JUMPDEST PUSH1 0x40 MLOAD PUSH2 0x177 SWAP2 SWAP1 PUSH2 0x119D JUMP JUMPDEST PUSH1 0xD SLOAD PUSH2 0x212 SWAP1 PUSH1 0x1 PUSH1 0x1 PUSH1 0xA0 SHL SUB AND DUP2 JUMP JUMPDEST PUSH1 0xC SLOAD PUSH2 0x212 SWAP1 PUSH1 0x1 PUSH1 0x1 PUSH1 0xA0 SHL SUB AND DUP2 JUMP JUMPDEST PUSH2 0x1A7 PUSH2 0x253 CALLDATASIZE PUSH1 0x4 PUSH2 0x11B1 JUMP JUMPDEST PUSH2 0x532 JUMP JUMPDEST PUSH2 0x1C8 PUSH2 0x54C JUMP JUMPDEST PUSH2 0x1C8 PUSH2 0x26E CALLDATASIZE PUSH1 0x4 PUSH2 0x113B JUMP JUMPDEST PUSH2 0x55F JUMP JUMPDEST PUSH1 0x5 SLOAD PUSH1 0x1 PUSH1 0x1 PUSH1 0xA0 SHL SUB AND PUSH2 0x212 JUMP JUMPDEST PUSH2 0x1A7 PUSH1 0x9 SLOAD DUP2 JUMP JUMPDEST PUSH2 0x16A PUSH2 0x5B7 JUMP JUMPDEST PUSH1 0x8 SLOAD PUSH2 0x212 SWAP1 PUSH1 0x1 PUSH1 0x1 PUSH1 0xA0 SHL SUB AND DUP2 JUMP JUMPDEST PUSH2 0x193 PUSH2 0x2B6 CALLDATASIZE PUSH1 0x4 PUSH2 0x113B JUMP JUMPDEST PUSH2 0x5C6 JUMP JUMPDEST PUSH2 0x1A7 PUSH1 0xA SLOAD DUP2 JUMP JUMPDEST PUSH1 0xB SLOAD PUSH2 0x212 SWAP1 PUSH2 0x100 SWAP1 DIV PUSH1 0x1 PUSH1 0x1 PUSH1 0xA0 SHL SUB AND DUP2 JUMP JUMPDEST PUSH2 0x1C8 PUSH2 0x2EA CALLDATASIZE PUSH1 0x4 PUSH2 0x113B JUMP JUMPDEST PUSH2 0x5D3 JUMP JUMPDEST PUSH2 0x1A7 PUSH2 0x2FD CALLDATASIZE PUSH1 0x4 PUSH2 0x11D1 JUMP JUMPDEST PUSH2 0x60B JUMP JUMPDEST PUSH2 0x1C8 PUSH2 0x310 CALLDATASIZE PUSH1 0x4 PUSH2 0x113B JUMP JUMPDEST PUSH2 0x635 JUMP JUMPDEST PUSH2 0x1C8 PUSH2 0x323 CALLDATASIZE PUSH1 0x4 PUSH2 0x11B1 JUMP JUMPDEST PUSH2 0x65F JUMP JUMPDEST PUSH1 0xB SLOAD PUSH2 0x193 SWAP1 PUSH1 0xFF AND DUP2 JUMP JUMPDEST PUSH1 0x60 PUSH1 0x3 DUP1 SLOAD PUSH2 0x344 SWAP1 PUSH2 0x1202 JUMP JUMPDEST DUP1 PUSH1 0x1F ADD PUSH1 0x20 DUP1 SWAP2 DIV MUL PUSH1 0x20 ADD PUSH1 0x40 MLOAD SWAP1 DUP2 ADD PUSH1 0x40 MSTORE DUP1 SWAP3 SWAP2 SWAP1 DUP2 DUP2 MSTORE PUSH1 0x20 ADD DUP3 DUP1 SLOAD PUSH2 0x370 SWAP1 PUSH2 0x1202 JUMP JUMPDEST DUP1 ISZERO PUSH2 0x3BB JUMPI DUP1 PUSH1 0x1F LT PUSH2 0x392 JUMPI PUSH2 0x100 DUP1 DUP4 SLOAD DIV MUL DUP4 MSTORE SWAP2 PUSH1 0x20 ADD SWAP2 PUSH2 0x3BB JUMP JUMPDEST DUP3 ADD SWAP2 SWAP1 PUSH0 MSTORE PUSH1 0x20 PUSH0 KECCAK256 SWAP1 JUMPDEST DUP2 SLOAD DUP2 MSTORE SWAP1 PUSH1 0x1 ADD SWAP1 PUSH1 0x20 ADD DUP1 DUP4 GT PUSH2 0x39E JUMPI DUP3 SWAP1 SUB PUSH1 0x1F AND DUP3 ADD SWAP2 JUMPDEST POP POP POP POP POP SWAP1 POP SWAP1 JUMP JUMPDEST PUSH0 CALLER PUSH2 0x3D2 DUP2 DUP6 DUP6 PUSH2 0x6A5 JUMP JUMPDEST PUSH1 0x1 SWAP2 POP POP JUMPDEST SWAP3 SWAP2 POP POP JUMP JUMPDEST PUSH1 0x9 SLOAD TIMESTAMP LT ISZERO PUSH2 0x401 JUMPI PUSH1 0x40 MLOAD PUSH4 0x21F0A553 PUSH1 0xE1 SHL DUP2 MSTORE PUSH1 0x4 ADD PUSH1 0x40 MLOAD DUP1 SWAP2 SUB SWAP1 REVERT JUMPDEST DUP2 DUP2 DUP1 PUSH2 0x40D DUP4 PUSH2 0x532 JUMP JUMPDEST LT ISZERO PUSH2 0x42C JUMPI PUSH1 0x40 MLOAD PUSH4 0x1E9ACF17 PUSH1 0xE3 SHL DUP2 MSTORE PUSH1 0x4 ADD PUSH1 0x40 MLOAD DUP1 SWAP2 SUB SWAP1 REVERT JUMPDEST PUSH2 0x436 DUP5 DUP5 PUSH2 0x6B7 JUMP JUMPDEST POP POP POP POP JUMP JUMPDEST PUSH0 CALLER PUSH2 0x449 DUP6 DUP3 DUP6 PUSH2 0x972 JUMP JUMPDEST PUSH2 0x454 DUP6 DUP6 DUP6 PUSH2 0x9BC JUMP JUMPDEST POP PUSH1 0x1 SWAP5 SWAP4 POP POP POP POP JUMP JUMPDEST PUSH2 0x467 PUSH2 0xA19 JUMP JUMPDEST PUSH1 0xB SLOAD PUSH1 0x40 MLOAD PUSH4 0x70A08231 PUSH1 0xE0 SHL DUP2 MSTORE DUP4 SWAP2 DUP4 SWAP2 DUP3 SWAP2 PUSH2 0x100 SWAP1 DIV PUSH1 0x1 PUSH1 0x1 PUSH1 0xA0 SHL SUB AND SWAP1 PUSH4 0x70A08231 SWAP1 PUSH2 0x4A0 SWAP1 DUP7 SWAP1 PUSH1 0x4 ADD PUSH2 0x119D JUMP JUMPDEST PUSH1 0x20 PUSH1 0x40 MLOAD DUP1 DUP4 SUB DUP2 DUP7 GAS STATICCALL ISZERO DUP1 ISZERO PUSH2 0x4BB JUMPI RETURNDATASIZE PUSH0 DUP1 RETURNDATACOPY RETURNDATASIZE PUSH0 REVERT JUMPDEST POP POP POP POP PUSH1 0x40 MLOAD RETURNDATASIZE PUSH1 0x1F NOT PUSH1 0x1F DUP3 ADD AND DUP3 ADD DUP1 PUSH1 0x40 MSTORE POP DUP2 ADD SWAP1 PUSH2 0x4DF SWAP2 SWAP1 PUSH2 0x123A JUMP JUMPDEST LT ISZERO PUSH2 0x4FE JUMPI PUSH1 0x40 MLOAD PUSH4 0x1E9ACF17 PUSH1 0xE3 SHL DUP2 MSTORE PUSH1 0x4 ADD PUSH1 0x40 MLOAD DUP1 SWAP2 SUB SWAP1 REVERT JUMPDEST DUP3 PUSH1 0x1 DUP2 LT ISZERO PUSH2 0x521 JUMPI PUSH1 0x40 MLOAD PUSH4 0x162908E3 PUSH1 0xE1 SHL DUP2 MSTORE PUSH1 0x4 ADD PUSH1 0x40 MLOAD DUP1 SWAP2 SUB SWAP1 REVERT JUMPDEST PUSH2 0x52B DUP6 DUP6 PUSH2 0xA46 JUMP JUMPDEST POP POP POP POP POP JUMP JUMPDEST PUSH1 0x1 PUSH1 0x1 PUSH1 0xA0 SHL SUB AND PUSH0 SWAP1 DUP2 MSTORE PUSH1 0x20 DUP2 SWAP1 MSTORE PUSH1 0x40 SWAP1 KECCAK256 SLOAD SWAP1 JUMP JUMPDEST PUSH2 0x554 PUSH2 0xA19 JUMP JUMPDEST PUSH2 0x55D PUSH0 PUSH2 0xB98 JUMP JUMPDEST JUMP JUMPDEST DUP2 DUP2 DUP1 PUSH2 0x56B DUP4 PUSH2 0x532 JUMP JUMPDEST LT ISZERO PUSH2 0x58A JUMPI PUSH1 0x40 MLOAD PUSH4 0x1E9ACF17 PUSH1 0xE3 SHL DUP2 MSTORE PUSH1 0x4 ADD PUSH1 0x40 MLOAD DUP1 SWAP2 SUB SWAP1 REVERT JUMPDEST PUSH1 0x9 SLOAD TIMESTAMP LT ISZERO PUSH2 0x5AD JUMPI PUSH1 0x40 MLOAD PUSH4 0x21F0A553 PUSH1 0xE1 SHL DUP2 MSTORE PUSH1 0x4 ADD PUSH1 0x40 MLOAD DUP1 SWAP2 SUB SWAP1 REVERT JUMPDEST PUSH2 0x436 DUP5 DUP5 PUSH2 0xBE9 JUMP JUMPDEST PUSH1 0x60 PUSH1 0x4 DUP1 SLOAD PUSH2 0x344 SWAP1 PUSH2 0x1202 JUMP JUMPDEST PUSH0 CALLER PUSH2 0x3D2 DUP2 DUP6 DUP6 PUSH2 0x9BC JUMP JUMPDEST PUSH1 0x9 SLOAD TIMESTAMP LT PUSH2 0x5F5 JUMPI PUSH1 0x40 MLOAD PUSH4 0x790D4E3 PUSH1 0xE0 SHL DUP2 MSTORE PUSH1 0x4 ADD PUSH1 0x40 MLOAD DUP1 SWAP2 SUB SWAP1 REVERT JUMPDEST PUSH2 0x5FD PUSH2 0xA19 JUMP JUMPDEST PUSH2 0x607 DUP3 DUP3 PUSH2 0xD2C JUMP JUMPDEST POP POP JUMP JUMPDEST PUSH1 0x1 PUSH1 0x1 PUSH1 0xA0 SHL SUB SWAP2 DUP3 AND PUSH0 SWAP1 DUP2 MSTORE PUSH1 0x1 PUSH1 0x20 SWAP1 DUP2 MSTORE PUSH1 0x40 DUP1 DUP4 KECCAK256 SWAP4 SWAP1 SWAP5 AND DUP3 MSTORE SWAP2 SWAP1 SWAP2 MSTORE KECCAK256 SLOAD SWAP1 JUMP JUMPDEST PUSH1 0x9 SLOAD TIMESTAMP LT PUSH2 0x657 JUMPI PUSH1 0x40 MLOAD PUSH4 0x790D4E3 PUSH1 0xE0 SHL DUP2 MSTORE PUSH1 0x4 ADD PUSH1 0x40 MLOAD DUP1 SWAP2 SUB SWAP1 REVERT JUMPDEST PUSH2 0x401 PUSH2 0xA19 JUMP JUMPDEST PUSH2 0x667 PUSH2 0xA19 JUMP JUMPDEST PUSH1 0x1 PUSH1 0x1 PUSH1 0xA0 SHL SUB DUP2 AND PUSH2 0x699 JUMPI PUSH0 PUSH1 0x40 MLOAD PUSH4 0x1E4FBDF7 PUSH1 0xE0 SHL DUP2 MSTORE PUSH1 0x4 ADD PUSH2 0x690 SWAP2 SWAP1 PUSH2 0x119D JUMP JUMPDEST PUSH1 0x40 MLOAD DUP1 SWAP2 SUB SWAP1 REVERT JUMPDEST PUSH2 0x6A2 DUP2 PUSH2 0xB98 JUMP JUMPDEST POP JUMP JUMPDEST PUSH2 0x6B2 DUP4 DUP4 DUP4 PUSH1 0x1 PUSH2 0xE78 JUMP JUMPDEST POP POP POP JUMP JUMPDEST PUSH2 0x6BF PUSH2 0xF4A JUMP JUMPDEST DUP2 DUP2 DUP1 PUSH2 0x6CB DUP4 PUSH2 0x532 JUMP JUMPDEST LT ISZERO PUSH2 0x6EA JUMPI PUSH1 0x40 MLOAD PUSH4 0x1E9ACF17 PUSH1 0xE3 SHL DUP2 MSTORE PUSH1 0x4 ADD PUSH1 0x40 MLOAD DUP1 SWAP2 SUB SWAP1 REVERT JUMPDEST DUP3 PUSH1 0x1 DUP2 LT ISZERO PUSH2 0x70D JUMPI PUSH1 0x40 MLOAD PUSH4 0x162908E3 PUSH1 0xE1 SHL DUP2 MSTORE PUSH1 0x4 ADD PUSH1 0x40 MLOAD DUP1 SWAP2 SUB SWAP1 REVERT JUMPDEST PUSH1 0xB SLOAD PUSH1 0x40 MLOAD PUSH4 0x70A08231 PUSH1 0xE0 SHL DUP2 MSTORE PUSH0 SWAP2 PUSH2 0x100 SWAP1 DIV PUSH1 0x1 PUSH1 0x1 PUSH1 0xA0 SHL SUB AND SWAP1 PUSH4 0x70A08231 SWAP1 PUSH2 0x742 SWAP1 ADDRESS SWAP1 PUSH1 0x4 ADD PUSH2 0x119D JUMP JUMPDEST PUSH1 0x20 PUSH1 0x40 MLOAD DUP1 DUP4 SUB DUP2 DUP7 GAS STATICCALL ISZERO DUP1 ISZERO PUSH2 0x75D JUMPI RETURNDATASIZE PUSH0 DUP1 RETURNDATACOPY RETURNDATASIZE PUSH0 REVERT JUMPDEST POP POP POP POP PUSH1 0x40 MLOAD RETURNDATASIZE PUSH1 0x1F NOT PUSH1 0x1F DUP3 ADD AND DUP3 ADD DUP1 PUSH1 0x40 MSTORE POP DUP2 ADD SWAP1 PUSH2 0x781 SWAP2 SWAP1 PUSH2 0x123A JUMP JUMPDEST PUSH1 0xC SLOAD PUSH1 0x40 MLOAD PUSH4 0x70A08231 PUSH1 0xE0 SHL DUP2 MSTORE SWAP2 SWAP3 POP PUSH0 SWAP2 PUSH1 0x1 PUSH1 0x1 PUSH1 0xA0 SHL SUB SWAP1 SWAP2 AND SWAP1 PUSH4 0x70A08231 SWAP1 PUSH2 0x7B6 SWAP1 ADDRESS SWAP1 PUSH1 0x4 ADD PUSH2 0x119D JUMP JUMPDEST PUSH1 0x20 PUSH1 0x40 MLOAD DUP1 DUP4 SUB DUP2 DUP7 GAS STATICCALL ISZERO DUP1 ISZERO PUSH2 0x7D1 JUMPI RETURNDATASIZE PUSH0 DUP1 RETURNDATACOPY RETURNDATASIZE PUSH0 REVERT JUMPDEST POP POP POP POP PUSH1 0x40 MLOAD RETURNDATASIZE PUSH1 0x1F NOT PUSH1 0x1F DUP3 ADD AND DUP3 ADD DUP1 PUSH1 0x40 MSTORE POP DUP2 ADD SWAP1 PUSH2 0x7F5 SWAP2 SWAP1 PUSH2 0x123A JUMP JUMPDEST SWAP1 POP PUSH0 DUP3 DUP8 GT ISZERO PUSH2 0x806 JUMPI DUP3 PUSH2 0x808 JUMP JUMPDEST DUP7 JUMPDEST SWAP1 POP PUSH2 0x814 DUP9 DUP9 PUSH2 0xF74 JUMP JUMPDEST DUP7 DUP2 LT ISZERO PUSH2 0x8E4 JUMPI PUSH0 PUSH2 0x827 DUP3 DUP10 PUSH2 0x1265 JUMP JUMPDEST SWAP1 POP PUSH0 PUSH8 0xDE0B6B3A7640000 PUSH1 0xA SLOAD DUP4 PUSH2 0x841 SWAP2 SWAP1 PUSH2 0x1278 JUMP JUMPDEST PUSH2 0x84B SWAP2 SWAP1 PUSH2 0x128F JUMP JUMPDEST SWAP1 POP DUP1 DUP5 LT ISZERO PUSH2 0x86E JUMPI PUSH1 0x40 MLOAD PUSH4 0x1E9ACF17 PUSH1 0xE3 SHL DUP2 MSTORE PUSH1 0x4 ADD PUSH1 0x40 MLOAD DUP1 SWAP2 SUB SWAP1 REVERT JUMPDEST PUSH1 0xC SLOAD PUSH1 0x40 MLOAD PUSH4 0xA9059CBB PUSH1 0xE0 SHL DUP2 MSTORE PUSH1 0x1 PUSH1 0x1 PUSH1 0xA0 SHL SUB SWAP1 SWAP2 AND SWAP1 PUSH4 0xA9059CBB SWAP1 PUSH2 0x8A0 SWAP1 DUP14 SWAP1 DUP6 SWAP1 PUSH1 0x4 ADD PUSH2 0x12AE JUMP JUMPDEST PUSH1 0x20 PUSH1 0x40 MLOAD DUP1 DUP4 SUB DUP2 PUSH0 DUP8 GAS CALL ISZERO DUP1 ISZERO PUSH2 0x8BC JUMPI RETURNDATASIZE PUSH0 DUP1 RETURNDATACOPY RETURNDATASIZE PUSH0 REVERT JUMPDEST POP POP POP POP PUSH1 0x40 MLOAD RETURNDATASIZE PUSH1 0x1F NOT PUSH1 0x1F DUP3 ADD AND DUP3 ADD DUP1 PUSH1 0x40 MSTORE POP DUP2 ADD SWAP1 PUSH2 0x8E0 SWAP2 SWAP1 PUSH2 0x12C7 JUMP JUMPDEST POP POP POP JUMPDEST DUP1 ISZERO PUSH2 0x962 JUMPI PUSH1 0xB SLOAD PUSH1 0x40 MLOAD PUSH4 0xA9059CBB PUSH1 0xE0 SHL DUP2 MSTORE PUSH2 0x100 SWAP1 SWAP2 DIV PUSH1 0x1 PUSH1 0x1 PUSH1 0xA0 SHL SUB AND SWAP1 PUSH4 0xA9059CBB SWAP1 PUSH2 0x920 SWAP1 DUP12 SWAP1 DUP6 SWAP1 PUSH1 0x4 ADD PUSH2 0x12AE JUMP JUMPDEST PUSH1 0x20 PUSH1 0x40 MLOAD DUP1 DUP4 SUB DUP2 PUSH0 DUP8 GAS CALL ISZERO DUP1 ISZERO PUSH2 0x93C JUMPI RETURNDATASIZE PUSH0 DUP1 RETURNDATACOPY RETURNDATASIZE PUSH0 REVERT JUMPDEST POP POP POP POP PUSH1 0x40 MLOAD RETURNDATASIZE PUSH1 0x1F NOT PUSH1 0x1F DUP3 ADD AND DUP3 ADD DUP1 PUSH1 0x40 MSTORE POP DUP2 ADD SWAP1 PUSH2 0x960 SWAP2 SWAP1 PUSH2 0x12C7 JUMP JUMPDEST POP JUMPDEST POP POP POP POP POP POP PUSH2 0x607 PUSH1 0x1 PUSH1 0x6 SSTORE JUMP JUMPDEST PUSH0 PUSH2 0x97D DUP5 DUP5 PUSH2 0x60B JUMP JUMPDEST SWAP1 POP PUSH0 NOT DUP2 EQ PUSH2 0x436 JUMPI DUP2 DUP2 LT ISZERO PUSH2 0x9AE JUMPI DUP3 DUP2 DUP4 PUSH1 0x40 MLOAD PUSH4 0x7DC7A0D9 PUSH1 0xE1 SHL DUP2 MSTORE PUSH1 0x4 ADD PUSH2 0x690 SWAP4 SWAP3 SWAP2 SWAP1 PUSH2 0x12E6 JUMP JUMPDEST PUSH2 0x436 DUP5 DUP5 DUP5 DUP5 SUB PUSH0 PUSH2 0xE78 JUMP JUMPDEST PUSH1 0x1 PUSH1 0x1 PUSH1 0xA0 SHL SUB DUP4 AND PUSH2 0x9E5 JUMPI PUSH0 PUSH1 0x40 MLOAD PUSH4 0x4B637E8F PUSH1 0xE1 SHL DUP2 MSTORE PUSH1 0x4 ADD PUSH2 0x690 SWAP2 SWAP1 PUSH2 0x119D JUMP JUMPDEST PUSH1 0x1 PUSH1 0x1 PUSH1 0xA0 SHL SUB DUP3 AND PUSH2 0xA0E JUMPI PUSH0 PUSH1 0x40 MLOAD PUSH4 0xEC442F05 PUSH1 0xE0 SHL DUP2 MSTORE PUSH1 0x4 ADD PUSH2 0x690 SWAP2 SWAP1 PUSH2 0x119D JUMP JUMPDEST PUSH2 0x6B2 DUP4 DUP4 DUP4 PUSH2 0xFA4 JUMP JUMPDEST PUSH1 0x5 SLOAD PUSH1 0x1 PUSH1 0x1 PUSH1 0xA0 SHL SUB AND CALLER EQ PUSH2 0x55D JUMPI CALLER PUSH1 0x40 MLOAD PUSH4 0x118CDAA7 PUSH1 0xE0 SHL DUP2 MSTORE PUSH1 0x4 ADD PUSH2 0x690 SWAP2 SWAP1 PUSH2 0x119D JUMP JUMPDEST PUSH2 0xA4E PUSH2 0xF4A JUMP JUMPDEST PUSH1 0xB SLOAD PUSH1 0x40 MLOAD PUSH4 0x70A08231 PUSH1 0xE0 SHL DUP2 MSTORE DUP4 SWAP2 DUP4 SWAP2 DUP3 SWAP2 PUSH2 0x100 SWAP1 DIV PUSH1 0x1 PUSH1 0x1 PUSH1 0xA0 SHL SUB AND SWAP1 PUSH4 0x70A08231 SWAP1 PUSH2 0xA87 SWAP1 DUP7 SWAP1 PUSH1 0x4 ADD PUSH2 0x119D JUMP JUMPDEST PUSH1 0x20 PUSH1 0x40 MLOAD DUP1 DUP4 SUB DUP2 DUP7 GAS STATICCALL ISZERO DUP1 ISZERO PUSH2 0xAA2 JUMPI RETURNDATASIZE PUSH0 DUP1 RETURNDATACOPY RETURNDATASIZE PUSH0 REVERT JUMPDEST POP POP POP POP PUSH1 0x40 MLOAD RETURNDATASIZE PUSH1 0x1F NOT PUSH1 0x1F DUP3 ADD AND DUP3 ADD DUP1 PUSH1 0x40 MSTORE POP DUP2 ADD SWAP1 PUSH2 0xAC6 SWAP2 SWAP1 PUSH2 0x123A JUMP JUMPDEST LT ISZERO PUSH2 0xAE5 JUMPI PUSH1 0x40 MLOAD PUSH4 0x1E9ACF17 PUSH1 0xE3 SHL DUP2 MSTORE PUSH1 0x4 ADD PUSH1 0x40 MLOAD DUP1 SWAP2 SUB SWAP1 REVERT JUMPDEST DUP3 PUSH1 0x1 DUP2 LT ISZERO PUSH2 0xB08 JUMPI PUSH1 0x40 MLOAD PUSH4 0x162908E3 PUSH1 0xE1 SHL DUP2 MSTORE PUSH1 0x4 ADD PUSH1 0x40 MLOAD DUP1 SWAP2 SUB SWAP1 REVERT JUMPDEST PUSH2 0xB12 DUP6 DUP6 PUSH2 0x10B7 JUMP JUMPDEST PUSH1 0xB SLOAD PUSH1 0x40 MLOAD PUSH4 0x23B872DD PUSH1 0xE0 SHL DUP2 MSTORE PUSH2 0x100 SWAP1 SWAP2 DIV PUSH1 0x1 PUSH1 0x1 PUSH1 0xA0 SHL SUB AND SWAP1 PUSH4 0x23B872DD SWAP1 PUSH2 0xB4A SWAP1 DUP9 SWAP1 ADDRESS SWAP1 DUP10 SWAP1 PUSH1 0x4 ADD PUSH2 0x1307 JUMP JUMPDEST PUSH1 0x20 PUSH1 0x40 MLOAD DUP1 DUP4 SUB DUP2 PUSH0 DUP8 GAS CALL ISZERO DUP1 ISZERO PUSH2 0xB66 JUMPI RETURNDATASIZE PUSH0 DUP1 RETURNDATACOPY RETURNDATASIZE PUSH0 REVERT JUMPDEST POP POP POP POP PUSH1 0x40 MLOAD RETURNDATASIZE PUSH1 0x1F NOT PUSH1 0x1F DUP3 ADD AND DUP3 ADD DUP1 PUSH1 0x40 MSTORE POP DUP2 ADD SWAP1 PUSH2 0xB8A SWAP2 SWAP1 PUSH2 0x12C7 JUMP JUMPDEST POP POP POP POP PUSH2 0x607 PUSH1 0x1 PUSH1 0x6 SSTORE JUMP JUMPDEST PUSH1 0x5 DUP1 SLOAD PUSH1 0x1 PUSH1 0x1 PUSH1 0xA0 SHL SUB DUP4 DUP2 AND PUSH1 0x1 PUSH1 0x1 PUSH1 0xA0 SHL SUB NOT DUP4 AND DUP2 OR SWAP1 SWAP4 SSTORE PUSH1 0x40 MLOAD SWAP2 AND SWAP2 SWAP1 DUP3 SWAP1 PUSH32 0x8BE0079C531659141344CD1FD0A4F28419497F9722A3DAAFE3B4186F6B6457E0 SWAP1 PUSH0 SWAP1 LOG3 POP POP JUMP JUMPDEST PUSH2 0xBF1 PUSH2 0xF4A JUMP JUMPDEST DUP2 DUP2 DUP1 PUSH2 0xBFD DUP4 PUSH2 0x532 JUMP JUMPDEST LT ISZERO PUSH2 0xC1C JUMPI PUSH1 0x40 MLOAD PUSH4 0x1E9ACF17 PUSH1 0xE3 SHL DUP2 MSTORE PUSH1 0x4 ADD PUSH1 0x40 MLOAD DUP1 SWAP2 SUB SWAP1 REVERT JUMPDEST DUP3 PUSH1 0x1 DUP2 LT ISZERO PUSH2 0xC3F JUMPI PUSH1 0x40 MLOAD PUSH4 0x162908E3 PUSH1 0xE1 SHL DUP2 MSTORE PUSH1 0x4 ADD PUSH1 0x40 MLOAD DUP1 SWAP2 SUB SWAP1 REVERT JUMPDEST PUSH1 0xC SLOAD PUSH1 0x40 MLOAD PUSH4 0x70A08231 PUSH1 0xE0 SHL DUP2 MSTORE DUP6 SWAP2 PUSH1 0x1 PUSH1 0x1 PUSH1 0xA0 SHL SUB AND SWAP1 PUSH4 0x70A08231 SWAP1 PUSH2 0xC6F SWAP1 ADDRESS SWAP1 PUSH1 0x4 ADD PUSH2 0x119D JUMP JUMPDEST PUSH1 0x20 PUSH1 0x40 MLOAD DUP1 DUP4 SUB DUP2 DUP7 GAS STATICCALL ISZERO DUP1 ISZERO PUSH2 0xC8A JUMPI RETURNDATASIZE PUSH0 DUP1 RETURNDATACOPY RETURNDATASIZE PUSH0 REVERT JUMPDEST POP POP POP POP PUSH1 0x40 MLOAD RETURNDATASIZE PUSH1 0x1F NOT PUSH1 0x1F DUP3 ADD AND DUP3 ADD DUP1 PUSH1 0x40 MSTORE POP DUP2 ADD SWAP1 PUSH2 0xCAE SWAP2 SWAP1 PUSH2 0x123A JUMP JUMPDEST LT ISZERO PUSH2 0xCCD JUMPI PUSH1 0x40 MLOAD PUSH4 0x1E9ACF17 PUSH1 0xE3 SHL DUP2 MSTORE PUSH1 0x4 ADD PUSH1 0x40 MLOAD DUP1 SWAP2 SUB SWAP1 REVERT JUMPDEST PUSH2 0xCD7 DUP6 DUP6 PUSH2 0xF74 JUMP JUMPDEST PUSH1 0xC SLOAD PUSH1 0xA SLOAD PUSH1 0x1 PUSH1 0x1 PUSH1 0xA0 SHL SUB SWAP1 SWAP2 AND SWAP1 PUSH4 0xA9059CBB SWAP1 DUP8 SWAP1 PUSH8 0xDE0B6B3A7640000 SWAP1 PUSH2 0xD05 SWAP1 DUP10 PUSH2 0x1278 JUMP JUMPDEST PUSH2 0xD0F SWAP2 SWAP1 PUSH2 0x128F JUMP JUMPDEST PUSH1 0x40 MLOAD DUP4 PUSH4 0xFFFFFFFF AND PUSH1 0xE0 SHL DUP2 MSTORE PUSH1 0x4 ADD PUSH2 0xB4A SWAP3 SWAP2 SWAP1 PUSH2 0x12AE JUMP JUMPDEST PUSH2 0xD34 PUSH2 0xF4A JUMP JUMPDEST PUSH1 0x9 SLOAD TIMESTAMP LT PUSH2 0xD56 JUMPI PUSH1 0x40 MLOAD PUSH4 0x790D4E3 PUSH1 0xE0 SHL DUP2 MSTORE PUSH1 0x4 ADD PUSH1 0x40 MLOAD DUP1 SWAP2 SUB SWAP1 REVERT JUMPDEST PUSH2 0xD5E PUSH2 0xA19 JUMP JUMPDEST PUSH1 0xB SLOAD PUSH1 0x40 MLOAD PUSH4 0xA9059CBB PUSH1 0xE0 SHL DUP2 MSTORE PUSH2 0x100 SWAP1 SWAP2 DIV PUSH1 0x1 PUSH1 0x1 PUSH1 0xA0 SHL SUB AND SWAP1 PUSH4 0xA9059CBB SWAP1 PUSH2 0xD94 SWAP1 DUP6 SWAP1 DUP6 SWAP1 PUSH1 0x4 ADD PUSH2 0x12AE JUMP JUMPDEST PUSH1 0x20 PUSH1 0x40 MLOAD DUP1 DUP4 SUB DUP2 PUSH0 DUP8 GAS CALL ISZERO DUP1 ISZERO PUSH2 0xDB0 JUMPI RETURNDATASIZE PUSH0 DUP1 RETURNDATACOPY RETURNDATASIZE PUSH0 REVERT JUMPDEST POP POP POP POP PUSH1 0x40 MLOAD RETURNDATASIZE PUSH1 0x1F NOT PUSH1 0x1F DUP3 ADD AND DUP3 ADD DUP1 PUSH1 0x40 MSTORE POP DUP2 ADD SWAP1 PUSH2 0xDD4 SWAP2 SWAP1 PUSH2 0x12C7 JUMP JUMPDEST POP PUSH1 0xC SLOAD PUSH1 0xA SLOAD PUSH1 0x1 PUSH1 0x1 PUSH1 0xA0 SHL SUB SWAP1 SWAP2 AND SWAP1 PUSH4 0x23B872DD SWAP1 DUP5 SWAP1 ADDRESS SWAP1 PUSH8 0xDE0B6B3A7640000 SWAP1 PUSH2 0xE05 SWAP1 DUP8 PUSH2 0x1278 JUMP JUMPDEST PUSH2 0xE0F SWAP2 SWAP1 PUSH2 0x128F JUMP JUMPDEST PUSH1 0x40 MLOAD DUP5 PUSH4 0xFFFFFFFF AND PUSH1 0xE0 SHL DUP2 MSTORE PUSH1 0x4 ADD PUSH2 0xE2D SWAP4 SWAP3 SWAP2 SWAP1 PUSH2 0x1307 JUMP JUMPDEST PUSH1 0x20 PUSH1 0x40 MLOAD DUP1 DUP4 SUB DUP2 PUSH0 DUP8 GAS CALL ISZERO DUP1 ISZERO PUSH2 0xE49 JUMPI RETURNDATASIZE PUSH0 DUP1 RETURNDATACOPY RETURNDATASIZE PUSH0 REVERT JUMPDEST POP POP POP POP PUSH1 0x40 MLOAD RETURNDATASIZE PUSH1 0x1F NOT PUSH1 0x1F DUP3 ADD AND DUP3 ADD DUP1 PUSH1 0x40 MSTORE POP DUP2 ADD SWAP1 PUSH2 0xE6D SWAP2 SWAP1 PUSH2 0x12C7 JUMP JUMPDEST POP PUSH2 0x607 PUSH1 0x1 PUSH1 0x6 SSTORE JUMP JUMPDEST PUSH1 0x1 PUSH1 0x1 PUSH1 0xA0 SHL SUB DUP5 AND PUSH2 0xEA1 JUMPI PUSH0 PUSH1 0x40 MLOAD PUSH4 0xE602DF05 PUSH1 0xE0 SHL DUP2 MSTORE PUSH1 0x4 ADD PUSH2 0x690 SWAP2 SWAP1 PUSH2 0x119D JUMP JUMPDEST PUSH1 0x1 PUSH1 0x1 PUSH1 0xA0 SHL SUB DUP4 AND PUSH2 0xECA JUMPI PUSH0 PUSH1 0x40 MLOAD PUSH4 0x4A1406B1 PUSH1 0xE1 SHL DUP2 MSTORE PUSH1 0x4 ADD PUSH2 0x690 SWAP2 SWAP1 PUSH2 0x119D JUMP JUMPDEST PUSH1 0x1 PUSH1 0x1 PUSH1 0xA0 SHL SUB DUP1 DUP6 AND PUSH0 SWAP1 DUP2 MSTORE PUSH1 0x1 PUSH1 0x20 SWAP1 DUP2 MSTORE PUSH1 0x40 DUP1 DUP4 KECCAK256 SWAP4 DUP8 AND DUP4 MSTORE SWAP3 SWAP1 MSTORE KECCAK256 DUP3 SWAP1 SSTORE DUP1 ISZERO PUSH2 0x436 JUMPI DUP3 PUSH1 0x1 PUSH1 0x1 PUSH1 0xA0 SHL SUB AND DUP5 PUSH1 0x1 PUSH1 0x1 PUSH1 0xA0 SHL SUB AND PUSH32 0x8C5BE1E5EBEC7D5BD14F71427D1E84F3DD0314C0F7B2291E5B200AC8C7C3B925 DUP5 PUSH1 0x40 MLOAD PUSH2 0xF3C SWAP2 DUP2 MSTORE PUSH1 0x20 ADD SWAP1 JUMP JUMPDEST PUSH1 0x40 MLOAD DUP1 SWAP2 SUB SWAP1 LOG3 POP POP POP POP JUMP JUMPDEST PUSH1 0x2 PUSH1 0x6 SLOAD SUB PUSH2 0xF6D JUMPI PUSH1 0x40 MLOAD PUSH4 0x3EE5AEB5 PUSH1 0xE0 SHL DUP2 MSTORE PUSH1 0x4 ADD PUSH1 0x40 MLOAD DUP1 SWAP2 SUB SWAP1 REVERT JUMPDEST PUSH1 0x2 PUSH1 0x6 SSTORE JUMP JUMPDEST PUSH1 0x1 PUSH1 0x1 PUSH1 0xA0 SHL SUB DUP3 AND PUSH2 0xF9D JUMPI PUSH0 PUSH1 0x40 MLOAD PUSH4 0x4B637E8F PUSH1 0xE1 SHL DUP2 MSTORE PUSH1 0x4 ADD PUSH2 0x690 SWAP2 SWAP1 PUSH2 0x119D JUMP JUMPDEST PUSH2 0x607 DUP3 PUSH0 DUP4 JUMPDEST PUSH1 0x1 PUSH1 0x1 PUSH1 0xA0 SHL SUB DUP4 AND PUSH2 0xFCE JUMPI DUP1 PUSH1 0x2 PUSH0 DUP3 DUP3 SLOAD PUSH2 0xFC3 SWAP2 SWAP1 PUSH2 0x132B JUMP JUMPDEST SWAP1 SWAP2 SSTORE POP PUSH2 0x102B SWAP1 POP JUMP JUMPDEST PUSH1 0x1 PUSH1 0x1 PUSH1 0xA0 SHL SUB DUP4 AND PUSH0 SWAP1 DUP2 MSTORE PUSH1 0x20 DUP2 SWAP1 MSTORE PUSH1 0x40 SWAP1 KECCAK256 SLOAD DUP2 DUP2 LT ISZERO PUSH2 0x100D JUMPI DUP4 DUP2 DUP4 PUSH1 0x40 MLOAD PUSH4 0x391434E3 PUSH1 0xE2 SHL DUP2 MSTORE PUSH1 0x4 ADD PUSH2 0x690 SWAP4 SWAP3 SWAP2 SWAP1 PUSH2 0x12E6 JUMP JUMPDEST PUSH1 0x1 PUSH1 0x1 PUSH1 0xA0 SHL SUB DUP5 AND PUSH0 SWAP1 DUP2 MSTORE PUSH1 0x20 DUP2 SWAP1 MSTORE PUSH1 0x40 SWAP1 KECCAK256 SWAP1 DUP3 SWAP1 SUB SWAP1 SSTORE JUMPDEST PUSH1 0x1 PUSH1 0x1 PUSH1 0xA0 SHL SUB DUP3 AND PUSH2 0x1047 JUMPI PUSH1 0x2 DUP1 SLOAD DUP3 SWAP1 SUB SWAP1 SSTORE PUSH2 0x1065 JUMP JUMPDEST PUSH1 0x1 PUSH1 0x1 PUSH1 0xA0 SHL SUB DUP3 AND PUSH0 SWAP1 DUP2 MSTORE PUSH1 0x20 DUP2 SWAP1 MSTORE PUSH1 0x40 SWAP1 KECCAK256 DUP1 SLOAD DUP3 ADD SWAP1 SSTORE JUMPDEST DUP2 PUSH1 0x1 PUSH1 0x1 PUSH1 0xA0 SHL SUB AND DUP4 PUSH1 0x1 PUSH1 0x1 PUSH1 0xA0 SHL SUB AND PUSH32 0xDDF252AD1BE2C89B69C2B068FC378DAA952BA7F163C4A11628F55A4DF523B3EF DUP4 PUSH1 0x40 MLOAD PUSH2 0x10AA SWAP2 DUP2 MSTORE PUSH1 0x20 ADD SWAP1 JUMP JUMPDEST PUSH1 0x40 MLOAD DUP1 SWAP2 SUB SWAP1 LOG3 POP POP POP JUMP JUMPDEST PUSH1 0x1 PUSH1 0x1 PUSH1 0xA0 SHL SUB DUP3 AND PUSH2 0x10E0 JUMPI PUSH0 PUSH1 0x40 MLOAD PUSH4 0xEC442F05 PUSH1 0xE0 SHL DUP2 MSTORE PUSH1 0x4 ADD PUSH2 0x690 SWAP2 SWAP1 PUSH2 0x119D JUMP JUMPDEST PUSH2 0x607 PUSH0 DUP4 DUP4 PUSH2 0xFA4 JUMP JUMPDEST PUSH1 0x20 DUP2 MSTORE PUSH0 DUP3 MLOAD DUP1 PUSH1 0x20 DUP5 ADD MSTORE DUP1 PUSH1 0x20 DUP6 ADD PUSH1 0x40 DUP6 ADD MCOPY PUSH0 PUSH1 0x40 DUP3 DUP6 ADD ADD MSTORE PUSH1 0x40 PUSH1 0x1F NOT PUSH1 0x1F DUP4 ADD AND DUP5 ADD ADD SWAP2 POP POP SWAP3 SWAP2 POP POP JUMP JUMPDEST DUP1 CALLDATALOAD PUSH1 0x1 PUSH1 0x1 PUSH1 0xA0 SHL SUB DUP2 AND DUP2 EQ PUSH2 0x1136 JUMPI PUSH0 DUP1 REVERT JUMPDEST SWAP2 SWAP1 POP JUMP JUMPDEST PUSH0 DUP1 PUSH1 0x40 DUP4 DUP6 SUB SLT ISZERO PUSH2 0x114C JUMPI PUSH0 DUP1 REVERT JUMPDEST PUSH2 0x1155 DUP4 PUSH2 0x1120 JUMP JUMPDEST SWAP5 PUSH1 0x20 SWAP4 SWAP1 SWAP4 ADD CALLDATALOAD SWAP4 POP POP POP JUMP JUMPDEST PUSH0 DUP1 PUSH0 PUSH1 0x60 DUP5 DUP7 SUB SLT ISZERO PUSH2 0x1175 JUMPI PUSH0 DUP1 REVERT JUMPDEST PUSH2 0x117E DUP5 PUSH2 0x1120 JUMP JUMPDEST SWAP3 POP PUSH2 0x118C PUSH1 0x20 DUP6 ADD PUSH2 0x1120 JUMP JUMPDEST SWAP3 SWAP6 SWAP3 SWAP5 POP POP POP PUSH1 0x40 SWAP2 SWAP1 SWAP2 ADD CALLDATALOAD SWAP1 JUMP JUMPDEST PUSH1 0x1 PUSH1 0x1 PUSH1 0xA0 SHL SUB SWAP2 SWAP1 SWAP2 AND DUP2 MSTORE PUSH1 0x20 ADD SWAP1 JUMP JUMPDEST PUSH0 PUSH1 0x20 DUP3 DUP5 SUB SLT ISZERO PUSH2 0x11C1 JUMPI PUSH0 DUP1 REVERT JUMPDEST PUSH2 0x11CA DUP3 PUSH2 0x1120 JUMP JUMPDEST SWAP4 SWAP3 POP POP POP JUMP JUMPDEST PUSH0 DUP1 PUSH1 0x40 DUP4 DUP6 SUB SLT ISZERO PUSH2 0x11E2 JUMPI PUSH0 DUP1 REVERT JUMPDEST PUSH2 0x11EB DUP4 PUSH2 0x1120 JUMP JUMPDEST SWAP2 POP PUSH2 0x11F9 PUSH1 0x20 DUP5 ADD PUSH2 0x1120 JUMP JUMPDEST SWAP1 POP SWAP3 POP SWAP3 SWAP1 POP JUMP JUMPDEST PUSH1 0x1 DUP2 DUP2 SHR SWAP1 DUP3 AND DUP1 PUSH2 0x1216 JUMPI PUSH1 0x7F DUP3 AND SWAP2 POP JUMPDEST PUSH1 0x20 DUP3 LT DUP2 SUB PUSH2 0x1234 JUMPI PUSH4 0x4E487B71 PUSH1 0xE0 SHL PUSH0 MSTORE PUSH1 0x22 PUSH1 0x4 MSTORE PUSH1 0x24 PUSH0 REVERT JUMPDEST POP SWAP2 SWAP1 POP JUMP JUMPDEST PUSH0 PUSH1 0x20 DUP3 DUP5 SUB SLT ISZERO PUSH2 0x124A JUMPI PUSH0 DUP1 REVERT JUMPDEST POP MLOAD SWAP2 SWAP1 POP JUMP JUMPDEST PUSH4 0x4E487B71 PUSH1 0xE0 SHL PUSH0 MSTORE PUSH1 0x11 PUSH1 0x4 MSTORE PUSH1 0x24 PUSH0 REVERT JUMPDEST DUP2 DUP2 SUB DUP2 DUP2 GT ISZERO PUSH2 0x3D8 JUMPI PUSH2 0x3D8 PUSH2 0x1251 JUMP JUMPDEST DUP1 DUP3 MUL DUP2 ISZERO DUP3 DUP3 DIV DUP5 EQ OR PUSH2 0x3D8 JUMPI PUSH2 0x3D8 PUSH2 0x1251 JUMP JUMPDEST PUSH0 DUP3 PUSH2 0x12A9 JUMPI PUSH4 0x4E487B71 PUSH1 0xE0 SHL PUSH0 MSTORE PUSH1 0x12 PUSH1 0x4 MSTORE PUSH1 0x24 PUSH0 REVERT JUMPDEST POP DIV SWAP1 JUMP JUMPDEST PUSH1 0x1 PUSH1 0x1 PUSH1 0xA0 SHL SUB SWAP3 SWAP1 SWAP3 AND DUP3 MSTORE PUSH1 0x20 DUP3 ADD MSTORE PUSH1 0x40 ADD SWAP1 JUMP JUMPDEST PUSH0 PUSH1 0x20 DUP3 DUP5 SUB SLT ISZERO PUSH2 0x12D7 JUMPI PUSH0 DUP1 REVERT JUMPDEST DUP2 MLOAD DUP1 ISZERO ISZERO DUP2 EQ PUSH2 0x11CA JUMPI PUSH0 DUP1 REVERT JUMPDEST PUSH1 0x1 PUSH1 0x1 PUSH1 0xA0 SHL SUB SWAP4 SWAP1 SWAP4 AND DUP4 MSTORE PUSH1 0x20 DUP4 ADD SWAP2 SWAP1 SWAP2 MSTORE PUSH1 0x40 DUP3 ADD MSTORE PUSH1 0x60 ADD SWAP1 JUMP JUMPDEST PUSH1 0x1 PUSH1 0x1 PUSH1 0xA0 SHL SUB SWAP4 DUP5 AND DUP2 MSTORE SWAP2 SWAP1 SWAP3 AND PUSH1 0x20 DUP3 ADD MSTORE PUSH1 0x40 DUP2 ADD SWAP2 SWAP1 SWAP2 MSTORE PUSH1 0x60 ADD SWAP1 JUMP JUMPDEST DUP1 DUP3 ADD DUP1 DUP3 GT ISZERO PUSH2 0x3D8 JUMPI PUSH2 0x3D8 PUSH2 0x1251 JUMP INVALID LOG2 PUSH5 0x6970667358 0x22 SLT KECCAK256 0xCF 0xA9 BLOBBASEFEE 0xA5 0x4C CREATE2 REVERT 0xB6 TIMESTAMP EXTCODEHASH SHL STATICCALL DUP11 DUP2 0xA5 ADDMOD SLOAD INVALID 0xD6 PUSH17 0x33139650BA15AB039D139C6364736F6C63 NUMBER STOP ADDMOD BYTE STOP CALLER LOG2 PUSH5 0x6970667358 0x22 SLT KECCAK256 PUSH8 0xA32231A6BB662BC5 0x4E 0xD DUP2 DUP14 CALLDATACOPY SWAP2 0x28 0xD1 DUP6 0xD5 0xB1 GAS SWAP4 0xE8 DUP6 MSTORE SLT SIGNEXTEND 0xA5 SLT 0xDC 0xD9 0xAC PUSH5 0x736F6C6343 STOP ADDMOD BYTE STOP CALLER "
		},
		"gasEstimates": {
			"creation": {
				"codeDepositCost": "2469200",
				"executionCost": "28518",
				"totalCost": "2497718"
			},
			"external": {
				"createOption(string,string,address,address,uint256,uint256,bool)": "infinite",
				"createdOptions(uint256)": "4657",
				"owner()": "2342",
				"renounceOwnership()": "infinite",
				"transferOwnership(address)": "infinite"
			}
		},
		"methodIdentifiers": {
			"createOption(string,string,address,address,uint256,uint256,bool)": "f5bc4f3e",
			"createdOptions(uint256)": "a2618c97",
			"owner()": "8da5cb5b",
			"renounceOwnership()": "715018a6",
			"transferOwnership(address)": "f2fde38b"
		}
	},
	"abi": [
		{
			"inputs": [],
			"stateMutability": "nonpayable",
			"type": "constructor"
		},
		{
			"inputs": [
				{
					"internalType": "address",
					"name": "owner",
					"type": "address"
				}
			],
			"name": "OwnableInvalidOwner",
			"type": "error"
		},
		{
			"inputs": [
				{
					"internalType": "address",
					"name": "account",
					"type": "address"
				}
			],
			"name": "OwnableUnauthorizedAccount",
			"type": "error"
		},
		{
			"anonymous": false,
			"inputs": [
				{
					"indexed": false,
					"internalType": "address",
					"name": "optionContractAddress",
					"type": "address"
				},
				{
					"indexed": false,
					"internalType": "address",
					"name": "collateralAddress",
					"type": "address"
				},
				{
					"indexed": false,
					"internalType": "address",
					"name": "shortOptionAddress",
					"type": "address"
				},
				{
					"indexed": false,
					"internalType": "uint256",
					"name": "expirationDate",
					"type": "uint256"
				},
				{
					"indexed": false,
					"internalType": "uint256",
					"name": "strike",
					"type": "uint256"
				},
				{
					"indexed": false,
					"internalType": "bool",
					"name": "isPut",
					"type": "bool"
				}
			],
			"name": "LongOptionCreated",
			"type": "event"
		},
		{
			"anonymous": false,
			"inputs": [
				{
					"indexed": true,
					"internalType": "address",
					"name": "previousOwner",
					"type": "address"
				},
				{
					"indexed": true,
					"internalType": "address",
					"name": "newOwner",
					"type": "address"
				}
			],
			"name": "OwnershipTransferred",
			"type": "event"
		},
		{
			"inputs": [
				{
					"internalType": "string",
					"name": "name",
					"type": "string"
				},
				{
					"internalType": "string",
					"name": "symbol",
					"type": "string"
				},
				{
					"internalType": "address",
					"name": "collateralAddress",
					"type": "address"
				},
				{
					"internalType": "address",
					"name": "considerationAddress",
					"type": "address"
				},
				{
					"internalType": "uint256",
					"name": "expirationDate",
					"type": "uint256"
				},
				{
					"internalType": "uint256",
					"name": "strike",
					"type": "uint256"
				},
				{
					"internalType": "bool",
					"name": "isPut",
					"type": "bool"
				}
			],
			"name": "createOption",
			"outputs": [],
			"stateMutability": "nonpayable",
			"type": "function"
		},
		{
			"inputs": [
				{
					"internalType": "uint256",
					"name": "",
					"type": "uint256"
				}
			],
			"name": "createdOptions",
			"outputs": [
				{
					"internalType": "address",
					"name": "",
					"type": "address"
				}
			],
			"stateMutability": "view",
			"type": "function"
		},
		{
			"inputs": [],
			"name": "owner",
			"outputs": [
				{
					"internalType": "address",
					"name": "",
					"type": "address"
				}
			],
			"stateMutability": "view",
			"type": "function"
		},
		{
			"inputs": [],
			"name": "renounceOwnership",
			"outputs": [],
			"stateMutability": "nonpayable",
			"type": "function"
		},
		{
			"inputs": [
				{
					"internalType": "address",
					"name": "newOwner",
					"type": "address"
				}
			],
			"name": "transferOwnership",
			"outputs": [],
			"stateMutability": "nonpayable",
			"type": "function"
		}
	]
}