{
	"data": {
		"bytecode": {
			"linkReferences": {},
			"object": "608060405234801561000f575f80fd5b50335f73ffffffffffffffffffffffffffffffffffffffff168173ffffffffffffffffffffffffffffffffffffffff1603610081575f6040517f1e4fbdf70000000000000000000000000000000000000000000000000000000081526004016100789190610196565b60405180910390fd5b6100908161009660201b60201c565b506101af565b5f805f9054906101000a900473ffffffffffffffffffffffffffffffffffffffff169050815f806101000a81548173ffffffffffffffffffffffffffffffffffffffff021916908373ffffffffffffffffffffffffffffffffffffffff1602179055508173ffffffffffffffffffffffffffffffffffffffff168173ffffffffffffffffffffffffffffffffffffffff167f8be0079c531659141344cd1fd0a4f28419497f9722a3daafe3b4186f6b6457e060405160405180910390a35050565b5f73ffffffffffffffffffffffffffffffffffffffff82169050919050565b5f61018082610157565b9050919050565b61019081610176565b82525050565b5f6020820190506101a95f830184610187565b92915050565b615c9e806101bc5f395ff3fe608060405234801561000f575f80fd5b5060043610610055575f3560e01c8063715018a6146100595780638da5cb5b14610063578063a2618c9714610081578063cb39d593146100b1578063f2fde38b146100cd575b5f80fd5b6100616100e9565b005b61006b6100fc565b6040516100789190610425565b60405180910390f35b61009b60048036038101906100969190610482565b610123565b6040516100a89190610425565b60405180910390f35b6100cb60048036038101906100c69190610648565b61015e565b005b6100e760048036038101906100e29190610731565b610206565b005b6100f161028a565b6100fa5f610311565b565b5f805f9054906101000a900473ffffffffffffffffffffffffffffffffffffffff16905090565b60018181548110610132575f80fd5b905f5260205f20015f915054906101000a900473ffffffffffffffffffffffffffffffffffffffff1681565b60018888888888888888604051610174906103d9565b6101859897969594939291906107da565b604051809103905ff08015801561019e573d5f803e3d5ffd5b50908060018154018082558091505060019003905f5260205f20015f9091909190916101000a81548173ffffffffffffffffffffffffffffffffffffffff021916908373ffffffffffffffffffffffffffffffffffffffff1602179055505050505050505050565b61020e61028a565b5f73ffffffffffffffffffffffffffffffffffffffff168173ffffffffffffffffffffffffffffffffffffffff160361027e575f6040517f1e4fbdf70000000000000000000000000000000000000000000000000000000081526004016102759190610425565b60405180910390fd5b61028781610311565b50565b6102926103d2565b73ffffffffffffffffffffffffffffffffffffffff166102b06100fc565b73ffffffffffffffffffffffffffffffffffffffff161461030f576102d36103d2565b6040517f118cdaa70000000000000000000000000000000000000000000000000000000081526004016103069190610425565b60405180910390fd5b565b5f805f9054906101000a900473ffffffffffffffffffffffffffffffffffffffff169050815f806101000a81548173ffffffffffffffffffffffffffffffffffffffff021916908373ffffffffffffffffffffffffffffffffffffffff1602179055508173ffffffffffffffffffffffffffffffffffffffff168173ffffffffffffffffffffffffffffffffffffffff167f8be0079c531659141344cd1fd0a4f28419497f9722a3daafe3b4186f6b6457e060405160405180910390a35050565b5f33905090565b6154048061086583390190565b5f73ffffffffffffffffffffffffffffffffffffffff82169050919050565b5f61040f826103e6565b9050919050565b61041f81610405565b82525050565b5f6020820190506104385f830184610416565b92915050565b5f604051905090565b5f80fd5b5f80fd5b5f819050919050565b6104618161044f565b811461046b575f80fd5b50565b5f8135905061047c81610458565b92915050565b5f6020828403121561049757610496610447565b5b5f6104a48482850161046e565b91505092915050565b5f80fd5b5f80fd5b5f601f19601f8301169050919050565b7f4e487b71000000000000000000000000000000000000000000000000000000005f52604160045260245ffd5b6104fb826104b5565b810181811067ffffffffffffffff8211171561051a576105196104c5565b5b80604052505050565b5f61052c61043e565b905061053882826104f2565b919050565b5f67ffffffffffffffff821115610557576105566104c5565b5b610560826104b5565b9050602081019050919050565b828183375f83830152505050565b5f61058d6105888461053d565b610523565b9050828152602081018484840111156105a9576105a86104b1565b5b6105b484828561056d565b509392505050565b5f82601f8301126105d0576105cf6104ad565b5b81356105e084826020860161057b565b91505092915050565b6105f281610405565b81146105fc575f80fd5b50565b5f8135905061060d816105e9565b92915050565b5f8115159050919050565b61062781610613565b8114610631575f80fd5b50565b5f813590506106428161061e565b92915050565b5f805f805f805f80610100898b03121561066557610664610447565b5b5f89013567ffffffffffffffff8111156106825761068161044b565b5b61068e8b828c016105bc565b985050602089013567ffffffffffffffff8111156106af576106ae61044b565b5b6106bb8b828c016105bc565b97505060406106cc8b828c016105ff565b96505060606106dd8b828c016105ff565b95505060806106ee8b828c0161046e565b94505060a06106ff8b828c0161046e565b93505060c06107108b828c0161046e565b92505060e06107218b828c01610634565b9150509295985092959890939650565b5f6020828403121561074657610745610447565b5b5f610753848285016105ff565b91505092915050565b5f81519050919050565b5f82825260208201905092915050565b8281835e5f83830152505050565b5f61078e8261075c565b6107988185610766565b93506107a8818560208601610776565b6107b1816104b5565b840191505092915050565b6107c58161044f565b82525050565b6107d481610613565b82525050565b5f610100820190508181035f8301526107f3818b610784565b90508181036020830152610807818a610784565b90506108166040830189610416565b6108236060830188610416565b61083060808301876107bc565b61083d60a08301866107bc565b61084a60c08301856107bc565b61085760e08301846107cb565b999850505050505050505056fe608060405234801561000f575f80fd5b50604051615404380380615404833981810160405281019061003191906106f8565b8787878787878787338888816003908161004b91906109e5565b50806004908161005b91906109e5565b5050505f73ffffffffffffffffffffffffffffffffffffffff168173ffffffffffffffffffffffffffffffffffffffff16036100ce575f6040517f1e4fbdf70000000000000000000000000000000000000000000000000000000081526004016100c59190610ac3565b60405180910390fd5b6100dd8161041960201b60201c565b5060016006819055505f820361011f576040517f9a5818d800000000000000000000000000000000000000000000000000000000815260040160405180910390fd5b5f8303610158576040517f9a5818d800000000000000000000000000000000000000000000000000000000815260040160405180910390fd5b42841015610192576040517ffb2a675200000000000000000000000000000000000000000000000000000000815260040160405180910390fd5b8360098190555082600a8190555081600b819055508560075f6101000a81548173ffffffffffffffffffffffffffffffffffffffff021916908373ffffffffffffffffffffffffffffffffffffffff1602179055508460085f6101000a81548173ffffffffffffffffffffffffffffffffffffffff021916908373ffffffffffffffffffffffffffffffffffffffff16021790555080600c5f6101000a81548160ff02191690831515021790555085600c60016101000a81548173ffffffffffffffffffffffffffffffffffffffff021916908373ffffffffffffffffffffffffffffffffffffffff16021790555084600d5f6101000a81548173ffffffffffffffffffffffffffffffffffffffff021916908373ffffffffffffffffffffffffffffffffffffffff160217905550505050505050505087878787878787876040516102dd906104dc565b6102ee989796959493929190610b42565b604051809103905ff080158015610307573d5f803e3d5ffd5b50600f5f6101000a81548173ffffffffffffffffffffffffffffffffffffffff021916908373ffffffffffffffffffffffffffffffffffffffff160217905550600f5f9054906101000a900473ffffffffffffffffffffffffffffffffffffffff16600e5f6101000a81548173ffffffffffffffffffffffffffffffffffffffff021916908373ffffffffffffffffffffffffffffffffffffffff1602179055507f7e842d4ad52dcfb58485f00b58e0ab0b1083a6b8426c16a0ad429f9a5710f2503087600e5f9054906101000a900473ffffffffffffffffffffffffffffffffffffffff16878787876040516104049796959493929190610bcc565b60405180910390a15050505050505050610c39565b5f60055f9054906101000a900473ffffffffffffffffffffffffffffffffffffffff1690508160055f6101000a81548173ffffffffffffffffffffffffffffffffffffffff021916908373ffffffffffffffffffffffffffffffffffffffff1602179055508173ffffffffffffffffffffffffffffffffffffffff168173ffffffffffffffffffffffffffffffffffffffff167f8be0079c531659141344cd1fd0a4f28419497f9722a3daafe3b4186f6b6457e060405160405180910390a35050565b612d658061269f83390190565b5f604051905090565b5f80fd5b5f80fd5b5f80fd5b5f80fd5b5f601f19601f8301169050919050565b7f4e487b71000000000000000000000000000000000000000000000000000000005f52604160045260245ffd5b61054882610502565b810181811067ffffffffffffffff8211171561056757610566610512565b5b80604052505050565b5f6105796104e9565b9050610585828261053f565b919050565b5f67ffffffffffffffff8211156105a4576105a3610512565b5b6105ad82610502565b9050602081019050919050565b8281835e5f83830152505050565b5f6105da6105d58461058a565b610570565b9050828152602081018484840111156105f6576105f56104fe565b5b6106018482856105ba565b509392505050565b5f82601f83011261061d5761061c6104fa565b5b815161062d8482602086016105c8565b91505092915050565b5f73ffffffffffffffffffffffffffffffffffffffff82169050919050565b5f61065f82610636565b9050919050565b61066f81610655565b8114610679575f80fd5b50565b5f8151905061068a81610666565b92915050565b5f819050919050565b6106a281610690565b81146106ac575f80fd5b50565b5f815190506106bd81610699565b92915050565b5f8115159050919050565b6106d7816106c3565b81146106e1575f80fd5b50565b5f815190506106f2816106ce565b92915050565b5f805f805f805f80610100898b031215610715576107146104f2565b5b5f89015167ffffffffffffffff811115610732576107316104f6565b5b61073e8b828c01610609565b985050602089015167ffffffffffffffff81111561075f5761075e6104f6565b5b61076b8b828c01610609565b975050604061077c8b828c0161067c565b965050606061078d8b828c0161067c565b955050608061079e8b828c016106af565b94505060a06107af8b828c016106af565b93505060c06107c08b828c016106af565b92505060e06107d18b828c016106e4565b9150509295985092959890939650565b5f81519050919050565b7f4e487b71000000000000000000000000000000000000000000000000000000005f52602260045260245ffd5b5f600282049050600182168061082f57607f821691505b602082108103610842576108416107eb565b5b50919050565b5f819050815f5260205f209050919050565b5f6020601f8301049050919050565b5f82821b905092915050565b5f600883026108a47fffffffffffffffffffffffffffffffffffffffffffffffffffffffffffffffff82610869565b6108ae8683610869565b95508019841693508086168417925050509392505050565b5f819050919050565b5f6108e96108e46108df84610690565b6108c6565b610690565b9050919050565b5f819050919050565b610902836108cf565b61091661090e826108f0565b848454610875565b825550505050565b5f90565b61092a61091e565b6109358184846108f9565b505050565b5b818110156109585761094d5f82610922565b60018101905061093b565b5050565b601f82111561099d5761096e81610848565b6109778461085a565b81016020851015610986578190505b61099a6109928561085a565b83018261093a565b50505b505050565b5f82821c905092915050565b5f6109bd5f19846008026109a2565b1980831691505092915050565b5f6109d583836109ae565b9150826002028217905092915050565b6109ee826107e1565b67ffffffffffffffff811115610a0757610a06610512565b5b610a118254610818565b610a1c82828561095c565b5f60209050601f831160018114610a4d575f8415610a3b578287015190505b610a4585826109ca565b865550610aac565b601f198416610a5b86610848565b5f5b82811015610a8257848901518255600182019150602085019450602081019050610a5d565b86831015610a9f5784890151610a9b601f8916826109ae565b8355505b6001600288020188555050505b505050505050565b610abd81610655565b82525050565b5f602082019050610ad65f830184610ab4565b92915050565b5f82825260208201905092915050565b5f610af6826107e1565b610b008185610adc565b9350610b108185602086016105ba565b610b1981610502565b840191505092915050565b610b2d81610690565b82525050565b610b3c816106c3565b82525050565b5f610100820190508181035f830152610b5b818b610aec565b90508181036020830152610b6f818a610aec565b9050610b7e6040830189610ab4565b610b8b6060830188610ab4565b610b986080830187610b24565b610ba560a0830186610b24565b610bb260c0830185610b24565b610bbf60e0830184610b33565b9998505050505050505050565b5f60e082019050610bdf5f83018a610ab4565b610bec6020830189610ab4565b610bf96040830188610ab4565b610c066060830187610b24565b610c136080830186610b24565b610c2060a0830185610b24565b610c2d60c0830184610b33565b98975050505050505050565b611a5980610c465f395ff3fe608060405234801561000f575f80fd5b5060043610610171575f3560e01c806395d89b41116100dc578063b8a11e8211610095578063db006a751161006f578063db006a751461041b578063dd62ed3e14610437578063f2fde38b14610467578063f3c274a61461048357610171565b8063b8a11e82146103c1578063cfb4fc71146103df578063d8dfeb45146103fd57610171565b806395d89b41146102ff5780639acea70d1461031d578063a0712d681461033b578063a9059cbb14610357578063ad7448bc14610387578063b07f0a41146103a557610171565b806348d399e71161012e57806348d399e71461024d5780636f713c9c1461026b57806370a0823114610289578063715018a6146102b95780638da5cb5b146102c35780638f620487146102e157610171565b806306fdde0314610175578063095ea7b31461019357806318160ddd146101c357806323b872dd146101e15780632c7d424014610211578063313ce5671461022f575b5f80fd5b61017d6104a1565b60405161018a9190611594565b60405180910390f35b6101ad60048036038101906101a89190611645565b610531565b6040516101ba919061169d565b60405180910390f35b6101cb610553565b6040516101d891906116c5565b60405180910390f35b6101fb60048036038101906101f691906116de565b61055c565b604051610208919061169d565b60405180910390f35b61021961058a565b604051610226919061173d565b60405180910390f35b6102376105af565b6040516102449190611771565b60405180910390f35b6102556105b7565b604051610262919061173d565b60405180910390f35b6102736105dc565b60405161028091906117e5565b60405180910390f35b6102a3600480360381019061029e91906117fe565b610601565b6040516102b091906116c5565b60405180910390f35b6102c1610646565b005b6102cb610659565b6040516102d8919061173d565b60405180910390f35b6102e9610681565b6040516102f691906116c5565b60405180910390f35b610307610687565b6040516103149190611594565b60405180910390f35b610325610717565b604051610332919061173d565b60405180910390f35b61035560048036038101906103509190611829565b61073c565b005b610371600480360381019061036c9190611645565b61081f565b60405161037e919061169d565b60405180910390f35b61038f610841565b60405161039c9190611874565b60405180910390f35b6103bf60048036038101906103ba9190611829565b610866565b005b6103c9610984565b6040516103d691906116c5565b60405180910390f35b6103e761098a565b6040516103f491906116c5565b60405180910390f35b610405610990565b60405161041291906117e5565b60405180910390f35b61043560048036038101906104309190611829565b6109b6565b005b610451600480360381019061044c919061188d565b610bf1565b60405161045e91906116c5565b60405180910390f35b610481600480360381019061047c91906117fe565b610c73565b005b61048b610cf7565b604051610498919061169d565b60405180910390f35b6060600380546104b0906118f8565b80601f01602080910402602001604051908101604052809291908181526020018280546104dc906118f8565b80156105275780601f106104fe57610100808354040283529160200191610527565b820191905f5260205f20905b81548152906001019060200180831161050a57829003601f168201915b5050505050905090565b5f8061053b610d09565b9050610548818585610d10565b600191505092915050565b5f600254905090565b5f80610566610d09565b9050610573858285610d22565b61057e858585610db4565b60019150509392505050565b600e5f9054906101000a900473ffffffffffffffffffffffffffffffffffffffff1681565b5f6012905090565b60075f9054906101000a900473ffffffffffffffffffffffffffffffffffffffff1681565b600d5f9054906101000a900473ffffffffffffffffffffffffffffffffffffffff1681565b5f805f8373ffffffffffffffffffffffffffffffffffffffff1673ffffffffffffffffffffffffffffffffffffffff1681526020019081526020015f20549050919050565b61064e610ea4565b6106575f610f2b565b565b5f60055f9054906101000a900473ffffffffffffffffffffffffffffffffffffffff16905090565b60095481565b606060048054610696906118f8565b80601f01602080910402602001604051908101604052809291908181526020018280546106c2906118f8565b801561070d5780601f106106e45761010080835404028352916020019161070d565b820191905f5260205f20905b8154815290600101906020018083116106f057829003601f168201915b5050505050905090565b60085f9054906101000a900473ffffffffffffffffffffffffffffffffffffffff1681565b610744610fee565b806001811015610780576040517f2c5211c600000000000000000000000000000000000000000000000000000000815260040160405180910390fd5b61078a3383611034565b600f5f9054906101000a900473ffffffffffffffffffffffffffffffffffffffff1673ffffffffffffffffffffffffffffffffffffffff166340c10f1933846040518363ffffffff1660e01b81526004016107e6929190611928565b5f604051808303815f87803b1580156107fd575f80fd5b505af115801561080f573d5f803e3d5ffd5b505050505061081c6110b3565b50565b5f80610829610d09565b9050610836818585610db4565b600191505092915050565b600f5f9054906101000a900473ffffffffffffffffffffffffffffffffffffffff1681565b60095442106108a1576040517f0790d4e300000000000000000000000000000000000000000000000000000000815260040160405180910390fd5b6108a9610fee565b8060018110156108e5576040517f2c5211c600000000000000000000000000000000000000000000000000000000815260040160405180910390fd5b6108ef33836110bd565b600f5f9054906101000a900473ffffffffffffffffffffffffffffffffffffffff1673ffffffffffffffffffffffffffffffffffffffff1663dd068ec133846040518363ffffffff1660e01b815260040161094b929190611928565b5f604051808303815f87803b158015610962575f80fd5b505af1158015610974573d5f803e3d5ffd5b50505050506109816110b3565b50565b600a5481565b600b5481565b600c60019054906101000a900473ffffffffffffffffffffffffffffffffffffffff1681565b60095442106109f1576040517f0790d4e300000000000000000000000000000000000000000000000000000000815260040160405180910390fd5b6109f9610fee565b338180610a0583610601565b1015610a3d576040517ff4d678b800000000000000000000000000000000000000000000000000000000815260040160405180910390fd5b826001811015610a79576040517f2c5211c600000000000000000000000000000000000000000000000000000000815260040160405180910390fd5b83600f5f9054906101000a900473ffffffffffffffffffffffffffffffffffffffff1673ffffffffffffffffffffffffffffffffffffffff166370a08231336040518263ffffffff1660e01b8152600401610ad4919061173d565b602060405180830381865afa158015610aef573d5f803e3d5ffd5b505050506040513d601f19601f82011682018060405250810190610b139190611963565b1015610b4b576040517ff4d678b800000000000000000000000000000000000000000000000000000000815260040160405180910390fd5b5f339050600f5f9054906101000a900473ffffffffffffffffffffffffffffffffffffffff1673ffffffffffffffffffffffffffffffffffffffff1663e0ca59bb82876040518363ffffffff1660e01b8152600401610bab929190611928565b5f604051808303815f87803b158015610bc2575f80fd5b505af1158015610bd4573d5f803e3d5ffd5b50505050610be281866110bd565b50505050610bee6110b3565b50565b5f60015f8473ffffffffffffffffffffffffffffffffffffffff1673ffffffffffffffffffffffffffffffffffffffff1681526020019081526020015f205f8373ffffffffffffffffffffffffffffffffffffffff1673ffffffffffffffffffffffffffffffffffffffff1681526020019081526020015f2054905092915050565b610c7b610ea4565b5f73ffffffffffffffffffffffffffffffffffffffff168173ffffffffffffffffffffffffffffffffffffffff1603610ceb575f6040517f1e4fbdf7000000000000000000000000000000000000000000000000000000008152600401610ce2919061173d565b60405180910390fd5b610cf481610f2b565b50565b600c5f9054906101000a900460ff1681565b5f33905090565b610d1d838383600161113c565b505050565b5f610d2d8484610bf1565b90507fffffffffffffffffffffffffffffffffffffffffffffffffffffffffffffffff8114610dae5781811015610d9f578281836040517ffb8f41b2000000000000000000000000000000000000000000000000000000008152600401610d969392919061198e565b60405180910390fd5b610dad84848484035f61113c565b5b50505050565b5f73ffffffffffffffffffffffffffffffffffffffff168373ffffffffffffffffffffffffffffffffffffffff1603610e24575f6040517f96c6fd1e000000000000000000000000000000000000000000000000000000008152600401610e1b919061173d565b60405180910390fd5b5f73ffffffffffffffffffffffffffffffffffffffff168273ffffffffffffffffffffffffffffffffffffffff1603610e94575f6040517fec442f05000000000000000000000000000000000000000000000000000000008152600401610e8b919061173d565b60405180910390fd5b610e9f83838361130b565b505050565b610eac610d09565b73ffffffffffffffffffffffffffffffffffffffff16610eca610659565b73ffffffffffffffffffffffffffffffffffffffff1614610f2957610eed610d09565b6040517f118cdaa7000000000000000000000000000000000000000000000000000000008152600401610f20919061173d565b60405180910390fd5b565b5f60055f9054906101000a900473ffffffffffffffffffffffffffffffffffffffff1690508160055f6101000a81548173ffffffffffffffffffffffffffffffffffffffff021916908373ffffffffffffffffffffffffffffffffffffffff1602179055508173ffffffffffffffffffffffffffffffffffffffff168173ffffffffffffffffffffffffffffffffffffffff167f8be0079c531659141344cd1fd0a4f28419497f9722a3daafe3b4186f6b6457e060405160405180910390a35050565b60026006540361102a576040517f3ee5aeb500000000000000000000000000000000000000000000000000000000815260040160405180910390fd5b6002600681905550565b5f73ffffffffffffffffffffffffffffffffffffffff168273ffffffffffffffffffffffffffffffffffffffff16036110a4575f6040517fec442f0500000000000000000000000000000000000000000000000000000000815260040161109b919061173d565b60405180910390fd5b6110af5f838361130b565b5050565b6001600681905550565b5f73ffffffffffffffffffffffffffffffffffffffff168273ffffffffffffffffffffffffffffffffffffffff160361112d575f6040517f96c6fd1e000000000000000000000000000000000000000000000000000000008152600401611124919061173d565b60405180910390fd5b611138825f8361130b565b5050565b5f73ffffffffffffffffffffffffffffffffffffffff168473ffffffffffffffffffffffffffffffffffffffff16036111ac575f6040517fe602df050000000000000000000000000000000000000000000000000000000081526004016111a3919061173d565b60405180910390fd5b5f73ffffffffffffffffffffffffffffffffffffffff168373ffffffffffffffffffffffffffffffffffffffff160361121c575f6040517f94280d62000000000000000000000000000000000000000000000000000000008152600401611213919061173d565b60405180910390fd5b8160015f8673ffffffffffffffffffffffffffffffffffffffff1673ffffffffffffffffffffffffffffffffffffffff1681526020019081526020015f205f8573ffffffffffffffffffffffffffffffffffffffff1673ffffffffffffffffffffffffffffffffffffffff1681526020019081526020015f20819055508015611305578273ffffffffffffffffffffffffffffffffffffffff168473ffffffffffffffffffffffffffffffffffffffff167f8c5be1e5ebec7d5bd14f71427d1e84f3dd0314c0f7b2291e5b200ac8c7c3b925846040516112fc91906116c5565b60405180910390a35b50505050565b5f73ffffffffffffffffffffffffffffffffffffffff168373ffffffffffffffffffffffffffffffffffffffff160361135b578060025f82825461134f91906119f0565b92505081905550611429565b5f805f8573ffffffffffffffffffffffffffffffffffffffff1673ffffffffffffffffffffffffffffffffffffffff1681526020019081526020015f20549050818110156113e4578381836040517fe450d38c0000000000000000000000000000000000000000000000000000000081526004016113db9392919061198e565b60405180910390fd5b8181035f808673ffffffffffffffffffffffffffffffffffffffff1673ffffffffffffffffffffffffffffffffffffffff1681526020019081526020015f2081905550505b5f73ffffffffffffffffffffffffffffffffffffffff168273ffffffffffffffffffffffffffffffffffffffff1603611470578060025f82825403925050819055506114ba565b805f808473ffffffffffffffffffffffffffffffffffffffff1673ffffffffffffffffffffffffffffffffffffffff1681526020019081526020015f205f82825401925050819055505b8173ffffffffffffffffffffffffffffffffffffffff168373ffffffffffffffffffffffffffffffffffffffff167fddf252ad1be2c89b69c2b068fc378daa952ba7f163c4a11628f55a4df523b3ef8360405161151791906116c5565b60405180910390a3505050565b5f81519050919050565b5f82825260208201905092915050565b8281835e5f83830152505050565b5f601f19601f8301169050919050565b5f61156682611524565b611570818561152e565b935061158081856020860161153e565b6115898161154c565b840191505092915050565b5f6020820190508181035f8301526115ac818461155c565b905092915050565b5f80fd5b5f73ffffffffffffffffffffffffffffffffffffffff82169050919050565b5f6115e1826115b8565b9050919050565b6115f1816115d7565b81146115fb575f80fd5b50565b5f8135905061160c816115e8565b92915050565b5f819050919050565b61162481611612565b811461162e575f80fd5b50565b5f8135905061163f8161161b565b92915050565b5f806040838503121561165b5761165a6115b4565b5b5f611668858286016115fe565b925050602061167985828601611631565b9150509250929050565b5f8115159050919050565b61169781611683565b82525050565b5f6020820190506116b05f83018461168e565b92915050565b6116bf81611612565b82525050565b5f6020820190506116d85f8301846116b6565b92915050565b5f805f606084860312156116f5576116f46115b4565b5b5f611702868287016115fe565b9350506020611713868287016115fe565b925050604061172486828701611631565b9150509250925092565b611737816115d7565b82525050565b5f6020820190506117505f83018461172e565b92915050565b5f60ff82169050919050565b61176b81611756565b82525050565b5f6020820190506117845f830184611762565b92915050565b5f819050919050565b5f6117ad6117a86117a3846115b8565b61178a565b6115b8565b9050919050565b5f6117be82611793565b9050919050565b5f6117cf826117b4565b9050919050565b6117df816117c5565b82525050565b5f6020820190506117f85f8301846117d6565b92915050565b5f60208284031215611813576118126115b4565b5b5f611820848285016115fe565b91505092915050565b5f6020828403121561183e5761183d6115b4565b5b5f61184b84828501611631565b91505092915050565b5f61185e826117b4565b9050919050565b61186e81611854565b82525050565b5f6020820190506118875f830184611865565b92915050565b5f80604083850312156118a3576118a26115b4565b5b5f6118b0858286016115fe565b92505060206118c1858286016115fe565b9150509250929050565b7f4e487b71000000000000000000000000000000000000000000000000000000005f52602260045260245ffd5b5f600282049050600182168061190f57607f821691505b602082108103611922576119216118cb565b5b50919050565b5f60408201905061193b5f83018561172e565b61194860208301846116b6565b9392505050565b5f8151905061195d8161161b565b92915050565b5f60208284031215611978576119776115b4565b5b5f6119858482850161194f565b91505092915050565b5f6060820190506119a15f83018661172e565b6119ae60208301856116b6565b6119bb60408301846116b6565b949350505050565b7f4e487b71000000000000000000000000000000000000000000000000000000005f52601160045260245ffd5b5f6119fa82611612565b9150611a0583611612565b9250828201905080821115611a1d57611a1c6119c3565b5b9291505056fea2646970667358221220bc6b27389494921c4e9475dacec981525682272bf9b7c9f600c7d29f8deadd2264736f6c634300081a0033608060405234801561000f575f80fd5b50604051612d65380380612d65833981810160405281019061003191906105e8565b8787878787878787338888816003908161004b91906108d5565b50806004908161005b91906108d5565b5050505f73ffffffffffffffffffffffffffffffffffffffff168173ffffffffffffffffffffffffffffffffffffffff16036100ce575f6040517f1e4fbdf70000000000000000000000000000000000000000000000000000000081526004016100c591906109b3565b60405180910390fd5b6100dd8161031660201b60201c565b5060016006819055505f820361011f576040517f9a5818d800000000000000000000000000000000000000000000000000000000815260040160405180910390fd5b5f8303610158576040517f9a5818d800000000000000000000000000000000000000000000000000000000815260040160405180910390fd5b42841015610192576040517ffb2a675200000000000000000000000000000000000000000000000000000000815260040160405180910390fd5b8360098190555082600a8190555081600b819055508560075f6101000a81548173ffffffffffffffffffffffffffffffffffffffff021916908373ffffffffffffffffffffffffffffffffffffffff1602179055508460085f6101000a81548173ffffffffffffffffffffffffffffffffffffffff021916908373ffffffffffffffffffffffffffffffffffffffff16021790555080600c5f6101000a81548160ff02191690831515021790555085600c60016101000a81548173ffffffffffffffffffffffffffffffffffffffff021916908373ffffffffffffffffffffffffffffffffffffffff16021790555084600d5f6101000a81548173ffffffffffffffffffffffffffffffffffffffff021916908373ffffffffffffffffffffffffffffffffffffffff160217905550505050505050505033600e5f6101000a81548173ffffffffffffffffffffffffffffffffffffffff021916908373ffffffffffffffffffffffffffffffffffffffff16021790555050505050505050506109cc565b5f60055f9054906101000a900473ffffffffffffffffffffffffffffffffffffffff1690508160055f6101000a81548173ffffffffffffffffffffffffffffffffffffffff021916908373ffffffffffffffffffffffffffffffffffffffff1602179055508173ffffffffffffffffffffffffffffffffffffffff168173ffffffffffffffffffffffffffffffffffffffff167f8be0079c531659141344cd1fd0a4f28419497f9722a3daafe3b4186f6b6457e060405160405180910390a35050565b5f604051905090565b5f80fd5b5f80fd5b5f80fd5b5f80fd5b5f601f19601f8301169050919050565b7f4e487b71000000000000000000000000000000000000000000000000000000005f52604160045260245ffd5b610438826103f2565b810181811067ffffffffffffffff8211171561045757610456610402565b5b80604052505050565b5f6104696103d9565b9050610475828261042f565b919050565b5f67ffffffffffffffff82111561049457610493610402565b5b61049d826103f2565b9050602081019050919050565b8281835e5f83830152505050565b5f6104ca6104c58461047a565b610460565b9050828152602081018484840111156104e6576104e56103ee565b5b6104f18482856104aa565b509392505050565b5f82601f83011261050d5761050c6103ea565b5b815161051d8482602086016104b8565b91505092915050565b5f73ffffffffffffffffffffffffffffffffffffffff82169050919050565b5f61054f82610526565b9050919050565b61055f81610545565b8114610569575f80fd5b50565b5f8151905061057a81610556565b92915050565b5f819050919050565b61059281610580565b811461059c575f80fd5b50565b5f815190506105ad81610589565b92915050565b5f8115159050919050565b6105c7816105b3565b81146105d1575f80fd5b50565b5f815190506105e2816105be565b92915050565b5f805f805f805f80610100898b031215610605576106046103e2565b5b5f89015167ffffffffffffffff811115610622576106216103e6565b5b61062e8b828c016104f9565b985050602089015167ffffffffffffffff81111561064f5761064e6103e6565b5b61065b8b828c016104f9565b975050604061066c8b828c0161056c565b965050606061067d8b828c0161056c565b955050608061068e8b828c0161059f565b94505060a061069f8b828c0161059f565b93505060c06106b08b828c0161059f565b92505060e06106c18b828c016105d4565b9150509295985092959890939650565b5f81519050919050565b7f4e487b71000000000000000000000000000000000000000000000000000000005f52602260045260245ffd5b5f600282049050600182168061071f57607f821691505b602082108103610732576107316106db565b5b50919050565b5f819050815f5260205f209050919050565b5f6020601f8301049050919050565b5f82821b905092915050565b5f600883026107947fffffffffffffffffffffffffffffffffffffffffffffffffffffffffffffffff82610759565b61079e8683610759565b95508019841693508086168417925050509392505050565b5f819050919050565b5f6107d96107d46107cf84610580565b6107b6565b610580565b9050919050565b5f819050919050565b6107f2836107bf565b6108066107fe826107e0565b848454610765565b825550505050565b5f90565b61081a61080e565b6108258184846107e9565b505050565b5b818110156108485761083d5f82610812565b60018101905061082b565b5050565b601f82111561088d5761085e81610738565b6108678461074a565b81016020851015610876578190505b61088a6108828561074a565b83018261082a565b50505b505050565b5f82821c905092915050565b5f6108ad5f1984600802610892565b1980831691505092915050565b5f6108c5838361089e565b9150826002028217905092915050565b6108de826106d1565b67ffffffffffffffff8111156108f7576108f6610402565b5b6109018254610708565b61090c82828561084c565b5f60209050601f83116001811461093d575f841561092b578287015190505b61093585826108ba565b86555061099c565b601f19841661094b86610738565b5f5b828110156109725784890151825560018201915060208501945060208101905061094d565b8683101561098f578489015161098b601f89168261089e565b8355505b6001600288020188555050505b505050505050565b6109ad81610545565b82525050565b5f6020820190506109c65f8301846109a4565b92915050565b61238c806109d95f395ff3fe608060405234801561000f575f80fd5b506004361061018c575f3560e01c80638da5cb5b116100dc578063cfb4fc7111610095578063dd62ed3e1161006f578063dd62ed3e14610450578063e0ca59bb14610480578063f2fde38b1461049c578063f3c274a6146104b85761018c565b8063cfb4fc71146103f8578063d8dfeb4514610416578063dd068ec1146104345761018c565b80638da5cb5b146103325780638f6204871461035057806395d89b411461036e5780639acea70d1461038c578063a9059cbb146103aa578063b8a11e82146103da5761018c565b806340c10f19116101495780636f713c9c116101235780636f713c9c146102be57806370a08231146102dc578063715018a61461030c5780637955eaa1146103165761018c565b806340c10f191461026657806348d399e714610282578063551dc014146102a05761018c565b806306fdde0314610190578063095ea7b3146101ae57806318160ddd146101de5780631e9a6950146101fc57806323b872dd14610218578063313ce56714610248575b5f80fd5b6101986104d6565b6040516101a59190611dd0565b60405180910390f35b6101c860048036038101906101c39190611e81565b610566565b6040516101d59190611ed9565b60405180910390f35b6101e6610588565b6040516101f39190611f01565b60405180910390f35b61021660048036038101906102119190611e81565b610591565b005b610232600480360381019061022d9190611f1a565b610621565b60405161023f9190611ed9565b60405180910390f35b61025061064f565b60405161025d9190611f85565b60405180910390f35b610280600480360381019061027b9190611e81565b610657565b005b61028a610781565b6040516102979190611fad565b60405180910390f35b6102a86107a6565b6040516102b59190611fad565b60405180910390f35b6102c66107cb565b6040516102d39190612021565b60405180910390f35b6102f660048036038101906102f1919061203a565b6107f0565b6040516103039190611f01565b60405180910390f35b610314610835565b005b610330600480360381019061032b9190611e81565b610848565b005b61033a6108d8565b6040516103479190611fad565b60405180910390f35b610358610900565b6040516103659190611f01565b60405180910390f35b610376610906565b6040516103839190611dd0565b60405180910390f35b610394610996565b6040516103a19190611fad565b60405180910390f35b6103c460048036038101906103bf9190611e81565b6109bb565b6040516103d19190611ed9565b60405180910390f35b6103e26109dd565b6040516103ef9190611f01565b60405180910390f35b6104006109e3565b60405161040d9190611f01565b60405180910390f35b61041e6109e9565b60405161042b9190612021565b60405180910390f35b61044e60048036038101906104499190611e81565b610a0f565b005b61046a60048036038101906104659190612065565b610a60565b6040516104779190611f01565b60405180910390f35b61049a60048036038101906104959190611e81565b610ae2565b005b6104b660048036038101906104b1919061203a565b610b79565b005b6104c0610bfd565b6040516104cd9190611ed9565b60405180910390f35b6060600380546104e5906120d0565b80601f0160208091040260200160405190810160405280929190818152602001828054610511906120d0565b801561055c5780601f106105335761010080835404028352916020019161055c565b820191905f5260205f20905b81548152906001019060200180831161053f57829003601f168201915b5050505050905090565b5f80610570610c0f565b905061057d818585610c16565b600191505092915050565b5f600254905090565b6009544210156105cd576040517f43e14aa600000000000000000000000000000000000000000000000000000000815260040160405180910390fd5b8181806105d9836107f0565b1015610611576040517ff4d678b800000000000000000000000000000000000000000000000000000000815260040160405180910390fd5b61061b8484610c28565b50505050565b5f8061062b610c0f565b9050610638858285610fce565b610643858585611060565b60019150509392505050565b5f6012905090565b61065f611150565b818180600c60019054906101000a900473ffffffffffffffffffffffffffffffffffffffff1673ffffffffffffffffffffffffffffffffffffffff166370a08231846040518263ffffffff1660e01b81526004016106bd9190611fad565b602060405180830381865afa1580156106d8573d5f803e3d5ffd5b505050506040513d601f19601f820116820180604052508101906106fc9190612114565b1015610734576040517ff4d678b800000000000000000000000000000000000000000000000000000000815260040160405180910390fd5b826001811015610770576040517f2c5211c600000000000000000000000000000000000000000000000000000000815260040160405180910390fd5b61077a85856111d7565b5050505050565b60075f9054906101000a900473ffffffffffffffffffffffffffffffffffffffff1681565b600e5f9054906101000a900473ffffffffffffffffffffffffffffffffffffffff1681565b600d5f9054906101000a900473ffffffffffffffffffffffffffffffffffffffff1681565b5f805f8373ffffffffffffffffffffffffffffffffffffffff1673ffffffffffffffffffffffffffffffffffffffff1681526020019081526020015f20549050919050565b61083d611150565b6108465f6113a9565b565b818180610854836107f0565b101561088c576040517ff4d678b800000000000000000000000000000000000000000000000000000000815260040160405180910390fd5b6009544210156108c8576040517f43e14aa600000000000000000000000000000000000000000000000000000000815260040160405180910390fd5b6108d2848461146c565b50505050565b5f60055f9054906101000a900473ffffffffffffffffffffffffffffffffffffffff16905090565b60095481565b606060048054610915906120d0565b80601f0160208091040260200160405190810160405280929190818152602001828054610941906120d0565b801561098c5780601f106109635761010080835404028352916020019161098c565b820191905f5260205f20905b81548152906001019060200180831161096f57829003601f168201915b5050505050905090565b60085f9054906101000a900473ffffffffffffffffffffffffffffffffffffffff1681565b5f806109c5610c0f565b90506109d2818585611060565b600191505092915050565b600a5481565b600b5481565b600c60019054906101000a900473ffffffffffffffffffffffffffffffffffffffff1681565b6009544210610a4a576040517f0790d4e300000000000000000000000000000000000000000000000000000000815260040160405180910390fd5b610a52611150565b610a5c828261167c565b5050565b5f60015f8473ffffffffffffffffffffffffffffffffffffffff1673ffffffffffffffffffffffffffffffffffffffff1681526020019081526020015f205f8373ffffffffffffffffffffffffffffffffffffffff1673ffffffffffffffffffffffffffffffffffffffff1681526020019081526020015f2054905092915050565b6009544210610b1d576040517f0790d4e300000000000000000000000000000000000000000000000000000000815260040160405180910390fd5b610b25611150565b818180610b31836107f0565b1015610b69576040517ff4d678b800000000000000000000000000000000000000000000000000000000815260040160405180910390fd5b610b738484610c28565b50505050565b610b81611150565b5f73ffffffffffffffffffffffffffffffffffffffff168173ffffffffffffffffffffffffffffffffffffffff1603610bf1575f6040517f1e4fbdf7000000000000000000000000000000000000000000000000000000008152600401610be89190611fad565b60405180910390fd5b610bfa816113a9565b50565b600c5f9054906101000a900460ff1681565b5f33905090565b610c23838383600161182a565b505050565b610c306119f9565b818180610c3c836107f0565b1015610c74576040517ff4d678b800000000000000000000000000000000000000000000000000000000815260040160405180910390fd5b826001811015610cb0576040517f2c5211c600000000000000000000000000000000000000000000000000000000815260040160405180910390fd5b5f600c60019054906101000a900473ffffffffffffffffffffffffffffffffffffffff1673ffffffffffffffffffffffffffffffffffffffff166370a08231306040518263ffffffff1660e01b8152600401610d0c9190611fad565b602060405180830381865afa158015610d27573d5f803e3d5ffd5b505050506040513d601f19601f82011682018060405250810190610d4b9190612114565b90505f600d5f9054906101000a900473ffffffffffffffffffffffffffffffffffffffff1673ffffffffffffffffffffffffffffffffffffffff166370a08231306040518263ffffffff1660e01b8152600401610da89190611fad565b602060405180830381865afa158015610dc3573d5f803e3d5ffd5b505050506040513d601f19601f82011682018060405250810190610de79190612114565b90505f82871115610df85782610dfa565b865b9050610e068888611a3f565b86811015610f15575f8188610e1b919061216c565b90505f600b54600a5483610e2f919061219f565b610e39919061220d565b905080841015610e75576040517ff4d678b800000000000000000000000000000000000000000000000000000000815260040160405180910390fd5b600d5f9054906101000a900473ffffffffffffffffffffffffffffffffffffffff1673ffffffffffffffffffffffffffffffffffffffff1663a9059cbb8b836040518363ffffffff1660e01b8152600401610ed192919061223d565b6020604051808303815f875af1158015610eed573d5f803e3d5ffd5b505050506040513d601f19601f82011682018060405250810190610f11919061228e565b5050505b5f811115610fbc57600c60019054906101000a900473ffffffffffffffffffffffffffffffffffffffff1673ffffffffffffffffffffffffffffffffffffffff1663a9059cbb89836040518363ffffffff1660e01b8152600401610f7a92919061223d565b6020604051808303815f875af1158015610f96573d5f803e3d5ffd5b505050506040513d601f19601f82011682018060405250810190610fba919061228e565b505b505050505050610fca611abe565b5050565b5f610fd98484610a60565b90507fffffffffffffffffffffffffffffffffffffffffffffffffffffffffffffffff811461105a578181101561104b578281836040517ffb8f41b2000000000000000000000000000000000000000000000000000000008152600401611042939291906122b9565b60405180910390fd5b61105984848484035f61182a565b5b50505050565b5f73ffffffffffffffffffffffffffffffffffffffff168373ffffffffffffffffffffffffffffffffffffffff16036110d0575f6040517f96c6fd1e0000000000000000000000000000000000000000000000000000000081526004016110c79190611fad565b60405180910390fd5b5f73ffffffffffffffffffffffffffffffffffffffff168273ffffffffffffffffffffffffffffffffffffffff1603611140575f6040517fec442f050000000000000000000000000000000000000000000000000000000081526004016111379190611fad565b60405180910390fd5b61114b838383611ac8565b505050565b611158610c0f565b73ffffffffffffffffffffffffffffffffffffffff166111766108d8565b73ffffffffffffffffffffffffffffffffffffffff16146111d557611199610c0f565b6040517f118cdaa70000000000000000000000000000000000000000000000000000000081526004016111cc9190611fad565b60405180910390fd5b565b6111df6119f9565b818180600c60019054906101000a900473ffffffffffffffffffffffffffffffffffffffff1673ffffffffffffffffffffffffffffffffffffffff166370a08231846040518263ffffffff1660e01b815260040161123d9190611fad565b602060405180830381865afa158015611258573d5f803e3d5ffd5b505050506040513d601f19601f8201168201806040525081019061127c9190612114565b10156112b4576040517ff4d678b800000000000000000000000000000000000000000000000000000000815260040160405180910390fd5b8260018110156112f0576040517f2c5211c600000000000000000000000000000000000000000000000000000000815260040160405180910390fd5b6112fa8585611ce1565b600c60019054906101000a900473ffffffffffffffffffffffffffffffffffffffff1673ffffffffffffffffffffffffffffffffffffffff166323b872dd8630876040518463ffffffff1660e01b8152600401611359939291906122ee565b6020604051808303815f875af1158015611375573d5f803e3d5ffd5b505050506040513d601f19601f82011682018060405250810190611399919061228e565b505050506113a5611abe565b5050565b5f60055f9054906101000a900473ffffffffffffffffffffffffffffffffffffffff1690508160055f6101000a81548173ffffffffffffffffffffffffffffffffffffffff021916908373ffffffffffffffffffffffffffffffffffffffff1602179055508173ffffffffffffffffffffffffffffffffffffffff168173ffffffffffffffffffffffffffffffffffffffff167f8be0079c531659141344cd1fd0a4f28419497f9722a3daafe3b4186f6b6457e060405160405180910390a35050565b6114746119f9565b818180611480836107f0565b10156114b8576040517ff4d678b800000000000000000000000000000000000000000000000000000000815260040160405180910390fd5b8260018110156114f4576040517f2c5211c600000000000000000000000000000000000000000000000000000000815260040160405180910390fd5b83600d5f9054906101000a900473ffffffffffffffffffffffffffffffffffffffff1673ffffffffffffffffffffffffffffffffffffffff166370a08231306040518263ffffffff1660e01b815260040161154f9190611fad565b602060405180830381865afa15801561156a573d5f803e3d5ffd5b505050506040513d601f19601f8201168201806040525081019061158e9190612114565b10156115c6576040517ff4d678b800000000000000000000000000000000000000000000000000000000815260040160405180910390fd5b6115d08585611a3f565b600d5f9054906101000a900473ffffffffffffffffffffffffffffffffffffffff1673ffffffffffffffffffffffffffffffffffffffff1663a9059cbb86866040518363ffffffff1660e01b815260040161162c92919061223d565b6020604051808303815f875af1158015611648573d5f803e3d5ffd5b505050506040513d601f19601f8201168201806040525081019061166c919061228e565b50505050611678611abe565b5050565b6116846119f9565b60095442106116bf576040517f0790d4e300000000000000000000000000000000000000000000000000000000815260040160405180910390fd5b6116c7611150565b600c60019054906101000a900473ffffffffffffffffffffffffffffffffffffffff1673ffffffffffffffffffffffffffffffffffffffff1663a9059cbb83836040518363ffffffff1660e01b815260040161172492919061223d565b6020604051808303815f875af1158015611740573d5f803e3d5ffd5b505050506040513d601f19601f82011682018060405250810190611764919061228e565b50600d5f9054906101000a900473ffffffffffffffffffffffffffffffffffffffff1673ffffffffffffffffffffffffffffffffffffffff166323b872dd8330600b54600a54866117b5919061219f565b6117bf919061220d565b6040518463ffffffff1660e01b81526004016117dd939291906122ee565b6020604051808303815f875af11580156117f9573d5f803e3d5ffd5b505050506040513d601f19601f8201168201806040525081019061181d919061228e565b50611826611abe565b5050565b5f73ffffffffffffffffffffffffffffffffffffffff168473ffffffffffffffffffffffffffffffffffffffff160361189a575f6040517fe602df050000000000000000000000000000000000000000000000000000000081526004016118919190611fad565b60405180910390fd5b5f73ffffffffffffffffffffffffffffffffffffffff168373ffffffffffffffffffffffffffffffffffffffff160361190a575f6040517f94280d620000000000000000000000000000000000000000000000000000000081526004016119019190611fad565b60405180910390fd5b8160015f8673ffffffffffffffffffffffffffffffffffffffff1673ffffffffffffffffffffffffffffffffffffffff1681526020019081526020015f205f8573ffffffffffffffffffffffffffffffffffffffff1673ffffffffffffffffffffffffffffffffffffffff1681526020019081526020015f208190555080156119f3578273ffffffffffffffffffffffffffffffffffffffff168473ffffffffffffffffffffffffffffffffffffffff167f8c5be1e5ebec7d5bd14f71427d1e84f3dd0314c0f7b2291e5b200ac8c7c3b925846040516119ea9190611f01565b60405180910390a35b50505050565b600260065403611a35576040517f3ee5aeb500000000000000000000000000000000000000000000000000000000815260040160405180910390fd5b6002600681905550565b5f73ffffffffffffffffffffffffffffffffffffffff168273ffffffffffffffffffffffffffffffffffffffff1603611aaf575f6040517f96c6fd1e000000000000000000000000000000000000000000000000000000008152600401611aa69190611fad565b60405180910390fd5b611aba825f83611ac8565b5050565b6001600681905550565b5f73ffffffffffffffffffffffffffffffffffffffff168373ffffffffffffffffffffffffffffffffffffffff1603611b18578060025f828254611b0c9190612323565b92505081905550611be6565b5f805f8573ffffffffffffffffffffffffffffffffffffffff1673ffffffffffffffffffffffffffffffffffffffff1681526020019081526020015f2054905081811015611ba1578381836040517fe450d38c000000000000000000000000000000000000000000000000000000008152600401611b98939291906122b9565b60405180910390fd5b8181035f808673ffffffffffffffffffffffffffffffffffffffff1673ffffffffffffffffffffffffffffffffffffffff1681526020019081526020015f2081905550505b5f73ffffffffffffffffffffffffffffffffffffffff168273ffffffffffffffffffffffffffffffffffffffff1603611c2d578060025f8282540392505081905550611c77565b805f808473ffffffffffffffffffffffffffffffffffffffff1673ffffffffffffffffffffffffffffffffffffffff1681526020019081526020015f205f82825401925050819055505b8173ffffffffffffffffffffffffffffffffffffffff168373ffffffffffffffffffffffffffffffffffffffff167fddf252ad1be2c89b69c2b068fc378daa952ba7f163c4a11628f55a4df523b3ef83604051611cd49190611f01565b60405180910390a3505050565b5f73ffffffffffffffffffffffffffffffffffffffff168273ffffffffffffffffffffffffffffffffffffffff1603611d51575f6040517fec442f05000000000000000000000000000000000000000000000000000000008152600401611d489190611fad565b60405180910390fd5b611d5c5f8383611ac8565b5050565b5f81519050919050565b5f82825260208201905092915050565b8281835e5f83830152505050565b5f601f19601f8301169050919050565b5f611da282611d60565b611dac8185611d6a565b9350611dbc818560208601611d7a565b611dc581611d88565b840191505092915050565b5f6020820190508181035f830152611de88184611d98565b905092915050565b5f80fd5b5f73ffffffffffffffffffffffffffffffffffffffff82169050919050565b5f611e1d82611df4565b9050919050565b611e2d81611e13565b8114611e37575f80fd5b50565b5f81359050611e4881611e24565b92915050565b5f819050919050565b611e6081611e4e565b8114611e6a575f80fd5b50565b5f81359050611e7b81611e57565b92915050565b5f8060408385031215611e9757611e96611df0565b5b5f611ea485828601611e3a565b9250506020611eb585828601611e6d565b9150509250929050565b5f8115159050919050565b611ed381611ebf565b82525050565b5f602082019050611eec5f830184611eca565b92915050565b611efb81611e4e565b82525050565b5f602082019050611f145f830184611ef2565b92915050565b5f805f60608486031215611f3157611f30611df0565b5b5f611f3e86828701611e3a565b9350506020611f4f86828701611e3a565b9250506040611f6086828701611e6d565b9150509250925092565b5f60ff82169050919050565b611f7f81611f6a565b82525050565b5f602082019050611f985f830184611f76565b92915050565b611fa781611e13565b82525050565b5f602082019050611fc05f830184611f9e565b92915050565b5f819050919050565b5f611fe9611fe4611fdf84611df4565b611fc6565b611df4565b9050919050565b5f611ffa82611fcf565b9050919050565b5f61200b82611ff0565b9050919050565b61201b81612001565b82525050565b5f6020820190506120345f830184612012565b92915050565b5f6020828403121561204f5761204e611df0565b5b5f61205c84828501611e3a565b91505092915050565b5f806040838503121561207b5761207a611df0565b5b5f61208885828601611e3a565b925050602061209985828601611e3a565b9150509250929050565b7f4e487b71000000000000000000000000000000000000000000000000000000005f52602260045260245ffd5b5f60028204905060018216806120e757607f821691505b6020821081036120fa576120f96120a3565b5b50919050565b5f8151905061210e81611e57565b92915050565b5f6020828403121561212957612128611df0565b5b5f61213684828501612100565b91505092915050565b7f4e487b71000000000000000000000000000000000000000000000000000000005f52601160045260245ffd5b5f61217682611e4e565b915061218183611e4e565b92508282039050818111156121995761219861213f565b5b92915050565b5f6121a982611e4e565b91506121b483611e4e565b92508282026121c281611e4e565b915082820484148315176121d9576121d861213f565b5b5092915050565b7f4e487b71000000000000000000000000000000000000000000000000000000005f52601260045260245ffd5b5f61221782611e4e565b915061222283611e4e565b925082612232576122316121e0565b5b828204905092915050565b5f6040820190506122505f830185611f9e565b61225d6020830184611ef2565b9392505050565b61226d81611ebf565b8114612277575f80fd5b50565b5f8151905061228881612264565b92915050565b5f602082840312156122a3576122a2611df0565b5b5f6122b08482850161227a565b91505092915050565b5f6060820190506122cc5f830186611f9e565b6122d96020830185611ef2565b6122e66040830184611ef2565b949350505050565b5f6060820190506123015f830186611f9e565b61230e6020830185611f9e565b61231b6040830184611ef2565b949350505050565b5f61232d82611e4e565b915061233883611e4e565b92508282019050808211156123505761234f61213f565b5b9291505056fea26469706673582212205c6e4f9eeaa7ce7432585247f232bd8b0c2e5ad165c024b076c0c7ecaeb3bf3664736f6c634300081a0033a26469706673582212206c796142d9c7a334b34a5d53e51c239a3046239c9bebb5c266bf6810017a3abb64736f6c634300081a0033",
			"opcodes": "PUSH1 0x80 PUSH1 0x40 MSTORE CALLVALUE DUP1 ISZERO PUSH2 0xF JUMPI PUSH0 DUP1 REVERT JUMPDEST POP CALLER PUSH0 PUSH20 0xFFFFFFFFFFFFFFFFFFFFFFFFFFFFFFFFFFFFFFFF AND DUP2 PUSH20 0xFFFFFFFFFFFFFFFFFFFFFFFFFFFFFFFFFFFFFFFF AND SUB PUSH2 0x81 JUMPI PUSH0 PUSH1 0x40 MLOAD PUSH32 0x1E4FBDF700000000000000000000000000000000000000000000000000000000 DUP2 MSTORE PUSH1 0x4 ADD PUSH2 0x78 SWAP2 SWAP1 PUSH2 0x196 JUMP JUMPDEST PUSH1 0x40 MLOAD DUP1 SWAP2 SUB SWAP1 REVERT JUMPDEST PUSH2 0x90 DUP2 PUSH2 0x96 PUSH1 0x20 SHL PUSH1 0x20 SHR JUMP JUMPDEST POP PUSH2 0x1AF JUMP JUMPDEST PUSH0 DUP1 PUSH0 SWAP1 SLOAD SWAP1 PUSH2 0x100 EXP SWAP1 DIV PUSH20 0xFFFFFFFFFFFFFFFFFFFFFFFFFFFFFFFFFFFFFFFF AND SWAP1 POP DUP2 PUSH0 DUP1 PUSH2 0x100 EXP DUP2 SLOAD DUP2 PUSH20 0xFFFFFFFFFFFFFFFFFFFFFFFFFFFFFFFFFFFFFFFF MUL NOT AND SWAP1 DUP4 PUSH20 0xFFFFFFFFFFFFFFFFFFFFFFFFFFFFFFFFFFFFFFFF AND MUL OR SWAP1 SSTORE POP DUP2 PUSH20 0xFFFFFFFFFFFFFFFFFFFFFFFFFFFFFFFFFFFFFFFF AND DUP2 PUSH20 0xFFFFFFFFFFFFFFFFFFFFFFFFFFFFFFFFFFFFFFFF AND PUSH32 0x8BE0079C531659141344CD1FD0A4F28419497F9722A3DAAFE3B4186F6B6457E0 PUSH1 0x40 MLOAD PUSH1 0x40 MLOAD DUP1 SWAP2 SUB SWAP1 LOG3 POP POP JUMP JUMPDEST PUSH0 PUSH20 0xFFFFFFFFFFFFFFFFFFFFFFFFFFFFFFFFFFFFFFFF DUP3 AND SWAP1 POP SWAP2 SWAP1 POP JUMP JUMPDEST PUSH0 PUSH2 0x180 DUP3 PUSH2 0x157 JUMP JUMPDEST SWAP1 POP SWAP2 SWAP1 POP JUMP JUMPDEST PUSH2 0x190 DUP2 PUSH2 0x176 JUMP JUMPDEST DUP3 MSTORE POP POP JUMP JUMPDEST PUSH0 PUSH1 0x20 DUP3 ADD SWAP1 POP PUSH2 0x1A9 PUSH0 DUP4 ADD DUP5 PUSH2 0x187 JUMP JUMPDEST SWAP3 SWAP2 POP POP JUMP JUMPDEST PUSH2 0x5C9E DUP1 PUSH2 0x1BC PUSH0 CODECOPY PUSH0 RETURN INVALID PUSH1 0x80 PUSH1 0x40 MSTORE CALLVALUE DUP1 ISZERO PUSH2 0xF JUMPI PUSH0 DUP1 REVERT JUMPDEST POP PUSH1 0x4 CALLDATASIZE LT PUSH2 0x55 JUMPI PUSH0 CALLDATALOAD PUSH1 0xE0 SHR DUP1 PUSH4 0x715018A6 EQ PUSH2 0x59 JUMPI DUP1 PUSH4 0x8DA5CB5B EQ PUSH2 0x63 JUMPI DUP1 PUSH4 0xA2618C97 EQ PUSH2 0x81 JUMPI DUP1 PUSH4 0xCB39D593 EQ PUSH2 0xB1 JUMPI DUP1 PUSH4 0xF2FDE38B EQ PUSH2 0xCD JUMPI JUMPDEST PUSH0 DUP1 REVERT JUMPDEST PUSH2 0x61 PUSH2 0xE9 JUMP JUMPDEST STOP JUMPDEST PUSH2 0x6B PUSH2 0xFC JUMP JUMPDEST PUSH1 0x40 MLOAD PUSH2 0x78 SWAP2 SWAP1 PUSH2 0x425 JUMP JUMPDEST PUSH1 0x40 MLOAD DUP1 SWAP2 SUB SWAP1 RETURN JUMPDEST PUSH2 0x9B PUSH1 0x4 DUP1 CALLDATASIZE SUB DUP2 ADD SWAP1 PUSH2 0x96 SWAP2 SWAP1 PUSH2 0x482 JUMP JUMPDEST PUSH2 0x123 JUMP JUMPDEST PUSH1 0x40 MLOAD PUSH2 0xA8 SWAP2 SWAP1 PUSH2 0x425 JUMP JUMPDEST PUSH1 0x40 MLOAD DUP1 SWAP2 SUB SWAP1 RETURN JUMPDEST PUSH2 0xCB PUSH1 0x4 DUP1 CALLDATASIZE SUB DUP2 ADD SWAP1 PUSH2 0xC6 SWAP2 SWAP1 PUSH2 0x648 JUMP JUMPDEST PUSH2 0x15E JUMP JUMPDEST STOP JUMPDEST PUSH2 0xE7 PUSH1 0x4 DUP1 CALLDATASIZE SUB DUP2 ADD SWAP1 PUSH2 0xE2 SWAP2 SWAP1 PUSH2 0x731 JUMP JUMPDEST PUSH2 0x206 JUMP JUMPDEST STOP JUMPDEST PUSH2 0xF1 PUSH2 0x28A JUMP JUMPDEST PUSH2 0xFA PUSH0 PUSH2 0x311 JUMP JUMPDEST JUMP JUMPDEST PUSH0 DUP1 PUSH0 SWAP1 SLOAD SWAP1 PUSH2 0x100 EXP SWAP1 DIV PUSH20 0xFFFFFFFFFFFFFFFFFFFFFFFFFFFFFFFFFFFFFFFF AND SWAP1 POP SWAP1 JUMP JUMPDEST PUSH1 0x1 DUP2 DUP2 SLOAD DUP2 LT PUSH2 0x132 JUMPI PUSH0 DUP1 REVERT JUMPDEST SWAP1 PUSH0 MSTORE PUSH1 0x20 PUSH0 KECCAK256 ADD PUSH0 SWAP2 POP SLOAD SWAP1 PUSH2 0x100 EXP SWAP1 DIV PUSH20 0xFFFFFFFFFFFFFFFFFFFFFFFFFFFFFFFFFFFFFFFF AND DUP2 JUMP JUMPDEST PUSH1 0x1 DUP9 DUP9 DUP9 DUP9 DUP9 DUP9 DUP9 DUP9 PUSH1 0x40 MLOAD PUSH2 0x174 SWAP1 PUSH2 0x3D9 JUMP JUMPDEST PUSH2 0x185 SWAP9 SWAP8 SWAP7 SWAP6 SWAP5 SWAP4 SWAP3 SWAP2 SWAP1 PUSH2 0x7DA JUMP JUMPDEST PUSH1 0x40 MLOAD DUP1 SWAP2 SUB SWAP1 PUSH0 CREATE DUP1 ISZERO DUP1 ISZERO PUSH2 0x19E JUMPI RETURNDATASIZE PUSH0 DUP1 RETURNDATACOPY RETURNDATASIZE PUSH0 REVERT JUMPDEST POP SWAP1 DUP1 PUSH1 0x1 DUP2 SLOAD ADD DUP1 DUP3 SSTORE DUP1 SWAP2 POP POP PUSH1 0x1 SWAP1 SUB SWAP1 PUSH0 MSTORE PUSH1 0x20 PUSH0 KECCAK256 ADD PUSH0 SWAP1 SWAP2 SWAP1 SWAP2 SWAP1 SWAP2 PUSH2 0x100 EXP DUP2 SLOAD DUP2 PUSH20 0xFFFFFFFFFFFFFFFFFFFFFFFFFFFFFFFFFFFFFFFF MUL NOT AND SWAP1 DUP4 PUSH20 0xFFFFFFFFFFFFFFFFFFFFFFFFFFFFFFFFFFFFFFFF AND MUL OR SWAP1 SSTORE POP POP POP POP POP POP POP POP POP JUMP JUMPDEST PUSH2 0x20E PUSH2 0x28A JUMP JUMPDEST PUSH0 PUSH20 0xFFFFFFFFFFFFFFFFFFFFFFFFFFFFFFFFFFFFFFFF AND DUP2 PUSH20 0xFFFFFFFFFFFFFFFFFFFFFFFFFFFFFFFFFFFFFFFF AND SUB PUSH2 0x27E JUMPI PUSH0 PUSH1 0x40 MLOAD PUSH32 0x1E4FBDF700000000000000000000000000000000000000000000000000000000 DUP2 MSTORE PUSH1 0x4 ADD PUSH2 0x275 SWAP2 SWAP1 PUSH2 0x425 JUMP JUMPDEST PUSH1 0x40 MLOAD DUP1 SWAP2 SUB SWAP1 REVERT JUMPDEST PUSH2 0x287 DUP2 PUSH2 0x311 JUMP JUMPDEST POP JUMP JUMPDEST PUSH2 0x292 PUSH2 0x3D2 JUMP JUMPDEST PUSH20 0xFFFFFFFFFFFFFFFFFFFFFFFFFFFFFFFFFFFFFFFF AND PUSH2 0x2B0 PUSH2 0xFC JUMP JUMPDEST PUSH20 0xFFFFFFFFFFFFFFFFFFFFFFFFFFFFFFFFFFFFFFFF AND EQ PUSH2 0x30F JUMPI PUSH2 0x2D3 PUSH2 0x3D2 JUMP JUMPDEST PUSH1 0x40 MLOAD PUSH32 0x118CDAA700000000000000000000000000000000000000000000000000000000 DUP2 MSTORE PUSH1 0x4 ADD PUSH2 0x306 SWAP2 SWAP1 PUSH2 0x425 JUMP JUMPDEST PUSH1 0x40 MLOAD DUP1 SWAP2 SUB SWAP1 REVERT JUMPDEST JUMP JUMPDEST PUSH0 DUP1 PUSH0 SWAP1 SLOAD SWAP1 PUSH2 0x100 EXP SWAP1 DIV PUSH20 0xFFFFFFFFFFFFFFFFFFFFFFFFFFFFFFFFFFFFFFFF AND SWAP1 POP DUP2 PUSH0 DUP1 PUSH2 0x100 EXP DUP2 SLOAD DUP2 PUSH20 0xFFFFFFFFFFFFFFFFFFFFFFFFFFFFFFFFFFFFFFFF MUL NOT AND SWAP1 DUP4 PUSH20 0xFFFFFFFFFFFFFFFFFFFFFFFFFFFFFFFFFFFFFFFF AND MUL OR SWAP1 SSTORE POP DUP2 PUSH20 0xFFFFFFFFFFFFFFFFFFFFFFFFFFFFFFFFFFFFFFFF AND DUP2 PUSH20 0xFFFFFFFFFFFFFFFFFFFFFFFFFFFFFFFFFFFFFFFF AND PUSH32 0x8BE0079C531659141344CD1FD0A4F28419497F9722A3DAAFE3B4186F6B6457E0 PUSH1 0x40 MLOAD PUSH1 0x40 MLOAD DUP1 SWAP2 SUB SWAP1 LOG3 POP POP JUMP JUMPDEST PUSH0 CALLER SWAP1 POP SWAP1 JUMP JUMPDEST PUSH2 0x5404 DUP1 PUSH2 0x865 DUP4 CODECOPY ADD SWAP1 JUMP JUMPDEST PUSH0 PUSH20 0xFFFFFFFFFFFFFFFFFFFFFFFFFFFFFFFFFFFFFFFF DUP3 AND SWAP1 POP SWAP2 SWAP1 POP JUMP JUMPDEST PUSH0 PUSH2 0x40F DUP3 PUSH2 0x3E6 JUMP JUMPDEST SWAP1 POP SWAP2 SWAP1 POP JUMP JUMPDEST PUSH2 0x41F DUP2 PUSH2 0x405 JUMP JUMPDEST DUP3 MSTORE POP POP JUMP JUMPDEST PUSH0 PUSH1 0x20 DUP3 ADD SWAP1 POP PUSH2 0x438 PUSH0 DUP4 ADD DUP5 PUSH2 0x416 JUMP JUMPDEST SWAP3 SWAP2 POP POP JUMP JUMPDEST PUSH0 PUSH1 0x40 MLOAD SWAP1 POP SWAP1 JUMP JUMPDEST PUSH0 DUP1 REVERT JUMPDEST PUSH0 DUP1 REVERT JUMPDEST PUSH0 DUP2 SWAP1 POP SWAP2 SWAP1 POP JUMP JUMPDEST PUSH2 0x461 DUP2 PUSH2 0x44F JUMP JUMPDEST DUP2 EQ PUSH2 0x46B JUMPI PUSH0 DUP1 REVERT JUMPDEST POP JUMP JUMPDEST PUSH0 DUP2 CALLDATALOAD SWAP1 POP PUSH2 0x47C DUP2 PUSH2 0x458 JUMP JUMPDEST SWAP3 SWAP2 POP POP JUMP JUMPDEST PUSH0 PUSH1 0x20 DUP3 DUP5 SUB SLT ISZERO PUSH2 0x497 JUMPI PUSH2 0x496 PUSH2 0x447 JUMP JUMPDEST JUMPDEST PUSH0 PUSH2 0x4A4 DUP5 DUP3 DUP6 ADD PUSH2 0x46E JUMP JUMPDEST SWAP2 POP POP SWAP3 SWAP2 POP POP JUMP JUMPDEST PUSH0 DUP1 REVERT JUMPDEST PUSH0 DUP1 REVERT JUMPDEST PUSH0 PUSH1 0x1F NOT PUSH1 0x1F DUP4 ADD AND SWAP1 POP SWAP2 SWAP1 POP JUMP JUMPDEST PUSH32 0x4E487B7100000000000000000000000000000000000000000000000000000000 PUSH0 MSTORE PUSH1 0x41 PUSH1 0x4 MSTORE PUSH1 0x24 PUSH0 REVERT JUMPDEST PUSH2 0x4FB DUP3 PUSH2 0x4B5 JUMP JUMPDEST DUP2 ADD DUP2 DUP2 LT PUSH8 0xFFFFFFFFFFFFFFFF DUP3 GT OR ISZERO PUSH2 0x51A JUMPI PUSH2 0x519 PUSH2 0x4C5 JUMP JUMPDEST JUMPDEST DUP1 PUSH1 0x40 MSTORE POP POP POP JUMP JUMPDEST PUSH0 PUSH2 0x52C PUSH2 0x43E JUMP JUMPDEST SWAP1 POP PUSH2 0x538 DUP3 DUP3 PUSH2 0x4F2 JUMP JUMPDEST SWAP2 SWAP1 POP JUMP JUMPDEST PUSH0 PUSH8 0xFFFFFFFFFFFFFFFF DUP3 GT ISZERO PUSH2 0x557 JUMPI PUSH2 0x556 PUSH2 0x4C5 JUMP JUMPDEST JUMPDEST PUSH2 0x560 DUP3 PUSH2 0x4B5 JUMP JUMPDEST SWAP1 POP PUSH1 0x20 DUP2 ADD SWAP1 POP SWAP2 SWAP1 POP JUMP JUMPDEST DUP3 DUP2 DUP4 CALLDATACOPY PUSH0 DUP4 DUP4 ADD MSTORE POP POP POP JUMP JUMPDEST PUSH0 PUSH2 0x58D PUSH2 0x588 DUP5 PUSH2 0x53D JUMP JUMPDEST PUSH2 0x523 JUMP JUMPDEST SWAP1 POP DUP3 DUP2 MSTORE PUSH1 0x20 DUP2 ADD DUP5 DUP5 DUP5 ADD GT ISZERO PUSH2 0x5A9 JUMPI PUSH2 0x5A8 PUSH2 0x4B1 JUMP JUMPDEST JUMPDEST PUSH2 0x5B4 DUP5 DUP3 DUP6 PUSH2 0x56D JUMP JUMPDEST POP SWAP4 SWAP3 POP POP POP JUMP JUMPDEST PUSH0 DUP3 PUSH1 0x1F DUP4 ADD SLT PUSH2 0x5D0 JUMPI PUSH2 0x5CF PUSH2 0x4AD JUMP JUMPDEST JUMPDEST DUP2 CALLDATALOAD PUSH2 0x5E0 DUP5 DUP3 PUSH1 0x20 DUP7 ADD PUSH2 0x57B JUMP JUMPDEST SWAP2 POP POP SWAP3 SWAP2 POP POP JUMP JUMPDEST PUSH2 0x5F2 DUP2 PUSH2 0x405 JUMP JUMPDEST DUP2 EQ PUSH2 0x5FC JUMPI PUSH0 DUP1 REVERT JUMPDEST POP JUMP JUMPDEST PUSH0 DUP2 CALLDATALOAD SWAP1 POP PUSH2 0x60D DUP2 PUSH2 0x5E9 JUMP JUMPDEST SWAP3 SWAP2 POP POP JUMP JUMPDEST PUSH0 DUP2 ISZERO ISZERO SWAP1 POP SWAP2 SWAP1 POP JUMP JUMPDEST PUSH2 0x627 DUP2 PUSH2 0x613 JUMP JUMPDEST DUP2 EQ PUSH2 0x631 JUMPI PUSH0 DUP1 REVERT JUMPDEST POP JUMP JUMPDEST PUSH0 DUP2 CALLDATALOAD SWAP1 POP PUSH2 0x642 DUP2 PUSH2 0x61E JUMP JUMPDEST SWAP3 SWAP2 POP POP JUMP JUMPDEST PUSH0 DUP1 PUSH0 DUP1 PUSH0 DUP1 PUSH0 DUP1 PUSH2 0x100 DUP10 DUP12 SUB SLT ISZERO PUSH2 0x665 JUMPI PUSH2 0x664 PUSH2 0x447 JUMP JUMPDEST JUMPDEST PUSH0 DUP10 ADD CALLDATALOAD PUSH8 0xFFFFFFFFFFFFFFFF DUP2 GT ISZERO PUSH2 0x682 JUMPI PUSH2 0x681 PUSH2 0x44B JUMP JUMPDEST JUMPDEST PUSH2 0x68E DUP12 DUP3 DUP13 ADD PUSH2 0x5BC JUMP JUMPDEST SWAP9 POP POP PUSH1 0x20 DUP10 ADD CALLDATALOAD PUSH8 0xFFFFFFFFFFFFFFFF DUP2 GT ISZERO PUSH2 0x6AF JUMPI PUSH2 0x6AE PUSH2 0x44B JUMP JUMPDEST JUMPDEST PUSH2 0x6BB DUP12 DUP3 DUP13 ADD PUSH2 0x5BC JUMP JUMPDEST SWAP8 POP POP PUSH1 0x40 PUSH2 0x6CC DUP12 DUP3 DUP13 ADD PUSH2 0x5FF JUMP JUMPDEST SWAP7 POP POP PUSH1 0x60 PUSH2 0x6DD DUP12 DUP3 DUP13 ADD PUSH2 0x5FF JUMP JUMPDEST SWAP6 POP POP PUSH1 0x80 PUSH2 0x6EE DUP12 DUP3 DUP13 ADD PUSH2 0x46E JUMP JUMPDEST SWAP5 POP POP PUSH1 0xA0 PUSH2 0x6FF DUP12 DUP3 DUP13 ADD PUSH2 0x46E JUMP JUMPDEST SWAP4 POP POP PUSH1 0xC0 PUSH2 0x710 DUP12 DUP3 DUP13 ADD PUSH2 0x46E JUMP JUMPDEST SWAP3 POP POP PUSH1 0xE0 PUSH2 0x721 DUP12 DUP3 DUP13 ADD PUSH2 0x634 JUMP JUMPDEST SWAP2 POP POP SWAP3 SWAP6 SWAP9 POP SWAP3 SWAP6 SWAP9 SWAP1 SWAP4 SWAP7 POP JUMP JUMPDEST PUSH0 PUSH1 0x20 DUP3 DUP5 SUB SLT ISZERO PUSH2 0x746 JUMPI PUSH2 0x745 PUSH2 0x447 JUMP JUMPDEST JUMPDEST PUSH0 PUSH2 0x753 DUP5 DUP3 DUP6 ADD PUSH2 0x5FF JUMP JUMPDEST SWAP2 POP POP SWAP3 SWAP2 POP POP JUMP JUMPDEST PUSH0 DUP2 MLOAD SWAP1 POP SWAP2 SWAP1 POP JUMP JUMPDEST PUSH0 DUP3 DUP3 MSTORE PUSH1 0x20 DUP3 ADD SWAP1 POP SWAP3 SWAP2 POP POP JUMP JUMPDEST DUP3 DUP2 DUP4 MCOPY PUSH0 DUP4 DUP4 ADD MSTORE POP POP POP JUMP JUMPDEST PUSH0 PUSH2 0x78E DUP3 PUSH2 0x75C JUMP JUMPDEST PUSH2 0x798 DUP2 DUP6 PUSH2 0x766 JUMP JUMPDEST SWAP4 POP PUSH2 0x7A8 DUP2 DUP6 PUSH1 0x20 DUP7 ADD PUSH2 0x776 JUMP JUMPDEST PUSH2 0x7B1 DUP2 PUSH2 0x4B5 JUMP JUMPDEST DUP5 ADD SWAP2 POP POP SWAP3 SWAP2 POP POP JUMP JUMPDEST PUSH2 0x7C5 DUP2 PUSH2 0x44F JUMP JUMPDEST DUP3 MSTORE POP POP JUMP JUMPDEST PUSH2 0x7D4 DUP2 PUSH2 0x613 JUMP JUMPDEST DUP3 MSTORE POP POP JUMP JUMPDEST PUSH0 PUSH2 0x100 DUP3 ADD SWAP1 POP DUP2 DUP2 SUB PUSH0 DUP4 ADD MSTORE PUSH2 0x7F3 DUP2 DUP12 PUSH2 0x784 JUMP JUMPDEST SWAP1 POP DUP2 DUP2 SUB PUSH1 0x20 DUP4 ADD MSTORE PUSH2 0x807 DUP2 DUP11 PUSH2 0x784 JUMP JUMPDEST SWAP1 POP PUSH2 0x816 PUSH1 0x40 DUP4 ADD DUP10 PUSH2 0x416 JUMP JUMPDEST PUSH2 0x823 PUSH1 0x60 DUP4 ADD DUP9 PUSH2 0x416 JUMP JUMPDEST PUSH2 0x830 PUSH1 0x80 DUP4 ADD DUP8 PUSH2 0x7BC JUMP JUMPDEST PUSH2 0x83D PUSH1 0xA0 DUP4 ADD DUP7 PUSH2 0x7BC JUMP JUMPDEST PUSH2 0x84A PUSH1 0xC0 DUP4 ADD DUP6 PUSH2 0x7BC JUMP JUMPDEST PUSH2 0x857 PUSH1 0xE0 DUP4 ADD DUP5 PUSH2 0x7CB JUMP JUMPDEST SWAP10 SWAP9 POP POP POP POP POP POP POP POP POP JUMP INVALID PUSH1 0x80 PUSH1 0x40 MSTORE CALLVALUE DUP1 ISZERO PUSH2 0xF JUMPI PUSH0 DUP1 REVERT JUMPDEST POP PUSH1 0x40 MLOAD PUSH2 0x5404 CODESIZE SUB DUP1 PUSH2 0x5404 DUP4 CODECOPY DUP2 DUP2 ADD PUSH1 0x40 MSTORE DUP2 ADD SWAP1 PUSH2 0x31 SWAP2 SWAP1 PUSH2 0x6F8 JUMP JUMPDEST DUP8 DUP8 DUP8 DUP8 DUP8 DUP8 DUP8 DUP8 CALLER DUP9 DUP9 DUP2 PUSH1 0x3 SWAP1 DUP2 PUSH2 0x4B SWAP2 SWAP1 PUSH2 0x9E5 JUMP JUMPDEST POP DUP1 PUSH1 0x4 SWAP1 DUP2 PUSH2 0x5B SWAP2 SWAP1 PUSH2 0x9E5 JUMP JUMPDEST POP POP POP PUSH0 PUSH20 0xFFFFFFFFFFFFFFFFFFFFFFFFFFFFFFFFFFFFFFFF AND DUP2 PUSH20 0xFFFFFFFFFFFFFFFFFFFFFFFFFFFFFFFFFFFFFFFF AND SUB PUSH2 0xCE JUMPI PUSH0 PUSH1 0x40 MLOAD PUSH32 0x1E4FBDF700000000000000000000000000000000000000000000000000000000 DUP2 MSTORE PUSH1 0x4 ADD PUSH2 0xC5 SWAP2 SWAP1 PUSH2 0xAC3 JUMP JUMPDEST PUSH1 0x40 MLOAD DUP1 SWAP2 SUB SWAP1 REVERT JUMPDEST PUSH2 0xDD DUP2 PUSH2 0x419 PUSH1 0x20 SHL PUSH1 0x20 SHR JUMP JUMPDEST POP PUSH1 0x1 PUSH1 0x6 DUP2 SWAP1 SSTORE POP PUSH0 DUP3 SUB PUSH2 0x11F JUMPI PUSH1 0x40 MLOAD PUSH32 0x9A5818D800000000000000000000000000000000000000000000000000000000 DUP2 MSTORE PUSH1 0x4 ADD PUSH1 0x40 MLOAD DUP1 SWAP2 SUB SWAP1 REVERT JUMPDEST PUSH0 DUP4 SUB PUSH2 0x158 JUMPI PUSH1 0x40 MLOAD PUSH32 0x9A5818D800000000000000000000000000000000000000000000000000000000 DUP2 MSTORE PUSH1 0x4 ADD PUSH1 0x40 MLOAD DUP1 SWAP2 SUB SWAP1 REVERT JUMPDEST TIMESTAMP DUP5 LT ISZERO PUSH2 0x192 JUMPI PUSH1 0x40 MLOAD PUSH32 0xFB2A675200000000000000000000000000000000000000000000000000000000 DUP2 MSTORE PUSH1 0x4 ADD PUSH1 0x40 MLOAD DUP1 SWAP2 SUB SWAP1 REVERT JUMPDEST DUP4 PUSH1 0x9 DUP2 SWAP1 SSTORE POP DUP3 PUSH1 0xA DUP2 SWAP1 SSTORE POP DUP2 PUSH1 0xB DUP2 SWAP1 SSTORE POP DUP6 PUSH1 0x7 PUSH0 PUSH2 0x100 EXP DUP2 SLOAD DUP2 PUSH20 0xFFFFFFFFFFFFFFFFFFFFFFFFFFFFFFFFFFFFFFFF MUL NOT AND SWAP1 DUP4 PUSH20 0xFFFFFFFFFFFFFFFFFFFFFFFFFFFFFFFFFFFFFFFF AND MUL OR SWAP1 SSTORE POP DUP5 PUSH1 0x8 PUSH0 PUSH2 0x100 EXP DUP2 SLOAD DUP2 PUSH20 0xFFFFFFFFFFFFFFFFFFFFFFFFFFFFFFFFFFFFFFFF MUL NOT AND SWAP1 DUP4 PUSH20 0xFFFFFFFFFFFFFFFFFFFFFFFFFFFFFFFFFFFFFFFF AND MUL OR SWAP1 SSTORE POP DUP1 PUSH1 0xC PUSH0 PUSH2 0x100 EXP DUP2 SLOAD DUP2 PUSH1 0xFF MUL NOT AND SWAP1 DUP4 ISZERO ISZERO MUL OR SWAP1 SSTORE POP DUP6 PUSH1 0xC PUSH1 0x1 PUSH2 0x100 EXP DUP2 SLOAD DUP2 PUSH20 0xFFFFFFFFFFFFFFFFFFFFFFFFFFFFFFFFFFFFFFFF MUL NOT AND SWAP1 DUP4 PUSH20 0xFFFFFFFFFFFFFFFFFFFFFFFFFFFFFFFFFFFFFFFF AND MUL OR SWAP1 SSTORE POP DUP5 PUSH1 0xD PUSH0 PUSH2 0x100 EXP DUP2 SLOAD DUP2 PUSH20 0xFFFFFFFFFFFFFFFFFFFFFFFFFFFFFFFFFFFFFFFF MUL NOT AND SWAP1 DUP4 PUSH20 0xFFFFFFFFFFFFFFFFFFFFFFFFFFFFFFFFFFFFFFFF AND MUL OR SWAP1 SSTORE POP POP POP POP POP POP POP POP POP DUP8 DUP8 DUP8 DUP8 DUP8 DUP8 DUP8 DUP8 PUSH1 0x40 MLOAD PUSH2 0x2DD SWAP1 PUSH2 0x4DC JUMP JUMPDEST PUSH2 0x2EE SWAP9 SWAP8 SWAP7 SWAP6 SWAP5 SWAP4 SWAP3 SWAP2 SWAP1 PUSH2 0xB42 JUMP JUMPDEST PUSH1 0x40 MLOAD DUP1 SWAP2 SUB SWAP1 PUSH0 CREATE DUP1 ISZERO DUP1 ISZERO PUSH2 0x307 JUMPI RETURNDATASIZE PUSH0 DUP1 RETURNDATACOPY RETURNDATASIZE PUSH0 REVERT JUMPDEST POP PUSH1 0xF PUSH0 PUSH2 0x100 EXP DUP2 SLOAD DUP2 PUSH20 0xFFFFFFFFFFFFFFFFFFFFFFFFFFFFFFFFFFFFFFFF MUL NOT AND SWAP1 DUP4 PUSH20 0xFFFFFFFFFFFFFFFFFFFFFFFFFFFFFFFFFFFFFFFF AND MUL OR SWAP1 SSTORE POP PUSH1 0xF PUSH0 SWAP1 SLOAD SWAP1 PUSH2 0x100 EXP SWAP1 DIV PUSH20 0xFFFFFFFFFFFFFFFFFFFFFFFFFFFFFFFFFFFFFFFF AND PUSH1 0xE PUSH0 PUSH2 0x100 EXP DUP2 SLOAD DUP2 PUSH20 0xFFFFFFFFFFFFFFFFFFFFFFFFFFFFFFFFFFFFFFFF MUL NOT AND SWAP1 DUP4 PUSH20 0xFFFFFFFFFFFFFFFFFFFFFFFFFFFFFFFFFFFFFFFF AND MUL OR SWAP1 SSTORE POP PUSH32 0x7E842D4AD52DCFB58485F00B58E0AB0B1083A6B8426C16A0AD429F9A5710F250 ADDRESS DUP8 PUSH1 0xE PUSH0 SWAP1 SLOAD SWAP1 PUSH2 0x100 EXP SWAP1 DIV PUSH20 0xFFFFFFFFFFFFFFFFFFFFFFFFFFFFFFFFFFFFFFFF AND DUP8 DUP8 DUP8 DUP8 PUSH1 0x40 MLOAD PUSH2 0x404 SWAP8 SWAP7 SWAP6 SWAP5 SWAP4 SWAP3 SWAP2 SWAP1 PUSH2 0xBCC JUMP JUMPDEST PUSH1 0x40 MLOAD DUP1 SWAP2 SUB SWAP1 LOG1 POP POP POP POP POP POP POP POP PUSH2 0xC39 JUMP JUMPDEST PUSH0 PUSH1 0x5 PUSH0 SWAP1 SLOAD SWAP1 PUSH2 0x100 EXP SWAP1 DIV PUSH20 0xFFFFFFFFFFFFFFFFFFFFFFFFFFFFFFFFFFFFFFFF AND SWAP1 POP DUP2 PUSH1 0x5 PUSH0 PUSH2 0x100 EXP DUP2 SLOAD DUP2 PUSH20 0xFFFFFFFFFFFFFFFFFFFFFFFFFFFFFFFFFFFFFFFF MUL NOT AND SWAP1 DUP4 PUSH20 0xFFFFFFFFFFFFFFFFFFFFFFFFFFFFFFFFFFFFFFFF AND MUL OR SWAP1 SSTORE POP DUP2 PUSH20 0xFFFFFFFFFFFFFFFFFFFFFFFFFFFFFFFFFFFFFFFF AND DUP2 PUSH20 0xFFFFFFFFFFFFFFFFFFFFFFFFFFFFFFFFFFFFFFFF AND PUSH32 0x8BE0079C531659141344CD1FD0A4F28419497F9722A3DAAFE3B4186F6B6457E0 PUSH1 0x40 MLOAD PUSH1 0x40 MLOAD DUP1 SWAP2 SUB SWAP1 LOG3 POP POP JUMP JUMPDEST PUSH2 0x2D65 DUP1 PUSH2 0x269F DUP4 CODECOPY ADD SWAP1 JUMP JUMPDEST PUSH0 PUSH1 0x40 MLOAD SWAP1 POP SWAP1 JUMP JUMPDEST PUSH0 DUP1 REVERT JUMPDEST PUSH0 DUP1 REVERT JUMPDEST PUSH0 DUP1 REVERT JUMPDEST PUSH0 DUP1 REVERT JUMPDEST PUSH0 PUSH1 0x1F NOT PUSH1 0x1F DUP4 ADD AND SWAP1 POP SWAP2 SWAP1 POP JUMP JUMPDEST PUSH32 0x4E487B7100000000000000000000000000000000000000000000000000000000 PUSH0 MSTORE PUSH1 0x41 PUSH1 0x4 MSTORE PUSH1 0x24 PUSH0 REVERT JUMPDEST PUSH2 0x548 DUP3 PUSH2 0x502 JUMP JUMPDEST DUP2 ADD DUP2 DUP2 LT PUSH8 0xFFFFFFFFFFFFFFFF DUP3 GT OR ISZERO PUSH2 0x567 JUMPI PUSH2 0x566 PUSH2 0x512 JUMP JUMPDEST JUMPDEST DUP1 PUSH1 0x40 MSTORE POP POP POP JUMP JUMPDEST PUSH0 PUSH2 0x579 PUSH2 0x4E9 JUMP JUMPDEST SWAP1 POP PUSH2 0x585 DUP3 DUP3 PUSH2 0x53F JUMP JUMPDEST SWAP2 SWAP1 POP JUMP JUMPDEST PUSH0 PUSH8 0xFFFFFFFFFFFFFFFF DUP3 GT ISZERO PUSH2 0x5A4 JUMPI PUSH2 0x5A3 PUSH2 0x512 JUMP JUMPDEST JUMPDEST PUSH2 0x5AD DUP3 PUSH2 0x502 JUMP JUMPDEST SWAP1 POP PUSH1 0x20 DUP2 ADD SWAP1 POP SWAP2 SWAP1 POP JUMP JUMPDEST DUP3 DUP2 DUP4 MCOPY PUSH0 DUP4 DUP4 ADD MSTORE POP POP POP JUMP JUMPDEST PUSH0 PUSH2 0x5DA PUSH2 0x5D5 DUP5 PUSH2 0x58A JUMP JUMPDEST PUSH2 0x570 JUMP JUMPDEST SWAP1 POP DUP3 DUP2 MSTORE PUSH1 0x20 DUP2 ADD DUP5 DUP5 DUP5 ADD GT ISZERO PUSH2 0x5F6 JUMPI PUSH2 0x5F5 PUSH2 0x4FE JUMP JUMPDEST JUMPDEST PUSH2 0x601 DUP5 DUP3 DUP6 PUSH2 0x5BA JUMP JUMPDEST POP SWAP4 SWAP3 POP POP POP JUMP JUMPDEST PUSH0 DUP3 PUSH1 0x1F DUP4 ADD SLT PUSH2 0x61D JUMPI PUSH2 0x61C PUSH2 0x4FA JUMP JUMPDEST JUMPDEST DUP2 MLOAD PUSH2 0x62D DUP5 DUP3 PUSH1 0x20 DUP7 ADD PUSH2 0x5C8 JUMP JUMPDEST SWAP2 POP POP SWAP3 SWAP2 POP POP JUMP JUMPDEST PUSH0 PUSH20 0xFFFFFFFFFFFFFFFFFFFFFFFFFFFFFFFFFFFFFFFF DUP3 AND SWAP1 POP SWAP2 SWAP1 POP JUMP JUMPDEST PUSH0 PUSH2 0x65F DUP3 PUSH2 0x636 JUMP JUMPDEST SWAP1 POP SWAP2 SWAP1 POP JUMP JUMPDEST PUSH2 0x66F DUP2 PUSH2 0x655 JUMP JUMPDEST DUP2 EQ PUSH2 0x679 JUMPI PUSH0 DUP1 REVERT JUMPDEST POP JUMP JUMPDEST PUSH0 DUP2 MLOAD SWAP1 POP PUSH2 0x68A DUP2 PUSH2 0x666 JUMP JUMPDEST SWAP3 SWAP2 POP POP JUMP JUMPDEST PUSH0 DUP2 SWAP1 POP SWAP2 SWAP1 POP JUMP JUMPDEST PUSH2 0x6A2 DUP2 PUSH2 0x690 JUMP JUMPDEST DUP2 EQ PUSH2 0x6AC JUMPI PUSH0 DUP1 REVERT JUMPDEST POP JUMP JUMPDEST PUSH0 DUP2 MLOAD SWAP1 POP PUSH2 0x6BD DUP2 PUSH2 0x699 JUMP JUMPDEST SWAP3 SWAP2 POP POP JUMP JUMPDEST PUSH0 DUP2 ISZERO ISZERO SWAP1 POP SWAP2 SWAP1 POP JUMP JUMPDEST PUSH2 0x6D7 DUP2 PUSH2 0x6C3 JUMP JUMPDEST DUP2 EQ PUSH2 0x6E1 JUMPI PUSH0 DUP1 REVERT JUMPDEST POP JUMP JUMPDEST PUSH0 DUP2 MLOAD SWAP1 POP PUSH2 0x6F2 DUP2 PUSH2 0x6CE JUMP JUMPDEST SWAP3 SWAP2 POP POP JUMP JUMPDEST PUSH0 DUP1 PUSH0 DUP1 PUSH0 DUP1 PUSH0 DUP1 PUSH2 0x100 DUP10 DUP12 SUB SLT ISZERO PUSH2 0x715 JUMPI PUSH2 0x714 PUSH2 0x4F2 JUMP JUMPDEST JUMPDEST PUSH0 DUP10 ADD MLOAD PUSH8 0xFFFFFFFFFFFFFFFF DUP2 GT ISZERO PUSH2 0x732 JUMPI PUSH2 0x731 PUSH2 0x4F6 JUMP JUMPDEST JUMPDEST PUSH2 0x73E DUP12 DUP3 DUP13 ADD PUSH2 0x609 JUMP JUMPDEST SWAP9 POP POP PUSH1 0x20 DUP10 ADD MLOAD PUSH8 0xFFFFFFFFFFFFFFFF DUP2 GT ISZERO PUSH2 0x75F JUMPI PUSH2 0x75E PUSH2 0x4F6 JUMP JUMPDEST JUMPDEST PUSH2 0x76B DUP12 DUP3 DUP13 ADD PUSH2 0x609 JUMP JUMPDEST SWAP8 POP POP PUSH1 0x40 PUSH2 0x77C DUP12 DUP3 DUP13 ADD PUSH2 0x67C JUMP JUMPDEST SWAP7 POP POP PUSH1 0x60 PUSH2 0x78D DUP12 DUP3 DUP13 ADD PUSH2 0x67C JUMP JUMPDEST SWAP6 POP POP PUSH1 0x80 PUSH2 0x79E DUP12 DUP3 DUP13 ADD PUSH2 0x6AF JUMP JUMPDEST SWAP5 POP POP PUSH1 0xA0 PUSH2 0x7AF DUP12 DUP3 DUP13 ADD PUSH2 0x6AF JUMP JUMPDEST SWAP4 POP POP PUSH1 0xC0 PUSH2 0x7C0 DUP12 DUP3 DUP13 ADD PUSH2 0x6AF JUMP JUMPDEST SWAP3 POP POP PUSH1 0xE0 PUSH2 0x7D1 DUP12 DUP3 DUP13 ADD PUSH2 0x6E4 JUMP JUMPDEST SWAP2 POP POP SWAP3 SWAP6 SWAP9 POP SWAP3 SWAP6 SWAP9 SWAP1 SWAP4 SWAP7 POP JUMP JUMPDEST PUSH0 DUP2 MLOAD SWAP1 POP SWAP2 SWAP1 POP JUMP JUMPDEST PUSH32 0x4E487B7100000000000000000000000000000000000000000000000000000000 PUSH0 MSTORE PUSH1 0x22 PUSH1 0x4 MSTORE PUSH1 0x24 PUSH0 REVERT JUMPDEST PUSH0 PUSH1 0x2 DUP3 DIV SWAP1 POP PUSH1 0x1 DUP3 AND DUP1 PUSH2 0x82F JUMPI PUSH1 0x7F DUP3 AND SWAP2 POP JUMPDEST PUSH1 0x20 DUP3 LT DUP2 SUB PUSH2 0x842 JUMPI PUSH2 0x841 PUSH2 0x7EB JUMP JUMPDEST JUMPDEST POP SWAP2 SWAP1 POP JUMP JUMPDEST PUSH0 DUP2 SWAP1 POP DUP2 PUSH0 MSTORE PUSH1 0x20 PUSH0 KECCAK256 SWAP1 POP SWAP2 SWAP1 POP JUMP JUMPDEST PUSH0 PUSH1 0x20 PUSH1 0x1F DUP4 ADD DIV SWAP1 POP SWAP2 SWAP1 POP JUMP JUMPDEST PUSH0 DUP3 DUP3 SHL SWAP1 POP SWAP3 SWAP2 POP POP JUMP JUMPDEST PUSH0 PUSH1 0x8 DUP4 MUL PUSH2 0x8A4 PUSH32 0xFFFFFFFFFFFFFFFFFFFFFFFFFFFFFFFFFFFFFFFFFFFFFFFFFFFFFFFFFFFFFFFF DUP3 PUSH2 0x869 JUMP JUMPDEST PUSH2 0x8AE DUP7 DUP4 PUSH2 0x869 JUMP JUMPDEST SWAP6 POP DUP1 NOT DUP5 AND SWAP4 POP DUP1 DUP7 AND DUP5 OR SWAP3 POP POP POP SWAP4 SWAP3 POP POP POP JUMP JUMPDEST PUSH0 DUP2 SWAP1 POP SWAP2 SWAP1 POP JUMP JUMPDEST PUSH0 PUSH2 0x8E9 PUSH2 0x8E4 PUSH2 0x8DF DUP5 PUSH2 0x690 JUMP JUMPDEST PUSH2 0x8C6 JUMP JUMPDEST PUSH2 0x690 JUMP JUMPDEST SWAP1 POP SWAP2 SWAP1 POP JUMP JUMPDEST PUSH0 DUP2 SWAP1 POP SWAP2 SWAP1 POP JUMP JUMPDEST PUSH2 0x902 DUP4 PUSH2 0x8CF JUMP JUMPDEST PUSH2 0x916 PUSH2 0x90E DUP3 PUSH2 0x8F0 JUMP JUMPDEST DUP5 DUP5 SLOAD PUSH2 0x875 JUMP JUMPDEST DUP3 SSTORE POP POP POP POP JUMP JUMPDEST PUSH0 SWAP1 JUMP JUMPDEST PUSH2 0x92A PUSH2 0x91E JUMP JUMPDEST PUSH2 0x935 DUP2 DUP5 DUP5 PUSH2 0x8F9 JUMP JUMPDEST POP POP POP JUMP JUMPDEST JUMPDEST DUP2 DUP2 LT ISZERO PUSH2 0x958 JUMPI PUSH2 0x94D PUSH0 DUP3 PUSH2 0x922 JUMP JUMPDEST PUSH1 0x1 DUP2 ADD SWAP1 POP PUSH2 0x93B JUMP JUMPDEST POP POP JUMP JUMPDEST PUSH1 0x1F DUP3 GT ISZERO PUSH2 0x99D JUMPI PUSH2 0x96E DUP2 PUSH2 0x848 JUMP JUMPDEST PUSH2 0x977 DUP5 PUSH2 0x85A JUMP JUMPDEST DUP2 ADD PUSH1 0x20 DUP6 LT ISZERO PUSH2 0x986 JUMPI DUP2 SWAP1 POP JUMPDEST PUSH2 0x99A PUSH2 0x992 DUP6 PUSH2 0x85A JUMP JUMPDEST DUP4 ADD DUP3 PUSH2 0x93A JUMP JUMPDEST POP POP JUMPDEST POP POP POP JUMP JUMPDEST PUSH0 DUP3 DUP3 SHR SWAP1 POP SWAP3 SWAP2 POP POP JUMP JUMPDEST PUSH0 PUSH2 0x9BD PUSH0 NOT DUP5 PUSH1 0x8 MUL PUSH2 0x9A2 JUMP JUMPDEST NOT DUP1 DUP4 AND SWAP2 POP POP SWAP3 SWAP2 POP POP JUMP JUMPDEST PUSH0 PUSH2 0x9D5 DUP4 DUP4 PUSH2 0x9AE JUMP JUMPDEST SWAP2 POP DUP3 PUSH1 0x2 MUL DUP3 OR SWAP1 POP SWAP3 SWAP2 POP POP JUMP JUMPDEST PUSH2 0x9EE DUP3 PUSH2 0x7E1 JUMP JUMPDEST PUSH8 0xFFFFFFFFFFFFFFFF DUP2 GT ISZERO PUSH2 0xA07 JUMPI PUSH2 0xA06 PUSH2 0x512 JUMP JUMPDEST JUMPDEST PUSH2 0xA11 DUP3 SLOAD PUSH2 0x818 JUMP JUMPDEST PUSH2 0xA1C DUP3 DUP3 DUP6 PUSH2 0x95C JUMP JUMPDEST PUSH0 PUSH1 0x20 SWAP1 POP PUSH1 0x1F DUP4 GT PUSH1 0x1 DUP2 EQ PUSH2 0xA4D JUMPI PUSH0 DUP5 ISZERO PUSH2 0xA3B JUMPI DUP3 DUP8 ADD MLOAD SWAP1 POP JUMPDEST PUSH2 0xA45 DUP6 DUP3 PUSH2 0x9CA JUMP JUMPDEST DUP7 SSTORE POP PUSH2 0xAAC JUMP JUMPDEST PUSH1 0x1F NOT DUP5 AND PUSH2 0xA5B DUP7 PUSH2 0x848 JUMP JUMPDEST PUSH0 JUMPDEST DUP3 DUP2 LT ISZERO PUSH2 0xA82 JUMPI DUP5 DUP10 ADD MLOAD DUP3 SSTORE PUSH1 0x1 DUP3 ADD SWAP2 POP PUSH1 0x20 DUP6 ADD SWAP5 POP PUSH1 0x20 DUP2 ADD SWAP1 POP PUSH2 0xA5D JUMP JUMPDEST DUP7 DUP4 LT ISZERO PUSH2 0xA9F JUMPI DUP5 DUP10 ADD MLOAD PUSH2 0xA9B PUSH1 0x1F DUP10 AND DUP3 PUSH2 0x9AE JUMP JUMPDEST DUP4 SSTORE POP JUMPDEST PUSH1 0x1 PUSH1 0x2 DUP9 MUL ADD DUP9 SSTORE POP POP POP JUMPDEST POP POP POP POP POP POP JUMP JUMPDEST PUSH2 0xABD DUP2 PUSH2 0x655 JUMP JUMPDEST DUP3 MSTORE POP POP JUMP JUMPDEST PUSH0 PUSH1 0x20 DUP3 ADD SWAP1 POP PUSH2 0xAD6 PUSH0 DUP4 ADD DUP5 PUSH2 0xAB4 JUMP JUMPDEST SWAP3 SWAP2 POP POP JUMP JUMPDEST PUSH0 DUP3 DUP3 MSTORE PUSH1 0x20 DUP3 ADD SWAP1 POP SWAP3 SWAP2 POP POP JUMP JUMPDEST PUSH0 PUSH2 0xAF6 DUP3 PUSH2 0x7E1 JUMP JUMPDEST PUSH2 0xB00 DUP2 DUP6 PUSH2 0xADC JUMP JUMPDEST SWAP4 POP PUSH2 0xB10 DUP2 DUP6 PUSH1 0x20 DUP7 ADD PUSH2 0x5BA JUMP JUMPDEST PUSH2 0xB19 DUP2 PUSH2 0x502 JUMP JUMPDEST DUP5 ADD SWAP2 POP POP SWAP3 SWAP2 POP POP JUMP JUMPDEST PUSH2 0xB2D DUP2 PUSH2 0x690 JUMP JUMPDEST DUP3 MSTORE POP POP JUMP JUMPDEST PUSH2 0xB3C DUP2 PUSH2 0x6C3 JUMP JUMPDEST DUP3 MSTORE POP POP JUMP JUMPDEST PUSH0 PUSH2 0x100 DUP3 ADD SWAP1 POP DUP2 DUP2 SUB PUSH0 DUP4 ADD MSTORE PUSH2 0xB5B DUP2 DUP12 PUSH2 0xAEC JUMP JUMPDEST SWAP1 POP DUP2 DUP2 SUB PUSH1 0x20 DUP4 ADD MSTORE PUSH2 0xB6F DUP2 DUP11 PUSH2 0xAEC JUMP JUMPDEST SWAP1 POP PUSH2 0xB7E PUSH1 0x40 DUP4 ADD DUP10 PUSH2 0xAB4 JUMP JUMPDEST PUSH2 0xB8B PUSH1 0x60 DUP4 ADD DUP9 PUSH2 0xAB4 JUMP JUMPDEST PUSH2 0xB98 PUSH1 0x80 DUP4 ADD DUP8 PUSH2 0xB24 JUMP JUMPDEST PUSH2 0xBA5 PUSH1 0xA0 DUP4 ADD DUP7 PUSH2 0xB24 JUMP JUMPDEST PUSH2 0xBB2 PUSH1 0xC0 DUP4 ADD DUP6 PUSH2 0xB24 JUMP JUMPDEST PUSH2 0xBBF PUSH1 0xE0 DUP4 ADD DUP5 PUSH2 0xB33 JUMP JUMPDEST SWAP10 SWAP9 POP POP POP POP POP POP POP POP POP JUMP JUMPDEST PUSH0 PUSH1 0xE0 DUP3 ADD SWAP1 POP PUSH2 0xBDF PUSH0 DUP4 ADD DUP11 PUSH2 0xAB4 JUMP JUMPDEST PUSH2 0xBEC PUSH1 0x20 DUP4 ADD DUP10 PUSH2 0xAB4 JUMP JUMPDEST PUSH2 0xBF9 PUSH1 0x40 DUP4 ADD DUP9 PUSH2 0xAB4 JUMP JUMPDEST PUSH2 0xC06 PUSH1 0x60 DUP4 ADD DUP8 PUSH2 0xB24 JUMP JUMPDEST PUSH2 0xC13 PUSH1 0x80 DUP4 ADD DUP7 PUSH2 0xB24 JUMP JUMPDEST PUSH2 0xC20 PUSH1 0xA0 DUP4 ADD DUP6 PUSH2 0xB24 JUMP JUMPDEST PUSH2 0xC2D PUSH1 0xC0 DUP4 ADD DUP5 PUSH2 0xB33 JUMP JUMPDEST SWAP9 SWAP8 POP POP POP POP POP POP POP POP JUMP JUMPDEST PUSH2 0x1A59 DUP1 PUSH2 0xC46 PUSH0 CODECOPY PUSH0 RETURN INVALID PUSH1 0x80 PUSH1 0x40 MSTORE CALLVALUE DUP1 ISZERO PUSH2 0xF JUMPI PUSH0 DUP1 REVERT JUMPDEST POP PUSH1 0x4 CALLDATASIZE LT PUSH2 0x171 JUMPI PUSH0 CALLDATALOAD PUSH1 0xE0 SHR DUP1 PUSH4 0x95D89B41 GT PUSH2 0xDC JUMPI DUP1 PUSH4 0xB8A11E82 GT PUSH2 0x95 JUMPI DUP1 PUSH4 0xDB006A75 GT PUSH2 0x6F JUMPI DUP1 PUSH4 0xDB006A75 EQ PUSH2 0x41B JUMPI DUP1 PUSH4 0xDD62ED3E EQ PUSH2 0x437 JUMPI DUP1 PUSH4 0xF2FDE38B EQ PUSH2 0x467 JUMPI DUP1 PUSH4 0xF3C274A6 EQ PUSH2 0x483 JUMPI PUSH2 0x171 JUMP JUMPDEST DUP1 PUSH4 0xB8A11E82 EQ PUSH2 0x3C1 JUMPI DUP1 PUSH4 0xCFB4FC71 EQ PUSH2 0x3DF JUMPI DUP1 PUSH4 0xD8DFEB45 EQ PUSH2 0x3FD JUMPI PUSH2 0x171 JUMP JUMPDEST DUP1 PUSH4 0x95D89B41 EQ PUSH2 0x2FF JUMPI DUP1 PUSH4 0x9ACEA70D EQ PUSH2 0x31D JUMPI DUP1 PUSH4 0xA0712D68 EQ PUSH2 0x33B JUMPI DUP1 PUSH4 0xA9059CBB EQ PUSH2 0x357 JUMPI DUP1 PUSH4 0xAD7448BC EQ PUSH2 0x387 JUMPI DUP1 PUSH4 0xB07F0A41 EQ PUSH2 0x3A5 JUMPI PUSH2 0x171 JUMP JUMPDEST DUP1 PUSH4 0x48D399E7 GT PUSH2 0x12E JUMPI DUP1 PUSH4 0x48D399E7 EQ PUSH2 0x24D JUMPI DUP1 PUSH4 0x6F713C9C EQ PUSH2 0x26B JUMPI DUP1 PUSH4 0x70A08231 EQ PUSH2 0x289 JUMPI DUP1 PUSH4 0x715018A6 EQ PUSH2 0x2B9 JUMPI DUP1 PUSH4 0x8DA5CB5B EQ PUSH2 0x2C3 JUMPI DUP1 PUSH4 0x8F620487 EQ PUSH2 0x2E1 JUMPI PUSH2 0x171 JUMP JUMPDEST DUP1 PUSH4 0x6FDDE03 EQ PUSH2 0x175 JUMPI DUP1 PUSH4 0x95EA7B3 EQ PUSH2 0x193 JUMPI DUP1 PUSH4 0x18160DDD EQ PUSH2 0x1C3 JUMPI DUP1 PUSH4 0x23B872DD EQ PUSH2 0x1E1 JUMPI DUP1 PUSH4 0x2C7D4240 EQ PUSH2 0x211 JUMPI DUP1 PUSH4 0x313CE567 EQ PUSH2 0x22F JUMPI JUMPDEST PUSH0 DUP1 REVERT JUMPDEST PUSH2 0x17D PUSH2 0x4A1 JUMP JUMPDEST PUSH1 0x40 MLOAD PUSH2 0x18A SWAP2 SWAP1 PUSH2 0x1594 JUMP JUMPDEST PUSH1 0x40 MLOAD DUP1 SWAP2 SUB SWAP1 RETURN JUMPDEST PUSH2 0x1AD PUSH1 0x4 DUP1 CALLDATASIZE SUB DUP2 ADD SWAP1 PUSH2 0x1A8 SWAP2 SWAP1 PUSH2 0x1645 JUMP JUMPDEST PUSH2 0x531 JUMP JUMPDEST PUSH1 0x40 MLOAD PUSH2 0x1BA SWAP2 SWAP1 PUSH2 0x169D JUMP JUMPDEST PUSH1 0x40 MLOAD DUP1 SWAP2 SUB SWAP1 RETURN JUMPDEST PUSH2 0x1CB PUSH2 0x553 JUMP JUMPDEST PUSH1 0x40 MLOAD PUSH2 0x1D8 SWAP2 SWAP1 PUSH2 0x16C5 JUMP JUMPDEST PUSH1 0x40 MLOAD DUP1 SWAP2 SUB SWAP1 RETURN JUMPDEST PUSH2 0x1FB PUSH1 0x4 DUP1 CALLDATASIZE SUB DUP2 ADD SWAP1 PUSH2 0x1F6 SWAP2 SWAP1 PUSH2 0x16DE JUMP JUMPDEST PUSH2 0x55C JUMP JUMPDEST PUSH1 0x40 MLOAD PUSH2 0x208 SWAP2 SWAP1 PUSH2 0x169D JUMP JUMPDEST PUSH1 0x40 MLOAD DUP1 SWAP2 SUB SWAP1 RETURN JUMPDEST PUSH2 0x219 PUSH2 0x58A JUMP JUMPDEST PUSH1 0x40 MLOAD PUSH2 0x226 SWAP2 SWAP1 PUSH2 0x173D JUMP JUMPDEST PUSH1 0x40 MLOAD DUP1 SWAP2 SUB SWAP1 RETURN JUMPDEST PUSH2 0x237 PUSH2 0x5AF JUMP JUMPDEST PUSH1 0x40 MLOAD PUSH2 0x244 SWAP2 SWAP1 PUSH2 0x1771 JUMP JUMPDEST PUSH1 0x40 MLOAD DUP1 SWAP2 SUB SWAP1 RETURN JUMPDEST PUSH2 0x255 PUSH2 0x5B7 JUMP JUMPDEST PUSH1 0x40 MLOAD PUSH2 0x262 SWAP2 SWAP1 PUSH2 0x173D JUMP JUMPDEST PUSH1 0x40 MLOAD DUP1 SWAP2 SUB SWAP1 RETURN JUMPDEST PUSH2 0x273 PUSH2 0x5DC JUMP JUMPDEST PUSH1 0x40 MLOAD PUSH2 0x280 SWAP2 SWAP1 PUSH2 0x17E5 JUMP JUMPDEST PUSH1 0x40 MLOAD DUP1 SWAP2 SUB SWAP1 RETURN JUMPDEST PUSH2 0x2A3 PUSH1 0x4 DUP1 CALLDATASIZE SUB DUP2 ADD SWAP1 PUSH2 0x29E SWAP2 SWAP1 PUSH2 0x17FE JUMP JUMPDEST PUSH2 0x601 JUMP JUMPDEST PUSH1 0x40 MLOAD PUSH2 0x2B0 SWAP2 SWAP1 PUSH2 0x16C5 JUMP JUMPDEST PUSH1 0x40 MLOAD DUP1 SWAP2 SUB SWAP1 RETURN JUMPDEST PUSH2 0x2C1 PUSH2 0x646 JUMP JUMPDEST STOP JUMPDEST PUSH2 0x2CB PUSH2 0x659 JUMP JUMPDEST PUSH1 0x40 MLOAD PUSH2 0x2D8 SWAP2 SWAP1 PUSH2 0x173D JUMP JUMPDEST PUSH1 0x40 MLOAD DUP1 SWAP2 SUB SWAP1 RETURN JUMPDEST PUSH2 0x2E9 PUSH2 0x681 JUMP JUMPDEST PUSH1 0x40 MLOAD PUSH2 0x2F6 SWAP2 SWAP1 PUSH2 0x16C5 JUMP JUMPDEST PUSH1 0x40 MLOAD DUP1 SWAP2 SUB SWAP1 RETURN JUMPDEST PUSH2 0x307 PUSH2 0x687 JUMP JUMPDEST PUSH1 0x40 MLOAD PUSH2 0x314 SWAP2 SWAP1 PUSH2 0x1594 JUMP JUMPDEST PUSH1 0x40 MLOAD DUP1 SWAP2 SUB SWAP1 RETURN JUMPDEST PUSH2 0x325 PUSH2 0x717 JUMP JUMPDEST PUSH1 0x40 MLOAD PUSH2 0x332 SWAP2 SWAP1 PUSH2 0x173D JUMP JUMPDEST PUSH1 0x40 MLOAD DUP1 SWAP2 SUB SWAP1 RETURN JUMPDEST PUSH2 0x355 PUSH1 0x4 DUP1 CALLDATASIZE SUB DUP2 ADD SWAP1 PUSH2 0x350 SWAP2 SWAP1 PUSH2 0x1829 JUMP JUMPDEST PUSH2 0x73C JUMP JUMPDEST STOP JUMPDEST PUSH2 0x371 PUSH1 0x4 DUP1 CALLDATASIZE SUB DUP2 ADD SWAP1 PUSH2 0x36C SWAP2 SWAP1 PUSH2 0x1645 JUMP JUMPDEST PUSH2 0x81F JUMP JUMPDEST PUSH1 0x40 MLOAD PUSH2 0x37E SWAP2 SWAP1 PUSH2 0x169D JUMP JUMPDEST PUSH1 0x40 MLOAD DUP1 SWAP2 SUB SWAP1 RETURN JUMPDEST PUSH2 0x38F PUSH2 0x841 JUMP JUMPDEST PUSH1 0x40 MLOAD PUSH2 0x39C SWAP2 SWAP1 PUSH2 0x1874 JUMP JUMPDEST PUSH1 0x40 MLOAD DUP1 SWAP2 SUB SWAP1 RETURN JUMPDEST PUSH2 0x3BF PUSH1 0x4 DUP1 CALLDATASIZE SUB DUP2 ADD SWAP1 PUSH2 0x3BA SWAP2 SWAP1 PUSH2 0x1829 JUMP JUMPDEST PUSH2 0x866 JUMP JUMPDEST STOP JUMPDEST PUSH2 0x3C9 PUSH2 0x984 JUMP JUMPDEST PUSH1 0x40 MLOAD PUSH2 0x3D6 SWAP2 SWAP1 PUSH2 0x16C5 JUMP JUMPDEST PUSH1 0x40 MLOAD DUP1 SWAP2 SUB SWAP1 RETURN JUMPDEST PUSH2 0x3E7 PUSH2 0x98A JUMP JUMPDEST PUSH1 0x40 MLOAD PUSH2 0x3F4 SWAP2 SWAP1 PUSH2 0x16C5 JUMP JUMPDEST PUSH1 0x40 MLOAD DUP1 SWAP2 SUB SWAP1 RETURN JUMPDEST PUSH2 0x405 PUSH2 0x990 JUMP JUMPDEST PUSH1 0x40 MLOAD PUSH2 0x412 SWAP2 SWAP1 PUSH2 0x17E5 JUMP JUMPDEST PUSH1 0x40 MLOAD DUP1 SWAP2 SUB SWAP1 RETURN JUMPDEST PUSH2 0x435 PUSH1 0x4 DUP1 CALLDATASIZE SUB DUP2 ADD SWAP1 PUSH2 0x430 SWAP2 SWAP1 PUSH2 0x1829 JUMP JUMPDEST PUSH2 0x9B6 JUMP JUMPDEST STOP JUMPDEST PUSH2 0x451 PUSH1 0x4 DUP1 CALLDATASIZE SUB DUP2 ADD SWAP1 PUSH2 0x44C SWAP2 SWAP1 PUSH2 0x188D JUMP JUMPDEST PUSH2 0xBF1 JUMP JUMPDEST PUSH1 0x40 MLOAD PUSH2 0x45E SWAP2 SWAP1 PUSH2 0x16C5 JUMP JUMPDEST PUSH1 0x40 MLOAD DUP1 SWAP2 SUB SWAP1 RETURN JUMPDEST PUSH2 0x481 PUSH1 0x4 DUP1 CALLDATASIZE SUB DUP2 ADD SWAP1 PUSH2 0x47C SWAP2 SWAP1 PUSH2 0x17FE JUMP JUMPDEST PUSH2 0xC73 JUMP JUMPDEST STOP JUMPDEST PUSH2 0x48B PUSH2 0xCF7 JUMP JUMPDEST PUSH1 0x40 MLOAD PUSH2 0x498 SWAP2 SWAP1 PUSH2 0x169D JUMP JUMPDEST PUSH1 0x40 MLOAD DUP1 SWAP2 SUB SWAP1 RETURN JUMPDEST PUSH1 0x60 PUSH1 0x3 DUP1 SLOAD PUSH2 0x4B0 SWAP1 PUSH2 0x18F8 JUMP JUMPDEST DUP1 PUSH1 0x1F ADD PUSH1 0x20 DUP1 SWAP2 DIV MUL PUSH1 0x20 ADD PUSH1 0x40 MLOAD SWAP1 DUP2 ADD PUSH1 0x40 MSTORE DUP1 SWAP3 SWAP2 SWAP1 DUP2 DUP2 MSTORE PUSH1 0x20 ADD DUP3 DUP1 SLOAD PUSH2 0x4DC SWAP1 PUSH2 0x18F8 JUMP JUMPDEST DUP1 ISZERO PUSH2 0x527 JUMPI DUP1 PUSH1 0x1F LT PUSH2 0x4FE JUMPI PUSH2 0x100 DUP1 DUP4 SLOAD DIV MUL DUP4 MSTORE SWAP2 PUSH1 0x20 ADD SWAP2 PUSH2 0x527 JUMP JUMPDEST DUP3 ADD SWAP2 SWAP1 PUSH0 MSTORE PUSH1 0x20 PUSH0 KECCAK256 SWAP1 JUMPDEST DUP2 SLOAD DUP2 MSTORE SWAP1 PUSH1 0x1 ADD SWAP1 PUSH1 0x20 ADD DUP1 DUP4 GT PUSH2 0x50A JUMPI DUP3 SWAP1 SUB PUSH1 0x1F AND DUP3 ADD SWAP2 JUMPDEST POP POP POP POP POP SWAP1 POP SWAP1 JUMP JUMPDEST PUSH0 DUP1 PUSH2 0x53B PUSH2 0xD09 JUMP JUMPDEST SWAP1 POP PUSH2 0x548 DUP2 DUP6 DUP6 PUSH2 0xD10 JUMP JUMPDEST PUSH1 0x1 SWAP2 POP POP SWAP3 SWAP2 POP POP JUMP JUMPDEST PUSH0 PUSH1 0x2 SLOAD SWAP1 POP SWAP1 JUMP JUMPDEST PUSH0 DUP1 PUSH2 0x566 PUSH2 0xD09 JUMP JUMPDEST SWAP1 POP PUSH2 0x573 DUP6 DUP3 DUP6 PUSH2 0xD22 JUMP JUMPDEST PUSH2 0x57E DUP6 DUP6 DUP6 PUSH2 0xDB4 JUMP JUMPDEST PUSH1 0x1 SWAP2 POP POP SWAP4 SWAP3 POP POP POP JUMP JUMPDEST PUSH1 0xE PUSH0 SWAP1 SLOAD SWAP1 PUSH2 0x100 EXP SWAP1 DIV PUSH20 0xFFFFFFFFFFFFFFFFFFFFFFFFFFFFFFFFFFFFFFFF AND DUP2 JUMP JUMPDEST PUSH0 PUSH1 0x12 SWAP1 POP SWAP1 JUMP JUMPDEST PUSH1 0x7 PUSH0 SWAP1 SLOAD SWAP1 PUSH2 0x100 EXP SWAP1 DIV PUSH20 0xFFFFFFFFFFFFFFFFFFFFFFFFFFFFFFFFFFFFFFFF AND DUP2 JUMP JUMPDEST PUSH1 0xD PUSH0 SWAP1 SLOAD SWAP1 PUSH2 0x100 EXP SWAP1 DIV PUSH20 0xFFFFFFFFFFFFFFFFFFFFFFFFFFFFFFFFFFFFFFFF AND DUP2 JUMP JUMPDEST PUSH0 DUP1 PUSH0 DUP4 PUSH20 0xFFFFFFFFFFFFFFFFFFFFFFFFFFFFFFFFFFFFFFFF AND PUSH20 0xFFFFFFFFFFFFFFFFFFFFFFFFFFFFFFFFFFFFFFFF AND DUP2 MSTORE PUSH1 0x20 ADD SWAP1 DUP2 MSTORE PUSH1 0x20 ADD PUSH0 KECCAK256 SLOAD SWAP1 POP SWAP2 SWAP1 POP JUMP JUMPDEST PUSH2 0x64E PUSH2 0xEA4 JUMP JUMPDEST PUSH2 0x657 PUSH0 PUSH2 0xF2B JUMP JUMPDEST JUMP JUMPDEST PUSH0 PUSH1 0x5 PUSH0 SWAP1 SLOAD SWAP1 PUSH2 0x100 EXP SWAP1 DIV PUSH20 0xFFFFFFFFFFFFFFFFFFFFFFFFFFFFFFFFFFFFFFFF AND SWAP1 POP SWAP1 JUMP JUMPDEST PUSH1 0x9 SLOAD DUP2 JUMP JUMPDEST PUSH1 0x60 PUSH1 0x4 DUP1 SLOAD PUSH2 0x696 SWAP1 PUSH2 0x18F8 JUMP JUMPDEST DUP1 PUSH1 0x1F ADD PUSH1 0x20 DUP1 SWAP2 DIV MUL PUSH1 0x20 ADD PUSH1 0x40 MLOAD SWAP1 DUP2 ADD PUSH1 0x40 MSTORE DUP1 SWAP3 SWAP2 SWAP1 DUP2 DUP2 MSTORE PUSH1 0x20 ADD DUP3 DUP1 SLOAD PUSH2 0x6C2 SWAP1 PUSH2 0x18F8 JUMP JUMPDEST DUP1 ISZERO PUSH2 0x70D JUMPI DUP1 PUSH1 0x1F LT PUSH2 0x6E4 JUMPI PUSH2 0x100 DUP1 DUP4 SLOAD DIV MUL DUP4 MSTORE SWAP2 PUSH1 0x20 ADD SWAP2 PUSH2 0x70D JUMP JUMPDEST DUP3 ADD SWAP2 SWAP1 PUSH0 MSTORE PUSH1 0x20 PUSH0 KECCAK256 SWAP1 JUMPDEST DUP2 SLOAD DUP2 MSTORE SWAP1 PUSH1 0x1 ADD SWAP1 PUSH1 0x20 ADD DUP1 DUP4 GT PUSH2 0x6F0 JUMPI DUP3 SWAP1 SUB PUSH1 0x1F AND DUP3 ADD SWAP2 JUMPDEST POP POP POP POP POP SWAP1 POP SWAP1 JUMP JUMPDEST PUSH1 0x8 PUSH0 SWAP1 SLOAD SWAP1 PUSH2 0x100 EXP SWAP1 DIV PUSH20 0xFFFFFFFFFFFFFFFFFFFFFFFFFFFFFFFFFFFFFFFF AND DUP2 JUMP JUMPDEST PUSH2 0x744 PUSH2 0xFEE JUMP JUMPDEST DUP1 PUSH1 0x1 DUP2 LT ISZERO PUSH2 0x780 JUMPI PUSH1 0x40 MLOAD PUSH32 0x2C5211C600000000000000000000000000000000000000000000000000000000 DUP2 MSTORE PUSH1 0x4 ADD PUSH1 0x40 MLOAD DUP1 SWAP2 SUB SWAP1 REVERT JUMPDEST PUSH2 0x78A CALLER DUP4 PUSH2 0x1034 JUMP JUMPDEST PUSH1 0xF PUSH0 SWAP1 SLOAD SWAP1 PUSH2 0x100 EXP SWAP1 DIV PUSH20 0xFFFFFFFFFFFFFFFFFFFFFFFFFFFFFFFFFFFFFFFF AND PUSH20 0xFFFFFFFFFFFFFFFFFFFFFFFFFFFFFFFFFFFFFFFF AND PUSH4 0x40C10F19 CALLER DUP5 PUSH1 0x40 MLOAD DUP4 PUSH4 0xFFFFFFFF AND PUSH1 0xE0 SHL DUP2 MSTORE PUSH1 0x4 ADD PUSH2 0x7E6 SWAP3 SWAP2 SWAP1 PUSH2 0x1928 JUMP JUMPDEST PUSH0 PUSH1 0x40 MLOAD DUP1 DUP4 SUB DUP2 PUSH0 DUP8 DUP1 EXTCODESIZE ISZERO DUP1 ISZERO PUSH2 0x7FD JUMPI PUSH0 DUP1 REVERT JUMPDEST POP GAS CALL ISZERO DUP1 ISZERO PUSH2 0x80F JUMPI RETURNDATASIZE PUSH0 DUP1 RETURNDATACOPY RETURNDATASIZE PUSH0 REVERT JUMPDEST POP POP POP POP POP PUSH2 0x81C PUSH2 0x10B3 JUMP JUMPDEST POP JUMP JUMPDEST PUSH0 DUP1 PUSH2 0x829 PUSH2 0xD09 JUMP JUMPDEST SWAP1 POP PUSH2 0x836 DUP2 DUP6 DUP6 PUSH2 0xDB4 JUMP JUMPDEST PUSH1 0x1 SWAP2 POP POP SWAP3 SWAP2 POP POP JUMP JUMPDEST PUSH1 0xF PUSH0 SWAP1 SLOAD SWAP1 PUSH2 0x100 EXP SWAP1 DIV PUSH20 0xFFFFFFFFFFFFFFFFFFFFFFFFFFFFFFFFFFFFFFFF AND DUP2 JUMP JUMPDEST PUSH1 0x9 SLOAD TIMESTAMP LT PUSH2 0x8A1 JUMPI PUSH1 0x40 MLOAD PUSH32 0x790D4E300000000000000000000000000000000000000000000000000000000 DUP2 MSTORE PUSH1 0x4 ADD PUSH1 0x40 MLOAD DUP1 SWAP2 SUB SWAP1 REVERT JUMPDEST PUSH2 0x8A9 PUSH2 0xFEE JUMP JUMPDEST DUP1 PUSH1 0x1 DUP2 LT ISZERO PUSH2 0x8E5 JUMPI PUSH1 0x40 MLOAD PUSH32 0x2C5211C600000000000000000000000000000000000000000000000000000000 DUP2 MSTORE PUSH1 0x4 ADD PUSH1 0x40 MLOAD DUP1 SWAP2 SUB SWAP1 REVERT JUMPDEST PUSH2 0x8EF CALLER DUP4 PUSH2 0x10BD JUMP JUMPDEST PUSH1 0xF PUSH0 SWAP1 SLOAD SWAP1 PUSH2 0x100 EXP SWAP1 DIV PUSH20 0xFFFFFFFFFFFFFFFFFFFFFFFFFFFFFFFFFFFFFFFF AND PUSH20 0xFFFFFFFFFFFFFFFFFFFFFFFFFFFFFFFFFFFFFFFF AND PUSH4 0xDD068EC1 CALLER DUP5 PUSH1 0x40 MLOAD DUP4 PUSH4 0xFFFFFFFF AND PUSH1 0xE0 SHL DUP2 MSTORE PUSH1 0x4 ADD PUSH2 0x94B SWAP3 SWAP2 SWAP1 PUSH2 0x1928 JUMP JUMPDEST PUSH0 PUSH1 0x40 MLOAD DUP1 DUP4 SUB DUP2 PUSH0 DUP8 DUP1 EXTCODESIZE ISZERO DUP1 ISZERO PUSH2 0x962 JUMPI PUSH0 DUP1 REVERT JUMPDEST POP GAS CALL ISZERO DUP1 ISZERO PUSH2 0x974 JUMPI RETURNDATASIZE PUSH0 DUP1 RETURNDATACOPY RETURNDATASIZE PUSH0 REVERT JUMPDEST POP POP POP POP POP PUSH2 0x981 PUSH2 0x10B3 JUMP JUMPDEST POP JUMP JUMPDEST PUSH1 0xA SLOAD DUP2 JUMP JUMPDEST PUSH1 0xB SLOAD DUP2 JUMP JUMPDEST PUSH1 0xC PUSH1 0x1 SWAP1 SLOAD SWAP1 PUSH2 0x100 EXP SWAP1 DIV PUSH20 0xFFFFFFFFFFFFFFFFFFFFFFFFFFFFFFFFFFFFFFFF AND DUP2 JUMP JUMPDEST PUSH1 0x9 SLOAD TIMESTAMP LT PUSH2 0x9F1 JUMPI PUSH1 0x40 MLOAD PUSH32 0x790D4E300000000000000000000000000000000000000000000000000000000 DUP2 MSTORE PUSH1 0x4 ADD PUSH1 0x40 MLOAD DUP1 SWAP2 SUB SWAP1 REVERT JUMPDEST PUSH2 0x9F9 PUSH2 0xFEE JUMP JUMPDEST CALLER DUP2 DUP1 PUSH2 0xA05 DUP4 PUSH2 0x601 JUMP JUMPDEST LT ISZERO PUSH2 0xA3D JUMPI PUSH1 0x40 MLOAD PUSH32 0xF4D678B800000000000000000000000000000000000000000000000000000000 DUP2 MSTORE PUSH1 0x4 ADD PUSH1 0x40 MLOAD DUP1 SWAP2 SUB SWAP1 REVERT JUMPDEST DUP3 PUSH1 0x1 DUP2 LT ISZERO PUSH2 0xA79 JUMPI PUSH1 0x40 MLOAD PUSH32 0x2C5211C600000000000000000000000000000000000000000000000000000000 DUP2 MSTORE PUSH1 0x4 ADD PUSH1 0x40 MLOAD DUP1 SWAP2 SUB SWAP1 REVERT JUMPDEST DUP4 PUSH1 0xF PUSH0 SWAP1 SLOAD SWAP1 PUSH2 0x100 EXP SWAP1 DIV PUSH20 0xFFFFFFFFFFFFFFFFFFFFFFFFFFFFFFFFFFFFFFFF AND PUSH20 0xFFFFFFFFFFFFFFFFFFFFFFFFFFFFFFFFFFFFFFFF AND PUSH4 0x70A08231 CALLER PUSH1 0x40 MLOAD DUP3 PUSH4 0xFFFFFFFF AND PUSH1 0xE0 SHL DUP2 MSTORE PUSH1 0x4 ADD PUSH2 0xAD4 SWAP2 SWAP1 PUSH2 0x173D JUMP JUMPDEST PUSH1 0x20 PUSH1 0x40 MLOAD DUP1 DUP4 SUB DUP2 DUP7 GAS STATICCALL ISZERO DUP1 ISZERO PUSH2 0xAEF JUMPI RETURNDATASIZE PUSH0 DUP1 RETURNDATACOPY RETURNDATASIZE PUSH0 REVERT JUMPDEST POP POP POP POP PUSH1 0x40 MLOAD RETURNDATASIZE PUSH1 0x1F NOT PUSH1 0x1F DUP3 ADD AND DUP3 ADD DUP1 PUSH1 0x40 MSTORE POP DUP2 ADD SWAP1 PUSH2 0xB13 SWAP2 SWAP1 PUSH2 0x1963 JUMP JUMPDEST LT ISZERO PUSH2 0xB4B JUMPI PUSH1 0x40 MLOAD PUSH32 0xF4D678B800000000000000000000000000000000000000000000000000000000 DUP2 MSTORE PUSH1 0x4 ADD PUSH1 0x40 MLOAD DUP1 SWAP2 SUB SWAP1 REVERT JUMPDEST PUSH0 CALLER SWAP1 POP PUSH1 0xF PUSH0 SWAP1 SLOAD SWAP1 PUSH2 0x100 EXP SWAP1 DIV PUSH20 0xFFFFFFFFFFFFFFFFFFFFFFFFFFFFFFFFFFFFFFFF AND PUSH20 0xFFFFFFFFFFFFFFFFFFFFFFFFFFFFFFFFFFFFFFFF AND PUSH4 0xE0CA59BB DUP3 DUP8 PUSH1 0x40 MLOAD DUP4 PUSH4 0xFFFFFFFF AND PUSH1 0xE0 SHL DUP2 MSTORE PUSH1 0x4 ADD PUSH2 0xBAB SWAP3 SWAP2 SWAP1 PUSH2 0x1928 JUMP JUMPDEST PUSH0 PUSH1 0x40 MLOAD DUP1 DUP4 SUB DUP2 PUSH0 DUP8 DUP1 EXTCODESIZE ISZERO DUP1 ISZERO PUSH2 0xBC2 JUMPI PUSH0 DUP1 REVERT JUMPDEST POP GAS CALL ISZERO DUP1 ISZERO PUSH2 0xBD4 JUMPI RETURNDATASIZE PUSH0 DUP1 RETURNDATACOPY RETURNDATASIZE PUSH0 REVERT JUMPDEST POP POP POP POP PUSH2 0xBE2 DUP2 DUP7 PUSH2 0x10BD JUMP JUMPDEST POP POP POP POP PUSH2 0xBEE PUSH2 0x10B3 JUMP JUMPDEST POP JUMP JUMPDEST PUSH0 PUSH1 0x1 PUSH0 DUP5 PUSH20 0xFFFFFFFFFFFFFFFFFFFFFFFFFFFFFFFFFFFFFFFF AND PUSH20 0xFFFFFFFFFFFFFFFFFFFFFFFFFFFFFFFFFFFFFFFF AND DUP2 MSTORE PUSH1 0x20 ADD SWAP1 DUP2 MSTORE PUSH1 0x20 ADD PUSH0 KECCAK256 PUSH0 DUP4 PUSH20 0xFFFFFFFFFFFFFFFFFFFFFFFFFFFFFFFFFFFFFFFF AND PUSH20 0xFFFFFFFFFFFFFFFFFFFFFFFFFFFFFFFFFFFFFFFF AND DUP2 MSTORE PUSH1 0x20 ADD SWAP1 DUP2 MSTORE PUSH1 0x20 ADD PUSH0 KECCAK256 SLOAD SWAP1 POP SWAP3 SWAP2 POP POP JUMP JUMPDEST PUSH2 0xC7B PUSH2 0xEA4 JUMP JUMPDEST PUSH0 PUSH20 0xFFFFFFFFFFFFFFFFFFFFFFFFFFFFFFFFFFFFFFFF AND DUP2 PUSH20 0xFFFFFFFFFFFFFFFFFFFFFFFFFFFFFFFFFFFFFFFF AND SUB PUSH2 0xCEB JUMPI PUSH0 PUSH1 0x40 MLOAD PUSH32 0x1E4FBDF700000000000000000000000000000000000000000000000000000000 DUP2 MSTORE PUSH1 0x4 ADD PUSH2 0xCE2 SWAP2 SWAP1 PUSH2 0x173D JUMP JUMPDEST PUSH1 0x40 MLOAD DUP1 SWAP2 SUB SWAP1 REVERT JUMPDEST PUSH2 0xCF4 DUP2 PUSH2 0xF2B JUMP JUMPDEST POP JUMP JUMPDEST PUSH1 0xC PUSH0 SWAP1 SLOAD SWAP1 PUSH2 0x100 EXP SWAP1 DIV PUSH1 0xFF AND DUP2 JUMP JUMPDEST PUSH0 CALLER SWAP1 POP SWAP1 JUMP JUMPDEST PUSH2 0xD1D DUP4 DUP4 DUP4 PUSH1 0x1 PUSH2 0x113C JUMP JUMPDEST POP POP POP JUMP JUMPDEST PUSH0 PUSH2 0xD2D DUP5 DUP5 PUSH2 0xBF1 JUMP JUMPDEST SWAP1 POP PUSH32 0xFFFFFFFFFFFFFFFFFFFFFFFFFFFFFFFFFFFFFFFFFFFFFFFFFFFFFFFFFFFFFFFF DUP2 EQ PUSH2 0xDAE JUMPI DUP2 DUP2 LT ISZERO PUSH2 0xD9F JUMPI DUP3 DUP2 DUP4 PUSH1 0x40 MLOAD PUSH32 0xFB8F41B200000000000000000000000000000000000000000000000000000000 DUP2 MSTORE PUSH1 0x4 ADD PUSH2 0xD96 SWAP4 SWAP3 SWAP2 SWAP1 PUSH2 0x198E JUMP JUMPDEST PUSH1 0x40 MLOAD DUP1 SWAP2 SUB SWAP1 REVERT JUMPDEST PUSH2 0xDAD DUP5 DUP5 DUP5 DUP5 SUB PUSH0 PUSH2 0x113C JUMP JUMPDEST JUMPDEST POP POP POP POP JUMP JUMPDEST PUSH0 PUSH20 0xFFFFFFFFFFFFFFFFFFFFFFFFFFFFFFFFFFFFFFFF AND DUP4 PUSH20 0xFFFFFFFFFFFFFFFFFFFFFFFFFFFFFFFFFFFFFFFF AND SUB PUSH2 0xE24 JUMPI PUSH0 PUSH1 0x40 MLOAD PUSH32 0x96C6FD1E00000000000000000000000000000000000000000000000000000000 DUP2 MSTORE PUSH1 0x4 ADD PUSH2 0xE1B SWAP2 SWAP1 PUSH2 0x173D JUMP JUMPDEST PUSH1 0x40 MLOAD DUP1 SWAP2 SUB SWAP1 REVERT JUMPDEST PUSH0 PUSH20 0xFFFFFFFFFFFFFFFFFFFFFFFFFFFFFFFFFFFFFFFF AND DUP3 PUSH20 0xFFFFFFFFFFFFFFFFFFFFFFFFFFFFFFFFFFFFFFFF AND SUB PUSH2 0xE94 JUMPI PUSH0 PUSH1 0x40 MLOAD PUSH32 0xEC442F0500000000000000000000000000000000000000000000000000000000 DUP2 MSTORE PUSH1 0x4 ADD PUSH2 0xE8B SWAP2 SWAP1 PUSH2 0x173D JUMP JUMPDEST PUSH1 0x40 MLOAD DUP1 SWAP2 SUB SWAP1 REVERT JUMPDEST PUSH2 0xE9F DUP4 DUP4 DUP4 PUSH2 0x130B JUMP JUMPDEST POP POP POP JUMP JUMPDEST PUSH2 0xEAC PUSH2 0xD09 JUMP JUMPDEST PUSH20 0xFFFFFFFFFFFFFFFFFFFFFFFFFFFFFFFFFFFFFFFF AND PUSH2 0xECA PUSH2 0x659 JUMP JUMPDEST PUSH20 0xFFFFFFFFFFFFFFFFFFFFFFFFFFFFFFFFFFFFFFFF AND EQ PUSH2 0xF29 JUMPI PUSH2 0xEED PUSH2 0xD09 JUMP JUMPDEST PUSH1 0x40 MLOAD PUSH32 0x118CDAA700000000000000000000000000000000000000000000000000000000 DUP2 MSTORE PUSH1 0x4 ADD PUSH2 0xF20 SWAP2 SWAP1 PUSH2 0x173D JUMP JUMPDEST PUSH1 0x40 MLOAD DUP1 SWAP2 SUB SWAP1 REVERT JUMPDEST JUMP JUMPDEST PUSH0 PUSH1 0x5 PUSH0 SWAP1 SLOAD SWAP1 PUSH2 0x100 EXP SWAP1 DIV PUSH20 0xFFFFFFFFFFFFFFFFFFFFFFFFFFFFFFFFFFFFFFFF AND SWAP1 POP DUP2 PUSH1 0x5 PUSH0 PUSH2 0x100 EXP DUP2 SLOAD DUP2 PUSH20 0xFFFFFFFFFFFFFFFFFFFFFFFFFFFFFFFFFFFFFFFF MUL NOT AND SWAP1 DUP4 PUSH20 0xFFFFFFFFFFFFFFFFFFFFFFFFFFFFFFFFFFFFFFFF AND MUL OR SWAP1 SSTORE POP DUP2 PUSH20 0xFFFFFFFFFFFFFFFFFFFFFFFFFFFFFFFFFFFFFFFF AND DUP2 PUSH20 0xFFFFFFFFFFFFFFFFFFFFFFFFFFFFFFFFFFFFFFFF AND PUSH32 0x8BE0079C531659141344CD1FD0A4F28419497F9722A3DAAFE3B4186F6B6457E0 PUSH1 0x40 MLOAD PUSH1 0x40 MLOAD DUP1 SWAP2 SUB SWAP1 LOG3 POP POP JUMP JUMPDEST PUSH1 0x2 PUSH1 0x6 SLOAD SUB PUSH2 0x102A JUMPI PUSH1 0x40 MLOAD PUSH32 0x3EE5AEB500000000000000000000000000000000000000000000000000000000 DUP2 MSTORE PUSH1 0x4 ADD PUSH1 0x40 MLOAD DUP1 SWAP2 SUB SWAP1 REVERT JUMPDEST PUSH1 0x2 PUSH1 0x6 DUP2 SWAP1 SSTORE POP JUMP JUMPDEST PUSH0 PUSH20 0xFFFFFFFFFFFFFFFFFFFFFFFFFFFFFFFFFFFFFFFF AND DUP3 PUSH20 0xFFFFFFFFFFFFFFFFFFFFFFFFFFFFFFFFFFFFFFFF AND SUB PUSH2 0x10A4 JUMPI PUSH0 PUSH1 0x40 MLOAD PUSH32 0xEC442F0500000000000000000000000000000000000000000000000000000000 DUP2 MSTORE PUSH1 0x4 ADD PUSH2 0x109B SWAP2 SWAP1 PUSH2 0x173D JUMP JUMPDEST PUSH1 0x40 MLOAD DUP1 SWAP2 SUB SWAP1 REVERT JUMPDEST PUSH2 0x10AF PUSH0 DUP4 DUP4 PUSH2 0x130B JUMP JUMPDEST POP POP JUMP JUMPDEST PUSH1 0x1 PUSH1 0x6 DUP2 SWAP1 SSTORE POP JUMP JUMPDEST PUSH0 PUSH20 0xFFFFFFFFFFFFFFFFFFFFFFFFFFFFFFFFFFFFFFFF AND DUP3 PUSH20 0xFFFFFFFFFFFFFFFFFFFFFFFFFFFFFFFFFFFFFFFF AND SUB PUSH2 0x112D JUMPI PUSH0 PUSH1 0x40 MLOAD PUSH32 0x96C6FD1E00000000000000000000000000000000000000000000000000000000 DUP2 MSTORE PUSH1 0x4 ADD PUSH2 0x1124 SWAP2 SWAP1 PUSH2 0x173D JUMP JUMPDEST PUSH1 0x40 MLOAD DUP1 SWAP2 SUB SWAP1 REVERT JUMPDEST PUSH2 0x1138 DUP3 PUSH0 DUP4 PUSH2 0x130B JUMP JUMPDEST POP POP JUMP JUMPDEST PUSH0 PUSH20 0xFFFFFFFFFFFFFFFFFFFFFFFFFFFFFFFFFFFFFFFF AND DUP5 PUSH20 0xFFFFFFFFFFFFFFFFFFFFFFFFFFFFFFFFFFFFFFFF AND SUB PUSH2 0x11AC JUMPI PUSH0 PUSH1 0x40 MLOAD PUSH32 0xE602DF0500000000000000000000000000000000000000000000000000000000 DUP2 MSTORE PUSH1 0x4 ADD PUSH2 0x11A3 SWAP2 SWAP1 PUSH2 0x173D JUMP JUMPDEST PUSH1 0x40 MLOAD DUP1 SWAP2 SUB SWAP1 REVERT JUMPDEST PUSH0 PUSH20 0xFFFFFFFFFFFFFFFFFFFFFFFFFFFFFFFFFFFFFFFF AND DUP4 PUSH20 0xFFFFFFFFFFFFFFFFFFFFFFFFFFFFFFFFFFFFFFFF AND SUB PUSH2 0x121C JUMPI PUSH0 PUSH1 0x40 MLOAD PUSH32 0x94280D6200000000000000000000000000000000000000000000000000000000 DUP2 MSTORE PUSH1 0x4 ADD PUSH2 0x1213 SWAP2 SWAP1 PUSH2 0x173D JUMP JUMPDEST PUSH1 0x40 MLOAD DUP1 SWAP2 SUB SWAP1 REVERT JUMPDEST DUP2 PUSH1 0x1 PUSH0 DUP7 PUSH20 0xFFFFFFFFFFFFFFFFFFFFFFFFFFFFFFFFFFFFFFFF AND PUSH20 0xFFFFFFFFFFFFFFFFFFFFFFFFFFFFFFFFFFFFFFFF AND DUP2 MSTORE PUSH1 0x20 ADD SWAP1 DUP2 MSTORE PUSH1 0x20 ADD PUSH0 KECCAK256 PUSH0 DUP6 PUSH20 0xFFFFFFFFFFFFFFFFFFFFFFFFFFFFFFFFFFFFFFFF AND PUSH20 0xFFFFFFFFFFFFFFFFFFFFFFFFFFFFFFFFFFFFFFFF AND DUP2 MSTORE PUSH1 0x20 ADD SWAP1 DUP2 MSTORE PUSH1 0x20 ADD PUSH0 KECCAK256 DUP2 SWAP1 SSTORE POP DUP1 ISZERO PUSH2 0x1305 JUMPI DUP3 PUSH20 0xFFFFFFFFFFFFFFFFFFFFFFFFFFFFFFFFFFFFFFFF AND DUP5 PUSH20 0xFFFFFFFFFFFFFFFFFFFFFFFFFFFFFFFFFFFFFFFF AND PUSH32 0x8C5BE1E5EBEC7D5BD14F71427D1E84F3DD0314C0F7B2291E5B200AC8C7C3B925 DUP5 PUSH1 0x40 MLOAD PUSH2 0x12FC SWAP2 SWAP1 PUSH2 0x16C5 JUMP JUMPDEST PUSH1 0x40 MLOAD DUP1 SWAP2 SUB SWAP1 LOG3 JUMPDEST POP POP POP POP JUMP JUMPDEST PUSH0 PUSH20 0xFFFFFFFFFFFFFFFFFFFFFFFFFFFFFFFFFFFFFFFF AND DUP4 PUSH20 0xFFFFFFFFFFFFFFFFFFFFFFFFFFFFFFFFFFFFFFFF AND SUB PUSH2 0x135B JUMPI DUP1 PUSH1 0x2 PUSH0 DUP3 DUP3 SLOAD PUSH2 0x134F SWAP2 SWAP1 PUSH2 0x19F0 JUMP JUMPDEST SWAP3 POP POP DUP2 SWAP1 SSTORE POP PUSH2 0x1429 JUMP JUMPDEST PUSH0 DUP1 PUSH0 DUP6 PUSH20 0xFFFFFFFFFFFFFFFFFFFFFFFFFFFFFFFFFFFFFFFF AND PUSH20 0xFFFFFFFFFFFFFFFFFFFFFFFFFFFFFFFFFFFFFFFF AND DUP2 MSTORE PUSH1 0x20 ADD SWAP1 DUP2 MSTORE PUSH1 0x20 ADD PUSH0 KECCAK256 SLOAD SWAP1 POP DUP2 DUP2 LT ISZERO PUSH2 0x13E4 JUMPI DUP4 DUP2 DUP4 PUSH1 0x40 MLOAD PUSH32 0xE450D38C00000000000000000000000000000000000000000000000000000000 DUP2 MSTORE PUSH1 0x4 ADD PUSH2 0x13DB SWAP4 SWAP3 SWAP2 SWAP1 PUSH2 0x198E JUMP JUMPDEST PUSH1 0x40 MLOAD DUP1 SWAP2 SUB SWAP1 REVERT JUMPDEST DUP2 DUP2 SUB PUSH0 DUP1 DUP7 PUSH20 0xFFFFFFFFFFFFFFFFFFFFFFFFFFFFFFFFFFFFFFFF AND PUSH20 0xFFFFFFFFFFFFFFFFFFFFFFFFFFFFFFFFFFFFFFFF AND DUP2 MSTORE PUSH1 0x20 ADD SWAP1 DUP2 MSTORE PUSH1 0x20 ADD PUSH0 KECCAK256 DUP2 SWAP1 SSTORE POP POP JUMPDEST PUSH0 PUSH20 0xFFFFFFFFFFFFFFFFFFFFFFFFFFFFFFFFFFFFFFFF AND DUP3 PUSH20 0xFFFFFFFFFFFFFFFFFFFFFFFFFFFFFFFFFFFFFFFF AND SUB PUSH2 0x1470 JUMPI DUP1 PUSH1 0x2 PUSH0 DUP3 DUP3 SLOAD SUB SWAP3 POP POP DUP2 SWAP1 SSTORE POP PUSH2 0x14BA JUMP JUMPDEST DUP1 PUSH0 DUP1 DUP5 PUSH20 0xFFFFFFFFFFFFFFFFFFFFFFFFFFFFFFFFFFFFFFFF AND PUSH20 0xFFFFFFFFFFFFFFFFFFFFFFFFFFFFFFFFFFFFFFFF AND DUP2 MSTORE PUSH1 0x20 ADD SWAP1 DUP2 MSTORE PUSH1 0x20 ADD PUSH0 KECCAK256 PUSH0 DUP3 DUP3 SLOAD ADD SWAP3 POP POP DUP2 SWAP1 SSTORE POP JUMPDEST DUP2 PUSH20 0xFFFFFFFFFFFFFFFFFFFFFFFFFFFFFFFFFFFFFFFF AND DUP4 PUSH20 0xFFFFFFFFFFFFFFFFFFFFFFFFFFFFFFFFFFFFFFFF AND PUSH32 0xDDF252AD1BE2C89B69C2B068FC378DAA952BA7F163C4A11628F55A4DF523B3EF DUP4 PUSH1 0x40 MLOAD PUSH2 0x1517 SWAP2 SWAP1 PUSH2 0x16C5 JUMP JUMPDEST PUSH1 0x40 MLOAD DUP1 SWAP2 SUB SWAP1 LOG3 POP POP POP JUMP JUMPDEST PUSH0 DUP2 MLOAD SWAP1 POP SWAP2 SWAP1 POP JUMP JUMPDEST PUSH0 DUP3 DUP3 MSTORE PUSH1 0x20 DUP3 ADD SWAP1 POP SWAP3 SWAP2 POP POP JUMP JUMPDEST DUP3 DUP2 DUP4 MCOPY PUSH0 DUP4 DUP4 ADD MSTORE POP POP POP JUMP JUMPDEST PUSH0 PUSH1 0x1F NOT PUSH1 0x1F DUP4 ADD AND SWAP1 POP SWAP2 SWAP1 POP JUMP JUMPDEST PUSH0 PUSH2 0x1566 DUP3 PUSH2 0x1524 JUMP JUMPDEST PUSH2 0x1570 DUP2 DUP6 PUSH2 0x152E JUMP JUMPDEST SWAP4 POP PUSH2 0x1580 DUP2 DUP6 PUSH1 0x20 DUP7 ADD PUSH2 0x153E JUMP JUMPDEST PUSH2 0x1589 DUP2 PUSH2 0x154C JUMP JUMPDEST DUP5 ADD SWAP2 POP POP SWAP3 SWAP2 POP POP JUMP JUMPDEST PUSH0 PUSH1 0x20 DUP3 ADD SWAP1 POP DUP2 DUP2 SUB PUSH0 DUP4 ADD MSTORE PUSH2 0x15AC DUP2 DUP5 PUSH2 0x155C JUMP JUMPDEST SWAP1 POP SWAP3 SWAP2 POP POP JUMP JUMPDEST PUSH0 DUP1 REVERT JUMPDEST PUSH0 PUSH20 0xFFFFFFFFFFFFFFFFFFFFFFFFFFFFFFFFFFFFFFFF DUP3 AND SWAP1 POP SWAP2 SWAP1 POP JUMP JUMPDEST PUSH0 PUSH2 0x15E1 DUP3 PUSH2 0x15B8 JUMP JUMPDEST SWAP1 POP SWAP2 SWAP1 POP JUMP JUMPDEST PUSH2 0x15F1 DUP2 PUSH2 0x15D7 JUMP JUMPDEST DUP2 EQ PUSH2 0x15FB JUMPI PUSH0 DUP1 REVERT JUMPDEST POP JUMP JUMPDEST PUSH0 DUP2 CALLDATALOAD SWAP1 POP PUSH2 0x160C DUP2 PUSH2 0x15E8 JUMP JUMPDEST SWAP3 SWAP2 POP POP JUMP JUMPDEST PUSH0 DUP2 SWAP1 POP SWAP2 SWAP1 POP JUMP JUMPDEST PUSH2 0x1624 DUP2 PUSH2 0x1612 JUMP JUMPDEST DUP2 EQ PUSH2 0x162E JUMPI PUSH0 DUP1 REVERT JUMPDEST POP JUMP JUMPDEST PUSH0 DUP2 CALLDATALOAD SWAP1 POP PUSH2 0x163F DUP2 PUSH2 0x161B JUMP JUMPDEST SWAP3 SWAP2 POP POP JUMP JUMPDEST PUSH0 DUP1 PUSH1 0x40 DUP4 DUP6 SUB SLT ISZERO PUSH2 0x165B JUMPI PUSH2 0x165A PUSH2 0x15B4 JUMP JUMPDEST JUMPDEST PUSH0 PUSH2 0x1668 DUP6 DUP3 DUP7 ADD PUSH2 0x15FE JUMP JUMPDEST SWAP3 POP POP PUSH1 0x20 PUSH2 0x1679 DUP6 DUP3 DUP7 ADD PUSH2 0x1631 JUMP JUMPDEST SWAP2 POP POP SWAP3 POP SWAP3 SWAP1 POP JUMP JUMPDEST PUSH0 DUP2 ISZERO ISZERO SWAP1 POP SWAP2 SWAP1 POP JUMP JUMPDEST PUSH2 0x1697 DUP2 PUSH2 0x1683 JUMP JUMPDEST DUP3 MSTORE POP POP JUMP JUMPDEST PUSH0 PUSH1 0x20 DUP3 ADD SWAP1 POP PUSH2 0x16B0 PUSH0 DUP4 ADD DUP5 PUSH2 0x168E JUMP JUMPDEST SWAP3 SWAP2 POP POP JUMP JUMPDEST PUSH2 0x16BF DUP2 PUSH2 0x1612 JUMP JUMPDEST DUP3 MSTORE POP POP JUMP JUMPDEST PUSH0 PUSH1 0x20 DUP3 ADD SWAP1 POP PUSH2 0x16D8 PUSH0 DUP4 ADD DUP5 PUSH2 0x16B6 JUMP JUMPDEST SWAP3 SWAP2 POP POP JUMP JUMPDEST PUSH0 DUP1 PUSH0 PUSH1 0x60 DUP5 DUP7 SUB SLT ISZERO PUSH2 0x16F5 JUMPI PUSH2 0x16F4 PUSH2 0x15B4 JUMP JUMPDEST JUMPDEST PUSH0 PUSH2 0x1702 DUP7 DUP3 DUP8 ADD PUSH2 0x15FE JUMP JUMPDEST SWAP4 POP POP PUSH1 0x20 PUSH2 0x1713 DUP7 DUP3 DUP8 ADD PUSH2 0x15FE JUMP JUMPDEST SWAP3 POP POP PUSH1 0x40 PUSH2 0x1724 DUP7 DUP3 DUP8 ADD PUSH2 0x1631 JUMP JUMPDEST SWAP2 POP POP SWAP3 POP SWAP3 POP SWAP3 JUMP JUMPDEST PUSH2 0x1737 DUP2 PUSH2 0x15D7 JUMP JUMPDEST DUP3 MSTORE POP POP JUMP JUMPDEST PUSH0 PUSH1 0x20 DUP3 ADD SWAP1 POP PUSH2 0x1750 PUSH0 DUP4 ADD DUP5 PUSH2 0x172E JUMP JUMPDEST SWAP3 SWAP2 POP POP JUMP JUMPDEST PUSH0 PUSH1 0xFF DUP3 AND SWAP1 POP SWAP2 SWAP1 POP JUMP JUMPDEST PUSH2 0x176B DUP2 PUSH2 0x1756 JUMP JUMPDEST DUP3 MSTORE POP POP JUMP JUMPDEST PUSH0 PUSH1 0x20 DUP3 ADD SWAP1 POP PUSH2 0x1784 PUSH0 DUP4 ADD DUP5 PUSH2 0x1762 JUMP JUMPDEST SWAP3 SWAP2 POP POP JUMP JUMPDEST PUSH0 DUP2 SWAP1 POP SWAP2 SWAP1 POP JUMP JUMPDEST PUSH0 PUSH2 0x17AD PUSH2 0x17A8 PUSH2 0x17A3 DUP5 PUSH2 0x15B8 JUMP JUMPDEST PUSH2 0x178A JUMP JUMPDEST PUSH2 0x15B8 JUMP JUMPDEST SWAP1 POP SWAP2 SWAP1 POP JUMP JUMPDEST PUSH0 PUSH2 0x17BE DUP3 PUSH2 0x1793 JUMP JUMPDEST SWAP1 POP SWAP2 SWAP1 POP JUMP JUMPDEST PUSH0 PUSH2 0x17CF DUP3 PUSH2 0x17B4 JUMP JUMPDEST SWAP1 POP SWAP2 SWAP1 POP JUMP JUMPDEST PUSH2 0x17DF DUP2 PUSH2 0x17C5 JUMP JUMPDEST DUP3 MSTORE POP POP JUMP JUMPDEST PUSH0 PUSH1 0x20 DUP3 ADD SWAP1 POP PUSH2 0x17F8 PUSH0 DUP4 ADD DUP5 PUSH2 0x17D6 JUMP JUMPDEST SWAP3 SWAP2 POP POP JUMP JUMPDEST PUSH0 PUSH1 0x20 DUP3 DUP5 SUB SLT ISZERO PUSH2 0x1813 JUMPI PUSH2 0x1812 PUSH2 0x15B4 JUMP JUMPDEST JUMPDEST PUSH0 PUSH2 0x1820 DUP5 DUP3 DUP6 ADD PUSH2 0x15FE JUMP JUMPDEST SWAP2 POP POP SWAP3 SWAP2 POP POP JUMP JUMPDEST PUSH0 PUSH1 0x20 DUP3 DUP5 SUB SLT ISZERO PUSH2 0x183E JUMPI PUSH2 0x183D PUSH2 0x15B4 JUMP JUMPDEST JUMPDEST PUSH0 PUSH2 0x184B DUP5 DUP3 DUP6 ADD PUSH2 0x1631 JUMP JUMPDEST SWAP2 POP POP SWAP3 SWAP2 POP POP JUMP JUMPDEST PUSH0 PUSH2 0x185E DUP3 PUSH2 0x17B4 JUMP JUMPDEST SWAP1 POP SWAP2 SWAP1 POP JUMP JUMPDEST PUSH2 0x186E DUP2 PUSH2 0x1854 JUMP JUMPDEST DUP3 MSTORE POP POP JUMP JUMPDEST PUSH0 PUSH1 0x20 DUP3 ADD SWAP1 POP PUSH2 0x1887 PUSH0 DUP4 ADD DUP5 PUSH2 0x1865 JUMP JUMPDEST SWAP3 SWAP2 POP POP JUMP JUMPDEST PUSH0 DUP1 PUSH1 0x40 DUP4 DUP6 SUB SLT ISZERO PUSH2 0x18A3 JUMPI PUSH2 0x18A2 PUSH2 0x15B4 JUMP JUMPDEST JUMPDEST PUSH0 PUSH2 0x18B0 DUP6 DUP3 DUP7 ADD PUSH2 0x15FE JUMP JUMPDEST SWAP3 POP POP PUSH1 0x20 PUSH2 0x18C1 DUP6 DUP3 DUP7 ADD PUSH2 0x15FE JUMP JUMPDEST SWAP2 POP POP SWAP3 POP SWAP3 SWAP1 POP JUMP JUMPDEST PUSH32 0x4E487B7100000000000000000000000000000000000000000000000000000000 PUSH0 MSTORE PUSH1 0x22 PUSH1 0x4 MSTORE PUSH1 0x24 PUSH0 REVERT JUMPDEST PUSH0 PUSH1 0x2 DUP3 DIV SWAP1 POP PUSH1 0x1 DUP3 AND DUP1 PUSH2 0x190F JUMPI PUSH1 0x7F DUP3 AND SWAP2 POP JUMPDEST PUSH1 0x20 DUP3 LT DUP2 SUB PUSH2 0x1922 JUMPI PUSH2 0x1921 PUSH2 0x18CB JUMP JUMPDEST JUMPDEST POP SWAP2 SWAP1 POP JUMP JUMPDEST PUSH0 PUSH1 0x40 DUP3 ADD SWAP1 POP PUSH2 0x193B PUSH0 DUP4 ADD DUP6 PUSH2 0x172E JUMP JUMPDEST PUSH2 0x1948 PUSH1 0x20 DUP4 ADD DUP5 PUSH2 0x16B6 JUMP JUMPDEST SWAP4 SWAP3 POP POP POP JUMP JUMPDEST PUSH0 DUP2 MLOAD SWAP1 POP PUSH2 0x195D DUP2 PUSH2 0x161B JUMP JUMPDEST SWAP3 SWAP2 POP POP JUMP JUMPDEST PUSH0 PUSH1 0x20 DUP3 DUP5 SUB SLT ISZERO PUSH2 0x1978 JUMPI PUSH2 0x1977 PUSH2 0x15B4 JUMP JUMPDEST JUMPDEST PUSH0 PUSH2 0x1985 DUP5 DUP3 DUP6 ADD PUSH2 0x194F JUMP JUMPDEST SWAP2 POP POP SWAP3 SWAP2 POP POP JUMP JUMPDEST PUSH0 PUSH1 0x60 DUP3 ADD SWAP1 POP PUSH2 0x19A1 PUSH0 DUP4 ADD DUP7 PUSH2 0x172E JUMP JUMPDEST PUSH2 0x19AE PUSH1 0x20 DUP4 ADD DUP6 PUSH2 0x16B6 JUMP JUMPDEST PUSH2 0x19BB PUSH1 0x40 DUP4 ADD DUP5 PUSH2 0x16B6 JUMP JUMPDEST SWAP5 SWAP4 POP POP POP POP JUMP JUMPDEST PUSH32 0x4E487B7100000000000000000000000000000000000000000000000000000000 PUSH0 MSTORE PUSH1 0x11 PUSH1 0x4 MSTORE PUSH1 0x24 PUSH0 REVERT JUMPDEST PUSH0 PUSH2 0x19FA DUP3 PUSH2 0x1612 JUMP JUMPDEST SWAP2 POP PUSH2 0x1A05 DUP4 PUSH2 0x1612 JUMP JUMPDEST SWAP3 POP DUP3 DUP3 ADD SWAP1 POP DUP1 DUP3 GT ISZERO PUSH2 0x1A1D JUMPI PUSH2 0x1A1C PUSH2 0x19C3 JUMP JUMPDEST JUMPDEST SWAP3 SWAP2 POP POP JUMP INVALID LOG2 PUSH5 0x6970667358 0x22 SLT KECCAK256 0xBC PUSH12 0x27389494921C4E9475DACEC9 DUP2 MSTORE JUMP DUP3 0x27 0x2B 0xF9 0xB7 0xC9 0xF6 STOP 0xC7 0xD2 SWAP16 DUP14 0xEA 0xDD 0x22 PUSH5 0x736F6C6343 STOP ADDMOD BYTE STOP CALLER PUSH1 0x80 PUSH1 0x40 MSTORE CALLVALUE DUP1 ISZERO PUSH2 0xF JUMPI PUSH0 DUP1 REVERT JUMPDEST POP PUSH1 0x40 MLOAD PUSH2 0x2D65 CODESIZE SUB DUP1 PUSH2 0x2D65 DUP4 CODECOPY DUP2 DUP2 ADD PUSH1 0x40 MSTORE DUP2 ADD SWAP1 PUSH2 0x31 SWAP2 SWAP1 PUSH2 0x5E8 JUMP JUMPDEST DUP8 DUP8 DUP8 DUP8 DUP8 DUP8 DUP8 DUP8 CALLER DUP9 DUP9 DUP2 PUSH1 0x3 SWAP1 DUP2 PUSH2 0x4B SWAP2 SWAP1 PUSH2 0x8D5 JUMP JUMPDEST POP DUP1 PUSH1 0x4 SWAP1 DUP2 PUSH2 0x5B SWAP2 SWAP1 PUSH2 0x8D5 JUMP JUMPDEST POP POP POP PUSH0 PUSH20 0xFFFFFFFFFFFFFFFFFFFFFFFFFFFFFFFFFFFFFFFF AND DUP2 PUSH20 0xFFFFFFFFFFFFFFFFFFFFFFFFFFFFFFFFFFFFFFFF AND SUB PUSH2 0xCE JUMPI PUSH0 PUSH1 0x40 MLOAD PUSH32 0x1E4FBDF700000000000000000000000000000000000000000000000000000000 DUP2 MSTORE PUSH1 0x4 ADD PUSH2 0xC5 SWAP2 SWAP1 PUSH2 0x9B3 JUMP JUMPDEST PUSH1 0x40 MLOAD DUP1 SWAP2 SUB SWAP1 REVERT JUMPDEST PUSH2 0xDD DUP2 PUSH2 0x316 PUSH1 0x20 SHL PUSH1 0x20 SHR JUMP JUMPDEST POP PUSH1 0x1 PUSH1 0x6 DUP2 SWAP1 SSTORE POP PUSH0 DUP3 SUB PUSH2 0x11F JUMPI PUSH1 0x40 MLOAD PUSH32 0x9A5818D800000000000000000000000000000000000000000000000000000000 DUP2 MSTORE PUSH1 0x4 ADD PUSH1 0x40 MLOAD DUP1 SWAP2 SUB SWAP1 REVERT JUMPDEST PUSH0 DUP4 SUB PUSH2 0x158 JUMPI PUSH1 0x40 MLOAD PUSH32 0x9A5818D800000000000000000000000000000000000000000000000000000000 DUP2 MSTORE PUSH1 0x4 ADD PUSH1 0x40 MLOAD DUP1 SWAP2 SUB SWAP1 REVERT JUMPDEST TIMESTAMP DUP5 LT ISZERO PUSH2 0x192 JUMPI PUSH1 0x40 MLOAD PUSH32 0xFB2A675200000000000000000000000000000000000000000000000000000000 DUP2 MSTORE PUSH1 0x4 ADD PUSH1 0x40 MLOAD DUP1 SWAP2 SUB SWAP1 REVERT JUMPDEST DUP4 PUSH1 0x9 DUP2 SWAP1 SSTORE POP DUP3 PUSH1 0xA DUP2 SWAP1 SSTORE POP DUP2 PUSH1 0xB DUP2 SWAP1 SSTORE POP DUP6 PUSH1 0x7 PUSH0 PUSH2 0x100 EXP DUP2 SLOAD DUP2 PUSH20 0xFFFFFFFFFFFFFFFFFFFFFFFFFFFFFFFFFFFFFFFF MUL NOT AND SWAP1 DUP4 PUSH20 0xFFFFFFFFFFFFFFFFFFFFFFFFFFFFFFFFFFFFFFFF AND MUL OR SWAP1 SSTORE POP DUP5 PUSH1 0x8 PUSH0 PUSH2 0x100 EXP DUP2 SLOAD DUP2 PUSH20 0xFFFFFFFFFFFFFFFFFFFFFFFFFFFFFFFFFFFFFFFF MUL NOT AND SWAP1 DUP4 PUSH20 0xFFFFFFFFFFFFFFFFFFFFFFFFFFFFFFFFFFFFFFFF AND MUL OR SWAP1 SSTORE POP DUP1 PUSH1 0xC PUSH0 PUSH2 0x100 EXP DUP2 SLOAD DUP2 PUSH1 0xFF MUL NOT AND SWAP1 DUP4 ISZERO ISZERO MUL OR SWAP1 SSTORE POP DUP6 PUSH1 0xC PUSH1 0x1 PUSH2 0x100 EXP DUP2 SLOAD DUP2 PUSH20 0xFFFFFFFFFFFFFFFFFFFFFFFFFFFFFFFFFFFFFFFF MUL NOT AND SWAP1 DUP4 PUSH20 0xFFFFFFFFFFFFFFFFFFFFFFFFFFFFFFFFFFFFFFFF AND MUL OR SWAP1 SSTORE POP DUP5 PUSH1 0xD PUSH0 PUSH2 0x100 EXP DUP2 SLOAD DUP2 PUSH20 0xFFFFFFFFFFFFFFFFFFFFFFFFFFFFFFFFFFFFFFFF MUL NOT AND SWAP1 DUP4 PUSH20 0xFFFFFFFFFFFFFFFFFFFFFFFFFFFFFFFFFFFFFFFF AND MUL OR SWAP1 SSTORE POP POP POP POP POP POP POP POP POP CALLER PUSH1 0xE PUSH0 PUSH2 0x100 EXP DUP2 SLOAD DUP2 PUSH20 0xFFFFFFFFFFFFFFFFFFFFFFFFFFFFFFFFFFFFFFFF MUL NOT AND SWAP1 DUP4 PUSH20 0xFFFFFFFFFFFFFFFFFFFFFFFFFFFFFFFFFFFFFFFF AND MUL OR SWAP1 SSTORE POP POP POP POP POP POP POP POP POP PUSH2 0x9CC JUMP JUMPDEST PUSH0 PUSH1 0x5 PUSH0 SWAP1 SLOAD SWAP1 PUSH2 0x100 EXP SWAP1 DIV PUSH20 0xFFFFFFFFFFFFFFFFFFFFFFFFFFFFFFFFFFFFFFFF AND SWAP1 POP DUP2 PUSH1 0x5 PUSH0 PUSH2 0x100 EXP DUP2 SLOAD DUP2 PUSH20 0xFFFFFFFFFFFFFFFFFFFFFFFFFFFFFFFFFFFFFFFF MUL NOT AND SWAP1 DUP4 PUSH20 0xFFFFFFFFFFFFFFFFFFFFFFFFFFFFFFFFFFFFFFFF AND MUL OR SWAP1 SSTORE POP DUP2 PUSH20 0xFFFFFFFFFFFFFFFFFFFFFFFFFFFFFFFFFFFFFFFF AND DUP2 PUSH20 0xFFFFFFFFFFFFFFFFFFFFFFFFFFFFFFFFFFFFFFFF AND PUSH32 0x8BE0079C531659141344CD1FD0A4F28419497F9722A3DAAFE3B4186F6B6457E0 PUSH1 0x40 MLOAD PUSH1 0x40 MLOAD DUP1 SWAP2 SUB SWAP1 LOG3 POP POP JUMP JUMPDEST PUSH0 PUSH1 0x40 MLOAD SWAP1 POP SWAP1 JUMP JUMPDEST PUSH0 DUP1 REVERT JUMPDEST PUSH0 DUP1 REVERT JUMPDEST PUSH0 DUP1 REVERT JUMPDEST PUSH0 DUP1 REVERT JUMPDEST PUSH0 PUSH1 0x1F NOT PUSH1 0x1F DUP4 ADD AND SWAP1 POP SWAP2 SWAP1 POP JUMP JUMPDEST PUSH32 0x4E487B7100000000000000000000000000000000000000000000000000000000 PUSH0 MSTORE PUSH1 0x41 PUSH1 0x4 MSTORE PUSH1 0x24 PUSH0 REVERT JUMPDEST PUSH2 0x438 DUP3 PUSH2 0x3F2 JUMP JUMPDEST DUP2 ADD DUP2 DUP2 LT PUSH8 0xFFFFFFFFFFFFFFFF DUP3 GT OR ISZERO PUSH2 0x457 JUMPI PUSH2 0x456 PUSH2 0x402 JUMP JUMPDEST JUMPDEST DUP1 PUSH1 0x40 MSTORE POP POP POP JUMP JUMPDEST PUSH0 PUSH2 0x469 PUSH2 0x3D9 JUMP JUMPDEST SWAP1 POP PUSH2 0x475 DUP3 DUP3 PUSH2 0x42F JUMP JUMPDEST SWAP2 SWAP1 POP JUMP JUMPDEST PUSH0 PUSH8 0xFFFFFFFFFFFFFFFF DUP3 GT ISZERO PUSH2 0x494 JUMPI PUSH2 0x493 PUSH2 0x402 JUMP JUMPDEST JUMPDEST PUSH2 0x49D DUP3 PUSH2 0x3F2 JUMP JUMPDEST SWAP1 POP PUSH1 0x20 DUP2 ADD SWAP1 POP SWAP2 SWAP1 POP JUMP JUMPDEST DUP3 DUP2 DUP4 MCOPY PUSH0 DUP4 DUP4 ADD MSTORE POP POP POP JUMP JUMPDEST PUSH0 PUSH2 0x4CA PUSH2 0x4C5 DUP5 PUSH2 0x47A JUMP JUMPDEST PUSH2 0x460 JUMP JUMPDEST SWAP1 POP DUP3 DUP2 MSTORE PUSH1 0x20 DUP2 ADD DUP5 DUP5 DUP5 ADD GT ISZERO PUSH2 0x4E6 JUMPI PUSH2 0x4E5 PUSH2 0x3EE JUMP JUMPDEST JUMPDEST PUSH2 0x4F1 DUP5 DUP3 DUP6 PUSH2 0x4AA JUMP JUMPDEST POP SWAP4 SWAP3 POP POP POP JUMP JUMPDEST PUSH0 DUP3 PUSH1 0x1F DUP4 ADD SLT PUSH2 0x50D JUMPI PUSH2 0x50C PUSH2 0x3EA JUMP JUMPDEST JUMPDEST DUP2 MLOAD PUSH2 0x51D DUP5 DUP3 PUSH1 0x20 DUP7 ADD PUSH2 0x4B8 JUMP JUMPDEST SWAP2 POP POP SWAP3 SWAP2 POP POP JUMP JUMPDEST PUSH0 PUSH20 0xFFFFFFFFFFFFFFFFFFFFFFFFFFFFFFFFFFFFFFFF DUP3 AND SWAP1 POP SWAP2 SWAP1 POP JUMP JUMPDEST PUSH0 PUSH2 0x54F DUP3 PUSH2 0x526 JUMP JUMPDEST SWAP1 POP SWAP2 SWAP1 POP JUMP JUMPDEST PUSH2 0x55F DUP2 PUSH2 0x545 JUMP JUMPDEST DUP2 EQ PUSH2 0x569 JUMPI PUSH0 DUP1 REVERT JUMPDEST POP JUMP JUMPDEST PUSH0 DUP2 MLOAD SWAP1 POP PUSH2 0x57A DUP2 PUSH2 0x556 JUMP JUMPDEST SWAP3 SWAP2 POP POP JUMP JUMPDEST PUSH0 DUP2 SWAP1 POP SWAP2 SWAP1 POP JUMP JUMPDEST PUSH2 0x592 DUP2 PUSH2 0x580 JUMP JUMPDEST DUP2 EQ PUSH2 0x59C JUMPI PUSH0 DUP1 REVERT JUMPDEST POP JUMP JUMPDEST PUSH0 DUP2 MLOAD SWAP1 POP PUSH2 0x5AD DUP2 PUSH2 0x589 JUMP JUMPDEST SWAP3 SWAP2 POP POP JUMP JUMPDEST PUSH0 DUP2 ISZERO ISZERO SWAP1 POP SWAP2 SWAP1 POP JUMP JUMPDEST PUSH2 0x5C7 DUP2 PUSH2 0x5B3 JUMP JUMPDEST DUP2 EQ PUSH2 0x5D1 JUMPI PUSH0 DUP1 REVERT JUMPDEST POP JUMP JUMPDEST PUSH0 DUP2 MLOAD SWAP1 POP PUSH2 0x5E2 DUP2 PUSH2 0x5BE JUMP JUMPDEST SWAP3 SWAP2 POP POP JUMP JUMPDEST PUSH0 DUP1 PUSH0 DUP1 PUSH0 DUP1 PUSH0 DUP1 PUSH2 0x100 DUP10 DUP12 SUB SLT ISZERO PUSH2 0x605 JUMPI PUSH2 0x604 PUSH2 0x3E2 JUMP JUMPDEST JUMPDEST PUSH0 DUP10 ADD MLOAD PUSH8 0xFFFFFFFFFFFFFFFF DUP2 GT ISZERO PUSH2 0x622 JUMPI PUSH2 0x621 PUSH2 0x3E6 JUMP JUMPDEST JUMPDEST PUSH2 0x62E DUP12 DUP3 DUP13 ADD PUSH2 0x4F9 JUMP JUMPDEST SWAP9 POP POP PUSH1 0x20 DUP10 ADD MLOAD PUSH8 0xFFFFFFFFFFFFFFFF DUP2 GT ISZERO PUSH2 0x64F JUMPI PUSH2 0x64E PUSH2 0x3E6 JUMP JUMPDEST JUMPDEST PUSH2 0x65B DUP12 DUP3 DUP13 ADD PUSH2 0x4F9 JUMP JUMPDEST SWAP8 POP POP PUSH1 0x40 PUSH2 0x66C DUP12 DUP3 DUP13 ADD PUSH2 0x56C JUMP JUMPDEST SWAP7 POP POP PUSH1 0x60 PUSH2 0x67D DUP12 DUP3 DUP13 ADD PUSH2 0x56C JUMP JUMPDEST SWAP6 POP POP PUSH1 0x80 PUSH2 0x68E DUP12 DUP3 DUP13 ADD PUSH2 0x59F JUMP JUMPDEST SWAP5 POP POP PUSH1 0xA0 PUSH2 0x69F DUP12 DUP3 DUP13 ADD PUSH2 0x59F JUMP JUMPDEST SWAP4 POP POP PUSH1 0xC0 PUSH2 0x6B0 DUP12 DUP3 DUP13 ADD PUSH2 0x59F JUMP JUMPDEST SWAP3 POP POP PUSH1 0xE0 PUSH2 0x6C1 DUP12 DUP3 DUP13 ADD PUSH2 0x5D4 JUMP JUMPDEST SWAP2 POP POP SWAP3 SWAP6 SWAP9 POP SWAP3 SWAP6 SWAP9 SWAP1 SWAP4 SWAP7 POP JUMP JUMPDEST PUSH0 DUP2 MLOAD SWAP1 POP SWAP2 SWAP1 POP JUMP JUMPDEST PUSH32 0x4E487B7100000000000000000000000000000000000000000000000000000000 PUSH0 MSTORE PUSH1 0x22 PUSH1 0x4 MSTORE PUSH1 0x24 PUSH0 REVERT JUMPDEST PUSH0 PUSH1 0x2 DUP3 DIV SWAP1 POP PUSH1 0x1 DUP3 AND DUP1 PUSH2 0x71F JUMPI PUSH1 0x7F DUP3 AND SWAP2 POP JUMPDEST PUSH1 0x20 DUP3 LT DUP2 SUB PUSH2 0x732 JUMPI PUSH2 0x731 PUSH2 0x6DB JUMP JUMPDEST JUMPDEST POP SWAP2 SWAP1 POP JUMP JUMPDEST PUSH0 DUP2 SWAP1 POP DUP2 PUSH0 MSTORE PUSH1 0x20 PUSH0 KECCAK256 SWAP1 POP SWAP2 SWAP1 POP JUMP JUMPDEST PUSH0 PUSH1 0x20 PUSH1 0x1F DUP4 ADD DIV SWAP1 POP SWAP2 SWAP1 POP JUMP JUMPDEST PUSH0 DUP3 DUP3 SHL SWAP1 POP SWAP3 SWAP2 POP POP JUMP JUMPDEST PUSH0 PUSH1 0x8 DUP4 MUL PUSH2 0x794 PUSH32 0xFFFFFFFFFFFFFFFFFFFFFFFFFFFFFFFFFFFFFFFFFFFFFFFFFFFFFFFFFFFFFFFF DUP3 PUSH2 0x759 JUMP JUMPDEST PUSH2 0x79E DUP7 DUP4 PUSH2 0x759 JUMP JUMPDEST SWAP6 POP DUP1 NOT DUP5 AND SWAP4 POP DUP1 DUP7 AND DUP5 OR SWAP3 POP POP POP SWAP4 SWAP3 POP POP POP JUMP JUMPDEST PUSH0 DUP2 SWAP1 POP SWAP2 SWAP1 POP JUMP JUMPDEST PUSH0 PUSH2 0x7D9 PUSH2 0x7D4 PUSH2 0x7CF DUP5 PUSH2 0x580 JUMP JUMPDEST PUSH2 0x7B6 JUMP JUMPDEST PUSH2 0x580 JUMP JUMPDEST SWAP1 POP SWAP2 SWAP1 POP JUMP JUMPDEST PUSH0 DUP2 SWAP1 POP SWAP2 SWAP1 POP JUMP JUMPDEST PUSH2 0x7F2 DUP4 PUSH2 0x7BF JUMP JUMPDEST PUSH2 0x806 PUSH2 0x7FE DUP3 PUSH2 0x7E0 JUMP JUMPDEST DUP5 DUP5 SLOAD PUSH2 0x765 JUMP JUMPDEST DUP3 SSTORE POP POP POP POP JUMP JUMPDEST PUSH0 SWAP1 JUMP JUMPDEST PUSH2 0x81A PUSH2 0x80E JUMP JUMPDEST PUSH2 0x825 DUP2 DUP5 DUP5 PUSH2 0x7E9 JUMP JUMPDEST POP POP POP JUMP JUMPDEST JUMPDEST DUP2 DUP2 LT ISZERO PUSH2 0x848 JUMPI PUSH2 0x83D PUSH0 DUP3 PUSH2 0x812 JUMP JUMPDEST PUSH1 0x1 DUP2 ADD SWAP1 POP PUSH2 0x82B JUMP JUMPDEST POP POP JUMP JUMPDEST PUSH1 0x1F DUP3 GT ISZERO PUSH2 0x88D JUMPI PUSH2 0x85E DUP2 PUSH2 0x738 JUMP JUMPDEST PUSH2 0x867 DUP5 PUSH2 0x74A JUMP JUMPDEST DUP2 ADD PUSH1 0x20 DUP6 LT ISZERO PUSH2 0x876 JUMPI DUP2 SWAP1 POP JUMPDEST PUSH2 0x88A PUSH2 0x882 DUP6 PUSH2 0x74A JUMP JUMPDEST DUP4 ADD DUP3 PUSH2 0x82A JUMP JUMPDEST POP POP JUMPDEST POP POP POP JUMP JUMPDEST PUSH0 DUP3 DUP3 SHR SWAP1 POP SWAP3 SWAP2 POP POP JUMP JUMPDEST PUSH0 PUSH2 0x8AD PUSH0 NOT DUP5 PUSH1 0x8 MUL PUSH2 0x892 JUMP JUMPDEST NOT DUP1 DUP4 AND SWAP2 POP POP SWAP3 SWAP2 POP POP JUMP JUMPDEST PUSH0 PUSH2 0x8C5 DUP4 DUP4 PUSH2 0x89E JUMP JUMPDEST SWAP2 POP DUP3 PUSH1 0x2 MUL DUP3 OR SWAP1 POP SWAP3 SWAP2 POP POP JUMP JUMPDEST PUSH2 0x8DE DUP3 PUSH2 0x6D1 JUMP JUMPDEST PUSH8 0xFFFFFFFFFFFFFFFF DUP2 GT ISZERO PUSH2 0x8F7 JUMPI PUSH2 0x8F6 PUSH2 0x402 JUMP JUMPDEST JUMPDEST PUSH2 0x901 DUP3 SLOAD PUSH2 0x708 JUMP JUMPDEST PUSH2 0x90C DUP3 DUP3 DUP6 PUSH2 0x84C JUMP JUMPDEST PUSH0 PUSH1 0x20 SWAP1 POP PUSH1 0x1F DUP4 GT PUSH1 0x1 DUP2 EQ PUSH2 0x93D JUMPI PUSH0 DUP5 ISZERO PUSH2 0x92B JUMPI DUP3 DUP8 ADD MLOAD SWAP1 POP JUMPDEST PUSH2 0x935 DUP6 DUP3 PUSH2 0x8BA JUMP JUMPDEST DUP7 SSTORE POP PUSH2 0x99C JUMP JUMPDEST PUSH1 0x1F NOT DUP5 AND PUSH2 0x94B DUP7 PUSH2 0x738 JUMP JUMPDEST PUSH0 JUMPDEST DUP3 DUP2 LT ISZERO PUSH2 0x972 JUMPI DUP5 DUP10 ADD MLOAD DUP3 SSTORE PUSH1 0x1 DUP3 ADD SWAP2 POP PUSH1 0x20 DUP6 ADD SWAP5 POP PUSH1 0x20 DUP2 ADD SWAP1 POP PUSH2 0x94D JUMP JUMPDEST DUP7 DUP4 LT ISZERO PUSH2 0x98F JUMPI DUP5 DUP10 ADD MLOAD PUSH2 0x98B PUSH1 0x1F DUP10 AND DUP3 PUSH2 0x89E JUMP JUMPDEST DUP4 SSTORE POP JUMPDEST PUSH1 0x1 PUSH1 0x2 DUP9 MUL ADD DUP9 SSTORE POP POP POP JUMPDEST POP POP POP POP POP POP JUMP JUMPDEST PUSH2 0x9AD DUP2 PUSH2 0x545 JUMP JUMPDEST DUP3 MSTORE POP POP JUMP JUMPDEST PUSH0 PUSH1 0x20 DUP3 ADD SWAP1 POP PUSH2 0x9C6 PUSH0 DUP4 ADD DUP5 PUSH2 0x9A4 JUMP JUMPDEST SWAP3 SWAP2 POP POP JUMP JUMPDEST PUSH2 0x238C DUP1 PUSH2 0x9D9 PUSH0 CODECOPY PUSH0 RETURN INVALID PUSH1 0x80 PUSH1 0x40 MSTORE CALLVALUE DUP1 ISZERO PUSH2 0xF JUMPI PUSH0 DUP1 REVERT JUMPDEST POP PUSH1 0x4 CALLDATASIZE LT PUSH2 0x18C JUMPI PUSH0 CALLDATALOAD PUSH1 0xE0 SHR DUP1 PUSH4 0x8DA5CB5B GT PUSH2 0xDC JUMPI DUP1 PUSH4 0xCFB4FC71 GT PUSH2 0x95 JUMPI DUP1 PUSH4 0xDD62ED3E GT PUSH2 0x6F JUMPI DUP1 PUSH4 0xDD62ED3E EQ PUSH2 0x450 JUMPI DUP1 PUSH4 0xE0CA59BB EQ PUSH2 0x480 JUMPI DUP1 PUSH4 0xF2FDE38B EQ PUSH2 0x49C JUMPI DUP1 PUSH4 0xF3C274A6 EQ PUSH2 0x4B8 JUMPI PUSH2 0x18C JUMP JUMPDEST DUP1 PUSH4 0xCFB4FC71 EQ PUSH2 0x3F8 JUMPI DUP1 PUSH4 0xD8DFEB45 EQ PUSH2 0x416 JUMPI DUP1 PUSH4 0xDD068EC1 EQ PUSH2 0x434 JUMPI PUSH2 0x18C JUMP JUMPDEST DUP1 PUSH4 0x8DA5CB5B EQ PUSH2 0x332 JUMPI DUP1 PUSH4 0x8F620487 EQ PUSH2 0x350 JUMPI DUP1 PUSH4 0x95D89B41 EQ PUSH2 0x36E JUMPI DUP1 PUSH4 0x9ACEA70D EQ PUSH2 0x38C JUMPI DUP1 PUSH4 0xA9059CBB EQ PUSH2 0x3AA JUMPI DUP1 PUSH4 0xB8A11E82 EQ PUSH2 0x3DA JUMPI PUSH2 0x18C JUMP JUMPDEST DUP1 PUSH4 0x40C10F19 GT PUSH2 0x149 JUMPI DUP1 PUSH4 0x6F713C9C GT PUSH2 0x123 JUMPI DUP1 PUSH4 0x6F713C9C EQ PUSH2 0x2BE JUMPI DUP1 PUSH4 0x70A08231 EQ PUSH2 0x2DC JUMPI DUP1 PUSH4 0x715018A6 EQ PUSH2 0x30C JUMPI DUP1 PUSH4 0x7955EAA1 EQ PUSH2 0x316 JUMPI PUSH2 0x18C JUMP JUMPDEST DUP1 PUSH4 0x40C10F19 EQ PUSH2 0x266 JUMPI DUP1 PUSH4 0x48D399E7 EQ PUSH2 0x282 JUMPI DUP1 PUSH4 0x551DC014 EQ PUSH2 0x2A0 JUMPI PUSH2 0x18C JUMP JUMPDEST DUP1 PUSH4 0x6FDDE03 EQ PUSH2 0x190 JUMPI DUP1 PUSH4 0x95EA7B3 EQ PUSH2 0x1AE JUMPI DUP1 PUSH4 0x18160DDD EQ PUSH2 0x1DE JUMPI DUP1 PUSH4 0x1E9A6950 EQ PUSH2 0x1FC JUMPI DUP1 PUSH4 0x23B872DD EQ PUSH2 0x218 JUMPI DUP1 PUSH4 0x313CE567 EQ PUSH2 0x248 JUMPI JUMPDEST PUSH0 DUP1 REVERT JUMPDEST PUSH2 0x198 PUSH2 0x4D6 JUMP JUMPDEST PUSH1 0x40 MLOAD PUSH2 0x1A5 SWAP2 SWAP1 PUSH2 0x1DD0 JUMP JUMPDEST PUSH1 0x40 MLOAD DUP1 SWAP2 SUB SWAP1 RETURN JUMPDEST PUSH2 0x1C8 PUSH1 0x4 DUP1 CALLDATASIZE SUB DUP2 ADD SWAP1 PUSH2 0x1C3 SWAP2 SWAP1 PUSH2 0x1E81 JUMP JUMPDEST PUSH2 0x566 JUMP JUMPDEST PUSH1 0x40 MLOAD PUSH2 0x1D5 SWAP2 SWAP1 PUSH2 0x1ED9 JUMP JUMPDEST PUSH1 0x40 MLOAD DUP1 SWAP2 SUB SWAP1 RETURN JUMPDEST PUSH2 0x1E6 PUSH2 0x588 JUMP JUMPDEST PUSH1 0x40 MLOAD PUSH2 0x1F3 SWAP2 SWAP1 PUSH2 0x1F01 JUMP JUMPDEST PUSH1 0x40 MLOAD DUP1 SWAP2 SUB SWAP1 RETURN JUMPDEST PUSH2 0x216 PUSH1 0x4 DUP1 CALLDATASIZE SUB DUP2 ADD SWAP1 PUSH2 0x211 SWAP2 SWAP1 PUSH2 0x1E81 JUMP JUMPDEST PUSH2 0x591 JUMP JUMPDEST STOP JUMPDEST PUSH2 0x232 PUSH1 0x4 DUP1 CALLDATASIZE SUB DUP2 ADD SWAP1 PUSH2 0x22D SWAP2 SWAP1 PUSH2 0x1F1A JUMP JUMPDEST PUSH2 0x621 JUMP JUMPDEST PUSH1 0x40 MLOAD PUSH2 0x23F SWAP2 SWAP1 PUSH2 0x1ED9 JUMP JUMPDEST PUSH1 0x40 MLOAD DUP1 SWAP2 SUB SWAP1 RETURN JUMPDEST PUSH2 0x250 PUSH2 0x64F JUMP JUMPDEST PUSH1 0x40 MLOAD PUSH2 0x25D SWAP2 SWAP1 PUSH2 0x1F85 JUMP JUMPDEST PUSH1 0x40 MLOAD DUP1 SWAP2 SUB SWAP1 RETURN JUMPDEST PUSH2 0x280 PUSH1 0x4 DUP1 CALLDATASIZE SUB DUP2 ADD SWAP1 PUSH2 0x27B SWAP2 SWAP1 PUSH2 0x1E81 JUMP JUMPDEST PUSH2 0x657 JUMP JUMPDEST STOP JUMPDEST PUSH2 0x28A PUSH2 0x781 JUMP JUMPDEST PUSH1 0x40 MLOAD PUSH2 0x297 SWAP2 SWAP1 PUSH2 0x1FAD JUMP JUMPDEST PUSH1 0x40 MLOAD DUP1 SWAP2 SUB SWAP1 RETURN JUMPDEST PUSH2 0x2A8 PUSH2 0x7A6 JUMP JUMPDEST PUSH1 0x40 MLOAD PUSH2 0x2B5 SWAP2 SWAP1 PUSH2 0x1FAD JUMP JUMPDEST PUSH1 0x40 MLOAD DUP1 SWAP2 SUB SWAP1 RETURN JUMPDEST PUSH2 0x2C6 PUSH2 0x7CB JUMP JUMPDEST PUSH1 0x40 MLOAD PUSH2 0x2D3 SWAP2 SWAP1 PUSH2 0x2021 JUMP JUMPDEST PUSH1 0x40 MLOAD DUP1 SWAP2 SUB SWAP1 RETURN JUMPDEST PUSH2 0x2F6 PUSH1 0x4 DUP1 CALLDATASIZE SUB DUP2 ADD SWAP1 PUSH2 0x2F1 SWAP2 SWAP1 PUSH2 0x203A JUMP JUMPDEST PUSH2 0x7F0 JUMP JUMPDEST PUSH1 0x40 MLOAD PUSH2 0x303 SWAP2 SWAP1 PUSH2 0x1F01 JUMP JUMPDEST PUSH1 0x40 MLOAD DUP1 SWAP2 SUB SWAP1 RETURN JUMPDEST PUSH2 0x314 PUSH2 0x835 JUMP JUMPDEST STOP JUMPDEST PUSH2 0x330 PUSH1 0x4 DUP1 CALLDATASIZE SUB DUP2 ADD SWAP1 PUSH2 0x32B SWAP2 SWAP1 PUSH2 0x1E81 JUMP JUMPDEST PUSH2 0x848 JUMP JUMPDEST STOP JUMPDEST PUSH2 0x33A PUSH2 0x8D8 JUMP JUMPDEST PUSH1 0x40 MLOAD PUSH2 0x347 SWAP2 SWAP1 PUSH2 0x1FAD JUMP JUMPDEST PUSH1 0x40 MLOAD DUP1 SWAP2 SUB SWAP1 RETURN JUMPDEST PUSH2 0x358 PUSH2 0x900 JUMP JUMPDEST PUSH1 0x40 MLOAD PUSH2 0x365 SWAP2 SWAP1 PUSH2 0x1F01 JUMP JUMPDEST PUSH1 0x40 MLOAD DUP1 SWAP2 SUB SWAP1 RETURN JUMPDEST PUSH2 0x376 PUSH2 0x906 JUMP JUMPDEST PUSH1 0x40 MLOAD PUSH2 0x383 SWAP2 SWAP1 PUSH2 0x1DD0 JUMP JUMPDEST PUSH1 0x40 MLOAD DUP1 SWAP2 SUB SWAP1 RETURN JUMPDEST PUSH2 0x394 PUSH2 0x996 JUMP JUMPDEST PUSH1 0x40 MLOAD PUSH2 0x3A1 SWAP2 SWAP1 PUSH2 0x1FAD JUMP JUMPDEST PUSH1 0x40 MLOAD DUP1 SWAP2 SUB SWAP1 RETURN JUMPDEST PUSH2 0x3C4 PUSH1 0x4 DUP1 CALLDATASIZE SUB DUP2 ADD SWAP1 PUSH2 0x3BF SWAP2 SWAP1 PUSH2 0x1E81 JUMP JUMPDEST PUSH2 0x9BB JUMP JUMPDEST PUSH1 0x40 MLOAD PUSH2 0x3D1 SWAP2 SWAP1 PUSH2 0x1ED9 JUMP JUMPDEST PUSH1 0x40 MLOAD DUP1 SWAP2 SUB SWAP1 RETURN JUMPDEST PUSH2 0x3E2 PUSH2 0x9DD JUMP JUMPDEST PUSH1 0x40 MLOAD PUSH2 0x3EF SWAP2 SWAP1 PUSH2 0x1F01 JUMP JUMPDEST PUSH1 0x40 MLOAD DUP1 SWAP2 SUB SWAP1 RETURN JUMPDEST PUSH2 0x400 PUSH2 0x9E3 JUMP JUMPDEST PUSH1 0x40 MLOAD PUSH2 0x40D SWAP2 SWAP1 PUSH2 0x1F01 JUMP JUMPDEST PUSH1 0x40 MLOAD DUP1 SWAP2 SUB SWAP1 RETURN JUMPDEST PUSH2 0x41E PUSH2 0x9E9 JUMP JUMPDEST PUSH1 0x40 MLOAD PUSH2 0x42B SWAP2 SWAP1 PUSH2 0x2021 JUMP JUMPDEST PUSH1 0x40 MLOAD DUP1 SWAP2 SUB SWAP1 RETURN JUMPDEST PUSH2 0x44E PUSH1 0x4 DUP1 CALLDATASIZE SUB DUP2 ADD SWAP1 PUSH2 0x449 SWAP2 SWAP1 PUSH2 0x1E81 JUMP JUMPDEST PUSH2 0xA0F JUMP JUMPDEST STOP JUMPDEST PUSH2 0x46A PUSH1 0x4 DUP1 CALLDATASIZE SUB DUP2 ADD SWAP1 PUSH2 0x465 SWAP2 SWAP1 PUSH2 0x2065 JUMP JUMPDEST PUSH2 0xA60 JUMP JUMPDEST PUSH1 0x40 MLOAD PUSH2 0x477 SWAP2 SWAP1 PUSH2 0x1F01 JUMP JUMPDEST PUSH1 0x40 MLOAD DUP1 SWAP2 SUB SWAP1 RETURN JUMPDEST PUSH2 0x49A PUSH1 0x4 DUP1 CALLDATASIZE SUB DUP2 ADD SWAP1 PUSH2 0x495 SWAP2 SWAP1 PUSH2 0x1E81 JUMP JUMPDEST PUSH2 0xAE2 JUMP JUMPDEST STOP JUMPDEST PUSH2 0x4B6 PUSH1 0x4 DUP1 CALLDATASIZE SUB DUP2 ADD SWAP1 PUSH2 0x4B1 SWAP2 SWAP1 PUSH2 0x203A JUMP JUMPDEST PUSH2 0xB79 JUMP JUMPDEST STOP JUMPDEST PUSH2 0x4C0 PUSH2 0xBFD JUMP JUMPDEST PUSH1 0x40 MLOAD PUSH2 0x4CD SWAP2 SWAP1 PUSH2 0x1ED9 JUMP JUMPDEST PUSH1 0x40 MLOAD DUP1 SWAP2 SUB SWAP1 RETURN JUMPDEST PUSH1 0x60 PUSH1 0x3 DUP1 SLOAD PUSH2 0x4E5 SWAP1 PUSH2 0x20D0 JUMP JUMPDEST DUP1 PUSH1 0x1F ADD PUSH1 0x20 DUP1 SWAP2 DIV MUL PUSH1 0x20 ADD PUSH1 0x40 MLOAD SWAP1 DUP2 ADD PUSH1 0x40 MSTORE DUP1 SWAP3 SWAP2 SWAP1 DUP2 DUP2 MSTORE PUSH1 0x20 ADD DUP3 DUP1 SLOAD PUSH2 0x511 SWAP1 PUSH2 0x20D0 JUMP JUMPDEST DUP1 ISZERO PUSH2 0x55C JUMPI DUP1 PUSH1 0x1F LT PUSH2 0x533 JUMPI PUSH2 0x100 DUP1 DUP4 SLOAD DIV MUL DUP4 MSTORE SWAP2 PUSH1 0x20 ADD SWAP2 PUSH2 0x55C JUMP JUMPDEST DUP3 ADD SWAP2 SWAP1 PUSH0 MSTORE PUSH1 0x20 PUSH0 KECCAK256 SWAP1 JUMPDEST DUP2 SLOAD DUP2 MSTORE SWAP1 PUSH1 0x1 ADD SWAP1 PUSH1 0x20 ADD DUP1 DUP4 GT PUSH2 0x53F JUMPI DUP3 SWAP1 SUB PUSH1 0x1F AND DUP3 ADD SWAP2 JUMPDEST POP POP POP POP POP SWAP1 POP SWAP1 JUMP JUMPDEST PUSH0 DUP1 PUSH2 0x570 PUSH2 0xC0F JUMP JUMPDEST SWAP1 POP PUSH2 0x57D DUP2 DUP6 DUP6 PUSH2 0xC16 JUMP JUMPDEST PUSH1 0x1 SWAP2 POP POP SWAP3 SWAP2 POP POP JUMP JUMPDEST PUSH0 PUSH1 0x2 SLOAD SWAP1 POP SWAP1 JUMP JUMPDEST PUSH1 0x9 SLOAD TIMESTAMP LT ISZERO PUSH2 0x5CD JUMPI PUSH1 0x40 MLOAD PUSH32 0x43E14AA600000000000000000000000000000000000000000000000000000000 DUP2 MSTORE PUSH1 0x4 ADD PUSH1 0x40 MLOAD DUP1 SWAP2 SUB SWAP1 REVERT JUMPDEST DUP2 DUP2 DUP1 PUSH2 0x5D9 DUP4 PUSH2 0x7F0 JUMP JUMPDEST LT ISZERO PUSH2 0x611 JUMPI PUSH1 0x40 MLOAD PUSH32 0xF4D678B800000000000000000000000000000000000000000000000000000000 DUP2 MSTORE PUSH1 0x4 ADD PUSH1 0x40 MLOAD DUP1 SWAP2 SUB SWAP1 REVERT JUMPDEST PUSH2 0x61B DUP5 DUP5 PUSH2 0xC28 JUMP JUMPDEST POP POP POP POP JUMP JUMPDEST PUSH0 DUP1 PUSH2 0x62B PUSH2 0xC0F JUMP JUMPDEST SWAP1 POP PUSH2 0x638 DUP6 DUP3 DUP6 PUSH2 0xFCE JUMP JUMPDEST PUSH2 0x643 DUP6 DUP6 DUP6 PUSH2 0x1060 JUMP JUMPDEST PUSH1 0x1 SWAP2 POP POP SWAP4 SWAP3 POP POP POP JUMP JUMPDEST PUSH0 PUSH1 0x12 SWAP1 POP SWAP1 JUMP JUMPDEST PUSH2 0x65F PUSH2 0x1150 JUMP JUMPDEST DUP2 DUP2 DUP1 PUSH1 0xC PUSH1 0x1 SWAP1 SLOAD SWAP1 PUSH2 0x100 EXP SWAP1 DIV PUSH20 0xFFFFFFFFFFFFFFFFFFFFFFFFFFFFFFFFFFFFFFFF AND PUSH20 0xFFFFFFFFFFFFFFFFFFFFFFFFFFFFFFFFFFFFFFFF AND PUSH4 0x70A08231 DUP5 PUSH1 0x40 MLOAD DUP3 PUSH4 0xFFFFFFFF AND PUSH1 0xE0 SHL DUP2 MSTORE PUSH1 0x4 ADD PUSH2 0x6BD SWAP2 SWAP1 PUSH2 0x1FAD JUMP JUMPDEST PUSH1 0x20 PUSH1 0x40 MLOAD DUP1 DUP4 SUB DUP2 DUP7 GAS STATICCALL ISZERO DUP1 ISZERO PUSH2 0x6D8 JUMPI RETURNDATASIZE PUSH0 DUP1 RETURNDATACOPY RETURNDATASIZE PUSH0 REVERT JUMPDEST POP POP POP POP PUSH1 0x40 MLOAD RETURNDATASIZE PUSH1 0x1F NOT PUSH1 0x1F DUP3 ADD AND DUP3 ADD DUP1 PUSH1 0x40 MSTORE POP DUP2 ADD SWAP1 PUSH2 0x6FC SWAP2 SWAP1 PUSH2 0x2114 JUMP JUMPDEST LT ISZERO PUSH2 0x734 JUMPI PUSH1 0x40 MLOAD PUSH32 0xF4D678B800000000000000000000000000000000000000000000000000000000 DUP2 MSTORE PUSH1 0x4 ADD PUSH1 0x40 MLOAD DUP1 SWAP2 SUB SWAP1 REVERT JUMPDEST DUP3 PUSH1 0x1 DUP2 LT ISZERO PUSH2 0x770 JUMPI PUSH1 0x40 MLOAD PUSH32 0x2C5211C600000000000000000000000000000000000000000000000000000000 DUP2 MSTORE PUSH1 0x4 ADD PUSH1 0x40 MLOAD DUP1 SWAP2 SUB SWAP1 REVERT JUMPDEST PUSH2 0x77A DUP6 DUP6 PUSH2 0x11D7 JUMP JUMPDEST POP POP POP POP POP JUMP JUMPDEST PUSH1 0x7 PUSH0 SWAP1 SLOAD SWAP1 PUSH2 0x100 EXP SWAP1 DIV PUSH20 0xFFFFFFFFFFFFFFFFFFFFFFFFFFFFFFFFFFFFFFFF AND DUP2 JUMP JUMPDEST PUSH1 0xE PUSH0 SWAP1 SLOAD SWAP1 PUSH2 0x100 EXP SWAP1 DIV PUSH20 0xFFFFFFFFFFFFFFFFFFFFFFFFFFFFFFFFFFFFFFFF AND DUP2 JUMP JUMPDEST PUSH1 0xD PUSH0 SWAP1 SLOAD SWAP1 PUSH2 0x100 EXP SWAP1 DIV PUSH20 0xFFFFFFFFFFFFFFFFFFFFFFFFFFFFFFFFFFFFFFFF AND DUP2 JUMP JUMPDEST PUSH0 DUP1 PUSH0 DUP4 PUSH20 0xFFFFFFFFFFFFFFFFFFFFFFFFFFFFFFFFFFFFFFFF AND PUSH20 0xFFFFFFFFFFFFFFFFFFFFFFFFFFFFFFFFFFFFFFFF AND DUP2 MSTORE PUSH1 0x20 ADD SWAP1 DUP2 MSTORE PUSH1 0x20 ADD PUSH0 KECCAK256 SLOAD SWAP1 POP SWAP2 SWAP1 POP JUMP JUMPDEST PUSH2 0x83D PUSH2 0x1150 JUMP JUMPDEST PUSH2 0x846 PUSH0 PUSH2 0x13A9 JUMP JUMPDEST JUMP JUMPDEST DUP2 DUP2 DUP1 PUSH2 0x854 DUP4 PUSH2 0x7F0 JUMP JUMPDEST LT ISZERO PUSH2 0x88C JUMPI PUSH1 0x40 MLOAD PUSH32 0xF4D678B800000000000000000000000000000000000000000000000000000000 DUP2 MSTORE PUSH1 0x4 ADD PUSH1 0x40 MLOAD DUP1 SWAP2 SUB SWAP1 REVERT JUMPDEST PUSH1 0x9 SLOAD TIMESTAMP LT ISZERO PUSH2 0x8C8 JUMPI PUSH1 0x40 MLOAD PUSH32 0x43E14AA600000000000000000000000000000000000000000000000000000000 DUP2 MSTORE PUSH1 0x4 ADD PUSH1 0x40 MLOAD DUP1 SWAP2 SUB SWAP1 REVERT JUMPDEST PUSH2 0x8D2 DUP5 DUP5 PUSH2 0x146C JUMP JUMPDEST POP POP POP POP JUMP JUMPDEST PUSH0 PUSH1 0x5 PUSH0 SWAP1 SLOAD SWAP1 PUSH2 0x100 EXP SWAP1 DIV PUSH20 0xFFFFFFFFFFFFFFFFFFFFFFFFFFFFFFFFFFFFFFFF AND SWAP1 POP SWAP1 JUMP JUMPDEST PUSH1 0x9 SLOAD DUP2 JUMP JUMPDEST PUSH1 0x60 PUSH1 0x4 DUP1 SLOAD PUSH2 0x915 SWAP1 PUSH2 0x20D0 JUMP JUMPDEST DUP1 PUSH1 0x1F ADD PUSH1 0x20 DUP1 SWAP2 DIV MUL PUSH1 0x20 ADD PUSH1 0x40 MLOAD SWAP1 DUP2 ADD PUSH1 0x40 MSTORE DUP1 SWAP3 SWAP2 SWAP1 DUP2 DUP2 MSTORE PUSH1 0x20 ADD DUP3 DUP1 SLOAD PUSH2 0x941 SWAP1 PUSH2 0x20D0 JUMP JUMPDEST DUP1 ISZERO PUSH2 0x98C JUMPI DUP1 PUSH1 0x1F LT PUSH2 0x963 JUMPI PUSH2 0x100 DUP1 DUP4 SLOAD DIV MUL DUP4 MSTORE SWAP2 PUSH1 0x20 ADD SWAP2 PUSH2 0x98C JUMP JUMPDEST DUP3 ADD SWAP2 SWAP1 PUSH0 MSTORE PUSH1 0x20 PUSH0 KECCAK256 SWAP1 JUMPDEST DUP2 SLOAD DUP2 MSTORE SWAP1 PUSH1 0x1 ADD SWAP1 PUSH1 0x20 ADD DUP1 DUP4 GT PUSH2 0x96F JUMPI DUP3 SWAP1 SUB PUSH1 0x1F AND DUP3 ADD SWAP2 JUMPDEST POP POP POP POP POP SWAP1 POP SWAP1 JUMP JUMPDEST PUSH1 0x8 PUSH0 SWAP1 SLOAD SWAP1 PUSH2 0x100 EXP SWAP1 DIV PUSH20 0xFFFFFFFFFFFFFFFFFFFFFFFFFFFFFFFFFFFFFFFF AND DUP2 JUMP JUMPDEST PUSH0 DUP1 PUSH2 0x9C5 PUSH2 0xC0F JUMP JUMPDEST SWAP1 POP PUSH2 0x9D2 DUP2 DUP6 DUP6 PUSH2 0x1060 JUMP JUMPDEST PUSH1 0x1 SWAP2 POP POP SWAP3 SWAP2 POP POP JUMP JUMPDEST PUSH1 0xA SLOAD DUP2 JUMP JUMPDEST PUSH1 0xB SLOAD DUP2 JUMP JUMPDEST PUSH1 0xC PUSH1 0x1 SWAP1 SLOAD SWAP1 PUSH2 0x100 EXP SWAP1 DIV PUSH20 0xFFFFFFFFFFFFFFFFFFFFFFFFFFFFFFFFFFFFFFFF AND DUP2 JUMP JUMPDEST PUSH1 0x9 SLOAD TIMESTAMP LT PUSH2 0xA4A JUMPI PUSH1 0x40 MLOAD PUSH32 0x790D4E300000000000000000000000000000000000000000000000000000000 DUP2 MSTORE PUSH1 0x4 ADD PUSH1 0x40 MLOAD DUP1 SWAP2 SUB SWAP1 REVERT JUMPDEST PUSH2 0xA52 PUSH2 0x1150 JUMP JUMPDEST PUSH2 0xA5C DUP3 DUP3 PUSH2 0x167C JUMP JUMPDEST POP POP JUMP JUMPDEST PUSH0 PUSH1 0x1 PUSH0 DUP5 PUSH20 0xFFFFFFFFFFFFFFFFFFFFFFFFFFFFFFFFFFFFFFFF AND PUSH20 0xFFFFFFFFFFFFFFFFFFFFFFFFFFFFFFFFFFFFFFFF AND DUP2 MSTORE PUSH1 0x20 ADD SWAP1 DUP2 MSTORE PUSH1 0x20 ADD PUSH0 KECCAK256 PUSH0 DUP4 PUSH20 0xFFFFFFFFFFFFFFFFFFFFFFFFFFFFFFFFFFFFFFFF AND PUSH20 0xFFFFFFFFFFFFFFFFFFFFFFFFFFFFFFFFFFFFFFFF AND DUP2 MSTORE PUSH1 0x20 ADD SWAP1 DUP2 MSTORE PUSH1 0x20 ADD PUSH0 KECCAK256 SLOAD SWAP1 POP SWAP3 SWAP2 POP POP JUMP JUMPDEST PUSH1 0x9 SLOAD TIMESTAMP LT PUSH2 0xB1D JUMPI PUSH1 0x40 MLOAD PUSH32 0x790D4E300000000000000000000000000000000000000000000000000000000 DUP2 MSTORE PUSH1 0x4 ADD PUSH1 0x40 MLOAD DUP1 SWAP2 SUB SWAP1 REVERT JUMPDEST PUSH2 0xB25 PUSH2 0x1150 JUMP JUMPDEST DUP2 DUP2 DUP1 PUSH2 0xB31 DUP4 PUSH2 0x7F0 JUMP JUMPDEST LT ISZERO PUSH2 0xB69 JUMPI PUSH1 0x40 MLOAD PUSH32 0xF4D678B800000000000000000000000000000000000000000000000000000000 DUP2 MSTORE PUSH1 0x4 ADD PUSH1 0x40 MLOAD DUP1 SWAP2 SUB SWAP1 REVERT JUMPDEST PUSH2 0xB73 DUP5 DUP5 PUSH2 0xC28 JUMP JUMPDEST POP POP POP POP JUMP JUMPDEST PUSH2 0xB81 PUSH2 0x1150 JUMP JUMPDEST PUSH0 PUSH20 0xFFFFFFFFFFFFFFFFFFFFFFFFFFFFFFFFFFFFFFFF AND DUP2 PUSH20 0xFFFFFFFFFFFFFFFFFFFFFFFFFFFFFFFFFFFFFFFF AND SUB PUSH2 0xBF1 JUMPI PUSH0 PUSH1 0x40 MLOAD PUSH32 0x1E4FBDF700000000000000000000000000000000000000000000000000000000 DUP2 MSTORE PUSH1 0x4 ADD PUSH2 0xBE8 SWAP2 SWAP1 PUSH2 0x1FAD JUMP JUMPDEST PUSH1 0x40 MLOAD DUP1 SWAP2 SUB SWAP1 REVERT JUMPDEST PUSH2 0xBFA DUP2 PUSH2 0x13A9 JUMP JUMPDEST POP JUMP JUMPDEST PUSH1 0xC PUSH0 SWAP1 SLOAD SWAP1 PUSH2 0x100 EXP SWAP1 DIV PUSH1 0xFF AND DUP2 JUMP JUMPDEST PUSH0 CALLER SWAP1 POP SWAP1 JUMP JUMPDEST PUSH2 0xC23 DUP4 DUP4 DUP4 PUSH1 0x1 PUSH2 0x182A JUMP JUMPDEST POP POP POP JUMP JUMPDEST PUSH2 0xC30 PUSH2 0x19F9 JUMP JUMPDEST DUP2 DUP2 DUP1 PUSH2 0xC3C DUP4 PUSH2 0x7F0 JUMP JUMPDEST LT ISZERO PUSH2 0xC74 JUMPI PUSH1 0x40 MLOAD PUSH32 0xF4D678B800000000000000000000000000000000000000000000000000000000 DUP2 MSTORE PUSH1 0x4 ADD PUSH1 0x40 MLOAD DUP1 SWAP2 SUB SWAP1 REVERT JUMPDEST DUP3 PUSH1 0x1 DUP2 LT ISZERO PUSH2 0xCB0 JUMPI PUSH1 0x40 MLOAD PUSH32 0x2C5211C600000000000000000000000000000000000000000000000000000000 DUP2 MSTORE PUSH1 0x4 ADD PUSH1 0x40 MLOAD DUP1 SWAP2 SUB SWAP1 REVERT JUMPDEST PUSH0 PUSH1 0xC PUSH1 0x1 SWAP1 SLOAD SWAP1 PUSH2 0x100 EXP SWAP1 DIV PUSH20 0xFFFFFFFFFFFFFFFFFFFFFFFFFFFFFFFFFFFFFFFF AND PUSH20 0xFFFFFFFFFFFFFFFFFFFFFFFFFFFFFFFFFFFFFFFF AND PUSH4 0x70A08231 ADDRESS PUSH1 0x40 MLOAD DUP3 PUSH4 0xFFFFFFFF AND PUSH1 0xE0 SHL DUP2 MSTORE PUSH1 0x4 ADD PUSH2 0xD0C SWAP2 SWAP1 PUSH2 0x1FAD JUMP JUMPDEST PUSH1 0x20 PUSH1 0x40 MLOAD DUP1 DUP4 SUB DUP2 DUP7 GAS STATICCALL ISZERO DUP1 ISZERO PUSH2 0xD27 JUMPI RETURNDATASIZE PUSH0 DUP1 RETURNDATACOPY RETURNDATASIZE PUSH0 REVERT JUMPDEST POP POP POP POP PUSH1 0x40 MLOAD RETURNDATASIZE PUSH1 0x1F NOT PUSH1 0x1F DUP3 ADD AND DUP3 ADD DUP1 PUSH1 0x40 MSTORE POP DUP2 ADD SWAP1 PUSH2 0xD4B SWAP2 SWAP1 PUSH2 0x2114 JUMP JUMPDEST SWAP1 POP PUSH0 PUSH1 0xD PUSH0 SWAP1 SLOAD SWAP1 PUSH2 0x100 EXP SWAP1 DIV PUSH20 0xFFFFFFFFFFFFFFFFFFFFFFFFFFFFFFFFFFFFFFFF AND PUSH20 0xFFFFFFFFFFFFFFFFFFFFFFFFFFFFFFFFFFFFFFFF AND PUSH4 0x70A08231 ADDRESS PUSH1 0x40 MLOAD DUP3 PUSH4 0xFFFFFFFF AND PUSH1 0xE0 SHL DUP2 MSTORE PUSH1 0x4 ADD PUSH2 0xDA8 SWAP2 SWAP1 PUSH2 0x1FAD JUMP JUMPDEST PUSH1 0x20 PUSH1 0x40 MLOAD DUP1 DUP4 SUB DUP2 DUP7 GAS STATICCALL ISZERO DUP1 ISZERO PUSH2 0xDC3 JUMPI RETURNDATASIZE PUSH0 DUP1 RETURNDATACOPY RETURNDATASIZE PUSH0 REVERT JUMPDEST POP POP POP POP PUSH1 0x40 MLOAD RETURNDATASIZE PUSH1 0x1F NOT PUSH1 0x1F DUP3 ADD AND DUP3 ADD DUP1 PUSH1 0x40 MSTORE POP DUP2 ADD SWAP1 PUSH2 0xDE7 SWAP2 SWAP1 PUSH2 0x2114 JUMP JUMPDEST SWAP1 POP PUSH0 DUP3 DUP8 GT ISZERO PUSH2 0xDF8 JUMPI DUP3 PUSH2 0xDFA JUMP JUMPDEST DUP7 JUMPDEST SWAP1 POP PUSH2 0xE06 DUP9 DUP9 PUSH2 0x1A3F JUMP JUMPDEST DUP7 DUP2 LT ISZERO PUSH2 0xF15 JUMPI PUSH0 DUP2 DUP9 PUSH2 0xE1B SWAP2 SWAP1 PUSH2 0x216C JUMP JUMPDEST SWAP1 POP PUSH0 PUSH1 0xB SLOAD PUSH1 0xA SLOAD DUP4 PUSH2 0xE2F SWAP2 SWAP1 PUSH2 0x219F JUMP JUMPDEST PUSH2 0xE39 SWAP2 SWAP1 PUSH2 0x220D JUMP JUMPDEST SWAP1 POP DUP1 DUP5 LT ISZERO PUSH2 0xE75 JUMPI PUSH1 0x40 MLOAD PUSH32 0xF4D678B800000000000000000000000000000000000000000000000000000000 DUP2 MSTORE PUSH1 0x4 ADD PUSH1 0x40 MLOAD DUP1 SWAP2 SUB SWAP1 REVERT JUMPDEST PUSH1 0xD PUSH0 SWAP1 SLOAD SWAP1 PUSH2 0x100 EXP SWAP1 DIV PUSH20 0xFFFFFFFFFFFFFFFFFFFFFFFFFFFFFFFFFFFFFFFF AND PUSH20 0xFFFFFFFFFFFFFFFFFFFFFFFFFFFFFFFFFFFFFFFF AND PUSH4 0xA9059CBB DUP12 DUP4 PUSH1 0x40 MLOAD DUP4 PUSH4 0xFFFFFFFF AND PUSH1 0xE0 SHL DUP2 MSTORE PUSH1 0x4 ADD PUSH2 0xED1 SWAP3 SWAP2 SWAP1 PUSH2 0x223D JUMP JUMPDEST PUSH1 0x20 PUSH1 0x40 MLOAD DUP1 DUP4 SUB DUP2 PUSH0 DUP8 GAS CALL ISZERO DUP1 ISZERO PUSH2 0xEED JUMPI RETURNDATASIZE PUSH0 DUP1 RETURNDATACOPY RETURNDATASIZE PUSH0 REVERT JUMPDEST POP POP POP POP PUSH1 0x40 MLOAD RETURNDATASIZE PUSH1 0x1F NOT PUSH1 0x1F DUP3 ADD AND DUP3 ADD DUP1 PUSH1 0x40 MSTORE POP DUP2 ADD SWAP1 PUSH2 0xF11 SWAP2 SWAP1 PUSH2 0x228E JUMP JUMPDEST POP POP POP JUMPDEST PUSH0 DUP2 GT ISZERO PUSH2 0xFBC JUMPI PUSH1 0xC PUSH1 0x1 SWAP1 SLOAD SWAP1 PUSH2 0x100 EXP SWAP1 DIV PUSH20 0xFFFFFFFFFFFFFFFFFFFFFFFFFFFFFFFFFFFFFFFF AND PUSH20 0xFFFFFFFFFFFFFFFFFFFFFFFFFFFFFFFFFFFFFFFF AND PUSH4 0xA9059CBB DUP10 DUP4 PUSH1 0x40 MLOAD DUP4 PUSH4 0xFFFFFFFF AND PUSH1 0xE0 SHL DUP2 MSTORE PUSH1 0x4 ADD PUSH2 0xF7A SWAP3 SWAP2 SWAP1 PUSH2 0x223D JUMP JUMPDEST PUSH1 0x20 PUSH1 0x40 MLOAD DUP1 DUP4 SUB DUP2 PUSH0 DUP8 GAS CALL ISZERO DUP1 ISZERO PUSH2 0xF96 JUMPI RETURNDATASIZE PUSH0 DUP1 RETURNDATACOPY RETURNDATASIZE PUSH0 REVERT JUMPDEST POP POP POP POP PUSH1 0x40 MLOAD RETURNDATASIZE PUSH1 0x1F NOT PUSH1 0x1F DUP3 ADD AND DUP3 ADD DUP1 PUSH1 0x40 MSTORE POP DUP2 ADD SWAP1 PUSH2 0xFBA SWAP2 SWAP1 PUSH2 0x228E JUMP JUMPDEST POP JUMPDEST POP POP POP POP POP POP PUSH2 0xFCA PUSH2 0x1ABE JUMP JUMPDEST POP POP JUMP JUMPDEST PUSH0 PUSH2 0xFD9 DUP5 DUP5 PUSH2 0xA60 JUMP JUMPDEST SWAP1 POP PUSH32 0xFFFFFFFFFFFFFFFFFFFFFFFFFFFFFFFFFFFFFFFFFFFFFFFFFFFFFFFFFFFFFFFF DUP2 EQ PUSH2 0x105A JUMPI DUP2 DUP2 LT ISZERO PUSH2 0x104B JUMPI DUP3 DUP2 DUP4 PUSH1 0x40 MLOAD PUSH32 0xFB8F41B200000000000000000000000000000000000000000000000000000000 DUP2 MSTORE PUSH1 0x4 ADD PUSH2 0x1042 SWAP4 SWAP3 SWAP2 SWAP1 PUSH2 0x22B9 JUMP JUMPDEST PUSH1 0x40 MLOAD DUP1 SWAP2 SUB SWAP1 REVERT JUMPDEST PUSH2 0x1059 DUP5 DUP5 DUP5 DUP5 SUB PUSH0 PUSH2 0x182A JUMP JUMPDEST JUMPDEST POP POP POP POP JUMP JUMPDEST PUSH0 PUSH20 0xFFFFFFFFFFFFFFFFFFFFFFFFFFFFFFFFFFFFFFFF AND DUP4 PUSH20 0xFFFFFFFFFFFFFFFFFFFFFFFFFFFFFFFFFFFFFFFF AND SUB PUSH2 0x10D0 JUMPI PUSH0 PUSH1 0x40 MLOAD PUSH32 0x96C6FD1E00000000000000000000000000000000000000000000000000000000 DUP2 MSTORE PUSH1 0x4 ADD PUSH2 0x10C7 SWAP2 SWAP1 PUSH2 0x1FAD JUMP JUMPDEST PUSH1 0x40 MLOAD DUP1 SWAP2 SUB SWAP1 REVERT JUMPDEST PUSH0 PUSH20 0xFFFFFFFFFFFFFFFFFFFFFFFFFFFFFFFFFFFFFFFF AND DUP3 PUSH20 0xFFFFFFFFFFFFFFFFFFFFFFFFFFFFFFFFFFFFFFFF AND SUB PUSH2 0x1140 JUMPI PUSH0 PUSH1 0x40 MLOAD PUSH32 0xEC442F0500000000000000000000000000000000000000000000000000000000 DUP2 MSTORE PUSH1 0x4 ADD PUSH2 0x1137 SWAP2 SWAP1 PUSH2 0x1FAD JUMP JUMPDEST PUSH1 0x40 MLOAD DUP1 SWAP2 SUB SWAP1 REVERT JUMPDEST PUSH2 0x114B DUP4 DUP4 DUP4 PUSH2 0x1AC8 JUMP JUMPDEST POP POP POP JUMP JUMPDEST PUSH2 0x1158 PUSH2 0xC0F JUMP JUMPDEST PUSH20 0xFFFFFFFFFFFFFFFFFFFFFFFFFFFFFFFFFFFFFFFF AND PUSH2 0x1176 PUSH2 0x8D8 JUMP JUMPDEST PUSH20 0xFFFFFFFFFFFFFFFFFFFFFFFFFFFFFFFFFFFFFFFF AND EQ PUSH2 0x11D5 JUMPI PUSH2 0x1199 PUSH2 0xC0F JUMP JUMPDEST PUSH1 0x40 MLOAD PUSH32 0x118CDAA700000000000000000000000000000000000000000000000000000000 DUP2 MSTORE PUSH1 0x4 ADD PUSH2 0x11CC SWAP2 SWAP1 PUSH2 0x1FAD JUMP JUMPDEST PUSH1 0x40 MLOAD DUP1 SWAP2 SUB SWAP1 REVERT JUMPDEST JUMP JUMPDEST PUSH2 0x11DF PUSH2 0x19F9 JUMP JUMPDEST DUP2 DUP2 DUP1 PUSH1 0xC PUSH1 0x1 SWAP1 SLOAD SWAP1 PUSH2 0x100 EXP SWAP1 DIV PUSH20 0xFFFFFFFFFFFFFFFFFFFFFFFFFFFFFFFFFFFFFFFF AND PUSH20 0xFFFFFFFFFFFFFFFFFFFFFFFFFFFFFFFFFFFFFFFF AND PUSH4 0x70A08231 DUP5 PUSH1 0x40 MLOAD DUP3 PUSH4 0xFFFFFFFF AND PUSH1 0xE0 SHL DUP2 MSTORE PUSH1 0x4 ADD PUSH2 0x123D SWAP2 SWAP1 PUSH2 0x1FAD JUMP JUMPDEST PUSH1 0x20 PUSH1 0x40 MLOAD DUP1 DUP4 SUB DUP2 DUP7 GAS STATICCALL ISZERO DUP1 ISZERO PUSH2 0x1258 JUMPI RETURNDATASIZE PUSH0 DUP1 RETURNDATACOPY RETURNDATASIZE PUSH0 REVERT JUMPDEST POP POP POP POP PUSH1 0x40 MLOAD RETURNDATASIZE PUSH1 0x1F NOT PUSH1 0x1F DUP3 ADD AND DUP3 ADD DUP1 PUSH1 0x40 MSTORE POP DUP2 ADD SWAP1 PUSH2 0x127C SWAP2 SWAP1 PUSH2 0x2114 JUMP JUMPDEST LT ISZERO PUSH2 0x12B4 JUMPI PUSH1 0x40 MLOAD PUSH32 0xF4D678B800000000000000000000000000000000000000000000000000000000 DUP2 MSTORE PUSH1 0x4 ADD PUSH1 0x40 MLOAD DUP1 SWAP2 SUB SWAP1 REVERT JUMPDEST DUP3 PUSH1 0x1 DUP2 LT ISZERO PUSH2 0x12F0 JUMPI PUSH1 0x40 MLOAD PUSH32 0x2C5211C600000000000000000000000000000000000000000000000000000000 DUP2 MSTORE PUSH1 0x4 ADD PUSH1 0x40 MLOAD DUP1 SWAP2 SUB SWAP1 REVERT JUMPDEST PUSH2 0x12FA DUP6 DUP6 PUSH2 0x1CE1 JUMP JUMPDEST PUSH1 0xC PUSH1 0x1 SWAP1 SLOAD SWAP1 PUSH2 0x100 EXP SWAP1 DIV PUSH20 0xFFFFFFFFFFFFFFFFFFFFFFFFFFFFFFFFFFFFFFFF AND PUSH20 0xFFFFFFFFFFFFFFFFFFFFFFFFFFFFFFFFFFFFFFFF AND PUSH4 0x23B872DD DUP7 ADDRESS DUP8 PUSH1 0x40 MLOAD DUP5 PUSH4 0xFFFFFFFF AND PUSH1 0xE0 SHL DUP2 MSTORE PUSH1 0x4 ADD PUSH2 0x1359 SWAP4 SWAP3 SWAP2 SWAP1 PUSH2 0x22EE JUMP JUMPDEST PUSH1 0x20 PUSH1 0x40 MLOAD DUP1 DUP4 SUB DUP2 PUSH0 DUP8 GAS CALL ISZERO DUP1 ISZERO PUSH2 0x1375 JUMPI RETURNDATASIZE PUSH0 DUP1 RETURNDATACOPY RETURNDATASIZE PUSH0 REVERT JUMPDEST POP POP POP POP PUSH1 0x40 MLOAD RETURNDATASIZE PUSH1 0x1F NOT PUSH1 0x1F DUP3 ADD AND DUP3 ADD DUP1 PUSH1 0x40 MSTORE POP DUP2 ADD SWAP1 PUSH2 0x1399 SWAP2 SWAP1 PUSH2 0x228E JUMP JUMPDEST POP POP POP POP PUSH2 0x13A5 PUSH2 0x1ABE JUMP JUMPDEST POP POP JUMP JUMPDEST PUSH0 PUSH1 0x5 PUSH0 SWAP1 SLOAD SWAP1 PUSH2 0x100 EXP SWAP1 DIV PUSH20 0xFFFFFFFFFFFFFFFFFFFFFFFFFFFFFFFFFFFFFFFF AND SWAP1 POP DUP2 PUSH1 0x5 PUSH0 PUSH2 0x100 EXP DUP2 SLOAD DUP2 PUSH20 0xFFFFFFFFFFFFFFFFFFFFFFFFFFFFFFFFFFFFFFFF MUL NOT AND SWAP1 DUP4 PUSH20 0xFFFFFFFFFFFFFFFFFFFFFFFFFFFFFFFFFFFFFFFF AND MUL OR SWAP1 SSTORE POP DUP2 PUSH20 0xFFFFFFFFFFFFFFFFFFFFFFFFFFFFFFFFFFFFFFFF AND DUP2 PUSH20 0xFFFFFFFFFFFFFFFFFFFFFFFFFFFFFFFFFFFFFFFF AND PUSH32 0x8BE0079C531659141344CD1FD0A4F28419497F9722A3DAAFE3B4186F6B6457E0 PUSH1 0x40 MLOAD PUSH1 0x40 MLOAD DUP1 SWAP2 SUB SWAP1 LOG3 POP POP JUMP JUMPDEST PUSH2 0x1474 PUSH2 0x19F9 JUMP JUMPDEST DUP2 DUP2 DUP1 PUSH2 0x1480 DUP4 PUSH2 0x7F0 JUMP JUMPDEST LT ISZERO PUSH2 0x14B8 JUMPI PUSH1 0x40 MLOAD PUSH32 0xF4D678B800000000000000000000000000000000000000000000000000000000 DUP2 MSTORE PUSH1 0x4 ADD PUSH1 0x40 MLOAD DUP1 SWAP2 SUB SWAP1 REVERT JUMPDEST DUP3 PUSH1 0x1 DUP2 LT ISZERO PUSH2 0x14F4 JUMPI PUSH1 0x40 MLOAD PUSH32 0x2C5211C600000000000000000000000000000000000000000000000000000000 DUP2 MSTORE PUSH1 0x4 ADD PUSH1 0x40 MLOAD DUP1 SWAP2 SUB SWAP1 REVERT JUMPDEST DUP4 PUSH1 0xD PUSH0 SWAP1 SLOAD SWAP1 PUSH2 0x100 EXP SWAP1 DIV PUSH20 0xFFFFFFFFFFFFFFFFFFFFFFFFFFFFFFFFFFFFFFFF AND PUSH20 0xFFFFFFFFFFFFFFFFFFFFFFFFFFFFFFFFFFFFFFFF AND PUSH4 0x70A08231 ADDRESS PUSH1 0x40 MLOAD DUP3 PUSH4 0xFFFFFFFF AND PUSH1 0xE0 SHL DUP2 MSTORE PUSH1 0x4 ADD PUSH2 0x154F SWAP2 SWAP1 PUSH2 0x1FAD JUMP JUMPDEST PUSH1 0x20 PUSH1 0x40 MLOAD DUP1 DUP4 SUB DUP2 DUP7 GAS STATICCALL ISZERO DUP1 ISZERO PUSH2 0x156A JUMPI RETURNDATASIZE PUSH0 DUP1 RETURNDATACOPY RETURNDATASIZE PUSH0 REVERT JUMPDEST POP POP POP POP PUSH1 0x40 MLOAD RETURNDATASIZE PUSH1 0x1F NOT PUSH1 0x1F DUP3 ADD AND DUP3 ADD DUP1 PUSH1 0x40 MSTORE POP DUP2 ADD SWAP1 PUSH2 0x158E SWAP2 SWAP1 PUSH2 0x2114 JUMP JUMPDEST LT ISZERO PUSH2 0x15C6 JUMPI PUSH1 0x40 MLOAD PUSH32 0xF4D678B800000000000000000000000000000000000000000000000000000000 DUP2 MSTORE PUSH1 0x4 ADD PUSH1 0x40 MLOAD DUP1 SWAP2 SUB SWAP1 REVERT JUMPDEST PUSH2 0x15D0 DUP6 DUP6 PUSH2 0x1A3F JUMP JUMPDEST PUSH1 0xD PUSH0 SWAP1 SLOAD SWAP1 PUSH2 0x100 EXP SWAP1 DIV PUSH20 0xFFFFFFFFFFFFFFFFFFFFFFFFFFFFFFFFFFFFFFFF AND PUSH20 0xFFFFFFFFFFFFFFFFFFFFFFFFFFFFFFFFFFFFFFFF AND PUSH4 0xA9059CBB DUP7 DUP7 PUSH1 0x40 MLOAD DUP4 PUSH4 0xFFFFFFFF AND PUSH1 0xE0 SHL DUP2 MSTORE PUSH1 0x4 ADD PUSH2 0x162C SWAP3 SWAP2 SWAP1 PUSH2 0x223D JUMP JUMPDEST PUSH1 0x20 PUSH1 0x40 MLOAD DUP1 DUP4 SUB DUP2 PUSH0 DUP8 GAS CALL ISZERO DUP1 ISZERO PUSH2 0x1648 JUMPI RETURNDATASIZE PUSH0 DUP1 RETURNDATACOPY RETURNDATASIZE PUSH0 REVERT JUMPDEST POP POP POP POP PUSH1 0x40 MLOAD RETURNDATASIZE PUSH1 0x1F NOT PUSH1 0x1F DUP3 ADD AND DUP3 ADD DUP1 PUSH1 0x40 MSTORE POP DUP2 ADD SWAP1 PUSH2 0x166C SWAP2 SWAP1 PUSH2 0x228E JUMP JUMPDEST POP POP POP POP PUSH2 0x1678 PUSH2 0x1ABE JUMP JUMPDEST POP POP JUMP JUMPDEST PUSH2 0x1684 PUSH2 0x19F9 JUMP JUMPDEST PUSH1 0x9 SLOAD TIMESTAMP LT PUSH2 0x16BF JUMPI PUSH1 0x40 MLOAD PUSH32 0x790D4E300000000000000000000000000000000000000000000000000000000 DUP2 MSTORE PUSH1 0x4 ADD PUSH1 0x40 MLOAD DUP1 SWAP2 SUB SWAP1 REVERT JUMPDEST PUSH2 0x16C7 PUSH2 0x1150 JUMP JUMPDEST PUSH1 0xC PUSH1 0x1 SWAP1 SLOAD SWAP1 PUSH2 0x100 EXP SWAP1 DIV PUSH20 0xFFFFFFFFFFFFFFFFFFFFFFFFFFFFFFFFFFFFFFFF AND PUSH20 0xFFFFFFFFFFFFFFFFFFFFFFFFFFFFFFFFFFFFFFFF AND PUSH4 0xA9059CBB DUP4 DUP4 PUSH1 0x40 MLOAD DUP4 PUSH4 0xFFFFFFFF AND PUSH1 0xE0 SHL DUP2 MSTORE PUSH1 0x4 ADD PUSH2 0x1724 SWAP3 SWAP2 SWAP1 PUSH2 0x223D JUMP JUMPDEST PUSH1 0x20 PUSH1 0x40 MLOAD DUP1 DUP4 SUB DUP2 PUSH0 DUP8 GAS CALL ISZERO DUP1 ISZERO PUSH2 0x1740 JUMPI RETURNDATASIZE PUSH0 DUP1 RETURNDATACOPY RETURNDATASIZE PUSH0 REVERT JUMPDEST POP POP POP POP PUSH1 0x40 MLOAD RETURNDATASIZE PUSH1 0x1F NOT PUSH1 0x1F DUP3 ADD AND DUP3 ADD DUP1 PUSH1 0x40 MSTORE POP DUP2 ADD SWAP1 PUSH2 0x1764 SWAP2 SWAP1 PUSH2 0x228E JUMP JUMPDEST POP PUSH1 0xD PUSH0 SWAP1 SLOAD SWAP1 PUSH2 0x100 EXP SWAP1 DIV PUSH20 0xFFFFFFFFFFFFFFFFFFFFFFFFFFFFFFFFFFFFFFFF AND PUSH20 0xFFFFFFFFFFFFFFFFFFFFFFFFFFFFFFFFFFFFFFFF AND PUSH4 0x23B872DD DUP4 ADDRESS PUSH1 0xB SLOAD PUSH1 0xA SLOAD DUP7 PUSH2 0x17B5 SWAP2 SWAP1 PUSH2 0x219F JUMP JUMPDEST PUSH2 0x17BF SWAP2 SWAP1 PUSH2 0x220D JUMP JUMPDEST PUSH1 0x40 MLOAD DUP5 PUSH4 0xFFFFFFFF AND PUSH1 0xE0 SHL DUP2 MSTORE PUSH1 0x4 ADD PUSH2 0x17DD SWAP4 SWAP3 SWAP2 SWAP1 PUSH2 0x22EE JUMP JUMPDEST PUSH1 0x20 PUSH1 0x40 MLOAD DUP1 DUP4 SUB DUP2 PUSH0 DUP8 GAS CALL ISZERO DUP1 ISZERO PUSH2 0x17F9 JUMPI RETURNDATASIZE PUSH0 DUP1 RETURNDATACOPY RETURNDATASIZE PUSH0 REVERT JUMPDEST POP POP POP POP PUSH1 0x40 MLOAD RETURNDATASIZE PUSH1 0x1F NOT PUSH1 0x1F DUP3 ADD AND DUP3 ADD DUP1 PUSH1 0x40 MSTORE POP DUP2 ADD SWAP1 PUSH2 0x181D SWAP2 SWAP1 PUSH2 0x228E JUMP JUMPDEST POP PUSH2 0x1826 PUSH2 0x1ABE JUMP JUMPDEST POP POP JUMP JUMPDEST PUSH0 PUSH20 0xFFFFFFFFFFFFFFFFFFFFFFFFFFFFFFFFFFFFFFFF AND DUP5 PUSH20 0xFFFFFFFFFFFFFFFFFFFFFFFFFFFFFFFFFFFFFFFF AND SUB PUSH2 0x189A JUMPI PUSH0 PUSH1 0x40 MLOAD PUSH32 0xE602DF0500000000000000000000000000000000000000000000000000000000 DUP2 MSTORE PUSH1 0x4 ADD PUSH2 0x1891 SWAP2 SWAP1 PUSH2 0x1FAD JUMP JUMPDEST PUSH1 0x40 MLOAD DUP1 SWAP2 SUB SWAP1 REVERT JUMPDEST PUSH0 PUSH20 0xFFFFFFFFFFFFFFFFFFFFFFFFFFFFFFFFFFFFFFFF AND DUP4 PUSH20 0xFFFFFFFFFFFFFFFFFFFFFFFFFFFFFFFFFFFFFFFF AND SUB PUSH2 0x190A JUMPI PUSH0 PUSH1 0x40 MLOAD PUSH32 0x94280D6200000000000000000000000000000000000000000000000000000000 DUP2 MSTORE PUSH1 0x4 ADD PUSH2 0x1901 SWAP2 SWAP1 PUSH2 0x1FAD JUMP JUMPDEST PUSH1 0x40 MLOAD DUP1 SWAP2 SUB SWAP1 REVERT JUMPDEST DUP2 PUSH1 0x1 PUSH0 DUP7 PUSH20 0xFFFFFFFFFFFFFFFFFFFFFFFFFFFFFFFFFFFFFFFF AND PUSH20 0xFFFFFFFFFFFFFFFFFFFFFFFFFFFFFFFFFFFFFFFF AND DUP2 MSTORE PUSH1 0x20 ADD SWAP1 DUP2 MSTORE PUSH1 0x20 ADD PUSH0 KECCAK256 PUSH0 DUP6 PUSH20 0xFFFFFFFFFFFFFFFFFFFFFFFFFFFFFFFFFFFFFFFF AND PUSH20 0xFFFFFFFFFFFFFFFFFFFFFFFFFFFFFFFFFFFFFFFF AND DUP2 MSTORE PUSH1 0x20 ADD SWAP1 DUP2 MSTORE PUSH1 0x20 ADD PUSH0 KECCAK256 DUP2 SWAP1 SSTORE POP DUP1 ISZERO PUSH2 0x19F3 JUMPI DUP3 PUSH20 0xFFFFFFFFFFFFFFFFFFFFFFFFFFFFFFFFFFFFFFFF AND DUP5 PUSH20 0xFFFFFFFFFFFFFFFFFFFFFFFFFFFFFFFFFFFFFFFF AND PUSH32 0x8C5BE1E5EBEC7D5BD14F71427D1E84F3DD0314C0F7B2291E5B200AC8C7C3B925 DUP5 PUSH1 0x40 MLOAD PUSH2 0x19EA SWAP2 SWAP1 PUSH2 0x1F01 JUMP JUMPDEST PUSH1 0x40 MLOAD DUP1 SWAP2 SUB SWAP1 LOG3 JUMPDEST POP POP POP POP JUMP JUMPDEST PUSH1 0x2 PUSH1 0x6 SLOAD SUB PUSH2 0x1A35 JUMPI PUSH1 0x40 MLOAD PUSH32 0x3EE5AEB500000000000000000000000000000000000000000000000000000000 DUP2 MSTORE PUSH1 0x4 ADD PUSH1 0x40 MLOAD DUP1 SWAP2 SUB SWAP1 REVERT JUMPDEST PUSH1 0x2 PUSH1 0x6 DUP2 SWAP1 SSTORE POP JUMP JUMPDEST PUSH0 PUSH20 0xFFFFFFFFFFFFFFFFFFFFFFFFFFFFFFFFFFFFFFFF AND DUP3 PUSH20 0xFFFFFFFFFFFFFFFFFFFFFFFFFFFFFFFFFFFFFFFF AND SUB PUSH2 0x1AAF JUMPI PUSH0 PUSH1 0x40 MLOAD PUSH32 0x96C6FD1E00000000000000000000000000000000000000000000000000000000 DUP2 MSTORE PUSH1 0x4 ADD PUSH2 0x1AA6 SWAP2 SWAP1 PUSH2 0x1FAD JUMP JUMPDEST PUSH1 0x40 MLOAD DUP1 SWAP2 SUB SWAP1 REVERT JUMPDEST PUSH2 0x1ABA DUP3 PUSH0 DUP4 PUSH2 0x1AC8 JUMP JUMPDEST POP POP JUMP JUMPDEST PUSH1 0x1 PUSH1 0x6 DUP2 SWAP1 SSTORE POP JUMP JUMPDEST PUSH0 PUSH20 0xFFFFFFFFFFFFFFFFFFFFFFFFFFFFFFFFFFFFFFFF AND DUP4 PUSH20 0xFFFFFFFFFFFFFFFFFFFFFFFFFFFFFFFFFFFFFFFF AND SUB PUSH2 0x1B18 JUMPI DUP1 PUSH1 0x2 PUSH0 DUP3 DUP3 SLOAD PUSH2 0x1B0C SWAP2 SWAP1 PUSH2 0x2323 JUMP JUMPDEST SWAP3 POP POP DUP2 SWAP1 SSTORE POP PUSH2 0x1BE6 JUMP JUMPDEST PUSH0 DUP1 PUSH0 DUP6 PUSH20 0xFFFFFFFFFFFFFFFFFFFFFFFFFFFFFFFFFFFFFFFF AND PUSH20 0xFFFFFFFFFFFFFFFFFFFFFFFFFFFFFFFFFFFFFFFF AND DUP2 MSTORE PUSH1 0x20 ADD SWAP1 DUP2 MSTORE PUSH1 0x20 ADD PUSH0 KECCAK256 SLOAD SWAP1 POP DUP2 DUP2 LT ISZERO PUSH2 0x1BA1 JUMPI DUP4 DUP2 DUP4 PUSH1 0x40 MLOAD PUSH32 0xE450D38C00000000000000000000000000000000000000000000000000000000 DUP2 MSTORE PUSH1 0x4 ADD PUSH2 0x1B98 SWAP4 SWAP3 SWAP2 SWAP1 PUSH2 0x22B9 JUMP JUMPDEST PUSH1 0x40 MLOAD DUP1 SWAP2 SUB SWAP1 REVERT JUMPDEST DUP2 DUP2 SUB PUSH0 DUP1 DUP7 PUSH20 0xFFFFFFFFFFFFFFFFFFFFFFFFFFFFFFFFFFFFFFFF AND PUSH20 0xFFFFFFFFFFFFFFFFFFFFFFFFFFFFFFFFFFFFFFFF AND DUP2 MSTORE PUSH1 0x20 ADD SWAP1 DUP2 MSTORE PUSH1 0x20 ADD PUSH0 KECCAK256 DUP2 SWAP1 SSTORE POP POP JUMPDEST PUSH0 PUSH20 0xFFFFFFFFFFFFFFFFFFFFFFFFFFFFFFFFFFFFFFFF AND DUP3 PUSH20 0xFFFFFFFFFFFFFFFFFFFFFFFFFFFFFFFFFFFFFFFF AND SUB PUSH2 0x1C2D JUMPI DUP1 PUSH1 0x2 PUSH0 DUP3 DUP3 SLOAD SUB SWAP3 POP POP DUP2 SWAP1 SSTORE POP PUSH2 0x1C77 JUMP JUMPDEST DUP1 PUSH0 DUP1 DUP5 PUSH20 0xFFFFFFFFFFFFFFFFFFFFFFFFFFFFFFFFFFFFFFFF AND PUSH20 0xFFFFFFFFFFFFFFFFFFFFFFFFFFFFFFFFFFFFFFFF AND DUP2 MSTORE PUSH1 0x20 ADD SWAP1 DUP2 MSTORE PUSH1 0x20 ADD PUSH0 KECCAK256 PUSH0 DUP3 DUP3 SLOAD ADD SWAP3 POP POP DUP2 SWAP1 SSTORE POP JUMPDEST DUP2 PUSH20 0xFFFFFFFFFFFFFFFFFFFFFFFFFFFFFFFFFFFFFFFF AND DUP4 PUSH20 0xFFFFFFFFFFFFFFFFFFFFFFFFFFFFFFFFFFFFFFFF AND PUSH32 0xDDF252AD1BE2C89B69C2B068FC378DAA952BA7F163C4A11628F55A4DF523B3EF DUP4 PUSH1 0x40 MLOAD PUSH2 0x1CD4 SWAP2 SWAP1 PUSH2 0x1F01 JUMP JUMPDEST PUSH1 0x40 MLOAD DUP1 SWAP2 SUB SWAP1 LOG3 POP POP POP JUMP JUMPDEST PUSH0 PUSH20 0xFFFFFFFFFFFFFFFFFFFFFFFFFFFFFFFFFFFFFFFF AND DUP3 PUSH20 0xFFFFFFFFFFFFFFFFFFFFFFFFFFFFFFFFFFFFFFFF AND SUB PUSH2 0x1D51 JUMPI PUSH0 PUSH1 0x40 MLOAD PUSH32 0xEC442F0500000000000000000000000000000000000000000000000000000000 DUP2 MSTORE PUSH1 0x4 ADD PUSH2 0x1D48 SWAP2 SWAP1 PUSH2 0x1FAD JUMP JUMPDEST PUSH1 0x40 MLOAD DUP1 SWAP2 SUB SWAP1 REVERT JUMPDEST PUSH2 0x1D5C PUSH0 DUP4 DUP4 PUSH2 0x1AC8 JUMP JUMPDEST POP POP JUMP JUMPDEST PUSH0 DUP2 MLOAD SWAP1 POP SWAP2 SWAP1 POP JUMP JUMPDEST PUSH0 DUP3 DUP3 MSTORE PUSH1 0x20 DUP3 ADD SWAP1 POP SWAP3 SWAP2 POP POP JUMP JUMPDEST DUP3 DUP2 DUP4 MCOPY PUSH0 DUP4 DUP4 ADD MSTORE POP POP POP JUMP JUMPDEST PUSH0 PUSH1 0x1F NOT PUSH1 0x1F DUP4 ADD AND SWAP1 POP SWAP2 SWAP1 POP JUMP JUMPDEST PUSH0 PUSH2 0x1DA2 DUP3 PUSH2 0x1D60 JUMP JUMPDEST PUSH2 0x1DAC DUP2 DUP6 PUSH2 0x1D6A JUMP JUMPDEST SWAP4 POP PUSH2 0x1DBC DUP2 DUP6 PUSH1 0x20 DUP7 ADD PUSH2 0x1D7A JUMP JUMPDEST PUSH2 0x1DC5 DUP2 PUSH2 0x1D88 JUMP JUMPDEST DUP5 ADD SWAP2 POP POP SWAP3 SWAP2 POP POP JUMP JUMPDEST PUSH0 PUSH1 0x20 DUP3 ADD SWAP1 POP DUP2 DUP2 SUB PUSH0 DUP4 ADD MSTORE PUSH2 0x1DE8 DUP2 DUP5 PUSH2 0x1D98 JUMP JUMPDEST SWAP1 POP SWAP3 SWAP2 POP POP JUMP JUMPDEST PUSH0 DUP1 REVERT JUMPDEST PUSH0 PUSH20 0xFFFFFFFFFFFFFFFFFFFFFFFFFFFFFFFFFFFFFFFF DUP3 AND SWAP1 POP SWAP2 SWAP1 POP JUMP JUMPDEST PUSH0 PUSH2 0x1E1D DUP3 PUSH2 0x1DF4 JUMP JUMPDEST SWAP1 POP SWAP2 SWAP1 POP JUMP JUMPDEST PUSH2 0x1E2D DUP2 PUSH2 0x1E13 JUMP JUMPDEST DUP2 EQ PUSH2 0x1E37 JUMPI PUSH0 DUP1 REVERT JUMPDEST POP JUMP JUMPDEST PUSH0 DUP2 CALLDATALOAD SWAP1 POP PUSH2 0x1E48 DUP2 PUSH2 0x1E24 JUMP JUMPDEST SWAP3 SWAP2 POP POP JUMP JUMPDEST PUSH0 DUP2 SWAP1 POP SWAP2 SWAP1 POP JUMP JUMPDEST PUSH2 0x1E60 DUP2 PUSH2 0x1E4E JUMP JUMPDEST DUP2 EQ PUSH2 0x1E6A JUMPI PUSH0 DUP1 REVERT JUMPDEST POP JUMP JUMPDEST PUSH0 DUP2 CALLDATALOAD SWAP1 POP PUSH2 0x1E7B DUP2 PUSH2 0x1E57 JUMP JUMPDEST SWAP3 SWAP2 POP POP JUMP JUMPDEST PUSH0 DUP1 PUSH1 0x40 DUP4 DUP6 SUB SLT ISZERO PUSH2 0x1E97 JUMPI PUSH2 0x1E96 PUSH2 0x1DF0 JUMP JUMPDEST JUMPDEST PUSH0 PUSH2 0x1EA4 DUP6 DUP3 DUP7 ADD PUSH2 0x1E3A JUMP JUMPDEST SWAP3 POP POP PUSH1 0x20 PUSH2 0x1EB5 DUP6 DUP3 DUP7 ADD PUSH2 0x1E6D JUMP JUMPDEST SWAP2 POP POP SWAP3 POP SWAP3 SWAP1 POP JUMP JUMPDEST PUSH0 DUP2 ISZERO ISZERO SWAP1 POP SWAP2 SWAP1 POP JUMP JUMPDEST PUSH2 0x1ED3 DUP2 PUSH2 0x1EBF JUMP JUMPDEST DUP3 MSTORE POP POP JUMP JUMPDEST PUSH0 PUSH1 0x20 DUP3 ADD SWAP1 POP PUSH2 0x1EEC PUSH0 DUP4 ADD DUP5 PUSH2 0x1ECA JUMP JUMPDEST SWAP3 SWAP2 POP POP JUMP JUMPDEST PUSH2 0x1EFB DUP2 PUSH2 0x1E4E JUMP JUMPDEST DUP3 MSTORE POP POP JUMP JUMPDEST PUSH0 PUSH1 0x20 DUP3 ADD SWAP1 POP PUSH2 0x1F14 PUSH0 DUP4 ADD DUP5 PUSH2 0x1EF2 JUMP JUMPDEST SWAP3 SWAP2 POP POP JUMP JUMPDEST PUSH0 DUP1 PUSH0 PUSH1 0x60 DUP5 DUP7 SUB SLT ISZERO PUSH2 0x1F31 JUMPI PUSH2 0x1F30 PUSH2 0x1DF0 JUMP JUMPDEST JUMPDEST PUSH0 PUSH2 0x1F3E DUP7 DUP3 DUP8 ADD PUSH2 0x1E3A JUMP JUMPDEST SWAP4 POP POP PUSH1 0x20 PUSH2 0x1F4F DUP7 DUP3 DUP8 ADD PUSH2 0x1E3A JUMP JUMPDEST SWAP3 POP POP PUSH1 0x40 PUSH2 0x1F60 DUP7 DUP3 DUP8 ADD PUSH2 0x1E6D JUMP JUMPDEST SWAP2 POP POP SWAP3 POP SWAP3 POP SWAP3 JUMP JUMPDEST PUSH0 PUSH1 0xFF DUP3 AND SWAP1 POP SWAP2 SWAP1 POP JUMP JUMPDEST PUSH2 0x1F7F DUP2 PUSH2 0x1F6A JUMP JUMPDEST DUP3 MSTORE POP POP JUMP JUMPDEST PUSH0 PUSH1 0x20 DUP3 ADD SWAP1 POP PUSH2 0x1F98 PUSH0 DUP4 ADD DUP5 PUSH2 0x1F76 JUMP JUMPDEST SWAP3 SWAP2 POP POP JUMP JUMPDEST PUSH2 0x1FA7 DUP2 PUSH2 0x1E13 JUMP JUMPDEST DUP3 MSTORE POP POP JUMP JUMPDEST PUSH0 PUSH1 0x20 DUP3 ADD SWAP1 POP PUSH2 0x1FC0 PUSH0 DUP4 ADD DUP5 PUSH2 0x1F9E JUMP JUMPDEST SWAP3 SWAP2 POP POP JUMP JUMPDEST PUSH0 DUP2 SWAP1 POP SWAP2 SWAP1 POP JUMP JUMPDEST PUSH0 PUSH2 0x1FE9 PUSH2 0x1FE4 PUSH2 0x1FDF DUP5 PUSH2 0x1DF4 JUMP JUMPDEST PUSH2 0x1FC6 JUMP JUMPDEST PUSH2 0x1DF4 JUMP JUMPDEST SWAP1 POP SWAP2 SWAP1 POP JUMP JUMPDEST PUSH0 PUSH2 0x1FFA DUP3 PUSH2 0x1FCF JUMP JUMPDEST SWAP1 POP SWAP2 SWAP1 POP JUMP JUMPDEST PUSH0 PUSH2 0x200B DUP3 PUSH2 0x1FF0 JUMP JUMPDEST SWAP1 POP SWAP2 SWAP1 POP JUMP JUMPDEST PUSH2 0x201B DUP2 PUSH2 0x2001 JUMP JUMPDEST DUP3 MSTORE POP POP JUMP JUMPDEST PUSH0 PUSH1 0x20 DUP3 ADD SWAP1 POP PUSH2 0x2034 PUSH0 DUP4 ADD DUP5 PUSH2 0x2012 JUMP JUMPDEST SWAP3 SWAP2 POP POP JUMP JUMPDEST PUSH0 PUSH1 0x20 DUP3 DUP5 SUB SLT ISZERO PUSH2 0x204F JUMPI PUSH2 0x204E PUSH2 0x1DF0 JUMP JUMPDEST JUMPDEST PUSH0 PUSH2 0x205C DUP5 DUP3 DUP6 ADD PUSH2 0x1E3A JUMP JUMPDEST SWAP2 POP POP SWAP3 SWAP2 POP POP JUMP JUMPDEST PUSH0 DUP1 PUSH1 0x40 DUP4 DUP6 SUB SLT ISZERO PUSH2 0x207B JUMPI PUSH2 0x207A PUSH2 0x1DF0 JUMP JUMPDEST JUMPDEST PUSH0 PUSH2 0x2088 DUP6 DUP3 DUP7 ADD PUSH2 0x1E3A JUMP JUMPDEST SWAP3 POP POP PUSH1 0x20 PUSH2 0x2099 DUP6 DUP3 DUP7 ADD PUSH2 0x1E3A JUMP JUMPDEST SWAP2 POP POP SWAP3 POP SWAP3 SWAP1 POP JUMP JUMPDEST PUSH32 0x4E487B7100000000000000000000000000000000000000000000000000000000 PUSH0 MSTORE PUSH1 0x22 PUSH1 0x4 MSTORE PUSH1 0x24 PUSH0 REVERT JUMPDEST PUSH0 PUSH1 0x2 DUP3 DIV SWAP1 POP PUSH1 0x1 DUP3 AND DUP1 PUSH2 0x20E7 JUMPI PUSH1 0x7F DUP3 AND SWAP2 POP JUMPDEST PUSH1 0x20 DUP3 LT DUP2 SUB PUSH2 0x20FA JUMPI PUSH2 0x20F9 PUSH2 0x20A3 JUMP JUMPDEST JUMPDEST POP SWAP2 SWAP1 POP JUMP JUMPDEST PUSH0 DUP2 MLOAD SWAP1 POP PUSH2 0x210E DUP2 PUSH2 0x1E57 JUMP JUMPDEST SWAP3 SWAP2 POP POP JUMP JUMPDEST PUSH0 PUSH1 0x20 DUP3 DUP5 SUB SLT ISZERO PUSH2 0x2129 JUMPI PUSH2 0x2128 PUSH2 0x1DF0 JUMP JUMPDEST JUMPDEST PUSH0 PUSH2 0x2136 DUP5 DUP3 DUP6 ADD PUSH2 0x2100 JUMP JUMPDEST SWAP2 POP POP SWAP3 SWAP2 POP POP JUMP JUMPDEST PUSH32 0x4E487B7100000000000000000000000000000000000000000000000000000000 PUSH0 MSTORE PUSH1 0x11 PUSH1 0x4 MSTORE PUSH1 0x24 PUSH0 REVERT JUMPDEST PUSH0 PUSH2 0x2176 DUP3 PUSH2 0x1E4E JUMP JUMPDEST SWAP2 POP PUSH2 0x2181 DUP4 PUSH2 0x1E4E JUMP JUMPDEST SWAP3 POP DUP3 DUP3 SUB SWAP1 POP DUP2 DUP2 GT ISZERO PUSH2 0x2199 JUMPI PUSH2 0x2198 PUSH2 0x213F JUMP JUMPDEST JUMPDEST SWAP3 SWAP2 POP POP JUMP JUMPDEST PUSH0 PUSH2 0x21A9 DUP3 PUSH2 0x1E4E JUMP JUMPDEST SWAP2 POP PUSH2 0x21B4 DUP4 PUSH2 0x1E4E JUMP JUMPDEST SWAP3 POP DUP3 DUP3 MUL PUSH2 0x21C2 DUP2 PUSH2 0x1E4E JUMP JUMPDEST SWAP2 POP DUP3 DUP3 DIV DUP5 EQ DUP4 ISZERO OR PUSH2 0x21D9 JUMPI PUSH2 0x21D8 PUSH2 0x213F JUMP JUMPDEST JUMPDEST POP SWAP3 SWAP2 POP POP JUMP JUMPDEST PUSH32 0x4E487B7100000000000000000000000000000000000000000000000000000000 PUSH0 MSTORE PUSH1 0x12 PUSH1 0x4 MSTORE PUSH1 0x24 PUSH0 REVERT JUMPDEST PUSH0 PUSH2 0x2217 DUP3 PUSH2 0x1E4E JUMP JUMPDEST SWAP2 POP PUSH2 0x2222 DUP4 PUSH2 0x1E4E JUMP JUMPDEST SWAP3 POP DUP3 PUSH2 0x2232 JUMPI PUSH2 0x2231 PUSH2 0x21E0 JUMP JUMPDEST JUMPDEST DUP3 DUP3 DIV SWAP1 POP SWAP3 SWAP2 POP POP JUMP JUMPDEST PUSH0 PUSH1 0x40 DUP3 ADD SWAP1 POP PUSH2 0x2250 PUSH0 DUP4 ADD DUP6 PUSH2 0x1F9E JUMP JUMPDEST PUSH2 0x225D PUSH1 0x20 DUP4 ADD DUP5 PUSH2 0x1EF2 JUMP JUMPDEST SWAP4 SWAP3 POP POP POP JUMP JUMPDEST PUSH2 0x226D DUP2 PUSH2 0x1EBF JUMP JUMPDEST DUP2 EQ PUSH2 0x2277 JUMPI PUSH0 DUP1 REVERT JUMPDEST POP JUMP JUMPDEST PUSH0 DUP2 MLOAD SWAP1 POP PUSH2 0x2288 DUP2 PUSH2 0x2264 JUMP JUMPDEST SWAP3 SWAP2 POP POP JUMP JUMPDEST PUSH0 PUSH1 0x20 DUP3 DUP5 SUB SLT ISZERO PUSH2 0x22A3 JUMPI PUSH2 0x22A2 PUSH2 0x1DF0 JUMP JUMPDEST JUMPDEST PUSH0 PUSH2 0x22B0 DUP5 DUP3 DUP6 ADD PUSH2 0x227A JUMP JUMPDEST SWAP2 POP POP SWAP3 SWAP2 POP POP JUMP JUMPDEST PUSH0 PUSH1 0x60 DUP3 ADD SWAP1 POP PUSH2 0x22CC PUSH0 DUP4 ADD DUP7 PUSH2 0x1F9E JUMP JUMPDEST PUSH2 0x22D9 PUSH1 0x20 DUP4 ADD DUP6 PUSH2 0x1EF2 JUMP JUMPDEST PUSH2 0x22E6 PUSH1 0x40 DUP4 ADD DUP5 PUSH2 0x1EF2 JUMP JUMPDEST SWAP5 SWAP4 POP POP POP POP JUMP JUMPDEST PUSH0 PUSH1 0x60 DUP3 ADD SWAP1 POP PUSH2 0x2301 PUSH0 DUP4 ADD DUP7 PUSH2 0x1F9E JUMP JUMPDEST PUSH2 0x230E PUSH1 0x20 DUP4 ADD DUP6 PUSH2 0x1F9E JUMP JUMPDEST PUSH2 0x231B PUSH1 0x40 DUP4 ADD DUP5 PUSH2 0x1EF2 JUMP JUMPDEST SWAP5 SWAP4 POP POP POP POP JUMP JUMPDEST PUSH0 PUSH2 0x232D DUP3 PUSH2 0x1E4E JUMP JUMPDEST SWAP2 POP PUSH2 0x2338 DUP4 PUSH2 0x1E4E JUMP JUMPDEST SWAP3 POP DUP3 DUP3 ADD SWAP1 POP DUP1 DUP3 GT ISZERO PUSH2 0x2350 JUMPI PUSH2 0x234F PUSH2 0x213F JUMP JUMPDEST JUMPDEST SWAP3 SWAP2 POP POP JUMP INVALID LOG2 PUSH5 0x6970667358 0x22 SLT KECCAK256 TLOAD PUSH15 0x4F9EEAA7CE7432585247F232BD8B0C 0x2E GAS 0xD1 PUSH6 0xC024B076C0C7 0xEC 0xAE 0xB3 0xBF CALLDATASIZE PUSH5 0x736F6C6343 STOP ADDMOD BYTE STOP CALLER LOG2 PUSH5 0x6970667358 0x22 SLT KECCAK256 PUSH13 0x796142D9C7A334B34A5D53E51C 0x23 SWAP11 ADDRESS CHAINID 0x23 SWAP13 SWAP12 0xEB 0xB5 0xC2 PUSH7 0xBF6810017A3ABB PUSH5 0x736F6C6343 STOP ADDMOD BYTE STOP CALLER "
		},
		"gasEstimates": {
			"creation": {
				"codeDepositCost": "4742000",
				"executionCost": "infinite",
				"totalCost": "infinite"
			},
			"external": {
				"createOption(string,string,address,address,uint256,uint256,uint256,bool)": "infinite",
				"createdOptions(uint256)": "4966",
				"owner()": "2515",
				"renounceOwnership()": "infinite",
				"transferOwnership(address)": "infinite"
			}
		},
		"methodIdentifiers": {
			"createOption(string,string,address,address,uint256,uint256,uint256,bool)": "cb39d593",
			"createdOptions(uint256)": "a2618c97",
			"owner()": "8da5cb5b",
			"renounceOwnership()": "715018a6",
			"transferOwnership(address)": "f2fde38b"
		}
	},
	"abi": [
		{
			"inputs": [],
			"stateMutability": "nonpayable",
			"type": "constructor"
		},
		{
			"inputs": [
				{
					"internalType": "address",
					"name": "owner",
					"type": "address"
				}
			],
			"name": "OwnableInvalidOwner",
			"type": "error"
		},
		{
			"inputs": [
				{
					"internalType": "address",
					"name": "account",
					"type": "address"
				}
			],
			"name": "OwnableUnauthorizedAccount",
			"type": "error"
		},
		{
			"anonymous": false,
			"inputs": [
				{
					"indexed": true,
					"internalType": "address",
					"name": "previousOwner",
					"type": "address"
				},
				{
					"indexed": true,
					"internalType": "address",
					"name": "newOwner",
					"type": "address"
				}
			],
			"name": "OwnershipTransferred",
			"type": "event"
		},
		{
			"inputs": [
				{
					"internalType": "string",
					"name": "name",
					"type": "string"
				},
				{
					"internalType": "string",
					"name": "symbol",
					"type": "string"
				},
				{
					"internalType": "address",
					"name": "collateralAddress",
					"type": "address"
				},
				{
					"internalType": "address",
					"name": "considerationAddress",
					"type": "address"
				},
				{
					"internalType": "uint256",
					"name": "expirationDate",
					"type": "uint256"
				},
				{
					"internalType": "uint256",
					"name": "strikeNum",
					"type": "uint256"
				},
				{
					"internalType": "uint256",
					"name": "strikeDen",
					"type": "uint256"
				},
				{
					"internalType": "bool",
					"name": "isPut",
					"type": "bool"
				}
			],
			"name": "createOption",
			"outputs": [],
			"stateMutability": "nonpayable",
			"type": "function"
		},
		{
			"inputs": [
				{
					"internalType": "uint256",
					"name": "",
					"type": "uint256"
				}
			],
			"name": "createdOptions",
			"outputs": [
				{
					"internalType": "address",
					"name": "",
					"type": "address"
				}
			],
			"stateMutability": "view",
			"type": "function"
		},
		{
			"inputs": [],
			"name": "owner",
			"outputs": [
				{
					"internalType": "address",
					"name": "",
					"type": "address"
				}
			],
			"stateMutability": "view",
			"type": "function"
		},
		{
			"inputs": [],
			"name": "renounceOwnership",
			"outputs": [],
			"stateMutability": "nonpayable",
			"type": "function"
		},
		{
			"inputs": [
				{
					"internalType": "address",
					"name": "newOwner",
					"type": "address"
				}
			],
			"name": "transferOwnership",
			"outputs": [],
			"stateMutability": "nonpayable",
			"type": "function"
		}
	]
}