{
  "_format": "hh-sol-artifact-1",
  "contractName": "OptionManager",
  "sourceName": "contracts/OptionsActions.sol",
  "abi": [
    {
      "inputs": [],
      "stateMutability": "nonpayable",
      "type": "constructor"
    },
    {
      "inputs": [
        {
          "internalType": "address",
          "name": "target",
          "type": "address"
        }
      ],
      "name": "AddressEmptyCode",
      "type": "error"
    },
    {
      "inputs": [
        {
          "internalType": "address",
          "name": "account",
          "type": "address"
        }
      ],
      "name": "AddressInsufficientBalance",
      "type": "error"
    },
    {
      "inputs": [],
      "name": "FailedInnerCall",
      "type": "error"
    },
    {
      "inputs": [
        {
          "internalType": "address",
          "name": "owner",
          "type": "address"
        }
      ],
      "name": "OwnableInvalidOwner",
      "type": "error"
    },
    {
      "inputs": [
        {
          "internalType": "address",
          "name": "account",
          "type": "address"
        }
      ],
      "name": "OwnableUnauthorizedAccount",
      "type": "error"
    },
    {
      "inputs": [
        {
          "internalType": "address",
          "name": "token",
          "type": "address"
        }
      ],
      "name": "SafeERC20FailedOperation",
      "type": "error"
    },
    {
      "anonymous": false,
      "inputs": [
        {
          "indexed": true,
          "internalType": "address",
          "name": "unlocker",
          "type": "address"
        },
        {
          "indexed": false,
          "internalType": "uint256",
          "name": "amount",
          "type": "uint256"
        }
      ],
      "name": "CollateralUnlocked",
      "type": "event"
    },
    {
      "anonymous": false,
      "inputs": [
        {
          "indexed": false,
          "internalType": "address",
          "name": "caller",
          "type": "address"
        }
      ],
      "name": "FunctionCalled",
      "type": "event"
    },
    {
      "anonymous": false,
      "inputs": [
        {
          "indexed": true,
          "internalType": "address",
          "name": "creator",
          "type": "address"
        },
        {
          "indexed": false,
          "internalType": "uint256",
          "name": "amount",
          "type": "uint256"
        }
      ],
      "name": "OptionCreated",
      "type": "event"
    },
    {
      "anonymous": false,
      "inputs": [
        {
          "indexed": true,
          "internalType": "address",
          "name": "exerciser",
          "type": "address"
        },
        {
          "indexed": false,
          "internalType": "uint256",
          "name": "amount",
          "type": "uint256"
        }
      ],
      "name": "OptionExercised",
      "type": "event"
    },
    {
      "anonymous": false,
      "inputs": [
        {
          "indexed": true,
          "internalType": "address",
          "name": "previousOwner",
          "type": "address"
        },
        {
          "indexed": true,
          "internalType": "address",
          "name": "newOwner",
          "type": "address"
        }
      ],
      "name": "OwnershipTransferred",
      "type": "event"
    },
    {
      "inputs": [],
      "name": "collateralAsset",
      "outputs": [
        {
          "internalType": "contract IERC20",
          "name": "",
          "type": "address"
        }
      ],
      "stateMutability": "view",
      "type": "function"
    },
    {
      "inputs": [
        {
          "internalType": "uint256",
          "name": "",
          "type": "uint256"
        }
      ],
      "name": "contracts",
      "outputs": [
        {
          "internalType": "address",
          "name": "",
          "type": "address"
        }
      ],
      "stateMutability": "view",
      "type": "function"
    },
    {
      "inputs": [
        {
          "internalType": "address",
          "name": "optionAddress",
          "type": "address"
        },
        {
          "internalType": "uint256",
          "name": "amount",
          "type": "uint256"
        }
      ],
      "name": "exerciseOption",
      "outputs": [],
      "stateMutability": "nonpayable",
      "type": "function"
    },
    {
      "inputs": [
        {
          "internalType": "address",
          "name": "collateralAddress",
          "type": "address"
        },
        {
          "internalType": "uint256",
          "name": "expirationDate",
          "type": "uint256"
        },
        {
          "internalType": "uint256",
          "name": "strike",
          "type": "uint256"
        },
        {
          "internalType": "uint256",
          "name": "amount",
          "type": "uint256"
        }
      ],
      "name": "mint",
      "outputs": [
        {
          "internalType": "address",
          "name": "",
          "type": "address"
        }
      ],
      "stateMutability": "nonpayable",
      "type": "function"
    },
    {
      "inputs": [],
      "name": "owner",
      "outputs": [
        {
          "internalType": "address",
          "name": "",
          "type": "address"
        }
      ],
      "stateMutability": "view",
      "type": "function"
    },
    {
      "inputs": [],
      "name": "renounceOwnership",
      "outputs": [],
      "stateMutability": "nonpayable",
      "type": "function"
    },
    {
      "inputs": [],
      "name": "testEmit",
      "outputs": [
        {
          "internalType": "address",
          "name": "",
          "type": "address"
        }
      ],
      "stateMutability": "nonpayable",
      "type": "function"
    },
    {
      "inputs": [
        {
          "internalType": "address",
          "name": "newOwner",
          "type": "address"
        }
      ],
      "name": "transferOwnership",
      "outputs": [],
      "stateMutability": "nonpayable",
      "type": "function"
    },
    {
      "inputs": [
        {
          "internalType": "address",
          "name": "optionAddress",
          "type": "address"
        },
        {
          "internalType": "uint256",
          "name": "amount",
          "type": "uint256"
        }
      ],
      "name": "unlockCollateral",
      "outputs": [],
      "stateMutability": "nonpayable",
      "type": "function"
    },
    {
      "inputs": [],
      "name": "usdcToken",
      "outputs": [
        {
          "internalType": "contract IERC20",
          "name": "",
          "type": "address"
        }
      ],
      "stateMutability": "view",
      "type": "function"
    },
    {
      "inputs": [
        {
          "internalType": "address",
          "name": "",
          "type": "address"
        },
        {
          "internalType": "uint256",
          "name": "",
          "type": "uint256"
        }
      ],
      "name": "userContracts",
      "outputs": [
        {
          "internalType": "address",
          "name": "",
          "type": "address"
        }
      ],
      "stateMutability": "view",
      "type": "function"
    }
  ],
  "bytecode": "0x6080604052348015600f57600080fd5b503380603557604051631e4fbdf760e01b81526000600482015260240160405180910390fd5b603c816067565b50600180546001600160a01b03191673a0b86991c6218b36c1d19d4a2e9eb0ce3606eb4817905560b7565b600080546001600160a01b038381166001600160a01b0319831681178455604051919092169283917f8be0079c531659141344cd1fd0a4f28419497f9722a3daafe3b4186f6b6457e09190a35050565b6135a2806100c66000396000f3fe608060405234801561001057600080fd5b50600436106100a95760003560e01c80638da5cb5b116100715780638da5cb5b14610120578063a647e8ec14610131578063aabaecd614610144578063b789003d14610157578063db7322791461016a578063f2fde38b1461017257600080fd5b806311eac855146100ae57806317f17498146100dd578063474da79a146100f257806367842b8214610105578063715018a614610118575b600080fd5b6001546100c1906001600160a01b031681565b6040516001600160a01b03909116815260200160405180910390f35b6100f06100eb366004611563565b610185565b005b6100c161010036600461158f565b6105ad565b6100f0610113366004611563565b6105d7565b6100f0610b92565b6000546001600160a01b03166100c1565b6100c161013f3660046115a8565b610ba6565b6002546100c1906001600160a01b031681565b6100c1610165366004611563565b6110f6565b6100c161112e565b6100f06101803660046115e3565b611182565b600480546001600160a01b0319166001600160a01b038416908117825560408051636d9dd20160e01b815290519192636d9dd2019282820192602092908290030181865afa1580156101db573d6000803e3d6000fd5b505050506040513d601f19601f820116820180604052508101906101ff9190611610565b600380546001600160a01b0319166001600160a01b039283161790556004805460408051638f62048760e01b815290519190931692638f62048792818101926020929091908290030181865afa15801561025d573d6000803e3d6000fd5b505050506040513d601f19601f82011682018060405250810190610281919061162d565b421161043e57600480546040516370a0823160e01b8152339281019290925282916001600160a01b03909116906370a0823190602401602060405180830381865afa1580156102d4573d6000803e3d6000fd5b505050506040513d601f19601f820116820180604052508101906102f8919061162d565b1015801561037057506003546040516370a0823160e01b815233600482015282916001600160a01b0316906370a0823190602401602060405180830381865afa158015610349573d6000803e3d6000fd5b505050506040513d601f19601f8201168201806040525081019061036d919061162d565b10155b6103d45760405162461bcd60e51b815260206004820152602a60248201527f4d757374206f776e20626f7468206f7074696f6e20616e6420636f6c6c61746560448201526972616c20746f6b656e7360b01b60648201526084015b60405180910390fd5b60048054604051632770a7eb60e21b81523392810192909252602482018390526001600160a01b031690639dc29fac90604401600060405180830381600087803b15801561042157600080fd5b505af1158015610435573d6000803e3d6000fd5b505050506104f8565b6003546040516370a0823160e01b815233600482015282916001600160a01b0316906370a0823190602401602060405180830381865afa158015610486573d6000803e3d6000fd5b505050506040513d601f19601f820116820180604052508101906104aa919061162d565b10156104f85760405162461bcd60e51b815260206004820152601e60248201527f496e73756666696369656e7420636f6c6c61746572616c20746f6b656e73000060448201526064016103cb565b600354604051632770a7eb60e21b8152336004820152602481018390526001600160a01b0390911690639dc29fac90604401600060405180830381600087803b15801561054457600080fd5b505af1158015610558573d6000803e3d6000fd5b505060025461057492506001600160a01b0316905033836111c0565b60405181815233907fb4eaf47ecd4bc76248f192433e8067c96cb3e17aced42fbc47a512742fb742169060200160405180910390a25050565b600781815481106105bd57600080fd5b6000918252602090912001546001600160a01b0316905081565b600480546001600160a01b0319166001600160a01b038416908117825560408051638f62048760e01b815290519192638f6204879282820192602092908290030181865afa15801561062d573d6000803e3d6000fd5b505050506040513d601f19601f82011682018060405250810190610651919061162d565b4211156106915760405162461bcd60e51b815260206004820152600e60248201526d13dc1d1a5bdb88195e1c1a5c995960921b60448201526064016103cb565b600480546040516370a0823160e01b8152339281019290925282916001600160a01b03909116906370a0823190602401602060405180830381865afa1580156106de573d6000803e3d6000fd5b505050506040513d601f19601f82011682018060405250810190610702919061162d565b10156107505760405162461bcd60e51b815260206004820152601a60248201527f496e73756666696369656e74206f7074696f6e20746f6b656e7300000000000060448201526064016103cb565b600480546040516370a0823160e01b815233928101929092526000916001600160a01b03909116906370a0823190602401602060405180830381865afa15801561079e573d6000803e3d6000fd5b505050506040513d601f19601f820116820180604052508101906107c2919061162d565b1161080f5760405162461bcd60e51b815260206004820152601a60248201527f496e73756666696369656e74206f7074696f6e20746f6b656e7300000000000060448201526064016103cb565b6004805460408051636d9dd20160e01b815290516001600160a01b0390921692636d9dd2019282820192602092908290030181865afa158015610856573d6000803e3d6000fd5b505050506040513d601f19601f8201168201806040525081019061087a9190611610565b600380546001600160a01b0319166001600160a01b0392831617905560048054604080516315b1ea0160e31b81529051600094670de0b6b3a76400009493169263ad8f5008928082019260209290918290030181865afa1580156108e2573d6000803e3d6000fd5b505050506040513d601f19601f82011682018060405250810190610906919061162d565b610910908461165c565b61091a9190611673565b600354604051634fdda1f560e01b8152600481018590529192506000916001600160a01b0390911690634fdda1f590602401600060405180830381865afa158015610969573d6000803e3d6000fd5b505050506040513d6000823e601f3d908101601f1916820160405261099191908101906116ab565b90506000805b8251811080156109a75750606481105b15610b55578281815181106109be576109be61177b565b60209081029190910101516003546040516370a0823160e01b81526001600160a01b0380841660048301529294508792909116906370a0823190602401602060405180830381865afa158015610a18573d6000803e3d6000fd5b505050506040513d601f19601f82011682018060405250810190610a3c919061162d565b1115610b4357600354604051632770a7eb60e21b81526001600160a01b0384811660048301526024820188905290911690639dc29fac90604401600060405180830381600087803b158015610a9057600080fd5b505af1158015610aa4573d6000803e3d6000fd5b5050600154610ac192506001600160a01b03169050338487611224565b60048054604051632770a7eb60e21b81523392810192909252602482018790526001600160a01b031690639dc29fac90604401600060405180830381600087803b158015610b0e57600080fd5b505af1158015610b22573d6000803e3d6000fd5b5050600254610b3e92506001600160a01b0316905033876111c0565b610b55565b80610b4d81611791565b915050610997565b5060405184815233907f8ddc97895f60c450c0b09eaeadbc42f8973b77f9540fe465b91939670ee4807b9060200160405180910390a25050505050565b610b9a611263565b610ba46000611290565b565b6040513381526000907f02bd09a7b664c69b1dd1010bba77cd5117065da368f2f0d034767eec1a109b589060200160405180910390a1834210610c355760405162461bcd60e51b815260206004820152602160248201527f45787069726174696f6e2064617465206e6f7420696e207468652066757475726044820152606560f81b60648201526084016103cb565b600280546001600160a01b0319166001600160a01b03878116918217909255600090815260056020908152604080832088845282528083208784529091529020541680610edf5760006040518060400160405280600481526020016310d3d31360e21b815250905060006040518060400160405280600381526020016210d3d360ea1b81525090508181898989604051610cce90611534565b610cdc9594939291906117fa565b604051809103906000f080158015610cf8573d6000803e3d6000fd5b50600380546001600160a01b0319166001600160a01b03929092169182179055604051839183918b91908b908b90610d2f90611541565b610d3e96959493929190611846565b604051809103906000f080158015610d5a573d6000803e3d6000fd5b50600480546001600160a01b039283166001600160a01b03199182168117909255918a1660009081526005602090815260408083208c845282528083208b8452825280832080548616851790556007805460018181019092557fa66cc928b5edb82af9bd49922954155ab7b0942694bea4ce44661d9a8736c688018054871686179055338452600683528184208054918201815584529282902090920180549094168317909355805180820190915260128152714e6577204f7074696f6e204164647265737360701b928101929092529350610e3690846112e0565b6040805180820190915260128152714e657720436f6c6c6174204164647265737360701b6020820152600354610e7591906001600160a01b03166112e0565b610ea7604051806040016040528060118152602001701b995dc8151bdad95b8818dc99585d1959607a1b815250611329565b826001600160a01b031660008051602061354d83398151915286604051610ed091815260200190565b60405180910390a25050610fdb565b806001600160a01b031660008051602061354d83398151915284604051610f0891815260200190565b60405180910390a2600480546001600160a01b0319166001600160a01b038316908117825560408051636d9dd20160e01b815290519192636d9dd2019282820192602092908290030181865afa158015610f66573d6000803e3d6000fd5b505050506040513d601f19601f82011682018060405250810190610f8a9190611610565b600380546001600160a01b0319166001600160a01b039290921691909117905560408051808201909152601181527013db1908151bdad95b8818dc99585d1959607a1b6020820152610fdb90611329565b600254610ff3906001600160a01b0316333086611224565b600480546040516340c10f1960e01b81523392810192909252602482018590526001600160a01b0316906340c10f1990604401600060405180830381600087803b15801561104057600080fd5b505af1158015611054573d6000803e3d6000fd5b50506003546040516340c10f1960e01b8152336004820152602481018790526001600160a01b0390911692506340c10f199150604401600060405180830381600087803b1580156110a457600080fd5b505af11580156110b8573d6000803e3d6000fd5b50505050806001600160a01b031660008051602061354d833981519152846040516110e591815260200190565b60405180910390a295945050505050565b6006602052816000526040600020818154811061111257600080fd5b6000918252602090912001546001600160a01b03169150829050565b6040516006815260009073a0b86991c6218b36c1d19d4a2e9eb0ce3606eb489060008051602061354d8339815191529060200160405180910390a25073a0b86991c6218b36c1d19d4a2e9eb0ce3606eb4890565b61118a611263565b6001600160a01b0381166111b457604051631e4fbdf760e01b8152600060048201526024016103cb565b6111bd81611290565b50565b6040516001600160a01b0383811660248301526044820183905261121f91859182169063a9059cbb906064015b604051602081830303815290604052915060e01b6020820180516001600160e01b03838183161783525050505061136c565b505050565b6040516001600160a01b03848116602483015283811660448301526064820183905261125d9186918216906323b872dd906084016111ed565b50505050565b6000546001600160a01b03163314610ba45760405163118cdaa760e01b81523360048201526024016103cb565b600080546001600160a01b038381166001600160a01b0319831681178455604051919092169283917f8be0079c531659141344cd1fd0a4f28419497f9722a3daafe3b4186f6b6457e09190a35050565b61132582826040516024016112f692919061189a565b60408051601f198184030181529190526020810180516001600160e01b031663319af33360e01b1790526113cf565b5050565b6111bd8160405160240161133d91906118c4565b60408051601f198184030181529190526020810180516001600160e01b031663104c13eb60e21b1790526113cf565b60006113816001600160a01b038416836113d8565b905080516000141580156113a65750808060200190518101906113a491906118d7565b155b1561121f57604051635274afe760e01b81526001600160a01b03841660048201526024016103cb565b6111bd816113ef565b60606113e683836000611410565b90505b92915050565b60006a636f6e736f6c652e6c6f679050600080835160208501845afa505050565b6060814710156114355760405163cd78605960e01b81523060048201526024016103cb565b600080856001600160a01b0316848660405161145191906118f9565b60006040518083038185875af1925050503d806000811461148e576040519150601f19603f3d011682016040523d82523d6000602084013e611493565b606091505b50915091506114a38683836114af565b925050505b9392505050565b6060826114c4576114bf8261150b565b6114a8565b81511580156114db57506001600160a01b0384163b155b1561150457604051639996b31560e01b81526001600160a01b03851660048201526024016103cb565b50806114a8565b80511561151b5780518082602001fd5b604051630a12f52160e11b815260040160405180910390fd5b610f088061191683390190565b610d2f8061281e83390190565b6001600160a01b03811681146111bd57600080fd5b6000806040838503121561157657600080fd5b82356115818161154e565b946020939093013593505050565b6000602082840312156115a157600080fd5b5035919050565b600080600080608085870312156115be57600080fd5b84356115c98161154e565b966020860135965060408601359560600135945092505050565b6000602082840312156115f557600080fd5b81356114a88161154e565b805161160b8161154e565b919050565b60006020828403121561162257600080fd5b81516114a88161154e565b60006020828403121561163f57600080fd5b5051919050565b634e487b7160e01b600052601160045260246000fd5b80820281158282048414176113e9576113e9611646565b60008261169057634e487b7160e01b600052601260045260246000fd5b500490565b634e487b7160e01b600052604160045260246000fd5b6000602082840312156116bd57600080fd5b815167ffffffffffffffff8111156116d457600080fd5b8201601f810184136116e557600080fd5b805167ffffffffffffffff8111156116ff576116ff611695565b8060051b604051601f19603f830116810181811067ffffffffffffffff8211171561172c5761172c611695565b60405291825260208184018101929081018784111561174a57600080fd5b6020850194505b838510156117705761176285611600565b815260209485019401611751565b509695505050505050565b634e487b7160e01b600052603260045260246000fd5b6000600182016117a3576117a3611646565b5060010190565b60005b838110156117c55781810151838201526020016117ad565b50506000910152565b600081518084526117e68160208601602086016117aa565b601f01601f19169290920160200192915050565b60a08152600061180d60a08301886117ce565b828103602084015261181f81886117ce565b6001600160a01b039690961660408401525050606081019290925260809091015292915050565b60c08152600061185960c08301896117ce565b828103602084015261186b81896117ce565b6001600160a01b03978816604085015295909616606083015250608081019290925260a0909101529392505050565b6040815260006118ad60408301856117ce565b905060018060a01b03831660208301529392505050565b6020815260006113e660208301846117ce565b6000602082840312156118e957600080fd5b815180151581146114a857600080fd5b6000825161190b8184602087016117aa565b919091019291505056fe608060405234801561001057600080fd5b50604051610f08380380610f0883398101604081905261002f91610137565b8484600361003d838261025c565b50600461004a828261025c565b505050600691909155600755600580546001600160a01b0319166001600160a01b03929092169190911790555061031a9050565b634e487b7160e01b600052604160045260246000fd5b600082601f8301126100a557600080fd5b81516001600160401b038111156100be576100be61007e565b604051601f8201601f19908116603f011681016001600160401b03811182821017156100ec576100ec61007e565b60405281815283820160200185101561010457600080fd5b60005b8281101561012357602081860181015183830182015201610107565b506000918101602001919091529392505050565b600080600080600060a0868803121561014f57600080fd5b85516001600160401b0381111561016557600080fd5b61017188828901610094565b602088015190965090506001600160401b0381111561018f57600080fd5b61019b88828901610094565b604088015190955090506001600160a01b03811681146101ba57600080fd5b6060870151608090970151959894975095949392505050565b600181811c908216806101e757607f821691505b60208210810361020757634e487b7160e01b600052602260045260246000fd5b50919050565b601f82111561025757806000526020600020601f840160051c810160208510156102345750805b601f840160051c820191505b818110156102545760008155600101610240565b50505b505050565b81516001600160401b038111156102755761027561007e565b6102898161028384546101d3565b8461020d565b6020601f8211600181146102bd57600083156102a55750848201515b600019600385901b1c1916600184901b178455610254565b600084815260208120601f198516915b828110156102ed57878501518255602094850194600190920191016102cd565b508482101561030b5786840151600019600387901b60f8161c191681555b50505050600190811b01905550565b610bdf806103296000396000f3fe608060405234801561001057600080fd5b50600436106101005760003560e01c80634fdda1f5116100975780639dc29fac116100665780639dc29fac14610223578063a9059cbb14610236578063ad8f500814610249578063dd62ed3e1461025257600080fd5b80634fdda1f5146101c957806370a08231146101e95780638f6204871461021257806395d89b411461021b57600080fd5b806323b872dd116100d357806323b872dd1461017f578063313ce5671461019257806340c10f19146101a157806348d399e7146101b657600080fd5b8063025e7c271461010557806306fdde0314610135578063095ea7b31461014a57806318160ddd1461016d575b600080fd5b61011861011336600461097d565b61028b565b6040516001600160a01b0390911681526020015b60405180910390f35b61013d6102b5565b60405161012c9190610996565b61015d610158366004610a00565b610347565b604051901515815260200161012c565b6002545b60405190815260200161012c565b61015d61018d366004610a2a565b610361565b6040516012815260200161012c565b6101b46101af366004610a00565b6103be565b005b600554610118906001600160a01b031681565b6101dc6101d736600461097d565b61041b565b60405161012c9190610a67565b6101716101f7366004610ab3565b6001600160a01b031660009081526020819052604090205490565b61017160065481565b61013d61057d565b6101b4610231366004610a00565b61058c565b61015d610244366004610a00565b61059a565b61017160075481565b610171610260366004610ace565b6001600160a01b03918216600090815260016020908152604080832093909416825291909152205490565b6008818154811061029b57600080fd5b6000918252602090912001546001600160a01b0316905081565b6060600380546102c490610b01565b80601f01602080910402602001604051908101604052809291908181526020018280546102f090610b01565b801561033d5780601f106103125761010080835404028352916020019161033d565b820191906000526020600020905b81548152906001019060200180831161032057829003601f168201915b5050505050905090565b6000336103558185856105f5565b60019150505b92915050565b6008805460018101825560009182527ff3f7a9fe364faab93b216da50a3214154f22a0a2b415b23a84c8169e8b636ee30180546001600160a01b0319166001600160a01b0385161790556103b6848484610607565b949350505050565b6103c8828261062b565b50600880546001810182556000919091527ff3f7a9fe364faab93b216da50a3214154f22a0a2b415b23a84c8169e8b636ee30180546001600160a01b0319166001600160a01b0392909216919091179055565b6060806000805b600854811080156104335750606481105b156104d55760006008828154811061044d5761044d610b3b565b6000918252602090912001546001600160a01b0316905085610484826001600160a01b031660009081526020819052604090205490565b106104c2578084848151811061049c5761049c610b3b565b6001600160a01b0390921660209283029190910190910152826104be81610b67565b9350505b50806104cd81610b67565b915050610422565b5060008167ffffffffffffffff8111156104f1576104f1610b80565b60405190808252806020026020018201604052801561051a578160200160208202803683370190505b50905060005b828110156105745783818151811061053a5761053a610b3b565b602002602001015182828151811061055457610554610b3b565b6001600160a01b0390921660209283029190910190910152600101610520565b50949350505050565b6060600480546102c490610b01565b6105968282610666565b5050565b6008805460018101825560009182527ff3f7a9fe364faab93b216da50a3214154f22a0a2b415b23a84c8169e8b636ee30180546001600160a01b0319166001600160a01b0385161790556105ee838361069c565b9392505050565b61060283838360016106aa565b505050565b600033610615858285610780565b6106208585856107f8565b506001949350505050565b6001600160a01b03821661065a5760405163ec442f0560e01b8152600060048201526024015b60405180910390fd5b61059660008383610853565b6001600160a01b03821661069057604051634b637e8f60e11b815260006004820152602401610651565b61059682600083610853565b6000336103558185856107f8565b6001600160a01b0384166106d45760405163e602df0560e01b815260006004820152602401610651565b6001600160a01b0383166106fe57604051634a1406b160e11b815260006004820152602401610651565b6001600160a01b038085166000908152600160209081526040808320938716835292905220829055801561077a57826001600160a01b0316846001600160a01b03167f8c5be1e5ebec7d5bd14f71427d1e84f3dd0314c0f7b2291e5b200ac8c7c3b9258460405161077191815260200190565b60405180910390a35b50505050565b6001600160a01b03838116600090815260016020908152604080832093861683529290522054600019811461077a57818110156107e957604051637dc7a0d960e11b81526001600160a01b03841660048201526024810182905260448101839052606401610651565b61077a848484840360006106aa565b6001600160a01b03831661082257604051634b637e8f60e11b815260006004820152602401610651565b6001600160a01b03821661084c5760405163ec442f0560e01b815260006004820152602401610651565b6106028383835b6001600160a01b03831661087e5780600260008282546108739190610b96565b909155506108f09050565b6001600160a01b038316600090815260208190526040902054818110156108d15760405163391434e360e21b81526001600160a01b03851660048201526024810182905260448101839052606401610651565b6001600160a01b03841660009081526020819052604090209082900390555b6001600160a01b03821661090c5760028054829003905561092b565b6001600160a01b03821660009081526020819052604090208054820190555b816001600160a01b0316836001600160a01b03167fddf252ad1be2c89b69c2b068fc378daa952ba7f163c4a11628f55a4df523b3ef8360405161097091815260200190565b60405180910390a3505050565b60006020828403121561098f57600080fd5b5035919050565b602081526000825180602084015260005b818110156109c457602081860181015160408684010152016109a7565b506000604082850101526040601f19601f83011684010191505092915050565b80356001600160a01b03811681146109fb57600080fd5b919050565b60008060408385031215610a1357600080fd5b610a1c836109e4565b946020939093013593505050565b600080600060608486031215610a3f57600080fd5b610a48846109e4565b9250610a56602085016109e4565b929592945050506040919091013590565b602080825282518282018190526000918401906040840190835b81811015610aa85783516001600160a01b0316835260209384019390920191600101610a81565b509095945050505050565b600060208284031215610ac557600080fd5b6105ee826109e4565b60008060408385031215610ae157600080fd5b610aea836109e4565b9150610af8602084016109e4565b90509250929050565b600181811c90821680610b1557607f821691505b602082108103610b3557634e487b7160e01b600052602260045260246000fd5b50919050565b634e487b7160e01b600052603260045260246000fd5b634e487b7160e01b600052601160045260246000fd5b600060018201610b7957610b79610b51565b5060010190565b634e487b7160e01b600052604160045260246000fd5b8082018082111561035b5761035b610b5156fea2646970667358221220f693c3e7c295d8d303db7edeb93d2909e963c7a97d6b08047f117dbad9d6df9b64736f6c634300081b0033608060405234801561001057600080fd5b50604051610d2f380380610d2f83398101604081905261002f916101af565b8585600361003d83826102d6565b50600461004a82826102d6565b50505060078290556008819055600680546001600160a01b038681166001600160a01b03199283168117909355600580549187169190921681179091556040805192835260208301919091528101839052606081018290527f7d00aea56462abb4abc6d9b60039fca3556e674e68af3595cda3846b1366a4be9060800160405180910390a1505050505050610394565b634e487b7160e01b600052604160045260246000fd5b600082601f83011261010157600080fd5b81516001600160401b0381111561011a5761011a6100da565b604051601f8201601f19908116603f011681016001600160401b0381118282101715610148576101486100da565b60405281815283820160200185101561016057600080fd5b60005b8281101561017f57602081860181015183830182015201610163565b506000918101602001919091529392505050565b80516001600160a01b03811681146101aa57600080fd5b919050565b60008060008060008060c087890312156101c857600080fd5b86516001600160401b038111156101de57600080fd5b6101ea89828a016100f0565b602089015190975090506001600160401b0381111561020857600080fd5b61021489828a016100f0565b95505061022360408801610193565b935061023160608801610193565b608088015160a090980151969995985093969395939492505050565b600181811c9082168061026157607f821691505b60208210810361028157634e487b7160e01b600052602260045260246000fd5b50919050565b601f8211156102d157806000526020600020601f840160051c810160208510156102ae5750805b601f840160051c820191505b818110156102ce57600081556001016102ba565b50505b505050565b81516001600160401b038111156102ef576102ef6100da565b610303816102fd845461024d565b84610287565b6020601f821160018114610337576000831561031f5750848201515b600019600385901b1c1916600184901b1784556102ce565b600084815260208120601f198516915b828110156103675787850151825560209485019460019092019101610347565b50848210156103855786840151600019600387901b60f8161c191681555b50505050600190811b01905550565b61098c806103a36000396000f3fe608060405234801561001057600080fd5b506004361061010b5760003560e01c80636d9dd201116100a257806395d89b411161007157806395d89b411461022d5780639dc29fac14610235578063a9059cbb14610248578063ad8f50081461025b578063dd62ed3e1461026457600080fd5b80636d9dd201146101cf57806370a08231146101e25780638f6204871461020b57806394c709ed1461021457600080fd5b80632f13b60c116100de5780632f13b60c14610176578063313ce5671461018057806340c10f191461018f57806348d399e7146101a457600080fd5b806306fdde0314610110578063095ea7b31461012e57806318160ddd1461015157806323b872dd14610163575b600080fd5b61011861029d565b60405161012591906107ba565b60405180910390f35b61014161013c366004610824565b61032f565b6040519015158152602001610125565b6002545b604051908152602001610125565b61014161017136600461084e565b610349565b6007544211610141565b60405160128152602001610125565b6101a261019d366004610824565b6103b0565b005b6006546101b7906001600160a01b031681565b6040516001600160a01b039091168152602001610125565b6005546101b7906001600160a01b031681565b6101556101f036600461088b565b6001600160a01b031660009081526020819052604090205490565b61015560075481565b6101a26102223660046108a6565b600791909155600855565b6101186103be565b6101a2610243366004610824565b6103cd565b610141610256366004610824565b6103d7565b61015560085481565b6101556102723660046108c8565b6001600160a01b03918216600090815260016020908152604080832093909416825291909152205490565b6060600380546102ac906108fb565b80601f01602080910402602001604051908101604052809291908181526020018280546102d8906108fb565b80156103255780601f106102fa57610100808354040283529160200191610325565b820191906000526020600020905b81548152906001019060200180831161030857829003601f168201915b5050505050905090565b60003361033d818585610437565b60019150505b92915050565b6000610356600754421190565b1561039d5760405162461bcd60e51b815260206004820152601260248201527113dc1d1a5bdb881a185cc8195e1c1a5c995960721b60448201526064015b60405180910390fd5b6103a8848484610449565b949350505050565b6103ba828261046d565b5050565b6060600480546102ac906108fb565b6103ba82826104a3565b60006103e4600754421190565b156104265760405162461bcd60e51b815260206004820152601260248201527113dc1d1a5bdb881a185cc8195e1c1a5c995960721b6044820152606401610394565b61043083836104d9565b9392505050565b61044483838360016104e7565b505050565b6000336104578582856105bd565b610462858585610635565b506001949350505050565b6001600160a01b0382166104975760405163ec442f0560e01b815260006004820152602401610394565b6103ba60008383610690565b6001600160a01b0382166104cd57604051634b637e8f60e11b815260006004820152602401610394565b6103ba82600083610690565b60003361033d818585610635565b6001600160a01b0384166105115760405163e602df0560e01b815260006004820152602401610394565b6001600160a01b03831661053b57604051634a1406b160e11b815260006004820152602401610394565b6001600160a01b03808516600090815260016020908152604080832093871683529290522082905580156105b757826001600160a01b0316846001600160a01b03167f8c5be1e5ebec7d5bd14f71427d1e84f3dd0314c0f7b2291e5b200ac8c7c3b925846040516105ae91815260200190565b60405180910390a35b50505050565b6001600160a01b0383811660009081526001602090815260408083209386168352929052205460001981146105b7578181101561062657604051637dc7a0d960e11b81526001600160a01b03841660048201526024810182905260448101839052606401610394565b6105b7848484840360006104e7565b6001600160a01b03831661065f57604051634b637e8f60e11b815260006004820152602401610394565b6001600160a01b0382166106895760405163ec442f0560e01b815260006004820152602401610394565b6104448383835b6001600160a01b0383166106bb5780600260008282546106b09190610935565b9091555061072d9050565b6001600160a01b0383166000908152602081905260409020548181101561070e5760405163391434e360e21b81526001600160a01b03851660048201526024810182905260448101839052606401610394565b6001600160a01b03841660009081526020819052604090209082900390555b6001600160a01b03821661074957600280548290039055610768565b6001600160a01b03821660009081526020819052604090208054820190555b816001600160a01b0316836001600160a01b03167fddf252ad1be2c89b69c2b068fc378daa952ba7f163c4a11628f55a4df523b3ef836040516107ad91815260200190565b60405180910390a3505050565b602081526000825180602084015260005b818110156107e857602081860181015160408684010152016107cb565b506000604082850101526040601f19601f83011684010191505092915050565b80356001600160a01b038116811461081f57600080fd5b919050565b6000806040838503121561083757600080fd5b61084083610808565b946020939093013593505050565b60008060006060848603121561086357600080fd5b61086c84610808565b925061087a60208501610808565b929592945050506040919091013590565b60006020828403121561089d57600080fd5b61043082610808565b600080604083850312156108b957600080fd5b50508035926020909101359150565b600080604083850312156108db57600080fd5b6108e483610808565b91506108f260208401610808565b90509250929050565b600181811c9082168061090f57607f821691505b60208210810361092f57634e487b7160e01b600052602260045260246000fd5b50919050565b8082018082111561034357634e487b7160e01b600052601160045260246000fdfea2646970667358221220868daf5847be0fee45631921a9b3b5c3aca0c4e98faf0c8fbe87541dafb1267964736f6c634300081b00330b01e1849f57e9a1ec790c1b96a2ec182367516095fb0bad4b8c1c81a3da8551a2646970667358221220e297681ae8755e9ec9c769570c713b56d5c16b093a33fd1125cec095b428ed4464736f6c634300081b0033",
  "linkReferences": {},
  "deployedLinkReferences": {}
}